{
	"MegaJackpot.sol": {
		"MegaJackpot": {
			"abi": [
				{
					"anonymous": false,
					"inputs": [
						{
							"indexed": false,
							"internalType": "string",
							"name": "_title",
							"type": "string"
						},
						{
							"indexed": false,
							"internalType": "uint256",
							"name": "_price",
							"type": "uint256"
						},
						{
							"indexed": false,
							"internalType": "uint256",
							"name": "_startPrice",
							"type": "uint256"
						},
						{
							"indexed": false,
							"internalType": "uint256",
							"name": "_affiliatePercent",
							"type": "uint256"
						},
						{
							"indexed": false,
							"internalType": "uint256",
							"name": "_ownerPercent",
							"type": "uint256"
						},
						{
							"indexed": false,
							"internalType": "uint256",
							"name": "jackpotPercent",
							"type": "uint256"
						},
						{
							"indexed": false,
							"internalType": "uint256[]",
							"name": "values",
							"type": "uint256[]"
						},
						{
							"indexed": false,
							"internalType": "uint256[]",
							"name": "percents",
							"type": "uint256[]"
						},
						{
							"indexed": false,
							"internalType": "uint256",
							"name": "idGame",
							"type": "uint256"
						},
						{
							"indexed": false,
							"internalType": "string",
							"name": "nameContract",
							"type": "string"
						}
					],
					"name": "CreateGame",
					"type": "event"
				},
				{
					"anonymous": false,
					"inputs": [
						{
							"indexed": false,
							"internalType": "uint256",
							"name": "totalReward",
							"type": "uint256"
						},
						{
							"indexed": false,
							"internalType": "uint256",
							"name": "qty",
							"type": "uint256"
						},
						{
							"indexed": false,
							"internalType": "bool",
							"name": "jackpot",
							"type": "bool"
						},
						{
							"indexed": false,
							"internalType": "uint256",
							"name": "devFee",
							"type": "uint256"
						},
						{
							"indexed": false,
							"internalType": "uint256",
							"name": "mktFee",
							"type": "uint256"
						},
						{
							"indexed": false,
							"internalType": "uint256",
							"name": "affFee",
							"type": "uint256"
						},
						{
							"indexed": false,
							"internalType": "uint256",
							"name": "ownerFee",
							"type": "uint256"
						}
					],
					"name": "Order",
					"type": "event"
				},
				{
					"anonymous": false,
					"inputs": [
						{
							"indexed": true,
							"internalType": "address",
							"name": "previousOwner",
							"type": "address"
						},
						{
							"indexed": true,
							"internalType": "address",
							"name": "newOwner",
							"type": "address"
						}
					],
					"name": "OwnershipTransferred",
					"type": "event"
				},
				{
					"inputs": [],
					"name": "PERCENTS_DIVIDER",
					"outputs": [
						{
							"internalType": "uint256",
							"name": "",
							"type": "uint256"
						}
					],
					"stateMutability": "view",
					"type": "function"
				},
				{
					"inputs": [],
					"name": "SPIN_PERCENTS_DIVIDER",
					"outputs": [
						{
							"internalType": "uint256",
							"name": "",
							"type": "uint256"
						}
					],
					"stateMutability": "view",
					"type": "function"
				},
				{
					"inputs": [
						{
							"internalType": "string",
							"name": "_title",
							"type": "string"
						},
						{
							"internalType": "uint256",
							"name": "_price",
							"type": "uint256"
						},
						{
							"internalType": "uint256",
							"name": "_startPrice",
							"type": "uint256"
						},
						{
							"internalType": "uint256",
							"name": "_affiliatePercent",
							"type": "uint256"
						},
						{
							"internalType": "uint256",
							"name": "_ownerPercent",
							"type": "uint256"
						},
						{
							"internalType": "uint256",
							"name": "jackpotPercent",
							"type": "uint256"
						},
						{
							"internalType": "uint256[]",
							"name": "values",
							"type": "uint256[]"
						},
						{
							"internalType": "uint256[]",
							"name": "percents",
							"type": "uint256[]"
						}
					],
					"name": "createGame",
					"outputs": [],
					"stateMutability": "nonpayable",
					"type": "function"
				},
				{
					"inputs": [
						{
							"internalType": "uint256",
							"name": "",
							"type": "uint256"
						}
					],
					"name": "gameInfo",
					"outputs": [
						{
							"internalType": "uint256",
							"name": "price",
							"type": "uint256"
						},
						{
							"internalType": "uint256",
							"name": "startPrize",
							"type": "uint256"
						},
						{
							"internalType": "string",
							"name": "title",
							"type": "string"
						},
						{
							"internalType": "uint256",
							"name": "ownerPercent",
							"type": "uint256"
						},
						{
							"internalType": "uint256",
							"name": "affiliatePercent",
							"type": "uint256"
						},
						{
							"internalType": "uint256",
							"name": "term",
							"type": "uint256"
						},
						{
							"internalType": "uint256",
							"name": "totalReward",
							"type": "uint256"
						},
						{
							"internalType": "uint256",
							"name": "totalSpin",
							"type": "uint256"
						}
					],
					"stateMutability": "view",
					"type": "function"
				},
				{
					"inputs": [],
					"name": "indexGame",
					"outputs": [
						{
							"internalType": "uint256",
							"name": "",
							"type": "uint256"
						}
					],
					"stateMutability": "view",
					"type": "function"
				},
				{
					"inputs": [],
					"name": "name",
					"outputs": [
						{
							"internalType": "string",
							"name": "",
							"type": "string"
						}
					],
					"stateMutability": "view",
					"type": "function"
				},
				{
					"inputs": [],
					"name": "nonce",
					"outputs": [
						{
							"internalType": "uint256",
							"name": "",
							"type": "uint256"
						}
					],
					"stateMutability": "view",
					"type": "function"
				},
				{
					"inputs": [
						{
							"internalType": "uint256",
							"name": "devPercent",
							"type": "uint256"
						},
						{
							"internalType": "uint256",
							"name": "sytemFee",
							"type": "uint256"
						},
						{
							"internalType": "address",
							"name": "sponsorAddress",
							"type": "address"
						},
						{
							"internalType": "address",
							"name": "devWallet",
							"type": "address"
						},
						{
							"internalType": "address",
							"name": "mktWallet",
							"type": "address"
						},
						{
							"internalType": "uint256",
							"name": "idGame",
							"type": "uint256"
						},
						{
							"internalType": "uint256",
							"name": "tokenId",
							"type": "uint256"
						},
						{
							"internalType": "uint256",
							"name": "qty",
							"type": "uint256"
						},
						{
							"internalType": "address",
							"name": "userSpin",
							"type": "address"
						}
					],
					"name": "order",
					"outputs": [],
					"stateMutability": "nonpayable",
					"type": "function"
				},
				{
					"inputs": [
						{
							"internalType": "uint256",
							"name": "",
							"type": "uint256"
						},
						{
							"internalType": "uint256",
							"name": "",
							"type": "uint256"
						}
					],
					"name": "orderDetail",
					"outputs": [
						{
							"internalType": "uint256",
							"name": "",
							"type": "uint256"
						}
					],
					"stateMutability": "view",
					"type": "function"
				},
				{
					"inputs": [
						{
							"internalType": "uint256",
							"name": "",
							"type": "uint256"
						}
					],
					"name": "orders",
					"outputs": [
						{
							"internalType": "bool",
							"name": "jackpot",
							"type": "bool"
						},
						{
							"internalType": "uint256",
							"name": "qty",
							"type": "uint256"
						},
						{
							"internalType": "uint256",
							"name": "tokenId",
							"type": "uint256"
						}
					],
					"stateMutability": "view",
					"type": "function"
				},
				{
					"inputs": [],
					"name": "owner",
					"outputs": [
						{
							"internalType": "address",
							"name": "",
							"type": "address"
						}
					],
					"stateMutability": "view",
					"type": "function"
				},
				{
					"inputs": [
						{
							"internalType": "uint256",
							"name": "",
							"type": "uint256"
						},
						{
							"internalType": "uint256",
							"name": "",
							"type": "uint256"
						}
					],
					"name": "prize",
					"outputs": [
						{
							"internalType": "uint256",
							"name": "value",
							"type": "uint256"
						},
						{
							"internalType": "uint256",
							"name": "percent",
							"type": "uint256"
						}
					],
					"stateMutability": "view",
					"type": "function"
				},
				{
					"inputs": [],
					"name": "projectOwnerWallet",
					"outputs": [
						{
							"internalType": "address",
							"name": "",
							"type": "address"
						}
					],
					"stateMutability": "view",
					"type": "function"
				},
				{
					"inputs": [],
					"name": "renounceOwnership",
					"outputs": [],
					"stateMutability": "nonpayable",
					"type": "function"
				},
				{
					"inputs": [
						{
							"internalType": "address",
							"name": "_owner",
							"type": "address"
						}
					],
					"name": "setProjectOwnerWallet",
					"outputs": [],
					"stateMutability": "nonpayable",
					"type": "function"
				},
				{
					"inputs": [
						{
							"internalType": "address",
							"name": "_token",
							"type": "address"
						}
					],
					"name": "setToken",
					"outputs": [],
					"stateMutability": "nonpayable",
					"type": "function"
				},
				{
					"inputs": [],
					"name": "token",
					"outputs": [
						{
							"internalType": "contract IERC20",
							"name": "",
							"type": "address"
						}
					],
					"stateMutability": "view",
					"type": "function"
				},
				{
					"inputs": [
						{
							"internalType": "address",
							"name": "newOwner",
							"type": "address"
						}
					],
					"name": "transferOwnership",
					"outputs": [],
					"stateMutability": "nonpayable",
					"type": "function"
				}
			],
			"devdoc": {
				"kind": "dev",
				"methods": {
					"owner()": {
						"details": "Returns the address of the current owner."
					},
					"renounceOwnership()": {
						"details": "Leaves the contract without owner. It will not be possible to call `onlyOwner` functions anymore. Can only be called by the current owner. NOTE: Renouncing ownership will leave the contract without an owner, thereby removing any functionality that is only available to the owner."
					},
					"transferOwnership(address)": {
						"details": "Transfers ownership of the contract to a new account (`newOwner`). Can only be called by the current owner."
					}
				},
				"version": 1
			},
			"evm": {
				"assembly": "    /* \"MegaJackpot.sol\":259:8028  contract MegaJackpot is IMegaJackpot, ReentrancyGuard, Ownable {... */\n  mstore(0x40, 0x80)\n    /* \"MegaJackpot.sol\":392:432  string private _name = \"Mega Jackpot V1\" */\n  mload(0x40)\n  dup1\n  0x40\n  add\n  0x40\n  mstore\n  dup1\n  0x0f\n  dup2\n  mstore\n  0x20\n  add\n  0x4d656761204a61636b706f742056310000000000000000000000000000000000\n  dup2\n  mstore\n  pop\n  0x02\n  swap1\n  dup2\n  tag_1\n  swap2\n  swap1\n  tag_2\n  jump\t// in\ntag_1:\n  pop\n    /* \"MegaJackpot.sol\":609:610  0 */\n  0x00\n    /* \"MegaJackpot.sol\":582:610  uint256 public indexGame = 0 */\n  0x04\n  sstore\n    /* \"MegaJackpot.sol\":639:640  0 */\n  0x00\n    /* \"MegaJackpot.sol\":616:640  uint256 public nonce = 0 */\n  0x05\n  sstore\n    /* \"MegaJackpot.sol\":259:8028  contract MegaJackpot is IMegaJackpot, ReentrancyGuard, Ownable {... */\n  callvalue\n  dup1\n  iszero\n  tag_3\n  jumpi\n  0x00\n  dup1\n  revert\ntag_3:\n  pop\n    /* \"ReentrancyGuard.sol\":1637:1638  1 */\n  0x01\n    /* \"ReentrancyGuard.sol\":1742:1749  _status */\n  0x00\n    /* \"ReentrancyGuard.sol\":1742:1764  _status = _NOT_ENTERED */\n  dup2\n  swap1\n  sstore\n  pop\n    /* \"Ownable.sol\":860:883  _setOwner(_msgSender()) */\n  tag_8\n    /* \"Ownable.sol\":870:882  _msgSender() */\n  tag_9\n    /* \"Ownable.sol\":870:880  _msgSender */\n  shl(0x20, tag_10)\n    /* \"Ownable.sol\":870:882  _msgSender() */\n  0x20\n  shr\n  jump\t// in\ntag_9:\n    /* \"Ownable.sol\":860:869  _setOwner */\n  shl(0x20, tag_11)\n    /* \"Ownable.sol\":860:883  _setOwner(_msgSender()) */\n  0x20\n  shr\n  jump\t// in\ntag_8:\n    /* \"MegaJackpot.sol\":259:8028  contract MegaJackpot is IMegaJackpot, ReentrancyGuard, Ownable {... */\n  jump(tag_12)\n    /* \"Context.sol\":587:683  function _msgSender() internal view virtual returns (address) {... */\ntag_10:\n    /* \"Context.sol\":640:647  address */\n  0x00\n    /* \"Context.sol\":666:676  msg.sender */\n  caller\n    /* \"Context.sol\":659:676  return msg.sender */\n  swap1\n  pop\n    /* \"Context.sol\":587:683  function _msgSender() internal view virtual returns (address) {... */\n  swap1\n  jump\t// out\n    /* \"Ownable.sol\":2034:2203  function _setOwner(address newOwner) private {... */\ntag_11:\n    /* \"Ownable.sol\":2089:2105  address oldOwner */\n  0x00\n    /* \"Ownable.sol\":2108:2114  _owner */\n  0x01\n  0x00\n  swap1\n  sload\n  swap1\n  0x0100\n  exp\n  swap1\n  div\n  0xffffffffffffffffffffffffffffffffffffffff\n  and\n    /* \"Ownable.sol\":2089:2114  address oldOwner = _owner */\n  swap1\n  pop\n    /* \"Ownable.sol\":2133:2141  newOwner */\n  dup2\n    /* \"Ownable.sol\":2124:2130  _owner */\n  0x01\n  0x00\n    /* \"Ownable.sol\":2124:2141  _owner = newOwner */\n  0x0100\n  exp\n  dup2\n  sload\n  dup2\n  0xffffffffffffffffffffffffffffffffffffffff\n  mul\n  not\n  and\n  swap1\n  dup4\n  0xffffffffffffffffffffffffffffffffffffffff\n  and\n  mul\n  or\n  swap1\n  sstore\n  pop\n    /* \"Ownable.sol\":2187:2195  newOwner */\n  dup2\n    /* \"Ownable.sol\":2156:2196  OwnershipTransferred(oldOwner, newOwner) */\n  0xffffffffffffffffffffffffffffffffffffffff\n  and\n    /* \"Ownable.sol\":2177:2185  oldOwner */\n  dup2\n    /* \"Ownable.sol\":2156:2196  OwnershipTransferred(oldOwner, newOwner) */\n  0xffffffffffffffffffffffffffffffffffffffff\n  and\n  0x8be0079c531659141344cd1fd0a4f28419497f9722a3daafe3b4186f6b6457e0\n  mload(0x40)\n  mload(0x40)\n  dup1\n  swap2\n  sub\n  swap1\n  log3\n    /* \"Ownable.sol\":2079:2203  {... */\n  pop\n    /* \"Ownable.sol\":2034:2203  function _setOwner(address newOwner) private {... */\n  pop\n  jump\t// out\n    /* \"#utility.yul\":7:106   */\ntag_15:\n    /* \"#utility.yul\":59:65   */\n  0x00\n    /* \"#utility.yul\":93:98   */\n  dup2\n    /* \"#utility.yul\":87:99   */\n  mload\n    /* \"#utility.yul\":77:99   */\n  swap1\n  pop\n    /* \"#utility.yul\":7:106   */\n  swap2\n  swap1\n  pop\n  jump\t// out\n    /* \"#utility.yul\":112:292   */\ntag_16:\n    /* \"#utility.yul\":160:237   */\n  0x4e487b7100000000000000000000000000000000000000000000000000000000\n    /* \"#utility.yul\":157:158   */\n  0x00\n    /* \"#utility.yul\":150:238   */\n  mstore\n    /* \"#utility.yul\":257:261   */\n  0x41\n    /* \"#utility.yul\":254:255   */\n  0x04\n    /* \"#utility.yul\":247:262   */\n  mstore\n    /* \"#utility.yul\":281:285   */\n  0x24\n    /* \"#utility.yul\":278:279   */\n  0x00\n    /* \"#utility.yul\":271:286   */\n  revert\n    /* \"#utility.yul\":298:478   */\ntag_17:\n    /* \"#utility.yul\":346:423   */\n  0x4e487b7100000000000000000000000000000000000000000000000000000000\n    /* \"#utility.yul\":343:344   */\n  0x00\n    /* \"#utility.yul\":336:424   */\n  mstore\n    /* \"#utility.yul\":443:447   */\n  0x22\n    /* \"#utility.yul\":440:441   */\n  0x04\n    /* \"#utility.yul\":433:448   */\n  mstore\n    /* \"#utility.yul\":467:471   */\n  0x24\n    /* \"#utility.yul\":464:465   */\n  0x00\n    /* \"#utility.yul\":457:472   */\n  revert\n    /* \"#utility.yul\":484:804   */\ntag_18:\n    /* \"#utility.yul\":528:534   */\n  0x00\n    /* \"#utility.yul\":565:566   */\n  0x02\n    /* \"#utility.yul\":559:563   */\n  dup3\n    /* \"#utility.yul\":555:567   */\n  div\n    /* \"#utility.yul\":545:567   */\n  swap1\n  pop\n    /* \"#utility.yul\":612:613   */\n  0x01\n    /* \"#utility.yul\":606:610   */\n  dup3\n    /* \"#utility.yul\":602:614   */\n  and\n    /* \"#utility.yul\":633:651   */\n  dup1\n    /* \"#utility.yul\":623:704   */\n  tag_40\n  jumpi\n    /* \"#utility.yul\":689:693   */\n  0x7f\n    /* \"#utility.yul\":681:687   */\n  dup3\n    /* \"#utility.yul\":677:694   */\n  and\n    /* \"#utility.yul\":667:694   */\n  swap2\n  pop\n    /* \"#utility.yul\":623:704   */\ntag_40:\n    /* \"#utility.yul\":751:753   */\n  0x20\n    /* \"#utility.yul\":743:749   */\n  dup3\n    /* \"#utility.yul\":740:754   */\n  lt\n    /* \"#utility.yul\":720:738   */\n  dup2\n    /* \"#utility.yul\":717:755   */\n  sub\n    /* \"#utility.yul\":714:798   */\n  tag_41\n  jumpi\n    /* \"#utility.yul\":770:788   */\n  tag_42\n  tag_17\n  jump\t// in\ntag_42:\n    /* \"#utility.yul\":714:798   */\ntag_41:\n    /* \"#utility.yul\":535:804   */\n  pop\n    /* \"#utility.yul\":484:804   */\n  swap2\n  swap1\n  pop\n  jump\t// out\n    /* \"#utility.yul\":810:951   */\ntag_19:\n    /* \"#utility.yul\":859:863   */\n  0x00\n    /* \"#utility.yul\":882:885   */\n  dup2\n    /* \"#utility.yul\":874:885   */\n  swap1\n  pop\n    /* \"#utility.yul\":905:908   */\n  dup2\n    /* \"#utility.yul\":902:903   */\n  0x00\n    /* \"#utility.yul\":895:909   */\n  mstore\n    /* \"#utility.yul\":939:943   */\n  0x20\n    /* \"#utility.yul\":936:937   */\n  0x00\n    /* \"#utility.yul\":926:944   */\n  keccak256\n    /* \"#utility.yul\":918:944   */\n  swap1\n  pop\n    /* \"#utility.yul\":810:951   */\n  swap2\n  swap1\n  pop\n  jump\t// out\n    /* \"#utility.yul\":957:1050   */\ntag_20:\n    /* \"#utility.yul\":994:1000   */\n  0x00\n    /* \"#utility.yul\":1041:1043   */\n  0x20\n    /* \"#utility.yul\":1036:1038   */\n  0x1f\n    /* \"#utility.yul\":1029:1034   */\n  dup4\n    /* \"#utility.yul\":1025:1039   */\n  add\n    /* \"#utility.yul\":1021:1044   */\n  div\n    /* \"#utility.yul\":1011:1044   */\n  swap1\n  pop\n    /* \"#utility.yul\":957:1050   */\n  swap2\n  swap1\n  pop\n  jump\t// out\n    /* \"#utility.yul\":1056:1163   */\ntag_21:\n    /* \"#utility.yul\":1100:1108   */\n  0x00\n    /* \"#utility.yul\":1150:1155   */\n  dup3\n    /* \"#utility.yul\":1144:1148   */\n  dup3\n    /* \"#utility.yul\":1140:1156   */\n  shl\n    /* \"#utility.yul\":1119:1156   */\n  swap1\n  pop\n    /* \"#utility.yul\":1056:1163   */\n  swap3\n  swap2\n  pop\n  pop\n  jump\t// out\n    /* \"#utility.yul\":1169:1562   */\ntag_22:\n    /* \"#utility.yul\":1238:1244   */\n  0x00\n    /* \"#utility.yul\":1288:1289   */\n  0x08\n    /* \"#utility.yul\":1276:1286   */\n  dup4\n    /* \"#utility.yul\":1272:1290   */\n  mul\n    /* \"#utility.yul\":1311:1408   */\n  tag_47\n    /* \"#utility.yul\":1341:1407   */\n  0xffffffffffffffffffffffffffffffffffffffffffffffffffffffffffffffff\n    /* \"#utility.yul\":1330:1339   */\n  dup3\n    /* \"#utility.yul\":1311:1408   */\n  tag_21\n  jump\t// in\ntag_47:\n    /* \"#utility.yul\":1429:1468   */\n  tag_48\n    /* \"#utility.yul\":1459:1467   */\n  dup7\n    /* \"#utility.yul\":1448:1457   */\n  dup4\n    /* \"#utility.yul\":1429:1468   */\n  tag_21\n  jump\t// in\ntag_48:\n    /* \"#utility.yul\":1417:1468   */\n  swap6\n  pop\n    /* \"#utility.yul\":1501:1505   */\n  dup1\n    /* \"#utility.yul\":1497:1506   */\n  not\n    /* \"#utility.yul\":1490:1495   */\n  dup5\n    /* \"#utility.yul\":1486:1507   */\n  and\n    /* \"#utility.yul\":1477:1507   */\n  swap4\n  pop\n    /* \"#utility.yul\":1550:1554   */\n  dup1\n    /* \"#utility.yul\":1540:1548   */\n  dup7\n    /* \"#utility.yul\":1536:1555   */\n  and\n    /* \"#utility.yul\":1529:1534   */\n  dup5\n    /* \"#utility.yul\":1526:1556   */\n  or\n    /* \"#utility.yul\":1516:1556   */\n  swap3\n  pop\n    /* \"#utility.yul\":1245:1562   */\n  pop\n  pop\n    /* \"#utility.yul\":1169:1562   */\n  swap4\n  swap3\n  pop\n  pop\n  pop\n  jump\t// out\n    /* \"#utility.yul\":1568:1645   */\ntag_23:\n    /* \"#utility.yul\":1605:1612   */\n  0x00\n    /* \"#utility.yul\":1634:1639   */\n  dup2\n    /* \"#utility.yul\":1623:1639   */\n  swap1\n  pop\n    /* \"#utility.yul\":1568:1645   */\n  swap2\n  swap1\n  pop\n  jump\t// out\n    /* \"#utility.yul\":1651:1711   */\ntag_24:\n    /* \"#utility.yul\":1679:1682   */\n  0x00\n    /* \"#utility.yul\":1700:1705   */\n  dup2\n    /* \"#utility.yul\":1693:1705   */\n  swap1\n  pop\n    /* \"#utility.yul\":1651:1711   */\n  swap2\n  swap1\n  pop\n  jump\t// out\n    /* \"#utility.yul\":1717:1859   */\ntag_25:\n    /* \"#utility.yul\":1767:1776   */\n  0x00\n    /* \"#utility.yul\":1800:1853   */\n  tag_52\n    /* \"#utility.yul\":1818:1852   */\n  tag_53\n    /* \"#utility.yul\":1827:1851   */\n  tag_54\n    /* \"#utility.yul\":1845:1850   */\n  dup5\n    /* \"#utility.yul\":1827:1851   */\n  tag_23\n  jump\t// in\ntag_54:\n    /* \"#utility.yul\":1818:1852   */\n  tag_24\n  jump\t// in\ntag_53:\n    /* \"#utility.yul\":1800:1853   */\n  tag_23\n  jump\t// in\ntag_52:\n    /* \"#utility.yul\":1787:1853   */\n  swap1\n  pop\n    /* \"#utility.yul\":1717:1859   */\n  swap2\n  swap1\n  pop\n  jump\t// out\n    /* \"#utility.yul\":1865:1940   */\ntag_26:\n    /* \"#utility.yul\":1908:1911   */\n  0x00\n    /* \"#utility.yul\":1929:1934   */\n  dup2\n    /* \"#utility.yul\":1922:1934   */\n  swap1\n  pop\n    /* \"#utility.yul\":1865:1940   */\n  swap2\n  swap1\n  pop\n  jump\t// out\n    /* \"#utility.yul\":1946:2215   */\ntag_27:\n    /* \"#utility.yul\":2056:2095   */\n  tag_57\n    /* \"#utility.yul\":2087:2094   */\n  dup4\n    /* \"#utility.yul\":2056:2095   */\n  tag_25\n  jump\t// in\ntag_57:\n    /* \"#utility.yul\":2117:2208   */\n  tag_58\n    /* \"#utility.yul\":2166:2207   */\n  tag_59\n    /* \"#utility.yul\":2190:2206   */\n  dup3\n    /* \"#utility.yul\":2166:2207   */\n  tag_26\n  jump\t// in\ntag_59:\n    /* \"#utility.yul\":2158:2164   */\n  dup5\n    /* \"#utility.yul\":2151:2155   */\n  dup5\n    /* \"#utility.yul\":2145:2156   */\n  sload\n    /* \"#utility.yul\":2117:2208   */\n  tag_22\n  jump\t// in\ntag_58:\n    /* \"#utility.yul\":2111:2115   */\n  dup3\n    /* \"#utility.yul\":2104:2209   */\n  sstore\n    /* \"#utility.yul\":2022:2215   */\n  pop\n    /* \"#utility.yul\":1946:2215   */\n  pop\n  pop\n  pop\n  jump\t// out\n    /* \"#utility.yul\":2221:2294   */\ntag_28:\n    /* \"#utility.yul\":2266:2269   */\n  0x00\n    /* \"#utility.yul\":2221:2294   */\n  swap1\n  jump\t// out\n    /* \"#utility.yul\":2300:2489   */\ntag_29:\n    /* \"#utility.yul\":2377:2409   */\n  tag_62\n  tag_28\n  jump\t// in\ntag_62:\n    /* \"#utility.yul\":2418:2483   */\n  tag_63\n    /* \"#utility.yul\":2476:2482   */\n  dup2\n    /* \"#utility.yul\":2468:2474   */\n  dup5\n    /* \"#utility.yul\":2462:2466   */\n  dup5\n    /* \"#utility.yul\":2418:2483   */\n  tag_27\n  jump\t// in\ntag_63:\n    /* \"#utility.yul\":2353:2489   */\n  pop\n    /* \"#utility.yul\":2300:2489   */\n  pop\n  pop\n  jump\t// out\n    /* \"#utility.yul\":2495:2681   */\ntag_30:\n    /* \"#utility.yul\":2555:2675   */\ntag_65:\n    /* \"#utility.yul\":2572:2575   */\n  dup2\n    /* \"#utility.yul\":2565:2570   */\n  dup2\n    /* \"#utility.yul\":2562:2576   */\n  lt\n    /* \"#utility.yul\":2555:2675   */\n  iszero\n  tag_67\n  jumpi\n    /* \"#utility.yul\":2626:2665   */\n  tag_68\n    /* \"#utility.yul\":2663:2664   */\n  0x00\n    /* \"#utility.yul\":2656:2661   */\n  dup3\n    /* \"#utility.yul\":2626:2665   */\n  tag_29\n  jump\t// in\ntag_68:\n    /* \"#utility.yul\":2599:2600   */\n  0x01\n    /* \"#utility.yul\":2592:2597   */\n  dup2\n    /* \"#utility.yul\":2588:2601   */\n  add\n    /* \"#utility.yul\":2579:2601   */\n  swap1\n  pop\n    /* \"#utility.yul\":2555:2675   */\n  jump(tag_65)\ntag_67:\n    /* \"#utility.yul\":2495:2681   */\n  pop\n  pop\n  jump\t// out\n    /* \"#utility.yul\":2687:3230   */\ntag_31:\n    /* \"#utility.yul\":2788:2790   */\n  0x1f\n    /* \"#utility.yul\":2783:2786   */\n  dup3\n    /* \"#utility.yul\":2780:2791   */\n  gt\n    /* \"#utility.yul\":2777:3223   */\n  iszero\n  tag_70\n  jumpi\n    /* \"#utility.yul\":2822:2860   */\n  tag_71\n    /* \"#utility.yul\":2854:2859   */\n  dup2\n    /* \"#utility.yul\":2822:2860   */\n  tag_19\n  jump\t// in\ntag_71:\n    /* \"#utility.yul\":2906:2935   */\n  tag_72\n    /* \"#utility.yul\":2924:2934   */\n  dup5\n    /* \"#utility.yul\":2906:2935   */\n  tag_20\n  jump\t// in\ntag_72:\n    /* \"#utility.yul\":2896:2904   */\n  dup2\n    /* \"#utility.yul\":2892:2936   */\n  add\n    /* \"#utility.yul\":3089:3091   */\n  0x20\n    /* \"#utility.yul\":3077:3087   */\n  dup6\n    /* \"#utility.yul\":3074:3092   */\n  lt\n    /* \"#utility.yul\":3071:3120   */\n  iszero\n  tag_73\n  jumpi\n    /* \"#utility.yul\":3110:3118   */\n  dup2\n    /* \"#utility.yul\":3095:3118   */\n  swap1\n  pop\n    /* \"#utility.yul\":3071:3120   */\ntag_73:\n    /* \"#utility.yul\":3133:3213   */\n  tag_74\n    /* \"#utility.yul\":3189:3211   */\n  tag_75\n    /* \"#utility.yul\":3207:3210   */\n  dup6\n    /* \"#utility.yul\":3189:3211   */\n  tag_20\n  jump\t// in\ntag_75:\n    /* \"#utility.yul\":3179:3187   */\n  dup4\n    /* \"#utility.yul\":3175:3212   */\n  add\n    /* \"#utility.yul\":3162:3173   */\n  dup3\n    /* \"#utility.yul\":3133:3213   */\n  tag_30\n  jump\t// in\ntag_74:\n    /* \"#utility.yul\":2792:3223   */\n  pop\n  pop\n    /* \"#utility.yul\":2777:3223   */\ntag_70:\n    /* \"#utility.yul\":2687:3230   */\n  pop\n  pop\n  pop\n  jump\t// out\n    /* \"#utility.yul\":3236:3353   */\ntag_32:\n    /* \"#utility.yul\":3290:3298   */\n  0x00\n    /* \"#utility.yul\":3340:3345   */\n  dup3\n    /* \"#utility.yul\":3334:3338   */\n  dup3\n    /* \"#utility.yul\":3330:3346   */\n  shr\n    /* \"#utility.yul\":3309:3346   */\n  swap1\n  pop\n    /* \"#utility.yul\":3236:3353   */\n  swap3\n  swap2\n  pop\n  pop\n  jump\t// out\n    /* \"#utility.yul\":3359:3528   */\ntag_33:\n    /* \"#utility.yul\":3403:3409   */\n  0x00\n    /* \"#utility.yul\":3436:3487   */\n  tag_78\n    /* \"#utility.yul\":3484:3485   */\n  0x00\n    /* \"#utility.yul\":3480:3486   */\n  not\n    /* \"#utility.yul\":3472:3477   */\n  dup5\n    /* \"#utility.yul\":3469:3470   */\n  0x08\n    /* \"#utility.yul\":3465:3478   */\n  mul\n    /* \"#utility.yul\":3436:3487   */\n  tag_32\n  jump\t// in\ntag_78:\n    /* \"#utility.yul\":3432:3488   */\n  not\n    /* \"#utility.yul\":3517:3521   */\n  dup1\n    /* \"#utility.yul\":3511:3515   */\n  dup4\n    /* \"#utility.yul\":3507:3522   */\n  and\n    /* \"#utility.yul\":3497:3522   */\n  swap2\n  pop\n    /* \"#utility.yul\":3410:3528   */\n  pop\n    /* \"#utility.yul\":3359:3528   */\n  swap3\n  swap2\n  pop\n  pop\n  jump\t// out\n    /* \"#utility.yul\":3533:3828   */\ntag_34:\n    /* \"#utility.yul\":3609:3613   */\n  0x00\n    /* \"#utility.yul\":3755:3784   */\n  tag_80\n    /* \"#utility.yul\":3780:3783   */\n  dup4\n    /* \"#utility.yul\":3774:3778   */\n  dup4\n    /* \"#utility.yul\":3755:3784   */\n  tag_33\n  jump\t// in\ntag_80:\n    /* \"#utility.yul\":3747:3784   */\n  swap2\n  pop\n    /* \"#utility.yul\":3817:3820   */\n  dup3\n    /* \"#utility.yul\":3814:3815   */\n  0x02\n    /* \"#utility.yul\":3810:3821   */\n  mul\n    /* \"#utility.yul\":3804:3808   */\n  dup3\n    /* \"#utility.yul\":3801:3822   */\n  or\n    /* \"#utility.yul\":3793:3822   */\n  swap1\n  pop\n    /* \"#utility.yul\":3533:3828   */\n  swap3\n  swap2\n  pop\n  pop\n  jump\t// out\n    /* \"#utility.yul\":3833:5228   */\ntag_2:\n    /* \"#utility.yul\":3950:3987   */\n  tag_82\n    /* \"#utility.yul\":3983:3986   */\n  dup3\n    /* \"#utility.yul\":3950:3987   */\n  tag_15\n  jump\t// in\ntag_82:\n    /* \"#utility.yul\":4052:4070   */\n  0xffffffffffffffff\n    /* \"#utility.yul\":4044:4050   */\n  dup2\n    /* \"#utility.yul\":4041:4071   */\n  gt\n    /* \"#utility.yul\":4038:4094   */\n  iszero\n  tag_83\n  jumpi\n    /* \"#utility.yul\":4074:4092   */\n  tag_84\n  tag_16\n  jump\t// in\ntag_84:\n    /* \"#utility.yul\":4038:4094   */\ntag_83:\n    /* \"#utility.yul\":4118:4156   */\n  tag_85\n    /* \"#utility.yul\":4150:4154   */\n  dup3\n    /* \"#utility.yul\":4144:4155   */\n  sload\n    /* \"#utility.yul\":4118:4156   */\n  tag_18\n  jump\t// in\ntag_85:\n    /* \"#utility.yul\":4203:4270   */\n  tag_86\n    /* \"#utility.yul\":4263:4269   */\n  dup3\n    /* \"#utility.yul\":4255:4261   */\n  dup3\n    /* \"#utility.yul\":4249:4253   */\n  dup6\n    /* \"#utility.yul\":4203:4270   */\n  tag_31\n  jump\t// in\ntag_86:\n    /* \"#utility.yul\":4297:4298   */\n  0x00\n    /* \"#utility.yul\":4321:4325   */\n  0x20\n    /* \"#utility.yul\":4308:4325   */\n  swap1\n  pop\n    /* \"#utility.yul\":4353:4355   */\n  0x1f\n    /* \"#utility.yul\":4345:4351   */\n  dup4\n    /* \"#utility.yul\":4342:4356   */\n  gt\n    /* \"#utility.yul\":4370:4371   */\n  0x01\n    /* \"#utility.yul\":4365:4983   */\n  dup2\n  eq\n  tag_88\n  jumpi\n    /* \"#utility.yul\":5027:5028   */\n  0x00\n    /* \"#utility.yul\":5044:5050   */\n  dup5\n    /* \"#utility.yul\":5041:5118   */\n  iszero\n  tag_89\n  jumpi\n    /* \"#utility.yul\":5093:5102   */\n  dup3\n    /* \"#utility.yul\":5088:5091   */\n  dup8\n    /* \"#utility.yul\":5084:5103   */\n  add\n    /* \"#utility.yul\":5078:5104   */\n  mload\n    /* \"#utility.yul\":5069:5104   */\n  swap1\n  pop\n    /* \"#utility.yul\":5041:5118   */\ntag_89:\n    /* \"#utility.yul\":5144:5211   */\n  tag_90\n    /* \"#utility.yul\":5204:5210   */\n  dup6\n    /* \"#utility.yul\":5197:5202   */\n  dup3\n    /* \"#utility.yul\":5144:5211   */\n  tag_34\n  jump\t// in\ntag_90:\n    /* \"#utility.yul\":5138:5142   */\n  dup7\n    /* \"#utility.yul\":5131:5212   */\n  sstore\n    /* \"#utility.yul\":5000:5222   */\n  pop\n    /* \"#utility.yul\":4335:5222   */\n  jump(tag_87)\n    /* \"#utility.yul\":4365:4983   */\ntag_88:\n    /* \"#utility.yul\":4417:4421   */\n  0x1f\n    /* \"#utility.yul\":4413:4422   */\n  not\n    /* \"#utility.yul\":4405:4411   */\n  dup5\n    /* \"#utility.yul\":4401:4423   */\n  and\n    /* \"#utility.yul\":4451:4488   */\n  tag_91\n    /* \"#utility.yul\":4483:4487   */\n  dup7\n    /* \"#utility.yul\":4451:4488   */\n  tag_19\n  jump\t// in\ntag_91:\n    /* \"#utility.yul\":4510:4511   */\n  0x00\n    /* \"#utility.yul\":4524:4732   */\ntag_92:\n    /* \"#utility.yul\":4538:4545   */\n  dup3\n    /* \"#utility.yul\":4535:4536   */\n  dup2\n    /* \"#utility.yul\":4532:4546   */\n  lt\n    /* \"#utility.yul\":4524:4732   */\n  iszero\n  tag_94\n  jumpi\n    /* \"#utility.yul\":4617:4626   */\n  dup5\n    /* \"#utility.yul\":4612:4615   */\n  dup10\n    /* \"#utility.yul\":4608:4627   */\n  add\n    /* \"#utility.yul\":4602:4628   */\n  mload\n    /* \"#utility.yul\":4594:4600   */\n  dup3\n    /* \"#utility.yul\":4587:4629   */\n  sstore\n    /* \"#utility.yul\":4668:4669   */\n  0x01\n    /* \"#utility.yul\":4660:4666   */\n  dup3\n    /* \"#utility.yul\":4656:4670   */\n  add\n    /* \"#utility.yul\":4646:4670   */\n  swap2\n  pop\n    /* \"#utility.yul\":4715:4717   */\n  0x20\n    /* \"#utility.yul\":4704:4713   */\n  dup6\n    /* \"#utility.yul\":4700:4718   */\n  add\n    /* \"#utility.yul\":4687:4718   */\n  swap5\n  pop\n    /* \"#utility.yul\":4561:4565   */\n  0x20\n    /* \"#utility.yul\":4558:4559   */\n  dup2\n    /* \"#utility.yul\":4554:4566   */\n  add\n    /* \"#utility.yul\":4549:4566   */\n  swap1\n  pop\n    /* \"#utility.yul\":4524:4732   */\n  jump(tag_92)\ntag_94:\n    /* \"#utility.yul\":4760:4766   */\n  dup7\n    /* \"#utility.yul\":4751:4758   */\n  dup4\n    /* \"#utility.yul\":4748:4767   */\n  lt\n    /* \"#utility.yul\":4745:4924   */\n  iszero\n  tag_95\n  jumpi\n    /* \"#utility.yul\":4818:4827   */\n  dup5\n    /* \"#utility.yul\":4813:4816   */\n  dup10\n    /* \"#utility.yul\":4809:4828   */\n  add\n    /* \"#utility.yul\":4803:4829   */\n  mload\n    /* \"#utility.yul\":4861:4909   */\n  tag_96\n    /* \"#utility.yul\":4903:4907   */\n  0x1f\n    /* \"#utility.yul\":4895:4901   */\n  dup10\n    /* \"#utility.yul\":4891:4908   */\n  and\n    /* \"#utility.yul\":4880:4889   */\n  dup3\n    /* \"#utility.yul\":4861:4909   */\n  tag_33\n  jump\t// in\ntag_96:\n    /* \"#utility.yul\":4853:4859   */\n  dup4\n    /* \"#utility.yul\":4846:4910   */\n  sstore\n    /* \"#utility.yul\":4768:4924   */\n  pop\n    /* \"#utility.yul\":4745:4924   */\ntag_95:\n    /* \"#utility.yul\":4970:4971   */\n  0x01\n    /* \"#utility.yul\":4966:4967   */\n  0x02\n    /* \"#utility.yul\":4958:4964   */\n  dup9\n    /* \"#utility.yul\":4954:4968   */\n  mul\n    /* \"#utility.yul\":4950:4972   */\n  add\n    /* \"#utility.yul\":4944:4948   */\n  dup9\n    /* \"#utility.yul\":4937:4973   */\n  sstore\n    /* \"#utility.yul\":4372:4983   */\n  pop\n  pop\n  pop\n    /* \"#utility.yul\":4335:5222   */\ntag_87:\n  pop\n    /* \"#utility.yul\":3925:5228   */\n  pop\n  pop\n  pop\n    /* \"#utility.yul\":3833:5228   */\n  pop\n  pop\n  jump\t// out\n    /* \"MegaJackpot.sol\":259:8028  contract MegaJackpot is IMegaJackpot, ReentrancyGuard, Ownable {... */\ntag_12:\n  dataSize(sub_0)\n  dup1\n  dataOffset(sub_0)\n  0x00\n  codecopy\n  0x00\n  return\nstop\n\nsub_0: assembly {\n        /* \"MegaJackpot.sol\":259:8028  contract MegaJackpot is IMegaJackpot, ReentrancyGuard, Ownable {... */\n      mstore(0x40, 0x80)\n      callvalue\n      dup1\n      iszero\n      tag_1\n      jumpi\n      0x00\n      dup1\n      revert\n    tag_1:\n      pop\n      jumpi(tag_2, lt(calldatasize, 0x04))\n      shr(0xe0, calldataload(0x00))\n      dup1\n      0x8da5cb5b\n      gt\n      tag_21\n      jumpi\n      dup1\n      0xab346b0a\n      gt\n      tag_22\n      jumpi\n      dup1\n      0xab346b0a\n      eq\n      tag_16\n      jumpi\n      dup1\n      0xaffed0e0\n      eq\n      tag_17\n      jumpi\n      dup1\n      0xe7c1bf9f\n      eq\n      tag_18\n      jumpi\n      dup1\n      0xf2fde38b\n      eq\n      tag_19\n      jumpi\n      dup1\n      0xfc0c546a\n      eq\n      tag_20\n      jumpi\n      jump(tag_2)\n    tag_22:\n      dup1\n      0x8da5cb5b\n      eq\n      tag_12\n      jumpi\n      dup1\n      0xa6f81668\n      eq\n      tag_13\n      jumpi\n      dup1\n      0xa85c38ef\n      eq\n      tag_14\n      jumpi\n      dup1\n      0xaab0a510\n      eq\n      tag_15\n      jumpi\n      jump(tag_2)\n    tag_21:\n      dup1\n      0x2f8dc9a0\n      gt\n      tag_23\n      jumpi\n      dup1\n      0x2f8dc9a0\n      eq\n      tag_7\n      jumpi\n      dup1\n      0x325e8744\n      eq\n      tag_8\n      jumpi\n      dup1\n      0x7036992a\n      eq\n      tag_9\n      jumpi\n      dup1\n      0x715018a6\n      eq\n      tag_10\n      jumpi\n      dup1\n      0x75af2dd9\n      eq\n      tag_11\n      jumpi\n      jump(tag_2)\n    tag_23:\n      dup1\n      0x01c234a8\n      eq\n      tag_3\n      jumpi\n      dup1\n      0x06fdde03\n      eq\n      tag_4\n      jumpi\n      dup1\n      0x144fa6d7\n      eq\n      tag_5\n      jumpi\n      dup1\n      0x2240b81a\n      eq\n      tag_6\n      jumpi\n    tag_2:\n      0x00\n      dup1\n      revert\n        /* \"MegaJackpot.sol\":438:485  uint256 constant public PERCENTS_DIVIDER = 1000 */\n    tag_3:\n      tag_24\n      tag_25\n      jump\t// in\n    tag_24:\n      mload(0x40)\n      tag_26\n      swap2\n      swap1\n      tag_27\n      jump\t// in\n    tag_26:\n      mload(0x40)\n      dup1\n      swap2\n      sub\n      swap1\n      return\n        /* \"MegaJackpot.sol\":1330:1411  function name() public view returns (string memory) {... */\n    tag_4:\n      tag_28\n      tag_29\n      jump\t// in\n    tag_28:\n      mload(0x40)\n      tag_30\n      swap2\n      swap1\n      tag_31\n      jump\t// in\n    tag_30:\n      mload(0x40)\n      dup1\n      swap2\n      sub\n      swap1\n      return\n        /* \"MegaJackpot.sol\":1417:1570  function setToken(address _token) public override {... */\n    tag_5:\n      tag_32\n      0x04\n      dup1\n      calldatasize\n      sub\n      dup2\n      add\n      swap1\n      tag_33\n      swap2\n      swap1\n      tag_34\n      jump\t// in\n    tag_33:\n      tag_35\n      jump\t// in\n    tag_32:\n      stop\n        /* \"MegaJackpot.sol\":3906:7016  function order(... */\n    tag_6:\n      tag_36\n      0x04\n      dup1\n      calldatasize\n      sub\n      dup2\n      add\n      swap1\n      tag_37\n      swap2\n      swap1\n      tag_38\n      jump\t// in\n    tag_37:\n      tag_39\n      jump\t// in\n    tag_36:\n      stop\n        /* \"MegaJackpot.sol\":646:679  address public projectOwnerWallet */\n    tag_7:\n      tag_40\n      tag_41\n      jump\t// in\n    tag_40:\n      mload(0x40)\n      tag_42\n      swap2\n      swap1\n      tag_43\n      jump\t// in\n    tag_42:\n      mload(0x40)\n      dup1\n      swap2\n      sub\n      swap1\n      return\n        /* \"MegaJackpot.sol\":491:551  uint256 constant public SPIN_PERCENTS_DIVIDER = 1000_000_000 */\n    tag_8:\n      tag_44\n      tag_45\n      jump\t// in\n    tag_44:\n      mload(0x40)\n      tag_46\n      swap2\n      swap1\n      tag_27\n      jump\t// in\n    tag_46:\n      mload(0x40)\n      dup1\n      swap2\n      sub\n      swap1\n      return\n        /* \"MegaJackpot.sol\":1143:1201  mapping(uint256 => mapping(uint256 => Prize)) public prize */\n    tag_9:\n      tag_47\n      0x04\n      dup1\n      calldatasize\n      sub\n      dup2\n      add\n      swap1\n      tag_48\n      swap2\n      swap1\n      tag_49\n      jump\t// in\n    tag_48:\n      tag_50\n      jump\t// in\n    tag_47:\n      mload(0x40)\n      tag_51\n      swap3\n      swap2\n      swap1\n      tag_52\n      jump\t// in\n    tag_51:\n      mload(0x40)\n      dup1\n      swap2\n      sub\n      swap1\n      return\n        /* \"Ownable.sol\":1598:1690  function renounceOwnership() public virtual onlyOwner {... */\n    tag_10:\n      tag_53\n      tag_54\n      jump\t// in\n    tag_53:\n      stop\n        /* \"MegaJackpot.sol\":1257:1323  mapping(uint256 => mapping(uint256 => uint256)) public orderDetail */\n    tag_11:\n      tag_55\n      0x04\n      dup1\n      calldatasize\n      sub\n      dup2\n      add\n      swap1\n      tag_56\n      swap2\n      swap1\n      tag_49\n      jump\t// in\n    tag_56:\n      tag_57\n      jump\t// in\n    tag_55:\n      mload(0x40)\n      tag_58\n      swap2\n      swap1\n      tag_27\n      jump\t// in\n    tag_58:\n      mload(0x40)\n      dup1\n      swap2\n      sub\n      swap1\n      return\n        /* \"Ownable.sol\":966:1051  function owner() public view virtual returns (address) {... */\n    tag_12:\n      tag_59\n      tag_60\n      jump\t// in\n    tag_59:\n      mload(0x40)\n      tag_61\n      swap2\n      swap1\n      tag_43\n      jump\t// in\n    tag_61:\n      mload(0x40)\n      dup1\n      swap2\n      sub\n      swap1\n      return\n        /* \"MegaJackpot.sol\":1097:1137  mapping(uint256 => Game) public gameInfo */\n    tag_13:\n      tag_62\n      0x04\n      dup1\n      calldatasize\n      sub\n      dup2\n      add\n      swap1\n      tag_63\n      swap2\n      swap1\n      tag_64\n      jump\t// in\n    tag_63:\n      tag_65\n      jump\t// in\n    tag_62:\n      mload(0x40)\n      tag_66\n      swap9\n      swap8\n      swap7\n      swap6\n      swap5\n      swap4\n      swap3\n      swap2\n      swap1\n      tag_67\n      jump\t// in\n    tag_66:\n      mload(0x40)\n      dup1\n      swap2\n      sub\n      swap1\n      return\n        /* \"MegaJackpot.sol\":1207:1251  mapping(uint256 => RewardSpin) public orders */\n    tag_14:\n      tag_68\n      0x04\n      dup1\n      calldatasize\n      sub\n      dup2\n      add\n      swap1\n      tag_69\n      swap2\n      swap1\n      tag_64\n      jump\t// in\n    tag_69:\n      tag_70\n      jump\t// in\n    tag_68:\n      mload(0x40)\n      tag_71\n      swap4\n      swap3\n      swap2\n      swap1\n      tag_72\n      jump\t// in\n    tag_71:\n      mload(0x40)\n      dup1\n      swap2\n      sub\n      swap1\n      return\n        /* \"MegaJackpot.sol\":1763:3900  function createGame(... */\n    tag_15:\n      tag_73\n      0x04\n      dup1\n      calldatasize\n      sub\n      dup2\n      add\n      swap1\n      tag_74\n      swap2\n      swap1\n      tag_75\n      jump\t// in\n    tag_74:\n      tag_76\n      jump\t// in\n    tag_73:\n      stop\n        /* \"MegaJackpot.sol\":1576:1757  function setProjectOwnerWallet(address _owner) public override {... */\n    tag_16:\n      tag_77\n      0x04\n      dup1\n      calldatasize\n      sub\n      dup2\n      add\n      swap1\n      tag_78\n      swap2\n      swap1\n      tag_34\n      jump\t// in\n    tag_78:\n      tag_79\n      jump\t// in\n    tag_77:\n      stop\n        /* \"MegaJackpot.sol\":616:640  uint256 public nonce = 0 */\n    tag_17:\n      tag_80\n      tag_81\n      jump\t// in\n    tag_80:\n      mload(0x40)\n      tag_82\n      swap2\n      swap1\n      tag_27\n      jump\t// in\n    tag_82:\n      mload(0x40)\n      dup1\n      swap2\n      sub\n      swap1\n      return\n        /* \"MegaJackpot.sol\":582:610  uint256 public indexGame = 0 */\n    tag_18:\n      tag_83\n      tag_84\n      jump\t// in\n    tag_83:\n      mload(0x40)\n      tag_85\n      swap2\n      swap1\n      tag_27\n      jump\t// in\n    tag_85:\n      mload(0x40)\n      dup1\n      swap2\n      sub\n      swap1\n      return\n        /* \"Ownable.sol\":1839:2028  function transferOwnership(address newOwner) public virtual onlyOwner {... */\n    tag_19:\n      tag_86\n      0x04\n      dup1\n      calldatasize\n      sub\n      dup2\n      add\n      swap1\n      tag_87\n      swap2\n      swap1\n      tag_34\n      jump\t// in\n    tag_87:\n      tag_88\n      jump\t// in\n    tag_86:\n      stop\n        /* \"MegaJackpot.sol\":557:576  IERC20 public token */\n    tag_20:\n      tag_89\n      tag_90\n      jump\t// in\n    tag_89:\n      mload(0x40)\n      tag_91\n      swap2\n      swap1\n      tag_92\n      jump\t// in\n    tag_91:\n      mload(0x40)\n      dup1\n      swap2\n      sub\n      swap1\n      return\n        /* \"MegaJackpot.sol\":438:485  uint256 constant public PERCENTS_DIVIDER = 1000 */\n    tag_25:\n        /* \"MegaJackpot.sol\":481:485  1000 */\n      0x03e8\n        /* \"MegaJackpot.sol\":438:485  uint256 constant public PERCENTS_DIVIDER = 1000 */\n      dup2\n      jump\t// out\n        /* \"MegaJackpot.sol\":1330:1411  function name() public view returns (string memory) {... */\n    tag_29:\n        /* \"MegaJackpot.sol\":1367:1380  string memory */\n      0x60\n        /* \"MegaJackpot.sol\":1399:1404  _name */\n      0x02\n        /* \"MegaJackpot.sol\":1392:1404  return _name */\n      dup1\n      sload\n      tag_94\n      swap1\n      tag_95\n      jump\t// in\n    tag_94:\n      dup1\n      0x1f\n      add\n      0x20\n      dup1\n      swap2\n      div\n      mul\n      0x20\n      add\n      mload(0x40)\n      swap1\n      dup2\n      add\n      0x40\n      mstore\n      dup1\n      swap3\n      swap2\n      swap1\n      dup2\n      dup2\n      mstore\n      0x20\n      add\n      dup3\n      dup1\n      sload\n      tag_96\n      swap1\n      tag_95\n      jump\t// in\n    tag_96:\n      dup1\n      iszero\n      tag_97\n      jumpi\n      dup1\n      0x1f\n      lt\n      tag_98\n      jumpi\n      0x0100\n      dup1\n      dup4\n      sload\n      div\n      mul\n      dup4\n      mstore\n      swap2\n      0x20\n      add\n      swap2\n      jump(tag_97)\n    tag_98:\n      dup3\n      add\n      swap2\n      swap1\n      0x00\n      mstore\n      keccak256(0x00, 0x20)\n      swap1\n    tag_99:\n      dup2\n      sload\n      dup2\n      mstore\n      swap1\n      0x01\n      add\n      swap1\n      0x20\n      add\n      dup1\n      dup4\n      gt\n      tag_99\n      jumpi\n      dup3\n      swap1\n      sub\n      0x1f\n      and\n      dup3\n      add\n      swap2\n    tag_97:\n      pop\n      pop\n      pop\n      pop\n      pop\n      swap1\n      pop\n        /* \"MegaJackpot.sol\":1330:1411  function name() public view returns (string memory) {... */\n      swap1\n      jump\t// out\n        /* \"MegaJackpot.sol\":1417:1570  function setToken(address _token) public override {... */\n    tag_35:\n        /* \"MegaJackpot.sol\":1511:1512  0 */\n      0x00\n        /* \"MegaJackpot.sol\":1485:1513  address(token) == address(0) */\n      0xffffffffffffffffffffffffffffffffffffffff\n      and\n        /* \"MegaJackpot.sol\":1493:1498  token */\n      0x03\n      0x00\n      swap1\n      sload\n      swap1\n      0x0100\n      exp\n      swap1\n      div\n      0xffffffffffffffffffffffffffffffffffffffff\n      and\n        /* \"MegaJackpot.sol\":1485:1513  address(token) == address(0) */\n      0xffffffffffffffffffffffffffffffffffffffff\n      and\n      eq\n        /* \"MegaJackpot.sol\":1477:1531  require(address(token) == address(0), \"not set token\") */\n      tag_101\n      jumpi\n      mload(0x40)\n      0x08c379a000000000000000000000000000000000000000000000000000000000\n      dup2\n      mstore\n      0x04\n      add\n      tag_102\n      swap1\n      tag_103\n      jump\t// in\n    tag_102:\n      mload(0x40)\n      dup1\n      swap2\n      sub\n      swap1\n      revert\n    tag_101:\n        /* \"MegaJackpot.sol\":1556:1562  _token */\n      dup1\n        /* \"MegaJackpot.sol\":1541:1546  token */\n      0x03\n      0x00\n        /* \"MegaJackpot.sol\":1541:1563  token = IERC20(_token) */\n      0x0100\n      exp\n      dup2\n      sload\n      dup2\n      0xffffffffffffffffffffffffffffffffffffffff\n      mul\n      not\n      and\n      swap1\n      dup4\n      0xffffffffffffffffffffffffffffffffffffffff\n      and\n      mul\n      or\n      swap1\n      sstore\n      pop\n        /* \"MegaJackpot.sol\":1417:1570  function setToken(address _token) public override {... */\n      pop\n      jump\t// out\n        /* \"MegaJackpot.sol\":3906:7016  function order(... */\n    tag_39:\n        /* \"ReentrancyGuard.sol\":1680:1681  2 */\n      0x02\n        /* \"ReentrancyGuard.sol\":2259:2266  _status */\n      sload(0x00)\n        /* \"ReentrancyGuard.sol\":2259:2278  _status != _ENTERED */\n      sub\n        /* \"ReentrancyGuard.sol\":2251:2314  require(_status != _ENTERED, \"ReentrancyGuard: reentrant call\") */\n      tag_105\n      jumpi\n      mload(0x40)\n      0x08c379a000000000000000000000000000000000000000000000000000000000\n      dup2\n      mstore\n      0x04\n      add\n      tag_106\n      swap1\n      tag_107\n      jump\t// in\n    tag_106:\n      mload(0x40)\n      dup1\n      swap2\n      sub\n      swap1\n      revert\n    tag_105:\n        /* \"ReentrancyGuard.sol\":1680:1681  2 */\n      0x02\n        /* \"ReentrancyGuard.sol\":2389:2396  _status */\n      0x00\n        /* \"ReentrancyGuard.sol\":2389:2407  _status = _ENTERED */\n      dup2\n      swap1\n      sstore\n      pop\n        /* \"MegaJackpot.sol\":4217:4219  10 */\n      0x0a\n        /* \"MegaJackpot.sol\":4210:4213  qty */\n      dup3\n        /* \"MegaJackpot.sol\":4210:4219  qty <= 10 */\n      gt\n      iszero\n        /* \"MegaJackpot.sol\":4202:4241  require(qty <= 10, \"Require qty <= 10\") */\n      tag_109\n      jumpi\n      mload(0x40)\n      0x08c379a000000000000000000000000000000000000000000000000000000000\n      dup2\n      mstore\n      0x04\n      add\n      tag_110\n      swap1\n      tag_111\n      jump\t// in\n    tag_110:\n      mload(0x40)\n      dup1\n      swap2\n      sub\n      swap1\n      revert\n    tag_109:\n        /* \"MegaJackpot.sol\":4284:4285  0 */\n      0x00\n        /* \"MegaJackpot.sol\":4259:4267  gameInfo */\n      0x07\n        /* \"MegaJackpot.sol\":4259:4275  gameInfo[idGame] */\n      0x00\n        /* \"MegaJackpot.sol\":4268:4274  idGame */\n      dup7\n        /* \"MegaJackpot.sol\":4259:4275  gameInfo[idGame] */\n      dup2\n      mstore\n      0x20\n      add\n      swap1\n      dup2\n      mstore\n      0x20\n      add\n      0x00\n      keccak256\n        /* \"MegaJackpot.sol\":4259:4281  gameInfo[idGame].price */\n      0x00\n      add\n      sload\n        /* \"MegaJackpot.sol\":4259:4285  gameInfo[idGame].price > 0 */\n      gt\n        /* \"MegaJackpot.sol\":4251:4304  require(gameInfo[idGame].price > 0, \"Game not found\") */\n      tag_112\n      jumpi\n      mload(0x40)\n      0x08c379a000000000000000000000000000000000000000000000000000000000\n      dup2\n      mstore\n      0x04\n      add\n      tag_113\n      swap1\n      tag_114\n      jump\t// in\n    tag_113:\n      mload(0x40)\n      dup1\n      swap2\n      sub\n      swap1\n      revert\n    tag_112:\n        /* \"MegaJackpot.sol\":4314:4328  uint256 amount */\n      0x00\n        /* \"MegaJackpot.sol\":4356:4359  qty */\n      dup3\n        /* \"MegaJackpot.sol\":4331:4339  gameInfo */\n      0x07\n        /* \"MegaJackpot.sol\":4331:4347  gameInfo[idGame] */\n      0x00\n        /* \"MegaJackpot.sol\":4340:4346  idGame */\n      dup8\n        /* \"MegaJackpot.sol\":4331:4347  gameInfo[idGame] */\n      dup2\n      mstore\n      0x20\n      add\n      swap1\n      dup2\n      mstore\n      0x20\n      add\n      0x00\n      keccak256\n        /* \"MegaJackpot.sol\":4331:4353  gameInfo[idGame].price */\n      0x00\n      add\n      sload\n        /* \"MegaJackpot.sol\":4331:4359  gameInfo[idGame].price * qty */\n      tag_115\n      swap2\n      swap1\n      tag_116\n      jump\t// in\n    tag_115:\n        /* \"MegaJackpot.sol\":4314:4359  uint256 amount = gameInfo[idGame].price * qty */\n      swap1\n      pop\n        /* \"MegaJackpot.sol\":4369:4389  uint256 currentPrice */\n      0x00\n        /* \"MegaJackpot.sol\":4392:4397  token */\n      0x03\n      0x00\n      swap1\n      sload\n      swap1\n      0x0100\n      exp\n      swap1\n      div\n      0xffffffffffffffffffffffffffffffffffffffff\n      and\n        /* \"MegaJackpot.sol\":4392:4407  token.balanceOf */\n      0xffffffffffffffffffffffffffffffffffffffff\n      and\n      0x70a08231\n        /* \"MegaJackpot.sol\":4416:4420  this */\n      address\n        /* \"MegaJackpot.sol\":4392:4422  token.balanceOf(address(this)) */\n      mload(0x40)\n      dup3\n      0xffffffff\n      and\n      0xe0\n      shl\n      dup2\n      mstore\n      0x04\n      add\n      tag_117\n      swap2\n      swap1\n      tag_43\n      jump\t// in\n    tag_117:\n      0x20\n      mload(0x40)\n      dup1\n      dup4\n      sub\n      dup2\n      dup7\n      gas\n      staticcall\n      iszero\n      dup1\n      iszero\n      tag_119\n      jumpi\n      returndatasize\n      0x00\n      dup1\n      returndatacopy\n      revert(0x00, returndatasize)\n    tag_119:\n      pop\n      pop\n      pop\n      pop\n      mload(0x40)\n      returndatasize\n      not(0x1f)\n      0x1f\n      dup3\n      add\n      and\n      dup3\n      add\n      dup1\n      0x40\n      mstore\n      pop\n      dup2\n      add\n      swap1\n      tag_120\n      swap2\n      swap1\n      tag_121\n      jump\t// in\n    tag_120:\n        /* \"MegaJackpot.sol\":4369:4422  uint256 currentPrice = token.balanceOf(address(this)) */\n      swap1\n      pop\n        /* \"MegaJackpot.sol\":4469:4475  amount */\n      dup2\n        /* \"MegaJackpot.sol\":4440:4445  token */\n      0x03\n      0x00\n      swap1\n      sload\n      swap1\n      0x0100\n      exp\n      swap1\n      div\n      0xffffffffffffffffffffffffffffffffffffffff\n      and\n        /* \"MegaJackpot.sol\":4440:4455  token.balanceOf */\n      0xffffffffffffffffffffffffffffffffffffffff\n      and\n      0x70a08231\n        /* \"MegaJackpot.sol\":4456:4464  userSpin */\n      dup6\n        /* \"MegaJackpot.sol\":4440:4465  token.balanceOf(userSpin) */\n      mload(0x40)\n      dup3\n      0xffffffff\n      and\n      0xe0\n      shl\n      dup2\n      mstore\n      0x04\n      add\n      tag_122\n      swap2\n      swap1\n      tag_43\n      jump\t// in\n    tag_122:\n      0x20\n      mload(0x40)\n      dup1\n      dup4\n      sub\n      dup2\n      dup7\n      gas\n      staticcall\n      iszero\n      dup1\n      iszero\n      tag_124\n      jumpi\n      returndatasize\n      0x00\n      dup1\n      returndatacopy\n      revert(0x00, returndatasize)\n    tag_124:\n      pop\n      pop\n      pop\n      pop\n      mload(0x40)\n      returndatasize\n      not(0x1f)\n      0x1f\n      dup3\n      add\n      and\n      dup3\n      add\n      dup1\n      0x40\n      mstore\n      pop\n      dup2\n      add\n      swap1\n      tag_125\n      swap2\n      swap1\n      tag_121\n      jump\t// in\n    tag_125:\n        /* \"MegaJackpot.sol\":4440:4475  token.balanceOf(userSpin) >= amount */\n      lt\n      iszero\n        /* \"MegaJackpot.sol\":4432:4513  require(token.balanceOf(userSpin) >= amount, \"Insufficient funds in the account\") */\n      tag_126\n      jumpi\n      mload(0x40)\n      0x08c379a000000000000000000000000000000000000000000000000000000000\n      dup2\n      mstore\n      0x04\n      add\n      tag_127\n      swap1\n      tag_128\n      jump\t// in\n    tag_127:\n      mload(0x40)\n      dup1\n      swap2\n      sub\n      swap1\n      revert\n    tag_126:\n        /* \"MegaJackpot.sol\":4523:4528  token */\n      0x03\n      0x00\n      swap1\n      sload\n      swap1\n      0x0100\n      exp\n      swap1\n      div\n      0xffffffffffffffffffffffffffffffffffffffff\n      and\n        /* \"MegaJackpot.sol\":4523:4541  token.transferFrom */\n      0xffffffffffffffffffffffffffffffffffffffff\n      and\n      0x23b872dd\n        /* \"MegaJackpot.sol\":4542:4550  userSpin */\n      dup5\n        /* \"MegaJackpot.sol\":4560:4564  this */\n      address\n        /* \"MegaJackpot.sol\":4567:4573  amount */\n      dup6\n        /* \"MegaJackpot.sol\":4523:4574  token.transferFrom(userSpin, address(this), amount) */\n      mload(0x40)\n      dup5\n      0xffffffff\n      and\n      0xe0\n      shl\n      dup2\n      mstore\n      0x04\n      add\n      tag_129\n      swap4\n      swap3\n      swap2\n      swap1\n      tag_130\n      jump\t// in\n    tag_129:\n      0x20\n      mload(0x40)\n      dup1\n      dup4\n      sub\n      dup2\n      0x00\n      dup8\n      gas\n      call\n      iszero\n      dup1\n      iszero\n      tag_132\n      jumpi\n      returndatasize\n      0x00\n      dup1\n      returndatacopy\n      revert(0x00, returndatasize)\n    tag_132:\n      pop\n      pop\n      pop\n      pop\n      mload(0x40)\n      returndatasize\n      not(0x1f)\n      0x1f\n      dup3\n      add\n      and\n      dup3\n      add\n      dup1\n      0x40\n      mstore\n      pop\n      dup2\n      add\n      swap1\n      tag_133\n      swap2\n      swap1\n      tag_134\n      jump\t// in\n    tag_133:\n      pop\n        /* \"MegaJackpot.sol\":4584:4600  uint256 newPrice */\n      0x00\n        /* \"MegaJackpot.sol\":4603:4608  token */\n      0x03\n      0x00\n      swap1\n      sload\n      swap1\n      0x0100\n      exp\n      swap1\n      div\n      0xffffffffffffffffffffffffffffffffffffffff\n      and\n        /* \"MegaJackpot.sol\":4603:4618  token.balanceOf */\n      0xffffffffffffffffffffffffffffffffffffffff\n      and\n      0x70a08231\n        /* \"MegaJackpot.sol\":4627:4631  this */\n      address\n        /* \"MegaJackpot.sol\":4603:4633  token.balanceOf(address(this)) */\n      mload(0x40)\n      dup3\n      0xffffffff\n      and\n      0xe0\n      shl\n      dup2\n      mstore\n      0x04\n      add\n      tag_135\n      swap2\n      swap1\n      tag_43\n      jump\t// in\n    tag_135:\n      0x20\n      mload(0x40)\n      dup1\n      dup4\n      sub\n      dup2\n      dup7\n      gas\n      staticcall\n      iszero\n      dup1\n      iszero\n      tag_137\n      jumpi\n      returndatasize\n      0x00\n      dup1\n      returndatacopy\n      revert(0x00, returndatasize)\n    tag_137:\n      pop\n      pop\n      pop\n      pop\n      mload(0x40)\n      returndatasize\n      not(0x1f)\n      0x1f\n      dup3\n      add\n      and\n      dup3\n      add\n      dup1\n      0x40\n      mstore\n      pop\n      dup2\n      add\n      swap1\n      tag_138\n      swap2\n      swap1\n      tag_121\n      jump\t// in\n    tag_138:\n        /* \"MegaJackpot.sol\":4584:4633  uint256 newPrice = token.balanceOf(address(this)) */\n      swap1\n      pop\n        /* \"MegaJackpot.sol\":4643:4659  uint256 afterFee */\n      0x00\n        /* \"MegaJackpot.sol\":4673:4685  currentPrice */\n      dup3\n        /* \"MegaJackpot.sol\":4662:4670  newPrice */\n      dup3\n        /* \"MegaJackpot.sol\":4662:4685  newPrice - currentPrice */\n      tag_139\n      swap2\n      swap1\n      tag_140\n      jump\t// in\n    tag_139:\n        /* \"MegaJackpot.sol\":4643:4685  uint256 afterFee = newPrice - currentPrice */\n      swap1\n      pop\n        /* \"MegaJackpot.sol\":4695:4709  uint256 devFee */\n      0x00\n        /* \"MegaJackpot.sol\":4762:4772  devPercent */\n      dup14\n        /* \"MegaJackpot.sol\":4751:4759  sytemFee */\n      dup14\n        /* \"MegaJackpot.sol\":481:485  1000 */\n      0x03e8\n        /* \"MegaJackpot.sol\":4721:4729  sytemFee */\n      dup16\n        /* \"MegaJackpot.sol\":4712:4718  amount */\n      dup9\n        /* \"MegaJackpot.sol\":4712:4729  amount * sytemFee */\n      tag_141\n      swap2\n      swap1\n      tag_116\n      jump\t// in\n    tag_141:\n        /* \"MegaJackpot.sol\":4712:4748  amount * sytemFee / PERCENTS_DIVIDER */\n      tag_142\n      swap2\n      swap1\n      tag_143\n      jump\t// in\n    tag_142:\n        /* \"MegaJackpot.sol\":4712:4759  amount * sytemFee / PERCENTS_DIVIDER * sytemFee */\n      tag_144\n      swap2\n      swap1\n      tag_116\n      jump\t// in\n    tag_144:\n        /* \"MegaJackpot.sol\":4712:4772  amount * sytemFee / PERCENTS_DIVIDER * sytemFee / devPercent */\n      tag_145\n      swap2\n      swap1\n      tag_143\n      jump\t// in\n    tag_145:\n        /* \"MegaJackpot.sol\":4695:4772  uint256 devFee = amount * sytemFee / PERCENTS_DIVIDER * sytemFee / devPercent */\n      swap1\n      pop\n        /* \"MegaJackpot.sol\":4782:4787  token */\n      0x03\n      0x00\n      swap1\n      sload\n      swap1\n      0x0100\n      exp\n      swap1\n      div\n      0xffffffffffffffffffffffffffffffffffffffff\n      and\n        /* \"MegaJackpot.sol\":4782:4796  token.transfer */\n      0xffffffffffffffffffffffffffffffffffffffff\n      and\n      0xa9059cbb\n        /* \"MegaJackpot.sol\":4797:4806  devWallet */\n      dup13\n        /* \"MegaJackpot.sol\":4808:4814  devFee */\n      dup4\n        /* \"MegaJackpot.sol\":4782:4815  token.transfer(devWallet, devFee) */\n      mload(0x40)\n      dup4\n      0xffffffff\n      and\n      0xe0\n      shl\n      dup2\n      mstore\n      0x04\n      add\n      tag_146\n      swap3\n      swap2\n      swap1\n      tag_147\n      jump\t// in\n    tag_146:\n      0x20\n      mload(0x40)\n      dup1\n      dup4\n      sub\n      dup2\n      0x00\n      dup8\n      gas\n      call\n      iszero\n      dup1\n      iszero\n      tag_149\n      jumpi\n      returndatasize\n      0x00\n      dup1\n      returndatacopy\n      revert(0x00, returndatasize)\n    tag_149:\n      pop\n      pop\n      pop\n      pop\n      mload(0x40)\n      returndatasize\n      not(0x1f)\n      0x1f\n      dup3\n      add\n      and\n      dup3\n      add\n      dup1\n      0x40\n      mstore\n      pop\n      dup2\n      add\n      swap1\n      tag_150\n      swap2\n      swap1\n      tag_134\n      jump\t// in\n    tag_150:\n      pop\n        /* \"MegaJackpot.sol\":4825:4839  uint256 mktFee */\n      0x00\n        /* \"MegaJackpot.sol\":4881:4887  devFee */\n      dup2\n        /* \"MegaJackpot.sol\":481:485  1000 */\n      0x03e8\n        /* \"MegaJackpot.sol\":4851:4859  sytemFee */\n      dup16\n        /* \"MegaJackpot.sol\":4842:4848  amount */\n      dup9\n        /* \"MegaJackpot.sol\":4842:4859  amount * sytemFee */\n      tag_151\n      swap2\n      swap1\n      tag_116\n      jump\t// in\n    tag_151:\n        /* \"MegaJackpot.sol\":4842:4878  amount * sytemFee / PERCENTS_DIVIDER */\n      tag_152\n      swap2\n      swap1\n      tag_143\n      jump\t// in\n    tag_152:\n        /* \"MegaJackpot.sol\":4842:4887  amount * sytemFee / PERCENTS_DIVIDER - devFee */\n      tag_153\n      swap2\n      swap1\n      tag_140\n      jump\t// in\n    tag_153:\n        /* \"MegaJackpot.sol\":4825:4887  uint256 mktFee = amount * sytemFee / PERCENTS_DIVIDER - devFee */\n      swap1\n      pop\n        /* \"MegaJackpot.sol\":4897:4902  token */\n      0x03\n      0x00\n      swap1\n      sload\n      swap1\n      0x0100\n      exp\n      swap1\n      div\n      0xffffffffffffffffffffffffffffffffffffffff\n      and\n        /* \"MegaJackpot.sol\":4897:4911  token.transfer */\n      0xffffffffffffffffffffffffffffffffffffffff\n      and\n      0xa9059cbb\n        /* \"MegaJackpot.sol\":4912:4921  mktWallet */\n      dup13\n        /* \"MegaJackpot.sol\":4923:4929  mktFee */\n      dup4\n        /* \"MegaJackpot.sol\":4897:4930  token.transfer(mktWallet, mktFee) */\n      mload(0x40)\n      dup4\n      0xffffffff\n      and\n      0xe0\n      shl\n      dup2\n      mstore\n      0x04\n      add\n      tag_154\n      swap3\n      swap2\n      swap1\n      tag_147\n      jump\t// in\n    tag_154:\n      0x20\n      mload(0x40)\n      dup1\n      dup4\n      sub\n      dup2\n      0x00\n      dup8\n      gas\n      call\n      iszero\n      dup1\n      iszero\n      tag_156\n      jumpi\n      returndatasize\n      0x00\n      dup1\n      returndatacopy\n      revert(0x00, returndatasize)\n    tag_156:\n      pop\n      pop\n      pop\n      pop\n      mload(0x40)\n      returndatasize\n      not(0x1f)\n      0x1f\n      dup3\n      add\n      and\n      dup3\n      add\n      dup1\n      0x40\n      mstore\n      pop\n      dup2\n      add\n      swap1\n      tag_157\n      swap2\n      swap1\n      tag_134\n      jump\t// in\n    tag_157:\n      pop\n        /* \"MegaJackpot.sol\":4940:4954  uint256 affFee */\n      0x00\n        /* \"MegaJackpot.sol\":481:485  1000 */\n      0x03e8\n        /* \"MegaJackpot.sol\":4966:4974  gameInfo */\n      0x07\n        /* \"MegaJackpot.sol\":4966:4982  gameInfo[idGame] */\n      0x00\n        /* \"MegaJackpot.sol\":4975:4981  idGame */\n      dup14\n        /* \"MegaJackpot.sol\":4966:4982  gameInfo[idGame] */\n      dup2\n      mstore\n      0x20\n      add\n      swap1\n      dup2\n      mstore\n      0x20\n      add\n      0x00\n      keccak256\n        /* \"MegaJackpot.sol\":4966:4999  gameInfo[idGame].affiliatePercent */\n      0x04\n      add\n      sload\n        /* \"MegaJackpot.sol\":4957:4963  amount */\n      dup9\n        /* \"MegaJackpot.sol\":4957:4999  amount * gameInfo[idGame].affiliatePercent */\n      tag_158\n      swap2\n      swap1\n      tag_116\n      jump\t// in\n    tag_158:\n        /* \"MegaJackpot.sol\":4957:5018  amount * gameInfo[idGame].affiliatePercent / PERCENTS_DIVIDER */\n      tag_159\n      swap2\n      swap1\n      tag_143\n      jump\t// in\n    tag_159:\n        /* \"MegaJackpot.sol\":4940:5018  uint256 affFee = amount * gameInfo[idGame].affiliatePercent / PERCENTS_DIVIDER */\n      swap1\n      pop\n        /* \"MegaJackpot.sol\":5028:5033  token */\n      0x03\n      0x00\n      swap1\n      sload\n      swap1\n      0x0100\n      exp\n      swap1\n      div\n      0xffffffffffffffffffffffffffffffffffffffff\n      and\n        /* \"MegaJackpot.sol\":5028:5042  token.transfer */\n      0xffffffffffffffffffffffffffffffffffffffff\n      and\n      0xa9059cbb\n        /* \"MegaJackpot.sol\":5043:5057  sponsorAddress */\n      dup16\n        /* \"MegaJackpot.sol\":5059:5065  affFee */\n      dup4\n        /* \"MegaJackpot.sol\":5028:5066  token.transfer(sponsorAddress, affFee) */\n      mload(0x40)\n      dup4\n      0xffffffff\n      and\n      0xe0\n      shl\n      dup2\n      mstore\n      0x04\n      add\n      tag_160\n      swap3\n      swap2\n      swap1\n      tag_147\n      jump\t// in\n    tag_160:\n      0x20\n      mload(0x40)\n      dup1\n      dup4\n      sub\n      dup2\n      0x00\n      dup8\n      gas\n      call\n      iszero\n      dup1\n      iszero\n      tag_162\n      jumpi\n      returndatasize\n      0x00\n      dup1\n      returndatacopy\n      revert(0x00, returndatasize)\n    tag_162:\n      pop\n      pop\n      pop\n      pop\n      mload(0x40)\n      returndatasize\n      not(0x1f)\n      0x1f\n      dup3\n      add\n      and\n      dup3\n      add\n      dup1\n      0x40\n      mstore\n      pop\n      dup2\n      add\n      swap1\n      tag_163\n      swap2\n      swap1\n      tag_134\n      jump\t// in\n    tag_163:\n      pop\n        /* \"MegaJackpot.sol\":5076:5092  uint256 ownerFee */\n      0x00\n        /* \"MegaJackpot.sol\":481:485  1000 */\n      0x03e8\n        /* \"MegaJackpot.sol\":5104:5112  gameInfo */\n      0x07\n        /* \"MegaJackpot.sol\":5104:5120  gameInfo[idGame] */\n      0x00\n        /* \"MegaJackpot.sol\":5113:5119  idGame */\n      dup15\n        /* \"MegaJackpot.sol\":5104:5120  gameInfo[idGame] */\n      dup2\n      mstore\n      0x20\n      add\n      swap1\n      dup2\n      mstore\n      0x20\n      add\n      0x00\n      keccak256\n        /* \"MegaJackpot.sol\":5104:5133  gameInfo[idGame].ownerPercent */\n      0x03\n      add\n      sload\n        /* \"MegaJackpot.sol\":5095:5101  amount */\n      dup10\n        /* \"MegaJackpot.sol\":5095:5133  amount * gameInfo[idGame].ownerPercent */\n      tag_164\n      swap2\n      swap1\n      tag_116\n      jump\t// in\n    tag_164:\n        /* \"MegaJackpot.sol\":5095:5152  amount * gameInfo[idGame].ownerPercent / PERCENTS_DIVIDER */\n      tag_165\n      swap2\n      swap1\n      tag_143\n      jump\t// in\n    tag_165:\n        /* \"MegaJackpot.sol\":5076:5152  uint256 ownerFee = amount * gameInfo[idGame].ownerPercent / PERCENTS_DIVIDER */\n      swap1\n      pop\n        /* \"MegaJackpot.sol\":5162:5167  token */\n      0x03\n      0x00\n      swap1\n      sload\n      swap1\n      0x0100\n      exp\n      swap1\n      div\n      0xffffffffffffffffffffffffffffffffffffffff\n      and\n        /* \"MegaJackpot.sol\":5162:5176  token.transfer */\n      0xffffffffffffffffffffffffffffffffffffffff\n      and\n      0xa9059cbb\n        /* \"MegaJackpot.sol\":5177:5195  projectOwnerWallet */\n      0x06\n      0x00\n      swap1\n      sload\n      swap1\n      0x0100\n      exp\n      swap1\n      div\n      0xffffffffffffffffffffffffffffffffffffffff\n      and\n        /* \"MegaJackpot.sol\":5197:5205  ownerFee */\n      dup4\n        /* \"MegaJackpot.sol\":5162:5206  token.transfer(projectOwnerWallet, ownerFee) */\n      mload(0x40)\n      dup4\n      0xffffffff\n      and\n      0xe0\n      shl\n      dup2\n      mstore\n      0x04\n      add\n      tag_166\n      swap3\n      swap2\n      swap1\n      tag_147\n      jump\t// in\n    tag_166:\n      0x20\n      mload(0x40)\n      dup1\n      dup4\n      sub\n      dup2\n      0x00\n      dup8\n      gas\n      call\n      iszero\n      dup1\n      iszero\n      tag_168\n      jumpi\n      returndatasize\n      0x00\n      dup1\n      returndatacopy\n      revert(0x00, returndatasize)\n    tag_168:\n      pop\n      pop\n      pop\n      pop\n      mload(0x40)\n      returndatasize\n      not(0x1f)\n      0x1f\n      dup3\n      add\n      and\n      dup3\n      add\n      dup1\n      0x40\n      mstore\n      pop\n      dup2\n      add\n      swap1\n      tag_169\n      swap2\n      swap1\n      tag_134\n      jump\t// in\n    tag_169:\n      pop\n        /* \"MegaJackpot.sol\":5246:5249  qty */\n      dup10\n        /* \"MegaJackpot.sol\":5216:5224  gameInfo */\n      0x07\n        /* \"MegaJackpot.sol\":5216:5232  gameInfo[idGame] */\n      0x00\n        /* \"MegaJackpot.sol\":5225:5231  idGame */\n      dup15\n        /* \"MegaJackpot.sol\":5216:5232  gameInfo[idGame] */\n      dup2\n      mstore\n      0x20\n      add\n      swap1\n      dup2\n      mstore\n      0x20\n      add\n      0x00\n      keccak256\n        /* \"MegaJackpot.sol\":5216:5242  gameInfo[idGame].totalSpin */\n      0x07\n      add\n      0x00\n        /* \"MegaJackpot.sol\":5216:5249  gameInfo[idGame].totalSpin += qty */\n      dup3\n      dup3\n      sload\n      tag_170\n      swap2\n      swap1\n      tag_171\n      jump\t// in\n    tag_170:\n      swap3\n      pop\n      pop\n      dup2\n      swap1\n      sstore\n      pop\n        /* \"MegaJackpot.sol\":5259:5278  uint256 totalReward */\n      0x00\n        /* \"MegaJackpot.sol\":5292:5312  uint256 jackpotPrice */\n      dup1\n        /* \"MegaJackpot.sol\":5326:5341  uint256 _idGame */\n      0x00\n        /* \"MegaJackpot.sol\":5344:5350  idGame */\n      dup15\n        /* \"MegaJackpot.sol\":5326:5350  uint256 _idGame = idGame */\n      swap1\n      pop\n        /* \"MegaJackpot.sol\":5360:5376  uint256 _tokenId */\n      0x00\n        /* \"MegaJackpot.sol\":5379:5386  tokenId */\n      dup15\n        /* \"MegaJackpot.sol\":5360:5386  uint256 _tokenId = tokenId */\n      swap1\n      pop\n        /* \"MegaJackpot.sol\":5401:5410  uint256 i */\n      0x00\n        /* \"MegaJackpot.sol\":5396:5848  for (uint256 i = 0; i < qty; i++) {... */\n    tag_172:\n        /* \"MegaJackpot.sol\":5420:5423  qty */\n      dup15\n        /* \"MegaJackpot.sol\":5416:5417  i */\n      dup2\n        /* \"MegaJackpot.sol\":5416:5423  i < qty */\n      lt\n        /* \"MegaJackpot.sol\":5396:5848  for (uint256 i = 0; i < qty; i++) {... */\n      iszero\n      tag_173\n      jumpi\n        /* \"MegaJackpot.sol\":5445:5465  uint256 _totalReward */\n      0x00\n        /* \"MegaJackpot.sol\":5467:5479  bool jackpot */\n      dup1\n        /* \"MegaJackpot.sol\":5483:5509  spin(i, _tokenId, _idGame) */\n      tag_175\n        /* \"MegaJackpot.sol\":5488:5489  i */\n      dup4\n        /* \"MegaJackpot.sol\":5491:5499  _tokenId */\n      dup6\n        /* \"MegaJackpot.sol\":5501:5508  _idGame */\n      dup8\n        /* \"MegaJackpot.sol\":5483:5487  spin */\n      tag_176\n        /* \"MegaJackpot.sol\":5483:5509  spin(i, _tokenId, _idGame) */\n      jump\t// in\n    tag_175:\n        /* \"MegaJackpot.sol\":5444:5509  (uint256 _totalReward, bool jackpot) = spin(i, _tokenId, _idGame) */\n      swap2\n      pop\n      swap2\n      pop\n        /* \"MegaJackpot.sol\":5538:5550  _totalReward */\n      dup2\n        /* \"MegaJackpot.sol\":5523:5550  totalReward += _totalReward */\n      dup8\n      tag_177\n      swap2\n      swap1\n      tag_171\n      jump\t// in\n    tag_177:\n      swap7\n      pop\n        /* \"MegaJackpot.sol\":5568:5575  jackpot */\n      dup1\n        /* \"MegaJackpot.sol\":5564:5838  if (jackpot) {... */\n      iszero\n      tag_178\n      jumpi\n        /* \"MegaJackpot.sol\":5610:5622  _totalReward */\n      dup2\n        /* \"MegaJackpot.sol\":5595:5622  jackpotPrice = _totalReward */\n      swap6\n      pop\n        /* \"MegaJackpot.sol\":5645:5654  uint256 n */\n      0x00\n        /* \"MegaJackpot.sol\":5657:5658  i */\n      dup4\n        /* \"MegaJackpot.sol\":5645:5658  uint256 n = i */\n      swap1\n      pop\n        /* \"MegaJackpot.sol\":5640:5744  for (uint256 n = i; n > 0; n--) {... */\n    tag_179:\n        /* \"MegaJackpot.sol\":5664:5665  0 */\n      0x00\n        /* \"MegaJackpot.sol\":5660:5661  n */\n      dup2\n        /* \"MegaJackpot.sol\":5660:5665  n > 0 */\n      gt\n        /* \"MegaJackpot.sol\":5640:5744  for (uint256 n = i; n > 0; n--) {... */\n      iszero\n      tag_180\n      jumpi\n        /* \"MegaJackpot.sol\":5701:5712  orderDetail */\n      0x0a\n        /* \"MegaJackpot.sol\":5701:5722  orderDetail[_tokenId] */\n      0x00\n        /* \"MegaJackpot.sol\":5713:5721  _tokenId */\n      dup7\n        /* \"MegaJackpot.sol\":5701:5722  orderDetail[_tokenId] */\n      dup2\n      mstore\n      0x20\n      add\n      swap1\n      dup2\n      mstore\n      0x20\n      add\n      0x00\n      keccak256\n        /* \"MegaJackpot.sol\":5701:5725  orderDetail[_tokenId][n] */\n      0x00\n        /* \"MegaJackpot.sol\":5723:5724  n */\n      dup3\n        /* \"MegaJackpot.sol\":5701:5725  orderDetail[_tokenId][n] */\n      dup2\n      mstore\n      0x20\n      add\n      swap1\n      dup2\n      mstore\n      0x20\n      add\n      0x00\n      keccak256\n        /* \"MegaJackpot.sol\":5694:5725  delete orderDetail[_tokenId][n] */\n      0x00\n      swap1\n      sstore\n        /* \"MegaJackpot.sol\":5667:5670  n-- */\n      dup1\n      dup1\n      tag_182\n      swap1\n      tag_183\n      jump\t// in\n    tag_182:\n      swap2\n      pop\n      pop\n        /* \"MegaJackpot.sol\":5640:5744  for (uint256 n = i; n > 0; n--) {... */\n      jump(tag_179)\n    tag_180:\n      pop\n        /* \"MegaJackpot.sol\":5788:5800  jackpotPrice */\n      dup6\n        /* \"MegaJackpot.sol\":5761:5772  orderDetail */\n      0x0a\n        /* \"MegaJackpot.sol\":5761:5782  orderDetail[_tokenId] */\n      0x00\n        /* \"MegaJackpot.sol\":5773:5781  _tokenId */\n      dup7\n        /* \"MegaJackpot.sol\":5761:5782  orderDetail[_tokenId] */\n      dup2\n      mstore\n      0x20\n      add\n      swap1\n      dup2\n      mstore\n      0x20\n      add\n      0x00\n      keccak256\n        /* \"MegaJackpot.sol\":5761:5785  orderDetail[_tokenId][0] */\n      0x00\n        /* \"MegaJackpot.sol\":5783:5784  0 */\n      dup1\n        /* \"MegaJackpot.sol\":5761:5785  orderDetail[_tokenId][0] */\n      dup2\n      mstore\n      0x20\n      add\n      swap1\n      dup2\n      mstore\n      0x20\n      add\n      0x00\n      keccak256\n        /* \"MegaJackpot.sol\":5761:5800  orderDetail[_tokenId][0] = jackpotPrice */\n      dup2\n      swap1\n      sstore\n      pop\n        /* \"MegaJackpot.sol\":5818:5823  break */\n      pop\n      pop\n      jump(tag_173)\n        /* \"MegaJackpot.sol\":5564:5838  if (jackpot) {... */\n    tag_178:\n        /* \"MegaJackpot.sol\":5430:5848  {... */\n      pop\n      pop\n        /* \"MegaJackpot.sol\":5425:5428  i++ */\n      dup1\n      dup1\n      tag_184\n      swap1\n      tag_185\n      jump\t// in\n    tag_184:\n      swap2\n      pop\n      pop\n        /* \"MegaJackpot.sol\":5396:5848  for (uint256 i = 0; i < qty; i++) {... */\n      jump(tag_172)\n    tag_173:\n      pop\n        /* \"MegaJackpot.sol\":5900:5901  0 */\n      0x00\n        /* \"MegaJackpot.sol\":5885:5897  jackpotPrice */\n      dup4\n        /* \"MegaJackpot.sol\":5885:5901  jackpotPrice > 0 */\n      gt\n        /* \"MegaJackpot.sol\":5858:5864  orders */\n      0x09\n        /* \"MegaJackpot.sol\":5858:5874  orders[_tokenId] */\n      0x00\n        /* \"MegaJackpot.sol\":5865:5873  _tokenId */\n      dup4\n        /* \"MegaJackpot.sol\":5858:5874  orders[_tokenId] */\n      dup2\n      mstore\n      0x20\n      add\n      swap1\n      dup2\n      mstore\n      0x20\n      add\n      0x00\n      keccak256\n        /* \"MegaJackpot.sol\":5858:5882  orders[_tokenId].jackpot */\n      0x00\n      add\n      0x00\n        /* \"MegaJackpot.sol\":5858:5901  orders[_tokenId].jackpot = jackpotPrice > 0 */\n      0x0100\n      exp\n      dup2\n      sload\n      dup2\n      0xff\n      mul\n      not\n      and\n      swap1\n      dup4\n      iszero\n      iszero\n      mul\n      or\n      swap1\n      sstore\n      pop\n        /* \"MegaJackpot.sol\":5934:5937  qty */\n      dup14\n        /* \"MegaJackpot.sol\":5911:5917  orders */\n      0x09\n        /* \"MegaJackpot.sol\":5911:5927  orders[_tokenId] */\n      0x00\n        /* \"MegaJackpot.sol\":5918:5926  _tokenId */\n      dup4\n        /* \"MegaJackpot.sol\":5911:5927  orders[_tokenId] */\n      dup2\n      mstore\n      0x20\n      add\n      swap1\n      dup2\n      mstore\n      0x20\n      add\n      0x00\n      keccak256\n        /* \"MegaJackpot.sol\":5911:5931  orders[_tokenId].qty */\n      0x01\n      add\n        /* \"MegaJackpot.sol\":5911:5937  orders[_tokenId].qty = qty */\n      dup2\n      swap1\n      sstore\n      pop\n        /* \"MegaJackpot.sol\":5974:5982  _tokenId */\n      dup1\n        /* \"MegaJackpot.sol\":5947:5953  orders */\n      0x09\n        /* \"MegaJackpot.sol\":5947:5963  orders[_tokenId] */\n      0x00\n        /* \"MegaJackpot.sol\":5954:5962  _tokenId */\n      dup4\n        /* \"MegaJackpot.sol\":5947:5963  orders[_tokenId] */\n      dup2\n      mstore\n      0x20\n      add\n      swap1\n      dup2\n      mstore\n      0x20\n      add\n      0x00\n      keccak256\n        /* \"MegaJackpot.sol\":5947:5971  orders[_tokenId].tokenId */\n      0x02\n      add\n        /* \"MegaJackpot.sol\":5947:5982  orders[_tokenId].tokenId = _tokenId */\n      dup2\n      swap1\n      sstore\n      pop\n        /* \"MegaJackpot.sol\":6035:6036  0 */\n      0x00\n        /* \"MegaJackpot.sol\":6020:6032  jackpotPrice */\n      dup4\n        /* \"MegaJackpot.sol\":6020:6036  jackpotPrice > 0 */\n      gt\n        /* \"MegaJackpot.sol\":6016:6820  if (jackpotPrice > 0) {... */\n      iszero\n      tag_186\n      jumpi\n        /* \"MegaJackpot.sol\":6052:6070  uint256 taxJackpot */\n      0x00\n        /* \"MegaJackpot.sol\":6095:6098  100 */\n      0x64\n        /* \"MegaJackpot.sol\":6089:6091  10 */\n      0x0a\n        /* \"MegaJackpot.sol\":6074:6086  jackpotPrice */\n      dup6\n        /* \"MegaJackpot.sol\":6074:6091  jackpotPrice * 10 */\n      tag_187\n      swap2\n      swap1\n      tag_116\n      jump\t// in\n    tag_187:\n        /* \"MegaJackpot.sol\":6073:6098  (jackpotPrice * 10) / 100 */\n      tag_188\n      swap2\n      swap1\n      tag_143\n      jump\t// in\n    tag_188:\n        /* \"MegaJackpot.sol\":6052:6098  uint256 taxJackpot = (jackpotPrice * 10) / 100 */\n      swap1\n      pop\n        /* \"MegaJackpot.sol\":6112:6130  uint256 startPrize */\n      0x00\n        /* \"MegaJackpot.sol\":6133:6141  gameInfo */\n      0x07\n        /* \"MegaJackpot.sol\":6133:6150  gameInfo[_idGame] */\n      0x00\n        /* \"MegaJackpot.sol\":6142:6149  _idGame */\n      dup6\n        /* \"MegaJackpot.sol\":6133:6150  gameInfo[_idGame] */\n      dup2\n      mstore\n      0x20\n      add\n      swap1\n      dup2\n      mstore\n      0x20\n      add\n      0x00\n      keccak256\n        /* \"MegaJackpot.sol\":6133:6161  gameInfo[_idGame].startPrize */\n      0x01\n      add\n      sload\n        /* \"MegaJackpot.sol\":6112:6161  uint256 startPrize = gameInfo[_idGame].startPrize */\n      swap1\n      pop\n        /* \"MegaJackpot.sol\":6193:6203  taxJackpot */\n      dup2\n        /* \"MegaJackpot.sol\":6179:6189  startPrize */\n      dup2\n        /* \"MegaJackpot.sol\":6179:6203  startPrize <= taxJackpot */\n      gt\n        /* \"MegaJackpot.sol\":6175:6453  if (startPrize <= taxJackpot) {... */\n      tag_189\n      jumpi\n        /* \"MegaJackpot.sol\":6303:6311  ownerFee */\n      dup7\n        /* \"MegaJackpot.sol\":6294:6300  affFee */\n      dup9\n        /* \"MegaJackpot.sol\":6285:6291  mktFee */\n      dup11\n        /* \"MegaJackpot.sol\":6276:6282  devFee */\n      dup13\n        /* \"MegaJackpot.sol\":6264:6272  afterFee */\n      dup15\n        /* \"MegaJackpot.sol\":6251:6261  startPrize */\n      dup6\n        /* \"MegaJackpot.sol\":6251:6272  startPrize + afterFee */\n      tag_190\n      swap2\n      swap1\n      tag_171\n      jump\t// in\n    tag_190:\n        /* \"MegaJackpot.sol\":6250:6282  (startPrize + afterFee) - devFee */\n      tag_191\n      swap2\n      swap1\n      tag_140\n      jump\t// in\n    tag_191:\n        /* \"MegaJackpot.sol\":6250:6291  (startPrize + afterFee) - devFee - mktFee */\n      tag_192\n      swap2\n      swap1\n      tag_140\n      jump\t// in\n    tag_192:\n        /* \"MegaJackpot.sol\":6250:6300  (startPrize + afterFee) - devFee - mktFee - affFee */\n      tag_193\n      swap2\n      swap1\n      tag_140\n      jump\t// in\n    tag_193:\n        /* \"MegaJackpot.sol\":6250:6311  (startPrize + afterFee) - devFee - mktFee - affFee - ownerFee */\n      tag_194\n      swap2\n      swap1\n      tag_140\n      jump\t// in\n    tag_194:\n        /* \"MegaJackpot.sol\":6223:6228  prize */\n      0x08\n        /* \"MegaJackpot.sol\":6223:6237  prize[_idGame] */\n      0x00\n        /* \"MegaJackpot.sol\":6229:6236  _idGame */\n      dup7\n        /* \"MegaJackpot.sol\":6223:6237  prize[_idGame] */\n      dup2\n      mstore\n      0x20\n      add\n      swap1\n      dup2\n      mstore\n      0x20\n      add\n      0x00\n      keccak256\n        /* \"MegaJackpot.sol\":6223:6241  prize[_idGame][11] */\n      0x00\n        /* \"MegaJackpot.sol\":6238:6240  11 */\n      0x0b\n        /* \"MegaJackpot.sol\":6223:6241  prize[_idGame][11] */\n      dup2\n      mstore\n      0x20\n      add\n      swap1\n      dup2\n      mstore\n      0x20\n      add\n      0x00\n      keccak256\n        /* \"MegaJackpot.sol\":6223:6247  prize[_idGame][11].value */\n      0x00\n      add\n        /* \"MegaJackpot.sol\":6223:6311  prize[_idGame][11].value = (startPrize + afterFee) - devFee - mktFee - affFee - ownerFee */\n      dup2\n      swap1\n      sstore\n      pop\n        /* \"MegaJackpot.sol\":6175:6453  if (startPrize <= taxJackpot) {... */\n      jump(tag_195)\n    tag_189:\n        /* \"MegaJackpot.sol\":6430:6438  ownerFee */\n      dup7\n        /* \"MegaJackpot.sol\":6421:6427  affFee */\n      dup9\n        /* \"MegaJackpot.sol\":6412:6418  mktFee */\n      dup11\n        /* \"MegaJackpot.sol\":6403:6409  devFee */\n      dup13\n        /* \"MegaJackpot.sol\":6391:6399  afterFee */\n      dup15\n        /* \"MegaJackpot.sol\":6378:6388  taxJackpot */\n      dup7\n        /* \"MegaJackpot.sol\":6378:6399  taxJackpot + afterFee */\n      tag_196\n      swap2\n      swap1\n      tag_171\n      jump\t// in\n    tag_196:\n        /* \"MegaJackpot.sol\":6377:6409  (taxJackpot + afterFee) - devFee */\n      tag_197\n      swap2\n      swap1\n      tag_140\n      jump\t// in\n    tag_197:\n        /* \"MegaJackpot.sol\":6377:6418  (taxJackpot + afterFee) - devFee - mktFee */\n      tag_198\n      swap2\n      swap1\n      tag_140\n      jump\t// in\n    tag_198:\n        /* \"MegaJackpot.sol\":6377:6427  (taxJackpot + afterFee) - devFee - mktFee - affFee */\n      tag_199\n      swap2\n      swap1\n      tag_140\n      jump\t// in\n    tag_199:\n        /* \"MegaJackpot.sol\":6377:6438  (taxJackpot + afterFee) - devFee - mktFee - affFee - ownerFee */\n      tag_200\n      swap2\n      swap1\n      tag_140\n      jump\t// in\n    tag_200:\n        /* \"MegaJackpot.sol\":6350:6355  prize */\n      0x08\n        /* \"MegaJackpot.sol\":6350:6364  prize[_idGame] */\n      0x00\n        /* \"MegaJackpot.sol\":6356:6363  _idGame */\n      dup7\n        /* \"MegaJackpot.sol\":6350:6364  prize[_idGame] */\n      dup2\n      mstore\n      0x20\n      add\n      swap1\n      dup2\n      mstore\n      0x20\n      add\n      0x00\n      keccak256\n        /* \"MegaJackpot.sol\":6350:6368  prize[_idGame][11] */\n      0x00\n        /* \"MegaJackpot.sol\":6365:6367  11 */\n      0x0b\n        /* \"MegaJackpot.sol\":6350:6368  prize[_idGame][11] */\n      dup2\n      mstore\n      0x20\n      add\n      swap1\n      dup2\n      mstore\n      0x20\n      add\n      0x00\n      keccak256\n        /* \"MegaJackpot.sol\":6350:6374  prize[_idGame][11].value */\n      0x00\n      add\n        /* \"MegaJackpot.sol\":6350:6438  prize[_idGame][11].value = (taxJackpot + afterFee) - devFee - mktFee - affFee - ownerFee */\n      dup2\n      swap1\n      sstore\n      pop\n        /* \"MegaJackpot.sol\":6175:6453  if (startPrize <= taxJackpot) {... */\n    tag_195:\n        /* \"MegaJackpot.sol\":6495:6505  taxJackpot */\n      dup2\n        /* \"MegaJackpot.sol\":6480:6492  jackpotPrice */\n      dup6\n        /* \"MegaJackpot.sol\":6480:6505  jackpotPrice - taxJackpot */\n      tag_201\n      swap2\n      swap1\n      tag_140\n      jump\t// in\n    tag_201:\n        /* \"MegaJackpot.sol\":6466:6505  totalReward = jackpotPrice - taxJackpot */\n      swap6\n      pop\n        /* \"MegaJackpot.sol\":6545:6546  1 */\n      0x01\n        /* \"MegaJackpot.sol\":6519:6527  gameInfo */\n      0x07\n        /* \"MegaJackpot.sol\":6519:6536  gameInfo[_idGame] */\n      0x00\n        /* \"MegaJackpot.sol\":6528:6535  _idGame */\n      dup7\n        /* \"MegaJackpot.sol\":6519:6536  gameInfo[_idGame] */\n      dup2\n      mstore\n      0x20\n      add\n      swap1\n      dup2\n      mstore\n      0x20\n      add\n      0x00\n      keccak256\n        /* \"MegaJackpot.sol\":6519:6541  gameInfo[_idGame].term */\n      0x05\n      add\n      0x00\n        /* \"MegaJackpot.sol\":6519:6546  gameInfo[_idGame].term += 1 */\n      dup3\n      dup3\n      sload\n      tag_202\n      swap2\n      swap1\n      tag_171\n      jump\t// in\n    tag_202:\n      swap3\n      pop\n      pop\n      dup2\n      swap1\n      sstore\n      pop\n        /* \"MegaJackpot.sol\":6593:6604  totalReward */\n      dup6\n        /* \"MegaJackpot.sol\":6560:6568  gameInfo */\n      0x07\n        /* \"MegaJackpot.sol\":6560:6577  gameInfo[_idGame] */\n      0x00\n        /* \"MegaJackpot.sol\":6569:6576  _idGame */\n      dup7\n        /* \"MegaJackpot.sol\":6560:6577  gameInfo[_idGame] */\n      dup2\n      mstore\n      0x20\n      add\n      swap1\n      dup2\n      mstore\n      0x20\n      add\n      0x00\n      keccak256\n        /* \"MegaJackpot.sol\":6560:6589  gameInfo[_idGame].totalReward */\n      0x06\n      add\n      0x00\n        /* \"MegaJackpot.sol\":6560:6604  gameInfo[_idGame].totalReward += totalReward */\n      dup3\n      dup3\n      sload\n      tag_203\n      swap2\n      swap1\n      tag_171\n      jump\t// in\n    tag_203:\n      swap3\n      pop\n      pop\n      dup2\n      swap1\n      sstore\n      pop\n        /* \"MegaJackpot.sol\":6038:6615  {... */\n      pop\n      pop\n        /* \"MegaJackpot.sol\":6016:6820  if (jackpotPrice > 0) {... */\n      jump(tag_204)\n    tag_186:\n        /* \"MegaJackpot.sol\":6668:6679  totalReward */\n      dup4\n        /* \"MegaJackpot.sol\":6635:6643  gameInfo */\n      0x07\n        /* \"MegaJackpot.sol\":6635:6652  gameInfo[_idGame] */\n      0x00\n        /* \"MegaJackpot.sol\":6644:6651  _idGame */\n      dup5\n        /* \"MegaJackpot.sol\":6635:6652  gameInfo[_idGame] */\n      dup2\n      mstore\n      0x20\n      add\n      swap1\n      dup2\n      mstore\n      0x20\n      add\n      0x00\n      keccak256\n        /* \"MegaJackpot.sol\":6635:6664  gameInfo[_idGame].totalReward */\n      0x06\n      add\n      0x00\n        /* \"MegaJackpot.sol\":6635:6679  gameInfo[_idGame].totalReward += totalReward */\n      dup3\n      dup3\n      sload\n      tag_205\n      swap2\n      swap1\n      tag_171\n      jump\t// in\n    tag_205:\n      swap3\n      pop\n      pop\n      dup2\n      swap1\n      sstore\n      pop\n        /* \"MegaJackpot.sol\":6801:6809  ownerFee */\n      dup5\n        /* \"MegaJackpot.sol\":6792:6798  affFee */\n      dup7\n        /* \"MegaJackpot.sol\":6783:6789  mktFee */\n      dup9\n        /* \"MegaJackpot.sol\":6774:6780  devFee */\n      dup11\n        /* \"MegaJackpot.sol\":6760:6771  totalReward */\n      dup8\n        /* \"MegaJackpot.sol\":6748:6756  afterFee */\n      dup14\n        /* \"MegaJackpot.sol\":6721:6726  prize */\n      0x08\n        /* \"MegaJackpot.sol\":6721:6735  prize[_idGame] */\n      0x00\n        /* \"MegaJackpot.sol\":6727:6734  _idGame */\n      dup10\n        /* \"MegaJackpot.sol\":6721:6735  prize[_idGame] */\n      dup2\n      mstore\n      0x20\n      add\n      swap1\n      dup2\n      mstore\n      0x20\n      add\n      0x00\n      keccak256\n        /* \"MegaJackpot.sol\":6721:6739  prize[_idGame][11] */\n      0x00\n        /* \"MegaJackpot.sol\":6736:6738  11 */\n      0x0b\n        /* \"MegaJackpot.sol\":6721:6739  prize[_idGame][11] */\n      dup2\n      mstore\n      0x20\n      add\n      swap1\n      dup2\n      mstore\n      0x20\n      add\n      0x00\n      keccak256\n        /* \"MegaJackpot.sol\":6721:6745  prize[_idGame][11].value */\n      0x00\n      add\n      sload\n        /* \"MegaJackpot.sol\":6721:6756  prize[_idGame][11].value + afterFee */\n      tag_206\n      swap2\n      swap1\n      tag_171\n      jump\t// in\n    tag_206:\n        /* \"MegaJackpot.sol\":6720:6771  (prize[_idGame][11].value + afterFee) - totalReward */\n      tag_207\n      swap2\n      swap1\n      tag_140\n      jump\t// in\n    tag_207:\n        /* \"MegaJackpot.sol\":6720:6780  (prize[_idGame][11].value + afterFee) - totalReward - devFee */\n      tag_208\n      swap2\n      swap1\n      tag_140\n      jump\t// in\n    tag_208:\n        /* \"MegaJackpot.sol\":6720:6789  (prize[_idGame][11].value + afterFee) - totalReward - devFee - mktFee */\n      tag_209\n      swap2\n      swap1\n      tag_140\n      jump\t// in\n    tag_209:\n        /* \"MegaJackpot.sol\":6720:6798  (prize[_idGame][11].value + afterFee) - totalReward - devFee - mktFee - affFee */\n      tag_210\n      swap2\n      swap1\n      tag_140\n      jump\t// in\n    tag_210:\n        /* \"MegaJackpot.sol\":6720:6809  (prize[_idGame][11].value + afterFee) - totalReward - devFee - mktFee - affFee - ownerFee */\n      tag_211\n      swap2\n      swap1\n      tag_140\n      jump\t// in\n    tag_211:\n        /* \"MegaJackpot.sol\":6693:6698  prize */\n      0x08\n        /* \"MegaJackpot.sol\":6693:6707  prize[_idGame] */\n      0x00\n        /* \"MegaJackpot.sol\":6699:6706  _idGame */\n      dup5\n        /* \"MegaJackpot.sol\":6693:6707  prize[_idGame] */\n      dup2\n      mstore\n      0x20\n      add\n      swap1\n      dup2\n      mstore\n      0x20\n      add\n      0x00\n      keccak256\n        /* \"MegaJackpot.sol\":6693:6711  prize[_idGame][11] */\n      0x00\n        /* \"MegaJackpot.sol\":6708:6710  11 */\n      0x0b\n        /* \"MegaJackpot.sol\":6693:6711  prize[_idGame][11] */\n      dup2\n      mstore\n      0x20\n      add\n      swap1\n      dup2\n      mstore\n      0x20\n      add\n      0x00\n      keccak256\n        /* \"MegaJackpot.sol\":6693:6717  prize[_idGame][11].value */\n      0x00\n      add\n        /* \"MegaJackpot.sol\":6693:6809  prize[_idGame][11].value = (prize[_idGame][11].value + afterFee) - totalReward - devFee - mktFee - affFee - ownerFee */\n      dup2\n      swap1\n      sstore\n      pop\n        /* \"MegaJackpot.sol\":6016:6820  if (jackpotPrice > 0) {... */\n    tag_204:\n        /* \"MegaJackpot.sol\":6847:6848  0 */\n      0x00\n        /* \"MegaJackpot.sol\":6833:6844  totalReward */\n      dup5\n        /* \"MegaJackpot.sol\":6833:6848  totalReward > 0 */\n      gt\n        /* \"MegaJackpot.sol\":6829:6912  if (totalReward > 0) {... */\n      iszero\n      tag_212\n      jumpi\n        /* \"MegaJackpot.sol\":6864:6869  token */\n      0x03\n      0x00\n      swap1\n      sload\n      swap1\n      0x0100\n      exp\n      swap1\n      div\n      0xffffffffffffffffffffffffffffffffffffffff\n      and\n        /* \"MegaJackpot.sol\":6864:6878  token.transfer */\n      0xffffffffffffffffffffffffffffffffffffffff\n      and\n      0xa9059cbb\n        /* \"MegaJackpot.sol\":6879:6887  userSpin */\n      dup15\n        /* \"MegaJackpot.sol\":6889:6900  totalReward */\n      dup7\n        /* \"MegaJackpot.sol\":6864:6901  token.transfer(userSpin, totalReward) */\n      mload(0x40)\n      dup4\n      0xffffffff\n      and\n      0xe0\n      shl\n      dup2\n      mstore\n      0x04\n      add\n      tag_213\n      swap3\n      swap2\n      swap1\n      tag_147\n      jump\t// in\n    tag_213:\n      0x20\n      mload(0x40)\n      dup1\n      dup4\n      sub\n      dup2\n      0x00\n      dup8\n      gas\n      call\n      iszero\n      dup1\n      iszero\n      tag_215\n      jumpi\n      returndatasize\n      0x00\n      dup1\n      returndatacopy\n      revert(0x00, returndatasize)\n    tag_215:\n      pop\n      pop\n      pop\n      pop\n      mload(0x40)\n      returndatasize\n      not(0x1f)\n      0x1f\n      dup3\n      add\n      and\n      dup3\n      add\n      dup1\n      0x40\n      mstore\n      pop\n      dup2\n      add\n      swap1\n      tag_216\n      swap2\n      swap1\n      tag_134\n      jump\t// in\n    tag_216:\n      pop\n        /* \"MegaJackpot.sol\":6829:6912  if (totalReward > 0) {... */\n    tag_212:\n        /* \"MegaJackpot.sol\":6926:7009  Order(totalReward, qty, orders[_tokenId].jackpot, devFee, mktFee, affFee, ownerFee) */\n      0x6a3f36c72d006bc18c991a32d6125245bdac6838f401790ed41516b495455672\n        /* \"MegaJackpot.sol\":6932:6943  totalReward */\n      dup5\n        /* \"MegaJackpot.sol\":6945:6948  qty */\n      dup16\n        /* \"MegaJackpot.sol\":6950:6956  orders */\n      0x09\n        /* \"MegaJackpot.sol\":6950:6966  orders[_tokenId] */\n      0x00\n        /* \"MegaJackpot.sol\":6957:6965  _tokenId */\n      dup6\n        /* \"MegaJackpot.sol\":6950:6966  orders[_tokenId] */\n      dup2\n      mstore\n      0x20\n      add\n      swap1\n      dup2\n      mstore\n      0x20\n      add\n      0x00\n      keccak256\n        /* \"MegaJackpot.sol\":6950:6974  orders[_tokenId].jackpot */\n      0x00\n      add\n      0x00\n      swap1\n      sload\n      swap1\n      0x0100\n      exp\n      swap1\n      div\n      0xff\n      and\n        /* \"MegaJackpot.sol\":6976:6982  devFee */\n      dup12\n        /* \"MegaJackpot.sol\":6984:6990  mktFee */\n      dup12\n        /* \"MegaJackpot.sol\":6992:6998  affFee */\n      dup12\n        /* \"MegaJackpot.sol\":7000:7008  ownerFee */\n      dup12\n        /* \"MegaJackpot.sol\":6926:7009  Order(totalReward, qty, orders[_tokenId].jackpot, devFee, mktFee, affFee, ownerFee) */\n      mload(0x40)\n      tag_217\n      swap8\n      swap7\n      swap6\n      swap5\n      swap4\n      swap3\n      swap2\n      swap1\n      tag_218\n      jump\t// in\n    tag_217:\n      mload(0x40)\n      dup1\n      swap2\n      sub\n      swap1\n      log1\n        /* \"MegaJackpot.sol\":4192:7016  {... */\n      pop\n      pop\n      pop\n      pop\n      pop\n      pop\n      pop\n      pop\n      pop\n      pop\n      pop\n      pop\n        /* \"ReentrancyGuard.sol\":1637:1638  1 */\n      0x01\n        /* \"ReentrancyGuard.sol\":2562:2569  _status */\n      0x00\n        /* \"ReentrancyGuard.sol\":2562:2584  _status = _NOT_ENTERED */\n      dup2\n      swap1\n      sstore\n      pop\n        /* \"MegaJackpot.sol\":3906:7016  function order(... */\n      pop\n      pop\n      pop\n      pop\n      pop\n      pop\n      pop\n      pop\n      pop\n      jump\t// out\n        /* \"MegaJackpot.sol\":646:679  address public projectOwnerWallet */\n    tag_41:\n      0x06\n      0x00\n      swap1\n      sload\n      swap1\n      0x0100\n      exp\n      swap1\n      div\n      0xffffffffffffffffffffffffffffffffffffffff\n      and\n      dup2\n      jump\t// out\n        /* \"MegaJackpot.sol\":491:551  uint256 constant public SPIN_PERCENTS_DIVIDER = 1000_000_000 */\n    tag_45:\n        /* \"MegaJackpot.sol\":539:551  1000_000_000 */\n      0x3b9aca00\n        /* \"MegaJackpot.sol\":491:551  uint256 constant public SPIN_PERCENTS_DIVIDER = 1000_000_000 */\n      dup2\n      jump\t// out\n        /* \"MegaJackpot.sol\":1143:1201  mapping(uint256 => mapping(uint256 => Prize)) public prize */\n    tag_50:\n      mstore(0x20, 0x08)\n      dup2\n      0x00\n      mstore\n      mstore(0x20, keccak256(0x00, 0x40))\n      dup1\n      0x00\n      mstore\n      keccak256(0x00, 0x40)\n      0x00\n      swap2\n      pop\n      swap2\n      pop\n      pop\n      dup1\n      0x00\n      add\n      sload\n      swap1\n      dup1\n      0x01\n      add\n      sload\n      swap1\n      pop\n      dup3\n      jump\t// out\n        /* \"Ownable.sol\":1598:1690  function renounceOwnership() public virtual onlyOwner {... */\n    tag_54:\n        /* \"Ownable.sol\":1189:1201  _msgSender() */\n      tag_220\n        /* \"Ownable.sol\":1189:1199  _msgSender */\n      tag_221\n        /* \"Ownable.sol\":1189:1201  _msgSender() */\n      jump\t// in\n    tag_220:\n        /* \"Ownable.sol\":1178:1201  owner() == _msgSender() */\n      0xffffffffffffffffffffffffffffffffffffffff\n      and\n        /* \"Ownable.sol\":1178:1185  owner() */\n      tag_222\n        /* \"Ownable.sol\":1178:1183  owner */\n      tag_60\n        /* \"Ownable.sol\":1178:1185  owner() */\n      jump\t// in\n    tag_222:\n        /* \"Ownable.sol\":1178:1201  owner() == _msgSender() */\n      0xffffffffffffffffffffffffffffffffffffffff\n      and\n      eq\n        /* \"Ownable.sol\":1170:1238  require(owner() == _msgSender(), \"Ownable: caller is not the owner\") */\n      tag_223\n      jumpi\n      mload(0x40)\n      0x08c379a000000000000000000000000000000000000000000000000000000000\n      dup2\n      mstore\n      0x04\n      add\n      tag_224\n      swap1\n      tag_225\n      jump\t// in\n    tag_224:\n      mload(0x40)\n      dup1\n      swap2\n      sub\n      swap1\n      revert\n    tag_223:\n        /* \"Ownable.sol\":1662:1683  _setOwner(address(0)) */\n      tag_227\n        /* \"Ownable.sol\":1680:1681  0 */\n      0x00\n        /* \"Ownable.sol\":1662:1671  _setOwner */\n      tag_228\n        /* \"Ownable.sol\":1662:1683  _setOwner(address(0)) */\n      jump\t// in\n    tag_227:\n        /* \"Ownable.sol\":1598:1690  function renounceOwnership() public virtual onlyOwner {... */\n      jump\t// out\n        /* \"MegaJackpot.sol\":1257:1323  mapping(uint256 => mapping(uint256 => uint256)) public orderDetail */\n    tag_57:\n      mstore(0x20, 0x0a)\n      dup2\n      0x00\n      mstore\n      mstore(0x20, keccak256(0x00, 0x40))\n      dup1\n      0x00\n      mstore\n      keccak256(0x00, 0x40)\n      0x00\n      swap2\n      pop\n      swap2\n      pop\n      pop\n      sload\n      dup2\n      jump\t// out\n        /* \"Ownable.sol\":966:1051  function owner() public view virtual returns (address) {... */\n    tag_60:\n        /* \"Ownable.sol\":1012:1019  address */\n      0x00\n        /* \"Ownable.sol\":1038:1044  _owner */\n      0x01\n      0x00\n      swap1\n      sload\n      swap1\n      0x0100\n      exp\n      swap1\n      div\n      0xffffffffffffffffffffffffffffffffffffffff\n      and\n        /* \"Ownable.sol\":1031:1044  return _owner */\n      swap1\n      pop\n        /* \"Ownable.sol\":966:1051  function owner() public view virtual returns (address) {... */\n      swap1\n      jump\t// out\n        /* \"MegaJackpot.sol\":1097:1137  mapping(uint256 => Game) public gameInfo */\n    tag_65:\n      mstore(0x20, 0x07)\n      dup1\n      0x00\n      mstore\n      keccak256(0x00, 0x40)\n      0x00\n      swap2\n      pop\n      swap1\n      pop\n      dup1\n      0x00\n      add\n      sload\n      swap1\n      dup1\n      0x01\n      add\n      sload\n      swap1\n      dup1\n      0x02\n      add\n      dup1\n      sload\n      tag_230\n      swap1\n      tag_95\n      jump\t// in\n    tag_230:\n      dup1\n      0x1f\n      add\n      0x20\n      dup1\n      swap2\n      div\n      mul\n      0x20\n      add\n      mload(0x40)\n      swap1\n      dup2\n      add\n      0x40\n      mstore\n      dup1\n      swap3\n      swap2\n      swap1\n      dup2\n      dup2\n      mstore\n      0x20\n      add\n      dup3\n      dup1\n      sload\n      tag_231\n      swap1\n      tag_95\n      jump\t// in\n    tag_231:\n      dup1\n      iszero\n      tag_232\n      jumpi\n      dup1\n      0x1f\n      lt\n      tag_233\n      jumpi\n      0x0100\n      dup1\n      dup4\n      sload\n      div\n      mul\n      dup4\n      mstore\n      swap2\n      0x20\n      add\n      swap2\n      jump(tag_232)\n    tag_233:\n      dup3\n      add\n      swap2\n      swap1\n      0x00\n      mstore\n      keccak256(0x00, 0x20)\n      swap1\n    tag_234:\n      dup2\n      sload\n      dup2\n      mstore\n      swap1\n      0x01\n      add\n      swap1\n      0x20\n      add\n      dup1\n      dup4\n      gt\n      tag_234\n      jumpi\n      dup3\n      swap1\n      sub\n      0x1f\n      and\n      dup3\n      add\n      swap2\n    tag_232:\n      pop\n      pop\n      pop\n      pop\n      pop\n      swap1\n      dup1\n      0x03\n      add\n      sload\n      swap1\n      dup1\n      0x04\n      add\n      sload\n      swap1\n      dup1\n      0x05\n      add\n      sload\n      swap1\n      dup1\n      0x06\n      add\n      sload\n      swap1\n      dup1\n      0x07\n      add\n      sload\n      swap1\n      pop\n      dup9\n      jump\t// out\n        /* \"MegaJackpot.sol\":1207:1251  mapping(uint256 => RewardSpin) public orders */\n    tag_70:\n      mstore(0x20, 0x09)\n      dup1\n      0x00\n      mstore\n      keccak256(0x00, 0x40)\n      0x00\n      swap2\n      pop\n      swap1\n      pop\n      dup1\n      0x00\n      add\n      0x00\n      swap1\n      sload\n      swap1\n      0x0100\n      exp\n      swap1\n      div\n      0xff\n      and\n      swap1\n      dup1\n      0x01\n      add\n      sload\n      swap1\n      dup1\n      0x02\n      add\n      sload\n      swap1\n      pop\n      dup4\n      jump\t// out\n        /* \"MegaJackpot.sol\":1763:3900  function createGame(... */\n    tag_76:\n        /* \"MegaJackpot.sol\":2079:2097  projectOwnerWallet */\n      0x06\n      0x00\n      swap1\n      sload\n      swap1\n      0x0100\n      exp\n      swap1\n      div\n      0xffffffffffffffffffffffffffffffffffffffff\n      and\n        /* \"MegaJackpot.sol\":2063:2097  _msgSender() == projectOwnerWallet */\n      0xffffffffffffffffffffffffffffffffffffffff\n      and\n        /* \"MegaJackpot.sol\":2063:2075  _msgSender() */\n      tag_236\n        /* \"MegaJackpot.sol\":2063:2073  _msgSender */\n      tag_221\n        /* \"MegaJackpot.sol\":2063:2075  _msgSender() */\n      jump\t// in\n    tag_236:\n        /* \"MegaJackpot.sol\":2063:2097  _msgSender() == projectOwnerWallet */\n      0xffffffffffffffffffffffffffffffffffffffff\n      and\n      eq\n        /* \"MegaJackpot.sol\":2055:2131  require(_msgSender() == projectOwnerWallet, \"not project owner create game\") */\n      tag_237\n      jumpi\n      mload(0x40)\n      0x08c379a000000000000000000000000000000000000000000000000000000000\n      dup2\n      mstore\n      0x04\n      add\n      tag_238\n      swap1\n      tag_239\n      jump\t// in\n    tag_238:\n      mload(0x40)\n      dup1\n      swap2\n      sub\n      swap1\n      revert\n    tag_237:\n        /* \"MegaJackpot.sol\":2158:2159  0 */\n      0x00\n        /* \"MegaJackpot.sol\":2149:2155  _price */\n      dup8\n        /* \"MegaJackpot.sol\":2149:2159  _price > 0 */\n      gt\n        /* \"MegaJackpot.sol\":2141:2177  require(_price > 0, \"price is zero\") */\n      tag_240\n      jumpi\n      mload(0x40)\n      0x08c379a000000000000000000000000000000000000000000000000000000000\n      dup2\n      mstore\n      0x04\n      add\n      tag_241\n      swap1\n      tag_242\n      jump\t// in\n    tag_241:\n      mload(0x40)\n      dup1\n      swap2\n      sub\n      swap1\n      revert\n    tag_240:\n        /* \"MegaJackpot.sol\":2209:2210  0 */\n      0x00\n        /* \"MegaJackpot.sol\":2195:2206  _startPrice */\n      dup7\n        /* \"MegaJackpot.sol\":2195:2210  _startPrice > 0 */\n      gt\n        /* \"MegaJackpot.sol\":2187:2228  require(_startPrice > 0, \"price is zero\") */\n      tag_243\n      jumpi\n      mload(0x40)\n      0x08c379a000000000000000000000000000000000000000000000000000000000\n      dup2\n      mstore\n      0x04\n      add\n      tag_244\n      swap1\n      tag_242\n      jump\t// in\n    tag_244:\n      mload(0x40)\n      dup1\n      swap2\n      sub\n      swap1\n      revert\n    tag_243:\n        /* \"MegaJackpot.sol\":2269:2272  100 */\n      0x64\n        /* \"MegaJackpot.sol\":2247:2264  _affiliatePercent */\n      dup6\n        /* \"MegaJackpot.sol\":2246:2272  (_affiliatePercent) <= 100 */\n      gt\n      iszero\n        /* \"MegaJackpot.sol\":2238:2300  require((_affiliatePercent) <= 100, \"affiliate percent < 10%\") */\n      tag_245\n      jumpi\n      mload(0x40)\n      0x08c379a000000000000000000000000000000000000000000000000000000000\n      dup2\n      mstore\n      0x04\n      add\n      tag_246\n      swap1\n      tag_247\n      jump\t// in\n    tag_246:\n      mload(0x40)\n      dup1\n      swap2\n      sub\n      swap1\n      revert\n    tag_245:\n        /* \"MegaJackpot.sol\":2337:2340  100 */\n      0x64\n        /* \"MegaJackpot.sol\":2319:2332  _ownerPercent */\n      dup5\n        /* \"MegaJackpot.sol\":2318:2340  (_ownerPercent) <= 100 */\n      gt\n      iszero\n        /* \"MegaJackpot.sol\":2310:2364  require((_ownerPercent) <= 100, \"owner percent < 10%\") */\n      tag_248\n      jumpi\n      mload(0x40)\n      0x08c379a000000000000000000000000000000000000000000000000000000000\n      dup2\n      mstore\n      0x04\n      add\n      tag_249\n      swap1\n      tag_250\n      jump\t// in\n    tag_249:\n      mload(0x40)\n      dup1\n      swap2\n      sub\n      swap1\n      revert\n    tag_248:\n        /* \"MegaJackpot.sol\":2399:2401  11 */\n      0x0b\n        /* \"MegaJackpot.sol\":2382:2388  values */\n      dup3\n        /* \"MegaJackpot.sol\":2382:2395  values.length */\n      mload\n        /* \"MegaJackpot.sol\":2382:2401  values.length == 11 */\n      eq\n        /* \"MegaJackpot.sol\":2382:2426  values.length == 11 && percents.length == 11 */\n      dup1\n      iszero\n      tag_251\n      jumpi\n      pop\n        /* \"MegaJackpot.sol\":2424:2426  11 */\n      0x0b\n        /* \"MegaJackpot.sol\":2405:2413  percents */\n      dup2\n        /* \"MegaJackpot.sol\":2405:2420  percents.length */\n      mload\n        /* \"MegaJackpot.sol\":2405:2426  percents.length == 11 */\n      eq\n        /* \"MegaJackpot.sol\":2382:2426  values.length == 11 && percents.length == 11 */\n    tag_251:\n        /* \"MegaJackpot.sol\":2374:2461  require(values.length == 11 && percents.length == 11, \"value and percent is not valid\") */\n      tag_252\n      jumpi\n      mload(0x40)\n      0x08c379a000000000000000000000000000000000000000000000000000000000\n      dup2\n      mstore\n      0x04\n      add\n      tag_253\n      swap1\n      tag_254\n      jump\t// in\n    tag_253:\n      mload(0x40)\n      dup1\n      swap2\n      sub\n      swap1\n      revert\n    tag_252:\n        /* \"MegaJackpot.sol\":2484:2485  1 */\n      0x01\n        /* \"MegaJackpot.sol\":2471:2480  indexGame */\n      0x04\n      0x00\n        /* \"MegaJackpot.sol\":2471:2485  indexGame += 1 */\n      dup3\n      dup3\n      sload\n      tag_255\n      swap2\n      swap1\n      tag_171\n      jump\t// in\n    tag_255:\n      swap3\n      pop\n      pop\n      dup2\n      swap1\n      sstore\n      pop\n        /* \"MegaJackpot.sol\":2523:2529  _price */\n      dup7\n        /* \"MegaJackpot.sol\":2495:2503  gameInfo */\n      0x07\n        /* \"MegaJackpot.sol\":2495:2514  gameInfo[indexGame] */\n      0x00\n        /* \"MegaJackpot.sol\":2504:2513  indexGame */\n      sload(0x04)\n        /* \"MegaJackpot.sol\":2495:2514  gameInfo[indexGame] */\n      dup2\n      mstore\n      0x20\n      add\n      swap1\n      dup2\n      mstore\n      0x20\n      add\n      0x00\n      keccak256\n        /* \"MegaJackpot.sol\":2495:2520  gameInfo[indexGame].price */\n      0x00\n      add\n        /* \"MegaJackpot.sol\":2495:2529  gameInfo[indexGame].price = _price */\n      dup2\n      swap1\n      sstore\n      pop\n        /* \"MegaJackpot.sol\":2572:2583  _startPrice */\n      dup6\n        /* \"MegaJackpot.sol\":2539:2547  gameInfo */\n      0x07\n        /* \"MegaJackpot.sol\":2539:2558  gameInfo[indexGame] */\n      0x00\n        /* \"MegaJackpot.sol\":2548:2557  indexGame */\n      sload(0x04)\n        /* \"MegaJackpot.sol\":2539:2558  gameInfo[indexGame] */\n      dup2\n      mstore\n      0x20\n      add\n      swap1\n      dup2\n      mstore\n      0x20\n      add\n      0x00\n      keccak256\n        /* \"MegaJackpot.sol\":2539:2569  gameInfo[indexGame].startPrize */\n      0x01\n      add\n        /* \"MegaJackpot.sol\":2539:2583  gameInfo[indexGame].startPrize = _startPrice */\n      dup2\n      swap1\n      sstore\n      pop\n        /* \"MegaJackpot.sol\":2621:2627  _title */\n      dup8\n        /* \"MegaJackpot.sol\":2593:2601  gameInfo */\n      0x07\n        /* \"MegaJackpot.sol\":2593:2612  gameInfo[indexGame] */\n      0x00\n        /* \"MegaJackpot.sol\":2602:2611  indexGame */\n      sload(0x04)\n        /* \"MegaJackpot.sol\":2593:2612  gameInfo[indexGame] */\n      dup2\n      mstore\n      0x20\n      add\n      swap1\n      dup2\n      mstore\n      0x20\n      add\n      0x00\n      keccak256\n        /* \"MegaJackpot.sol\":2593:2618  gameInfo[indexGame].title */\n      0x02\n      add\n        /* \"MegaJackpot.sol\":2593:2627  gameInfo[indexGame].title = _title */\n      swap1\n      dup2\n      tag_256\n      swap2\n      swap1\n      tag_257\n      jump\t// in\n    tag_256:\n      pop\n        /* \"MegaJackpot.sol\":2672:2685  _ownerPercent */\n      dup4\n        /* \"MegaJackpot.sol\":2637:2645  gameInfo */\n      0x07\n        /* \"MegaJackpot.sol\":2637:2656  gameInfo[indexGame] */\n      0x00\n        /* \"MegaJackpot.sol\":2646:2655  indexGame */\n      sload(0x04)\n        /* \"MegaJackpot.sol\":2637:2656  gameInfo[indexGame] */\n      dup2\n      mstore\n      0x20\n      add\n      swap1\n      dup2\n      mstore\n      0x20\n      add\n      0x00\n      keccak256\n        /* \"MegaJackpot.sol\":2637:2669  gameInfo[indexGame].ownerPercent */\n      0x03\n      add\n        /* \"MegaJackpot.sol\":2637:2685  gameInfo[indexGame].ownerPercent = _ownerPercent */\n      dup2\n      swap1\n      sstore\n      pop\n        /* \"MegaJackpot.sol\":2734:2751  _affiliatePercent */\n      dup5\n        /* \"MegaJackpot.sol\":2695:2703  gameInfo */\n      0x07\n        /* \"MegaJackpot.sol\":2695:2714  gameInfo[indexGame] */\n      0x00\n        /* \"MegaJackpot.sol\":2704:2713  indexGame */\n      sload(0x04)\n        /* \"MegaJackpot.sol\":2695:2714  gameInfo[indexGame] */\n      dup2\n      mstore\n      0x20\n      add\n      swap1\n      dup2\n      mstore\n      0x20\n      add\n      0x00\n      keccak256\n        /* \"MegaJackpot.sol\":2695:2731  gameInfo[indexGame].affiliatePercent */\n      0x04\n      add\n        /* \"MegaJackpot.sol\":2695:2751  gameInfo[indexGame].affiliatePercent = _affiliatePercent */\n      dup2\n      swap1\n      sstore\n      pop\n        /* \"MegaJackpot.sol\":2761:2786  uint256 totalPercentPrize */\n      0x00\n        /* \"MegaJackpot.sol\":2805:2818  uint256 index */\n      dup1\n        /* \"MegaJackpot.sol\":2800:3048  for (uint256 index = 0; index < 11; index++) {... */\n    tag_258:\n        /* \"MegaJackpot.sol\":2832:2834  11 */\n      0x0b\n        /* \"MegaJackpot.sol\":2824:2829  index */\n      dup2\n        /* \"MegaJackpot.sol\":2824:2834  index < 11 */\n      lt\n        /* \"MegaJackpot.sol\":2800:3048  for (uint256 index = 0; index < 11; index++) {... */\n      iszero\n      tag_259\n      jumpi\n        /* \"MegaJackpot.sol\":2891:2897  values */\n      dup4\n        /* \"MegaJackpot.sol\":2898:2903  index */\n      dup2\n        /* \"MegaJackpot.sol\":2891:2904  values[index] */\n      dup2\n      mload\n      dup2\n      lt\n      tag_261\n      jumpi\n      tag_262\n      tag_263\n      jump\t// in\n    tag_262:\n    tag_261:\n      0x20\n      mul\n      0x20\n      add\n      add\n      mload\n        /* \"MegaJackpot.sol\":2859:2864  prize */\n      0x08\n        /* \"MegaJackpot.sol\":2859:2875  prize[indexGame] */\n      0x00\n        /* \"MegaJackpot.sol\":2865:2874  indexGame */\n      sload(0x04)\n        /* \"MegaJackpot.sol\":2859:2875  prize[indexGame] */\n      dup2\n      mstore\n      0x20\n      add\n      swap1\n      dup2\n      mstore\n      0x20\n      add\n      0x00\n      keccak256\n        /* \"MegaJackpot.sol\":2859:2882  prize[indexGame][index] */\n      0x00\n        /* \"MegaJackpot.sol\":2876:2881  index */\n      dup4\n        /* \"MegaJackpot.sol\":2859:2882  prize[indexGame][index] */\n      dup2\n      mstore\n      0x20\n      add\n      swap1\n      dup2\n      mstore\n      0x20\n      add\n      0x00\n      keccak256\n        /* \"MegaJackpot.sol\":2859:2888  prize[indexGame][index].value */\n      0x00\n      add\n        /* \"MegaJackpot.sol\":2859:2904  prize[indexGame][index].value = values[index] */\n      dup2\n      swap1\n      sstore\n      pop\n        /* \"MegaJackpot.sol\":2972:2980  percents */\n      dup3\n        /* \"MegaJackpot.sol\":2981:2986  index */\n      dup2\n        /* \"MegaJackpot.sol\":2972:2987  percents[index] */\n      dup2\n      mload\n      dup2\n      lt\n      tag_264\n      jumpi\n      tag_265\n      tag_263\n      jump\t// in\n    tag_265:\n    tag_264:\n      0x20\n      mul\n      0x20\n      add\n      add\n      mload\n        /* \"MegaJackpot.sol\":2952:2969  totalPercentPrize */\n      dup3\n        /* \"MegaJackpot.sol\":2952:2987  totalPercentPrize + percents[index] */\n      tag_266\n      swap2\n      swap1\n      tag_171\n      jump\t// in\n    tag_266:\n        /* \"MegaJackpot.sol\":2918:2923  prize */\n      0x08\n        /* \"MegaJackpot.sol\":2918:2934  prize[indexGame] */\n      0x00\n        /* \"MegaJackpot.sol\":2924:2933  indexGame */\n      sload(0x04)\n        /* \"MegaJackpot.sol\":2918:2934  prize[indexGame] */\n      dup2\n      mstore\n      0x20\n      add\n      swap1\n      dup2\n      mstore\n      0x20\n      add\n      0x00\n      keccak256\n        /* \"MegaJackpot.sol\":2918:2941  prize[indexGame][index] */\n      0x00\n        /* \"MegaJackpot.sol\":2935:2940  index */\n      dup4\n        /* \"MegaJackpot.sol\":2918:2941  prize[indexGame][index] */\n      dup2\n      mstore\n      0x20\n      add\n      swap1\n      dup2\n      mstore\n      0x20\n      add\n      0x00\n      keccak256\n        /* \"MegaJackpot.sol\":2918:2949  prize[indexGame][index].percent */\n      0x01\n      add\n        /* \"MegaJackpot.sol\":2918:2987  prize[indexGame][index].percent = totalPercentPrize + percents[index] */\n      dup2\n      swap1\n      sstore\n      pop\n        /* \"MegaJackpot.sol\":3022:3030  percents */\n      dup3\n        /* \"MegaJackpot.sol\":3031:3036  index */\n      dup2\n        /* \"MegaJackpot.sol\":3022:3037  percents[index] */\n      dup2\n      mload\n      dup2\n      lt\n      tag_267\n      jumpi\n      tag_268\n      tag_263\n      jump\t// in\n    tag_268:\n    tag_267:\n      0x20\n      mul\n      0x20\n      add\n      add\n      mload\n        /* \"MegaJackpot.sol\":3001:3037  totalPercentPrize += percents[index] */\n      dup3\n      tag_269\n      swap2\n      swap1\n      tag_171\n      jump\t// in\n    tag_269:\n      swap2\n      pop\n        /* \"MegaJackpot.sol\":2836:2843  index++ */\n      dup1\n      dup1\n      tag_270\n      swap1\n      tag_185\n      jump\t// in\n    tag_270:\n      swap2\n      pop\n      pop\n        /* \"MegaJackpot.sol\":2800:3048  for (uint256 index = 0; index < 11; index++) {... */\n      jump(tag_258)\n    tag_259:\n      pop\n        /* \"MegaJackpot.sol\":3057:3077  uint256 currentPrice */\n      0x00\n        /* \"MegaJackpot.sol\":3080:3085  token */\n      0x03\n      0x00\n      swap1\n      sload\n      swap1\n      0x0100\n      exp\n      swap1\n      div\n      0xffffffffffffffffffffffffffffffffffffffff\n      and\n        /* \"MegaJackpot.sol\":3080:3095  token.balanceOf */\n      0xffffffffffffffffffffffffffffffffffffffff\n      and\n      0x70a08231\n        /* \"MegaJackpot.sol\":3104:3108  this */\n      address\n        /* \"MegaJackpot.sol\":3080:3110  token.balanceOf(address(this)) */\n      mload(0x40)\n      dup3\n      0xffffffff\n      and\n      0xe0\n      shl\n      dup2\n      mstore\n      0x04\n      add\n      tag_271\n      swap2\n      swap1\n      tag_43\n      jump\t// in\n    tag_271:\n      0x20\n      mload(0x40)\n      dup1\n      dup4\n      sub\n      dup2\n      dup7\n      gas\n      staticcall\n      iszero\n      dup1\n      iszero\n      tag_273\n      jumpi\n      returndatasize\n      0x00\n      dup1\n      returndatacopy\n      revert(0x00, returndatasize)\n    tag_273:\n      pop\n      pop\n      pop\n      pop\n      mload(0x40)\n      returndatasize\n      not(0x1f)\n      0x1f\n      dup3\n      add\n      and\n      dup3\n      add\n      dup1\n      0x40\n      mstore\n      pop\n      dup2\n      add\n      swap1\n      tag_274\n      swap2\n      swap1\n      tag_121\n      jump\t// in\n    tag_274:\n        /* \"MegaJackpot.sol\":3057:3110  uint256 currentPrice = token.balanceOf(address(this)) */\n      swap1\n      pop\n        /* \"MegaJackpot.sol\":3167:3178  _startPrice */\n      dup8\n        /* \"MegaJackpot.sol\":3128:3133  token */\n      0x03\n      0x00\n      swap1\n      sload\n      swap1\n      0x0100\n      exp\n      swap1\n      div\n      0xffffffffffffffffffffffffffffffffffffffff\n      and\n        /* \"MegaJackpot.sol\":3128:3143  token.balanceOf */\n      0xffffffffffffffffffffffffffffffffffffffff\n      and\n      0x70a08231\n        /* \"MegaJackpot.sol\":3144:3162  projectOwnerWallet */\n      0x06\n      0x00\n      swap1\n      sload\n      swap1\n      0x0100\n      exp\n      swap1\n      div\n      0xffffffffffffffffffffffffffffffffffffffff\n      and\n        /* \"MegaJackpot.sol\":3128:3163  token.balanceOf(projectOwnerWallet) */\n      mload(0x40)\n      dup3\n      0xffffffff\n      and\n      0xe0\n      shl\n      dup2\n      mstore\n      0x04\n      add\n      tag_275\n      swap2\n      swap1\n      tag_43\n      jump\t// in\n    tag_275:\n      0x20\n      mload(0x40)\n      dup1\n      dup4\n      sub\n      dup2\n      dup7\n      gas\n      staticcall\n      iszero\n      dup1\n      iszero\n      tag_277\n      jumpi\n      returndatasize\n      0x00\n      dup1\n      returndatacopy\n      revert(0x00, returndatasize)\n    tag_277:\n      pop\n      pop\n      pop\n      pop\n      mload(0x40)\n      returndatasize\n      not(0x1f)\n      0x1f\n      dup3\n      add\n      and\n      dup3\n      add\n      dup1\n      0x40\n      mstore\n      pop\n      dup2\n      add\n      swap1\n      tag_278\n      swap2\n      swap1\n      tag_121\n      jump\t// in\n    tag_278:\n        /* \"MegaJackpot.sol\":3128:3178  token.balanceOf(projectOwnerWallet) >= _startPrice */\n      lt\n      iszero\n        /* \"MegaJackpot.sol\":3120:3216  require(token.balanceOf(projectOwnerWallet) >= _startPrice, \"Insufficient funds in the account\") */\n      tag_279\n      jumpi\n      mload(0x40)\n      0x08c379a000000000000000000000000000000000000000000000000000000000\n      dup2\n      mstore\n      0x04\n      add\n      tag_280\n      swap1\n      tag_128\n      jump\t// in\n    tag_280:\n      mload(0x40)\n      dup1\n      swap2\n      sub\n      swap1\n      revert\n    tag_279:\n        /* \"MegaJackpot.sol\":3226:3231  token */\n      0x03\n      0x00\n      swap1\n      sload\n      swap1\n      0x0100\n      exp\n      swap1\n      div\n      0xffffffffffffffffffffffffffffffffffffffff\n      and\n        /* \"MegaJackpot.sol\":3226:3244  token.transferFrom */\n      0xffffffffffffffffffffffffffffffffffffffff\n      and\n      0x23b872dd\n        /* \"MegaJackpot.sol\":3245:3263  projectOwnerWallet */\n      0x06\n      0x00\n      swap1\n      sload\n      swap1\n      0x0100\n      exp\n      swap1\n      div\n      0xffffffffffffffffffffffffffffffffffffffff\n      and\n        /* \"MegaJackpot.sol\":3273:3277  this */\n      address\n        /* \"MegaJackpot.sol\":3280:3291  _startPrice */\n      dup12\n        /* \"MegaJackpot.sol\":3226:3292  token.transferFrom(projectOwnerWallet, address(this), _startPrice) */\n      mload(0x40)\n      dup5\n      0xffffffff\n      and\n      0xe0\n      shl\n      dup2\n      mstore\n      0x04\n      add\n      tag_281\n      swap4\n      swap3\n      swap2\n      swap1\n      tag_130\n      jump\t// in\n    tag_281:\n      0x20\n      mload(0x40)\n      dup1\n      dup4\n      sub\n      dup2\n      0x00\n      dup8\n      gas\n      call\n      iszero\n      dup1\n      iszero\n      tag_283\n      jumpi\n      returndatasize\n      0x00\n      dup1\n      returndatacopy\n      revert(0x00, returndatasize)\n    tag_283:\n      pop\n      pop\n      pop\n      pop\n      mload(0x40)\n      returndatasize\n      not(0x1f)\n      0x1f\n      dup3\n      add\n      and\n      dup3\n      add\n      dup1\n      0x40\n      mstore\n      pop\n      dup2\n      add\n      swap1\n      tag_284\n      swap2\n      swap1\n      tag_134\n      jump\t// in\n    tag_284:\n      pop\n        /* \"MegaJackpot.sol\":3302:3318  uint256 newPrice */\n      0x00\n        /* \"MegaJackpot.sol\":3321:3326  token */\n      0x03\n      0x00\n      swap1\n      sload\n      swap1\n      0x0100\n      exp\n      swap1\n      div\n      0xffffffffffffffffffffffffffffffffffffffff\n      and\n        /* \"MegaJackpot.sol\":3321:3336  token.balanceOf */\n      0xffffffffffffffffffffffffffffffffffffffff\n      and\n      0x70a08231\n        /* \"MegaJackpot.sol\":3345:3349  this */\n      address\n        /* \"MegaJackpot.sol\":3321:3351  token.balanceOf(address(this)) */\n      mload(0x40)\n      dup3\n      0xffffffff\n      and\n      0xe0\n      shl\n      dup2\n      mstore\n      0x04\n      add\n      tag_285\n      swap2\n      swap1\n      tag_43\n      jump\t// in\n    tag_285:\n      0x20\n      mload(0x40)\n      dup1\n      dup4\n      sub\n      dup2\n      dup7\n      gas\n      staticcall\n      iszero\n      dup1\n      iszero\n      tag_287\n      jumpi\n      returndatasize\n      0x00\n      dup1\n      returndatacopy\n      revert(0x00, returndatasize)\n    tag_287:\n      pop\n      pop\n      pop\n      pop\n      mload(0x40)\n      returndatasize\n      not(0x1f)\n      0x1f\n      dup3\n      add\n      and\n      dup3\n      add\n      dup1\n      0x40\n      mstore\n      pop\n      dup2\n      add\n      swap1\n      tag_288\n      swap2\n      swap1\n      tag_121\n      jump\t// in\n    tag_288:\n        /* \"MegaJackpot.sol\":3302:3351  uint256 newPrice = token.balanceOf(address(this)) */\n      swap1\n      pop\n        /* \"MegaJackpot.sol\":3382:3396  jackpotPercent */\n      dup6\n        /* \"MegaJackpot.sol\":3361:3396  totalPercentPrize += jackpotPercent */\n      dup4\n      tag_289\n      swap2\n      swap1\n      tag_171\n      jump\t// in\n    tag_289:\n      swap3\n      pop\n        /* \"MegaJackpot.sol\":539:551  1000_000_000 */\n      0x3b9aca00\n        /* \"MegaJackpot.sol\":3414:3431  totalPercentPrize */\n      dup4\n        /* \"MegaJackpot.sol\":3414:3457  totalPercentPrize ==  SPIN_PERCENTS_DIVIDER */\n      eq\n        /* \"MegaJackpot.sol\":3406:3494  require(totalPercentPrize ==  SPIN_PERCENTS_DIVIDER, \"total percent prize is not valid\") */\n      tag_290\n      jumpi\n      mload(0x40)\n      0x08c379a000000000000000000000000000000000000000000000000000000000\n      dup2\n      mstore\n      0x04\n      add\n      tag_291\n      swap1\n      tag_292\n      jump\t// in\n    tag_291:\n      mload(0x40)\n      dup1\n      swap2\n      sub\n      swap1\n      revert\n    tag_290:\n        /* \"MegaJackpot.sol\":3535:3549  jackpotPercent */\n      dup6\n        /* \"MegaJackpot.sol\":3504:3509  prize */\n      0x08\n        /* \"MegaJackpot.sol\":3504:3520  prize[indexGame] */\n      0x00\n        /* \"MegaJackpot.sol\":3510:3519  indexGame */\n      sload(0x04)\n        /* \"MegaJackpot.sol\":3504:3520  prize[indexGame] */\n      dup2\n      mstore\n      0x20\n      add\n      swap1\n      dup2\n      mstore\n      0x20\n      add\n      0x00\n      keccak256\n        /* \"MegaJackpot.sol\":3504:3524  prize[indexGame][11] */\n      0x00\n        /* \"MegaJackpot.sol\":3521:3523  11 */\n      0x0b\n        /* \"MegaJackpot.sol\":3504:3524  prize[indexGame][11] */\n      dup2\n      mstore\n      0x20\n      add\n      swap1\n      dup2\n      mstore\n      0x20\n      add\n      0x00\n      keccak256\n        /* \"MegaJackpot.sol\":3504:3532  prize[indexGame][11].percent */\n      0x01\n      add\n        /* \"MegaJackpot.sol\":3504:3549  prize[indexGame][11].percent = jackpotPercent */\n      dup2\n      swap1\n      sstore\n      pop\n        /* \"MegaJackpot.sol\":3599:3611  currentPrice */\n      dup2\n        /* \"MegaJackpot.sol\":3588:3596  newPrice */\n      dup2\n        /* \"MegaJackpot.sol\":3588:3611  newPrice - currentPrice */\n      tag_293\n      swap2\n      swap1\n      tag_140\n      jump\t// in\n    tag_293:\n        /* \"MegaJackpot.sol\":3559:3564  prize */\n      0x08\n        /* \"MegaJackpot.sol\":3559:3575  prize[indexGame] */\n      0x00\n        /* \"MegaJackpot.sol\":3565:3574  indexGame */\n      sload(0x04)\n        /* \"MegaJackpot.sol\":3559:3575  prize[indexGame] */\n      dup2\n      mstore\n      0x20\n      add\n      swap1\n      dup2\n      mstore\n      0x20\n      add\n      0x00\n      keccak256\n        /* \"MegaJackpot.sol\":3559:3579  prize[indexGame][11] */\n      0x00\n        /* \"MegaJackpot.sol\":3576:3578  11 */\n      0x0b\n        /* \"MegaJackpot.sol\":3559:3579  prize[indexGame][11] */\n      dup2\n      mstore\n      0x20\n      add\n      swap1\n      dup2\n      mstore\n      0x20\n      add\n      0x00\n      keccak256\n        /* \"MegaJackpot.sol\":3559:3585  prize[indexGame][11].value */\n      0x00\n      add\n        /* \"MegaJackpot.sol\":3559:3611  prize[indexGame][11].value = newPrice - currentPrice */\n      dup2\n      swap1\n      sstore\n      pop\n        /* \"MegaJackpot.sol\":3626:3893  CreateGame(... */\n      0xda5f1c502bf1ebb6b912cfab45836dc0db0102b387e4acb76c3204ee59d28a0f\n        /* \"MegaJackpot.sol\":3650:3656  _title */\n      dup12\n        /* \"MegaJackpot.sol\":3670:3676  _price */\n      dup12\n        /* \"MegaJackpot.sol\":3690:3701  _startPrice */\n      dup12\n        /* \"MegaJackpot.sol\":3715:3732  _affiliatePercent */\n      dup12\n        /* \"MegaJackpot.sol\":3746:3759  _ownerPercent */\n      dup12\n        /* \"MegaJackpot.sol\":3773:3787  jackpotPercent */\n      dup12\n        /* \"MegaJackpot.sol\":3801:3807  values */\n      dup12\n        /* \"MegaJackpot.sol\":3821:3829  percents */\n      dup12\n        /* \"MegaJackpot.sol\":3843:3852  indexGame */\n      sload(0x04)\n        /* \"MegaJackpot.sol\":3626:3893  CreateGame(... */\n      mload(0x40)\n      tag_294\n      swap10\n      swap9\n      swap8\n      swap7\n      swap6\n      swap5\n      swap4\n      swap3\n      swap2\n      swap1\n      tag_295\n      jump\t// in\n    tag_294:\n      mload(0x40)\n      dup1\n      swap2\n      sub\n      swap1\n      log1\n        /* \"MegaJackpot.sol\":2045:3900  {... */\n      pop\n      pop\n      pop\n        /* \"MegaJackpot.sol\":1763:3900  function createGame(... */\n      pop\n      pop\n      pop\n      pop\n      pop\n      pop\n      pop\n      pop\n      jump\t// out\n        /* \"MegaJackpot.sol\":1576:1757  function setProjectOwnerWallet(address _owner) public override {... */\n    tag_79:\n        /* \"MegaJackpot.sol\":1687:1688  0 */\n      0x00\n        /* \"MegaJackpot.sol\":1657:1689  projectOwnerWallet == address(0) */\n      0xffffffffffffffffffffffffffffffffffffffff\n      and\n        /* \"MegaJackpot.sol\":1657:1675  projectOwnerWallet */\n      0x06\n      0x00\n      swap1\n      sload\n      swap1\n      0x0100\n      exp\n      swap1\n      div\n      0xffffffffffffffffffffffffffffffffffffffff\n      and\n        /* \"MegaJackpot.sol\":1657:1689  projectOwnerWallet == address(0) */\n      0xffffffffffffffffffffffffffffffffffffffff\n      and\n      eq\n        /* \"MegaJackpot.sol\":1649:1713  require(projectOwnerWallet == address(0), \"not set ownerWallet\") */\n      tag_297\n      jumpi\n      mload(0x40)\n      0x08c379a000000000000000000000000000000000000000000000000000000000\n      dup2\n      mstore\n      0x04\n      add\n      tag_298\n      swap1\n      tag_299\n      jump\t// in\n    tag_298:\n      mload(0x40)\n      dup1\n      swap2\n      sub\n      swap1\n      revert\n    tag_297:\n        /* \"MegaJackpot.sol\":1744:1750  _owner */\n      dup1\n        /* \"MegaJackpot.sol\":1723:1741  projectOwnerWallet */\n      0x06\n      0x00\n        /* \"MegaJackpot.sol\":1723:1750  projectOwnerWallet = _owner */\n      0x0100\n      exp\n      dup2\n      sload\n      dup2\n      0xffffffffffffffffffffffffffffffffffffffff\n      mul\n      not\n      and\n      swap1\n      dup4\n      0xffffffffffffffffffffffffffffffffffffffff\n      and\n      mul\n      or\n      swap1\n      sstore\n      pop\n        /* \"MegaJackpot.sol\":1576:1757  function setProjectOwnerWallet(address _owner) public override {... */\n      pop\n      jump\t// out\n        /* \"MegaJackpot.sol\":616:640  uint256 public nonce = 0 */\n    tag_81:\n      sload(0x05)\n      dup2\n      jump\t// out\n        /* \"MegaJackpot.sol\":582:610  uint256 public indexGame = 0 */\n    tag_84:\n      sload(0x04)\n      dup2\n      jump\t// out\n        /* \"Ownable.sol\":1839:2028  function transferOwnership(address newOwner) public virtual onlyOwner {... */\n    tag_88:\n        /* \"Ownable.sol\":1189:1201  _msgSender() */\n      tag_301\n        /* \"Ownable.sol\":1189:1199  _msgSender */\n      tag_221\n        /* \"Ownable.sol\":1189:1201  _msgSender() */\n      jump\t// in\n    tag_301:\n        /* \"Ownable.sol\":1178:1201  owner() == _msgSender() */\n      0xffffffffffffffffffffffffffffffffffffffff\n      and\n        /* \"Ownable.sol\":1178:1185  owner() */\n      tag_302\n        /* \"Ownable.sol\":1178:1183  owner */\n      tag_60\n        /* \"Ownable.sol\":1178:1185  owner() */\n      jump\t// in\n    tag_302:\n        /* \"Ownable.sol\":1178:1201  owner() == _msgSender() */\n      0xffffffffffffffffffffffffffffffffffffffff\n      and\n      eq\n        /* \"Ownable.sol\":1170:1238  require(owner() == _msgSender(), \"Ownable: caller is not the owner\") */\n      tag_303\n      jumpi\n      mload(0x40)\n      0x08c379a000000000000000000000000000000000000000000000000000000000\n      dup2\n      mstore\n      0x04\n      add\n      tag_304\n      swap1\n      tag_225\n      jump\t// in\n    tag_304:\n      mload(0x40)\n      dup1\n      swap2\n      sub\n      swap1\n      revert\n    tag_303:\n        /* \"Ownable.sol\":1947:1948  0 */\n      0x00\n        /* \"Ownable.sol\":1927:1949  newOwner != address(0) */\n      0xffffffffffffffffffffffffffffffffffffffff\n      and\n        /* \"Ownable.sol\":1927:1935  newOwner */\n      dup2\n        /* \"Ownable.sol\":1927:1949  newOwner != address(0) */\n      0xffffffffffffffffffffffffffffffffffffffff\n      and\n      sub\n        /* \"Ownable.sol\":1919:1992  require(newOwner != address(0), \"Ownable: new owner is the zero address\") */\n      tag_306\n      jumpi\n      mload(0x40)\n      0x08c379a000000000000000000000000000000000000000000000000000000000\n      dup2\n      mstore\n      0x04\n      add\n      tag_307\n      swap1\n      tag_308\n      jump\t// in\n    tag_307:\n      mload(0x40)\n      dup1\n      swap2\n      sub\n      swap1\n      revert\n    tag_306:\n        /* \"Ownable.sol\":2002:2021  _setOwner(newOwner) */\n      tag_309\n        /* \"Ownable.sol\":2012:2020  newOwner */\n      dup2\n        /* \"Ownable.sol\":2002:2011  _setOwner */\n      tag_228\n        /* \"Ownable.sol\":2002:2021  _setOwner(newOwner) */\n      jump\t// in\n    tag_309:\n        /* \"Ownable.sol\":1839:2028  function transferOwnership(address newOwner) public virtual onlyOwner {... */\n      pop\n      jump\t// out\n        /* \"MegaJackpot.sol\":557:576  IERC20 public token */\n    tag_90:\n      0x03\n      0x00\n      swap1\n      sload\n      swap1\n      0x0100\n      exp\n      swap1\n      div\n      0xffffffffffffffffffffffffffffffffffffffff\n      and\n      dup2\n      jump\t// out\n        /* \"MegaJackpot.sol\":7022:7632  function spin(uint256 number, uint256 _tokenId, uint256 idGame) internal returns (uint256 reward, bool jackpot) {... */\n    tag_176:\n        /* \"MegaJackpot.sol\":7104:7118  uint256 reward */\n      0x00\n        /* \"MegaJackpot.sol\":7120:7132  bool jackpot */\n      dup1\n        /* \"MegaJackpot.sol\":7144:7157  uint256 rSpin */\n      0x00\n        /* \"MegaJackpot.sol\":7160:7185  random(block.number % 12) */\n      tag_311\n        /* \"MegaJackpot.sol\":7182:7184  12 */\n      0x0c\n        /* \"MegaJackpot.sol\":7167:7179  block.number */\n      number\n        /* \"MegaJackpot.sol\":7167:7184  block.number % 12 */\n      tag_312\n      swap2\n      swap1\n      tag_313\n      jump\t// in\n    tag_312:\n        /* \"MegaJackpot.sol\":7160:7166  random */\n      tag_314\n        /* \"MegaJackpot.sol\":7160:7185  random(block.number % 12) */\n      jump\t// in\n    tag_311:\n        /* \"MegaJackpot.sol\":7144:7185  uint256 rSpin = random(block.number % 12) */\n      swap1\n      pop\n        /* \"MegaJackpot.sol\":7205:7210  false */\n      0x00\n        /* \"MegaJackpot.sol\":7195:7210  jackpot = false */\n      swap2\n      pop\n        /* \"MegaJackpot.sol\":7225:7234  uint256 n */\n      0x00\n        /* \"MegaJackpot.sol\":7220:7592  for (uint256 n = 0; n < 12; n++) {... */\n    tag_315:\n        /* \"MegaJackpot.sol\":7244:7246  12 */\n      0x0c\n        /* \"MegaJackpot.sol\":7240:7241  n */\n      dup2\n        /* \"MegaJackpot.sol\":7240:7246  n < 12 */\n      lt\n        /* \"MegaJackpot.sol\":7220:7592  for (uint256 n = 0; n < 12; n++) {... */\n      iszero\n      tag_316\n      jumpi\n        /* \"MegaJackpot.sol\":7298:7299  0 */\n      0x00\n        /* \"MegaJackpot.sol\":7271:7276  prize */\n      0x08\n        /* \"MegaJackpot.sol\":7271:7284  prize[idGame] */\n      0x00\n        /* \"MegaJackpot.sol\":7277:7283  idGame */\n      dup8\n        /* \"MegaJackpot.sol\":7271:7284  prize[idGame] */\n      dup2\n      mstore\n      0x20\n      add\n      swap1\n      dup2\n      mstore\n      0x20\n      add\n      0x00\n      keccak256\n        /* \"MegaJackpot.sol\":7271:7287  prize[idGame][n] */\n      0x00\n        /* \"MegaJackpot.sol\":7285:7286  n */\n      dup4\n        /* \"MegaJackpot.sol\":7271:7287  prize[idGame][n] */\n      dup2\n      mstore\n      0x20\n      add\n      swap1\n      dup2\n      mstore\n      0x20\n      add\n      0x00\n      keccak256\n        /* \"MegaJackpot.sol\":7271:7295  prize[idGame][n].percent */\n      0x01\n      add\n      sload\n        /* \"MegaJackpot.sol\":7271:7299  prize[idGame][n].percent > 0 */\n      gt\n        /* \"MegaJackpot.sol\":7271:7336  prize[idGame][n].percent > 0 && rSpin <= prize[idGame][n].percent */\n      dup1\n      iszero\n      tag_318\n      jumpi\n      pop\n        /* \"MegaJackpot.sol\":7312:7317  prize */\n      0x08\n        /* \"MegaJackpot.sol\":7312:7325  prize[idGame] */\n      0x00\n        /* \"MegaJackpot.sol\":7318:7324  idGame */\n      dup7\n        /* \"MegaJackpot.sol\":7312:7325  prize[idGame] */\n      dup2\n      mstore\n      0x20\n      add\n      swap1\n      dup2\n      mstore\n      0x20\n      add\n      0x00\n      keccak256\n        /* \"MegaJackpot.sol\":7312:7328  prize[idGame][n] */\n      0x00\n        /* \"MegaJackpot.sol\":7326:7327  n */\n      dup3\n        /* \"MegaJackpot.sol\":7312:7328  prize[idGame][n] */\n      dup2\n      mstore\n      0x20\n      add\n      swap1\n      dup2\n      mstore\n      0x20\n      add\n      0x00\n      keccak256\n        /* \"MegaJackpot.sol\":7312:7336  prize[idGame][n].percent */\n      0x01\n      add\n      sload\n        /* \"MegaJackpot.sol\":7303:7308  rSpin */\n      dup3\n        /* \"MegaJackpot.sol\":7303:7336  rSpin <= prize[idGame][n].percent */\n      gt\n      iszero\n        /* \"MegaJackpot.sol\":7271:7336  prize[idGame][n].percent > 0 && rSpin <= prize[idGame][n].percent */\n    tag_318:\n        /* \"MegaJackpot.sol\":7267:7582  if (prize[idGame][n].percent > 0 && rSpin <= prize[idGame][n].percent) {... */\n      iszero\n      tag_319\n      jumpi\n        /* \"MegaJackpot.sol\":7388:7393  prize */\n      0x08\n        /* \"MegaJackpot.sol\":7388:7401  prize[idGame] */\n      0x00\n        /* \"MegaJackpot.sol\":7394:7400  idGame */\n      dup7\n        /* \"MegaJackpot.sol\":7388:7401  prize[idGame] */\n      dup2\n      mstore\n      0x20\n      add\n      swap1\n      dup2\n      mstore\n      0x20\n      add\n      0x00\n      keccak256\n        /* \"MegaJackpot.sol\":7388:7404  prize[idGame][n] */\n      0x00\n        /* \"MegaJackpot.sol\":7402:7403  n */\n      dup3\n        /* \"MegaJackpot.sol\":7388:7404  prize[idGame][n] */\n      dup2\n      mstore\n      0x20\n      add\n      swap1\n      dup2\n      mstore\n      0x20\n      add\n      0x00\n      keccak256\n        /* \"MegaJackpot.sol\":7388:7410  prize[idGame][n].value */\n      0x00\n      add\n      sload\n        /* \"MegaJackpot.sol\":7356:7367  orderDetail */\n      0x0a\n        /* \"MegaJackpot.sol\":7356:7377  orderDetail[_tokenId] */\n      0x00\n        /* \"MegaJackpot.sol\":7368:7376  _tokenId */\n      dup9\n        /* \"MegaJackpot.sol\":7356:7377  orderDetail[_tokenId] */\n      dup2\n      mstore\n      0x20\n      add\n      swap1\n      dup2\n      mstore\n      0x20\n      add\n      0x00\n      keccak256\n        /* \"MegaJackpot.sol\":7356:7385  orderDetail[_tokenId][number] */\n      0x00\n        /* \"MegaJackpot.sol\":7378:7384  number */\n      dup10\n        /* \"MegaJackpot.sol\":7356:7385  orderDetail[_tokenId][number] */\n      dup2\n      mstore\n      0x20\n      add\n      swap1\n      dup2\n      mstore\n      0x20\n      add\n      0x00\n      keccak256\n        /* \"MegaJackpot.sol\":7356:7410  orderDetail[_tokenId][number] = prize[idGame][n].value */\n      dup2\n      swap1\n      sstore\n      pop\n        /* \"MegaJackpot.sol\":7437:7442  prize */\n      0x08\n        /* \"MegaJackpot.sol\":7437:7450  prize[idGame] */\n      0x00\n        /* \"MegaJackpot.sol\":7443:7449  idGame */\n      dup7\n        /* \"MegaJackpot.sol\":7437:7450  prize[idGame] */\n      dup2\n      mstore\n      0x20\n      add\n      swap1\n      dup2\n      mstore\n      0x20\n      add\n      0x00\n      keccak256\n        /* \"MegaJackpot.sol\":7437:7453  prize[idGame][n] */\n      0x00\n        /* \"MegaJackpot.sol\":7451:7452  n */\n      dup3\n        /* \"MegaJackpot.sol\":7437:7453  prize[idGame][n] */\n      dup2\n      mstore\n      0x20\n      add\n      swap1\n      dup2\n      mstore\n      0x20\n      add\n      0x00\n      keccak256\n        /* \"MegaJackpot.sol\":7437:7459  prize[idGame][n].value */\n      0x00\n      add\n      sload\n        /* \"MegaJackpot.sol\":7428:7459  reward = prize[idGame][n].value */\n      swap4\n      pop\n        /* \"MegaJackpot.sol\":7486:7488  11 */\n      0x0b\n        /* \"MegaJackpot.sol\":7481:7482  n */\n      dup2\n        /* \"MegaJackpot.sol\":7481:7488  n == 11 */\n      sub\n        /* \"MegaJackpot.sol\":7477:7545  if (n == 11) {... */\n      tag_320\n      jumpi\n        /* \"MegaJackpot.sol\":7522:7526  true */\n      0x01\n        /* \"MegaJackpot.sol\":7512:7526  jackpot = true */\n      swap3\n      pop\n        /* \"MegaJackpot.sol\":7477:7545  if (n == 11) {... */\n    tag_320:\n        /* \"MegaJackpot.sol\":7562:7567  break */\n      jump(tag_316)\n        /* \"MegaJackpot.sol\":7267:7582  if (prize[idGame][n].percent > 0 && rSpin <= prize[idGame][n].percent) {... */\n    tag_319:\n        /* \"MegaJackpot.sol\":7248:7251  n++ */\n      dup1\n      dup1\n      tag_321\n      swap1\n      tag_185\n      jump\t// in\n    tag_321:\n      swap2\n      pop\n      pop\n        /* \"MegaJackpot.sol\":7220:7592  for (uint256 n = 0; n < 12; n++) {... */\n      jump(tag_315)\n    tag_316:\n      pop\n        /* \"MegaJackpot.sol\":7601:7625  return (reward, jackpot) */\n      pop\n        /* \"MegaJackpot.sol\":7022:7632  function spin(uint256 number, uint256 _tokenId, uint256 idGame) internal returns (uint256 reward, bool jackpot) {... */\n      swap4\n      pop\n      swap4\n      swap2\n      pop\n      pop\n      jump\t// out\n        /* \"Context.sol\":587:683  function _msgSender() internal view virtual returns (address) {... */\n    tag_221:\n        /* \"Context.sol\":640:647  address */\n      0x00\n        /* \"Context.sol\":666:676  msg.sender */\n      caller\n        /* \"Context.sol\":659:676  return msg.sender */\n      swap1\n      pop\n        /* \"Context.sol\":587:683  function _msgSender() internal view virtual returns (address) {... */\n      swap1\n      jump\t// out\n        /* \"Ownable.sol\":2034:2203  function _setOwner(address newOwner) private {... */\n    tag_228:\n        /* \"Ownable.sol\":2089:2105  address oldOwner */\n      0x00\n        /* \"Ownable.sol\":2108:2114  _owner */\n      0x01\n      0x00\n      swap1\n      sload\n      swap1\n      0x0100\n      exp\n      swap1\n      div\n      0xffffffffffffffffffffffffffffffffffffffff\n      and\n        /* \"Ownable.sol\":2089:2114  address oldOwner = _owner */\n      swap1\n      pop\n        /* \"Ownable.sol\":2133:2141  newOwner */\n      dup2\n        /* \"Ownable.sol\":2124:2130  _owner */\n      0x01\n      0x00\n        /* \"Ownable.sol\":2124:2141  _owner = newOwner */\n      0x0100\n      exp\n      dup2\n      sload\n      dup2\n      0xffffffffffffffffffffffffffffffffffffffff\n      mul\n      not\n      and\n      swap1\n      dup4\n      0xffffffffffffffffffffffffffffffffffffffff\n      and\n      mul\n      or\n      swap1\n      sstore\n      pop\n        /* \"Ownable.sol\":2187:2195  newOwner */\n      dup2\n        /* \"Ownable.sol\":2156:2196  OwnershipTransferred(oldOwner, newOwner) */\n      0xffffffffffffffffffffffffffffffffffffffff\n      and\n        /* \"Ownable.sol\":2177:2185  oldOwner */\n      dup2\n        /* \"Ownable.sol\":2156:2196  OwnershipTransferred(oldOwner, newOwner) */\n      0xffffffffffffffffffffffffffffffffffffffff\n      and\n      0x8be0079c531659141344cd1fd0a4f28419497f9722a3daafe3b4186f6b6457e0\n      mload(0x40)\n      mload(0x40)\n      dup1\n      swap2\n      sub\n      swap1\n      log3\n        /* \"Ownable.sol\":2079:2203  {... */\n      pop\n        /* \"Ownable.sol\":2034:2203  function _setOwner(address newOwner) private {... */\n      pop\n      jump\t// out\n        /* \"MegaJackpot.sol\":7638:8026  function random(uint256 number) internal returns (uint percent){... */\n    tag_314:\n        /* \"MegaJackpot.sol\":7688:7700  uint percent */\n      0x00\n        /* \"MegaJackpot.sol\":7720:7721  1 */\n      0x01\n        /* \"MegaJackpot.sol\":7711:7716  nonce */\n      0x05\n      0x00\n        /* \"MegaJackpot.sol\":7711:7721  nonce += 1 */\n      dup3\n      dup3\n      sload\n      tag_325\n      swap2\n      swap1\n      tag_171\n      jump\t// in\n    tag_325:\n      swap3\n      pop\n      pop\n      dup2\n      swap1\n      sstore\n      pop\n        /* \"MegaJackpot.sol\":539:551  1000_000_000 */\n      0x3b9aca00\n        /* \"MegaJackpot.sol\":7787:7792  nonce */\n      sload(0x05)\n        /* \"MegaJackpot.sol\":7810:7842  block.number.add(nonce + number) */\n      tag_326\n        /* \"MegaJackpot.sol\":7835:7841  number */\n      dup5\n        /* \"MegaJackpot.sol\":7827:7832  nonce */\n      sload(0x05)\n        /* \"MegaJackpot.sol\":7827:7841  nonce + number */\n      tag_327\n      swap2\n      swap1\n      tag_171\n      jump\t// in\n    tag_327:\n        /* \"MegaJackpot.sol\":7810:7822  block.number */\n      number\n        /* \"MegaJackpot.sol\":7810:7826  block.number.add */\n      tag_328\n      swap1\n        /* \"MegaJackpot.sol\":7810:7842  block.number.add(nonce + number) */\n      swap2\n      swap1\n      0xffffffff\n      and\n      jump\t// in\n    tag_326:\n        /* \"MegaJackpot.sol\":7860:7895  block.timestamp.add(nonce + number) */\n      tag_329\n        /* \"MegaJackpot.sol\":7888:7894  number */\n      dup6\n        /* \"MegaJackpot.sol\":7880:7885  nonce */\n      sload(0x05)\n        /* \"MegaJackpot.sol\":7880:7894  nonce + number */\n      tag_330\n      swap2\n      swap1\n      tag_171\n      jump\t// in\n    tag_330:\n        /* \"MegaJackpot.sol\":7860:7875  block.timestamp */\n      timestamp\n        /* \"MegaJackpot.sol\":7860:7879  block.timestamp.add */\n      tag_328\n      swap1\n        /* \"MegaJackpot.sol\":7860:7895  block.timestamp.add(nonce + number) */\n      swap2\n      swap1\n      0xffffffff\n      and\n      jump\t// in\n    tag_329:\n        /* \"MegaJackpot.sol\":7913:7949  block.prevrandao.add(nonce + number) */\n      tag_331\n        /* \"MegaJackpot.sol\":7942:7948  number */\n      dup7\n        /* \"MegaJackpot.sol\":7934:7939  nonce */\n      sload(0x05)\n        /* \"MegaJackpot.sol\":7934:7948  nonce + number */\n      tag_332\n      swap2\n      swap1\n      tag_171\n      jump\t// in\n    tag_332:\n        /* \"MegaJackpot.sol\":7913:7929  block.prevrandao */\n      prevrandao\n        /* \"MegaJackpot.sol\":7913:7933  block.prevrandao.add */\n      tag_328\n      swap1\n        /* \"MegaJackpot.sol\":7913:7949  block.prevrandao.add(nonce + number) */\n      swap2\n      swap1\n      0xffffffff\n      and\n      jump\t// in\n    tag_331:\n        /* \"MegaJackpot.sol\":7967:7979  _msgSender() */\n      tag_333\n        /* \"MegaJackpot.sol\":7967:7977  _msgSender */\n      tag_221\n        /* \"MegaJackpot.sol\":7967:7979  _msgSender() */\n      jump\t// in\n    tag_333:\n        /* \"MegaJackpot.sol\":7753:7993  abi.encodePacked(... */\n      add(0x20, mload(0x40))\n      tag_334\n      swap6\n      swap5\n      swap4\n      swap3\n      swap2\n      swap1\n      tag_335\n      jump\t// in\n    tag_334:\n      mload(0x40)\n      0x20\n      dup2\n      dup4\n      sub\n      sub\n      dup2\n      mstore\n      swap1\n      0x40\n      mstore\n        /* \"MegaJackpot.sol\":7743:7994  keccak256(abi.encodePacked(... */\n      dup1\n      mload\n      swap1\n      0x20\n      add\n      keccak256\n        /* \"MegaJackpot.sol\":7738:7995  uint(keccak256(abi.encodePacked(... */\n      0x00\n      shr\n        /* \"MegaJackpot.sol\":7738:8019  uint(keccak256(abi.encodePacked(... */\n      tag_336\n      swap2\n      swap1\n      tag_313\n      jump\t// in\n    tag_336:\n        /* \"MegaJackpot.sol\":7731:8019  return uint(keccak256(abi.encodePacked(... */\n      swap1\n      pop\n        /* \"MegaJackpot.sol\":7638:8026  function random(uint256 number) internal returns (uint percent){... */\n      swap2\n      swap1\n      pop\n      jump\t// out\n        /* \"SafeMath.sol\":2672:2768  function add(uint256 a, uint256 b) internal pure returns (uint256) {... */\n    tag_328:\n        /* \"SafeMath.sol\":2730:2737  uint256 */\n      0x00\n        /* \"SafeMath.sol\":2760:2761  b */\n      dup2\n        /* \"SafeMath.sol\":2756:2757  a */\n      dup4\n        /* \"SafeMath.sol\":2756:2761  a + b */\n      tag_338\n      swap2\n      swap1\n      tag_171\n      jump\t// in\n    tag_338:\n        /* \"SafeMath.sol\":2749:2761  return a + b */\n      swap1\n      pop\n        /* \"SafeMath.sol\":2672:2768  function add(uint256 a, uint256 b) internal pure returns (uint256) {... */\n      swap3\n      swap2\n      pop\n      pop\n      jump\t// out\n        /* \"#utility.yul\":7:84   */\n    tag_339:\n        /* \"#utility.yul\":44:51   */\n      0x00\n        /* \"#utility.yul\":73:78   */\n      dup2\n        /* \"#utility.yul\":62:78   */\n      swap1\n      pop\n        /* \"#utility.yul\":7:84   */\n      swap2\n      swap1\n      pop\n      jump\t// out\n        /* \"#utility.yul\":90:208   */\n    tag_340:\n        /* \"#utility.yul\":177:201   */\n      tag_442\n        /* \"#utility.yul\":195:200   */\n      dup2\n        /* \"#utility.yul\":177:201   */\n      tag_339\n      jump\t// in\n    tag_442:\n        /* \"#utility.yul\":172:175   */\n      dup3\n        /* \"#utility.yul\":165:202   */\n      mstore\n        /* \"#utility.yul\":90:208   */\n      pop\n      pop\n      jump\t// out\n        /* \"#utility.yul\":214:436   */\n    tag_27:\n        /* \"#utility.yul\":307:311   */\n      0x00\n        /* \"#utility.yul\":345:347   */\n      0x20\n        /* \"#utility.yul\":334:343   */\n      dup3\n        /* \"#utility.yul\":330:348   */\n      add\n        /* \"#utility.yul\":322:348   */\n      swap1\n      pop\n        /* \"#utility.yul\":358:429   */\n      tag_444\n        /* \"#utility.yul\":426:427   */\n      0x00\n        /* \"#utility.yul\":415:424   */\n      dup4\n        /* \"#utility.yul\":411:428   */\n      add\n        /* \"#utility.yul\":402:408   */\n      dup5\n        /* \"#utility.yul\":358:429   */\n      tag_340\n      jump\t// in\n    tag_444:\n        /* \"#utility.yul\":214:436   */\n      swap3\n      swap2\n      pop\n      pop\n      jump\t// out\n        /* \"#utility.yul\":442:541   */\n    tag_341:\n        /* \"#utility.yul\":494:500   */\n      0x00\n        /* \"#utility.yul\":528:533   */\n      dup2\n        /* \"#utility.yul\":522:534   */\n      mload\n        /* \"#utility.yul\":512:534   */\n      swap1\n      pop\n        /* \"#utility.yul\":442:541   */\n      swap2\n      swap1\n      pop\n      jump\t// out\n        /* \"#utility.yul\":547:716   */\n    tag_342:\n        /* \"#utility.yul\":631:642   */\n      0x00\n        /* \"#utility.yul\":665:671   */\n      dup3\n        /* \"#utility.yul\":660:663   */\n      dup3\n        /* \"#utility.yul\":653:672   */\n      mstore\n        /* \"#utility.yul\":705:709   */\n      0x20\n        /* \"#utility.yul\":700:703   */\n      dup3\n        /* \"#utility.yul\":696:710   */\n      add\n        /* \"#utility.yul\":681:710   */\n      swap1\n      pop\n        /* \"#utility.yul\":547:716   */\n      swap3\n      swap2\n      pop\n      pop\n      jump\t// out\n        /* \"#utility.yul\":722:968   */\n    tag_343:\n        /* \"#utility.yul\":803:804   */\n      0x00\n        /* \"#utility.yul\":813:926   */\n    tag_448:\n        /* \"#utility.yul\":827:833   */\n      dup4\n        /* \"#utility.yul\":824:825   */\n      dup2\n        /* \"#utility.yul\":821:834   */\n      lt\n        /* \"#utility.yul\":813:926   */\n      iszero\n      tag_450\n      jumpi\n        /* \"#utility.yul\":912:913   */\n      dup1\n        /* \"#utility.yul\":907:910   */\n      dup3\n        /* \"#utility.yul\":903:914   */\n      add\n        /* \"#utility.yul\":897:915   */\n      mload\n        /* \"#utility.yul\":893:894   */\n      dup2\n        /* \"#utility.yul\":888:891   */\n      dup5\n        /* \"#utility.yul\":884:895   */\n      add\n        /* \"#utility.yul\":877:916   */\n      mstore\n        /* \"#utility.yul\":849:851   */\n      0x20\n        /* \"#utility.yul\":846:847   */\n      dup2\n        /* \"#utility.yul\":842:852   */\n      add\n        /* \"#utility.yul\":837:852   */\n      swap1\n      pop\n        /* \"#utility.yul\":813:926   */\n      jump(tag_448)\n    tag_450:\n        /* \"#utility.yul\":960:961   */\n      0x00\n        /* \"#utility.yul\":951:957   */\n      dup5\n        /* \"#utility.yul\":946:949   */\n      dup5\n        /* \"#utility.yul\":942:958   */\n      add\n        /* \"#utility.yul\":935:962   */\n      mstore\n        /* \"#utility.yul\":784:968   */\n      pop\n        /* \"#utility.yul\":722:968   */\n      pop\n      pop\n      pop\n      jump\t// out\n        /* \"#utility.yul\":974:1076   */\n    tag_344:\n        /* \"#utility.yul\":1015:1021   */\n      0x00\n        /* \"#utility.yul\":1066:1068   */\n      0x1f\n        /* \"#utility.yul\":1062:1069   */\n      not\n        /* \"#utility.yul\":1057:1059   */\n      0x1f\n        /* \"#utility.yul\":1050:1055   */\n      dup4\n        /* \"#utility.yul\":1046:1060   */\n      add\n        /* \"#utility.yul\":1042:1070   */\n      and\n        /* \"#utility.yul\":1032:1070   */\n      swap1\n      pop\n        /* \"#utility.yul\":974:1076   */\n      swap2\n      swap1\n      pop\n      jump\t// out\n        /* \"#utility.yul\":1082:1459   */\n    tag_345:\n        /* \"#utility.yul\":1170:1173   */\n      0x00\n        /* \"#utility.yul\":1198:1237   */\n      tag_453\n        /* \"#utility.yul\":1231:1236   */\n      dup3\n        /* \"#utility.yul\":1198:1237   */\n      tag_341\n      jump\t// in\n    tag_453:\n        /* \"#utility.yul\":1253:1324   */\n      tag_454\n        /* \"#utility.yul\":1317:1323   */\n      dup2\n        /* \"#utility.yul\":1312:1315   */\n      dup6\n        /* \"#utility.yul\":1253:1324   */\n      tag_342\n      jump\t// in\n    tag_454:\n        /* \"#utility.yul\":1246:1324   */\n      swap4\n      pop\n        /* \"#utility.yul\":1333:1398   */\n      tag_455\n        /* \"#utility.yul\":1391:1397   */\n      dup2\n        /* \"#utility.yul\":1386:1389   */\n      dup6\n        /* \"#utility.yul\":1379:1383   */\n      0x20\n        /* \"#utility.yul\":1372:1377   */\n      dup7\n        /* \"#utility.yul\":1368:1384   */\n      add\n        /* \"#utility.yul\":1333:1398   */\n      tag_343\n      jump\t// in\n    tag_455:\n        /* \"#utility.yul\":1423:1452   */\n      tag_456\n        /* \"#utility.yul\":1445:1451   */\n      dup2\n        /* \"#utility.yul\":1423:1452   */\n      tag_344\n      jump\t// in\n    tag_456:\n        /* \"#utility.yul\":1418:1421   */\n      dup5\n        /* \"#utility.yul\":1414:1453   */\n      add\n        /* \"#utility.yul\":1407:1453   */\n      swap2\n      pop\n        /* \"#utility.yul\":1174:1459   */\n      pop\n        /* \"#utility.yul\":1082:1459   */\n      swap3\n      swap2\n      pop\n      pop\n      jump\t// out\n        /* \"#utility.yul\":1465:1778   */\n    tag_31:\n        /* \"#utility.yul\":1578:1582   */\n      0x00\n        /* \"#utility.yul\":1616:1618   */\n      0x20\n        /* \"#utility.yul\":1605:1614   */\n      dup3\n        /* \"#utility.yul\":1601:1619   */\n      add\n        /* \"#utility.yul\":1593:1619   */\n      swap1\n      pop\n        /* \"#utility.yul\":1665:1674   */\n      dup2\n        /* \"#utility.yul\":1659:1663   */\n      dup2\n        /* \"#utility.yul\":1655:1675   */\n      sub\n        /* \"#utility.yul\":1651:1652   */\n      0x00\n        /* \"#utility.yul\":1640:1649   */\n      dup4\n        /* \"#utility.yul\":1636:1653   */\n      add\n        /* \"#utility.yul\":1629:1676   */\n      mstore\n        /* \"#utility.yul\":1693:1771   */\n      tag_458\n        /* \"#utility.yul\":1766:1770   */\n      dup2\n        /* \"#utility.yul\":1757:1763   */\n      dup5\n        /* \"#utility.yul\":1693:1771   */\n      tag_345\n      jump\t// in\n    tag_458:\n        /* \"#utility.yul\":1685:1771   */\n      swap1\n      pop\n        /* \"#utility.yul\":1465:1778   */\n      swap3\n      swap2\n      pop\n      pop\n      jump\t// out\n        /* \"#utility.yul\":1784:1859   */\n    tag_346:\n        /* \"#utility.yul\":1817:1823   */\n      0x00\n        /* \"#utility.yul\":1850:1852   */\n      0x40\n        /* \"#utility.yul\":1844:1853   */\n      mload\n        /* \"#utility.yul\":1834:1853   */\n      swap1\n      pop\n        /* \"#utility.yul\":1784:1859   */\n      swap1\n      jump\t// out\n        /* \"#utility.yul\":1865:1982   */\n    tag_347:\n        /* \"#utility.yul\":1974:1975   */\n      0x00\n        /* \"#utility.yul\":1971:1972   */\n      dup1\n        /* \"#utility.yul\":1964:1976   */\n      revert\n        /* \"#utility.yul\":1988:2105   */\n    tag_348:\n        /* \"#utility.yul\":2097:2098   */\n      0x00\n        /* \"#utility.yul\":2094:2095   */\n      dup1\n        /* \"#utility.yul\":2087:2099   */\n      revert\n        /* \"#utility.yul\":2111:2237   */\n    tag_349:\n        /* \"#utility.yul\":2148:2155   */\n      0x00\n        /* \"#utility.yul\":2188:2230   */\n      0xffffffffffffffffffffffffffffffffffffffff\n        /* \"#utility.yul\":2181:2186   */\n      dup3\n        /* \"#utility.yul\":2177:2231   */\n      and\n        /* \"#utility.yul\":2166:2231   */\n      swap1\n      pop\n        /* \"#utility.yul\":2111:2237   */\n      swap2\n      swap1\n      pop\n      jump\t// out\n        /* \"#utility.yul\":2243:2339   */\n    tag_350:\n        /* \"#utility.yul\":2280:2287   */\n      0x00\n        /* \"#utility.yul\":2309:2333   */\n      tag_464\n        /* \"#utility.yul\":2327:2332   */\n      dup3\n        /* \"#utility.yul\":2309:2333   */\n      tag_349\n      jump\t// in\n    tag_464:\n        /* \"#utility.yul\":2298:2333   */\n      swap1\n      pop\n        /* \"#utility.yul\":2243:2339   */\n      swap2\n      swap1\n      pop\n      jump\t// out\n        /* \"#utility.yul\":2345:2467   */\n    tag_351:\n        /* \"#utility.yul\":2418:2442   */\n      tag_466\n        /* \"#utility.yul\":2436:2441   */\n      dup2\n        /* \"#utility.yul\":2418:2442   */\n      tag_350\n      jump\t// in\n    tag_466:\n        /* \"#utility.yul\":2411:2416   */\n      dup2\n        /* \"#utility.yul\":2408:2443   */\n      eq\n        /* \"#utility.yul\":2398:2461   */\n      tag_467\n      jumpi\n        /* \"#utility.yul\":2457:2458   */\n      0x00\n        /* \"#utility.yul\":2454:2455   */\n      dup1\n        /* \"#utility.yul\":2447:2459   */\n      revert\n        /* \"#utility.yul\":2398:2461   */\n    tag_467:\n        /* \"#utility.yul\":2345:2467   */\n      pop\n      jump\t// out\n        /* \"#utility.yul\":2473:2612   */\n    tag_352:\n        /* \"#utility.yul\":2519:2524   */\n      0x00\n        /* \"#utility.yul\":2557:2563   */\n      dup2\n        /* \"#utility.yul\":2544:2564   */\n      calldataload\n        /* \"#utility.yul\":2535:2564   */\n      swap1\n      pop\n        /* \"#utility.yul\":2573:2606   */\n      tag_469\n        /* \"#utility.yul\":2600:2605   */\n      dup2\n        /* \"#utility.yul\":2573:2606   */\n      tag_351\n      jump\t// in\n    tag_469:\n        /* \"#utility.yul\":2473:2612   */\n      swap3\n      swap2\n      pop\n      pop\n      jump\t// out\n        /* \"#utility.yul\":2618:2947   */\n    tag_34:\n        /* \"#utility.yul\":2677:2683   */\n      0x00\n        /* \"#utility.yul\":2726:2728   */\n      0x20\n        /* \"#utility.yul\":2714:2723   */\n      dup3\n        /* \"#utility.yul\":2705:2712   */\n      dup5\n        /* \"#utility.yul\":2701:2724   */\n      sub\n        /* \"#utility.yul\":2697:2729   */\n      slt\n        /* \"#utility.yul\":2694:2813   */\n      iszero\n      tag_471\n      jumpi\n        /* \"#utility.yul\":2732:2811   */\n      tag_472\n      tag_347\n      jump\t// in\n    tag_472:\n        /* \"#utility.yul\":2694:2813   */\n    tag_471:\n        /* \"#utility.yul\":2852:2853   */\n      0x00\n        /* \"#utility.yul\":2877:2930   */\n      tag_473\n        /* \"#utility.yul\":2922:2929   */\n      dup5\n        /* \"#utility.yul\":2913:2919   */\n      dup3\n        /* \"#utility.yul\":2902:2911   */\n      dup6\n        /* \"#utility.yul\":2898:2920   */\n      add\n        /* \"#utility.yul\":2877:2930   */\n      tag_352\n      jump\t// in\n    tag_473:\n        /* \"#utility.yul\":2867:2930   */\n      swap2\n      pop\n        /* \"#utility.yul\":2823:2940   */\n      pop\n        /* \"#utility.yul\":2618:2947   */\n      swap3\n      swap2\n      pop\n      pop\n      jump\t// out\n        /* \"#utility.yul\":2953:3075   */\n    tag_353:\n        /* \"#utility.yul\":3026:3050   */\n      tag_475\n        /* \"#utility.yul\":3044:3049   */\n      dup2\n        /* \"#utility.yul\":3026:3050   */\n      tag_339\n      jump\t// in\n    tag_475:\n        /* \"#utility.yul\":3019:3024   */\n      dup2\n        /* \"#utility.yul\":3016:3051   */\n      eq\n        /* \"#utility.yul\":3006:3069   */\n      tag_476\n      jumpi\n        /* \"#utility.yul\":3065:3066   */\n      0x00\n        /* \"#utility.yul\":3062:3063   */\n      dup1\n        /* \"#utility.yul\":3055:3067   */\n      revert\n        /* \"#utility.yul\":3006:3069   */\n    tag_476:\n        /* \"#utility.yul\":2953:3075   */\n      pop\n      jump\t// out\n        /* \"#utility.yul\":3081:3220   */\n    tag_354:\n        /* \"#utility.yul\":3127:3132   */\n      0x00\n        /* \"#utility.yul\":3165:3171   */\n      dup2\n        /* \"#utility.yul\":3152:3172   */\n      calldataload\n        /* \"#utility.yul\":3143:3172   */\n      swap1\n      pop\n        /* \"#utility.yul\":3181:3214   */\n      tag_478\n        /* \"#utility.yul\":3208:3213   */\n      dup2\n        /* \"#utility.yul\":3181:3214   */\n      tag_353\n      jump\t// in\n    tag_478:\n        /* \"#utility.yul\":3081:3220   */\n      swap3\n      swap2\n      pop\n      pop\n      jump\t// out\n        /* \"#utility.yul\":3226:4721   */\n    tag_38:\n        /* \"#utility.yul\":3357:3363   */\n      0x00\n        /* \"#utility.yul\":3365:3371   */\n      dup1\n        /* \"#utility.yul\":3373:3379   */\n      0x00\n        /* \"#utility.yul\":3381:3387   */\n      dup1\n        /* \"#utility.yul\":3389:3395   */\n      0x00\n        /* \"#utility.yul\":3397:3403   */\n      dup1\n        /* \"#utility.yul\":3405:3411   */\n      0x00\n        /* \"#utility.yul\":3413:3419   */\n      dup1\n        /* \"#utility.yul\":3421:3427   */\n      0x00\n        /* \"#utility.yul\":3470:3473   */\n      0x0120\n        /* \"#utility.yul\":3458:3467   */\n      dup11\n        /* \"#utility.yul\":3449:3456   */\n      dup13\n        /* \"#utility.yul\":3445:3468   */\n      sub\n        /* \"#utility.yul\":3441:3474   */\n      slt\n        /* \"#utility.yul\":3438:3558   */\n      iszero\n      tag_480\n      jumpi\n        /* \"#utility.yul\":3477:3556   */\n      tag_481\n      tag_347\n      jump\t// in\n    tag_481:\n        /* \"#utility.yul\":3438:3558   */\n    tag_480:\n        /* \"#utility.yul\":3597:3598   */\n      0x00\n        /* \"#utility.yul\":3622:3675   */\n      tag_482\n        /* \"#utility.yul\":3667:3674   */\n      dup13\n        /* \"#utility.yul\":3658:3664   */\n      dup3\n        /* \"#utility.yul\":3647:3656   */\n      dup14\n        /* \"#utility.yul\":3643:3665   */\n      add\n        /* \"#utility.yul\":3622:3675   */\n      tag_354\n      jump\t// in\n    tag_482:\n        /* \"#utility.yul\":3612:3675   */\n      swap10\n      pop\n        /* \"#utility.yul\":3568:3685   */\n      pop\n        /* \"#utility.yul\":3724:3726   */\n      0x20\n        /* \"#utility.yul\":3750:3803   */\n      tag_483\n        /* \"#utility.yul\":3795:3802   */\n      dup13\n        /* \"#utility.yul\":3786:3792   */\n      dup3\n        /* \"#utility.yul\":3775:3784   */\n      dup14\n        /* \"#utility.yul\":3771:3793   */\n      add\n        /* \"#utility.yul\":3750:3803   */\n      tag_354\n      jump\t// in\n    tag_483:\n        /* \"#utility.yul\":3740:3803   */\n      swap9\n      pop\n        /* \"#utility.yul\":3695:3813   */\n      pop\n        /* \"#utility.yul\":3852:3854   */\n      0x40\n        /* \"#utility.yul\":3878:3931   */\n      tag_484\n        /* \"#utility.yul\":3923:3930   */\n      dup13\n        /* \"#utility.yul\":3914:3920   */\n      dup3\n        /* \"#utility.yul\":3903:3912   */\n      dup14\n        /* \"#utility.yul\":3899:3921   */\n      add\n        /* \"#utility.yul\":3878:3931   */\n      tag_352\n      jump\t// in\n    tag_484:\n        /* \"#utility.yul\":3868:3931   */\n      swap8\n      pop\n        /* \"#utility.yul\":3823:3941   */\n      pop\n        /* \"#utility.yul\":3980:3982   */\n      0x60\n        /* \"#utility.yul\":4006:4059   */\n      tag_485\n        /* \"#utility.yul\":4051:4058   */\n      dup13\n        /* \"#utility.yul\":4042:4048   */\n      dup3\n        /* \"#utility.yul\":4031:4040   */\n      dup14\n        /* \"#utility.yul\":4027:4049   */\n      add\n        /* \"#utility.yul\":4006:4059   */\n      tag_352\n      jump\t// in\n    tag_485:\n        /* \"#utility.yul\":3996:4059   */\n      swap7\n      pop\n        /* \"#utility.yul\":3951:4069   */\n      pop\n        /* \"#utility.yul\":4108:4111   */\n      0x80\n        /* \"#utility.yul\":4135:4188   */\n      tag_486\n        /* \"#utility.yul\":4180:4187   */\n      dup13\n        /* \"#utility.yul\":4171:4177   */\n      dup3\n        /* \"#utility.yul\":4160:4169   */\n      dup14\n        /* \"#utility.yul\":4156:4178   */\n      add\n        /* \"#utility.yul\":4135:4188   */\n      tag_352\n      jump\t// in\n    tag_486:\n        /* \"#utility.yul\":4125:4188   */\n      swap6\n      pop\n        /* \"#utility.yul\":4079:4198   */\n      pop\n        /* \"#utility.yul\":4237:4240   */\n      0xa0\n        /* \"#utility.yul\":4264:4317   */\n      tag_487\n        /* \"#utility.yul\":4309:4316   */\n      dup13\n        /* \"#utility.yul\":4300:4306   */\n      dup3\n        /* \"#utility.yul\":4289:4298   */\n      dup14\n        /* \"#utility.yul\":4285:4307   */\n      add\n        /* \"#utility.yul\":4264:4317   */\n      tag_354\n      jump\t// in\n    tag_487:\n        /* \"#utility.yul\":4254:4317   */\n      swap5\n      pop\n        /* \"#utility.yul\":4208:4327   */\n      pop\n        /* \"#utility.yul\":4366:4369   */\n      0xc0\n        /* \"#utility.yul\":4393:4446   */\n      tag_488\n        /* \"#utility.yul\":4438:4445   */\n      dup13\n        /* \"#utility.yul\":4429:4435   */\n      dup3\n        /* \"#utility.yul\":4418:4427   */\n      dup14\n        /* \"#utility.yul\":4414:4436   */\n      add\n        /* \"#utility.yul\":4393:4446   */\n      tag_354\n      jump\t// in\n    tag_488:\n        /* \"#utility.yul\":4383:4446   */\n      swap4\n      pop\n        /* \"#utility.yul\":4337:4456   */\n      pop\n        /* \"#utility.yul\":4495:4498   */\n      0xe0\n        /* \"#utility.yul\":4522:4575   */\n      tag_489\n        /* \"#utility.yul\":4567:4574   */\n      dup13\n        /* \"#utility.yul\":4558:4564   */\n      dup3\n        /* \"#utility.yul\":4547:4556   */\n      dup14\n        /* \"#utility.yul\":4543:4565   */\n      add\n        /* \"#utility.yul\":4522:4575   */\n      tag_354\n      jump\t// in\n    tag_489:\n        /* \"#utility.yul\":4512:4575   */\n      swap3\n      pop\n        /* \"#utility.yul\":4466:4585   */\n      pop\n        /* \"#utility.yul\":4624:4627   */\n      0x0100\n        /* \"#utility.yul\":4651:4704   */\n      tag_490\n        /* \"#utility.yul\":4696:4703   */\n      dup13\n        /* \"#utility.yul\":4687:4693   */\n      dup3\n        /* \"#utility.yul\":4676:4685   */\n      dup14\n        /* \"#utility.yul\":4672:4694   */\n      add\n        /* \"#utility.yul\":4651:4704   */\n      tag_352\n      jump\t// in\n    tag_490:\n        /* \"#utility.yul\":4641:4704   */\n      swap2\n      pop\n        /* \"#utility.yul\":4595:4714   */\n      pop\n        /* \"#utility.yul\":3226:4721   */\n      swap3\n      swap6\n      swap9\n      pop\n      swap3\n      swap6\n      swap9\n      pop\n      swap3\n      swap6\n      swap9\n      jump\t// out\n        /* \"#utility.yul\":4727:4845   */\n    tag_355:\n        /* \"#utility.yul\":4814:4838   */\n      tag_492\n        /* \"#utility.yul\":4832:4837   */\n      dup2\n        /* \"#utility.yul\":4814:4838   */\n      tag_350\n      jump\t// in\n    tag_492:\n        /* \"#utility.yul\":4809:4812   */\n      dup3\n        /* \"#utility.yul\":4802:4839   */\n      mstore\n        /* \"#utility.yul\":4727:4845   */\n      pop\n      pop\n      jump\t// out\n        /* \"#utility.yul\":4851:5073   */\n    tag_43:\n        /* \"#utility.yul\":4944:4948   */\n      0x00\n        /* \"#utility.yul\":4982:4984   */\n      0x20\n        /* \"#utility.yul\":4971:4980   */\n      dup3\n        /* \"#utility.yul\":4967:4985   */\n      add\n        /* \"#utility.yul\":4959:4985   */\n      swap1\n      pop\n        /* \"#utility.yul\":4995:5066   */\n      tag_494\n        /* \"#utility.yul\":5063:5064   */\n      0x00\n        /* \"#utility.yul\":5052:5061   */\n      dup4\n        /* \"#utility.yul\":5048:5065   */\n      add\n        /* \"#utility.yul\":5039:5045   */\n      dup5\n        /* \"#utility.yul\":4995:5066   */\n      tag_355\n      jump\t// in\n    tag_494:\n        /* \"#utility.yul\":4851:5073   */\n      swap3\n      swap2\n      pop\n      pop\n      jump\t// out\n        /* \"#utility.yul\":5079:5553   */\n    tag_49:\n        /* \"#utility.yul\":5147:5153   */\n      0x00\n        /* \"#utility.yul\":5155:5161   */\n      dup1\n        /* \"#utility.yul\":5204:5206   */\n      0x40\n        /* \"#utility.yul\":5192:5201   */\n      dup4\n        /* \"#utility.yul\":5183:5190   */\n      dup6\n        /* \"#utility.yul\":5179:5202   */\n      sub\n        /* \"#utility.yul\":5175:5207   */\n      slt\n        /* \"#utility.yul\":5172:5291   */\n      iszero\n      tag_496\n      jumpi\n        /* \"#utility.yul\":5210:5289   */\n      tag_497\n      tag_347\n      jump\t// in\n    tag_497:\n        /* \"#utility.yul\":5172:5291   */\n    tag_496:\n        /* \"#utility.yul\":5330:5331   */\n      0x00\n        /* \"#utility.yul\":5355:5408   */\n      tag_498\n        /* \"#utility.yul\":5400:5407   */\n      dup6\n        /* \"#utility.yul\":5391:5397   */\n      dup3\n        /* \"#utility.yul\":5380:5389   */\n      dup7\n        /* \"#utility.yul\":5376:5398   */\n      add\n        /* \"#utility.yul\":5355:5408   */\n      tag_354\n      jump\t// in\n    tag_498:\n        /* \"#utility.yul\":5345:5408   */\n      swap3\n      pop\n        /* \"#utility.yul\":5301:5418   */\n      pop\n        /* \"#utility.yul\":5457:5459   */\n      0x20\n        /* \"#utility.yul\":5483:5536   */\n      tag_499\n        /* \"#utility.yul\":5528:5535   */\n      dup6\n        /* \"#utility.yul\":5519:5525   */\n      dup3\n        /* \"#utility.yul\":5508:5517   */\n      dup7\n        /* \"#utility.yul\":5504:5526   */\n      add\n        /* \"#utility.yul\":5483:5536   */\n      tag_354\n      jump\t// in\n    tag_499:\n        /* \"#utility.yul\":5473:5536   */\n      swap2\n      pop\n        /* \"#utility.yul\":5428:5546   */\n      pop\n        /* \"#utility.yul\":5079:5553   */\n      swap3\n      pop\n      swap3\n      swap1\n      pop\n      jump\t// out\n        /* \"#utility.yul\":5559:5891   */\n    tag_52:\n        /* \"#utility.yul\":5680:5684   */\n      0x00\n        /* \"#utility.yul\":5718:5720   */\n      0x40\n        /* \"#utility.yul\":5707:5716   */\n      dup3\n        /* \"#utility.yul\":5703:5721   */\n      add\n        /* \"#utility.yul\":5695:5721   */\n      swap1\n      pop\n        /* \"#utility.yul\":5731:5802   */\n      tag_501\n        /* \"#utility.yul\":5799:5800   */\n      0x00\n        /* \"#utility.yul\":5788:5797   */\n      dup4\n        /* \"#utility.yul\":5784:5801   */\n      add\n        /* \"#utility.yul\":5775:5781   */\n      dup6\n        /* \"#utility.yul\":5731:5802   */\n      tag_340\n      jump\t// in\n    tag_501:\n        /* \"#utility.yul\":5812:5884   */\n      tag_502\n        /* \"#utility.yul\":5880:5882   */\n      0x20\n        /* \"#utility.yul\":5869:5878   */\n      dup4\n        /* \"#utility.yul\":5865:5883   */\n      add\n        /* \"#utility.yul\":5856:5862   */\n      dup5\n        /* \"#utility.yul\":5812:5884   */\n      tag_340\n      jump\t// in\n    tag_502:\n        /* \"#utility.yul\":5559:5891   */\n      swap4\n      swap3\n      pop\n      pop\n      pop\n      jump\t// out\n        /* \"#utility.yul\":5897:6226   */\n    tag_64:\n        /* \"#utility.yul\":5956:5962   */\n      0x00\n        /* \"#utility.yul\":6005:6007   */\n      0x20\n        /* \"#utility.yul\":5993:6002   */\n      dup3\n        /* \"#utility.yul\":5984:5991   */\n      dup5\n        /* \"#utility.yul\":5980:6003   */\n      sub\n        /* \"#utility.yul\":5976:6008   */\n      slt\n        /* \"#utility.yul\":5973:6092   */\n      iszero\n      tag_504\n      jumpi\n        /* \"#utility.yul\":6011:6090   */\n      tag_505\n      tag_347\n      jump\t// in\n    tag_505:\n        /* \"#utility.yul\":5973:6092   */\n    tag_504:\n        /* \"#utility.yul\":6131:6132   */\n      0x00\n        /* \"#utility.yul\":6156:6209   */\n      tag_506\n        /* \"#utility.yul\":6201:6208   */\n      dup5\n        /* \"#utility.yul\":6192:6198   */\n      dup3\n        /* \"#utility.yul\":6181:6190   */\n      dup6\n        /* \"#utility.yul\":6177:6199   */\n      add\n        /* \"#utility.yul\":6156:6209   */\n      tag_354\n      jump\t// in\n    tag_506:\n        /* \"#utility.yul\":6146:6209   */\n      swap2\n      pop\n        /* \"#utility.yul\":6102:6219   */\n      pop\n        /* \"#utility.yul\":5897:6226   */\n      swap3\n      swap2\n      pop\n      pop\n      jump\t// out\n        /* \"#utility.yul\":6232:7320   */\n    tag_67:\n        /* \"#utility.yul\":6541:6545   */\n      0x00\n        /* \"#utility.yul\":6579:6582   */\n      0x0100\n        /* \"#utility.yul\":6568:6577   */\n      dup3\n        /* \"#utility.yul\":6564:6583   */\n      add\n        /* \"#utility.yul\":6556:6583   */\n      swap1\n      pop\n        /* \"#utility.yul\":6593:6664   */\n      tag_508\n        /* \"#utility.yul\":6661:6662   */\n      0x00\n        /* \"#utility.yul\":6650:6659   */\n      dup4\n        /* \"#utility.yul\":6646:6663   */\n      add\n        /* \"#utility.yul\":6637:6643   */\n      dup12\n        /* \"#utility.yul\":6593:6664   */\n      tag_340\n      jump\t// in\n    tag_508:\n        /* \"#utility.yul\":6674:6746   */\n      tag_509\n        /* \"#utility.yul\":6742:6744   */\n      0x20\n        /* \"#utility.yul\":6731:6740   */\n      dup4\n        /* \"#utility.yul\":6727:6745   */\n      add\n        /* \"#utility.yul\":6718:6724   */\n      dup11\n        /* \"#utility.yul\":6674:6746   */\n      tag_340\n      jump\t// in\n    tag_509:\n        /* \"#utility.yul\":6793:6802   */\n      dup2\n        /* \"#utility.yul\":6787:6791   */\n      dup2\n        /* \"#utility.yul\":6783:6803   */\n      sub\n        /* \"#utility.yul\":6778:6780   */\n      0x40\n        /* \"#utility.yul\":6767:6776   */\n      dup4\n        /* \"#utility.yul\":6763:6781   */\n      add\n        /* \"#utility.yul\":6756:6804   */\n      mstore\n        /* \"#utility.yul\":6821:6899   */\n      tag_510\n        /* \"#utility.yul\":6894:6898   */\n      dup2\n        /* \"#utility.yul\":6885:6891   */\n      dup10\n        /* \"#utility.yul\":6821:6899   */\n      tag_345\n      jump\t// in\n    tag_510:\n        /* \"#utility.yul\":6813:6899   */\n      swap1\n      pop\n        /* \"#utility.yul\":6909:6981   */\n      tag_511\n        /* \"#utility.yul\":6977:6979   */\n      0x60\n        /* \"#utility.yul\":6966:6975   */\n      dup4\n        /* \"#utility.yul\":6962:6980   */\n      add\n        /* \"#utility.yul\":6953:6959   */\n      dup9\n        /* \"#utility.yul\":6909:6981   */\n      tag_340\n      jump\t// in\n    tag_511:\n        /* \"#utility.yul\":6991:7064   */\n      tag_512\n        /* \"#utility.yul\":7059:7062   */\n      0x80\n        /* \"#utility.yul\":7048:7057   */\n      dup4\n        /* \"#utility.yul\":7044:7063   */\n      add\n        /* \"#utility.yul\":7035:7041   */\n      dup8\n        /* \"#utility.yul\":6991:7064   */\n      tag_340\n      jump\t// in\n    tag_512:\n        /* \"#utility.yul\":7074:7147   */\n      tag_513\n        /* \"#utility.yul\":7142:7145   */\n      0xa0\n        /* \"#utility.yul\":7131:7140   */\n      dup4\n        /* \"#utility.yul\":7127:7146   */\n      add\n        /* \"#utility.yul\":7118:7124   */\n      dup7\n        /* \"#utility.yul\":7074:7147   */\n      tag_340\n      jump\t// in\n    tag_513:\n        /* \"#utility.yul\":7157:7230   */\n      tag_514\n        /* \"#utility.yul\":7225:7228   */\n      0xc0\n        /* \"#utility.yul\":7214:7223   */\n      dup4\n        /* \"#utility.yul\":7210:7229   */\n      add\n        /* \"#utility.yul\":7201:7207   */\n      dup6\n        /* \"#utility.yul\":7157:7230   */\n      tag_340\n      jump\t// in\n    tag_514:\n        /* \"#utility.yul\":7240:7313   */\n      tag_515\n        /* \"#utility.yul\":7308:7311   */\n      0xe0\n        /* \"#utility.yul\":7297:7306   */\n      dup4\n        /* \"#utility.yul\":7293:7312   */\n      add\n        /* \"#utility.yul\":7284:7290   */\n      dup5\n        /* \"#utility.yul\":7240:7313   */\n      tag_340\n      jump\t// in\n    tag_515:\n        /* \"#utility.yul\":6232:7320   */\n      swap10\n      swap9\n      pop\n      pop\n      pop\n      pop\n      pop\n      pop\n      pop\n      pop\n      pop\n      jump\t// out\n        /* \"#utility.yul\":7326:7416   */\n    tag_356:\n        /* \"#utility.yul\":7360:7367   */\n      0x00\n        /* \"#utility.yul\":7403:7408   */\n      dup2\n        /* \"#utility.yul\":7396:7409   */\n      iszero\n        /* \"#utility.yul\":7389:7410   */\n      iszero\n        /* \"#utility.yul\":7378:7410   */\n      swap1\n      pop\n        /* \"#utility.yul\":7326:7416   */\n      swap2\n      swap1\n      pop\n      jump\t// out\n        /* \"#utility.yul\":7422:7531   */\n    tag_357:\n        /* \"#utility.yul\":7503:7524   */\n      tag_518\n        /* \"#utility.yul\":7518:7523   */\n      dup2\n        /* \"#utility.yul\":7503:7524   */\n      tag_356\n      jump\t// in\n    tag_518:\n        /* \"#utility.yul\":7498:7501   */\n      dup3\n        /* \"#utility.yul\":7491:7525   */\n      mstore\n        /* \"#utility.yul\":7422:7531   */\n      pop\n      pop\n      jump\t// out\n        /* \"#utility.yul\":7537:7967   */\n    tag_72:\n        /* \"#utility.yul\":7680:7684   */\n      0x00\n        /* \"#utility.yul\":7718:7720   */\n      0x60\n        /* \"#utility.yul\":7707:7716   */\n      dup3\n        /* \"#utility.yul\":7703:7721   */\n      add\n        /* \"#utility.yul\":7695:7721   */\n      swap1\n      pop\n        /* \"#utility.yul\":7731:7796   */\n      tag_520\n        /* \"#utility.yul\":7793:7794   */\n      0x00\n        /* \"#utility.yul\":7782:7791   */\n      dup4\n        /* \"#utility.yul\":7778:7795   */\n      add\n        /* \"#utility.yul\":7769:7775   */\n      dup7\n        /* \"#utility.yul\":7731:7796   */\n      tag_357\n      jump\t// in\n    tag_520:\n        /* \"#utility.yul\":7806:7878   */\n      tag_521\n        /* \"#utility.yul\":7874:7876   */\n      0x20\n        /* \"#utility.yul\":7863:7872   */\n      dup4\n        /* \"#utility.yul\":7859:7877   */\n      add\n        /* \"#utility.yul\":7850:7856   */\n      dup6\n        /* \"#utility.yul\":7806:7878   */\n      tag_340\n      jump\t// in\n    tag_521:\n        /* \"#utility.yul\":7888:7960   */\n      tag_522\n        /* \"#utility.yul\":7956:7958   */\n      0x40\n        /* \"#utility.yul\":7945:7954   */\n      dup4\n        /* \"#utility.yul\":7941:7959   */\n      add\n        /* \"#utility.yul\":7932:7938   */\n      dup5\n        /* \"#utility.yul\":7888:7960   */\n      tag_340\n      jump\t// in\n    tag_522:\n        /* \"#utility.yul\":7537:7967   */\n      swap5\n      swap4\n      pop\n      pop\n      pop\n      pop\n      jump\t// out\n        /* \"#utility.yul\":7973:8090   */\n    tag_358:\n        /* \"#utility.yul\":8082:8083   */\n      0x00\n        /* \"#utility.yul\":8079:8080   */\n      dup1\n        /* \"#utility.yul\":8072:8084   */\n      revert\n        /* \"#utility.yul\":8096:8213   */\n    tag_359:\n        /* \"#utility.yul\":8205:8206   */\n      0x00\n        /* \"#utility.yul\":8202:8203   */\n      dup1\n        /* \"#utility.yul\":8195:8207   */\n      revert\n        /* \"#utility.yul\":8219:8399   */\n    tag_360:\n        /* \"#utility.yul\":8267:8344   */\n      0x4e487b7100000000000000000000000000000000000000000000000000000000\n        /* \"#utility.yul\":8264:8265   */\n      0x00\n        /* \"#utility.yul\":8257:8345   */\n      mstore\n        /* \"#utility.yul\":8364:8368   */\n      0x41\n        /* \"#utility.yul\":8361:8362   */\n      0x04\n        /* \"#utility.yul\":8354:8369   */\n      mstore\n        /* \"#utility.yul\":8388:8392   */\n      0x24\n        /* \"#utility.yul\":8385:8386   */\n      0x00\n        /* \"#utility.yul\":8378:8393   */\n      revert\n        /* \"#utility.yul\":8405:8686   */\n    tag_361:\n        /* \"#utility.yul\":8488:8515   */\n      tag_527\n        /* \"#utility.yul\":8510:8514   */\n      dup3\n        /* \"#utility.yul\":8488:8515   */\n      tag_344\n      jump\t// in\n    tag_527:\n        /* \"#utility.yul\":8480:8486   */\n      dup2\n        /* \"#utility.yul\":8476:8516   */\n      add\n        /* \"#utility.yul\":8618:8624   */\n      dup2\n        /* \"#utility.yul\":8606:8616   */\n      dup2\n        /* \"#utility.yul\":8603:8625   */\n      lt\n        /* \"#utility.yul\":8582:8600   */\n      0xffffffffffffffff\n        /* \"#utility.yul\":8570:8580   */\n      dup3\n        /* \"#utility.yul\":8567:8601   */\n      gt\n        /* \"#utility.yul\":8564:8626   */\n      or\n        /* \"#utility.yul\":8561:8649   */\n      iszero\n      tag_528\n      jumpi\n        /* \"#utility.yul\":8629:8647   */\n      tag_529\n      tag_360\n      jump\t// in\n    tag_529:\n        /* \"#utility.yul\":8561:8649   */\n    tag_528:\n        /* \"#utility.yul\":8669:8679   */\n      dup1\n        /* \"#utility.yul\":8665:8667   */\n      0x40\n        /* \"#utility.yul\":8658:8680   */\n      mstore\n        /* \"#utility.yul\":8448:8686   */\n      pop\n        /* \"#utility.yul\":8405:8686   */\n      pop\n      pop\n      jump\t// out\n        /* \"#utility.yul\":8692:8821   */\n    tag_362:\n        /* \"#utility.yul\":8726:8732   */\n      0x00\n        /* \"#utility.yul\":8753:8773   */\n      tag_531\n      tag_346\n      jump\t// in\n    tag_531:\n        /* \"#utility.yul\":8743:8773   */\n      swap1\n      pop\n        /* \"#utility.yul\":8782:8815   */\n      tag_532\n        /* \"#utility.yul\":8810:8814   */\n      dup3\n        /* \"#utility.yul\":8802:8808   */\n      dup3\n        /* \"#utility.yul\":8782:8815   */\n      tag_361\n      jump\t// in\n    tag_532:\n        /* \"#utility.yul\":8692:8821   */\n      swap2\n      swap1\n      pop\n      jump\t// out\n        /* \"#utility.yul\":8827:9135   */\n    tag_363:\n        /* \"#utility.yul\":8889:8893   */\n      0x00\n        /* \"#utility.yul\":8979:8997   */\n      0xffffffffffffffff\n        /* \"#utility.yul\":8971:8977   */\n      dup3\n        /* \"#utility.yul\":8968:8998   */\n      gt\n        /* \"#utility.yul\":8965:9021   */\n      iszero\n      tag_534\n      jumpi\n        /* \"#utility.yul\":9001:9019   */\n      tag_535\n      tag_360\n      jump\t// in\n    tag_535:\n        /* \"#utility.yul\":8965:9021   */\n    tag_534:\n        /* \"#utility.yul\":9039:9068   */\n      tag_536\n        /* \"#utility.yul\":9061:9067   */\n      dup3\n        /* \"#utility.yul\":9039:9068   */\n      tag_344\n      jump\t// in\n    tag_536:\n        /* \"#utility.yul\":9031:9068   */\n      swap1\n      pop\n        /* \"#utility.yul\":9123:9127   */\n      0x20\n        /* \"#utility.yul\":9117:9121   */\n      dup2\n        /* \"#utility.yul\":9113:9128   */\n      add\n        /* \"#utility.yul\":9105:9128   */\n      swap1\n      pop\n        /* \"#utility.yul\":8827:9135   */\n      swap2\n      swap1\n      pop\n      jump\t// out\n        /* \"#utility.yul\":9141:9287   */\n    tag_364:\n        /* \"#utility.yul\":9238:9244   */\n      dup3\n        /* \"#utility.yul\":9233:9236   */\n      dup2\n        /* \"#utility.yul\":9228:9231   */\n      dup4\n        /* \"#utility.yul\":9215:9245   */\n      calldatacopy\n        /* \"#utility.yul\":9279:9280   */\n      0x00\n        /* \"#utility.yul\":9270:9276   */\n      dup4\n        /* \"#utility.yul\":9265:9268   */\n      dup4\n        /* \"#utility.yul\":9261:9277   */\n      add\n        /* \"#utility.yul\":9254:9281   */\n      mstore\n        /* \"#utility.yul\":9141:9287   */\n      pop\n      pop\n      pop\n      jump\t// out\n        /* \"#utility.yul\":9293:9718   */\n    tag_365:\n        /* \"#utility.yul\":9371:9376   */\n      0x00\n        /* \"#utility.yul\":9396:9462   */\n      tag_539\n        /* \"#utility.yul\":9412:9461   */\n      tag_540\n        /* \"#utility.yul\":9454:9460   */\n      dup5\n        /* \"#utility.yul\":9412:9461   */\n      tag_363\n      jump\t// in\n    tag_540:\n        /* \"#utility.yul\":9396:9462   */\n      tag_362\n      jump\t// in\n    tag_539:\n        /* \"#utility.yul\":9387:9462   */\n      swap1\n      pop\n        /* \"#utility.yul\":9485:9491   */\n      dup3\n        /* \"#utility.yul\":9478:9483   */\n      dup2\n        /* \"#utility.yul\":9471:9492   */\n      mstore\n        /* \"#utility.yul\":9523:9527   */\n      0x20\n        /* \"#utility.yul\":9516:9521   */\n      dup2\n        /* \"#utility.yul\":9512:9528   */\n      add\n        /* \"#utility.yul\":9561:9564   */\n      dup5\n        /* \"#utility.yul\":9552:9558   */\n      dup5\n        /* \"#utility.yul\":9547:9550   */\n      dup5\n        /* \"#utility.yul\":9543:9559   */\n      add\n        /* \"#utility.yul\":9540:9565   */\n      gt\n        /* \"#utility.yul\":9537:9649   */\n      iszero\n      tag_541\n      jumpi\n        /* \"#utility.yul\":9568:9647   */\n      tag_542\n      tag_359\n      jump\t// in\n    tag_542:\n        /* \"#utility.yul\":9537:9649   */\n    tag_541:\n        /* \"#utility.yul\":9658:9712   */\n      tag_543\n        /* \"#utility.yul\":9705:9711   */\n      dup5\n        /* \"#utility.yul\":9700:9703   */\n      dup3\n        /* \"#utility.yul\":9695:9698   */\n      dup6\n        /* \"#utility.yul\":9658:9712   */\n      tag_364\n      jump\t// in\n    tag_543:\n        /* \"#utility.yul\":9377:9718   */\n      pop\n        /* \"#utility.yul\":9293:9718   */\n      swap4\n      swap3\n      pop\n      pop\n      pop\n      jump\t// out\n        /* \"#utility.yul\":9738:10078   */\n    tag_366:\n        /* \"#utility.yul\":9794:9799   */\n      0x00\n        /* \"#utility.yul\":9843:9846   */\n      dup3\n        /* \"#utility.yul\":9836:9840   */\n      0x1f\n        /* \"#utility.yul\":9828:9834   */\n      dup4\n        /* \"#utility.yul\":9824:9841   */\n      add\n        /* \"#utility.yul\":9820:9847   */\n      slt\n        /* \"#utility.yul\":9810:9932   */\n      tag_545\n      jumpi\n        /* \"#utility.yul\":9851:9930   */\n      tag_546\n      tag_358\n      jump\t// in\n    tag_546:\n        /* \"#utility.yul\":9810:9932   */\n    tag_545:\n        /* \"#utility.yul\":9968:9974   */\n      dup2\n        /* \"#utility.yul\":9955:9975   */\n      calldataload\n        /* \"#utility.yul\":9993:10072   */\n      tag_547\n        /* \"#utility.yul\":10068:10071   */\n      dup5\n        /* \"#utility.yul\":10060:10066   */\n      dup3\n        /* \"#utility.yul\":10053:10057   */\n      0x20\n        /* \"#utility.yul\":10045:10051   */\n      dup7\n        /* \"#utility.yul\":10041:10058   */\n      add\n        /* \"#utility.yul\":9993:10072   */\n      tag_365\n      jump\t// in\n    tag_547:\n        /* \"#utility.yul\":9984:10072   */\n      swap2\n      pop\n        /* \"#utility.yul\":9800:10078   */\n      pop\n        /* \"#utility.yul\":9738:10078   */\n      swap3\n      swap2\n      pop\n      pop\n      jump\t// out\n        /* \"#utility.yul\":10084:10395   */\n    tag_367:\n        /* \"#utility.yul\":10161:10165   */\n      0x00\n        /* \"#utility.yul\":10251:10269   */\n      0xffffffffffffffff\n        /* \"#utility.yul\":10243:10249   */\n      dup3\n        /* \"#utility.yul\":10240:10270   */\n      gt\n        /* \"#utility.yul\":10237:10293   */\n      iszero\n      tag_549\n      jumpi\n        /* \"#utility.yul\":10273:10291   */\n      tag_550\n      tag_360\n      jump\t// in\n    tag_550:\n        /* \"#utility.yul\":10237:10293   */\n    tag_549:\n        /* \"#utility.yul\":10323:10327   */\n      0x20\n        /* \"#utility.yul\":10315:10321   */\n      dup3\n        /* \"#utility.yul\":10311:10328   */\n      mul\n        /* \"#utility.yul\":10303:10328   */\n      swap1\n      pop\n        /* \"#utility.yul\":10383:10387   */\n      0x20\n        /* \"#utility.yul\":10377:10381   */\n      dup2\n        /* \"#utility.yul\":10373:10388   */\n      add\n        /* \"#utility.yul\":10365:10388   */\n      swap1\n      pop\n        /* \"#utility.yul\":10084:10395   */\n      swap2\n      swap1\n      pop\n      jump\t// out\n        /* \"#utility.yul\":10401:10518   */\n    tag_368:\n        /* \"#utility.yul\":10510:10511   */\n      0x00\n        /* \"#utility.yul\":10507:10508   */\n      dup1\n        /* \"#utility.yul\":10500:10512   */\n      revert\n        /* \"#utility.yul\":10541:11251   */\n    tag_369:\n        /* \"#utility.yul\":10637:10642   */\n      0x00\n        /* \"#utility.yul\":10662:10743   */\n      tag_553\n        /* \"#utility.yul\":10678:10742   */\n      tag_554\n        /* \"#utility.yul\":10735:10741   */\n      dup5\n        /* \"#utility.yul\":10678:10742   */\n      tag_367\n      jump\t// in\n    tag_554:\n        /* \"#utility.yul\":10662:10743   */\n      tag_362\n      jump\t// in\n    tag_553:\n        /* \"#utility.yul\":10653:10743   */\n      swap1\n      pop\n        /* \"#utility.yul\":10763:10768   */\n      dup1\n        /* \"#utility.yul\":10792:10798   */\n      dup4\n        /* \"#utility.yul\":10785:10790   */\n      dup3\n        /* \"#utility.yul\":10778:10799   */\n      mstore\n        /* \"#utility.yul\":10826:10830   */\n      0x20\n        /* \"#utility.yul\":10819:10824   */\n      dup3\n        /* \"#utility.yul\":10815:10831   */\n      add\n        /* \"#utility.yul\":10808:10831   */\n      swap1\n      pop\n        /* \"#utility.yul\":10879:10883   */\n      0x20\n        /* \"#utility.yul\":10871:10877   */\n      dup5\n        /* \"#utility.yul\":10867:10884   */\n      mul\n        /* \"#utility.yul\":10859:10865   */\n      dup4\n        /* \"#utility.yul\":10855:10885   */\n      add\n        /* \"#utility.yul\":10908:10911   */\n      dup6\n        /* \"#utility.yul\":10900:10906   */\n      dup2\n        /* \"#utility.yul\":10897:10912   */\n      gt\n        /* \"#utility.yul\":10894:11016   */\n      iszero\n      tag_555\n      jumpi\n        /* \"#utility.yul\":10927:11006   */\n      tag_556\n      tag_368\n      jump\t// in\n    tag_556:\n        /* \"#utility.yul\":10894:11016   */\n    tag_555:\n        /* \"#utility.yul\":11042:11048   */\n      dup4\n        /* \"#utility.yul\":11025:11245   */\n    tag_557:\n        /* \"#utility.yul\":11059:11065   */\n      dup2\n        /* \"#utility.yul\":11054:11057   */\n      dup2\n        /* \"#utility.yul\":11051:11066   */\n      lt\n        /* \"#utility.yul\":11025:11245   */\n      iszero\n      tag_559\n      jumpi\n        /* \"#utility.yul\":11134:11137   */\n      dup1\n        /* \"#utility.yul\":11163:11200   */\n      tag_560\n        /* \"#utility.yul\":11196:11199   */\n      dup9\n        /* \"#utility.yul\":11184:11194   */\n      dup3\n        /* \"#utility.yul\":11163:11200   */\n      tag_354\n      jump\t// in\n    tag_560:\n        /* \"#utility.yul\":11158:11161   */\n      dup5\n        /* \"#utility.yul\":11151:11201   */\n      mstore\n        /* \"#utility.yul\":11230:11234   */\n      0x20\n        /* \"#utility.yul\":11225:11228   */\n      dup5\n        /* \"#utility.yul\":11221:11235   */\n      add\n        /* \"#utility.yul\":11214:11235   */\n      swap4\n      pop\n        /* \"#utility.yul\":11101:11245   */\n      pop\n        /* \"#utility.yul\":11085:11089   */\n      0x20\n        /* \"#utility.yul\":11080:11083   */\n      dup2\n        /* \"#utility.yul\":11076:11090   */\n      add\n        /* \"#utility.yul\":11069:11090   */\n      swap1\n      pop\n        /* \"#utility.yul\":11025:11245   */\n      jump(tag_557)\n    tag_559:\n        /* \"#utility.yul\":11029:11050   */\n      pop\n        /* \"#utility.yul\":10643:11251   */\n      pop\n      pop\n        /* \"#utility.yul\":10541:11251   */\n      swap4\n      swap3\n      pop\n      pop\n      pop\n      jump\t// out\n        /* \"#utility.yul\":11274:11644   */\n    tag_370:\n        /* \"#utility.yul\":11345:11350   */\n      0x00\n        /* \"#utility.yul\":11394:11397   */\n      dup3\n        /* \"#utility.yul\":11387:11391   */\n      0x1f\n        /* \"#utility.yul\":11379:11385   */\n      dup4\n        /* \"#utility.yul\":11375:11392   */\n      add\n        /* \"#utility.yul\":11371:11398   */\n      slt\n        /* \"#utility.yul\":11361:11483   */\n      tag_562\n      jumpi\n        /* \"#utility.yul\":11402:11481   */\n      tag_563\n      tag_358\n      jump\t// in\n    tag_563:\n        /* \"#utility.yul\":11361:11483   */\n    tag_562:\n        /* \"#utility.yul\":11519:11525   */\n      dup2\n        /* \"#utility.yul\":11506:11526   */\n      calldataload\n        /* \"#utility.yul\":11544:11638   */\n      tag_564\n        /* \"#utility.yul\":11634:11637   */\n      dup5\n        /* \"#utility.yul\":11626:11632   */\n      dup3\n        /* \"#utility.yul\":11619:11623   */\n      0x20\n        /* \"#utility.yul\":11611:11617   */\n      dup7\n        /* \"#utility.yul\":11607:11624   */\n      add\n        /* \"#utility.yul\":11544:11638   */\n      tag_369\n      jump\t// in\n    tag_564:\n        /* \"#utility.yul\":11535:11638   */\n      swap2\n      pop\n        /* \"#utility.yul\":11351:11644   */\n      pop\n        /* \"#utility.yul\":11274:11644   */\n      swap3\n      swap2\n      pop\n      pop\n      jump\t// out\n        /* \"#utility.yul\":11650:13599   */\n    tag_75:\n        /* \"#utility.yul\":11832:11838   */\n      0x00\n        /* \"#utility.yul\":11840:11846   */\n      dup1\n        /* \"#utility.yul\":11848:11854   */\n      0x00\n        /* \"#utility.yul\":11856:11862   */\n      dup1\n        /* \"#utility.yul\":11864:11870   */\n      0x00\n        /* \"#utility.yul\":11872:11878   */\n      dup1\n        /* \"#utility.yul\":11880:11886   */\n      0x00\n        /* \"#utility.yul\":11888:11894   */\n      dup1\n        /* \"#utility.yul\":11937:11940   */\n      0x0100\n        /* \"#utility.yul\":11925:11934   */\n      dup10\n        /* \"#utility.yul\":11916:11923   */\n      dup12\n        /* \"#utility.yul\":11912:11935   */\n      sub\n        /* \"#utility.yul\":11908:11941   */\n      slt\n        /* \"#utility.yul\":11905:12025   */\n      iszero\n      tag_566\n      jumpi\n        /* \"#utility.yul\":11944:12023   */\n      tag_567\n      tag_347\n      jump\t// in\n    tag_567:\n        /* \"#utility.yul\":11905:12025   */\n    tag_566:\n        /* \"#utility.yul\":12092:12093   */\n      0x00\n        /* \"#utility.yul\":12081:12090   */\n      dup10\n        /* \"#utility.yul\":12077:12094   */\n      add\n        /* \"#utility.yul\":12064:12095   */\n      calldataload\n        /* \"#utility.yul\":12122:12140   */\n      0xffffffffffffffff\n        /* \"#utility.yul\":12114:12120   */\n      dup2\n        /* \"#utility.yul\":12111:12141   */\n      gt\n        /* \"#utility.yul\":12108:12225   */\n      iszero\n      tag_568\n      jumpi\n        /* \"#utility.yul\":12144:12223   */\n      tag_569\n      tag_348\n      jump\t// in\n    tag_569:\n        /* \"#utility.yul\":12108:12225   */\n    tag_568:\n        /* \"#utility.yul\":12249:12312   */\n      tag_570\n        /* \"#utility.yul\":12304:12311   */\n      dup12\n        /* \"#utility.yul\":12295:12301   */\n      dup3\n        /* \"#utility.yul\":12284:12293   */\n      dup13\n        /* \"#utility.yul\":12280:12302   */\n      add\n        /* \"#utility.yul\":12249:12312   */\n      tag_366\n      jump\t// in\n    tag_570:\n        /* \"#utility.yul\":12239:12312   */\n      swap9\n      pop\n        /* \"#utility.yul\":12035:12322   */\n      pop\n        /* \"#utility.yul\":12361:12363   */\n      0x20\n        /* \"#utility.yul\":12387:12440   */\n      tag_571\n        /* \"#utility.yul\":12432:12439   */\n      dup12\n        /* \"#utility.yul\":12423:12429   */\n      dup3\n        /* \"#utility.yul\":12412:12421   */\n      dup13\n        /* \"#utility.yul\":12408:12430   */\n      add\n        /* \"#utility.yul\":12387:12440   */\n      tag_354\n      jump\t// in\n    tag_571:\n        /* \"#utility.yul\":12377:12440   */\n      swap8\n      pop\n        /* \"#utility.yul\":12332:12450   */\n      pop\n        /* \"#utility.yul\":12489:12491   */\n      0x40\n        /* \"#utility.yul\":12515:12568   */\n      tag_572\n        /* \"#utility.yul\":12560:12567   */\n      dup12\n        /* \"#utility.yul\":12551:12557   */\n      dup3\n        /* \"#utility.yul\":12540:12549   */\n      dup13\n        /* \"#utility.yul\":12536:12558   */\n      add\n        /* \"#utility.yul\":12515:12568   */\n      tag_354\n      jump\t// in\n    tag_572:\n        /* \"#utility.yul\":12505:12568   */\n      swap7\n      pop\n        /* \"#utility.yul\":12460:12578   */\n      pop\n        /* \"#utility.yul\":12617:12619   */\n      0x60\n        /* \"#utility.yul\":12643:12696   */\n      tag_573\n        /* \"#utility.yul\":12688:12695   */\n      dup12\n        /* \"#utility.yul\":12679:12685   */\n      dup3\n        /* \"#utility.yul\":12668:12677   */\n      dup13\n        /* \"#utility.yul\":12664:12686   */\n      add\n        /* \"#utility.yul\":12643:12696   */\n      tag_354\n      jump\t// in\n    tag_573:\n        /* \"#utility.yul\":12633:12696   */\n      swap6\n      pop\n        /* \"#utility.yul\":12588:12706   */\n      pop\n        /* \"#utility.yul\":12745:12748   */\n      0x80\n        /* \"#utility.yul\":12772:12825   */\n      tag_574\n        /* \"#utility.yul\":12817:12824   */\n      dup12\n        /* \"#utility.yul\":12808:12814   */\n      dup3\n        /* \"#utility.yul\":12797:12806   */\n      dup13\n        /* \"#utility.yul\":12793:12815   */\n      add\n        /* \"#utility.yul\":12772:12825   */\n      tag_354\n      jump\t// in\n    tag_574:\n        /* \"#utility.yul\":12762:12825   */\n      swap5\n      pop\n        /* \"#utility.yul\":12716:12835   */\n      pop\n        /* \"#utility.yul\":12874:12877   */\n      0xa0\n        /* \"#utility.yul\":12901:12954   */\n      tag_575\n        /* \"#utility.yul\":12946:12953   */\n      dup12\n        /* \"#utility.yul\":12937:12943   */\n      dup3\n        /* \"#utility.yul\":12926:12935   */\n      dup13\n        /* \"#utility.yul\":12922:12944   */\n      add\n        /* \"#utility.yul\":12901:12954   */\n      tag_354\n      jump\t// in\n    tag_575:\n        /* \"#utility.yul\":12891:12954   */\n      swap4\n      pop\n        /* \"#utility.yul\":12845:12964   */\n      pop\n        /* \"#utility.yul\":13031:13034   */\n      0xc0\n        /* \"#utility.yul\":13020:13029   */\n      dup10\n        /* \"#utility.yul\":13016:13035   */\n      add\n        /* \"#utility.yul\":13003:13036   */\n      calldataload\n        /* \"#utility.yul\":13063:13081   */\n      0xffffffffffffffff\n        /* \"#utility.yul\":13055:13061   */\n      dup2\n        /* \"#utility.yul\":13052:13082   */\n      gt\n        /* \"#utility.yul\":13049:13166   */\n      iszero\n      tag_576\n      jumpi\n        /* \"#utility.yul\":13085:13164   */\n      tag_577\n      tag_348\n      jump\t// in\n    tag_577:\n        /* \"#utility.yul\":13049:13166   */\n    tag_576:\n        /* \"#utility.yul\":13190:13268   */\n      tag_578\n        /* \"#utility.yul\":13260:13267   */\n      dup12\n        /* \"#utility.yul\":13251:13257   */\n      dup3\n        /* \"#utility.yul\":13240:13249   */\n      dup13\n        /* \"#utility.yul\":13236:13258   */\n      add\n        /* \"#utility.yul\":13190:13268   */\n      tag_370\n      jump\t// in\n    tag_578:\n        /* \"#utility.yul\":13180:13268   */\n      swap3\n      pop\n        /* \"#utility.yul\":12974:13278   */\n      pop\n        /* \"#utility.yul\":13345:13348   */\n      0xe0\n        /* \"#utility.yul\":13334:13343   */\n      dup10\n        /* \"#utility.yul\":13330:13349   */\n      add\n        /* \"#utility.yul\":13317:13350   */\n      calldataload\n        /* \"#utility.yul\":13377:13395   */\n      0xffffffffffffffff\n        /* \"#utility.yul\":13369:13375   */\n      dup2\n        /* \"#utility.yul\":13366:13396   */\n      gt\n        /* \"#utility.yul\":13363:13480   */\n      iszero\n      tag_579\n      jumpi\n        /* \"#utility.yul\":13399:13478   */\n      tag_580\n      tag_348\n      jump\t// in\n    tag_580:\n        /* \"#utility.yul\":13363:13480   */\n    tag_579:\n        /* \"#utility.yul\":13504:13582   */\n      tag_581\n        /* \"#utility.yul\":13574:13581   */\n      dup12\n        /* \"#utility.yul\":13565:13571   */\n      dup3\n        /* \"#utility.yul\":13554:13563   */\n      dup13\n        /* \"#utility.yul\":13550:13572   */\n      add\n        /* \"#utility.yul\":13504:13582   */\n      tag_370\n      jump\t// in\n    tag_581:\n        /* \"#utility.yul\":13494:13582   */\n      swap2\n      pop\n        /* \"#utility.yul\":13288:13592   */\n      pop\n        /* \"#utility.yul\":11650:13599   */\n      swap3\n      swap6\n      swap9\n      pop\n      swap3\n      swap6\n      swap9\n      swap1\n      swap4\n      swap7\n      pop\n      jump\t// out\n        /* \"#utility.yul\":13605:13665   */\n    tag_371:\n        /* \"#utility.yul\":13633:13636   */\n      0x00\n        /* \"#utility.yul\":13654:13659   */\n      dup2\n        /* \"#utility.yul\":13647:13659   */\n      swap1\n      pop\n        /* \"#utility.yul\":13605:13665   */\n      swap2\n      swap1\n      pop\n      jump\t// out\n        /* \"#utility.yul\":13671:13813   */\n    tag_372:\n        /* \"#utility.yul\":13721:13730   */\n      0x00\n        /* \"#utility.yul\":13754:13807   */\n      tag_584\n        /* \"#utility.yul\":13772:13806   */\n      tag_585\n        /* \"#utility.yul\":13781:13805   */\n      tag_586\n        /* \"#utility.yul\":13799:13804   */\n      dup5\n        /* \"#utility.yul\":13781:13805   */\n      tag_349\n      jump\t// in\n    tag_586:\n        /* \"#utility.yul\":13772:13806   */\n      tag_371\n      jump\t// in\n    tag_585:\n        /* \"#utility.yul\":13754:13807   */\n      tag_349\n      jump\t// in\n    tag_584:\n        /* \"#utility.yul\":13741:13807   */\n      swap1\n      pop\n        /* \"#utility.yul\":13671:13813   */\n      swap2\n      swap1\n      pop\n      jump\t// out\n        /* \"#utility.yul\":13819:13945   */\n    tag_373:\n        /* \"#utility.yul\":13869:13878   */\n      0x00\n        /* \"#utility.yul\":13902:13939   */\n      tag_588\n        /* \"#utility.yul\":13933:13938   */\n      dup3\n        /* \"#utility.yul\":13902:13939   */\n      tag_372\n      jump\t// in\n    tag_588:\n        /* \"#utility.yul\":13889:13939   */\n      swap1\n      pop\n        /* \"#utility.yul\":13819:13945   */\n      swap2\n      swap1\n      pop\n      jump\t// out\n        /* \"#utility.yul\":13951:14091   */\n    tag_374:\n        /* \"#utility.yul\":14015:14024   */\n      0x00\n        /* \"#utility.yul\":14048:14085   */\n      tag_590\n        /* \"#utility.yul\":14079:14084   */\n      dup3\n        /* \"#utility.yul\":14048:14085   */\n      tag_373\n      jump\t// in\n    tag_590:\n        /* \"#utility.yul\":14035:14085   */\n      swap1\n      pop\n        /* \"#utility.yul\":13951:14091   */\n      swap2\n      swap1\n      pop\n      jump\t// out\n        /* \"#utility.yul\":14097:14256   */\n    tag_375:\n        /* \"#utility.yul\":14198:14249   */\n      tag_592\n        /* \"#utility.yul\":14243:14248   */\n      dup2\n        /* \"#utility.yul\":14198:14249   */\n      tag_374\n      jump\t// in\n    tag_592:\n        /* \"#utility.yul\":14193:14196   */\n      dup3\n        /* \"#utility.yul\":14186:14250   */\n      mstore\n        /* \"#utility.yul\":14097:14256   */\n      pop\n      pop\n      jump\t// out\n        /* \"#utility.yul\":14262:14512   */\n    tag_92:\n        /* \"#utility.yul\":14369:14373   */\n      0x00\n        /* \"#utility.yul\":14407:14409   */\n      0x20\n        /* \"#utility.yul\":14396:14405   */\n      dup3\n        /* \"#utility.yul\":14392:14410   */\n      add\n        /* \"#utility.yul\":14384:14410   */\n      swap1\n      pop\n        /* \"#utility.yul\":14420:14505   */\n      tag_594\n        /* \"#utility.yul\":14502:14503   */\n      0x00\n        /* \"#utility.yul\":14491:14500   */\n      dup4\n        /* \"#utility.yul\":14487:14504   */\n      add\n        /* \"#utility.yul\":14478:14484   */\n      dup5\n        /* \"#utility.yul\":14420:14505   */\n      tag_375\n      jump\t// in\n    tag_594:\n        /* \"#utility.yul\":14262:14512   */\n      swap3\n      swap2\n      pop\n      pop\n      jump\t// out\n        /* \"#utility.yul\":14518:14698   */\n    tag_376:\n        /* \"#utility.yul\":14566:14643   */\n      0x4e487b7100000000000000000000000000000000000000000000000000000000\n        /* \"#utility.yul\":14563:14564   */\n      0x00\n        /* \"#utility.yul\":14556:14644   */\n      mstore\n        /* \"#utility.yul\":14663:14667   */\n      0x22\n        /* \"#utility.yul\":14660:14661   */\n      0x04\n        /* \"#utility.yul\":14653:14668   */\n      mstore\n        /* \"#utility.yul\":14687:14691   */\n      0x24\n        /* \"#utility.yul\":14684:14685   */\n      0x00\n        /* \"#utility.yul\":14677:14692   */\n      revert\n        /* \"#utility.yul\":14704:15024   */\n    tag_95:\n        /* \"#utility.yul\":14748:14754   */\n      0x00\n        /* \"#utility.yul\":14785:14786   */\n      0x02\n        /* \"#utility.yul\":14779:14783   */\n      dup3\n        /* \"#utility.yul\":14775:14787   */\n      div\n        /* \"#utility.yul\":14765:14787   */\n      swap1\n      pop\n        /* \"#utility.yul\":14832:14833   */\n      0x01\n        /* \"#utility.yul\":14826:14830   */\n      dup3\n        /* \"#utility.yul\":14822:14834   */\n      and\n        /* \"#utility.yul\":14853:14871   */\n      dup1\n        /* \"#utility.yul\":14843:14924   */\n      tag_597\n      jumpi\n        /* \"#utility.yul\":14909:14913   */\n      0x7f\n        /* \"#utility.yul\":14901:14907   */\n      dup3\n        /* \"#utility.yul\":14897:14914   */\n      and\n        /* \"#utility.yul\":14887:14914   */\n      swap2\n      pop\n        /* \"#utility.yul\":14843:14924   */\n    tag_597:\n        /* \"#utility.yul\":14971:14973   */\n      0x20\n        /* \"#utility.yul\":14963:14969   */\n      dup3\n        /* \"#utility.yul\":14960:14974   */\n      lt\n        /* \"#utility.yul\":14940:14958   */\n      dup2\n        /* \"#utility.yul\":14937:14975   */\n      sub\n        /* \"#utility.yul\":14934:15018   */\n      tag_598\n      jumpi\n        /* \"#utility.yul\":14990:15008   */\n      tag_599\n      tag_376\n      jump\t// in\n    tag_599:\n        /* \"#utility.yul\":14934:15018   */\n    tag_598:\n        /* \"#utility.yul\":14755:15024   */\n      pop\n        /* \"#utility.yul\":14704:15024   */\n      swap2\n      swap1\n      pop\n      jump\t// out\n        /* \"#utility.yul\":15030:15193   */\n    tag_377:\n        /* \"#utility.yul\":15170:15185   */\n      0x6e6f742073657420746f6b656e00000000000000000000000000000000000000\n        /* \"#utility.yul\":15166:15167   */\n      0x00\n        /* \"#utility.yul\":15158:15164   */\n      dup3\n        /* \"#utility.yul\":15154:15168   */\n      add\n        /* \"#utility.yul\":15147:15186   */\n      mstore\n        /* \"#utility.yul\":15030:15193   */\n      pop\n      jump\t// out\n        /* \"#utility.yul\":15199:15565   */\n    tag_378:\n        /* \"#utility.yul\":15341:15344   */\n      0x00\n        /* \"#utility.yul\":15362:15429   */\n      tag_602\n        /* \"#utility.yul\":15426:15428   */\n      0x0d\n        /* \"#utility.yul\":15421:15424   */\n      dup4\n        /* \"#utility.yul\":15362:15429   */\n      tag_342\n      jump\t// in\n    tag_602:\n        /* \"#utility.yul\":15355:15429   */\n      swap2\n      pop\n        /* \"#utility.yul\":15438:15531   */\n      tag_603\n        /* \"#utility.yul\":15527:15530   */\n      dup3\n        /* \"#utility.yul\":15438:15531   */\n      tag_377\n      jump\t// in\n    tag_603:\n        /* \"#utility.yul\":15556:15558   */\n      0x20\n        /* \"#utility.yul\":15551:15554   */\n      dup3\n        /* \"#utility.yul\":15547:15559   */\n      add\n        /* \"#utility.yul\":15540:15559   */\n      swap1\n      pop\n        /* \"#utility.yul\":15199:15565   */\n      swap2\n      swap1\n      pop\n      jump\t// out\n        /* \"#utility.yul\":15571:15990   */\n    tag_103:\n        /* \"#utility.yul\":15737:15741   */\n      0x00\n        /* \"#utility.yul\":15775:15777   */\n      0x20\n        /* \"#utility.yul\":15764:15773   */\n      dup3\n        /* \"#utility.yul\":15760:15778   */\n      add\n        /* \"#utility.yul\":15752:15778   */\n      swap1\n      pop\n        /* \"#utility.yul\":15824:15833   */\n      dup2\n        /* \"#utility.yul\":15818:15822   */\n      dup2\n        /* \"#utility.yul\":15814:15834   */\n      sub\n        /* \"#utility.yul\":15810:15811   */\n      0x00\n        /* \"#utility.yul\":15799:15808   */\n      dup4\n        /* \"#utility.yul\":15795:15812   */\n      add\n        /* \"#utility.yul\":15788:15835   */\n      mstore\n        /* \"#utility.yul\":15852:15983   */\n      tag_605\n        /* \"#utility.yul\":15978:15982   */\n      dup2\n        /* \"#utility.yul\":15852:15983   */\n      tag_378\n      jump\t// in\n    tag_605:\n        /* \"#utility.yul\":15844:15983   */\n      swap1\n      pop\n        /* \"#utility.yul\":15571:15990   */\n      swap2\n      swap1\n      pop\n      jump\t// out\n        /* \"#utility.yul\":15996:16177   */\n    tag_379:\n        /* \"#utility.yul\":16136:16169   */\n      0x5265656e7472616e637947756172643a207265656e7472616e742063616c6c00\n        /* \"#utility.yul\":16132:16133   */\n      0x00\n        /* \"#utility.yul\":16124:16130   */\n      dup3\n        /* \"#utility.yul\":16120:16134   */\n      add\n        /* \"#utility.yul\":16113:16170   */\n      mstore\n        /* \"#utility.yul\":15996:16177   */\n      pop\n      jump\t// out\n        /* \"#utility.yul\":16183:16549   */\n    tag_380:\n        /* \"#utility.yul\":16325:16328   */\n      0x00\n        /* \"#utility.yul\":16346:16413   */\n      tag_608\n        /* \"#utility.yul\":16410:16412   */\n      0x1f\n        /* \"#utility.yul\":16405:16408   */\n      dup4\n        /* \"#utility.yul\":16346:16413   */\n      tag_342\n      jump\t// in\n    tag_608:\n        /* \"#utility.yul\":16339:16413   */\n      swap2\n      pop\n        /* \"#utility.yul\":16422:16515   */\n      tag_609\n        /* \"#utility.yul\":16511:16514   */\n      dup3\n        /* \"#utility.yul\":16422:16515   */\n      tag_379\n      jump\t// in\n    tag_609:\n        /* \"#utility.yul\":16540:16542   */\n      0x20\n        /* \"#utility.yul\":16535:16538   */\n      dup3\n        /* \"#utility.yul\":16531:16543   */\n      add\n        /* \"#utility.yul\":16524:16543   */\n      swap1\n      pop\n        /* \"#utility.yul\":16183:16549   */\n      swap2\n      swap1\n      pop\n      jump\t// out\n        /* \"#utility.yul\":16555:16974   */\n    tag_107:\n        /* \"#utility.yul\":16721:16725   */\n      0x00\n        /* \"#utility.yul\":16759:16761   */\n      0x20\n        /* \"#utility.yul\":16748:16757   */\n      dup3\n        /* \"#utility.yul\":16744:16762   */\n      add\n        /* \"#utility.yul\":16736:16762   */\n      swap1\n      pop\n        /* \"#utility.yul\":16808:16817   */\n      dup2\n        /* \"#utility.yul\":16802:16806   */\n      dup2\n        /* \"#utility.yul\":16798:16818   */\n      sub\n        /* \"#utility.yul\":16794:16795   */\n      0x00\n        /* \"#utility.yul\":16783:16792   */\n      dup4\n        /* \"#utility.yul\":16779:16796   */\n      add\n        /* \"#utility.yul\":16772:16819   */\n      mstore\n        /* \"#utility.yul\":16836:16967   */\n      tag_611\n        /* \"#utility.yul\":16962:16966   */\n      dup2\n        /* \"#utility.yul\":16836:16967   */\n      tag_380\n      jump\t// in\n    tag_611:\n        /* \"#utility.yul\":16828:16967   */\n      swap1\n      pop\n        /* \"#utility.yul\":16555:16974   */\n      swap2\n      swap1\n      pop\n      jump\t// out\n        /* \"#utility.yul\":16980:17147   */\n    tag_381:\n        /* \"#utility.yul\":17120:17139   */\n      0x5265717569726520717479203c3d203130000000000000000000000000000000\n        /* \"#utility.yul\":17116:17117   */\n      0x00\n        /* \"#utility.yul\":17108:17114   */\n      dup3\n        /* \"#utility.yul\":17104:17118   */\n      add\n        /* \"#utility.yul\":17097:17140   */\n      mstore\n        /* \"#utility.yul\":16980:17147   */\n      pop\n      jump\t// out\n        /* \"#utility.yul\":17153:17519   */\n    tag_382:\n        /* \"#utility.yul\":17295:17298   */\n      0x00\n        /* \"#utility.yul\":17316:17383   */\n      tag_614\n        /* \"#utility.yul\":17380:17382   */\n      0x11\n        /* \"#utility.yul\":17375:17378   */\n      dup4\n        /* \"#utility.yul\":17316:17383   */\n      tag_342\n      jump\t// in\n    tag_614:\n        /* \"#utility.yul\":17309:17383   */\n      swap2\n      pop\n        /* \"#utility.yul\":17392:17485   */\n      tag_615\n        /* \"#utility.yul\":17481:17484   */\n      dup3\n        /* \"#utility.yul\":17392:17485   */\n      tag_381\n      jump\t// in\n    tag_615:\n        /* \"#utility.yul\":17510:17512   */\n      0x20\n        /* \"#utility.yul\":17505:17508   */\n      dup3\n        /* \"#utility.yul\":17501:17513   */\n      add\n        /* \"#utility.yul\":17494:17513   */\n      swap1\n      pop\n        /* \"#utility.yul\":17153:17519   */\n      swap2\n      swap1\n      pop\n      jump\t// out\n        /* \"#utility.yul\":17525:17944   */\n    tag_111:\n        /* \"#utility.yul\":17691:17695   */\n      0x00\n        /* \"#utility.yul\":17729:17731   */\n      0x20\n        /* \"#utility.yul\":17718:17727   */\n      dup3\n        /* \"#utility.yul\":17714:17732   */\n      add\n        /* \"#utility.yul\":17706:17732   */\n      swap1\n      pop\n        /* \"#utility.yul\":17778:17787   */\n      dup2\n        /* \"#utility.yul\":17772:17776   */\n      dup2\n        /* \"#utility.yul\":17768:17788   */\n      sub\n        /* \"#utility.yul\":17764:17765   */\n      0x00\n        /* \"#utility.yul\":17753:17762   */\n      dup4\n        /* \"#utility.yul\":17749:17766   */\n      add\n        /* \"#utility.yul\":17742:17789   */\n      mstore\n        /* \"#utility.yul\":17806:17937   */\n      tag_617\n        /* \"#utility.yul\":17932:17936   */\n      dup2\n        /* \"#utility.yul\":17806:17937   */\n      tag_382\n      jump\t// in\n    tag_617:\n        /* \"#utility.yul\":17798:17937   */\n      swap1\n      pop\n        /* \"#utility.yul\":17525:17944   */\n      swap2\n      swap1\n      pop\n      jump\t// out\n        /* \"#utility.yul\":17950:18114   */\n    tag_383:\n        /* \"#utility.yul\":18090:18106   */\n      0x47616d65206e6f7420666f756e64000000000000000000000000000000000000\n        /* \"#utility.yul\":18086:18087   */\n      0x00\n        /* \"#utility.yul\":18078:18084   */\n      dup3\n        /* \"#utility.yul\":18074:18088   */\n      add\n        /* \"#utility.yul\":18067:18107   */\n      mstore\n        /* \"#utility.yul\":17950:18114   */\n      pop\n      jump\t// out\n        /* \"#utility.yul\":18120:18486   */\n    tag_384:\n        /* \"#utility.yul\":18262:18265   */\n      0x00\n        /* \"#utility.yul\":18283:18350   */\n      tag_620\n        /* \"#utility.yul\":18347:18349   */\n      0x0e\n        /* \"#utility.yul\":18342:18345   */\n      dup4\n        /* \"#utility.yul\":18283:18350   */\n      tag_342\n      jump\t// in\n    tag_620:\n        /* \"#utility.yul\":18276:18350   */\n      swap2\n      pop\n        /* \"#utility.yul\":18359:18452   */\n      tag_621\n        /* \"#utility.yul\":18448:18451   */\n      dup3\n        /* \"#utility.yul\":18359:18452   */\n      tag_383\n      jump\t// in\n    tag_621:\n        /* \"#utility.yul\":18477:18479   */\n      0x20\n        /* \"#utility.yul\":18472:18475   */\n      dup3\n        /* \"#utility.yul\":18468:18480   */\n      add\n        /* \"#utility.yul\":18461:18480   */\n      swap1\n      pop\n        /* \"#utility.yul\":18120:18486   */\n      swap2\n      swap1\n      pop\n      jump\t// out\n        /* \"#utility.yul\":18492:18911   */\n    tag_114:\n        /* \"#utility.yul\":18658:18662   */\n      0x00\n        /* \"#utility.yul\":18696:18698   */\n      0x20\n        /* \"#utility.yul\":18685:18694   */\n      dup3\n        /* \"#utility.yul\":18681:18699   */\n      add\n        /* \"#utility.yul\":18673:18699   */\n      swap1\n      pop\n        /* \"#utility.yul\":18745:18754   */\n      dup2\n        /* \"#utility.yul\":18739:18743   */\n      dup2\n        /* \"#utility.yul\":18735:18755   */\n      sub\n        /* \"#utility.yul\":18731:18732   */\n      0x00\n        /* \"#utility.yul\":18720:18729   */\n      dup4\n        /* \"#utility.yul\":18716:18733   */\n      add\n        /* \"#utility.yul\":18709:18756   */\n      mstore\n        /* \"#utility.yul\":18773:18904   */\n      tag_623\n        /* \"#utility.yul\":18899:18903   */\n      dup2\n        /* \"#utility.yul\":18773:18904   */\n      tag_384\n      jump\t// in\n    tag_623:\n        /* \"#utility.yul\":18765:18904   */\n      swap1\n      pop\n        /* \"#utility.yul\":18492:18911   */\n      swap2\n      swap1\n      pop\n      jump\t// out\n        /* \"#utility.yul\":18917:19097   */\n    tag_385:\n        /* \"#utility.yul\":18965:19042   */\n      0x4e487b7100000000000000000000000000000000000000000000000000000000\n        /* \"#utility.yul\":18962:18963   */\n      0x00\n        /* \"#utility.yul\":18955:19043   */\n      mstore\n        /* \"#utility.yul\":19062:19066   */\n      0x11\n        /* \"#utility.yul\":19059:19060   */\n      0x04\n        /* \"#utility.yul\":19052:19067   */\n      mstore\n        /* \"#utility.yul\":19086:19090   */\n      0x24\n        /* \"#utility.yul\":19083:19084   */\n      0x00\n        /* \"#utility.yul\":19076:19091   */\n      revert\n        /* \"#utility.yul\":19103:19513   */\n    tag_116:\n        /* \"#utility.yul\":19143:19150   */\n      0x00\n        /* \"#utility.yul\":19166:19186   */\n      tag_626\n        /* \"#utility.yul\":19184:19185   */\n      dup3\n        /* \"#utility.yul\":19166:19186   */\n      tag_339\n      jump\t// in\n    tag_626:\n        /* \"#utility.yul\":19161:19186   */\n      swap2\n      pop\n        /* \"#utility.yul\":19200:19220   */\n      tag_627\n        /* \"#utility.yul\":19218:19219   */\n      dup4\n        /* \"#utility.yul\":19200:19220   */\n      tag_339\n      jump\t// in\n    tag_627:\n        /* \"#utility.yul\":19195:19220   */\n      swap3\n      pop\n        /* \"#utility.yul\":19255:19256   */\n      dup3\n        /* \"#utility.yul\":19252:19253   */\n      dup3\n        /* \"#utility.yul\":19248:19257   */\n      mul\n        /* \"#utility.yul\":19277:19307   */\n      tag_628\n        /* \"#utility.yul\":19295:19306   */\n      dup2\n        /* \"#utility.yul\":19277:19307   */\n      tag_339\n      jump\t// in\n    tag_628:\n        /* \"#utility.yul\":19266:19307   */\n      swap2\n      pop\n        /* \"#utility.yul\":19456:19457   */\n      dup3\n        /* \"#utility.yul\":19447:19454   */\n      dup3\n        /* \"#utility.yul\":19443:19458   */\n      div\n        /* \"#utility.yul\":19440:19441   */\n      dup5\n        /* \"#utility.yul\":19437:19459   */\n      eq\n        /* \"#utility.yul\":19417:19418   */\n      dup4\n        /* \"#utility.yul\":19410:19419   */\n      iszero\n        /* \"#utility.yul\":19390:19473   */\n      or\n        /* \"#utility.yul\":19367:19506   */\n      tag_629\n      jumpi\n        /* \"#utility.yul\":19486:19504   */\n      tag_630\n      tag_385\n      jump\t// in\n    tag_630:\n        /* \"#utility.yul\":19367:19506   */\n    tag_629:\n        /* \"#utility.yul\":19151:19513   */\n      pop\n        /* \"#utility.yul\":19103:19513   */\n      swap3\n      swap2\n      pop\n      pop\n      jump\t// out\n        /* \"#utility.yul\":19519:19662   */\n    tag_386:\n        /* \"#utility.yul\":19576:19581   */\n      0x00\n        /* \"#utility.yul\":19607:19613   */\n      dup2\n        /* \"#utility.yul\":19601:19614   */\n      mload\n        /* \"#utility.yul\":19592:19614   */\n      swap1\n      pop\n        /* \"#utility.yul\":19623:19656   */\n      tag_632\n        /* \"#utility.yul\":19650:19655   */\n      dup2\n        /* \"#utility.yul\":19623:19656   */\n      tag_353\n      jump\t// in\n    tag_632:\n        /* \"#utility.yul\":19519:19662   */\n      swap3\n      swap2\n      pop\n      pop\n      jump\t// out\n        /* \"#utility.yul\":19668:20019   */\n    tag_121:\n        /* \"#utility.yul\":19738:19744   */\n      0x00\n        /* \"#utility.yul\":19787:19789   */\n      0x20\n        /* \"#utility.yul\":19775:19784   */\n      dup3\n        /* \"#utility.yul\":19766:19773   */\n      dup5\n        /* \"#utility.yul\":19762:19785   */\n      sub\n        /* \"#utility.yul\":19758:19790   */\n      slt\n        /* \"#utility.yul\":19755:19874   */\n      iszero\n      tag_634\n      jumpi\n        /* \"#utility.yul\":19793:19872   */\n      tag_635\n      tag_347\n      jump\t// in\n    tag_635:\n        /* \"#utility.yul\":19755:19874   */\n    tag_634:\n        /* \"#utility.yul\":19913:19914   */\n      0x00\n        /* \"#utility.yul\":19938:20002   */\n      tag_636\n        /* \"#utility.yul\":19994:20001   */\n      dup5\n        /* \"#utility.yul\":19985:19991   */\n      dup3\n        /* \"#utility.yul\":19974:19983   */\n      dup6\n        /* \"#utility.yul\":19970:19992   */\n      add\n        /* \"#utility.yul\":19938:20002   */\n      tag_386\n      jump\t// in\n    tag_636:\n        /* \"#utility.yul\":19928:20002   */\n      swap2\n      pop\n        /* \"#utility.yul\":19884:20012   */\n      pop\n        /* \"#utility.yul\":19668:20019   */\n      swap3\n      swap2\n      pop\n      pop\n      jump\t// out\n        /* \"#utility.yul\":20025:20245   */\n    tag_387:\n        /* \"#utility.yul\":20165:20199   */\n      0x496e73756666696369656e742066756e647320696e20746865206163636f756e\n        /* \"#utility.yul\":20161:20162   */\n      0x00\n        /* \"#utility.yul\":20153:20159   */\n      dup3\n        /* \"#utility.yul\":20149:20163   */\n      add\n        /* \"#utility.yul\":20142:20200   */\n      mstore\n        /* \"#utility.yul\":20234:20237   */\n      0x7400000000000000000000000000000000000000000000000000000000000000\n        /* \"#utility.yul\":20229:20231   */\n      0x20\n        /* \"#utility.yul\":20221:20227   */\n      dup3\n        /* \"#utility.yul\":20217:20232   */\n      add\n        /* \"#utility.yul\":20210:20238   */\n      mstore\n        /* \"#utility.yul\":20025:20245   */\n      pop\n      jump\t// out\n        /* \"#utility.yul\":20251:20617   */\n    tag_388:\n        /* \"#utility.yul\":20393:20396   */\n      0x00\n        /* \"#utility.yul\":20414:20481   */\n      tag_639\n        /* \"#utility.yul\":20478:20480   */\n      0x21\n        /* \"#utility.yul\":20473:20476   */\n      dup4\n        /* \"#utility.yul\":20414:20481   */\n      tag_342\n      jump\t// in\n    tag_639:\n        /* \"#utility.yul\":20407:20481   */\n      swap2\n      pop\n        /* \"#utility.yul\":20490:20583   */\n      tag_640\n        /* \"#utility.yul\":20579:20582   */\n      dup3\n        /* \"#utility.yul\":20490:20583   */\n      tag_387\n      jump\t// in\n    tag_640:\n        /* \"#utility.yul\":20608:20610   */\n      0x40\n        /* \"#utility.yul\":20603:20606   */\n      dup3\n        /* \"#utility.yul\":20599:20611   */\n      add\n        /* \"#utility.yul\":20592:20611   */\n      swap1\n      pop\n        /* \"#utility.yul\":20251:20617   */\n      swap2\n      swap1\n      pop\n      jump\t// out\n        /* \"#utility.yul\":20623:21042   */\n    tag_128:\n        /* \"#utility.yul\":20789:20793   */\n      0x00\n        /* \"#utility.yul\":20827:20829   */\n      0x20\n        /* \"#utility.yul\":20816:20825   */\n      dup3\n        /* \"#utility.yul\":20812:20830   */\n      add\n        /* \"#utility.yul\":20804:20830   */\n      swap1\n      pop\n        /* \"#utility.yul\":20876:20885   */\n      dup2\n        /* \"#utility.yul\":20870:20874   */\n      dup2\n        /* \"#utility.yul\":20866:20886   */\n      sub\n        /* \"#utility.yul\":20862:20863   */\n      0x00\n        /* \"#utility.yul\":20851:20860   */\n      dup4\n        /* \"#utility.yul\":20847:20864   */\n      add\n        /* \"#utility.yul\":20840:20887   */\n      mstore\n        /* \"#utility.yul\":20904:21035   */\n      tag_642\n        /* \"#utility.yul\":21030:21034   */\n      dup2\n        /* \"#utility.yul\":20904:21035   */\n      tag_388\n      jump\t// in\n    tag_642:\n        /* \"#utility.yul\":20896:21035   */\n      swap1\n      pop\n        /* \"#utility.yul\":20623:21042   */\n      swap2\n      swap1\n      pop\n      jump\t// out\n        /* \"#utility.yul\":21048:21490   */\n    tag_130:\n        /* \"#utility.yul\":21197:21201   */\n      0x00\n        /* \"#utility.yul\":21235:21237   */\n      0x60\n        /* \"#utility.yul\":21224:21233   */\n      dup3\n        /* \"#utility.yul\":21220:21238   */\n      add\n        /* \"#utility.yul\":21212:21238   */\n      swap1\n      pop\n        /* \"#utility.yul\":21248:21319   */\n      tag_644\n        /* \"#utility.yul\":21316:21317   */\n      0x00\n        /* \"#utility.yul\":21305:21314   */\n      dup4\n        /* \"#utility.yul\":21301:21318   */\n      add\n        /* \"#utility.yul\":21292:21298   */\n      dup7\n        /* \"#utility.yul\":21248:21319   */\n      tag_355\n      jump\t// in\n    tag_644:\n        /* \"#utility.yul\":21329:21401   */\n      tag_645\n        /* \"#utility.yul\":21397:21399   */\n      0x20\n        /* \"#utility.yul\":21386:21395   */\n      dup4\n        /* \"#utility.yul\":21382:21400   */\n      add\n        /* \"#utility.yul\":21373:21379   */\n      dup6\n        /* \"#utility.yul\":21329:21401   */\n      tag_355\n      jump\t// in\n    tag_645:\n        /* \"#utility.yul\":21411:21483   */\n      tag_646\n        /* \"#utility.yul\":21479:21481   */\n      0x40\n        /* \"#utility.yul\":21468:21477   */\n      dup4\n        /* \"#utility.yul\":21464:21482   */\n      add\n        /* \"#utility.yul\":21455:21461   */\n      dup5\n        /* \"#utility.yul\":21411:21483   */\n      tag_340\n      jump\t// in\n    tag_646:\n        /* \"#utility.yul\":21048:21490   */\n      swap5\n      swap4\n      pop\n      pop\n      pop\n      pop\n      jump\t// out\n        /* \"#utility.yul\":21496:21612   */\n    tag_389:\n        /* \"#utility.yul\":21566:21587   */\n      tag_648\n        /* \"#utility.yul\":21581:21586   */\n      dup2\n        /* \"#utility.yul\":21566:21587   */\n      tag_356\n      jump\t// in\n    tag_648:\n        /* \"#utility.yul\":21559:21564   */\n      dup2\n        /* \"#utility.yul\":21556:21588   */\n      eq\n        /* \"#utility.yul\":21546:21606   */\n      tag_649\n      jumpi\n        /* \"#utility.yul\":21602:21603   */\n      0x00\n        /* \"#utility.yul\":21599:21600   */\n      dup1\n        /* \"#utility.yul\":21592:21604   */\n      revert\n        /* \"#utility.yul\":21546:21606   */\n    tag_649:\n        /* \"#utility.yul\":21496:21612   */\n      pop\n      jump\t// out\n        /* \"#utility.yul\":21618:21755   */\n    tag_390:\n        /* \"#utility.yul\":21672:21677   */\n      0x00\n        /* \"#utility.yul\":21703:21709   */\n      dup2\n        /* \"#utility.yul\":21697:21710   */\n      mload\n        /* \"#utility.yul\":21688:21710   */\n      swap1\n      pop\n        /* \"#utility.yul\":21719:21749   */\n      tag_651\n        /* \"#utility.yul\":21743:21748   */\n      dup2\n        /* \"#utility.yul\":21719:21749   */\n      tag_389\n      jump\t// in\n    tag_651:\n        /* \"#utility.yul\":21618:21755   */\n      swap3\n      swap2\n      pop\n      pop\n      jump\t// out\n        /* \"#utility.yul\":21761:22106   */\n    tag_134:\n        /* \"#utility.yul\":21828:21834   */\n      0x00\n        /* \"#utility.yul\":21877:21879   */\n      0x20\n        /* \"#utility.yul\":21865:21874   */\n      dup3\n        /* \"#utility.yul\":21856:21863   */\n      dup5\n        /* \"#utility.yul\":21852:21875   */\n      sub\n        /* \"#utility.yul\":21848:21880   */\n      slt\n        /* \"#utility.yul\":21845:21964   */\n      iszero\n      tag_653\n      jumpi\n        /* \"#utility.yul\":21883:21962   */\n      tag_654\n      tag_347\n      jump\t// in\n    tag_654:\n        /* \"#utility.yul\":21845:21964   */\n    tag_653:\n        /* \"#utility.yul\":22003:22004   */\n      0x00\n        /* \"#utility.yul\":22028:22089   */\n      tag_655\n        /* \"#utility.yul\":22081:22088   */\n      dup5\n        /* \"#utility.yul\":22072:22078   */\n      dup3\n        /* \"#utility.yul\":22061:22070   */\n      dup6\n        /* \"#utility.yul\":22057:22079   */\n      add\n        /* \"#utility.yul\":22028:22089   */\n      tag_390\n      jump\t// in\n    tag_655:\n        /* \"#utility.yul\":22018:22089   */\n      swap2\n      pop\n        /* \"#utility.yul\":21974:22099   */\n      pop\n        /* \"#utility.yul\":21761:22106   */\n      swap3\n      swap2\n      pop\n      pop\n      jump\t// out\n        /* \"#utility.yul\":22112:22306   */\n    tag_140:\n        /* \"#utility.yul\":22152:22156   */\n      0x00\n        /* \"#utility.yul\":22172:22192   */\n      tag_657\n        /* \"#utility.yul\":22190:22191   */\n      dup3\n        /* \"#utility.yul\":22172:22192   */\n      tag_339\n      jump\t// in\n    tag_657:\n        /* \"#utility.yul\":22167:22192   */\n      swap2\n      pop\n        /* \"#utility.yul\":22206:22226   */\n      tag_658\n        /* \"#utility.yul\":22224:22225   */\n      dup4\n        /* \"#utility.yul\":22206:22226   */\n      tag_339\n      jump\t// in\n    tag_658:\n        /* \"#utility.yul\":22201:22226   */\n      swap3\n      pop\n        /* \"#utility.yul\":22250:22251   */\n      dup3\n        /* \"#utility.yul\":22247:22248   */\n      dup3\n        /* \"#utility.yul\":22243:22252   */\n      sub\n        /* \"#utility.yul\":22235:22252   */\n      swap1\n      pop\n        /* \"#utility.yul\":22274:22275   */\n      dup2\n        /* \"#utility.yul\":22268:22272   */\n      dup2\n        /* \"#utility.yul\":22265:22276   */\n      gt\n        /* \"#utility.yul\":22262:22299   */\n      iszero\n      tag_659\n      jumpi\n        /* \"#utility.yul\":22279:22297   */\n      tag_660\n      tag_385\n      jump\t// in\n    tag_660:\n        /* \"#utility.yul\":22262:22299   */\n    tag_659:\n        /* \"#utility.yul\":22112:22306   */\n      swap3\n      swap2\n      pop\n      pop\n      jump\t// out\n        /* \"#utility.yul\":22312:22492   */\n    tag_391:\n        /* \"#utility.yul\":22360:22437   */\n      0x4e487b7100000000000000000000000000000000000000000000000000000000\n        /* \"#utility.yul\":22357:22358   */\n      0x00\n        /* \"#utility.yul\":22350:22438   */\n      mstore\n        /* \"#utility.yul\":22457:22461   */\n      0x12\n        /* \"#utility.yul\":22454:22455   */\n      0x04\n        /* \"#utility.yul\":22447:22462   */\n      mstore\n        /* \"#utility.yul\":22481:22485   */\n      0x24\n        /* \"#utility.yul\":22478:22479   */\n      0x00\n        /* \"#utility.yul\":22471:22486   */\n      revert\n        /* \"#utility.yul\":22498:22683   */\n    tag_143:\n        /* \"#utility.yul\":22538:22539   */\n      0x00\n        /* \"#utility.yul\":22555:22575   */\n      tag_663\n        /* \"#utility.yul\":22573:22574   */\n      dup3\n        /* \"#utility.yul\":22555:22575   */\n      tag_339\n      jump\t// in\n    tag_663:\n        /* \"#utility.yul\":22550:22575   */\n      swap2\n      pop\n        /* \"#utility.yul\":22589:22609   */\n      tag_664\n        /* \"#utility.yul\":22607:22608   */\n      dup4\n        /* \"#utility.yul\":22589:22609   */\n      tag_339\n      jump\t// in\n    tag_664:\n        /* \"#utility.yul\":22584:22609   */\n      swap3\n      pop\n        /* \"#utility.yul\":22628:22629   */\n      dup3\n        /* \"#utility.yul\":22618:22653   */\n      tag_665\n      jumpi\n        /* \"#utility.yul\":22633:22651   */\n      tag_666\n      tag_391\n      jump\t// in\n    tag_666:\n        /* \"#utility.yul\":22618:22653   */\n    tag_665:\n        /* \"#utility.yul\":22675:22676   */\n      dup3\n        /* \"#utility.yul\":22672:22673   */\n      dup3\n        /* \"#utility.yul\":22668:22677   */\n      div\n        /* \"#utility.yul\":22663:22677   */\n      swap1\n      pop\n        /* \"#utility.yul\":22498:22683   */\n      swap3\n      swap2\n      pop\n      pop\n      jump\t// out\n        /* \"#utility.yul\":22689:23021   */\n    tag_147:\n        /* \"#utility.yul\":22810:22814   */\n      0x00\n        /* \"#utility.yul\":22848:22850   */\n      0x40\n        /* \"#utility.yul\":22837:22846   */\n      dup3\n        /* \"#utility.yul\":22833:22851   */\n      add\n        /* \"#utility.yul\":22825:22851   */\n      swap1\n      pop\n        /* \"#utility.yul\":22861:22932   */\n      tag_668\n        /* \"#utility.yul\":22929:22930   */\n      0x00\n        /* \"#utility.yul\":22918:22927   */\n      dup4\n        /* \"#utility.yul\":22914:22931   */\n      add\n        /* \"#utility.yul\":22905:22911   */\n      dup6\n        /* \"#utility.yul\":22861:22932   */\n      tag_355\n      jump\t// in\n    tag_668:\n        /* \"#utility.yul\":22942:23014   */\n      tag_669\n        /* \"#utility.yul\":23010:23012   */\n      0x20\n        /* \"#utility.yul\":22999:23008   */\n      dup4\n        /* \"#utility.yul\":22995:23013   */\n      add\n        /* \"#utility.yul\":22986:22992   */\n      dup5\n        /* \"#utility.yul\":22942:23014   */\n      tag_340\n      jump\t// in\n    tag_669:\n        /* \"#utility.yul\":22689:23021   */\n      swap4\n      swap3\n      pop\n      pop\n      pop\n      jump\t// out\n        /* \"#utility.yul\":23027:23218   */\n    tag_171:\n        /* \"#utility.yul\":23067:23070   */\n      0x00\n        /* \"#utility.yul\":23086:23106   */\n      tag_671\n        /* \"#utility.yul\":23104:23105   */\n      dup3\n        /* \"#utility.yul\":23086:23106   */\n      tag_339\n      jump\t// in\n    tag_671:\n        /* \"#utility.yul\":23081:23106   */\n      swap2\n      pop\n        /* \"#utility.yul\":23120:23140   */\n      tag_672\n        /* \"#utility.yul\":23138:23139   */\n      dup4\n        /* \"#utility.yul\":23120:23140   */\n      tag_339\n      jump\t// in\n    tag_672:\n        /* \"#utility.yul\":23115:23140   */\n      swap3\n      pop\n        /* \"#utility.yul\":23163:23164   */\n      dup3\n        /* \"#utility.yul\":23160:23161   */\n      dup3\n        /* \"#utility.yul\":23156:23165   */\n      add\n        /* \"#utility.yul\":23149:23165   */\n      swap1\n      pop\n        /* \"#utility.yul\":23184:23187   */\n      dup1\n        /* \"#utility.yul\":23181:23182   */\n      dup3\n        /* \"#utility.yul\":23178:23188   */\n      gt\n        /* \"#utility.yul\":23175:23211   */\n      iszero\n      tag_673\n      jumpi\n        /* \"#utility.yul\":23191:23209   */\n      tag_674\n      tag_385\n      jump\t// in\n    tag_674:\n        /* \"#utility.yul\":23175:23211   */\n    tag_673:\n        /* \"#utility.yul\":23027:23218   */\n      swap3\n      swap2\n      pop\n      pop\n      jump\t// out\n        /* \"#utility.yul\":23224:23395   */\n    tag_183:\n        /* \"#utility.yul\":23263:23266   */\n      0x00\n        /* \"#utility.yul\":23286:23310   */\n      tag_676\n        /* \"#utility.yul\":23304:23309   */\n      dup3\n        /* \"#utility.yul\":23286:23310   */\n      tag_339\n      jump\t// in\n    tag_676:\n        /* \"#utility.yul\":23277:23310   */\n      swap2\n      pop\n        /* \"#utility.yul\":23332:23336   */\n      0x00\n        /* \"#utility.yul\":23325:23330   */\n      dup3\n        /* \"#utility.yul\":23322:23337   */\n      sub\n        /* \"#utility.yul\":23319:23360   */\n      tag_677\n      jumpi\n        /* \"#utility.yul\":23340:23358   */\n      tag_678\n      tag_385\n      jump\t// in\n    tag_678:\n        /* \"#utility.yul\":23319:23360   */\n    tag_677:\n        /* \"#utility.yul\":23387:23388   */\n      0x01\n        /* \"#utility.yul\":23380:23385   */\n      dup3\n        /* \"#utility.yul\":23376:23389   */\n      sub\n        /* \"#utility.yul\":23369:23389   */\n      swap1\n      pop\n        /* \"#utility.yul\":23224:23395   */\n      swap2\n      swap1\n      pop\n      jump\t// out\n        /* \"#utility.yul\":23401:23634   */\n    tag_185:\n        /* \"#utility.yul\":23440:23443   */\n      0x00\n        /* \"#utility.yul\":23463:23487   */\n      tag_680\n        /* \"#utility.yul\":23481:23486   */\n      dup3\n        /* \"#utility.yul\":23463:23487   */\n      tag_339\n      jump\t// in\n    tag_680:\n        /* \"#utility.yul\":23454:23487   */\n      swap2\n      pop\n        /* \"#utility.yul\":23509:23575   */\n      0xffffffffffffffffffffffffffffffffffffffffffffffffffffffffffffffff\n        /* \"#utility.yul\":23502:23507   */\n      dup3\n        /* \"#utility.yul\":23499:23576   */\n      sub\n        /* \"#utility.yul\":23496:23599   */\n      tag_681\n      jumpi\n        /* \"#utility.yul\":23579:23597   */\n      tag_682\n      tag_385\n      jump\t// in\n    tag_682:\n        /* \"#utility.yul\":23496:23599   */\n    tag_681:\n        /* \"#utility.yul\":23626:23627   */\n      0x01\n        /* \"#utility.yul\":23619:23624   */\n      dup3\n        /* \"#utility.yul\":23615:23628   */\n      add\n        /* \"#utility.yul\":23608:23628   */\n      swap1\n      pop\n        /* \"#utility.yul\":23401:23634   */\n      swap2\n      swap1\n      pop\n      jump\t// out\n        /* \"#utility.yul\":23640:24514   */\n    tag_218:\n        /* \"#utility.yul\":23895:23899   */\n      0x00\n        /* \"#utility.yul\":23933:23936   */\n      0xe0\n        /* \"#utility.yul\":23922:23931   */\n      dup3\n        /* \"#utility.yul\":23918:23937   */\n      add\n        /* \"#utility.yul\":23910:23937   */\n      swap1\n      pop\n        /* \"#utility.yul\":23947:24018   */\n      tag_684\n        /* \"#utility.yul\":24015:24016   */\n      0x00\n        /* \"#utility.yul\":24004:24013   */\n      dup4\n        /* \"#utility.yul\":24000:24017   */\n      add\n        /* \"#utility.yul\":23991:23997   */\n      dup11\n        /* \"#utility.yul\":23947:24018   */\n      tag_340\n      jump\t// in\n    tag_684:\n        /* \"#utility.yul\":24028:24100   */\n      tag_685\n        /* \"#utility.yul\":24096:24098   */\n      0x20\n        /* \"#utility.yul\":24085:24094   */\n      dup4\n        /* \"#utility.yul\":24081:24099   */\n      add\n        /* \"#utility.yul\":24072:24078   */\n      dup10\n        /* \"#utility.yul\":24028:24100   */\n      tag_340\n      jump\t// in\n    tag_685:\n        /* \"#utility.yul\":24110:24176   */\n      tag_686\n        /* \"#utility.yul\":24172:24174   */\n      0x40\n        /* \"#utility.yul\":24161:24170   */\n      dup4\n        /* \"#utility.yul\":24157:24175   */\n      add\n        /* \"#utility.yul\":24148:24154   */\n      dup9\n        /* \"#utility.yul\":24110:24176   */\n      tag_357\n      jump\t// in\n    tag_686:\n        /* \"#utility.yul\":24186:24258   */\n      tag_687\n        /* \"#utility.yul\":24254:24256   */\n      0x60\n        /* \"#utility.yul\":24243:24252   */\n      dup4\n        /* \"#utility.yul\":24239:24257   */\n      add\n        /* \"#utility.yul\":24230:24236   */\n      dup8\n        /* \"#utility.yul\":24186:24258   */\n      tag_340\n      jump\t// in\n    tag_687:\n        /* \"#utility.yul\":24268:24341   */\n      tag_688\n        /* \"#utility.yul\":24336:24339   */\n      0x80\n        /* \"#utility.yul\":24325:24334   */\n      dup4\n        /* \"#utility.yul\":24321:24340   */\n      add\n        /* \"#utility.yul\":24312:24318   */\n      dup7\n        /* \"#utility.yul\":24268:24341   */\n      tag_340\n      jump\t// in\n    tag_688:\n        /* \"#utility.yul\":24351:24424   */\n      tag_689\n        /* \"#utility.yul\":24419:24422   */\n      0xa0\n        /* \"#utility.yul\":24408:24417   */\n      dup4\n        /* \"#utility.yul\":24404:24423   */\n      add\n        /* \"#utility.yul\":24395:24401   */\n      dup6\n        /* \"#utility.yul\":24351:24424   */\n      tag_340\n      jump\t// in\n    tag_689:\n        /* \"#utility.yul\":24434:24507   */\n      tag_690\n        /* \"#utility.yul\":24502:24505   */\n      0xc0\n        /* \"#utility.yul\":24491:24500   */\n      dup4\n        /* \"#utility.yul\":24487:24506   */\n      add\n        /* \"#utility.yul\":24478:24484   */\n      dup5\n        /* \"#utility.yul\":24434:24507   */\n      tag_340\n      jump\t// in\n    tag_690:\n        /* \"#utility.yul\":23640:24514   */\n      swap9\n      swap8\n      pop\n      pop\n      pop\n      pop\n      pop\n      pop\n      pop\n      pop\n      jump\t// out\n        /* \"#utility.yul\":24520:24702   */\n    tag_392:\n        /* \"#utility.yul\":24660:24694   */\n      0x4f776e61626c653a2063616c6c6572206973206e6f7420746865206f776e6572\n        /* \"#utility.yul\":24656:24657   */\n      0x00\n        /* \"#utility.yul\":24648:24654   */\n      dup3\n        /* \"#utility.yul\":24644:24658   */\n      add\n        /* \"#utility.yul\":24637:24695   */\n      mstore\n        /* \"#utility.yul\":24520:24702   */\n      pop\n      jump\t// out\n        /* \"#utility.yul\":24708:25074   */\n    tag_393:\n        /* \"#utility.yul\":24850:24853   */\n      0x00\n        /* \"#utility.yul\":24871:24938   */\n      tag_693\n        /* \"#utility.yul\":24935:24937   */\n      0x20\n        /* \"#utility.yul\":24930:24933   */\n      dup4\n        /* \"#utility.yul\":24871:24938   */\n      tag_342\n      jump\t// in\n    tag_693:\n        /* \"#utility.yul\":24864:24938   */\n      swap2\n      pop\n        /* \"#utility.yul\":24947:25040   */\n      tag_694\n        /* \"#utility.yul\":25036:25039   */\n      dup3\n        /* \"#utility.yul\":24947:25040   */\n      tag_392\n      jump\t// in\n    tag_694:\n        /* \"#utility.yul\":25065:25067   */\n      0x20\n        /* \"#utility.yul\":25060:25063   */\n      dup3\n        /* \"#utility.yul\":25056:25068   */\n      add\n        /* \"#utility.yul\":25049:25068   */\n      swap1\n      pop\n        /* \"#utility.yul\":24708:25074   */\n      swap2\n      swap1\n      pop\n      jump\t// out\n        /* \"#utility.yul\":25080:25499   */\n    tag_225:\n        /* \"#utility.yul\":25246:25250   */\n      0x00\n        /* \"#utility.yul\":25284:25286   */\n      0x20\n        /* \"#utility.yul\":25273:25282   */\n      dup3\n        /* \"#utility.yul\":25269:25287   */\n      add\n        /* \"#utility.yul\":25261:25287   */\n      swap1\n      pop\n        /* \"#utility.yul\":25333:25342   */\n      dup2\n        /* \"#utility.yul\":25327:25331   */\n      dup2\n        /* \"#utility.yul\":25323:25343   */\n      sub\n        /* \"#utility.yul\":25319:25320   */\n      0x00\n        /* \"#utility.yul\":25308:25317   */\n      dup4\n        /* \"#utility.yul\":25304:25321   */\n      add\n        /* \"#utility.yul\":25297:25344   */\n      mstore\n        /* \"#utility.yul\":25361:25492   */\n      tag_696\n        /* \"#utility.yul\":25487:25491   */\n      dup2\n        /* \"#utility.yul\":25361:25492   */\n      tag_393\n      jump\t// in\n    tag_696:\n        /* \"#utility.yul\":25353:25492   */\n      swap1\n      pop\n        /* \"#utility.yul\":25080:25499   */\n      swap2\n      swap1\n      pop\n      jump\t// out\n        /* \"#utility.yul\":25505:25684   */\n    tag_394:\n        /* \"#utility.yul\":25645:25676   */\n      0x6e6f742070726f6a656374206f776e6572206372656174652067616d65000000\n        /* \"#utility.yul\":25641:25642   */\n      0x00\n        /* \"#utility.yul\":25633:25639   */\n      dup3\n        /* \"#utility.yul\":25629:25643   */\n      add\n        /* \"#utility.yul\":25622:25677   */\n      mstore\n        /* \"#utility.yul\":25505:25684   */\n      pop\n      jump\t// out\n        /* \"#utility.yul\":25690:26056   */\n    tag_395:\n        /* \"#utility.yul\":25832:25835   */\n      0x00\n        /* \"#utility.yul\":25853:25920   */\n      tag_699\n        /* \"#utility.yul\":25917:25919   */\n      0x1d\n        /* \"#utility.yul\":25912:25915   */\n      dup4\n        /* \"#utility.yul\":25853:25920   */\n      tag_342\n      jump\t// in\n    tag_699:\n        /* \"#utility.yul\":25846:25920   */\n      swap2\n      pop\n        /* \"#utility.yul\":25929:26022   */\n      tag_700\n        /* \"#utility.yul\":26018:26021   */\n      dup3\n        /* \"#utility.yul\":25929:26022   */\n      tag_394\n      jump\t// in\n    tag_700:\n        /* \"#utility.yul\":26047:26049   */\n      0x20\n        /* \"#utility.yul\":26042:26045   */\n      dup3\n        /* \"#utility.yul\":26038:26050   */\n      add\n        /* \"#utility.yul\":26031:26050   */\n      swap1\n      pop\n        /* \"#utility.yul\":25690:26056   */\n      swap2\n      swap1\n      pop\n      jump\t// out\n        /* \"#utility.yul\":26062:26481   */\n    tag_239:\n        /* \"#utility.yul\":26228:26232   */\n      0x00\n        /* \"#utility.yul\":26266:26268   */\n      0x20\n        /* \"#utility.yul\":26255:26264   */\n      dup3\n        /* \"#utility.yul\":26251:26269   */\n      add\n        /* \"#utility.yul\":26243:26269   */\n      swap1\n      pop\n        /* \"#utility.yul\":26315:26324   */\n      dup2\n        /* \"#utility.yul\":26309:26313   */\n      dup2\n        /* \"#utility.yul\":26305:26325   */\n      sub\n        /* \"#utility.yul\":26301:26302   */\n      0x00\n        /* \"#utility.yul\":26290:26299   */\n      dup4\n        /* \"#utility.yul\":26286:26303   */\n      add\n        /* \"#utility.yul\":26279:26326   */\n      mstore\n        /* \"#utility.yul\":26343:26474   */\n      tag_702\n        /* \"#utility.yul\":26469:26473   */\n      dup2\n        /* \"#utility.yul\":26343:26474   */\n      tag_395\n      jump\t// in\n    tag_702:\n        /* \"#utility.yul\":26335:26474   */\n      swap1\n      pop\n        /* \"#utility.yul\":26062:26481   */\n      swap2\n      swap1\n      pop\n      jump\t// out\n        /* \"#utility.yul\":26487:26650   */\n    tag_396:\n        /* \"#utility.yul\":26627:26642   */\n      0x7072696365206973207a65726f00000000000000000000000000000000000000\n        /* \"#utility.yul\":26623:26624   */\n      0x00\n        /* \"#utility.yul\":26615:26621   */\n      dup3\n        /* \"#utility.yul\":26611:26625   */\n      add\n        /* \"#utility.yul\":26604:26643   */\n      mstore\n        /* \"#utility.yul\":26487:26650   */\n      pop\n      jump\t// out\n        /* \"#utility.yul\":26656:27022   */\n    tag_397:\n        /* \"#utility.yul\":26798:26801   */\n      0x00\n        /* \"#utility.yul\":26819:26886   */\n      tag_705\n        /* \"#utility.yul\":26883:26885   */\n      0x0d\n        /* \"#utility.yul\":26878:26881   */\n      dup4\n        /* \"#utility.yul\":26819:26886   */\n      tag_342\n      jump\t// in\n    tag_705:\n        /* \"#utility.yul\":26812:26886   */\n      swap2\n      pop\n        /* \"#utility.yul\":26895:26988   */\n      tag_706\n        /* \"#utility.yul\":26984:26987   */\n      dup3\n        /* \"#utility.yul\":26895:26988   */\n      tag_396\n      jump\t// in\n    tag_706:\n        /* \"#utility.yul\":27013:27015   */\n      0x20\n        /* \"#utility.yul\":27008:27011   */\n      dup3\n        /* \"#utility.yul\":27004:27016   */\n      add\n        /* \"#utility.yul\":26997:27016   */\n      swap1\n      pop\n        /* \"#utility.yul\":26656:27022   */\n      swap2\n      swap1\n      pop\n      jump\t// out\n        /* \"#utility.yul\":27028:27447   */\n    tag_242:\n        /* \"#utility.yul\":27194:27198   */\n      0x00\n        /* \"#utility.yul\":27232:27234   */\n      0x20\n        /* \"#utility.yul\":27221:27230   */\n      dup3\n        /* \"#utility.yul\":27217:27235   */\n      add\n        /* \"#utility.yul\":27209:27235   */\n      swap1\n      pop\n        /* \"#utility.yul\":27281:27290   */\n      dup2\n        /* \"#utility.yul\":27275:27279   */\n      dup2\n        /* \"#utility.yul\":27271:27291   */\n      sub\n        /* \"#utility.yul\":27267:27268   */\n      0x00\n        /* \"#utility.yul\":27256:27265   */\n      dup4\n        /* \"#utility.yul\":27252:27269   */\n      add\n        /* \"#utility.yul\":27245:27292   */\n      mstore\n        /* \"#utility.yul\":27309:27440   */\n      tag_708\n        /* \"#utility.yul\":27435:27439   */\n      dup2\n        /* \"#utility.yul\":27309:27440   */\n      tag_397\n      jump\t// in\n    tag_708:\n        /* \"#utility.yul\":27301:27440   */\n      swap1\n      pop\n        /* \"#utility.yul\":27028:27447   */\n      swap2\n      swap1\n      pop\n      jump\t// out\n        /* \"#utility.yul\":27453:27626   */\n    tag_398:\n        /* \"#utility.yul\":27593:27618   */\n      0x616666696c696174652070657263656e74203c20313025000000000000000000\n        /* \"#utility.yul\":27589:27590   */\n      0x00\n        /* \"#utility.yul\":27581:27587   */\n      dup3\n        /* \"#utility.yul\":27577:27591   */\n      add\n        /* \"#utility.yul\":27570:27619   */\n      mstore\n        /* \"#utility.yul\":27453:27626   */\n      pop\n      jump\t// out\n        /* \"#utility.yul\":27632:27998   */\n    tag_399:\n        /* \"#utility.yul\":27774:27777   */\n      0x00\n        /* \"#utility.yul\":27795:27862   */\n      tag_711\n        /* \"#utility.yul\":27859:27861   */\n      0x17\n        /* \"#utility.yul\":27854:27857   */\n      dup4\n        /* \"#utility.yul\":27795:27862   */\n      tag_342\n      jump\t// in\n    tag_711:\n        /* \"#utility.yul\":27788:27862   */\n      swap2\n      pop\n        /* \"#utility.yul\":27871:27964   */\n      tag_712\n        /* \"#utility.yul\":27960:27963   */\n      dup3\n        /* \"#utility.yul\":27871:27964   */\n      tag_398\n      jump\t// in\n    tag_712:\n        /* \"#utility.yul\":27989:27991   */\n      0x20\n        /* \"#utility.yul\":27984:27987   */\n      dup3\n        /* \"#utility.yul\":27980:27992   */\n      add\n        /* \"#utility.yul\":27973:27992   */\n      swap1\n      pop\n        /* \"#utility.yul\":27632:27998   */\n      swap2\n      swap1\n      pop\n      jump\t// out\n        /* \"#utility.yul\":28004:28423   */\n    tag_247:\n        /* \"#utility.yul\":28170:28174   */\n      0x00\n        /* \"#utility.yul\":28208:28210   */\n      0x20\n        /* \"#utility.yul\":28197:28206   */\n      dup3\n        /* \"#utility.yul\":28193:28211   */\n      add\n        /* \"#utility.yul\":28185:28211   */\n      swap1\n      pop\n        /* \"#utility.yul\":28257:28266   */\n      dup2\n        /* \"#utility.yul\":28251:28255   */\n      dup2\n        /* \"#utility.yul\":28247:28267   */\n      sub\n        /* \"#utility.yul\":28243:28244   */\n      0x00\n        /* \"#utility.yul\":28232:28241   */\n      dup4\n        /* \"#utility.yul\":28228:28245   */\n      add\n        /* \"#utility.yul\":28221:28268   */\n      mstore\n        /* \"#utility.yul\":28285:28416   */\n      tag_714\n        /* \"#utility.yul\":28411:28415   */\n      dup2\n        /* \"#utility.yul\":28285:28416   */\n      tag_399\n      jump\t// in\n    tag_714:\n        /* \"#utility.yul\":28277:28416   */\n      swap1\n      pop\n        /* \"#utility.yul\":28004:28423   */\n      swap2\n      swap1\n      pop\n      jump\t// out\n        /* \"#utility.yul\":28429:28598   */\n    tag_400:\n        /* \"#utility.yul\":28569:28590   */\n      0x6f776e65722070657263656e74203c2031302500000000000000000000000000\n        /* \"#utility.yul\":28565:28566   */\n      0x00\n        /* \"#utility.yul\":28557:28563   */\n      dup3\n        /* \"#utility.yul\":28553:28567   */\n      add\n        /* \"#utility.yul\":28546:28591   */\n      mstore\n        /* \"#utility.yul\":28429:28598   */\n      pop\n      jump\t// out\n        /* \"#utility.yul\":28604:28970   */\n    tag_401:\n        /* \"#utility.yul\":28746:28749   */\n      0x00\n        /* \"#utility.yul\":28767:28834   */\n      tag_717\n        /* \"#utility.yul\":28831:28833   */\n      0x13\n        /* \"#utility.yul\":28826:28829   */\n      dup4\n        /* \"#utility.yul\":28767:28834   */\n      tag_342\n      jump\t// in\n    tag_717:\n        /* \"#utility.yul\":28760:28834   */\n      swap2\n      pop\n        /* \"#utility.yul\":28843:28936   */\n      tag_718\n        /* \"#utility.yul\":28932:28935   */\n      dup3\n        /* \"#utility.yul\":28843:28936   */\n      tag_400\n      jump\t// in\n    tag_718:\n        /* \"#utility.yul\":28961:28963   */\n      0x20\n        /* \"#utility.yul\":28956:28959   */\n      dup3\n        /* \"#utility.yul\":28952:28964   */\n      add\n        /* \"#utility.yul\":28945:28964   */\n      swap1\n      pop\n        /* \"#utility.yul\":28604:28970   */\n      swap2\n      swap1\n      pop\n      jump\t// out\n        /* \"#utility.yul\":28976:29395   */\n    tag_250:\n        /* \"#utility.yul\":29142:29146   */\n      0x00\n        /* \"#utility.yul\":29180:29182   */\n      0x20\n        /* \"#utility.yul\":29169:29178   */\n      dup3\n        /* \"#utility.yul\":29165:29183   */\n      add\n        /* \"#utility.yul\":29157:29183   */\n      swap1\n      pop\n        /* \"#utility.yul\":29229:29238   */\n      dup2\n        /* \"#utility.yul\":29223:29227   */\n      dup2\n        /* \"#utility.yul\":29219:29239   */\n      sub\n        /* \"#utility.yul\":29215:29216   */\n      0x00\n        /* \"#utility.yul\":29204:29213   */\n      dup4\n        /* \"#utility.yul\":29200:29217   */\n      add\n        /* \"#utility.yul\":29193:29240   */\n      mstore\n        /* \"#utility.yul\":29257:29388   */\n      tag_720\n        /* \"#utility.yul\":29383:29387   */\n      dup2\n        /* \"#utility.yul\":29257:29388   */\n      tag_401\n      jump\t// in\n    tag_720:\n        /* \"#utility.yul\":29249:29388   */\n      swap1\n      pop\n        /* \"#utility.yul\":28976:29395   */\n      swap2\n      swap1\n      pop\n      jump\t// out\n        /* \"#utility.yul\":29401:29581   */\n    tag_402:\n        /* \"#utility.yul\":29541:29573   */\n      0x76616c756520616e642070657263656e74206973206e6f742076616c69640000\n        /* \"#utility.yul\":29537:29538   */\n      0x00\n        /* \"#utility.yul\":29529:29535   */\n      dup3\n        /* \"#utility.yul\":29525:29539   */\n      add\n        /* \"#utility.yul\":29518:29574   */\n      mstore\n        /* \"#utility.yul\":29401:29581   */\n      pop\n      jump\t// out\n        /* \"#utility.yul\":29587:29953   */\n    tag_403:\n        /* \"#utility.yul\":29729:29732   */\n      0x00\n        /* \"#utility.yul\":29750:29817   */\n      tag_723\n        /* \"#utility.yul\":29814:29816   */\n      0x1e\n        /* \"#utility.yul\":29809:29812   */\n      dup4\n        /* \"#utility.yul\":29750:29817   */\n      tag_342\n      jump\t// in\n    tag_723:\n        /* \"#utility.yul\":29743:29817   */\n      swap2\n      pop\n        /* \"#utility.yul\":29826:29919   */\n      tag_724\n        /* \"#utility.yul\":29915:29918   */\n      dup3\n        /* \"#utility.yul\":29826:29919   */\n      tag_402\n      jump\t// in\n    tag_724:\n        /* \"#utility.yul\":29944:29946   */\n      0x20\n        /* \"#utility.yul\":29939:29942   */\n      dup3\n        /* \"#utility.yul\":29935:29947   */\n      add\n        /* \"#utility.yul\":29928:29947   */\n      swap1\n      pop\n        /* \"#utility.yul\":29587:29953   */\n      swap2\n      swap1\n      pop\n      jump\t// out\n        /* \"#utility.yul\":29959:30378   */\n    tag_254:\n        /* \"#utility.yul\":30125:30129   */\n      0x00\n        /* \"#utility.yul\":30163:30165   */\n      0x20\n        /* \"#utility.yul\":30152:30161   */\n      dup3\n        /* \"#utility.yul\":30148:30166   */\n      add\n        /* \"#utility.yul\":30140:30166   */\n      swap1\n      pop\n        /* \"#utility.yul\":30212:30221   */\n      dup2\n        /* \"#utility.yul\":30206:30210   */\n      dup2\n        /* \"#utility.yul\":30202:30222   */\n      sub\n        /* \"#utility.yul\":30198:30199   */\n      0x00\n        /* \"#utility.yul\":30187:30196   */\n      dup4\n        /* \"#utility.yul\":30183:30200   */\n      add\n        /* \"#utility.yul\":30176:30223   */\n      mstore\n        /* \"#utility.yul\":30240:30371   */\n      tag_726\n        /* \"#utility.yul\":30366:30370   */\n      dup2\n        /* \"#utility.yul\":30240:30371   */\n      tag_403\n      jump\t// in\n    tag_726:\n        /* \"#utility.yul\":30232:30371   */\n      swap1\n      pop\n        /* \"#utility.yul\":29959:30378   */\n      swap2\n      swap1\n      pop\n      jump\t// out\n        /* \"#utility.yul\":30384:30525   */\n    tag_404:\n        /* \"#utility.yul\":30433:30437   */\n      0x00\n        /* \"#utility.yul\":30456:30459   */\n      dup2\n        /* \"#utility.yul\":30448:30459   */\n      swap1\n      pop\n        /* \"#utility.yul\":30479:30482   */\n      dup2\n        /* \"#utility.yul\":30476:30477   */\n      0x00\n        /* \"#utility.yul\":30469:30483   */\n      mstore\n        /* \"#utility.yul\":30513:30517   */\n      0x20\n        /* \"#utility.yul\":30510:30511   */\n      0x00\n        /* \"#utility.yul\":30500:30518   */\n      keccak256\n        /* \"#utility.yul\":30492:30518   */\n      swap1\n      pop\n        /* \"#utility.yul\":30384:30525   */\n      swap2\n      swap1\n      pop\n      jump\t// out\n        /* \"#utility.yul\":30531:30624   */\n    tag_405:\n        /* \"#utility.yul\":30568:30574   */\n      0x00\n        /* \"#utility.yul\":30615:30617   */\n      0x20\n        /* \"#utility.yul\":30610:30612   */\n      0x1f\n        /* \"#utility.yul\":30603:30608   */\n      dup4\n        /* \"#utility.yul\":30599:30613   */\n      add\n        /* \"#utility.yul\":30595:30618   */\n      div\n        /* \"#utility.yul\":30585:30618   */\n      swap1\n      pop\n        /* \"#utility.yul\":30531:30624   */\n      swap2\n      swap1\n      pop\n      jump\t// out\n        /* \"#utility.yul\":30630:30737   */\n    tag_406:\n        /* \"#utility.yul\":30674:30682   */\n      0x00\n        /* \"#utility.yul\":30724:30729   */\n      dup3\n        /* \"#utility.yul\":30718:30722   */\n      dup3\n        /* \"#utility.yul\":30714:30730   */\n      shl\n        /* \"#utility.yul\":30693:30730   */\n      swap1\n      pop\n        /* \"#utility.yul\":30630:30737   */\n      swap3\n      swap2\n      pop\n      pop\n      jump\t// out\n        /* \"#utility.yul\":30743:31136   */\n    tag_407:\n        /* \"#utility.yul\":30812:30818   */\n      0x00\n        /* \"#utility.yul\":30862:30863   */\n      0x08\n        /* \"#utility.yul\":30850:30860   */\n      dup4\n        /* \"#utility.yul\":30846:30864   */\n      mul\n        /* \"#utility.yul\":30885:30982   */\n      tag_731\n        /* \"#utility.yul\":30915:30981   */\n      0xffffffffffffffffffffffffffffffffffffffffffffffffffffffffffffffff\n        /* \"#utility.yul\":30904:30913   */\n      dup3\n        /* \"#utility.yul\":30885:30982   */\n      tag_406\n      jump\t// in\n    tag_731:\n        /* \"#utility.yul\":31003:31042   */\n      tag_732\n        /* \"#utility.yul\":31033:31041   */\n      dup7\n        /* \"#utility.yul\":31022:31031   */\n      dup4\n        /* \"#utility.yul\":31003:31042   */\n      tag_406\n      jump\t// in\n    tag_732:\n        /* \"#utility.yul\":30991:31042   */\n      swap6\n      pop\n        /* \"#utility.yul\":31075:31079   */\n      dup1\n        /* \"#utility.yul\":31071:31080   */\n      not\n        /* \"#utility.yul\":31064:31069   */\n      dup5\n        /* \"#utility.yul\":31060:31081   */\n      and\n        /* \"#utility.yul\":31051:31081   */\n      swap4\n      pop\n        /* \"#utility.yul\":31124:31128   */\n      dup1\n        /* \"#utility.yul\":31114:31122   */\n      dup7\n        /* \"#utility.yul\":31110:31129   */\n      and\n        /* \"#utility.yul\":31103:31108   */\n      dup5\n        /* \"#utility.yul\":31100:31130   */\n      or\n        /* \"#utility.yul\":31090:31130   */\n      swap3\n      pop\n        /* \"#utility.yul\":30819:31136   */\n      pop\n      pop\n        /* \"#utility.yul\":30743:31136   */\n      swap4\n      swap3\n      pop\n      pop\n      pop\n      jump\t// out\n        /* \"#utility.yul\":31142:31284   */\n    tag_408:\n        /* \"#utility.yul\":31192:31201   */\n      0x00\n        /* \"#utility.yul\":31225:31278   */\n      tag_734\n        /* \"#utility.yul\":31243:31277   */\n      tag_735\n        /* \"#utility.yul\":31252:31276   */\n      tag_736\n        /* \"#utility.yul\":31270:31275   */\n      dup5\n        /* \"#utility.yul\":31252:31276   */\n      tag_339\n      jump\t// in\n    tag_736:\n        /* \"#utility.yul\":31243:31277   */\n      tag_371\n      jump\t// in\n    tag_735:\n        /* \"#utility.yul\":31225:31278   */\n      tag_339\n      jump\t// in\n    tag_734:\n        /* \"#utility.yul\":31212:31278   */\n      swap1\n      pop\n        /* \"#utility.yul\":31142:31284   */\n      swap2\n      swap1\n      pop\n      jump\t// out\n        /* \"#utility.yul\":31290:31365   */\n    tag_409:\n        /* \"#utility.yul\":31333:31336   */\n      0x00\n        /* \"#utility.yul\":31354:31359   */\n      dup2\n        /* \"#utility.yul\":31347:31359   */\n      swap1\n      pop\n        /* \"#utility.yul\":31290:31365   */\n      swap2\n      swap1\n      pop\n      jump\t// out\n        /* \"#utility.yul\":31371:31640   */\n    tag_410:\n        /* \"#utility.yul\":31481:31520   */\n      tag_739\n        /* \"#utility.yul\":31512:31519   */\n      dup4\n        /* \"#utility.yul\":31481:31520   */\n      tag_408\n      jump\t// in\n    tag_739:\n        /* \"#utility.yul\":31542:31633   */\n      tag_740\n        /* \"#utility.yul\":31591:31632   */\n      tag_741\n        /* \"#utility.yul\":31615:31631   */\n      dup3\n        /* \"#utility.yul\":31591:31632   */\n      tag_409\n      jump\t// in\n    tag_741:\n        /* \"#utility.yul\":31583:31589   */\n      dup5\n        /* \"#utility.yul\":31576:31580   */\n      dup5\n        /* \"#utility.yul\":31570:31581   */\n      sload\n        /* \"#utility.yul\":31542:31633   */\n      tag_407\n      jump\t// in\n    tag_740:\n        /* \"#utility.yul\":31536:31540   */\n      dup3\n        /* \"#utility.yul\":31529:31634   */\n      sstore\n        /* \"#utility.yul\":31447:31640   */\n      pop\n        /* \"#utility.yul\":31371:31640   */\n      pop\n      pop\n      pop\n      jump\t// out\n        /* \"#utility.yul\":31646:31719   */\n    tag_411:\n        /* \"#utility.yul\":31691:31694   */\n      0x00\n        /* \"#utility.yul\":31646:31719   */\n      swap1\n      jump\t// out\n        /* \"#utility.yul\":31725:31914   */\n    tag_412:\n        /* \"#utility.yul\":31802:31834   */\n      tag_744\n      tag_411\n      jump\t// in\n    tag_744:\n        /* \"#utility.yul\":31843:31908   */\n      tag_745\n        /* \"#utility.yul\":31901:31907   */\n      dup2\n        /* \"#utility.yul\":31893:31899   */\n      dup5\n        /* \"#utility.yul\":31887:31891   */\n      dup5\n        /* \"#utility.yul\":31843:31908   */\n      tag_410\n      jump\t// in\n    tag_745:\n        /* \"#utility.yul\":31778:31914   */\n      pop\n        /* \"#utility.yul\":31725:31914   */\n      pop\n      pop\n      jump\t// out\n        /* \"#utility.yul\":31920:32106   */\n    tag_413:\n        /* \"#utility.yul\":31980:32100   */\n    tag_747:\n        /* \"#utility.yul\":31997:32000   */\n      dup2\n        /* \"#utility.yul\":31990:31995   */\n      dup2\n        /* \"#utility.yul\":31987:32001   */\n      lt\n        /* \"#utility.yul\":31980:32100   */\n      iszero\n      tag_749\n      jumpi\n        /* \"#utility.yul\":32051:32090   */\n      tag_750\n        /* \"#utility.yul\":32088:32089   */\n      0x00\n        /* \"#utility.yul\":32081:32086   */\n      dup3\n        /* \"#utility.yul\":32051:32090   */\n      tag_412\n      jump\t// in\n    tag_750:\n        /* \"#utility.yul\":32024:32025   */\n      0x01\n        /* \"#utility.yul\":32017:32022   */\n      dup2\n        /* \"#utility.yul\":32013:32026   */\n      add\n        /* \"#utility.yul\":32004:32026   */\n      swap1\n      pop\n        /* \"#utility.yul\":31980:32100   */\n      jump(tag_747)\n    tag_749:\n        /* \"#utility.yul\":31920:32106   */\n      pop\n      pop\n      jump\t// out\n        /* \"#utility.yul\":32112:32655   */\n    tag_414:\n        /* \"#utility.yul\":32213:32215   */\n      0x1f\n        /* \"#utility.yul\":32208:32211   */\n      dup3\n        /* \"#utility.yul\":32205:32216   */\n      gt\n        /* \"#utility.yul\":32202:32648   */\n      iszero\n      tag_752\n      jumpi\n        /* \"#utility.yul\":32247:32285   */\n      tag_753\n        /* \"#utility.yul\":32279:32284   */\n      dup2\n        /* \"#utility.yul\":32247:32285   */\n      tag_404\n      jump\t// in\n    tag_753:\n        /* \"#utility.yul\":32331:32360   */\n      tag_754\n        /* \"#utility.yul\":32349:32359   */\n      dup5\n        /* \"#utility.yul\":32331:32360   */\n      tag_405\n      jump\t// in\n    tag_754:\n        /* \"#utility.yul\":32321:32329   */\n      dup2\n        /* \"#utility.yul\":32317:32361   */\n      add\n        /* \"#utility.yul\":32514:32516   */\n      0x20\n        /* \"#utility.yul\":32502:32512   */\n      dup6\n        /* \"#utility.yul\":32499:32517   */\n      lt\n        /* \"#utility.yul\":32496:32545   */\n      iszero\n      tag_755\n      jumpi\n        /* \"#utility.yul\":32535:32543   */\n      dup2\n        /* \"#utility.yul\":32520:32543   */\n      swap1\n      pop\n        /* \"#utility.yul\":32496:32545   */\n    tag_755:\n        /* \"#utility.yul\":32558:32638   */\n      tag_756\n        /* \"#utility.yul\":32614:32636   */\n      tag_757\n        /* \"#utility.yul\":32632:32635   */\n      dup6\n        /* \"#utility.yul\":32614:32636   */\n      tag_405\n      jump\t// in\n    tag_757:\n        /* \"#utility.yul\":32604:32612   */\n      dup4\n        /* \"#utility.yul\":32600:32637   */\n      add\n        /* \"#utility.yul\":32587:32598   */\n      dup3\n        /* \"#utility.yul\":32558:32638   */\n      tag_413\n      jump\t// in\n    tag_756:\n        /* \"#utility.yul\":32217:32648   */\n      pop\n      pop\n        /* \"#utility.yul\":32202:32648   */\n    tag_752:\n        /* \"#utility.yul\":32112:32655   */\n      pop\n      pop\n      pop\n      jump\t// out\n        /* \"#utility.yul\":32661:32778   */\n    tag_415:\n        /* \"#utility.yul\":32715:32723   */\n      0x00\n        /* \"#utility.yul\":32765:32770   */\n      dup3\n        /* \"#utility.yul\":32759:32763   */\n      dup3\n        /* \"#utility.yul\":32755:32771   */\n      shr\n        /* \"#utility.yul\":32734:32771   */\n      swap1\n      pop\n        /* \"#utility.yul\":32661:32778   */\n      swap3\n      swap2\n      pop\n      pop\n      jump\t// out\n        /* \"#utility.yul\":32784:32953   */\n    tag_416:\n        /* \"#utility.yul\":32828:32834   */\n      0x00\n        /* \"#utility.yul\":32861:32912   */\n      tag_760\n        /* \"#utility.yul\":32909:32910   */\n      0x00\n        /* \"#utility.yul\":32905:32911   */\n      not\n        /* \"#utility.yul\":32897:32902   */\n      dup5\n        /* \"#utility.yul\":32894:32895   */\n      0x08\n        /* \"#utility.yul\":32890:32903   */\n      mul\n        /* \"#utility.yul\":32861:32912   */\n      tag_415\n      jump\t// in\n    tag_760:\n        /* \"#utility.yul\":32857:32913   */\n      not\n        /* \"#utility.yul\":32942:32946   */\n      dup1\n        /* \"#utility.yul\":32936:32940   */\n      dup4\n        /* \"#utility.yul\":32932:32947   */\n      and\n        /* \"#utility.yul\":32922:32947   */\n      swap2\n      pop\n        /* \"#utility.yul\":32835:32953   */\n      pop\n        /* \"#utility.yul\":32784:32953   */\n      swap3\n      swap2\n      pop\n      pop\n      jump\t// out\n        /* \"#utility.yul\":32958:33253   */\n    tag_417:\n        /* \"#utility.yul\":33034:33038   */\n      0x00\n        /* \"#utility.yul\":33180:33209   */\n      tag_762\n        /* \"#utility.yul\":33205:33208   */\n      dup4\n        /* \"#utility.yul\":33199:33203   */\n      dup4\n        /* \"#utility.yul\":33180:33209   */\n      tag_416\n      jump\t// in\n    tag_762:\n        /* \"#utility.yul\":33172:33209   */\n      swap2\n      pop\n        /* \"#utility.yul\":33242:33245   */\n      dup3\n        /* \"#utility.yul\":33239:33240   */\n      0x02\n        /* \"#utility.yul\":33235:33246   */\n      mul\n        /* \"#utility.yul\":33229:33233   */\n      dup3\n        /* \"#utility.yul\":33226:33247   */\n      or\n        /* \"#utility.yul\":33218:33247   */\n      swap1\n      pop\n        /* \"#utility.yul\":32958:33253   */\n      swap3\n      swap2\n      pop\n      pop\n      jump\t// out\n        /* \"#utility.yul\":33258:34653   */\n    tag_257:\n        /* \"#utility.yul\":33375:33412   */\n      tag_764\n        /* \"#utility.yul\":33408:33411   */\n      dup3\n        /* \"#utility.yul\":33375:33412   */\n      tag_341\n      jump\t// in\n    tag_764:\n        /* \"#utility.yul\":33477:33495   */\n      0xffffffffffffffff\n        /* \"#utility.yul\":33469:33475   */\n      dup2\n        /* \"#utility.yul\":33466:33496   */\n      gt\n        /* \"#utility.yul\":33463:33519   */\n      iszero\n      tag_765\n      jumpi\n        /* \"#utility.yul\":33499:33517   */\n      tag_766\n      tag_360\n      jump\t// in\n    tag_766:\n        /* \"#utility.yul\":33463:33519   */\n    tag_765:\n        /* \"#utility.yul\":33543:33581   */\n      tag_767\n        /* \"#utility.yul\":33575:33579   */\n      dup3\n        /* \"#utility.yul\":33569:33580   */\n      sload\n        /* \"#utility.yul\":33543:33581   */\n      tag_95\n      jump\t// in\n    tag_767:\n        /* \"#utility.yul\":33628:33695   */\n      tag_768\n        /* \"#utility.yul\":33688:33694   */\n      dup3\n        /* \"#utility.yul\":33680:33686   */\n      dup3\n        /* \"#utility.yul\":33674:33678   */\n      dup6\n        /* \"#utility.yul\":33628:33695   */\n      tag_414\n      jump\t// in\n    tag_768:\n        /* \"#utility.yul\":33722:33723   */\n      0x00\n        /* \"#utility.yul\":33746:33750   */\n      0x20\n        /* \"#utility.yul\":33733:33750   */\n      swap1\n      pop\n        /* \"#utility.yul\":33778:33780   */\n      0x1f\n        /* \"#utility.yul\":33770:33776   */\n      dup4\n        /* \"#utility.yul\":33767:33781   */\n      gt\n        /* \"#utility.yul\":33795:33796   */\n      0x01\n        /* \"#utility.yul\":33790:34408   */\n      dup2\n      eq\n      tag_770\n      jumpi\n        /* \"#utility.yul\":34452:34453   */\n      0x00\n        /* \"#utility.yul\":34469:34475   */\n      dup5\n        /* \"#utility.yul\":34466:34543   */\n      iszero\n      tag_771\n      jumpi\n        /* \"#utility.yul\":34518:34527   */\n      dup3\n        /* \"#utility.yul\":34513:34516   */\n      dup8\n        /* \"#utility.yul\":34509:34528   */\n      add\n        /* \"#utility.yul\":34503:34529   */\n      mload\n        /* \"#utility.yul\":34494:34529   */\n      swap1\n      pop\n        /* \"#utility.yul\":34466:34543   */\n    tag_771:\n        /* \"#utility.yul\":34569:34636   */\n      tag_772\n        /* \"#utility.yul\":34629:34635   */\n      dup6\n        /* \"#utility.yul\":34622:34627   */\n      dup3\n        /* \"#utility.yul\":34569:34636   */\n      tag_417\n      jump\t// in\n    tag_772:\n        /* \"#utility.yul\":34563:34567   */\n      dup7\n        /* \"#utility.yul\":34556:34637   */\n      sstore\n        /* \"#utility.yul\":34425:34647   */\n      pop\n        /* \"#utility.yul\":33760:34647   */\n      jump(tag_769)\n        /* \"#utility.yul\":33790:34408   */\n    tag_770:\n        /* \"#utility.yul\":33842:33846   */\n      0x1f\n        /* \"#utility.yul\":33838:33847   */\n      not\n        /* \"#utility.yul\":33830:33836   */\n      dup5\n        /* \"#utility.yul\":33826:33848   */\n      and\n        /* \"#utility.yul\":33876:33913   */\n      tag_773\n        /* \"#utility.yul\":33908:33912   */\n      dup7\n        /* \"#utility.yul\":33876:33913   */\n      tag_404\n      jump\t// in\n    tag_773:\n        /* \"#utility.yul\":33935:33936   */\n      0x00\n        /* \"#utility.yul\":33949:34157   */\n    tag_774:\n        /* \"#utility.yul\":33963:33970   */\n      dup3\n        /* \"#utility.yul\":33960:33961   */\n      dup2\n        /* \"#utility.yul\":33957:33971   */\n      lt\n        /* \"#utility.yul\":33949:34157   */\n      iszero\n      tag_776\n      jumpi\n        /* \"#utility.yul\":34042:34051   */\n      dup5\n        /* \"#utility.yul\":34037:34040   */\n      dup10\n        /* \"#utility.yul\":34033:34052   */\n      add\n        /* \"#utility.yul\":34027:34053   */\n      mload\n        /* \"#utility.yul\":34019:34025   */\n      dup3\n        /* \"#utility.yul\":34012:34054   */\n      sstore\n        /* \"#utility.yul\":34093:34094   */\n      0x01\n        /* \"#utility.yul\":34085:34091   */\n      dup3\n        /* \"#utility.yul\":34081:34095   */\n      add\n        /* \"#utility.yul\":34071:34095   */\n      swap2\n      pop\n        /* \"#utility.yul\":34140:34142   */\n      0x20\n        /* \"#utility.yul\":34129:34138   */\n      dup6\n        /* \"#utility.yul\":34125:34143   */\n      add\n        /* \"#utility.yul\":34112:34143   */\n      swap5\n      pop\n        /* \"#utility.yul\":33986:33990   */\n      0x20\n        /* \"#utility.yul\":33983:33984   */\n      dup2\n        /* \"#utility.yul\":33979:33991   */\n      add\n        /* \"#utility.yul\":33974:33991   */\n      swap1\n      pop\n        /* \"#utility.yul\":33949:34157   */\n      jump(tag_774)\n    tag_776:\n        /* \"#utility.yul\":34185:34191   */\n      dup7\n        /* \"#utility.yul\":34176:34183   */\n      dup4\n        /* \"#utility.yul\":34173:34192   */\n      lt\n        /* \"#utility.yul\":34170:34349   */\n      iszero\n      tag_777\n      jumpi\n        /* \"#utility.yul\":34243:34252   */\n      dup5\n        /* \"#utility.yul\":34238:34241   */\n      dup10\n        /* \"#utility.yul\":34234:34253   */\n      add\n        /* \"#utility.yul\":34228:34254   */\n      mload\n        /* \"#utility.yul\":34286:34334   */\n      tag_778\n        /* \"#utility.yul\":34328:34332   */\n      0x1f\n        /* \"#utility.yul\":34320:34326   */\n      dup10\n        /* \"#utility.yul\":34316:34333   */\n      and\n        /* \"#utility.yul\":34305:34314   */\n      dup3\n        /* \"#utility.yul\":34286:34334   */\n      tag_416\n      jump\t// in\n    tag_778:\n        /* \"#utility.yul\":34278:34284   */\n      dup4\n        /* \"#utility.yul\":34271:34335   */\n      sstore\n        /* \"#utility.yul\":34193:34349   */\n      pop\n        /* \"#utility.yul\":34170:34349   */\n    tag_777:\n        /* \"#utility.yul\":34395:34396   */\n      0x01\n        /* \"#utility.yul\":34391:34392   */\n      0x02\n        /* \"#utility.yul\":34383:34389   */\n      dup9\n        /* \"#utility.yul\":34379:34393   */\n      mul\n        /* \"#utility.yul\":34375:34397   */\n      add\n        /* \"#utility.yul\":34369:34373   */\n      dup9\n        /* \"#utility.yul\":34362:34398   */\n      sstore\n        /* \"#utility.yul\":33797:34408   */\n      pop\n      pop\n      pop\n        /* \"#utility.yul\":33760:34647   */\n    tag_769:\n      pop\n        /* \"#utility.yul\":33350:34653   */\n      pop\n      pop\n      pop\n        /* \"#utility.yul\":33258:34653   */\n      pop\n      pop\n      jump\t// out\n        /* \"#utility.yul\":34659:34839   */\n    tag_263:\n        /* \"#utility.yul\":34707:34784   */\n      0x4e487b7100000000000000000000000000000000000000000000000000000000\n        /* \"#utility.yul\":34704:34705   */\n      0x00\n        /* \"#utility.yul\":34697:34785   */\n      mstore\n        /* \"#utility.yul\":34804:34808   */\n      0x32\n        /* \"#utility.yul\":34801:34802   */\n      0x04\n        /* \"#utility.yul\":34794:34809   */\n      mstore\n        /* \"#utility.yul\":34828:34832   */\n      0x24\n        /* \"#utility.yul\":34825:34826   */\n      0x00\n        /* \"#utility.yul\":34818:34833   */\n      revert\n        /* \"#utility.yul\":34845:35027   */\n    tag_418:\n        /* \"#utility.yul\":34985:35019   */\n      0x746f74616c2070657263656e74207072697a65206973206e6f742076616c6964\n        /* \"#utility.yul\":34981:34982   */\n      0x00\n        /* \"#utility.yul\":34973:34979   */\n      dup3\n        /* \"#utility.yul\":34969:34983   */\n      add\n        /* \"#utility.yul\":34962:35020   */\n      mstore\n        /* \"#utility.yul\":34845:35027   */\n      pop\n      jump\t// out\n        /* \"#utility.yul\":35033:35399   */\n    tag_419:\n        /* \"#utility.yul\":35175:35178   */\n      0x00\n        /* \"#utility.yul\":35196:35263   */\n      tag_782\n        /* \"#utility.yul\":35260:35262   */\n      0x20\n        /* \"#utility.yul\":35255:35258   */\n      dup4\n        /* \"#utility.yul\":35196:35263   */\n      tag_342\n      jump\t// in\n    tag_782:\n        /* \"#utility.yul\":35189:35263   */\n      swap2\n      pop\n        /* \"#utility.yul\":35272:35365   */\n      tag_783\n        /* \"#utility.yul\":35361:35364   */\n      dup3\n        /* \"#utility.yul\":35272:35365   */\n      tag_418\n      jump\t// in\n    tag_783:\n        /* \"#utility.yul\":35390:35392   */\n      0x20\n        /* \"#utility.yul\":35385:35388   */\n      dup3\n        /* \"#utility.yul\":35381:35393   */\n      add\n        /* \"#utility.yul\":35374:35393   */\n      swap1\n      pop\n        /* \"#utility.yul\":35033:35399   */\n      swap2\n      swap1\n      pop\n      jump\t// out\n        /* \"#utility.yul\":35405:35824   */\n    tag_292:\n        /* \"#utility.yul\":35571:35575   */\n      0x00\n        /* \"#utility.yul\":35609:35611   */\n      0x20\n        /* \"#utility.yul\":35598:35607   */\n      dup3\n        /* \"#utility.yul\":35594:35612   */\n      add\n        /* \"#utility.yul\":35586:35612   */\n      swap1\n      pop\n        /* \"#utility.yul\":35658:35667   */\n      dup2\n        /* \"#utility.yul\":35652:35656   */\n      dup2\n        /* \"#utility.yul\":35648:35668   */\n      sub\n        /* \"#utility.yul\":35644:35645   */\n      0x00\n        /* \"#utility.yul\":35633:35642   */\n      dup4\n        /* \"#utility.yul\":35629:35646   */\n      add\n        /* \"#utility.yul\":35622:35669   */\n      mstore\n        /* \"#utility.yul\":35686:35817   */\n      tag_785\n        /* \"#utility.yul\":35812:35816   */\n      dup2\n        /* \"#utility.yul\":35686:35817   */\n      tag_419\n      jump\t// in\n    tag_785:\n        /* \"#utility.yul\":35678:35817   */\n      swap1\n      pop\n        /* \"#utility.yul\":35405:35824   */\n      swap2\n      swap1\n      pop\n      jump\t// out\n        /* \"#utility.yul\":35830:35944   */\n    tag_420:\n        /* \"#utility.yul\":35897:35903   */\n      0x00\n        /* \"#utility.yul\":35931:35936   */\n      dup2\n        /* \"#utility.yul\":35925:35937   */\n      mload\n        /* \"#utility.yul\":35915:35937   */\n      swap1\n      pop\n        /* \"#utility.yul\":35830:35944   */\n      swap2\n      swap1\n      pop\n      jump\t// out\n        /* \"#utility.yul\":35950:36134   */\n    tag_421:\n        /* \"#utility.yul\":36049:36060   */\n      0x00\n        /* \"#utility.yul\":36083:36089   */\n      dup3\n        /* \"#utility.yul\":36078:36081   */\n      dup3\n        /* \"#utility.yul\":36071:36090   */\n      mstore\n        /* \"#utility.yul\":36123:36127   */\n      0x20\n        /* \"#utility.yul\":36118:36121   */\n      dup3\n        /* \"#utility.yul\":36114:36128   */\n      add\n        /* \"#utility.yul\":36099:36128   */\n      swap1\n      pop\n        /* \"#utility.yul\":35950:36134   */\n      swap3\n      swap2\n      pop\n      pop\n      jump\t// out\n        /* \"#utility.yul\":36140:36272   */\n    tag_422:\n        /* \"#utility.yul\":36207:36211   */\n      0x00\n        /* \"#utility.yul\":36230:36233   */\n      dup2\n        /* \"#utility.yul\":36222:36233   */\n      swap1\n      pop\n        /* \"#utility.yul\":36260:36264   */\n      0x20\n        /* \"#utility.yul\":36255:36258   */\n      dup3\n        /* \"#utility.yul\":36251:36265   */\n      add\n        /* \"#utility.yul\":36243:36265   */\n      swap1\n      pop\n        /* \"#utility.yul\":36140:36272   */\n      swap2\n      swap1\n      pop\n      jump\t// out\n        /* \"#utility.yul\":36278:36386   */\n    tag_423:\n        /* \"#utility.yul\":36355:36379   */\n      tag_790\n        /* \"#utility.yul\":36373:36378   */\n      dup2\n        /* \"#utility.yul\":36355:36379   */\n      tag_339\n      jump\t// in\n    tag_790:\n        /* \"#utility.yul\":36350:36353   */\n      dup3\n        /* \"#utility.yul\":36343:36380   */\n      mstore\n        /* \"#utility.yul\":36278:36386   */\n      pop\n      pop\n      jump\t// out\n        /* \"#utility.yul\":36392:36571   */\n    tag_424:\n        /* \"#utility.yul\":36461:36471   */\n      0x00\n        /* \"#utility.yul\":36482:36528   */\n      tag_792\n        /* \"#utility.yul\":36524:36527   */\n      dup4\n        /* \"#utility.yul\":36516:36522   */\n      dup4\n        /* \"#utility.yul\":36482:36528   */\n      tag_423\n      jump\t// in\n    tag_792:\n        /* \"#utility.yul\":36560:36564   */\n      0x20\n        /* \"#utility.yul\":36555:36558   */\n      dup4\n        /* \"#utility.yul\":36551:36565   */\n      add\n        /* \"#utility.yul\":36537:36565   */\n      swap1\n      pop\n        /* \"#utility.yul\":36392:36571   */\n      swap3\n      swap2\n      pop\n      pop\n      jump\t// out\n        /* \"#utility.yul\":36577:36690   */\n    tag_425:\n        /* \"#utility.yul\":36647:36651   */\n      0x00\n        /* \"#utility.yul\":36679:36683   */\n      0x20\n        /* \"#utility.yul\":36674:36677   */\n      dup3\n        /* \"#utility.yul\":36670:36684   */\n      add\n        /* \"#utility.yul\":36662:36684   */\n      swap1\n      pop\n        /* \"#utility.yul\":36577:36690   */\n      swap2\n      swap1\n      pop\n      jump\t// out\n        /* \"#utility.yul\":36726:37458   */\n    tag_426:\n        /* \"#utility.yul\":36845:36848   */\n      0x00\n        /* \"#utility.yul\":36874:36928   */\n      tag_795\n        /* \"#utility.yul\":36922:36927   */\n      dup3\n        /* \"#utility.yul\":36874:36928   */\n      tag_420\n      jump\t// in\n    tag_795:\n        /* \"#utility.yul\":36944:37030   */\n      tag_796\n        /* \"#utility.yul\":37023:37029   */\n      dup2\n        /* \"#utility.yul\":37018:37021   */\n      dup6\n        /* \"#utility.yul\":36944:37030   */\n      tag_421\n      jump\t// in\n    tag_796:\n        /* \"#utility.yul\":36937:37030   */\n      swap4\n      pop\n        /* \"#utility.yul\":37054:37110   */\n      tag_797\n        /* \"#utility.yul\":37104:37109   */\n      dup4\n        /* \"#utility.yul\":37054:37110   */\n      tag_422\n      jump\t// in\n    tag_797:\n        /* \"#utility.yul\":37133:37140   */\n      dup1\n        /* \"#utility.yul\":37164:37165   */\n      0x00\n        /* \"#utility.yul\":37149:37433   */\n    tag_798:\n        /* \"#utility.yul\":37174:37180   */\n      dup4\n        /* \"#utility.yul\":37171:37172   */\n      dup2\n        /* \"#utility.yul\":37168:37181   */\n      lt\n        /* \"#utility.yul\":37149:37433   */\n      iszero\n      tag_800\n      jumpi\n        /* \"#utility.yul\":37250:37256   */\n      dup2\n        /* \"#utility.yul\":37244:37257   */\n      mload\n        /* \"#utility.yul\":37277:37340   */\n      tag_801\n        /* \"#utility.yul\":37336:37339   */\n      dup9\n        /* \"#utility.yul\":37321:37334   */\n      dup3\n        /* \"#utility.yul\":37277:37340   */\n      tag_424\n      jump\t// in\n    tag_801:\n        /* \"#utility.yul\":37270:37340   */\n      swap8\n      pop\n        /* \"#utility.yul\":37363:37423   */\n      tag_802\n        /* \"#utility.yul\":37416:37422   */\n      dup4\n        /* \"#utility.yul\":37363:37423   */\n      tag_425\n      jump\t// in\n    tag_802:\n        /* \"#utility.yul\":37353:37423   */\n      swap3\n      pop\n        /* \"#utility.yul\":37209:37433   */\n      pop\n        /* \"#utility.yul\":37196:37197   */\n      0x01\n        /* \"#utility.yul\":37193:37194   */\n      dup2\n        /* \"#utility.yul\":37189:37198   */\n      add\n        /* \"#utility.yul\":37184:37198   */\n      swap1\n      pop\n        /* \"#utility.yul\":37149:37433   */\n      jump(tag_798)\n    tag_800:\n        /* \"#utility.yul\":37153:37167   */\n      pop\n        /* \"#utility.yul\":37449:37452   */\n      dup6\n        /* \"#utility.yul\":37442:37452   */\n      swap4\n      pop\n        /* \"#utility.yul\":36850:37458   */\n      pop\n      pop\n      pop\n        /* \"#utility.yul\":36726:37458   */\n      swap3\n      swap2\n      pop\n      pop\n      jump\t// out\n        /* \"#utility.yul\":37464:37629   */\n    tag_427:\n        /* \"#utility.yul\":37604:37621   */\n      0x4d6567615f4a61636b706f745f56310000000000000000000000000000000000\n        /* \"#utility.yul\":37600:37601   */\n      0x00\n        /* \"#utility.yul\":37592:37598   */\n      dup3\n        /* \"#utility.yul\":37588:37602   */\n      add\n        /* \"#utility.yul\":37581:37622   */\n      mstore\n        /* \"#utility.yul\":37464:37629   */\n      pop\n      jump\t// out\n        /* \"#utility.yul\":37635:38001   */\n    tag_428:\n        /* \"#utility.yul\":37777:37780   */\n      0x00\n        /* \"#utility.yul\":37798:37865   */\n      tag_805\n        /* \"#utility.yul\":37862:37864   */\n      0x0f\n        /* \"#utility.yul\":37857:37860   */\n      dup4\n        /* \"#utility.yul\":37798:37865   */\n      tag_342\n      jump\t// in\n    tag_805:\n        /* \"#utility.yul\":37791:37865   */\n      swap2\n      pop\n        /* \"#utility.yul\":37874:37967   */\n      tag_806\n        /* \"#utility.yul\":37963:37966   */\n      dup3\n        /* \"#utility.yul\":37874:37967   */\n      tag_427\n      jump\t// in\n    tag_806:\n        /* \"#utility.yul\":37992:37994   */\n      0x20\n        /* \"#utility.yul\":37987:37990   */\n      dup3\n        /* \"#utility.yul\":37983:37995   */\n      add\n        /* \"#utility.yul\":37976:37995   */\n      swap1\n      pop\n        /* \"#utility.yul\":37635:38001   */\n      swap2\n      swap1\n      pop\n      jump\t// out\n        /* \"#utility.yul\":38007:39816   */\n    tag_295:\n        /* \"#utility.yul\":38545:38549   */\n      0x00\n        /* \"#utility.yul\":38583:38586   */\n      0x0140\n        /* \"#utility.yul\":38572:38581   */\n      dup3\n        /* \"#utility.yul\":38568:38587   */\n      add\n        /* \"#utility.yul\":38560:38587   */\n      swap1\n      pop\n        /* \"#utility.yul\":38633:38642   */\n      dup2\n        /* \"#utility.yul\":38627:38631   */\n      dup2\n        /* \"#utility.yul\":38623:38643   */\n      sub\n        /* \"#utility.yul\":38619:38620   */\n      0x00\n        /* \"#utility.yul\":38608:38617   */\n      dup4\n        /* \"#utility.yul\":38604:38621   */\n      add\n        /* \"#utility.yul\":38597:38644   */\n      mstore\n        /* \"#utility.yul\":38661:38739   */\n      tag_808\n        /* \"#utility.yul\":38734:38738   */\n      dup2\n        /* \"#utility.yul\":38725:38731   */\n      dup13\n        /* \"#utility.yul\":38661:38739   */\n      tag_345\n      jump\t// in\n    tag_808:\n        /* \"#utility.yul\":38653:38739   */\n      swap1\n      pop\n        /* \"#utility.yul\":38749:38821   */\n      tag_809\n        /* \"#utility.yul\":38817:38819   */\n      0x20\n        /* \"#utility.yul\":38806:38815   */\n      dup4\n        /* \"#utility.yul\":38802:38820   */\n      add\n        /* \"#utility.yul\":38793:38799   */\n      dup12\n        /* \"#utility.yul\":38749:38821   */\n      tag_340\n      jump\t// in\n    tag_809:\n        /* \"#utility.yul\":38831:38903   */\n      tag_810\n        /* \"#utility.yul\":38899:38901   */\n      0x40\n        /* \"#utility.yul\":38888:38897   */\n      dup4\n        /* \"#utility.yul\":38884:38902   */\n      add\n        /* \"#utility.yul\":38875:38881   */\n      dup11\n        /* \"#utility.yul\":38831:38903   */\n      tag_340\n      jump\t// in\n    tag_810:\n        /* \"#utility.yul\":38913:38985   */\n      tag_811\n        /* \"#utility.yul\":38981:38983   */\n      0x60\n        /* \"#utility.yul\":38970:38979   */\n      dup4\n        /* \"#utility.yul\":38966:38984   */\n      add\n        /* \"#utility.yul\":38957:38963   */\n      dup10\n        /* \"#utility.yul\":38913:38985   */\n      tag_340\n      jump\t// in\n    tag_811:\n        /* \"#utility.yul\":38995:39068   */\n      tag_812\n        /* \"#utility.yul\":39063:39066   */\n      0x80\n        /* \"#utility.yul\":39052:39061   */\n      dup4\n        /* \"#utility.yul\":39048:39067   */\n      add\n        /* \"#utility.yul\":39039:39045   */\n      dup9\n        /* \"#utility.yul\":38995:39068   */\n      tag_340\n      jump\t// in\n    tag_812:\n        /* \"#utility.yul\":39078:39151   */\n      tag_813\n        /* \"#utility.yul\":39146:39149   */\n      0xa0\n        /* \"#utility.yul\":39135:39144   */\n      dup4\n        /* \"#utility.yul\":39131:39150   */\n      add\n        /* \"#utility.yul\":39122:39128   */\n      dup8\n        /* \"#utility.yul\":39078:39151   */\n      tag_340\n      jump\t// in\n    tag_813:\n        /* \"#utility.yul\":39199:39208   */\n      dup2\n        /* \"#utility.yul\":39193:39197   */\n      dup2\n        /* \"#utility.yul\":39189:39209   */\n      sub\n        /* \"#utility.yul\":39183:39186   */\n      0xc0\n        /* \"#utility.yul\":39172:39181   */\n      dup4\n        /* \"#utility.yul\":39168:39187   */\n      add\n        /* \"#utility.yul\":39161:39210   */\n      mstore\n        /* \"#utility.yul\":39227:39335   */\n      tag_814\n        /* \"#utility.yul\":39330:39334   */\n      dup2\n        /* \"#utility.yul\":39321:39327   */\n      dup7\n        /* \"#utility.yul\":39227:39335   */\n      tag_426\n      jump\t// in\n    tag_814:\n        /* \"#utility.yul\":39219:39335   */\n      swap1\n      pop\n        /* \"#utility.yul\":39383:39392   */\n      dup2\n        /* \"#utility.yul\":39377:39381   */\n      dup2\n        /* \"#utility.yul\":39373:39393   */\n      sub\n        /* \"#utility.yul\":39367:39370   */\n      0xe0\n        /* \"#utility.yul\":39356:39365   */\n      dup4\n        /* \"#utility.yul\":39352:39371   */\n      add\n        /* \"#utility.yul\":39345:39394   */\n      mstore\n        /* \"#utility.yul\":39411:39519   */\n      tag_815\n        /* \"#utility.yul\":39514:39518   */\n      dup2\n        /* \"#utility.yul\":39505:39511   */\n      dup6\n        /* \"#utility.yul\":39411:39519   */\n      tag_426\n      jump\t// in\n    tag_815:\n        /* \"#utility.yul\":39403:39519   */\n      swap1\n      pop\n        /* \"#utility.yul\":39529:39602   */\n      tag_816\n        /* \"#utility.yul\":39597:39600   */\n      0x0100\n        /* \"#utility.yul\":39586:39595   */\n      dup4\n        /* \"#utility.yul\":39582:39601   */\n      add\n        /* \"#utility.yul\":39573:39579   */\n      dup5\n        /* \"#utility.yul\":39529:39602   */\n      tag_340\n      jump\t// in\n    tag_816:\n        /* \"#utility.yul\":39650:39659   */\n      dup2\n        /* \"#utility.yul\":39644:39648   */\n      dup2\n        /* \"#utility.yul\":39640:39660   */\n      sub\n        /* \"#utility.yul\":39634:39637   */\n      0x0120\n        /* \"#utility.yul\":39623:39632   */\n      dup4\n        /* \"#utility.yul\":39619:39638   */\n      add\n        /* \"#utility.yul\":39612:39661   */\n      mstore\n        /* \"#utility.yul\":39678:39809   */\n      tag_817\n        /* \"#utility.yul\":39804:39808   */\n      dup2\n        /* \"#utility.yul\":39678:39809   */\n      tag_428\n      jump\t// in\n    tag_817:\n        /* \"#utility.yul\":39670:39809   */\n      swap1\n      pop\n        /* \"#utility.yul\":38007:39816   */\n      swap11\n      swap10\n      pop\n      pop\n      pop\n      pop\n      pop\n      pop\n      pop\n      pop\n      pop\n      pop\n      jump\t// out\n        /* \"#utility.yul\":39822:39991   */\n    tag_429:\n        /* \"#utility.yul\":39962:39983   */\n      0x6e6f7420736574206f776e657257616c6c657400000000000000000000000000\n        /* \"#utility.yul\":39958:39959   */\n      0x00\n        /* \"#utility.yul\":39950:39956   */\n      dup3\n        /* \"#utility.yul\":39946:39960   */\n      add\n        /* \"#utility.yul\":39939:39984   */\n      mstore\n        /* \"#utility.yul\":39822:39991   */\n      pop\n      jump\t// out\n        /* \"#utility.yul\":39997:40363   */\n    tag_430:\n        /* \"#utility.yul\":40139:40142   */\n      0x00\n        /* \"#utility.yul\":40160:40227   */\n      tag_820\n        /* \"#utility.yul\":40224:40226   */\n      0x13\n        /* \"#utility.yul\":40219:40222   */\n      dup4\n        /* \"#utility.yul\":40160:40227   */\n      tag_342\n      jump\t// in\n    tag_820:\n        /* \"#utility.yul\":40153:40227   */\n      swap2\n      pop\n        /* \"#utility.yul\":40236:40329   */\n      tag_821\n        /* \"#utility.yul\":40325:40328   */\n      dup3\n        /* \"#utility.yul\":40236:40329   */\n      tag_429\n      jump\t// in\n    tag_821:\n        /* \"#utility.yul\":40354:40356   */\n      0x20\n        /* \"#utility.yul\":40349:40352   */\n      dup3\n        /* \"#utility.yul\":40345:40357   */\n      add\n        /* \"#utility.yul\":40338:40357   */\n      swap1\n      pop\n        /* \"#utility.yul\":39997:40363   */\n      swap2\n      swap1\n      pop\n      jump\t// out\n        /* \"#utility.yul\":40369:40788   */\n    tag_299:\n        /* \"#utility.yul\":40535:40539   */\n      0x00\n        /* \"#utility.yul\":40573:40575   */\n      0x20\n        /* \"#utility.yul\":40562:40571   */\n      dup3\n        /* \"#utility.yul\":40558:40576   */\n      add\n        /* \"#utility.yul\":40550:40576   */\n      swap1\n      pop\n        /* \"#utility.yul\":40622:40631   */\n      dup2\n        /* \"#utility.yul\":40616:40620   */\n      dup2\n        /* \"#utility.yul\":40612:40632   */\n      sub\n        /* \"#utility.yul\":40608:40609   */\n      0x00\n        /* \"#utility.yul\":40597:40606   */\n      dup4\n        /* \"#utility.yul\":40593:40610   */\n      add\n        /* \"#utility.yul\":40586:40633   */\n      mstore\n        /* \"#utility.yul\":40650:40781   */\n      tag_823\n        /* \"#utility.yul\":40776:40780   */\n      dup2\n        /* \"#utility.yul\":40650:40781   */\n      tag_430\n      jump\t// in\n    tag_823:\n        /* \"#utility.yul\":40642:40781   */\n      swap1\n      pop\n        /* \"#utility.yul\":40369:40788   */\n      swap2\n      swap1\n      pop\n      jump\t// out\n        /* \"#utility.yul\":40794:41019   */\n    tag_431:\n        /* \"#utility.yul\":40934:40968   */\n      0x4f776e61626c653a206e6577206f776e657220697320746865207a65726f2061\n        /* \"#utility.yul\":40930:40931   */\n      0x00\n        /* \"#utility.yul\":40922:40928   */\n      dup3\n        /* \"#utility.yul\":40918:40932   */\n      add\n        /* \"#utility.yul\":40911:40969   */\n      mstore\n        /* \"#utility.yul\":41003:41011   */\n      0x6464726573730000000000000000000000000000000000000000000000000000\n        /* \"#utility.yul\":40998:41000   */\n      0x20\n        /* \"#utility.yul\":40990:40996   */\n      dup3\n        /* \"#utility.yul\":40986:41001   */\n      add\n        /* \"#utility.yul\":40979:41012   */\n      mstore\n        /* \"#utility.yul\":40794:41019   */\n      pop\n      jump\t// out\n        /* \"#utility.yul\":41025:41391   */\n    tag_432:\n        /* \"#utility.yul\":41167:41170   */\n      0x00\n        /* \"#utility.yul\":41188:41255   */\n      tag_826\n        /* \"#utility.yul\":41252:41254   */\n      0x26\n        /* \"#utility.yul\":41247:41250   */\n      dup4\n        /* \"#utility.yul\":41188:41255   */\n      tag_342\n      jump\t// in\n    tag_826:\n        /* \"#utility.yul\":41181:41255   */\n      swap2\n      pop\n        /* \"#utility.yul\":41264:41357   */\n      tag_827\n        /* \"#utility.yul\":41353:41356   */\n      dup3\n        /* \"#utility.yul\":41264:41357   */\n      tag_431\n      jump\t// in\n    tag_827:\n        /* \"#utility.yul\":41382:41384   */\n      0x40\n        /* \"#utility.yul\":41377:41380   */\n      dup3\n        /* \"#utility.yul\":41373:41385   */\n      add\n        /* \"#utility.yul\":41366:41385   */\n      swap1\n      pop\n        /* \"#utility.yul\":41025:41391   */\n      swap2\n      swap1\n      pop\n      jump\t// out\n        /* \"#utility.yul\":41397:41816   */\n    tag_308:\n        /* \"#utility.yul\":41563:41567   */\n      0x00\n        /* \"#utility.yul\":41601:41603   */\n      0x20\n        /* \"#utility.yul\":41590:41599   */\n      dup3\n        /* \"#utility.yul\":41586:41604   */\n      add\n        /* \"#utility.yul\":41578:41604   */\n      swap1\n      pop\n        /* \"#utility.yul\":41650:41659   */\n      dup2\n        /* \"#utility.yul\":41644:41648   */\n      dup2\n        /* \"#utility.yul\":41640:41660   */\n      sub\n        /* \"#utility.yul\":41636:41637   */\n      0x00\n        /* \"#utility.yul\":41625:41634   */\n      dup4\n        /* \"#utility.yul\":41621:41638   */\n      add\n        /* \"#utility.yul\":41614:41661   */\n      mstore\n        /* \"#utility.yul\":41678:41809   */\n      tag_829\n        /* \"#utility.yul\":41804:41808   */\n      dup2\n        /* \"#utility.yul\":41678:41809   */\n      tag_432\n      jump\t// in\n    tag_829:\n        /* \"#utility.yul\":41670:41809   */\n      swap1\n      pop\n        /* \"#utility.yul\":41397:41816   */\n      swap2\n      swap1\n      pop\n      jump\t// out\n        /* \"#utility.yul\":41822:41998   */\n    tag_313:\n        /* \"#utility.yul\":41854:41855   */\n      0x00\n        /* \"#utility.yul\":41871:41891   */\n      tag_831\n        /* \"#utility.yul\":41889:41890   */\n      dup3\n        /* \"#utility.yul\":41871:41891   */\n      tag_339\n      jump\t// in\n    tag_831:\n        /* \"#utility.yul\":41866:41891   */\n      swap2\n      pop\n        /* \"#utility.yul\":41905:41925   */\n      tag_832\n        /* \"#utility.yul\":41923:41924   */\n      dup4\n        /* \"#utility.yul\":41905:41925   */\n      tag_339\n      jump\t// in\n    tag_832:\n        /* \"#utility.yul\":41900:41925   */\n      swap3\n      pop\n        /* \"#utility.yul\":41944:41945   */\n      dup3\n        /* \"#utility.yul\":41934:41969   */\n      tag_833\n      jumpi\n        /* \"#utility.yul\":41949:41967   */\n      tag_834\n      tag_391\n      jump\t// in\n    tag_834:\n        /* \"#utility.yul\":41934:41969   */\n    tag_833:\n        /* \"#utility.yul\":41990:41991   */\n      dup3\n        /* \"#utility.yul\":41987:41988   */\n      dup3\n        /* \"#utility.yul\":41983:41992   */\n      mod\n        /* \"#utility.yul\":41978:41992   */\n      swap1\n      pop\n        /* \"#utility.yul\":41822:41998   */\n      swap3\n      swap2\n      pop\n      pop\n      jump\t// out\n        /* \"#utility.yul\":42004:42083   */\n    tag_433:\n        /* \"#utility.yul\":42043:42050   */\n      0x00\n        /* \"#utility.yul\":42072:42077   */\n      dup2\n        /* \"#utility.yul\":42061:42077   */\n      swap1\n      pop\n        /* \"#utility.yul\":42004:42083   */\n      swap2\n      swap1\n      pop\n      jump\t// out\n        /* \"#utility.yul\":42089:42246   */\n    tag_434:\n        /* \"#utility.yul\":42194:42239   */\n      tag_837\n        /* \"#utility.yul\":42214:42238   */\n      tag_838\n        /* \"#utility.yul\":42232:42237   */\n      dup3\n        /* \"#utility.yul\":42214:42238   */\n      tag_339\n      jump\t// in\n    tag_838:\n        /* \"#utility.yul\":42194:42239   */\n      tag_433\n      jump\t// in\n    tag_837:\n        /* \"#utility.yul\":42189:42192   */\n      dup3\n        /* \"#utility.yul\":42182:42240   */\n      mstore\n        /* \"#utility.yul\":42089:42246   */\n      pop\n      pop\n      jump\t// out\n        /* \"#utility.yul\":42252:42346   */\n    tag_435:\n        /* \"#utility.yul\":42285:42293   */\n      0x00\n        /* \"#utility.yul\":42333:42338   */\n      dup2\n        /* \"#utility.yul\":42329:42331   */\n      0x60\n        /* \"#utility.yul\":42325:42339   */\n      shl\n        /* \"#utility.yul\":42304:42339   */\n      swap1\n      pop\n        /* \"#utility.yul\":42252:42346   */\n      swap2\n      swap1\n      pop\n      jump\t// out\n        /* \"#utility.yul\":42352:42446   */\n    tag_436:\n        /* \"#utility.yul\":42391:42398   */\n      0x00\n        /* \"#utility.yul\":42420:42440   */\n      tag_841\n        /* \"#utility.yul\":42434:42439   */\n      dup3\n        /* \"#utility.yul\":42420:42440   */\n      tag_435\n      jump\t// in\n    tag_841:\n        /* \"#utility.yul\":42409:42440   */\n      swap1\n      pop\n        /* \"#utility.yul\":42352:42446   */\n      swap2\n      swap1\n      pop\n      jump\t// out\n        /* \"#utility.yul\":42452:42552   */\n    tag_437:\n        /* \"#utility.yul\":42491:42498   */\n      0x00\n        /* \"#utility.yul\":42520:42546   */\n      tag_843\n        /* \"#utility.yul\":42540:42545   */\n      dup3\n        /* \"#utility.yul\":42520:42546   */\n      tag_436\n      jump\t// in\n    tag_843:\n        /* \"#utility.yul\":42509:42546   */\n      swap1\n      pop\n        /* \"#utility.yul\":42452:42552   */\n      swap2\n      swap1\n      pop\n      jump\t// out\n        /* \"#utility.yul\":42558:42715   */\n    tag_438:\n        /* \"#utility.yul\":42663:42708   */\n      tag_845\n        /* \"#utility.yul\":42683:42707   */\n      tag_846\n        /* \"#utility.yul\":42701:42706   */\n      dup3\n        /* \"#utility.yul\":42683:42707   */\n      tag_350\n      jump\t// in\n    tag_846:\n        /* \"#utility.yul\":42663:42708   */\n      tag_437\n      jump\t// in\n    tag_845:\n        /* \"#utility.yul\":42658:42661   */\n      dup3\n        /* \"#utility.yul\":42651:42709   */\n      mstore\n        /* \"#utility.yul\":42558:42715   */\n      pop\n      pop\n      jump\t// out\n        /* \"#utility.yul\":42721:43541   */\n    tag_335:\n        /* \"#utility.yul\":42945:42948   */\n      0x00\n        /* \"#utility.yul\":42960:43035   */\n      tag_848\n        /* \"#utility.yul\":43031:43034   */\n      dup3\n        /* \"#utility.yul\":43022:43028   */\n      dup9\n        /* \"#utility.yul\":42960:43035   */\n      tag_434\n      jump\t// in\n    tag_848:\n        /* \"#utility.yul\":43060:43062   */\n      0x20\n        /* \"#utility.yul\":43055:43058   */\n      dup3\n        /* \"#utility.yul\":43051:43063   */\n      add\n        /* \"#utility.yul\":43044:43063   */\n      swap2\n      pop\n        /* \"#utility.yul\":43073:43148   */\n      tag_849\n        /* \"#utility.yul\":43144:43147   */\n      dup3\n        /* \"#utility.yul\":43135:43141   */\n      dup8\n        /* \"#utility.yul\":43073:43148   */\n      tag_434\n      jump\t// in\n    tag_849:\n        /* \"#utility.yul\":43173:43175   */\n      0x20\n        /* \"#utility.yul\":43168:43171   */\n      dup3\n        /* \"#utility.yul\":43164:43176   */\n      add\n        /* \"#utility.yul\":43157:43176   */\n      swap2\n      pop\n        /* \"#utility.yul\":43186:43261   */\n      tag_850\n        /* \"#utility.yul\":43257:43260   */\n      dup3\n        /* \"#utility.yul\":43248:43254   */\n      dup7\n        /* \"#utility.yul\":43186:43261   */\n      tag_434\n      jump\t// in\n    tag_850:\n        /* \"#utility.yul\":43286:43288   */\n      0x20\n        /* \"#utility.yul\":43281:43284   */\n      dup3\n        /* \"#utility.yul\":43277:43289   */\n      add\n        /* \"#utility.yul\":43270:43289   */\n      swap2\n      pop\n        /* \"#utility.yul\":43299:43374   */\n      tag_851\n        /* \"#utility.yul\":43370:43373   */\n      dup3\n        /* \"#utility.yul\":43361:43367   */\n      dup6\n        /* \"#utility.yul\":43299:43374   */\n      tag_434\n      jump\t// in\n    tag_851:\n        /* \"#utility.yul\":43399:43401   */\n      0x20\n        /* \"#utility.yul\":43394:43397   */\n      dup3\n        /* \"#utility.yul\":43390:43402   */\n      add\n        /* \"#utility.yul\":43383:43402   */\n      swap2\n      pop\n        /* \"#utility.yul\":43412:43487   */\n      tag_852\n        /* \"#utility.yul\":43483:43486   */\n      dup3\n        /* \"#utility.yul\":43474:43480   */\n      dup5\n        /* \"#utility.yul\":43412:43487   */\n      tag_438\n      jump\t// in\n    tag_852:\n        /* \"#utility.yul\":43512:43514   */\n      0x14\n        /* \"#utility.yul\":43507:43510   */\n      dup3\n        /* \"#utility.yul\":43503:43515   */\n      add\n        /* \"#utility.yul\":43496:43515   */\n      swap2\n      pop\n        /* \"#utility.yul\":43532:43535   */\n      dup2\n        /* \"#utility.yul\":43525:43535   */\n      swap1\n      pop\n        /* \"#utility.yul\":42721:43541   */\n      swap7\n      swap6\n      pop\n      pop\n      pop\n      pop\n      pop\n      pop\n      jump\t// out\n\n    auxdata: 0xa2646970667358221220b63e4221dab2f68a3fef32acc66219d5cdd77b669f5fe2a31960b21826fd71a164736f6c63430008120033\n}\n",
				"bytecode": {
					"linkReferences": {},
					"object": "60806040526040518060400160405280600f81526020017f4d656761204a61636b706f742056310000000000000000000000000000000000815250600290816200004a9190620003d9565b50600060045560006005553480156200006257600080fd5b5060016000819055506200008b6200007f6200009160201b60201c565b6200009960201b60201c565b620004c0565b600033905090565b6000600160009054906101000a900473ffffffffffffffffffffffffffffffffffffffff16905081600160006101000a81548173ffffffffffffffffffffffffffffffffffffffff021916908373ffffffffffffffffffffffffffffffffffffffff1602179055508173ffffffffffffffffffffffffffffffffffffffff168173ffffffffffffffffffffffffffffffffffffffff167f8be0079c531659141344cd1fd0a4f28419497f9722a3daafe3b4186f6b6457e060405160405180910390a35050565b600081519050919050565b7f4e487b7100000000000000000000000000000000000000000000000000000000600052604160045260246000fd5b7f4e487b7100000000000000000000000000000000000000000000000000000000600052602260045260246000fd5b60006002820490506001821680620001e157607f821691505b602082108103620001f757620001f662000199565b5b50919050565b60008190508160005260206000209050919050565b60006020601f8301049050919050565b600082821b905092915050565b600060088302620002617fffffffffffffffffffffffffffffffffffffffffffffffffffffffffffffffff8262000222565b6200026d868362000222565b95508019841693508086168417925050509392505050565b6000819050919050565b6000819050919050565b6000620002ba620002b4620002ae8462000285565b6200028f565b62000285565b9050919050565b6000819050919050565b620002d68362000299565b620002ee620002e582620002c1565b8484546200022f565b825550505050565b600090565b62000305620002f6565b62000312818484620002cb565b505050565b5b818110156200033a576200032e600082620002fb565b60018101905062000318565b5050565b601f82111562000389576200035381620001fd565b6200035e8462000212565b810160208510156200036e578190505b620003866200037d8562000212565b83018262000317565b50505b505050565b600082821c905092915050565b6000620003ae600019846008026200038e565b1980831691505092915050565b6000620003c983836200039b565b9150826002028217905092915050565b620003e4826200015f565b67ffffffffffffffff8111156200040057620003ff6200016a565b5b6200040c8254620001c8565b620004198282856200033e565b600060209050601f8311600181146200045157600084156200043c578287015190505b620004488582620003bb565b865550620004b8565b601f1984166200046186620001fd565b60005b828110156200048b5784890151825560018201915060208501945060208101905062000464565b86831015620004ab5784890151620004a7601f8916826200039b565b8355505b6001600288020188555050505b505050505050565b61369580620004d06000396000f3fe608060405234801561001057600080fd5b50600436106101165760003560e01c80638da5cb5b116100a2578063ab346b0a11610071578063ab346b0a146102d9578063affed0e0146102f5578063e7c1bf9f14610313578063f2fde38b14610331578063fc0c546a1461034d57610116565b80638da5cb5b14610236578063a6f8166814610254578063a85c38ef1461028b578063aab0a510146102bd57610116565b80632f8dc9a0116100e95780632f8dc9a01461018f578063325e8744146101ad5780637036992a146101cb578063715018a6146101fc57806375af2dd91461020657610116565b806301c234a81461011b57806306fdde0314610139578063144fa6d7146101575780632240b81a14610173575b600080fd5b61012361036b565b6040516101309190611fe1565b60405180910390f35b610141610371565b60405161014e919061208c565b60405180910390f35b610171600480360381019061016c9190612120565b610403565b005b61018d60048036038101906101889190612179565b6104d8565b005b610197611101565b6040516101a49190612252565b60405180910390f35b6101b5611127565b6040516101c29190611fe1565b60405180910390f35b6101e560048036038101906101e0919061226d565b61112f565b6040516101f39291906122ad565b60405180910390f35b610204611160565b005b610220600480360381019061021b919061226d565b6111e8565b60405161022d9190611fe1565b60405180910390f35b61023e61120d565b60405161024b9190612252565b60405180910390f35b61026e600480360381019061026991906122d6565b611237565b604051610282989796959493929190612303565b60405180910390f35b6102a560048036038101906102a091906122d6565b611307565b6040516102b4939291906123a3565b60405180910390f35b6102d760048036038101906102d291906125d7565b61133e565b005b6102f360048036038101906102ee9190612120565b611ae4565b005b6102fd611bb9565b60405161030a9190611fe1565b60405180910390f35b61031b611bbf565b6040516103289190611fe1565b60405180910390f35b61034b60048036038101906103469190612120565b611bc5565b005b610355611cbc565b6040516103629190612740565b60405180910390f35b6103e881565b6060600280546103809061278a565b80601f01602080910402602001604051908101604052809291908181526020018280546103ac9061278a565b80156103f95780601f106103ce576101008083540402835291602001916103f9565b820191906000526020600020905b8154815290600101906020018083116103dc57829003601f168201915b5050505050905090565b600073ffffffffffffffffffffffffffffffffffffffff16600360009054906101000a900473ffffffffffffffffffffffffffffffffffffffff1673ffffffffffffffffffffffffffffffffffffffff1614610494576040517f08c379a000000000000000000000000000000000000000000000000000000000815260040161048b90612807565b60405180910390fd5b80600360006101000a81548173ffffffffffffffffffffffffffffffffffffffff021916908373ffffffffffffffffffffffffffffffffffffffff16021790555050565b60026000540361051d576040517f08c379a000000000000000000000000000000000000000000000000000000000815260040161051490612873565b60405180910390fd5b6002600081905550600a821115610569576040517f08c379a0000000000000000000000000000000000000000000000000000000008152600401610560906128df565b60405180910390fd5b60006007600086815260200190815260200160002060000154116105c2576040517f08c379a00000000000000000000000000000000000000000000000000000000081526004016105b99061294b565b60405180910390fd5b60008260076000878152602001908152602001600020600001546105e6919061299a565b90506000600360009054906101000a900473ffffffffffffffffffffffffffffffffffffffff1673ffffffffffffffffffffffffffffffffffffffff166370a08231306040518263ffffffff1660e01b81526004016106459190612252565b602060405180830381865afa158015610662573d6000803e3d6000fd5b505050506040513d601f19601f8201168201806040525081019061068691906129f1565b905081600360009054906101000a900473ffffffffffffffffffffffffffffffffffffffff1673ffffffffffffffffffffffffffffffffffffffff166370a08231856040518263ffffffff1660e01b81526004016106e49190612252565b602060405180830381865afa158015610701573d6000803e3d6000fd5b505050506040513d601f19601f8201168201806040525081019061072591906129f1565b1015610766576040517f08c379a000000000000000000000000000000000000000000000000000000000815260040161075d90612a90565b60405180910390fd5b600360009054906101000a900473ffffffffffffffffffffffffffffffffffffffff1673ffffffffffffffffffffffffffffffffffffffff166323b872dd8430856040518463ffffffff1660e01b81526004016107c593929190612ab0565b6020604051808303816000875af11580156107e4573d6000803e3d6000fd5b505050506040513d601f19601f820116820180604052508101906108089190612b13565b506000600360009054906101000a900473ffffffffffffffffffffffffffffffffffffffff1673ffffffffffffffffffffffffffffffffffffffff166370a08231306040518263ffffffff1660e01b81526004016108669190612252565b602060405180830381865afa158015610883573d6000803e3d6000fd5b505050506040513d601f19601f820116820180604052508101906108a791906129f1565b9050600082826108b79190612b40565b905060008d8d6103e88f886108cc919061299a565b6108d69190612ba3565b6108e0919061299a565b6108ea9190612ba3565b9050600360009054906101000a900473ffffffffffffffffffffffffffffffffffffffff1673ffffffffffffffffffffffffffffffffffffffff1663a9059cbb8c836040518363ffffffff1660e01b8152600401610949929190612bd4565b6020604051808303816000875af1158015610968573d6000803e3d6000fd5b505050506040513d601f19601f8201168201806040525081019061098c9190612b13565b506000816103e88f8861099f919061299a565b6109a99190612ba3565b6109b39190612b40565b9050600360009054906101000a900473ffffffffffffffffffffffffffffffffffffffff1673ffffffffffffffffffffffffffffffffffffffff1663a9059cbb8c836040518363ffffffff1660e01b8152600401610a12929190612bd4565b6020604051808303816000875af1158015610a31573d6000803e3d6000fd5b505050506040513d601f19601f82011682018060405250810190610a559190612b13565b5060006103e8600760008d81526020019081526020016000206004015488610a7d919061299a565b610a879190612ba3565b9050600360009054906101000a900473ffffffffffffffffffffffffffffffffffffffff1673ffffffffffffffffffffffffffffffffffffffff1663a9059cbb8f836040518363ffffffff1660e01b8152600401610ae6929190612bd4565b6020604051808303816000875af1158015610b05573d6000803e3d6000fd5b505050506040513d601f19601f82011682018060405250810190610b299190612b13565b5060006103e8600760008e81526020019081526020016000206003015489610b51919061299a565b610b5b9190612ba3565b9050600360009054906101000a900473ffffffffffffffffffffffffffffffffffffffff1673ffffffffffffffffffffffffffffffffffffffff1663a9059cbb600660009054906101000a900473ffffffffffffffffffffffffffffffffffffffff16836040518363ffffffff1660e01b8152600401610bdc929190612bd4565b6020604051808303816000875af1158015610bfb573d6000803e3d6000fd5b505050506040513d601f19601f82011682018060405250810190610c1f9190612b13565b5089600760008e81526020019081526020016000206007016000828254610c469190612bfd565b9250508190555060008060008e905060008e905060005b8e811015610d1e57600080610c73838587611ce2565b915091508187610c839190612bfd565b96508015610d095781955060008390505b6000811115610cd857600a60008681526020019081526020016000206000828152602001908152602001600020600090558080610cd090612c31565b915050610c94565b5085600a60008681526020019081526020016000206000808152602001908152602001600020819055505050610d1e565b50508080610d1690612c5a565b915050610c5d565b50600083116009600083815260200190815260200160002060000160006101000a81548160ff0219169083151502179055508d60096000838152602001908152602001600020600101819055508060096000838152602001908152602001600020600201819055506000831115610f0c5760006064600a85610da0919061299a565b610daa9190612ba3565b9050600060076000858152602001908152602001600020600101549050818111610e375786888a8c8e85610dde9190612bfd565b610de89190612b40565b610df29190612b40565b610dfc9190612b40565b610e069190612b40565b600860008681526020019081526020016000206000600b815260200190815260200160002060000181905550610e9c565b86888a8c8e86610e479190612bfd565b610e519190612b40565b610e5b9190612b40565b610e659190612b40565b610e6f9190612b40565b600860008681526020019081526020016000206000600b8152602001908152602001600020600001819055505b8185610ea89190612b40565b95506001600760008681526020019081526020016000206005016000828254610ed19190612bfd565b9250508190555085600760008681526020019081526020016000206006016000828254610efe9190612bfd565b925050819055505050610fd1565b83600760008481526020019081526020016000206006016000828254610f329190612bfd565b925050819055508486888a878d600860008981526020019081526020016000206000600b815260200190815260200160002060000154610f729190612bfd565b610f7c9190612b40565b610f869190612b40565b610f909190612b40565b610f9a9190612b40565b610fa49190612b40565b600860008481526020019081526020016000206000600b8152602001908152602001600020600001819055505b600084111561107c57600360009054906101000a900473ffffffffffffffffffffffffffffffffffffffff1673ffffffffffffffffffffffffffffffffffffffff1663a9059cbb8e866040518363ffffffff1660e01b8152600401611037929190612bd4565b6020604051808303816000875af1158015611056573d6000803e3d6000fd5b505050506040513d601f19601f8201168201806040525081019061107a9190612b13565b505b7f6a3f36c72d006bc18c991a32d6125245bdac6838f401790ed41516b495455672848f6009600085815260200190815260200160002060000160009054906101000a900460ff168b8b8b8b6040516110da9796959493929190612ca2565b60405180910390a15050505050505050505050506001600081905550505050505050505050565b600660009054906101000a900473ffffffffffffffffffffffffffffffffffffffff1681565b633b9aca0081565b6008602052816000526040600020602052806000526040600020600091509150508060000154908060010154905082565b611168611e1a565b73ffffffffffffffffffffffffffffffffffffffff1661118661120d565b73ffffffffffffffffffffffffffffffffffffffff16146111dc576040517f08c379a00000000000000000000000000000000000000000000000000000000081526004016111d390612d5d565b60405180910390fd5b6111e66000611e22565b565b600a602052816000526040600020602052806000526040600020600091509150505481565b6000600160009054906101000a900473ffffffffffffffffffffffffffffffffffffffff16905090565b60076020528060005260406000206000915090508060000154908060010154908060020180546112669061278a565b80601f01602080910402602001604051908101604052809291908181526020018280546112929061278a565b80156112df5780601f106112b4576101008083540402835291602001916112df565b820191906000526020600020905b8154815290600101906020018083116112c257829003601f168201915b5050505050908060030154908060040154908060050154908060060154908060070154905088565b60096020528060005260406000206000915090508060000160009054906101000a900460ff16908060010154908060020154905083565b600660009054906101000a900473ffffffffffffffffffffffffffffffffffffffff1673ffffffffffffffffffffffffffffffffffffffff1661137f611e1a565b73ffffffffffffffffffffffffffffffffffffffff16146113d5576040517f08c379a00000000000000000000000000000000000000000000000000000000081526004016113cc90612dc9565b60405180910390fd5b60008711611418576040517f08c379a000000000000000000000000000000000000000000000000000000000815260040161140f90612e35565b60405180910390fd5b6000861161145b576040517f08c379a000000000000000000000000000000000000000000000000000000000815260040161145290612e35565b60405180910390fd5b606485111561149f576040517f08c379a000000000000000000000000000000000000000000000000000000000815260040161149690612ea1565b60405180910390fd5b60648411156114e3576040517f08c379a00000000000000000000000000000000000000000000000000000000081526004016114da90612f0d565b60405180910390fd5b600b82511480156114f55750600b8151145b611534576040517f08c379a000000000000000000000000000000000000000000000000000000000815260040161152b90612f79565b60405180910390fd5b6001600460008282546115479190612bfd565b92505081905550866007600060045481526020019081526020016000206000018190555085600760006004548152602001908152602001600020600101819055508760076000600454815260200190815260200160002060020190816115ad919061313b565b50836007600060045481526020019081526020016000206003018190555084600760006004548152602001908152602001600020600401819055506000805b600b8110156116cb578381815181106116085761160761320d565b5b60200260200101516008600060045481526020019081526020016000206000838152602001908152602001600020600001819055508281815181106116505761164f61320d565b5b6020026020010151826116639190612bfd565b6008600060045481526020019081526020016000206000838152602001908152602001600020600101819055508281815181106116a3576116a261320d565b5b6020026020010151826116b69190612bfd565b915080806116c390612c5a565b9150506115ec565b506000600360009054906101000a900473ffffffffffffffffffffffffffffffffffffffff1673ffffffffffffffffffffffffffffffffffffffff166370a08231306040518263ffffffff1660e01b81526004016117299190612252565b602060405180830381865afa158015611746573d6000803e3d6000fd5b505050506040513d601f19601f8201168201806040525081019061176a91906129f1565b905087600360009054906101000a900473ffffffffffffffffffffffffffffffffffffffff1673ffffffffffffffffffffffffffffffffffffffff166370a08231600660009054906101000a900473ffffffffffffffffffffffffffffffffffffffff166040518263ffffffff1660e01b81526004016117ea9190612252565b602060405180830381865afa158015611807573d6000803e3d6000fd5b505050506040513d601f19601f8201168201806040525081019061182b91906129f1565b101561186c576040517f08c379a000000000000000000000000000000000000000000000000000000000815260040161186390612a90565b60405180910390fd5b600360009054906101000a900473ffffffffffffffffffffffffffffffffffffffff1673ffffffffffffffffffffffffffffffffffffffff166323b872dd600660009054906101000a900473ffffffffffffffffffffffffffffffffffffffff16308b6040518463ffffffff1660e01b81526004016118ed93929190612ab0565b6020604051808303816000875af115801561190c573d6000803e3d6000fd5b505050506040513d601f19601f820116820180604052508101906119309190612b13565b506000600360009054906101000a900473ffffffffffffffffffffffffffffffffffffffff1673ffffffffffffffffffffffffffffffffffffffff166370a08231306040518263ffffffff1660e01b815260040161198e9190612252565b602060405180830381865afa1580156119ab573d6000803e3d6000fd5b505050506040513d601f19601f820116820180604052508101906119cf91906129f1565b905085836119dd9190612bfd565b9250633b9aca008314611a25576040517f08c379a0000000000000000000000000000000000000000000000000000000008152600401611a1c90613288565b60405180910390fd5b856008600060045481526020019081526020016000206000600b8152602001908152602001600020600101819055508181611a609190612b40565b6008600060045481526020019081526020016000206000600b8152602001908152602001600020600001819055507fda5f1c502bf1ebb6b912cfab45836dc0db0102b387e4acb76c3204ee59d28a0f8b8b8b8b8b8b8b8b600454604051611acf999897969594939291906133b2565b60405180910390a15050505050505050505050565b600073ffffffffffffffffffffffffffffffffffffffff16600660009054906101000a900473ffffffffffffffffffffffffffffffffffffffff1673ffffffffffffffffffffffffffffffffffffffff1614611b75576040517f08c379a0000000000000000000000000000000000000000000000000000000008152600401611b6c906134b4565b60405180910390fd5b80600660006101000a81548173ffffffffffffffffffffffffffffffffffffffff021916908373ffffffffffffffffffffffffffffffffffffffff16021790555050565b60055481565b60045481565b611bcd611e1a565b73ffffffffffffffffffffffffffffffffffffffff16611beb61120d565b73ffffffffffffffffffffffffffffffffffffffff1614611c41576040517f08c379a0000000000000000000000000000000000000000000000000000000008152600401611c3890612d5d565b60405180910390fd5b600073ffffffffffffffffffffffffffffffffffffffff168173ffffffffffffffffffffffffffffffffffffffff1603611cb0576040517f08c379a0000000000000000000000000000000000000000000000000000000008152600401611ca790613546565b60405180910390fd5b611cb981611e22565b50565b600360009054906101000a900473ffffffffffffffffffffffffffffffffffffffff1681565b6000806000611cfc600c43611cf79190613566565b611ee8565b90506000915060005b600c811015611e1057600060086000878152602001908152602001600020600083815260200190815260200160002060010154118015611d6c5750600860008681526020019081526020016000206000828152602001908152602001600020600101548211155b15611dfd5760086000868152602001908152602001600020600082815260200190815260200160002060000154600a6000888152602001908152602001600020600089815260200190815260200160002081905550600860008681526020019081526020016000206000828152602001908152602001600020600001549350600b8103611df857600192505b611e10565b8080611e0890612c5a565b915050611d05565b5050935093915050565b600033905090565b6000600160009054906101000a900473ffffffffffffffffffffffffffffffffffffffff16905081600160006101000a81548173ffffffffffffffffffffffffffffffffffffffff021916908373ffffffffffffffffffffffffffffffffffffffff1602179055508173ffffffffffffffffffffffffffffffffffffffff168173ffffffffffffffffffffffffffffffffffffffff167f8be0079c531659141344cd1fd0a4f28419497f9722a3daafe3b4186f6b6457e060405160405180910390a35050565b6000600160056000828254611efd9190612bfd565b92505081905550633b9aca00600554611f2c84600554611f1d9190612bfd565b43611fb290919063ffffffff16565b611f4c85600554611f3d9190612bfd565b42611fb290919063ffffffff16565b611f6c86600554611f5d9190612bfd565b44611fb290919063ffffffff16565b611f74611e1a565b604051602001611f88959493929190613600565b6040516020818303038152906040528051906020012060001c611fab9190613566565b9050919050565b60008183611fc09190612bfd565b905092915050565b6000819050919050565b611fdb81611fc8565b82525050565b6000602082019050611ff66000830184611fd2565b92915050565b600081519050919050565b600082825260208201905092915050565b60005b8381101561203657808201518184015260208101905061201b565b60008484015250505050565b6000601f19601f8301169050919050565b600061205e82611ffc565b6120688185612007565b9350612078818560208601612018565b61208181612042565b840191505092915050565b600060208201905081810360008301526120a68184612053565b905092915050565b6000604051905090565b600080fd5b600080fd5b600073ffffffffffffffffffffffffffffffffffffffff82169050919050565b60006120ed826120c2565b9050919050565b6120fd816120e2565b811461210857600080fd5b50565b60008135905061211a816120f4565b92915050565b600060208284031215612136576121356120b8565b5b60006121448482850161210b565b91505092915050565b61215681611fc8565b811461216157600080fd5b50565b6000813590506121738161214d565b92915050565b60008060008060008060008060006101208a8c03121561219c5761219b6120b8565b5b60006121aa8c828d01612164565b99505060206121bb8c828d01612164565b98505060406121cc8c828d0161210b565b97505060606121dd8c828d0161210b565b96505060806121ee8c828d0161210b565b95505060a06121ff8c828d01612164565b94505060c06122108c828d01612164565b93505060e06122218c828d01612164565b9250506101006122338c828d0161210b565b9150509295985092959850929598565b61224c816120e2565b82525050565b60006020820190506122676000830184612243565b92915050565b60008060408385031215612284576122836120b8565b5b600061229285828601612164565b92505060206122a385828601612164565b9150509250929050565b60006040820190506122c26000830185611fd2565b6122cf6020830184611fd2565b9392505050565b6000602082840312156122ec576122eb6120b8565b5b60006122fa84828501612164565b91505092915050565b600061010082019050612319600083018b611fd2565b612326602083018a611fd2565b81810360408301526123388189612053565b90506123476060830188611fd2565b6123546080830187611fd2565b61236160a0830186611fd2565b61236e60c0830185611fd2565b61237b60e0830184611fd2565b9998505050505050505050565b60008115159050919050565b61239d81612388565b82525050565b60006060820190506123b86000830186612394565b6123c56020830185611fd2565b6123d26040830184611fd2565b949350505050565b600080fd5b600080fd5b7f4e487b7100000000000000000000000000000000000000000000000000000000600052604160045260246000fd5b61241c82612042565b810181811067ffffffffffffffff8211171561243b5761243a6123e4565b5b80604052505050565b600061244e6120ae565b905061245a8282612413565b919050565b600067ffffffffffffffff82111561247a576124796123e4565b5b61248382612042565b9050602081019050919050565b82818337600083830152505050565b60006124b26124ad8461245f565b612444565b9050828152602081018484840111156124ce576124cd6123df565b5b6124d9848285612490565b509392505050565b600082601f8301126124f6576124f56123da565b5b813561250684826020860161249f565b91505092915050565b600067ffffffffffffffff82111561252a576125296123e4565b5b602082029050602081019050919050565b600080fd5b600061255361254e8461250f565b612444565b905080838252602082019050602084028301858111156125765761257561253b565b5b835b8181101561259f578061258b8882612164565b845260208401935050602081019050612578565b5050509392505050565b600082601f8301126125be576125bd6123da565b5b81356125ce848260208601612540565b91505092915050565b600080600080600080600080610100898b0312156125f8576125f76120b8565b5b600089013567ffffffffffffffff811115612616576126156120bd565b5b6126228b828c016124e1565b98505060206126338b828c01612164565b97505060406126448b828c01612164565b96505060606126558b828c01612164565b95505060806126668b828c01612164565b94505060a06126778b828c01612164565b93505060c089013567ffffffffffffffff811115612698576126976120bd565b5b6126a48b828c016125a9565b92505060e089013567ffffffffffffffff8111156126c5576126c46120bd565b5b6126d18b828c016125a9565b9150509295985092959890939650565b6000819050919050565b60006127066127016126fc846120c2565b6126e1565b6120c2565b9050919050565b6000612718826126eb565b9050919050565b600061272a8261270d565b9050919050565b61273a8161271f565b82525050565b60006020820190506127556000830184612731565b92915050565b7f4e487b7100000000000000000000000000000000000000000000000000000000600052602260045260246000fd5b600060028204905060018216806127a257607f821691505b6020821081036127b5576127b461275b565b5b50919050565b7f6e6f742073657420746f6b656e00000000000000000000000000000000000000600082015250565b60006127f1600d83612007565b91506127fc826127bb565b602082019050919050565b60006020820190508181036000830152612820816127e4565b9050919050565b7f5265656e7472616e637947756172643a207265656e7472616e742063616c6c00600082015250565b600061285d601f83612007565b915061286882612827565b602082019050919050565b6000602082019050818103600083015261288c81612850565b9050919050565b7f5265717569726520717479203c3d203130000000000000000000000000000000600082015250565b60006128c9601183612007565b91506128d482612893565b602082019050919050565b600060208201905081810360008301526128f8816128bc565b9050919050565b7f47616d65206e6f7420666f756e64000000000000000000000000000000000000600082015250565b6000612935600e83612007565b9150612940826128ff565b602082019050919050565b6000602082019050818103600083015261296481612928565b9050919050565b7f4e487b7100000000000000000000000000000000000000000000000000000000600052601160045260246000fd5b60006129a582611fc8565b91506129b083611fc8565b92508282026129be81611fc8565b915082820484148315176129d5576129d461296b565b5b5092915050565b6000815190506129eb8161214d565b92915050565b600060208284031215612a0757612a066120b8565b5b6000612a15848285016129dc565b91505092915050565b7f496e73756666696369656e742066756e647320696e20746865206163636f756e60008201527f7400000000000000000000000000000000000000000000000000000000000000602082015250565b6000612a7a602183612007565b9150612a8582612a1e565b604082019050919050565b60006020820190508181036000830152612aa981612a6d565b9050919050565b6000606082019050612ac56000830186612243565b612ad26020830185612243565b612adf6040830184611fd2565b949350505050565b612af081612388565b8114612afb57600080fd5b50565b600081519050612b0d81612ae7565b92915050565b600060208284031215612b2957612b286120b8565b5b6000612b3784828501612afe565b91505092915050565b6000612b4b82611fc8565b9150612b5683611fc8565b9250828203905081811115612b6e57612b6d61296b565b5b92915050565b7f4e487b7100000000000000000000000000000000000000000000000000000000600052601260045260246000fd5b6000612bae82611fc8565b9150612bb983611fc8565b925082612bc957612bc8612b74565b5b828204905092915050565b6000604082019050612be96000830185612243565b612bf66020830184611fd2565b9392505050565b6000612c0882611fc8565b9150612c1383611fc8565b9250828201905080821115612c2b57612c2a61296b565b5b92915050565b6000612c3c82611fc8565b915060008203612c4f57612c4e61296b565b5b600182039050919050565b6000612c6582611fc8565b91507fffffffffffffffffffffffffffffffffffffffffffffffffffffffffffffffff8203612c9757612c9661296b565b5b600182019050919050565b600060e082019050612cb7600083018a611fd2565b612cc46020830189611fd2565b612cd16040830188612394565b612cde6060830187611fd2565b612ceb6080830186611fd2565b612cf860a0830185611fd2565b612d0560c0830184611fd2565b98975050505050505050565b7f4f776e61626c653a2063616c6c6572206973206e6f7420746865206f776e6572600082015250565b6000612d47602083612007565b9150612d5282612d11565b602082019050919050565b60006020820190508181036000830152612d7681612d3a565b9050919050565b7f6e6f742070726f6a656374206f776e6572206372656174652067616d65000000600082015250565b6000612db3601d83612007565b9150612dbe82612d7d565b602082019050919050565b60006020820190508181036000830152612de281612da6565b9050919050565b7f7072696365206973207a65726f00000000000000000000000000000000000000600082015250565b6000612e1f600d83612007565b9150612e2a82612de9565b602082019050919050565b60006020820190508181036000830152612e4e81612e12565b9050919050565b7f616666696c696174652070657263656e74203c20313025000000000000000000600082015250565b6000612e8b601783612007565b9150612e9682612e55565b602082019050919050565b60006020820190508181036000830152612eba81612e7e565b9050919050565b7f6f776e65722070657263656e74203c2031302500000000000000000000000000600082015250565b6000612ef7601383612007565b9150612f0282612ec1565b602082019050919050565b60006020820190508181036000830152612f2681612eea565b9050919050565b7f76616c756520616e642070657263656e74206973206e6f742076616c69640000600082015250565b6000612f63601e83612007565b9150612f6e82612f2d565b602082019050919050565b60006020820190508181036000830152612f9281612f56565b9050919050565b60008190508160005260206000209050919050565b60006020601f8301049050919050565b600082821b905092915050565b600060088302612ffb7fffffffffffffffffffffffffffffffffffffffffffffffffffffffffffffffff82612fbe565b6130058683612fbe565b95508019841693508086168417925050509392505050565b600061303861303361302e84611fc8565b6126e1565b611fc8565b9050919050565b6000819050919050565b6130528361301d565b61306661305e8261303f565b848454612fcb565b825550505050565b600090565b61307b61306e565b613086818484613049565b505050565b5b818110156130aa5761309f600082613073565b60018101905061308c565b5050565b601f8211156130ef576130c081612f99565b6130c984612fae565b810160208510156130d8578190505b6130ec6130e485612fae565b83018261308b565b50505b505050565b600082821c905092915050565b6000613112600019846008026130f4565b1980831691505092915050565b600061312b8383613101565b9150826002028217905092915050565b61314482611ffc565b67ffffffffffffffff81111561315d5761315c6123e4565b5b613167825461278a565b6131728282856130ae565b600060209050601f8311600181146131a55760008415613193578287015190505b61319d858261311f565b865550613205565b601f1984166131b386612f99565b60005b828110156131db578489015182556001820191506020850194506020810190506131b6565b868310156131f857848901516131f4601f891682613101565b8355505b6001600288020188555050505b505050505050565b7f4e487b7100000000000000000000000000000000000000000000000000000000600052603260045260246000fd5b7f746f74616c2070657263656e74207072697a65206973206e6f742076616c6964600082015250565b6000613272602083612007565b915061327d8261323c565b602082019050919050565b600060208201905081810360008301526132a181613265565b9050919050565b600081519050919050565b600082825260208201905092915050565b6000819050602082019050919050565b6132dd81611fc8565b82525050565b60006132ef83836132d4565b60208301905092915050565b6000602082019050919050565b6000613313826132a8565b61331d81856132b3565b9350613328836132c4565b8060005b8381101561335957815161334088826132e3565b975061334b836132fb565b92505060018101905061332c565b5085935050505092915050565b7f4d6567615f4a61636b706f745f56310000000000000000000000000000000000600082015250565b600061339c600f83612007565b91506133a782613366565b602082019050919050565b60006101408201905081810360008301526133cd818c612053565b90506133dc602083018b611fd2565b6133e9604083018a611fd2565b6133f66060830189611fd2565b6134036080830188611fd2565b61341060a0830187611fd2565b81810360c08301526134228186613308565b905081810360e08301526134368185613308565b9050613446610100830184611fd2565b8181036101208301526134588161338f565b90509a9950505050505050505050565b7f6e6f7420736574206f776e657257616c6c657400000000000000000000000000600082015250565b600061349e601383612007565b91506134a982613468565b602082019050919050565b600060208201905081810360008301526134cd81613491565b9050919050565b7f4f776e61626c653a206e6577206f776e657220697320746865207a65726f206160008201527f6464726573730000000000000000000000000000000000000000000000000000602082015250565b6000613530602683612007565b915061353b826134d4565b604082019050919050565b6000602082019050818103600083015261355f81613523565b9050919050565b600061357182611fc8565b915061357c83611fc8565b92508261358c5761358b612b74565b5b828206905092915050565b6000819050919050565b6135b26135ad82611fc8565b613597565b82525050565b60008160601b9050919050565b60006135d0826135b8565b9050919050565b60006135e2826135c5565b9050919050565b6135fa6135f5826120e2565b6135d7565b82525050565b600061360c82886135a1565b60208201915061361c82876135a1565b60208201915061362c82866135a1565b60208201915061363c82856135a1565b60208201915061364c82846135e9565b601482019150819050969550505050505056fea2646970667358221220b63e4221dab2f68a3fef32acc66219d5cdd77b669f5fe2a31960b21826fd71a164736f6c63430008120033",
					"opcodes": "PUSH1 0x80 PUSH1 0x40 MSTORE PUSH1 0x40 MLOAD DUP1 PUSH1 0x40 ADD PUSH1 0x40 MSTORE DUP1 PUSH1 0xF DUP2 MSTORE PUSH1 0x20 ADD PUSH32 0x4D656761204A61636B706F742056310000000000000000000000000000000000 DUP2 MSTORE POP PUSH1 0x2 SWAP1 DUP2 PUSH3 0x4A SWAP2 SWAP1 PUSH3 0x3D9 JUMP JUMPDEST POP PUSH1 0x0 PUSH1 0x4 SSTORE PUSH1 0x0 PUSH1 0x5 SSTORE CALLVALUE DUP1 ISZERO PUSH3 0x62 JUMPI PUSH1 0x0 DUP1 REVERT JUMPDEST POP PUSH1 0x1 PUSH1 0x0 DUP2 SWAP1 SSTORE POP PUSH3 0x8B PUSH3 0x7F PUSH3 0x91 PUSH1 0x20 SHL PUSH1 0x20 SHR JUMP JUMPDEST PUSH3 0x99 PUSH1 0x20 SHL PUSH1 0x20 SHR JUMP JUMPDEST PUSH3 0x4C0 JUMP JUMPDEST PUSH1 0x0 CALLER SWAP1 POP SWAP1 JUMP JUMPDEST PUSH1 0x0 PUSH1 0x1 PUSH1 0x0 SWAP1 SLOAD SWAP1 PUSH2 0x100 EXP SWAP1 DIV PUSH20 0xFFFFFFFFFFFFFFFFFFFFFFFFFFFFFFFFFFFFFFFF AND SWAP1 POP DUP2 PUSH1 0x1 PUSH1 0x0 PUSH2 0x100 EXP DUP2 SLOAD DUP2 PUSH20 0xFFFFFFFFFFFFFFFFFFFFFFFFFFFFFFFFFFFFFFFF MUL NOT AND SWAP1 DUP4 PUSH20 0xFFFFFFFFFFFFFFFFFFFFFFFFFFFFFFFFFFFFFFFF AND MUL OR SWAP1 SSTORE POP DUP2 PUSH20 0xFFFFFFFFFFFFFFFFFFFFFFFFFFFFFFFFFFFFFFFF AND DUP2 PUSH20 0xFFFFFFFFFFFFFFFFFFFFFFFFFFFFFFFFFFFFFFFF AND PUSH32 0x8BE0079C531659141344CD1FD0A4F28419497F9722A3DAAFE3B4186F6B6457E0 PUSH1 0x40 MLOAD PUSH1 0x40 MLOAD DUP1 SWAP2 SUB SWAP1 LOG3 POP POP JUMP JUMPDEST PUSH1 0x0 DUP2 MLOAD SWAP1 POP SWAP2 SWAP1 POP JUMP JUMPDEST PUSH32 0x4E487B7100000000000000000000000000000000000000000000000000000000 PUSH1 0x0 MSTORE PUSH1 0x41 PUSH1 0x4 MSTORE PUSH1 0x24 PUSH1 0x0 REVERT JUMPDEST PUSH32 0x4E487B7100000000000000000000000000000000000000000000000000000000 PUSH1 0x0 MSTORE PUSH1 0x22 PUSH1 0x4 MSTORE PUSH1 0x24 PUSH1 0x0 REVERT JUMPDEST PUSH1 0x0 PUSH1 0x2 DUP3 DIV SWAP1 POP PUSH1 0x1 DUP3 AND DUP1 PUSH3 0x1E1 JUMPI PUSH1 0x7F DUP3 AND SWAP2 POP JUMPDEST PUSH1 0x20 DUP3 LT DUP2 SUB PUSH3 0x1F7 JUMPI PUSH3 0x1F6 PUSH3 0x199 JUMP JUMPDEST JUMPDEST POP SWAP2 SWAP1 POP JUMP JUMPDEST PUSH1 0x0 DUP2 SWAP1 POP DUP2 PUSH1 0x0 MSTORE PUSH1 0x20 PUSH1 0x0 KECCAK256 SWAP1 POP SWAP2 SWAP1 POP JUMP JUMPDEST PUSH1 0x0 PUSH1 0x20 PUSH1 0x1F DUP4 ADD DIV SWAP1 POP SWAP2 SWAP1 POP JUMP JUMPDEST PUSH1 0x0 DUP3 DUP3 SHL SWAP1 POP SWAP3 SWAP2 POP POP JUMP JUMPDEST PUSH1 0x0 PUSH1 0x8 DUP4 MUL PUSH3 0x261 PUSH32 0xFFFFFFFFFFFFFFFFFFFFFFFFFFFFFFFFFFFFFFFFFFFFFFFFFFFFFFFFFFFFFFFF DUP3 PUSH3 0x222 JUMP JUMPDEST PUSH3 0x26D DUP7 DUP4 PUSH3 0x222 JUMP JUMPDEST SWAP6 POP DUP1 NOT DUP5 AND SWAP4 POP DUP1 DUP7 AND DUP5 OR SWAP3 POP POP POP SWAP4 SWAP3 POP POP POP JUMP JUMPDEST PUSH1 0x0 DUP2 SWAP1 POP SWAP2 SWAP1 POP JUMP JUMPDEST PUSH1 0x0 DUP2 SWAP1 POP SWAP2 SWAP1 POP JUMP JUMPDEST PUSH1 0x0 PUSH3 0x2BA PUSH3 0x2B4 PUSH3 0x2AE DUP5 PUSH3 0x285 JUMP JUMPDEST PUSH3 0x28F JUMP JUMPDEST PUSH3 0x285 JUMP JUMPDEST SWAP1 POP SWAP2 SWAP1 POP JUMP JUMPDEST PUSH1 0x0 DUP2 SWAP1 POP SWAP2 SWAP1 POP JUMP JUMPDEST PUSH3 0x2D6 DUP4 PUSH3 0x299 JUMP JUMPDEST PUSH3 0x2EE PUSH3 0x2E5 DUP3 PUSH3 0x2C1 JUMP JUMPDEST DUP5 DUP5 SLOAD PUSH3 0x22F JUMP JUMPDEST DUP3 SSTORE POP POP POP POP JUMP JUMPDEST PUSH1 0x0 SWAP1 JUMP JUMPDEST PUSH3 0x305 PUSH3 0x2F6 JUMP JUMPDEST PUSH3 0x312 DUP2 DUP5 DUP5 PUSH3 0x2CB JUMP JUMPDEST POP POP POP JUMP JUMPDEST JUMPDEST DUP2 DUP2 LT ISZERO PUSH3 0x33A JUMPI PUSH3 0x32E PUSH1 0x0 DUP3 PUSH3 0x2FB JUMP JUMPDEST PUSH1 0x1 DUP2 ADD SWAP1 POP PUSH3 0x318 JUMP JUMPDEST POP POP JUMP JUMPDEST PUSH1 0x1F DUP3 GT ISZERO PUSH3 0x389 JUMPI PUSH3 0x353 DUP2 PUSH3 0x1FD JUMP JUMPDEST PUSH3 0x35E DUP5 PUSH3 0x212 JUMP JUMPDEST DUP2 ADD PUSH1 0x20 DUP6 LT ISZERO PUSH3 0x36E JUMPI DUP2 SWAP1 POP JUMPDEST PUSH3 0x386 PUSH3 0x37D DUP6 PUSH3 0x212 JUMP JUMPDEST DUP4 ADD DUP3 PUSH3 0x317 JUMP JUMPDEST POP POP JUMPDEST POP POP POP JUMP JUMPDEST PUSH1 0x0 DUP3 DUP3 SHR SWAP1 POP SWAP3 SWAP2 POP POP JUMP JUMPDEST PUSH1 0x0 PUSH3 0x3AE PUSH1 0x0 NOT DUP5 PUSH1 0x8 MUL PUSH3 0x38E JUMP JUMPDEST NOT DUP1 DUP4 AND SWAP2 POP POP SWAP3 SWAP2 POP POP JUMP JUMPDEST PUSH1 0x0 PUSH3 0x3C9 DUP4 DUP4 PUSH3 0x39B JUMP JUMPDEST SWAP2 POP DUP3 PUSH1 0x2 MUL DUP3 OR SWAP1 POP SWAP3 SWAP2 POP POP JUMP JUMPDEST PUSH3 0x3E4 DUP3 PUSH3 0x15F JUMP JUMPDEST PUSH8 0xFFFFFFFFFFFFFFFF DUP2 GT ISZERO PUSH3 0x400 JUMPI PUSH3 0x3FF PUSH3 0x16A JUMP JUMPDEST JUMPDEST PUSH3 0x40C DUP3 SLOAD PUSH3 0x1C8 JUMP JUMPDEST PUSH3 0x419 DUP3 DUP3 DUP6 PUSH3 0x33E JUMP JUMPDEST PUSH1 0x0 PUSH1 0x20 SWAP1 POP PUSH1 0x1F DUP4 GT PUSH1 0x1 DUP2 EQ PUSH3 0x451 JUMPI PUSH1 0x0 DUP5 ISZERO PUSH3 0x43C JUMPI DUP3 DUP8 ADD MLOAD SWAP1 POP JUMPDEST PUSH3 0x448 DUP6 DUP3 PUSH3 0x3BB JUMP JUMPDEST DUP7 SSTORE POP PUSH3 0x4B8 JUMP JUMPDEST PUSH1 0x1F NOT DUP5 AND PUSH3 0x461 DUP7 PUSH3 0x1FD JUMP JUMPDEST PUSH1 0x0 JUMPDEST DUP3 DUP2 LT ISZERO PUSH3 0x48B JUMPI DUP5 DUP10 ADD MLOAD DUP3 SSTORE PUSH1 0x1 DUP3 ADD SWAP2 POP PUSH1 0x20 DUP6 ADD SWAP5 POP PUSH1 0x20 DUP2 ADD SWAP1 POP PUSH3 0x464 JUMP JUMPDEST DUP7 DUP4 LT ISZERO PUSH3 0x4AB JUMPI DUP5 DUP10 ADD MLOAD PUSH3 0x4A7 PUSH1 0x1F DUP10 AND DUP3 PUSH3 0x39B JUMP JUMPDEST DUP4 SSTORE POP JUMPDEST PUSH1 0x1 PUSH1 0x2 DUP9 MUL ADD DUP9 SSTORE POP POP POP JUMPDEST POP POP POP POP POP POP JUMP JUMPDEST PUSH2 0x3695 DUP1 PUSH3 0x4D0 PUSH1 0x0 CODECOPY PUSH1 0x0 RETURN INVALID PUSH1 0x80 PUSH1 0x40 MSTORE CALLVALUE DUP1 ISZERO PUSH2 0x10 JUMPI PUSH1 0x0 DUP1 REVERT JUMPDEST POP PUSH1 0x4 CALLDATASIZE LT PUSH2 0x116 JUMPI PUSH1 0x0 CALLDATALOAD PUSH1 0xE0 SHR DUP1 PUSH4 0x8DA5CB5B GT PUSH2 0xA2 JUMPI DUP1 PUSH4 0xAB346B0A GT PUSH2 0x71 JUMPI DUP1 PUSH4 0xAB346B0A EQ PUSH2 0x2D9 JUMPI DUP1 PUSH4 0xAFFED0E0 EQ PUSH2 0x2F5 JUMPI DUP1 PUSH4 0xE7C1BF9F EQ PUSH2 0x313 JUMPI DUP1 PUSH4 0xF2FDE38B EQ PUSH2 0x331 JUMPI DUP1 PUSH4 0xFC0C546A EQ PUSH2 0x34D JUMPI PUSH2 0x116 JUMP JUMPDEST DUP1 PUSH4 0x8DA5CB5B EQ PUSH2 0x236 JUMPI DUP1 PUSH4 0xA6F81668 EQ PUSH2 0x254 JUMPI DUP1 PUSH4 0xA85C38EF EQ PUSH2 0x28B JUMPI DUP1 PUSH4 0xAAB0A510 EQ PUSH2 0x2BD JUMPI PUSH2 0x116 JUMP JUMPDEST DUP1 PUSH4 0x2F8DC9A0 GT PUSH2 0xE9 JUMPI DUP1 PUSH4 0x2F8DC9A0 EQ PUSH2 0x18F JUMPI DUP1 PUSH4 0x325E8744 EQ PUSH2 0x1AD JUMPI DUP1 PUSH4 0x7036992A EQ PUSH2 0x1CB JUMPI DUP1 PUSH4 0x715018A6 EQ PUSH2 0x1FC JUMPI DUP1 PUSH4 0x75AF2DD9 EQ PUSH2 0x206 JUMPI PUSH2 0x116 JUMP JUMPDEST DUP1 PUSH4 0x1C234A8 EQ PUSH2 0x11B JUMPI DUP1 PUSH4 0x6FDDE03 EQ PUSH2 0x139 JUMPI DUP1 PUSH4 0x144FA6D7 EQ PUSH2 0x157 JUMPI DUP1 PUSH4 0x2240B81A EQ PUSH2 0x173 JUMPI JUMPDEST PUSH1 0x0 DUP1 REVERT JUMPDEST PUSH2 0x123 PUSH2 0x36B JUMP JUMPDEST PUSH1 0x40 MLOAD PUSH2 0x130 SWAP2 SWAP1 PUSH2 0x1FE1 JUMP JUMPDEST PUSH1 0x40 MLOAD DUP1 SWAP2 SUB SWAP1 RETURN JUMPDEST PUSH2 0x141 PUSH2 0x371 JUMP JUMPDEST PUSH1 0x40 MLOAD PUSH2 0x14E SWAP2 SWAP1 PUSH2 0x208C JUMP JUMPDEST PUSH1 0x40 MLOAD DUP1 SWAP2 SUB SWAP1 RETURN JUMPDEST PUSH2 0x171 PUSH1 0x4 DUP1 CALLDATASIZE SUB DUP2 ADD SWAP1 PUSH2 0x16C SWAP2 SWAP1 PUSH2 0x2120 JUMP JUMPDEST PUSH2 0x403 JUMP JUMPDEST STOP JUMPDEST PUSH2 0x18D PUSH1 0x4 DUP1 CALLDATASIZE SUB DUP2 ADD SWAP1 PUSH2 0x188 SWAP2 SWAP1 PUSH2 0x2179 JUMP JUMPDEST PUSH2 0x4D8 JUMP JUMPDEST STOP JUMPDEST PUSH2 0x197 PUSH2 0x1101 JUMP JUMPDEST PUSH1 0x40 MLOAD PUSH2 0x1A4 SWAP2 SWAP1 PUSH2 0x2252 JUMP JUMPDEST PUSH1 0x40 MLOAD DUP1 SWAP2 SUB SWAP1 RETURN JUMPDEST PUSH2 0x1B5 PUSH2 0x1127 JUMP JUMPDEST PUSH1 0x40 MLOAD PUSH2 0x1C2 SWAP2 SWAP1 PUSH2 0x1FE1 JUMP JUMPDEST PUSH1 0x40 MLOAD DUP1 SWAP2 SUB SWAP1 RETURN JUMPDEST PUSH2 0x1E5 PUSH1 0x4 DUP1 CALLDATASIZE SUB DUP2 ADD SWAP1 PUSH2 0x1E0 SWAP2 SWAP1 PUSH2 0x226D JUMP JUMPDEST PUSH2 0x112F JUMP JUMPDEST PUSH1 0x40 MLOAD PUSH2 0x1F3 SWAP3 SWAP2 SWAP1 PUSH2 0x22AD JUMP JUMPDEST PUSH1 0x40 MLOAD DUP1 SWAP2 SUB SWAP1 RETURN JUMPDEST PUSH2 0x204 PUSH2 0x1160 JUMP JUMPDEST STOP JUMPDEST PUSH2 0x220 PUSH1 0x4 DUP1 CALLDATASIZE SUB DUP2 ADD SWAP1 PUSH2 0x21B SWAP2 SWAP1 PUSH2 0x226D JUMP JUMPDEST PUSH2 0x11E8 JUMP JUMPDEST PUSH1 0x40 MLOAD PUSH2 0x22D SWAP2 SWAP1 PUSH2 0x1FE1 JUMP JUMPDEST PUSH1 0x40 MLOAD DUP1 SWAP2 SUB SWAP1 RETURN JUMPDEST PUSH2 0x23E PUSH2 0x120D JUMP JUMPDEST PUSH1 0x40 MLOAD PUSH2 0x24B SWAP2 SWAP1 PUSH2 0x2252 JUMP JUMPDEST PUSH1 0x40 MLOAD DUP1 SWAP2 SUB SWAP1 RETURN JUMPDEST PUSH2 0x26E PUSH1 0x4 DUP1 CALLDATASIZE SUB DUP2 ADD SWAP1 PUSH2 0x269 SWAP2 SWAP1 PUSH2 0x22D6 JUMP JUMPDEST PUSH2 0x1237 JUMP JUMPDEST PUSH1 0x40 MLOAD PUSH2 0x282 SWAP9 SWAP8 SWAP7 SWAP6 SWAP5 SWAP4 SWAP3 SWAP2 SWAP1 PUSH2 0x2303 JUMP JUMPDEST PUSH1 0x40 MLOAD DUP1 SWAP2 SUB SWAP1 RETURN JUMPDEST PUSH2 0x2A5 PUSH1 0x4 DUP1 CALLDATASIZE SUB DUP2 ADD SWAP1 PUSH2 0x2A0 SWAP2 SWAP1 PUSH2 0x22D6 JUMP JUMPDEST PUSH2 0x1307 JUMP JUMPDEST PUSH1 0x40 MLOAD PUSH2 0x2B4 SWAP4 SWAP3 SWAP2 SWAP1 PUSH2 0x23A3 JUMP JUMPDEST PUSH1 0x40 MLOAD DUP1 SWAP2 SUB SWAP1 RETURN JUMPDEST PUSH2 0x2D7 PUSH1 0x4 DUP1 CALLDATASIZE SUB DUP2 ADD SWAP1 PUSH2 0x2D2 SWAP2 SWAP1 PUSH2 0x25D7 JUMP JUMPDEST PUSH2 0x133E JUMP JUMPDEST STOP JUMPDEST PUSH2 0x2F3 PUSH1 0x4 DUP1 CALLDATASIZE SUB DUP2 ADD SWAP1 PUSH2 0x2EE SWAP2 SWAP1 PUSH2 0x2120 JUMP JUMPDEST PUSH2 0x1AE4 JUMP JUMPDEST STOP JUMPDEST PUSH2 0x2FD PUSH2 0x1BB9 JUMP JUMPDEST PUSH1 0x40 MLOAD PUSH2 0x30A SWAP2 SWAP1 PUSH2 0x1FE1 JUMP JUMPDEST PUSH1 0x40 MLOAD DUP1 SWAP2 SUB SWAP1 RETURN JUMPDEST PUSH2 0x31B PUSH2 0x1BBF JUMP JUMPDEST PUSH1 0x40 MLOAD PUSH2 0x328 SWAP2 SWAP1 PUSH2 0x1FE1 JUMP JUMPDEST PUSH1 0x40 MLOAD DUP1 SWAP2 SUB SWAP1 RETURN JUMPDEST PUSH2 0x34B PUSH1 0x4 DUP1 CALLDATASIZE SUB DUP2 ADD SWAP1 PUSH2 0x346 SWAP2 SWAP1 PUSH2 0x2120 JUMP JUMPDEST PUSH2 0x1BC5 JUMP JUMPDEST STOP JUMPDEST PUSH2 0x355 PUSH2 0x1CBC JUMP JUMPDEST PUSH1 0x40 MLOAD PUSH2 0x362 SWAP2 SWAP1 PUSH2 0x2740 JUMP JUMPDEST PUSH1 0x40 MLOAD DUP1 SWAP2 SUB SWAP1 RETURN JUMPDEST PUSH2 0x3E8 DUP2 JUMP JUMPDEST PUSH1 0x60 PUSH1 0x2 DUP1 SLOAD PUSH2 0x380 SWAP1 PUSH2 0x278A JUMP JUMPDEST DUP1 PUSH1 0x1F ADD PUSH1 0x20 DUP1 SWAP2 DIV MUL PUSH1 0x20 ADD PUSH1 0x40 MLOAD SWAP1 DUP2 ADD PUSH1 0x40 MSTORE DUP1 SWAP3 SWAP2 SWAP1 DUP2 DUP2 MSTORE PUSH1 0x20 ADD DUP3 DUP1 SLOAD PUSH2 0x3AC SWAP1 PUSH2 0x278A JUMP JUMPDEST DUP1 ISZERO PUSH2 0x3F9 JUMPI DUP1 PUSH1 0x1F LT PUSH2 0x3CE JUMPI PUSH2 0x100 DUP1 DUP4 SLOAD DIV MUL DUP4 MSTORE SWAP2 PUSH1 0x20 ADD SWAP2 PUSH2 0x3F9 JUMP JUMPDEST DUP3 ADD SWAP2 SWAP1 PUSH1 0x0 MSTORE PUSH1 0x20 PUSH1 0x0 KECCAK256 SWAP1 JUMPDEST DUP2 SLOAD DUP2 MSTORE SWAP1 PUSH1 0x1 ADD SWAP1 PUSH1 0x20 ADD DUP1 DUP4 GT PUSH2 0x3DC JUMPI DUP3 SWAP1 SUB PUSH1 0x1F AND DUP3 ADD SWAP2 JUMPDEST POP POP POP POP POP SWAP1 POP SWAP1 JUMP JUMPDEST PUSH1 0x0 PUSH20 0xFFFFFFFFFFFFFFFFFFFFFFFFFFFFFFFFFFFFFFFF AND PUSH1 0x3 PUSH1 0x0 SWAP1 SLOAD SWAP1 PUSH2 0x100 EXP SWAP1 DIV PUSH20 0xFFFFFFFFFFFFFFFFFFFFFFFFFFFFFFFFFFFFFFFF AND PUSH20 0xFFFFFFFFFFFFFFFFFFFFFFFFFFFFFFFFFFFFFFFF AND EQ PUSH2 0x494 JUMPI PUSH1 0x40 MLOAD PUSH32 0x8C379A000000000000000000000000000000000000000000000000000000000 DUP2 MSTORE PUSH1 0x4 ADD PUSH2 0x48B SWAP1 PUSH2 0x2807 JUMP JUMPDEST PUSH1 0x40 MLOAD DUP1 SWAP2 SUB SWAP1 REVERT JUMPDEST DUP1 PUSH1 0x3 PUSH1 0x0 PUSH2 0x100 EXP DUP2 SLOAD DUP2 PUSH20 0xFFFFFFFFFFFFFFFFFFFFFFFFFFFFFFFFFFFFFFFF MUL NOT AND SWAP1 DUP4 PUSH20 0xFFFFFFFFFFFFFFFFFFFFFFFFFFFFFFFFFFFFFFFF AND MUL OR SWAP1 SSTORE POP POP JUMP JUMPDEST PUSH1 0x2 PUSH1 0x0 SLOAD SUB PUSH2 0x51D JUMPI PUSH1 0x40 MLOAD PUSH32 0x8C379A000000000000000000000000000000000000000000000000000000000 DUP2 MSTORE PUSH1 0x4 ADD PUSH2 0x514 SWAP1 PUSH2 0x2873 JUMP JUMPDEST PUSH1 0x40 MLOAD DUP1 SWAP2 SUB SWAP1 REVERT JUMPDEST PUSH1 0x2 PUSH1 0x0 DUP2 SWAP1 SSTORE POP PUSH1 0xA DUP3 GT ISZERO PUSH2 0x569 JUMPI PUSH1 0x40 MLOAD PUSH32 0x8C379A000000000000000000000000000000000000000000000000000000000 DUP2 MSTORE PUSH1 0x4 ADD PUSH2 0x560 SWAP1 PUSH2 0x28DF JUMP JUMPDEST PUSH1 0x40 MLOAD DUP1 SWAP2 SUB SWAP1 REVERT JUMPDEST PUSH1 0x0 PUSH1 0x7 PUSH1 0x0 DUP7 DUP2 MSTORE PUSH1 0x20 ADD SWAP1 DUP2 MSTORE PUSH1 0x20 ADD PUSH1 0x0 KECCAK256 PUSH1 0x0 ADD SLOAD GT PUSH2 0x5C2 JUMPI PUSH1 0x40 MLOAD PUSH32 0x8C379A000000000000000000000000000000000000000000000000000000000 DUP2 MSTORE PUSH1 0x4 ADD PUSH2 0x5B9 SWAP1 PUSH2 0x294B JUMP JUMPDEST PUSH1 0x40 MLOAD DUP1 SWAP2 SUB SWAP1 REVERT JUMPDEST PUSH1 0x0 DUP3 PUSH1 0x7 PUSH1 0x0 DUP8 DUP2 MSTORE PUSH1 0x20 ADD SWAP1 DUP2 MSTORE PUSH1 0x20 ADD PUSH1 0x0 KECCAK256 PUSH1 0x0 ADD SLOAD PUSH2 0x5E6 SWAP2 SWAP1 PUSH2 0x299A JUMP JUMPDEST SWAP1 POP PUSH1 0x0 PUSH1 0x3 PUSH1 0x0 SWAP1 SLOAD SWAP1 PUSH2 0x100 EXP SWAP1 DIV PUSH20 0xFFFFFFFFFFFFFFFFFFFFFFFFFFFFFFFFFFFFFFFF AND PUSH20 0xFFFFFFFFFFFFFFFFFFFFFFFFFFFFFFFFFFFFFFFF AND PUSH4 0x70A08231 ADDRESS PUSH1 0x40 MLOAD DUP3 PUSH4 0xFFFFFFFF AND PUSH1 0xE0 SHL DUP2 MSTORE PUSH1 0x4 ADD PUSH2 0x645 SWAP2 SWAP1 PUSH2 0x2252 JUMP JUMPDEST PUSH1 0x20 PUSH1 0x40 MLOAD DUP1 DUP4 SUB DUP2 DUP7 GAS STATICCALL ISZERO DUP1 ISZERO PUSH2 0x662 JUMPI RETURNDATASIZE PUSH1 0x0 DUP1 RETURNDATACOPY RETURNDATASIZE PUSH1 0x0 REVERT JUMPDEST POP POP POP POP PUSH1 0x40 MLOAD RETURNDATASIZE PUSH1 0x1F NOT PUSH1 0x1F DUP3 ADD AND DUP3 ADD DUP1 PUSH1 0x40 MSTORE POP DUP2 ADD SWAP1 PUSH2 0x686 SWAP2 SWAP1 PUSH2 0x29F1 JUMP JUMPDEST SWAP1 POP DUP2 PUSH1 0x3 PUSH1 0x0 SWAP1 SLOAD SWAP1 PUSH2 0x100 EXP SWAP1 DIV PUSH20 0xFFFFFFFFFFFFFFFFFFFFFFFFFFFFFFFFFFFFFFFF AND PUSH20 0xFFFFFFFFFFFFFFFFFFFFFFFFFFFFFFFFFFFFFFFF AND PUSH4 0x70A08231 DUP6 PUSH1 0x40 MLOAD DUP3 PUSH4 0xFFFFFFFF AND PUSH1 0xE0 SHL DUP2 MSTORE PUSH1 0x4 ADD PUSH2 0x6E4 SWAP2 SWAP1 PUSH2 0x2252 JUMP JUMPDEST PUSH1 0x20 PUSH1 0x40 MLOAD DUP1 DUP4 SUB DUP2 DUP7 GAS STATICCALL ISZERO DUP1 ISZERO PUSH2 0x701 JUMPI RETURNDATASIZE PUSH1 0x0 DUP1 RETURNDATACOPY RETURNDATASIZE PUSH1 0x0 REVERT JUMPDEST POP POP POP POP PUSH1 0x40 MLOAD RETURNDATASIZE PUSH1 0x1F NOT PUSH1 0x1F DUP3 ADD AND DUP3 ADD DUP1 PUSH1 0x40 MSTORE POP DUP2 ADD SWAP1 PUSH2 0x725 SWAP2 SWAP1 PUSH2 0x29F1 JUMP JUMPDEST LT ISZERO PUSH2 0x766 JUMPI PUSH1 0x40 MLOAD PUSH32 0x8C379A000000000000000000000000000000000000000000000000000000000 DUP2 MSTORE PUSH1 0x4 ADD PUSH2 0x75D SWAP1 PUSH2 0x2A90 JUMP JUMPDEST PUSH1 0x40 MLOAD DUP1 SWAP2 SUB SWAP1 REVERT JUMPDEST PUSH1 0x3 PUSH1 0x0 SWAP1 SLOAD SWAP1 PUSH2 0x100 EXP SWAP1 DIV PUSH20 0xFFFFFFFFFFFFFFFFFFFFFFFFFFFFFFFFFFFFFFFF AND PUSH20 0xFFFFFFFFFFFFFFFFFFFFFFFFFFFFFFFFFFFFFFFF AND PUSH4 0x23B872DD DUP5 ADDRESS DUP6 PUSH1 0x40 MLOAD DUP5 PUSH4 0xFFFFFFFF AND PUSH1 0xE0 SHL DUP2 MSTORE PUSH1 0x4 ADD PUSH2 0x7C5 SWAP4 SWAP3 SWAP2 SWAP1 PUSH2 0x2AB0 JUMP JUMPDEST PUSH1 0x20 PUSH1 0x40 MLOAD DUP1 DUP4 SUB DUP2 PUSH1 0x0 DUP8 GAS CALL ISZERO DUP1 ISZERO PUSH2 0x7E4 JUMPI RETURNDATASIZE PUSH1 0x0 DUP1 RETURNDATACOPY RETURNDATASIZE PUSH1 0x0 REVERT JUMPDEST POP POP POP POP PUSH1 0x40 MLOAD RETURNDATASIZE PUSH1 0x1F NOT PUSH1 0x1F DUP3 ADD AND DUP3 ADD DUP1 PUSH1 0x40 MSTORE POP DUP2 ADD SWAP1 PUSH2 0x808 SWAP2 SWAP1 PUSH2 0x2B13 JUMP JUMPDEST POP PUSH1 0x0 PUSH1 0x3 PUSH1 0x0 SWAP1 SLOAD SWAP1 PUSH2 0x100 EXP SWAP1 DIV PUSH20 0xFFFFFFFFFFFFFFFFFFFFFFFFFFFFFFFFFFFFFFFF AND PUSH20 0xFFFFFFFFFFFFFFFFFFFFFFFFFFFFFFFFFFFFFFFF AND PUSH4 0x70A08231 ADDRESS PUSH1 0x40 MLOAD DUP3 PUSH4 0xFFFFFFFF AND PUSH1 0xE0 SHL DUP2 MSTORE PUSH1 0x4 ADD PUSH2 0x866 SWAP2 SWAP1 PUSH2 0x2252 JUMP JUMPDEST PUSH1 0x20 PUSH1 0x40 MLOAD DUP1 DUP4 SUB DUP2 DUP7 GAS STATICCALL ISZERO DUP1 ISZERO PUSH2 0x883 JUMPI RETURNDATASIZE PUSH1 0x0 DUP1 RETURNDATACOPY RETURNDATASIZE PUSH1 0x0 REVERT JUMPDEST POP POP POP POP PUSH1 0x40 MLOAD RETURNDATASIZE PUSH1 0x1F NOT PUSH1 0x1F DUP3 ADD AND DUP3 ADD DUP1 PUSH1 0x40 MSTORE POP DUP2 ADD SWAP1 PUSH2 0x8A7 SWAP2 SWAP1 PUSH2 0x29F1 JUMP JUMPDEST SWAP1 POP PUSH1 0x0 DUP3 DUP3 PUSH2 0x8B7 SWAP2 SWAP1 PUSH2 0x2B40 JUMP JUMPDEST SWAP1 POP PUSH1 0x0 DUP14 DUP14 PUSH2 0x3E8 DUP16 DUP9 PUSH2 0x8CC SWAP2 SWAP1 PUSH2 0x299A JUMP JUMPDEST PUSH2 0x8D6 SWAP2 SWAP1 PUSH2 0x2BA3 JUMP JUMPDEST PUSH2 0x8E0 SWAP2 SWAP1 PUSH2 0x299A JUMP JUMPDEST PUSH2 0x8EA SWAP2 SWAP1 PUSH2 0x2BA3 JUMP JUMPDEST SWAP1 POP PUSH1 0x3 PUSH1 0x0 SWAP1 SLOAD SWAP1 PUSH2 0x100 EXP SWAP1 DIV PUSH20 0xFFFFFFFFFFFFFFFFFFFFFFFFFFFFFFFFFFFFFFFF AND PUSH20 0xFFFFFFFFFFFFFFFFFFFFFFFFFFFFFFFFFFFFFFFF AND PUSH4 0xA9059CBB DUP13 DUP4 PUSH1 0x40 MLOAD DUP4 PUSH4 0xFFFFFFFF AND PUSH1 0xE0 SHL DUP2 MSTORE PUSH1 0x4 ADD PUSH2 0x949 SWAP3 SWAP2 SWAP1 PUSH2 0x2BD4 JUMP JUMPDEST PUSH1 0x20 PUSH1 0x40 MLOAD DUP1 DUP4 SUB DUP2 PUSH1 0x0 DUP8 GAS CALL ISZERO DUP1 ISZERO PUSH2 0x968 JUMPI RETURNDATASIZE PUSH1 0x0 DUP1 RETURNDATACOPY RETURNDATASIZE PUSH1 0x0 REVERT JUMPDEST POP POP POP POP PUSH1 0x40 MLOAD RETURNDATASIZE PUSH1 0x1F NOT PUSH1 0x1F DUP3 ADD AND DUP3 ADD DUP1 PUSH1 0x40 MSTORE POP DUP2 ADD SWAP1 PUSH2 0x98C SWAP2 SWAP1 PUSH2 0x2B13 JUMP JUMPDEST POP PUSH1 0x0 DUP2 PUSH2 0x3E8 DUP16 DUP9 PUSH2 0x99F SWAP2 SWAP1 PUSH2 0x299A JUMP JUMPDEST PUSH2 0x9A9 SWAP2 SWAP1 PUSH2 0x2BA3 JUMP JUMPDEST PUSH2 0x9B3 SWAP2 SWAP1 PUSH2 0x2B40 JUMP JUMPDEST SWAP1 POP PUSH1 0x3 PUSH1 0x0 SWAP1 SLOAD SWAP1 PUSH2 0x100 EXP SWAP1 DIV PUSH20 0xFFFFFFFFFFFFFFFFFFFFFFFFFFFFFFFFFFFFFFFF AND PUSH20 0xFFFFFFFFFFFFFFFFFFFFFFFFFFFFFFFFFFFFFFFF AND PUSH4 0xA9059CBB DUP13 DUP4 PUSH1 0x40 MLOAD DUP4 PUSH4 0xFFFFFFFF AND PUSH1 0xE0 SHL DUP2 MSTORE PUSH1 0x4 ADD PUSH2 0xA12 SWAP3 SWAP2 SWAP1 PUSH2 0x2BD4 JUMP JUMPDEST PUSH1 0x20 PUSH1 0x40 MLOAD DUP1 DUP4 SUB DUP2 PUSH1 0x0 DUP8 GAS CALL ISZERO DUP1 ISZERO PUSH2 0xA31 JUMPI RETURNDATASIZE PUSH1 0x0 DUP1 RETURNDATACOPY RETURNDATASIZE PUSH1 0x0 REVERT JUMPDEST POP POP POP POP PUSH1 0x40 MLOAD RETURNDATASIZE PUSH1 0x1F NOT PUSH1 0x1F DUP3 ADD AND DUP3 ADD DUP1 PUSH1 0x40 MSTORE POP DUP2 ADD SWAP1 PUSH2 0xA55 SWAP2 SWAP1 PUSH2 0x2B13 JUMP JUMPDEST POP PUSH1 0x0 PUSH2 0x3E8 PUSH1 0x7 PUSH1 0x0 DUP14 DUP2 MSTORE PUSH1 0x20 ADD SWAP1 DUP2 MSTORE PUSH1 0x20 ADD PUSH1 0x0 KECCAK256 PUSH1 0x4 ADD SLOAD DUP9 PUSH2 0xA7D SWAP2 SWAP1 PUSH2 0x299A JUMP JUMPDEST PUSH2 0xA87 SWAP2 SWAP1 PUSH2 0x2BA3 JUMP JUMPDEST SWAP1 POP PUSH1 0x3 PUSH1 0x0 SWAP1 SLOAD SWAP1 PUSH2 0x100 EXP SWAP1 DIV PUSH20 0xFFFFFFFFFFFFFFFFFFFFFFFFFFFFFFFFFFFFFFFF AND PUSH20 0xFFFFFFFFFFFFFFFFFFFFFFFFFFFFFFFFFFFFFFFF AND PUSH4 0xA9059CBB DUP16 DUP4 PUSH1 0x40 MLOAD DUP4 PUSH4 0xFFFFFFFF AND PUSH1 0xE0 SHL DUP2 MSTORE PUSH1 0x4 ADD PUSH2 0xAE6 SWAP3 SWAP2 SWAP1 PUSH2 0x2BD4 JUMP JUMPDEST PUSH1 0x20 PUSH1 0x40 MLOAD DUP1 DUP4 SUB DUP2 PUSH1 0x0 DUP8 GAS CALL ISZERO DUP1 ISZERO PUSH2 0xB05 JUMPI RETURNDATASIZE PUSH1 0x0 DUP1 RETURNDATACOPY RETURNDATASIZE PUSH1 0x0 REVERT JUMPDEST POP POP POP POP PUSH1 0x40 MLOAD RETURNDATASIZE PUSH1 0x1F NOT PUSH1 0x1F DUP3 ADD AND DUP3 ADD DUP1 PUSH1 0x40 MSTORE POP DUP2 ADD SWAP1 PUSH2 0xB29 SWAP2 SWAP1 PUSH2 0x2B13 JUMP JUMPDEST POP PUSH1 0x0 PUSH2 0x3E8 PUSH1 0x7 PUSH1 0x0 DUP15 DUP2 MSTORE PUSH1 0x20 ADD SWAP1 DUP2 MSTORE PUSH1 0x20 ADD PUSH1 0x0 KECCAK256 PUSH1 0x3 ADD SLOAD DUP10 PUSH2 0xB51 SWAP2 SWAP1 PUSH2 0x299A JUMP JUMPDEST PUSH2 0xB5B SWAP2 SWAP1 PUSH2 0x2BA3 JUMP JUMPDEST SWAP1 POP PUSH1 0x3 PUSH1 0x0 SWAP1 SLOAD SWAP1 PUSH2 0x100 EXP SWAP1 DIV PUSH20 0xFFFFFFFFFFFFFFFFFFFFFFFFFFFFFFFFFFFFFFFF AND PUSH20 0xFFFFFFFFFFFFFFFFFFFFFFFFFFFFFFFFFFFFFFFF AND PUSH4 0xA9059CBB PUSH1 0x6 PUSH1 0x0 SWAP1 SLOAD SWAP1 PUSH2 0x100 EXP SWAP1 DIV PUSH20 0xFFFFFFFFFFFFFFFFFFFFFFFFFFFFFFFFFFFFFFFF AND DUP4 PUSH1 0x40 MLOAD DUP4 PUSH4 0xFFFFFFFF AND PUSH1 0xE0 SHL DUP2 MSTORE PUSH1 0x4 ADD PUSH2 0xBDC SWAP3 SWAP2 SWAP1 PUSH2 0x2BD4 JUMP JUMPDEST PUSH1 0x20 PUSH1 0x40 MLOAD DUP1 DUP4 SUB DUP2 PUSH1 0x0 DUP8 GAS CALL ISZERO DUP1 ISZERO PUSH2 0xBFB JUMPI RETURNDATASIZE PUSH1 0x0 DUP1 RETURNDATACOPY RETURNDATASIZE PUSH1 0x0 REVERT JUMPDEST POP POP POP POP PUSH1 0x40 MLOAD RETURNDATASIZE PUSH1 0x1F NOT PUSH1 0x1F DUP3 ADD AND DUP3 ADD DUP1 PUSH1 0x40 MSTORE POP DUP2 ADD SWAP1 PUSH2 0xC1F SWAP2 SWAP1 PUSH2 0x2B13 JUMP JUMPDEST POP DUP10 PUSH1 0x7 PUSH1 0x0 DUP15 DUP2 MSTORE PUSH1 0x20 ADD SWAP1 DUP2 MSTORE PUSH1 0x20 ADD PUSH1 0x0 KECCAK256 PUSH1 0x7 ADD PUSH1 0x0 DUP3 DUP3 SLOAD PUSH2 0xC46 SWAP2 SWAP1 PUSH2 0x2BFD JUMP JUMPDEST SWAP3 POP POP DUP2 SWAP1 SSTORE POP PUSH1 0x0 DUP1 PUSH1 0x0 DUP15 SWAP1 POP PUSH1 0x0 DUP15 SWAP1 POP PUSH1 0x0 JUMPDEST DUP15 DUP2 LT ISZERO PUSH2 0xD1E JUMPI PUSH1 0x0 DUP1 PUSH2 0xC73 DUP4 DUP6 DUP8 PUSH2 0x1CE2 JUMP JUMPDEST SWAP2 POP SWAP2 POP DUP2 DUP8 PUSH2 0xC83 SWAP2 SWAP1 PUSH2 0x2BFD JUMP JUMPDEST SWAP7 POP DUP1 ISZERO PUSH2 0xD09 JUMPI DUP2 SWAP6 POP PUSH1 0x0 DUP4 SWAP1 POP JUMPDEST PUSH1 0x0 DUP2 GT ISZERO PUSH2 0xCD8 JUMPI PUSH1 0xA PUSH1 0x0 DUP7 DUP2 MSTORE PUSH1 0x20 ADD SWAP1 DUP2 MSTORE PUSH1 0x20 ADD PUSH1 0x0 KECCAK256 PUSH1 0x0 DUP3 DUP2 MSTORE PUSH1 0x20 ADD SWAP1 DUP2 MSTORE PUSH1 0x20 ADD PUSH1 0x0 KECCAK256 PUSH1 0x0 SWAP1 SSTORE DUP1 DUP1 PUSH2 0xCD0 SWAP1 PUSH2 0x2C31 JUMP JUMPDEST SWAP2 POP POP PUSH2 0xC94 JUMP JUMPDEST POP DUP6 PUSH1 0xA PUSH1 0x0 DUP7 DUP2 MSTORE PUSH1 0x20 ADD SWAP1 DUP2 MSTORE PUSH1 0x20 ADD PUSH1 0x0 KECCAK256 PUSH1 0x0 DUP1 DUP2 MSTORE PUSH1 0x20 ADD SWAP1 DUP2 MSTORE PUSH1 0x20 ADD PUSH1 0x0 KECCAK256 DUP2 SWAP1 SSTORE POP POP POP PUSH2 0xD1E JUMP JUMPDEST POP POP DUP1 DUP1 PUSH2 0xD16 SWAP1 PUSH2 0x2C5A JUMP JUMPDEST SWAP2 POP POP PUSH2 0xC5D JUMP JUMPDEST POP PUSH1 0x0 DUP4 GT PUSH1 0x9 PUSH1 0x0 DUP4 DUP2 MSTORE PUSH1 0x20 ADD SWAP1 DUP2 MSTORE PUSH1 0x20 ADD PUSH1 0x0 KECCAK256 PUSH1 0x0 ADD PUSH1 0x0 PUSH2 0x100 EXP DUP2 SLOAD DUP2 PUSH1 0xFF MUL NOT AND SWAP1 DUP4 ISZERO ISZERO MUL OR SWAP1 SSTORE POP DUP14 PUSH1 0x9 PUSH1 0x0 DUP4 DUP2 MSTORE PUSH1 0x20 ADD SWAP1 DUP2 MSTORE PUSH1 0x20 ADD PUSH1 0x0 KECCAK256 PUSH1 0x1 ADD DUP2 SWAP1 SSTORE POP DUP1 PUSH1 0x9 PUSH1 0x0 DUP4 DUP2 MSTORE PUSH1 0x20 ADD SWAP1 DUP2 MSTORE PUSH1 0x20 ADD PUSH1 0x0 KECCAK256 PUSH1 0x2 ADD DUP2 SWAP1 SSTORE POP PUSH1 0x0 DUP4 GT ISZERO PUSH2 0xF0C JUMPI PUSH1 0x0 PUSH1 0x64 PUSH1 0xA DUP6 PUSH2 0xDA0 SWAP2 SWAP1 PUSH2 0x299A JUMP JUMPDEST PUSH2 0xDAA SWAP2 SWAP1 PUSH2 0x2BA3 JUMP JUMPDEST SWAP1 POP PUSH1 0x0 PUSH1 0x7 PUSH1 0x0 DUP6 DUP2 MSTORE PUSH1 0x20 ADD SWAP1 DUP2 MSTORE PUSH1 0x20 ADD PUSH1 0x0 KECCAK256 PUSH1 0x1 ADD SLOAD SWAP1 POP DUP2 DUP2 GT PUSH2 0xE37 JUMPI DUP7 DUP9 DUP11 DUP13 DUP15 DUP6 PUSH2 0xDDE SWAP2 SWAP1 PUSH2 0x2BFD JUMP JUMPDEST PUSH2 0xDE8 SWAP2 SWAP1 PUSH2 0x2B40 JUMP JUMPDEST PUSH2 0xDF2 SWAP2 SWAP1 PUSH2 0x2B40 JUMP JUMPDEST PUSH2 0xDFC SWAP2 SWAP1 PUSH2 0x2B40 JUMP JUMPDEST PUSH2 0xE06 SWAP2 SWAP1 PUSH2 0x2B40 JUMP JUMPDEST PUSH1 0x8 PUSH1 0x0 DUP7 DUP2 MSTORE PUSH1 0x20 ADD SWAP1 DUP2 MSTORE PUSH1 0x20 ADD PUSH1 0x0 KECCAK256 PUSH1 0x0 PUSH1 0xB DUP2 MSTORE PUSH1 0x20 ADD SWAP1 DUP2 MSTORE PUSH1 0x20 ADD PUSH1 0x0 KECCAK256 PUSH1 0x0 ADD DUP2 SWAP1 SSTORE POP PUSH2 0xE9C JUMP JUMPDEST DUP7 DUP9 DUP11 DUP13 DUP15 DUP7 PUSH2 0xE47 SWAP2 SWAP1 PUSH2 0x2BFD JUMP JUMPDEST PUSH2 0xE51 SWAP2 SWAP1 PUSH2 0x2B40 JUMP JUMPDEST PUSH2 0xE5B SWAP2 SWAP1 PUSH2 0x2B40 JUMP JUMPDEST PUSH2 0xE65 SWAP2 SWAP1 PUSH2 0x2B40 JUMP JUMPDEST PUSH2 0xE6F SWAP2 SWAP1 PUSH2 0x2B40 JUMP JUMPDEST PUSH1 0x8 PUSH1 0x0 DUP7 DUP2 MSTORE PUSH1 0x20 ADD SWAP1 DUP2 MSTORE PUSH1 0x20 ADD PUSH1 0x0 KECCAK256 PUSH1 0x0 PUSH1 0xB DUP2 MSTORE PUSH1 0x20 ADD SWAP1 DUP2 MSTORE PUSH1 0x20 ADD PUSH1 0x0 KECCAK256 PUSH1 0x0 ADD DUP2 SWAP1 SSTORE POP JUMPDEST DUP2 DUP6 PUSH2 0xEA8 SWAP2 SWAP1 PUSH2 0x2B40 JUMP JUMPDEST SWAP6 POP PUSH1 0x1 PUSH1 0x7 PUSH1 0x0 DUP7 DUP2 MSTORE PUSH1 0x20 ADD SWAP1 DUP2 MSTORE PUSH1 0x20 ADD PUSH1 0x0 KECCAK256 PUSH1 0x5 ADD PUSH1 0x0 DUP3 DUP3 SLOAD PUSH2 0xED1 SWAP2 SWAP1 PUSH2 0x2BFD JUMP JUMPDEST SWAP3 POP POP DUP2 SWAP1 SSTORE POP DUP6 PUSH1 0x7 PUSH1 0x0 DUP7 DUP2 MSTORE PUSH1 0x20 ADD SWAP1 DUP2 MSTORE PUSH1 0x20 ADD PUSH1 0x0 KECCAK256 PUSH1 0x6 ADD PUSH1 0x0 DUP3 DUP3 SLOAD PUSH2 0xEFE SWAP2 SWAP1 PUSH2 0x2BFD JUMP JUMPDEST SWAP3 POP POP DUP2 SWAP1 SSTORE POP POP POP PUSH2 0xFD1 JUMP JUMPDEST DUP4 PUSH1 0x7 PUSH1 0x0 DUP5 DUP2 MSTORE PUSH1 0x20 ADD SWAP1 DUP2 MSTORE PUSH1 0x20 ADD PUSH1 0x0 KECCAK256 PUSH1 0x6 ADD PUSH1 0x0 DUP3 DUP3 SLOAD PUSH2 0xF32 SWAP2 SWAP1 PUSH2 0x2BFD JUMP JUMPDEST SWAP3 POP POP DUP2 SWAP1 SSTORE POP DUP5 DUP7 DUP9 DUP11 DUP8 DUP14 PUSH1 0x8 PUSH1 0x0 DUP10 DUP2 MSTORE PUSH1 0x20 ADD SWAP1 DUP2 MSTORE PUSH1 0x20 ADD PUSH1 0x0 KECCAK256 PUSH1 0x0 PUSH1 0xB DUP2 MSTORE PUSH1 0x20 ADD SWAP1 DUP2 MSTORE PUSH1 0x20 ADD PUSH1 0x0 KECCAK256 PUSH1 0x0 ADD SLOAD PUSH2 0xF72 SWAP2 SWAP1 PUSH2 0x2BFD JUMP JUMPDEST PUSH2 0xF7C SWAP2 SWAP1 PUSH2 0x2B40 JUMP JUMPDEST PUSH2 0xF86 SWAP2 SWAP1 PUSH2 0x2B40 JUMP JUMPDEST PUSH2 0xF90 SWAP2 SWAP1 PUSH2 0x2B40 JUMP JUMPDEST PUSH2 0xF9A SWAP2 SWAP1 PUSH2 0x2B40 JUMP JUMPDEST PUSH2 0xFA4 SWAP2 SWAP1 PUSH2 0x2B40 JUMP JUMPDEST PUSH1 0x8 PUSH1 0x0 DUP5 DUP2 MSTORE PUSH1 0x20 ADD SWAP1 DUP2 MSTORE PUSH1 0x20 ADD PUSH1 0x0 KECCAK256 PUSH1 0x0 PUSH1 0xB DUP2 MSTORE PUSH1 0x20 ADD SWAP1 DUP2 MSTORE PUSH1 0x20 ADD PUSH1 0x0 KECCAK256 PUSH1 0x0 ADD DUP2 SWAP1 SSTORE POP JUMPDEST PUSH1 0x0 DUP5 GT ISZERO PUSH2 0x107C JUMPI PUSH1 0x3 PUSH1 0x0 SWAP1 SLOAD SWAP1 PUSH2 0x100 EXP SWAP1 DIV PUSH20 0xFFFFFFFFFFFFFFFFFFFFFFFFFFFFFFFFFFFFFFFF AND PUSH20 0xFFFFFFFFFFFFFFFFFFFFFFFFFFFFFFFFFFFFFFFF AND PUSH4 0xA9059CBB DUP15 DUP7 PUSH1 0x40 MLOAD DUP4 PUSH4 0xFFFFFFFF AND PUSH1 0xE0 SHL DUP2 MSTORE PUSH1 0x4 ADD PUSH2 0x1037 SWAP3 SWAP2 SWAP1 PUSH2 0x2BD4 JUMP JUMPDEST PUSH1 0x20 PUSH1 0x40 MLOAD DUP1 DUP4 SUB DUP2 PUSH1 0x0 DUP8 GAS CALL ISZERO DUP1 ISZERO PUSH2 0x1056 JUMPI RETURNDATASIZE PUSH1 0x0 DUP1 RETURNDATACOPY RETURNDATASIZE PUSH1 0x0 REVERT JUMPDEST POP POP POP POP PUSH1 0x40 MLOAD RETURNDATASIZE PUSH1 0x1F NOT PUSH1 0x1F DUP3 ADD AND DUP3 ADD DUP1 PUSH1 0x40 MSTORE POP DUP2 ADD SWAP1 PUSH2 0x107A SWAP2 SWAP1 PUSH2 0x2B13 JUMP JUMPDEST POP JUMPDEST PUSH32 0x6A3F36C72D006BC18C991A32D6125245BDAC6838F401790ED41516B495455672 DUP5 DUP16 PUSH1 0x9 PUSH1 0x0 DUP6 DUP2 MSTORE PUSH1 0x20 ADD SWAP1 DUP2 MSTORE PUSH1 0x20 ADD PUSH1 0x0 KECCAK256 PUSH1 0x0 ADD PUSH1 0x0 SWAP1 SLOAD SWAP1 PUSH2 0x100 EXP SWAP1 DIV PUSH1 0xFF AND DUP12 DUP12 DUP12 DUP12 PUSH1 0x40 MLOAD PUSH2 0x10DA SWAP8 SWAP7 SWAP6 SWAP5 SWAP4 SWAP3 SWAP2 SWAP1 PUSH2 0x2CA2 JUMP JUMPDEST PUSH1 0x40 MLOAD DUP1 SWAP2 SUB SWAP1 LOG1 POP POP POP POP POP POP POP POP POP POP POP POP PUSH1 0x1 PUSH1 0x0 DUP2 SWAP1 SSTORE POP POP POP POP POP POP POP POP POP POP JUMP JUMPDEST PUSH1 0x6 PUSH1 0x0 SWAP1 SLOAD SWAP1 PUSH2 0x100 EXP SWAP1 DIV PUSH20 0xFFFFFFFFFFFFFFFFFFFFFFFFFFFFFFFFFFFFFFFF AND DUP2 JUMP JUMPDEST PUSH4 0x3B9ACA00 DUP2 JUMP JUMPDEST PUSH1 0x8 PUSH1 0x20 MSTORE DUP2 PUSH1 0x0 MSTORE PUSH1 0x40 PUSH1 0x0 KECCAK256 PUSH1 0x20 MSTORE DUP1 PUSH1 0x0 MSTORE PUSH1 0x40 PUSH1 0x0 KECCAK256 PUSH1 0x0 SWAP2 POP SWAP2 POP POP DUP1 PUSH1 0x0 ADD SLOAD SWAP1 DUP1 PUSH1 0x1 ADD SLOAD SWAP1 POP DUP3 JUMP JUMPDEST PUSH2 0x1168 PUSH2 0x1E1A JUMP JUMPDEST PUSH20 0xFFFFFFFFFFFFFFFFFFFFFFFFFFFFFFFFFFFFFFFF AND PUSH2 0x1186 PUSH2 0x120D JUMP JUMPDEST PUSH20 0xFFFFFFFFFFFFFFFFFFFFFFFFFFFFFFFFFFFFFFFF AND EQ PUSH2 0x11DC JUMPI PUSH1 0x40 MLOAD PUSH32 0x8C379A000000000000000000000000000000000000000000000000000000000 DUP2 MSTORE PUSH1 0x4 ADD PUSH2 0x11D3 SWAP1 PUSH2 0x2D5D JUMP JUMPDEST PUSH1 0x40 MLOAD DUP1 SWAP2 SUB SWAP1 REVERT JUMPDEST PUSH2 0x11E6 PUSH1 0x0 PUSH2 0x1E22 JUMP JUMPDEST JUMP JUMPDEST PUSH1 0xA PUSH1 0x20 MSTORE DUP2 PUSH1 0x0 MSTORE PUSH1 0x40 PUSH1 0x0 KECCAK256 PUSH1 0x20 MSTORE DUP1 PUSH1 0x0 MSTORE PUSH1 0x40 PUSH1 0x0 KECCAK256 PUSH1 0x0 SWAP2 POP SWAP2 POP POP SLOAD DUP2 JUMP JUMPDEST PUSH1 0x0 PUSH1 0x1 PUSH1 0x0 SWAP1 SLOAD SWAP1 PUSH2 0x100 EXP SWAP1 DIV PUSH20 0xFFFFFFFFFFFFFFFFFFFFFFFFFFFFFFFFFFFFFFFF AND SWAP1 POP SWAP1 JUMP JUMPDEST PUSH1 0x7 PUSH1 0x20 MSTORE DUP1 PUSH1 0x0 MSTORE PUSH1 0x40 PUSH1 0x0 KECCAK256 PUSH1 0x0 SWAP2 POP SWAP1 POP DUP1 PUSH1 0x0 ADD SLOAD SWAP1 DUP1 PUSH1 0x1 ADD SLOAD SWAP1 DUP1 PUSH1 0x2 ADD DUP1 SLOAD PUSH2 0x1266 SWAP1 PUSH2 0x278A JUMP JUMPDEST DUP1 PUSH1 0x1F ADD PUSH1 0x20 DUP1 SWAP2 DIV MUL PUSH1 0x20 ADD PUSH1 0x40 MLOAD SWAP1 DUP2 ADD PUSH1 0x40 MSTORE DUP1 SWAP3 SWAP2 SWAP1 DUP2 DUP2 MSTORE PUSH1 0x20 ADD DUP3 DUP1 SLOAD PUSH2 0x1292 SWAP1 PUSH2 0x278A JUMP JUMPDEST DUP1 ISZERO PUSH2 0x12DF JUMPI DUP1 PUSH1 0x1F LT PUSH2 0x12B4 JUMPI PUSH2 0x100 DUP1 DUP4 SLOAD DIV MUL DUP4 MSTORE SWAP2 PUSH1 0x20 ADD SWAP2 PUSH2 0x12DF JUMP JUMPDEST DUP3 ADD SWAP2 SWAP1 PUSH1 0x0 MSTORE PUSH1 0x20 PUSH1 0x0 KECCAK256 SWAP1 JUMPDEST DUP2 SLOAD DUP2 MSTORE SWAP1 PUSH1 0x1 ADD SWAP1 PUSH1 0x20 ADD DUP1 DUP4 GT PUSH2 0x12C2 JUMPI DUP3 SWAP1 SUB PUSH1 0x1F AND DUP3 ADD SWAP2 JUMPDEST POP POP POP POP POP SWAP1 DUP1 PUSH1 0x3 ADD SLOAD SWAP1 DUP1 PUSH1 0x4 ADD SLOAD SWAP1 DUP1 PUSH1 0x5 ADD SLOAD SWAP1 DUP1 PUSH1 0x6 ADD SLOAD SWAP1 DUP1 PUSH1 0x7 ADD SLOAD SWAP1 POP DUP9 JUMP JUMPDEST PUSH1 0x9 PUSH1 0x20 MSTORE DUP1 PUSH1 0x0 MSTORE PUSH1 0x40 PUSH1 0x0 KECCAK256 PUSH1 0x0 SWAP2 POP SWAP1 POP DUP1 PUSH1 0x0 ADD PUSH1 0x0 SWAP1 SLOAD SWAP1 PUSH2 0x100 EXP SWAP1 DIV PUSH1 0xFF AND SWAP1 DUP1 PUSH1 0x1 ADD SLOAD SWAP1 DUP1 PUSH1 0x2 ADD SLOAD SWAP1 POP DUP4 JUMP JUMPDEST PUSH1 0x6 PUSH1 0x0 SWAP1 SLOAD SWAP1 PUSH2 0x100 EXP SWAP1 DIV PUSH20 0xFFFFFFFFFFFFFFFFFFFFFFFFFFFFFFFFFFFFFFFF AND PUSH20 0xFFFFFFFFFFFFFFFFFFFFFFFFFFFFFFFFFFFFFFFF AND PUSH2 0x137F PUSH2 0x1E1A JUMP JUMPDEST PUSH20 0xFFFFFFFFFFFFFFFFFFFFFFFFFFFFFFFFFFFFFFFF AND EQ PUSH2 0x13D5 JUMPI PUSH1 0x40 MLOAD PUSH32 0x8C379A000000000000000000000000000000000000000000000000000000000 DUP2 MSTORE PUSH1 0x4 ADD PUSH2 0x13CC SWAP1 PUSH2 0x2DC9 JUMP JUMPDEST PUSH1 0x40 MLOAD DUP1 SWAP2 SUB SWAP1 REVERT JUMPDEST PUSH1 0x0 DUP8 GT PUSH2 0x1418 JUMPI PUSH1 0x40 MLOAD PUSH32 0x8C379A000000000000000000000000000000000000000000000000000000000 DUP2 MSTORE PUSH1 0x4 ADD PUSH2 0x140F SWAP1 PUSH2 0x2E35 JUMP JUMPDEST PUSH1 0x40 MLOAD DUP1 SWAP2 SUB SWAP1 REVERT JUMPDEST PUSH1 0x0 DUP7 GT PUSH2 0x145B JUMPI PUSH1 0x40 MLOAD PUSH32 0x8C379A000000000000000000000000000000000000000000000000000000000 DUP2 MSTORE PUSH1 0x4 ADD PUSH2 0x1452 SWAP1 PUSH2 0x2E35 JUMP JUMPDEST PUSH1 0x40 MLOAD DUP1 SWAP2 SUB SWAP1 REVERT JUMPDEST PUSH1 0x64 DUP6 GT ISZERO PUSH2 0x149F JUMPI PUSH1 0x40 MLOAD PUSH32 0x8C379A000000000000000000000000000000000000000000000000000000000 DUP2 MSTORE PUSH1 0x4 ADD PUSH2 0x1496 SWAP1 PUSH2 0x2EA1 JUMP JUMPDEST PUSH1 0x40 MLOAD DUP1 SWAP2 SUB SWAP1 REVERT JUMPDEST PUSH1 0x64 DUP5 GT ISZERO PUSH2 0x14E3 JUMPI PUSH1 0x40 MLOAD PUSH32 0x8C379A000000000000000000000000000000000000000000000000000000000 DUP2 MSTORE PUSH1 0x4 ADD PUSH2 0x14DA SWAP1 PUSH2 0x2F0D JUMP JUMPDEST PUSH1 0x40 MLOAD DUP1 SWAP2 SUB SWAP1 REVERT JUMPDEST PUSH1 0xB DUP3 MLOAD EQ DUP1 ISZERO PUSH2 0x14F5 JUMPI POP PUSH1 0xB DUP2 MLOAD EQ JUMPDEST PUSH2 0x1534 JUMPI PUSH1 0x40 MLOAD PUSH32 0x8C379A000000000000000000000000000000000000000000000000000000000 DUP2 MSTORE PUSH1 0x4 ADD PUSH2 0x152B SWAP1 PUSH2 0x2F79 JUMP JUMPDEST PUSH1 0x40 MLOAD DUP1 SWAP2 SUB SWAP1 REVERT JUMPDEST PUSH1 0x1 PUSH1 0x4 PUSH1 0x0 DUP3 DUP3 SLOAD PUSH2 0x1547 SWAP2 SWAP1 PUSH2 0x2BFD JUMP JUMPDEST SWAP3 POP POP DUP2 SWAP1 SSTORE POP DUP7 PUSH1 0x7 PUSH1 0x0 PUSH1 0x4 SLOAD DUP2 MSTORE PUSH1 0x20 ADD SWAP1 DUP2 MSTORE PUSH1 0x20 ADD PUSH1 0x0 KECCAK256 PUSH1 0x0 ADD DUP2 SWAP1 SSTORE POP DUP6 PUSH1 0x7 PUSH1 0x0 PUSH1 0x4 SLOAD DUP2 MSTORE PUSH1 0x20 ADD SWAP1 DUP2 MSTORE PUSH1 0x20 ADD PUSH1 0x0 KECCAK256 PUSH1 0x1 ADD DUP2 SWAP1 SSTORE POP DUP8 PUSH1 0x7 PUSH1 0x0 PUSH1 0x4 SLOAD DUP2 MSTORE PUSH1 0x20 ADD SWAP1 DUP2 MSTORE PUSH1 0x20 ADD PUSH1 0x0 KECCAK256 PUSH1 0x2 ADD SWAP1 DUP2 PUSH2 0x15AD SWAP2 SWAP1 PUSH2 0x313B JUMP JUMPDEST POP DUP4 PUSH1 0x7 PUSH1 0x0 PUSH1 0x4 SLOAD DUP2 MSTORE PUSH1 0x20 ADD SWAP1 DUP2 MSTORE PUSH1 0x20 ADD PUSH1 0x0 KECCAK256 PUSH1 0x3 ADD DUP2 SWAP1 SSTORE POP DUP5 PUSH1 0x7 PUSH1 0x0 PUSH1 0x4 SLOAD DUP2 MSTORE PUSH1 0x20 ADD SWAP1 DUP2 MSTORE PUSH1 0x20 ADD PUSH1 0x0 KECCAK256 PUSH1 0x4 ADD DUP2 SWAP1 SSTORE POP PUSH1 0x0 DUP1 JUMPDEST PUSH1 0xB DUP2 LT ISZERO PUSH2 0x16CB JUMPI DUP4 DUP2 DUP2 MLOAD DUP2 LT PUSH2 0x1608 JUMPI PUSH2 0x1607 PUSH2 0x320D JUMP JUMPDEST JUMPDEST PUSH1 0x20 MUL PUSH1 0x20 ADD ADD MLOAD PUSH1 0x8 PUSH1 0x0 PUSH1 0x4 SLOAD DUP2 MSTORE PUSH1 0x20 ADD SWAP1 DUP2 MSTORE PUSH1 0x20 ADD PUSH1 0x0 KECCAK256 PUSH1 0x0 DUP4 DUP2 MSTORE PUSH1 0x20 ADD SWAP1 DUP2 MSTORE PUSH1 0x20 ADD PUSH1 0x0 KECCAK256 PUSH1 0x0 ADD DUP2 SWAP1 SSTORE POP DUP3 DUP2 DUP2 MLOAD DUP2 LT PUSH2 0x1650 JUMPI PUSH2 0x164F PUSH2 0x320D JUMP JUMPDEST JUMPDEST PUSH1 0x20 MUL PUSH1 0x20 ADD ADD MLOAD DUP3 PUSH2 0x1663 SWAP2 SWAP1 PUSH2 0x2BFD JUMP JUMPDEST PUSH1 0x8 PUSH1 0x0 PUSH1 0x4 SLOAD DUP2 MSTORE PUSH1 0x20 ADD SWAP1 DUP2 MSTORE PUSH1 0x20 ADD PUSH1 0x0 KECCAK256 PUSH1 0x0 DUP4 DUP2 MSTORE PUSH1 0x20 ADD SWAP1 DUP2 MSTORE PUSH1 0x20 ADD PUSH1 0x0 KECCAK256 PUSH1 0x1 ADD DUP2 SWAP1 SSTORE POP DUP3 DUP2 DUP2 MLOAD DUP2 LT PUSH2 0x16A3 JUMPI PUSH2 0x16A2 PUSH2 0x320D JUMP JUMPDEST JUMPDEST PUSH1 0x20 MUL PUSH1 0x20 ADD ADD MLOAD DUP3 PUSH2 0x16B6 SWAP2 SWAP1 PUSH2 0x2BFD JUMP JUMPDEST SWAP2 POP DUP1 DUP1 PUSH2 0x16C3 SWAP1 PUSH2 0x2C5A JUMP JUMPDEST SWAP2 POP POP PUSH2 0x15EC JUMP JUMPDEST POP PUSH1 0x0 PUSH1 0x3 PUSH1 0x0 SWAP1 SLOAD SWAP1 PUSH2 0x100 EXP SWAP1 DIV PUSH20 0xFFFFFFFFFFFFFFFFFFFFFFFFFFFFFFFFFFFFFFFF AND PUSH20 0xFFFFFFFFFFFFFFFFFFFFFFFFFFFFFFFFFFFFFFFF AND PUSH4 0x70A08231 ADDRESS PUSH1 0x40 MLOAD DUP3 PUSH4 0xFFFFFFFF AND PUSH1 0xE0 SHL DUP2 MSTORE PUSH1 0x4 ADD PUSH2 0x1729 SWAP2 SWAP1 PUSH2 0x2252 JUMP JUMPDEST PUSH1 0x20 PUSH1 0x40 MLOAD DUP1 DUP4 SUB DUP2 DUP7 GAS STATICCALL ISZERO DUP1 ISZERO PUSH2 0x1746 JUMPI RETURNDATASIZE PUSH1 0x0 DUP1 RETURNDATACOPY RETURNDATASIZE PUSH1 0x0 REVERT JUMPDEST POP POP POP POP PUSH1 0x40 MLOAD RETURNDATASIZE PUSH1 0x1F NOT PUSH1 0x1F DUP3 ADD AND DUP3 ADD DUP1 PUSH1 0x40 MSTORE POP DUP2 ADD SWAP1 PUSH2 0x176A SWAP2 SWAP1 PUSH2 0x29F1 JUMP JUMPDEST SWAP1 POP DUP8 PUSH1 0x3 PUSH1 0x0 SWAP1 SLOAD SWAP1 PUSH2 0x100 EXP SWAP1 DIV PUSH20 0xFFFFFFFFFFFFFFFFFFFFFFFFFFFFFFFFFFFFFFFF AND PUSH20 0xFFFFFFFFFFFFFFFFFFFFFFFFFFFFFFFFFFFFFFFF AND PUSH4 0x70A08231 PUSH1 0x6 PUSH1 0x0 SWAP1 SLOAD SWAP1 PUSH2 0x100 EXP SWAP1 DIV PUSH20 0xFFFFFFFFFFFFFFFFFFFFFFFFFFFFFFFFFFFFFFFF AND PUSH1 0x40 MLOAD DUP3 PUSH4 0xFFFFFFFF AND PUSH1 0xE0 SHL DUP2 MSTORE PUSH1 0x4 ADD PUSH2 0x17EA SWAP2 SWAP1 PUSH2 0x2252 JUMP JUMPDEST PUSH1 0x20 PUSH1 0x40 MLOAD DUP1 DUP4 SUB DUP2 DUP7 GAS STATICCALL ISZERO DUP1 ISZERO PUSH2 0x1807 JUMPI RETURNDATASIZE PUSH1 0x0 DUP1 RETURNDATACOPY RETURNDATASIZE PUSH1 0x0 REVERT JUMPDEST POP POP POP POP PUSH1 0x40 MLOAD RETURNDATASIZE PUSH1 0x1F NOT PUSH1 0x1F DUP3 ADD AND DUP3 ADD DUP1 PUSH1 0x40 MSTORE POP DUP2 ADD SWAP1 PUSH2 0x182B SWAP2 SWAP1 PUSH2 0x29F1 JUMP JUMPDEST LT ISZERO PUSH2 0x186C JUMPI PUSH1 0x40 MLOAD PUSH32 0x8C379A000000000000000000000000000000000000000000000000000000000 DUP2 MSTORE PUSH1 0x4 ADD PUSH2 0x1863 SWAP1 PUSH2 0x2A90 JUMP JUMPDEST PUSH1 0x40 MLOAD DUP1 SWAP2 SUB SWAP1 REVERT JUMPDEST PUSH1 0x3 PUSH1 0x0 SWAP1 SLOAD SWAP1 PUSH2 0x100 EXP SWAP1 DIV PUSH20 0xFFFFFFFFFFFFFFFFFFFFFFFFFFFFFFFFFFFFFFFF AND PUSH20 0xFFFFFFFFFFFFFFFFFFFFFFFFFFFFFFFFFFFFFFFF AND PUSH4 0x23B872DD PUSH1 0x6 PUSH1 0x0 SWAP1 SLOAD SWAP1 PUSH2 0x100 EXP SWAP1 DIV PUSH20 0xFFFFFFFFFFFFFFFFFFFFFFFFFFFFFFFFFFFFFFFF AND ADDRESS DUP12 PUSH1 0x40 MLOAD DUP5 PUSH4 0xFFFFFFFF AND PUSH1 0xE0 SHL DUP2 MSTORE PUSH1 0x4 ADD PUSH2 0x18ED SWAP4 SWAP3 SWAP2 SWAP1 PUSH2 0x2AB0 JUMP JUMPDEST PUSH1 0x20 PUSH1 0x40 MLOAD DUP1 DUP4 SUB DUP2 PUSH1 0x0 DUP8 GAS CALL ISZERO DUP1 ISZERO PUSH2 0x190C JUMPI RETURNDATASIZE PUSH1 0x0 DUP1 RETURNDATACOPY RETURNDATASIZE PUSH1 0x0 REVERT JUMPDEST POP POP POP POP PUSH1 0x40 MLOAD RETURNDATASIZE PUSH1 0x1F NOT PUSH1 0x1F DUP3 ADD AND DUP3 ADD DUP1 PUSH1 0x40 MSTORE POP DUP2 ADD SWAP1 PUSH2 0x1930 SWAP2 SWAP1 PUSH2 0x2B13 JUMP JUMPDEST POP PUSH1 0x0 PUSH1 0x3 PUSH1 0x0 SWAP1 SLOAD SWAP1 PUSH2 0x100 EXP SWAP1 DIV PUSH20 0xFFFFFFFFFFFFFFFFFFFFFFFFFFFFFFFFFFFFFFFF AND PUSH20 0xFFFFFFFFFFFFFFFFFFFFFFFFFFFFFFFFFFFFFFFF AND PUSH4 0x70A08231 ADDRESS PUSH1 0x40 MLOAD DUP3 PUSH4 0xFFFFFFFF AND PUSH1 0xE0 SHL DUP2 MSTORE PUSH1 0x4 ADD PUSH2 0x198E SWAP2 SWAP1 PUSH2 0x2252 JUMP JUMPDEST PUSH1 0x20 PUSH1 0x40 MLOAD DUP1 DUP4 SUB DUP2 DUP7 GAS STATICCALL ISZERO DUP1 ISZERO PUSH2 0x19AB JUMPI RETURNDATASIZE PUSH1 0x0 DUP1 RETURNDATACOPY RETURNDATASIZE PUSH1 0x0 REVERT JUMPDEST POP POP POP POP PUSH1 0x40 MLOAD RETURNDATASIZE PUSH1 0x1F NOT PUSH1 0x1F DUP3 ADD AND DUP3 ADD DUP1 PUSH1 0x40 MSTORE POP DUP2 ADD SWAP1 PUSH2 0x19CF SWAP2 SWAP1 PUSH2 0x29F1 JUMP JUMPDEST SWAP1 POP DUP6 DUP4 PUSH2 0x19DD SWAP2 SWAP1 PUSH2 0x2BFD JUMP JUMPDEST SWAP3 POP PUSH4 0x3B9ACA00 DUP4 EQ PUSH2 0x1A25 JUMPI PUSH1 0x40 MLOAD PUSH32 0x8C379A000000000000000000000000000000000000000000000000000000000 DUP2 MSTORE PUSH1 0x4 ADD PUSH2 0x1A1C SWAP1 PUSH2 0x3288 JUMP JUMPDEST PUSH1 0x40 MLOAD DUP1 SWAP2 SUB SWAP1 REVERT JUMPDEST DUP6 PUSH1 0x8 PUSH1 0x0 PUSH1 0x4 SLOAD DUP2 MSTORE PUSH1 0x20 ADD SWAP1 DUP2 MSTORE PUSH1 0x20 ADD PUSH1 0x0 KECCAK256 PUSH1 0x0 PUSH1 0xB DUP2 MSTORE PUSH1 0x20 ADD SWAP1 DUP2 MSTORE PUSH1 0x20 ADD PUSH1 0x0 KECCAK256 PUSH1 0x1 ADD DUP2 SWAP1 SSTORE POP DUP2 DUP2 PUSH2 0x1A60 SWAP2 SWAP1 PUSH2 0x2B40 JUMP JUMPDEST PUSH1 0x8 PUSH1 0x0 PUSH1 0x4 SLOAD DUP2 MSTORE PUSH1 0x20 ADD SWAP1 DUP2 MSTORE PUSH1 0x20 ADD PUSH1 0x0 KECCAK256 PUSH1 0x0 PUSH1 0xB DUP2 MSTORE PUSH1 0x20 ADD SWAP1 DUP2 MSTORE PUSH1 0x20 ADD PUSH1 0x0 KECCAK256 PUSH1 0x0 ADD DUP2 SWAP1 SSTORE POP PUSH32 0xDA5F1C502BF1EBB6B912CFAB45836DC0DB0102B387E4ACB76C3204EE59D28A0F DUP12 DUP12 DUP12 DUP12 DUP12 DUP12 DUP12 DUP12 PUSH1 0x4 SLOAD PUSH1 0x40 MLOAD PUSH2 0x1ACF SWAP10 SWAP9 SWAP8 SWAP7 SWAP6 SWAP5 SWAP4 SWAP3 SWAP2 SWAP1 PUSH2 0x33B2 JUMP JUMPDEST PUSH1 0x40 MLOAD DUP1 SWAP2 SUB SWAP1 LOG1 POP POP POP POP POP POP POP POP POP POP POP JUMP JUMPDEST PUSH1 0x0 PUSH20 0xFFFFFFFFFFFFFFFFFFFFFFFFFFFFFFFFFFFFFFFF AND PUSH1 0x6 PUSH1 0x0 SWAP1 SLOAD SWAP1 PUSH2 0x100 EXP SWAP1 DIV PUSH20 0xFFFFFFFFFFFFFFFFFFFFFFFFFFFFFFFFFFFFFFFF AND PUSH20 0xFFFFFFFFFFFFFFFFFFFFFFFFFFFFFFFFFFFFFFFF AND EQ PUSH2 0x1B75 JUMPI PUSH1 0x40 MLOAD PUSH32 0x8C379A000000000000000000000000000000000000000000000000000000000 DUP2 MSTORE PUSH1 0x4 ADD PUSH2 0x1B6C SWAP1 PUSH2 0x34B4 JUMP JUMPDEST PUSH1 0x40 MLOAD DUP1 SWAP2 SUB SWAP1 REVERT JUMPDEST DUP1 PUSH1 0x6 PUSH1 0x0 PUSH2 0x100 EXP DUP2 SLOAD DUP2 PUSH20 0xFFFFFFFFFFFFFFFFFFFFFFFFFFFFFFFFFFFFFFFF MUL NOT AND SWAP1 DUP4 PUSH20 0xFFFFFFFFFFFFFFFFFFFFFFFFFFFFFFFFFFFFFFFF AND MUL OR SWAP1 SSTORE POP POP JUMP JUMPDEST PUSH1 0x5 SLOAD DUP2 JUMP JUMPDEST PUSH1 0x4 SLOAD DUP2 JUMP JUMPDEST PUSH2 0x1BCD PUSH2 0x1E1A JUMP JUMPDEST PUSH20 0xFFFFFFFFFFFFFFFFFFFFFFFFFFFFFFFFFFFFFFFF AND PUSH2 0x1BEB PUSH2 0x120D JUMP JUMPDEST PUSH20 0xFFFFFFFFFFFFFFFFFFFFFFFFFFFFFFFFFFFFFFFF AND EQ PUSH2 0x1C41 JUMPI PUSH1 0x40 MLOAD PUSH32 0x8C379A000000000000000000000000000000000000000000000000000000000 DUP2 MSTORE PUSH1 0x4 ADD PUSH2 0x1C38 SWAP1 PUSH2 0x2D5D JUMP JUMPDEST PUSH1 0x40 MLOAD DUP1 SWAP2 SUB SWAP1 REVERT JUMPDEST PUSH1 0x0 PUSH20 0xFFFFFFFFFFFFFFFFFFFFFFFFFFFFFFFFFFFFFFFF AND DUP2 PUSH20 0xFFFFFFFFFFFFFFFFFFFFFFFFFFFFFFFFFFFFFFFF AND SUB PUSH2 0x1CB0 JUMPI PUSH1 0x40 MLOAD PUSH32 0x8C379A000000000000000000000000000000000000000000000000000000000 DUP2 MSTORE PUSH1 0x4 ADD PUSH2 0x1CA7 SWAP1 PUSH2 0x3546 JUMP JUMPDEST PUSH1 0x40 MLOAD DUP1 SWAP2 SUB SWAP1 REVERT JUMPDEST PUSH2 0x1CB9 DUP2 PUSH2 0x1E22 JUMP JUMPDEST POP JUMP JUMPDEST PUSH1 0x3 PUSH1 0x0 SWAP1 SLOAD SWAP1 PUSH2 0x100 EXP SWAP1 DIV PUSH20 0xFFFFFFFFFFFFFFFFFFFFFFFFFFFFFFFFFFFFFFFF AND DUP2 JUMP JUMPDEST PUSH1 0x0 DUP1 PUSH1 0x0 PUSH2 0x1CFC PUSH1 0xC NUMBER PUSH2 0x1CF7 SWAP2 SWAP1 PUSH2 0x3566 JUMP JUMPDEST PUSH2 0x1EE8 JUMP JUMPDEST SWAP1 POP PUSH1 0x0 SWAP2 POP PUSH1 0x0 JUMPDEST PUSH1 0xC DUP2 LT ISZERO PUSH2 0x1E10 JUMPI PUSH1 0x0 PUSH1 0x8 PUSH1 0x0 DUP8 DUP2 MSTORE PUSH1 0x20 ADD SWAP1 DUP2 MSTORE PUSH1 0x20 ADD PUSH1 0x0 KECCAK256 PUSH1 0x0 DUP4 DUP2 MSTORE PUSH1 0x20 ADD SWAP1 DUP2 MSTORE PUSH1 0x20 ADD PUSH1 0x0 KECCAK256 PUSH1 0x1 ADD SLOAD GT DUP1 ISZERO PUSH2 0x1D6C JUMPI POP PUSH1 0x8 PUSH1 0x0 DUP7 DUP2 MSTORE PUSH1 0x20 ADD SWAP1 DUP2 MSTORE PUSH1 0x20 ADD PUSH1 0x0 KECCAK256 PUSH1 0x0 DUP3 DUP2 MSTORE PUSH1 0x20 ADD SWAP1 DUP2 MSTORE PUSH1 0x20 ADD PUSH1 0x0 KECCAK256 PUSH1 0x1 ADD SLOAD DUP3 GT ISZERO JUMPDEST ISZERO PUSH2 0x1DFD JUMPI PUSH1 0x8 PUSH1 0x0 DUP7 DUP2 MSTORE PUSH1 0x20 ADD SWAP1 DUP2 MSTORE PUSH1 0x20 ADD PUSH1 0x0 KECCAK256 PUSH1 0x0 DUP3 DUP2 MSTORE PUSH1 0x20 ADD SWAP1 DUP2 MSTORE PUSH1 0x20 ADD PUSH1 0x0 KECCAK256 PUSH1 0x0 ADD SLOAD PUSH1 0xA PUSH1 0x0 DUP9 DUP2 MSTORE PUSH1 0x20 ADD SWAP1 DUP2 MSTORE PUSH1 0x20 ADD PUSH1 0x0 KECCAK256 PUSH1 0x0 DUP10 DUP2 MSTORE PUSH1 0x20 ADD SWAP1 DUP2 MSTORE PUSH1 0x20 ADD PUSH1 0x0 KECCAK256 DUP2 SWAP1 SSTORE POP PUSH1 0x8 PUSH1 0x0 DUP7 DUP2 MSTORE PUSH1 0x20 ADD SWAP1 DUP2 MSTORE PUSH1 0x20 ADD PUSH1 0x0 KECCAK256 PUSH1 0x0 DUP3 DUP2 MSTORE PUSH1 0x20 ADD SWAP1 DUP2 MSTORE PUSH1 0x20 ADD PUSH1 0x0 KECCAK256 PUSH1 0x0 ADD SLOAD SWAP4 POP PUSH1 0xB DUP2 SUB PUSH2 0x1DF8 JUMPI PUSH1 0x1 SWAP3 POP JUMPDEST PUSH2 0x1E10 JUMP JUMPDEST DUP1 DUP1 PUSH2 0x1E08 SWAP1 PUSH2 0x2C5A JUMP JUMPDEST SWAP2 POP POP PUSH2 0x1D05 JUMP JUMPDEST POP POP SWAP4 POP SWAP4 SWAP2 POP POP JUMP JUMPDEST PUSH1 0x0 CALLER SWAP1 POP SWAP1 JUMP JUMPDEST PUSH1 0x0 PUSH1 0x1 PUSH1 0x0 SWAP1 SLOAD SWAP1 PUSH2 0x100 EXP SWAP1 DIV PUSH20 0xFFFFFFFFFFFFFFFFFFFFFFFFFFFFFFFFFFFFFFFF AND SWAP1 POP DUP2 PUSH1 0x1 PUSH1 0x0 PUSH2 0x100 EXP DUP2 SLOAD DUP2 PUSH20 0xFFFFFFFFFFFFFFFFFFFFFFFFFFFFFFFFFFFFFFFF MUL NOT AND SWAP1 DUP4 PUSH20 0xFFFFFFFFFFFFFFFFFFFFFFFFFFFFFFFFFFFFFFFF AND MUL OR SWAP1 SSTORE POP DUP2 PUSH20 0xFFFFFFFFFFFFFFFFFFFFFFFFFFFFFFFFFFFFFFFF AND DUP2 PUSH20 0xFFFFFFFFFFFFFFFFFFFFFFFFFFFFFFFFFFFFFFFF AND PUSH32 0x8BE0079C531659141344CD1FD0A4F28419497F9722A3DAAFE3B4186F6B6457E0 PUSH1 0x40 MLOAD PUSH1 0x40 MLOAD DUP1 SWAP2 SUB SWAP1 LOG3 POP POP JUMP JUMPDEST PUSH1 0x0 PUSH1 0x1 PUSH1 0x5 PUSH1 0x0 DUP3 DUP3 SLOAD PUSH2 0x1EFD SWAP2 SWAP1 PUSH2 0x2BFD JUMP JUMPDEST SWAP3 POP POP DUP2 SWAP1 SSTORE POP PUSH4 0x3B9ACA00 PUSH1 0x5 SLOAD PUSH2 0x1F2C DUP5 PUSH1 0x5 SLOAD PUSH2 0x1F1D SWAP2 SWAP1 PUSH2 0x2BFD JUMP JUMPDEST NUMBER PUSH2 0x1FB2 SWAP1 SWAP2 SWAP1 PUSH4 0xFFFFFFFF AND JUMP JUMPDEST PUSH2 0x1F4C DUP6 PUSH1 0x5 SLOAD PUSH2 0x1F3D SWAP2 SWAP1 PUSH2 0x2BFD JUMP JUMPDEST TIMESTAMP PUSH2 0x1FB2 SWAP1 SWAP2 SWAP1 PUSH4 0xFFFFFFFF AND JUMP JUMPDEST PUSH2 0x1F6C DUP7 PUSH1 0x5 SLOAD PUSH2 0x1F5D SWAP2 SWAP1 PUSH2 0x2BFD JUMP JUMPDEST PREVRANDAO PUSH2 0x1FB2 SWAP1 SWAP2 SWAP1 PUSH4 0xFFFFFFFF AND JUMP JUMPDEST PUSH2 0x1F74 PUSH2 0x1E1A JUMP JUMPDEST PUSH1 0x40 MLOAD PUSH1 0x20 ADD PUSH2 0x1F88 SWAP6 SWAP5 SWAP4 SWAP3 SWAP2 SWAP1 PUSH2 0x3600 JUMP JUMPDEST PUSH1 0x40 MLOAD PUSH1 0x20 DUP2 DUP4 SUB SUB DUP2 MSTORE SWAP1 PUSH1 0x40 MSTORE DUP1 MLOAD SWAP1 PUSH1 0x20 ADD KECCAK256 PUSH1 0x0 SHR PUSH2 0x1FAB SWAP2 SWAP1 PUSH2 0x3566 JUMP JUMPDEST SWAP1 POP SWAP2 SWAP1 POP JUMP JUMPDEST PUSH1 0x0 DUP2 DUP4 PUSH2 0x1FC0 SWAP2 SWAP1 PUSH2 0x2BFD JUMP JUMPDEST SWAP1 POP SWAP3 SWAP2 POP POP JUMP JUMPDEST PUSH1 0x0 DUP2 SWAP1 POP SWAP2 SWAP1 POP JUMP JUMPDEST PUSH2 0x1FDB DUP2 PUSH2 0x1FC8 JUMP JUMPDEST DUP3 MSTORE POP POP JUMP JUMPDEST PUSH1 0x0 PUSH1 0x20 DUP3 ADD SWAP1 POP PUSH2 0x1FF6 PUSH1 0x0 DUP4 ADD DUP5 PUSH2 0x1FD2 JUMP JUMPDEST SWAP3 SWAP2 POP POP JUMP JUMPDEST PUSH1 0x0 DUP2 MLOAD SWAP1 POP SWAP2 SWAP1 POP JUMP JUMPDEST PUSH1 0x0 DUP3 DUP3 MSTORE PUSH1 0x20 DUP3 ADD SWAP1 POP SWAP3 SWAP2 POP POP JUMP JUMPDEST PUSH1 0x0 JUMPDEST DUP4 DUP2 LT ISZERO PUSH2 0x2036 JUMPI DUP1 DUP3 ADD MLOAD DUP2 DUP5 ADD MSTORE PUSH1 0x20 DUP2 ADD SWAP1 POP PUSH2 0x201B JUMP JUMPDEST PUSH1 0x0 DUP5 DUP5 ADD MSTORE POP POP POP POP JUMP JUMPDEST PUSH1 0x0 PUSH1 0x1F NOT PUSH1 0x1F DUP4 ADD AND SWAP1 POP SWAP2 SWAP1 POP JUMP JUMPDEST PUSH1 0x0 PUSH2 0x205E DUP3 PUSH2 0x1FFC JUMP JUMPDEST PUSH2 0x2068 DUP2 DUP6 PUSH2 0x2007 JUMP JUMPDEST SWAP4 POP PUSH2 0x2078 DUP2 DUP6 PUSH1 0x20 DUP7 ADD PUSH2 0x2018 JUMP JUMPDEST PUSH2 0x2081 DUP2 PUSH2 0x2042 JUMP JUMPDEST DUP5 ADD SWAP2 POP POP SWAP3 SWAP2 POP POP JUMP JUMPDEST PUSH1 0x0 PUSH1 0x20 DUP3 ADD SWAP1 POP DUP2 DUP2 SUB PUSH1 0x0 DUP4 ADD MSTORE PUSH2 0x20A6 DUP2 DUP5 PUSH2 0x2053 JUMP JUMPDEST SWAP1 POP SWAP3 SWAP2 POP POP JUMP JUMPDEST PUSH1 0x0 PUSH1 0x40 MLOAD SWAP1 POP SWAP1 JUMP JUMPDEST PUSH1 0x0 DUP1 REVERT JUMPDEST PUSH1 0x0 DUP1 REVERT JUMPDEST PUSH1 0x0 PUSH20 0xFFFFFFFFFFFFFFFFFFFFFFFFFFFFFFFFFFFFFFFF DUP3 AND SWAP1 POP SWAP2 SWAP1 POP JUMP JUMPDEST PUSH1 0x0 PUSH2 0x20ED DUP3 PUSH2 0x20C2 JUMP JUMPDEST SWAP1 POP SWAP2 SWAP1 POP JUMP JUMPDEST PUSH2 0x20FD DUP2 PUSH2 0x20E2 JUMP JUMPDEST DUP2 EQ PUSH2 0x2108 JUMPI PUSH1 0x0 DUP1 REVERT JUMPDEST POP JUMP JUMPDEST PUSH1 0x0 DUP2 CALLDATALOAD SWAP1 POP PUSH2 0x211A DUP2 PUSH2 0x20F4 JUMP JUMPDEST SWAP3 SWAP2 POP POP JUMP JUMPDEST PUSH1 0x0 PUSH1 0x20 DUP3 DUP5 SUB SLT ISZERO PUSH2 0x2136 JUMPI PUSH2 0x2135 PUSH2 0x20B8 JUMP JUMPDEST JUMPDEST PUSH1 0x0 PUSH2 0x2144 DUP5 DUP3 DUP6 ADD PUSH2 0x210B JUMP JUMPDEST SWAP2 POP POP SWAP3 SWAP2 POP POP JUMP JUMPDEST PUSH2 0x2156 DUP2 PUSH2 0x1FC8 JUMP JUMPDEST DUP2 EQ PUSH2 0x2161 JUMPI PUSH1 0x0 DUP1 REVERT JUMPDEST POP JUMP JUMPDEST PUSH1 0x0 DUP2 CALLDATALOAD SWAP1 POP PUSH2 0x2173 DUP2 PUSH2 0x214D JUMP JUMPDEST SWAP3 SWAP2 POP POP JUMP JUMPDEST PUSH1 0x0 DUP1 PUSH1 0x0 DUP1 PUSH1 0x0 DUP1 PUSH1 0x0 DUP1 PUSH1 0x0 PUSH2 0x120 DUP11 DUP13 SUB SLT ISZERO PUSH2 0x219C JUMPI PUSH2 0x219B PUSH2 0x20B8 JUMP JUMPDEST JUMPDEST PUSH1 0x0 PUSH2 0x21AA DUP13 DUP3 DUP14 ADD PUSH2 0x2164 JUMP JUMPDEST SWAP10 POP POP PUSH1 0x20 PUSH2 0x21BB DUP13 DUP3 DUP14 ADD PUSH2 0x2164 JUMP JUMPDEST SWAP9 POP POP PUSH1 0x40 PUSH2 0x21CC DUP13 DUP3 DUP14 ADD PUSH2 0x210B JUMP JUMPDEST SWAP8 POP POP PUSH1 0x60 PUSH2 0x21DD DUP13 DUP3 DUP14 ADD PUSH2 0x210B JUMP JUMPDEST SWAP7 POP POP PUSH1 0x80 PUSH2 0x21EE DUP13 DUP3 DUP14 ADD PUSH2 0x210B JUMP JUMPDEST SWAP6 POP POP PUSH1 0xA0 PUSH2 0x21FF DUP13 DUP3 DUP14 ADD PUSH2 0x2164 JUMP JUMPDEST SWAP5 POP POP PUSH1 0xC0 PUSH2 0x2210 DUP13 DUP3 DUP14 ADD PUSH2 0x2164 JUMP JUMPDEST SWAP4 POP POP PUSH1 0xE0 PUSH2 0x2221 DUP13 DUP3 DUP14 ADD PUSH2 0x2164 JUMP JUMPDEST SWAP3 POP POP PUSH2 0x100 PUSH2 0x2233 DUP13 DUP3 DUP14 ADD PUSH2 0x210B JUMP JUMPDEST SWAP2 POP POP SWAP3 SWAP6 SWAP9 POP SWAP3 SWAP6 SWAP9 POP SWAP3 SWAP6 SWAP9 JUMP JUMPDEST PUSH2 0x224C DUP2 PUSH2 0x20E2 JUMP JUMPDEST DUP3 MSTORE POP POP JUMP JUMPDEST PUSH1 0x0 PUSH1 0x20 DUP3 ADD SWAP1 POP PUSH2 0x2267 PUSH1 0x0 DUP4 ADD DUP5 PUSH2 0x2243 JUMP JUMPDEST SWAP3 SWAP2 POP POP JUMP JUMPDEST PUSH1 0x0 DUP1 PUSH1 0x40 DUP4 DUP6 SUB SLT ISZERO PUSH2 0x2284 JUMPI PUSH2 0x2283 PUSH2 0x20B8 JUMP JUMPDEST JUMPDEST PUSH1 0x0 PUSH2 0x2292 DUP6 DUP3 DUP7 ADD PUSH2 0x2164 JUMP JUMPDEST SWAP3 POP POP PUSH1 0x20 PUSH2 0x22A3 DUP6 DUP3 DUP7 ADD PUSH2 0x2164 JUMP JUMPDEST SWAP2 POP POP SWAP3 POP SWAP3 SWAP1 POP JUMP JUMPDEST PUSH1 0x0 PUSH1 0x40 DUP3 ADD SWAP1 POP PUSH2 0x22C2 PUSH1 0x0 DUP4 ADD DUP6 PUSH2 0x1FD2 JUMP JUMPDEST PUSH2 0x22CF PUSH1 0x20 DUP4 ADD DUP5 PUSH2 0x1FD2 JUMP JUMPDEST SWAP4 SWAP3 POP POP POP JUMP JUMPDEST PUSH1 0x0 PUSH1 0x20 DUP3 DUP5 SUB SLT ISZERO PUSH2 0x22EC JUMPI PUSH2 0x22EB PUSH2 0x20B8 JUMP JUMPDEST JUMPDEST PUSH1 0x0 PUSH2 0x22FA DUP5 DUP3 DUP6 ADD PUSH2 0x2164 JUMP JUMPDEST SWAP2 POP POP SWAP3 SWAP2 POP POP JUMP JUMPDEST PUSH1 0x0 PUSH2 0x100 DUP3 ADD SWAP1 POP PUSH2 0x2319 PUSH1 0x0 DUP4 ADD DUP12 PUSH2 0x1FD2 JUMP JUMPDEST PUSH2 0x2326 PUSH1 0x20 DUP4 ADD DUP11 PUSH2 0x1FD2 JUMP JUMPDEST DUP2 DUP2 SUB PUSH1 0x40 DUP4 ADD MSTORE PUSH2 0x2338 DUP2 DUP10 PUSH2 0x2053 JUMP JUMPDEST SWAP1 POP PUSH2 0x2347 PUSH1 0x60 DUP4 ADD DUP9 PUSH2 0x1FD2 JUMP JUMPDEST PUSH2 0x2354 PUSH1 0x80 DUP4 ADD DUP8 PUSH2 0x1FD2 JUMP JUMPDEST PUSH2 0x2361 PUSH1 0xA0 DUP4 ADD DUP7 PUSH2 0x1FD2 JUMP JUMPDEST PUSH2 0x236E PUSH1 0xC0 DUP4 ADD DUP6 PUSH2 0x1FD2 JUMP JUMPDEST PUSH2 0x237B PUSH1 0xE0 DUP4 ADD DUP5 PUSH2 0x1FD2 JUMP JUMPDEST SWAP10 SWAP9 POP POP POP POP POP POP POP POP POP JUMP JUMPDEST PUSH1 0x0 DUP2 ISZERO ISZERO SWAP1 POP SWAP2 SWAP1 POP JUMP JUMPDEST PUSH2 0x239D DUP2 PUSH2 0x2388 JUMP JUMPDEST DUP3 MSTORE POP POP JUMP JUMPDEST PUSH1 0x0 PUSH1 0x60 DUP3 ADD SWAP1 POP PUSH2 0x23B8 PUSH1 0x0 DUP4 ADD DUP7 PUSH2 0x2394 JUMP JUMPDEST PUSH2 0x23C5 PUSH1 0x20 DUP4 ADD DUP6 PUSH2 0x1FD2 JUMP JUMPDEST PUSH2 0x23D2 PUSH1 0x40 DUP4 ADD DUP5 PUSH2 0x1FD2 JUMP JUMPDEST SWAP5 SWAP4 POP POP POP POP JUMP JUMPDEST PUSH1 0x0 DUP1 REVERT JUMPDEST PUSH1 0x0 DUP1 REVERT JUMPDEST PUSH32 0x4E487B7100000000000000000000000000000000000000000000000000000000 PUSH1 0x0 MSTORE PUSH1 0x41 PUSH1 0x4 MSTORE PUSH1 0x24 PUSH1 0x0 REVERT JUMPDEST PUSH2 0x241C DUP3 PUSH2 0x2042 JUMP JUMPDEST DUP2 ADD DUP2 DUP2 LT PUSH8 0xFFFFFFFFFFFFFFFF DUP3 GT OR ISZERO PUSH2 0x243B JUMPI PUSH2 0x243A PUSH2 0x23E4 JUMP JUMPDEST JUMPDEST DUP1 PUSH1 0x40 MSTORE POP POP POP JUMP JUMPDEST PUSH1 0x0 PUSH2 0x244E PUSH2 0x20AE JUMP JUMPDEST SWAP1 POP PUSH2 0x245A DUP3 DUP3 PUSH2 0x2413 JUMP JUMPDEST SWAP2 SWAP1 POP JUMP JUMPDEST PUSH1 0x0 PUSH8 0xFFFFFFFFFFFFFFFF DUP3 GT ISZERO PUSH2 0x247A JUMPI PUSH2 0x2479 PUSH2 0x23E4 JUMP JUMPDEST JUMPDEST PUSH2 0x2483 DUP3 PUSH2 0x2042 JUMP JUMPDEST SWAP1 POP PUSH1 0x20 DUP2 ADD SWAP1 POP SWAP2 SWAP1 POP JUMP JUMPDEST DUP3 DUP2 DUP4 CALLDATACOPY PUSH1 0x0 DUP4 DUP4 ADD MSTORE POP POP POP JUMP JUMPDEST PUSH1 0x0 PUSH2 0x24B2 PUSH2 0x24AD DUP5 PUSH2 0x245F JUMP JUMPDEST PUSH2 0x2444 JUMP JUMPDEST SWAP1 POP DUP3 DUP2 MSTORE PUSH1 0x20 DUP2 ADD DUP5 DUP5 DUP5 ADD GT ISZERO PUSH2 0x24CE JUMPI PUSH2 0x24CD PUSH2 0x23DF JUMP JUMPDEST JUMPDEST PUSH2 0x24D9 DUP5 DUP3 DUP6 PUSH2 0x2490 JUMP JUMPDEST POP SWAP4 SWAP3 POP POP POP JUMP JUMPDEST PUSH1 0x0 DUP3 PUSH1 0x1F DUP4 ADD SLT PUSH2 0x24F6 JUMPI PUSH2 0x24F5 PUSH2 0x23DA JUMP JUMPDEST JUMPDEST DUP2 CALLDATALOAD PUSH2 0x2506 DUP5 DUP3 PUSH1 0x20 DUP7 ADD PUSH2 0x249F JUMP JUMPDEST SWAP2 POP POP SWAP3 SWAP2 POP POP JUMP JUMPDEST PUSH1 0x0 PUSH8 0xFFFFFFFFFFFFFFFF DUP3 GT ISZERO PUSH2 0x252A JUMPI PUSH2 0x2529 PUSH2 0x23E4 JUMP JUMPDEST JUMPDEST PUSH1 0x20 DUP3 MUL SWAP1 POP PUSH1 0x20 DUP2 ADD SWAP1 POP SWAP2 SWAP1 POP JUMP JUMPDEST PUSH1 0x0 DUP1 REVERT JUMPDEST PUSH1 0x0 PUSH2 0x2553 PUSH2 0x254E DUP5 PUSH2 0x250F JUMP JUMPDEST PUSH2 0x2444 JUMP JUMPDEST SWAP1 POP DUP1 DUP4 DUP3 MSTORE PUSH1 0x20 DUP3 ADD SWAP1 POP PUSH1 0x20 DUP5 MUL DUP4 ADD DUP6 DUP2 GT ISZERO PUSH2 0x2576 JUMPI PUSH2 0x2575 PUSH2 0x253B JUMP JUMPDEST JUMPDEST DUP4 JUMPDEST DUP2 DUP2 LT ISZERO PUSH2 0x259F JUMPI DUP1 PUSH2 0x258B DUP9 DUP3 PUSH2 0x2164 JUMP JUMPDEST DUP5 MSTORE PUSH1 0x20 DUP5 ADD SWAP4 POP POP PUSH1 0x20 DUP2 ADD SWAP1 POP PUSH2 0x2578 JUMP JUMPDEST POP POP POP SWAP4 SWAP3 POP POP POP JUMP JUMPDEST PUSH1 0x0 DUP3 PUSH1 0x1F DUP4 ADD SLT PUSH2 0x25BE JUMPI PUSH2 0x25BD PUSH2 0x23DA JUMP JUMPDEST JUMPDEST DUP2 CALLDATALOAD PUSH2 0x25CE DUP5 DUP3 PUSH1 0x20 DUP7 ADD PUSH2 0x2540 JUMP JUMPDEST SWAP2 POP POP SWAP3 SWAP2 POP POP JUMP JUMPDEST PUSH1 0x0 DUP1 PUSH1 0x0 DUP1 PUSH1 0x0 DUP1 PUSH1 0x0 DUP1 PUSH2 0x100 DUP10 DUP12 SUB SLT ISZERO PUSH2 0x25F8 JUMPI PUSH2 0x25F7 PUSH2 0x20B8 JUMP JUMPDEST JUMPDEST PUSH1 0x0 DUP10 ADD CALLDATALOAD PUSH8 0xFFFFFFFFFFFFFFFF DUP2 GT ISZERO PUSH2 0x2616 JUMPI PUSH2 0x2615 PUSH2 0x20BD JUMP JUMPDEST JUMPDEST PUSH2 0x2622 DUP12 DUP3 DUP13 ADD PUSH2 0x24E1 JUMP JUMPDEST SWAP9 POP POP PUSH1 0x20 PUSH2 0x2633 DUP12 DUP3 DUP13 ADD PUSH2 0x2164 JUMP JUMPDEST SWAP8 POP POP PUSH1 0x40 PUSH2 0x2644 DUP12 DUP3 DUP13 ADD PUSH2 0x2164 JUMP JUMPDEST SWAP7 POP POP PUSH1 0x60 PUSH2 0x2655 DUP12 DUP3 DUP13 ADD PUSH2 0x2164 JUMP JUMPDEST SWAP6 POP POP PUSH1 0x80 PUSH2 0x2666 DUP12 DUP3 DUP13 ADD PUSH2 0x2164 JUMP JUMPDEST SWAP5 POP POP PUSH1 0xA0 PUSH2 0x2677 DUP12 DUP3 DUP13 ADD PUSH2 0x2164 JUMP JUMPDEST SWAP4 POP POP PUSH1 0xC0 DUP10 ADD CALLDATALOAD PUSH8 0xFFFFFFFFFFFFFFFF DUP2 GT ISZERO PUSH2 0x2698 JUMPI PUSH2 0x2697 PUSH2 0x20BD JUMP JUMPDEST JUMPDEST PUSH2 0x26A4 DUP12 DUP3 DUP13 ADD PUSH2 0x25A9 JUMP JUMPDEST SWAP3 POP POP PUSH1 0xE0 DUP10 ADD CALLDATALOAD PUSH8 0xFFFFFFFFFFFFFFFF DUP2 GT ISZERO PUSH2 0x26C5 JUMPI PUSH2 0x26C4 PUSH2 0x20BD JUMP JUMPDEST JUMPDEST PUSH2 0x26D1 DUP12 DUP3 DUP13 ADD PUSH2 0x25A9 JUMP JUMPDEST SWAP2 POP POP SWAP3 SWAP6 SWAP9 POP SWAP3 SWAP6 SWAP9 SWAP1 SWAP4 SWAP7 POP JUMP JUMPDEST PUSH1 0x0 DUP2 SWAP1 POP SWAP2 SWAP1 POP JUMP JUMPDEST PUSH1 0x0 PUSH2 0x2706 PUSH2 0x2701 PUSH2 0x26FC DUP5 PUSH2 0x20C2 JUMP JUMPDEST PUSH2 0x26E1 JUMP JUMPDEST PUSH2 0x20C2 JUMP JUMPDEST SWAP1 POP SWAP2 SWAP1 POP JUMP JUMPDEST PUSH1 0x0 PUSH2 0x2718 DUP3 PUSH2 0x26EB JUMP JUMPDEST SWAP1 POP SWAP2 SWAP1 POP JUMP JUMPDEST PUSH1 0x0 PUSH2 0x272A DUP3 PUSH2 0x270D JUMP JUMPDEST SWAP1 POP SWAP2 SWAP1 POP JUMP JUMPDEST PUSH2 0x273A DUP2 PUSH2 0x271F JUMP JUMPDEST DUP3 MSTORE POP POP JUMP JUMPDEST PUSH1 0x0 PUSH1 0x20 DUP3 ADD SWAP1 POP PUSH2 0x2755 PUSH1 0x0 DUP4 ADD DUP5 PUSH2 0x2731 JUMP JUMPDEST SWAP3 SWAP2 POP POP JUMP JUMPDEST PUSH32 0x4E487B7100000000000000000000000000000000000000000000000000000000 PUSH1 0x0 MSTORE PUSH1 0x22 PUSH1 0x4 MSTORE PUSH1 0x24 PUSH1 0x0 REVERT JUMPDEST PUSH1 0x0 PUSH1 0x2 DUP3 DIV SWAP1 POP PUSH1 0x1 DUP3 AND DUP1 PUSH2 0x27A2 JUMPI PUSH1 0x7F DUP3 AND SWAP2 POP JUMPDEST PUSH1 0x20 DUP3 LT DUP2 SUB PUSH2 0x27B5 JUMPI PUSH2 0x27B4 PUSH2 0x275B JUMP JUMPDEST JUMPDEST POP SWAP2 SWAP1 POP JUMP JUMPDEST PUSH32 0x6E6F742073657420746F6B656E00000000000000000000000000000000000000 PUSH1 0x0 DUP3 ADD MSTORE POP JUMP JUMPDEST PUSH1 0x0 PUSH2 0x27F1 PUSH1 0xD DUP4 PUSH2 0x2007 JUMP JUMPDEST SWAP2 POP PUSH2 0x27FC DUP3 PUSH2 0x27BB JUMP JUMPDEST PUSH1 0x20 DUP3 ADD SWAP1 POP SWAP2 SWAP1 POP JUMP JUMPDEST PUSH1 0x0 PUSH1 0x20 DUP3 ADD SWAP1 POP DUP2 DUP2 SUB PUSH1 0x0 DUP4 ADD MSTORE PUSH2 0x2820 DUP2 PUSH2 0x27E4 JUMP JUMPDEST SWAP1 POP SWAP2 SWAP1 POP JUMP JUMPDEST PUSH32 0x5265656E7472616E637947756172643A207265656E7472616E742063616C6C00 PUSH1 0x0 DUP3 ADD MSTORE POP JUMP JUMPDEST PUSH1 0x0 PUSH2 0x285D PUSH1 0x1F DUP4 PUSH2 0x2007 JUMP JUMPDEST SWAP2 POP PUSH2 0x2868 DUP3 PUSH2 0x2827 JUMP JUMPDEST PUSH1 0x20 DUP3 ADD SWAP1 POP SWAP2 SWAP1 POP JUMP JUMPDEST PUSH1 0x0 PUSH1 0x20 DUP3 ADD SWAP1 POP DUP2 DUP2 SUB PUSH1 0x0 DUP4 ADD MSTORE PUSH2 0x288C DUP2 PUSH2 0x2850 JUMP JUMPDEST SWAP1 POP SWAP2 SWAP1 POP JUMP JUMPDEST PUSH32 0x5265717569726520717479203C3D203130000000000000000000000000000000 PUSH1 0x0 DUP3 ADD MSTORE POP JUMP JUMPDEST PUSH1 0x0 PUSH2 0x28C9 PUSH1 0x11 DUP4 PUSH2 0x2007 JUMP JUMPDEST SWAP2 POP PUSH2 0x28D4 DUP3 PUSH2 0x2893 JUMP JUMPDEST PUSH1 0x20 DUP3 ADD SWAP1 POP SWAP2 SWAP1 POP JUMP JUMPDEST PUSH1 0x0 PUSH1 0x20 DUP3 ADD SWAP1 POP DUP2 DUP2 SUB PUSH1 0x0 DUP4 ADD MSTORE PUSH2 0x28F8 DUP2 PUSH2 0x28BC JUMP JUMPDEST SWAP1 POP SWAP2 SWAP1 POP JUMP JUMPDEST PUSH32 0x47616D65206E6F7420666F756E64000000000000000000000000000000000000 PUSH1 0x0 DUP3 ADD MSTORE POP JUMP JUMPDEST PUSH1 0x0 PUSH2 0x2935 PUSH1 0xE DUP4 PUSH2 0x2007 JUMP JUMPDEST SWAP2 POP PUSH2 0x2940 DUP3 PUSH2 0x28FF JUMP JUMPDEST PUSH1 0x20 DUP3 ADD SWAP1 POP SWAP2 SWAP1 POP JUMP JUMPDEST PUSH1 0x0 PUSH1 0x20 DUP3 ADD SWAP1 POP DUP2 DUP2 SUB PUSH1 0x0 DUP4 ADD MSTORE PUSH2 0x2964 DUP2 PUSH2 0x2928 JUMP JUMPDEST SWAP1 POP SWAP2 SWAP1 POP JUMP JUMPDEST PUSH32 0x4E487B7100000000000000000000000000000000000000000000000000000000 PUSH1 0x0 MSTORE PUSH1 0x11 PUSH1 0x4 MSTORE PUSH1 0x24 PUSH1 0x0 REVERT JUMPDEST PUSH1 0x0 PUSH2 0x29A5 DUP3 PUSH2 0x1FC8 JUMP JUMPDEST SWAP2 POP PUSH2 0x29B0 DUP4 PUSH2 0x1FC8 JUMP JUMPDEST SWAP3 POP DUP3 DUP3 MUL PUSH2 0x29BE DUP2 PUSH2 0x1FC8 JUMP JUMPDEST SWAP2 POP DUP3 DUP3 DIV DUP5 EQ DUP4 ISZERO OR PUSH2 0x29D5 JUMPI PUSH2 0x29D4 PUSH2 0x296B JUMP JUMPDEST JUMPDEST POP SWAP3 SWAP2 POP POP JUMP JUMPDEST PUSH1 0x0 DUP2 MLOAD SWAP1 POP PUSH2 0x29EB DUP2 PUSH2 0x214D JUMP JUMPDEST SWAP3 SWAP2 POP POP JUMP JUMPDEST PUSH1 0x0 PUSH1 0x20 DUP3 DUP5 SUB SLT ISZERO PUSH2 0x2A07 JUMPI PUSH2 0x2A06 PUSH2 0x20B8 JUMP JUMPDEST JUMPDEST PUSH1 0x0 PUSH2 0x2A15 DUP5 DUP3 DUP6 ADD PUSH2 0x29DC JUMP JUMPDEST SWAP2 POP POP SWAP3 SWAP2 POP POP JUMP JUMPDEST PUSH32 0x496E73756666696369656E742066756E647320696E20746865206163636F756E PUSH1 0x0 DUP3 ADD MSTORE PUSH32 0x7400000000000000000000000000000000000000000000000000000000000000 PUSH1 0x20 DUP3 ADD MSTORE POP JUMP JUMPDEST PUSH1 0x0 PUSH2 0x2A7A PUSH1 0x21 DUP4 PUSH2 0x2007 JUMP JUMPDEST SWAP2 POP PUSH2 0x2A85 DUP3 PUSH2 0x2A1E JUMP JUMPDEST PUSH1 0x40 DUP3 ADD SWAP1 POP SWAP2 SWAP1 POP JUMP JUMPDEST PUSH1 0x0 PUSH1 0x20 DUP3 ADD SWAP1 POP DUP2 DUP2 SUB PUSH1 0x0 DUP4 ADD MSTORE PUSH2 0x2AA9 DUP2 PUSH2 0x2A6D JUMP JUMPDEST SWAP1 POP SWAP2 SWAP1 POP JUMP JUMPDEST PUSH1 0x0 PUSH1 0x60 DUP3 ADD SWAP1 POP PUSH2 0x2AC5 PUSH1 0x0 DUP4 ADD DUP7 PUSH2 0x2243 JUMP JUMPDEST PUSH2 0x2AD2 PUSH1 0x20 DUP4 ADD DUP6 PUSH2 0x2243 JUMP JUMPDEST PUSH2 0x2ADF PUSH1 0x40 DUP4 ADD DUP5 PUSH2 0x1FD2 JUMP JUMPDEST SWAP5 SWAP4 POP POP POP POP JUMP JUMPDEST PUSH2 0x2AF0 DUP2 PUSH2 0x2388 JUMP JUMPDEST DUP2 EQ PUSH2 0x2AFB JUMPI PUSH1 0x0 DUP1 REVERT JUMPDEST POP JUMP JUMPDEST PUSH1 0x0 DUP2 MLOAD SWAP1 POP PUSH2 0x2B0D DUP2 PUSH2 0x2AE7 JUMP JUMPDEST SWAP3 SWAP2 POP POP JUMP JUMPDEST PUSH1 0x0 PUSH1 0x20 DUP3 DUP5 SUB SLT ISZERO PUSH2 0x2B29 JUMPI PUSH2 0x2B28 PUSH2 0x20B8 JUMP JUMPDEST JUMPDEST PUSH1 0x0 PUSH2 0x2B37 DUP5 DUP3 DUP6 ADD PUSH2 0x2AFE JUMP JUMPDEST SWAP2 POP POP SWAP3 SWAP2 POP POP JUMP JUMPDEST PUSH1 0x0 PUSH2 0x2B4B DUP3 PUSH2 0x1FC8 JUMP JUMPDEST SWAP2 POP PUSH2 0x2B56 DUP4 PUSH2 0x1FC8 JUMP JUMPDEST SWAP3 POP DUP3 DUP3 SUB SWAP1 POP DUP2 DUP2 GT ISZERO PUSH2 0x2B6E JUMPI PUSH2 0x2B6D PUSH2 0x296B JUMP JUMPDEST JUMPDEST SWAP3 SWAP2 POP POP JUMP JUMPDEST PUSH32 0x4E487B7100000000000000000000000000000000000000000000000000000000 PUSH1 0x0 MSTORE PUSH1 0x12 PUSH1 0x4 MSTORE PUSH1 0x24 PUSH1 0x0 REVERT JUMPDEST PUSH1 0x0 PUSH2 0x2BAE DUP3 PUSH2 0x1FC8 JUMP JUMPDEST SWAP2 POP PUSH2 0x2BB9 DUP4 PUSH2 0x1FC8 JUMP JUMPDEST SWAP3 POP DUP3 PUSH2 0x2BC9 JUMPI PUSH2 0x2BC8 PUSH2 0x2B74 JUMP JUMPDEST JUMPDEST DUP3 DUP3 DIV SWAP1 POP SWAP3 SWAP2 POP POP JUMP JUMPDEST PUSH1 0x0 PUSH1 0x40 DUP3 ADD SWAP1 POP PUSH2 0x2BE9 PUSH1 0x0 DUP4 ADD DUP6 PUSH2 0x2243 JUMP JUMPDEST PUSH2 0x2BF6 PUSH1 0x20 DUP4 ADD DUP5 PUSH2 0x1FD2 JUMP JUMPDEST SWAP4 SWAP3 POP POP POP JUMP JUMPDEST PUSH1 0x0 PUSH2 0x2C08 DUP3 PUSH2 0x1FC8 JUMP JUMPDEST SWAP2 POP PUSH2 0x2C13 DUP4 PUSH2 0x1FC8 JUMP JUMPDEST SWAP3 POP DUP3 DUP3 ADD SWAP1 POP DUP1 DUP3 GT ISZERO PUSH2 0x2C2B JUMPI PUSH2 0x2C2A PUSH2 0x296B JUMP JUMPDEST JUMPDEST SWAP3 SWAP2 POP POP JUMP JUMPDEST PUSH1 0x0 PUSH2 0x2C3C DUP3 PUSH2 0x1FC8 JUMP JUMPDEST SWAP2 POP PUSH1 0x0 DUP3 SUB PUSH2 0x2C4F JUMPI PUSH2 0x2C4E PUSH2 0x296B JUMP JUMPDEST JUMPDEST PUSH1 0x1 DUP3 SUB SWAP1 POP SWAP2 SWAP1 POP JUMP JUMPDEST PUSH1 0x0 PUSH2 0x2C65 DUP3 PUSH2 0x1FC8 JUMP JUMPDEST SWAP2 POP PUSH32 0xFFFFFFFFFFFFFFFFFFFFFFFFFFFFFFFFFFFFFFFFFFFFFFFFFFFFFFFFFFFFFFFF DUP3 SUB PUSH2 0x2C97 JUMPI PUSH2 0x2C96 PUSH2 0x296B JUMP JUMPDEST JUMPDEST PUSH1 0x1 DUP3 ADD SWAP1 POP SWAP2 SWAP1 POP JUMP JUMPDEST PUSH1 0x0 PUSH1 0xE0 DUP3 ADD SWAP1 POP PUSH2 0x2CB7 PUSH1 0x0 DUP4 ADD DUP11 PUSH2 0x1FD2 JUMP JUMPDEST PUSH2 0x2CC4 PUSH1 0x20 DUP4 ADD DUP10 PUSH2 0x1FD2 JUMP JUMPDEST PUSH2 0x2CD1 PUSH1 0x40 DUP4 ADD DUP9 PUSH2 0x2394 JUMP JUMPDEST PUSH2 0x2CDE PUSH1 0x60 DUP4 ADD DUP8 PUSH2 0x1FD2 JUMP JUMPDEST PUSH2 0x2CEB PUSH1 0x80 DUP4 ADD DUP7 PUSH2 0x1FD2 JUMP JUMPDEST PUSH2 0x2CF8 PUSH1 0xA0 DUP4 ADD DUP6 PUSH2 0x1FD2 JUMP JUMPDEST PUSH2 0x2D05 PUSH1 0xC0 DUP4 ADD DUP5 PUSH2 0x1FD2 JUMP JUMPDEST SWAP9 SWAP8 POP POP POP POP POP POP POP POP JUMP JUMPDEST PUSH32 0x4F776E61626C653A2063616C6C6572206973206E6F7420746865206F776E6572 PUSH1 0x0 DUP3 ADD MSTORE POP JUMP JUMPDEST PUSH1 0x0 PUSH2 0x2D47 PUSH1 0x20 DUP4 PUSH2 0x2007 JUMP JUMPDEST SWAP2 POP PUSH2 0x2D52 DUP3 PUSH2 0x2D11 JUMP JUMPDEST PUSH1 0x20 DUP3 ADD SWAP1 POP SWAP2 SWAP1 POP JUMP JUMPDEST PUSH1 0x0 PUSH1 0x20 DUP3 ADD SWAP1 POP DUP2 DUP2 SUB PUSH1 0x0 DUP4 ADD MSTORE PUSH2 0x2D76 DUP2 PUSH2 0x2D3A JUMP JUMPDEST SWAP1 POP SWAP2 SWAP1 POP JUMP JUMPDEST PUSH32 0x6E6F742070726F6A656374206F776E6572206372656174652067616D65000000 PUSH1 0x0 DUP3 ADD MSTORE POP JUMP JUMPDEST PUSH1 0x0 PUSH2 0x2DB3 PUSH1 0x1D DUP4 PUSH2 0x2007 JUMP JUMPDEST SWAP2 POP PUSH2 0x2DBE DUP3 PUSH2 0x2D7D JUMP JUMPDEST PUSH1 0x20 DUP3 ADD SWAP1 POP SWAP2 SWAP1 POP JUMP JUMPDEST PUSH1 0x0 PUSH1 0x20 DUP3 ADD SWAP1 POP DUP2 DUP2 SUB PUSH1 0x0 DUP4 ADD MSTORE PUSH2 0x2DE2 DUP2 PUSH2 0x2DA6 JUMP JUMPDEST SWAP1 POP SWAP2 SWAP1 POP JUMP JUMPDEST PUSH32 0x7072696365206973207A65726F00000000000000000000000000000000000000 PUSH1 0x0 DUP3 ADD MSTORE POP JUMP JUMPDEST PUSH1 0x0 PUSH2 0x2E1F PUSH1 0xD DUP4 PUSH2 0x2007 JUMP JUMPDEST SWAP2 POP PUSH2 0x2E2A DUP3 PUSH2 0x2DE9 JUMP JUMPDEST PUSH1 0x20 DUP3 ADD SWAP1 POP SWAP2 SWAP1 POP JUMP JUMPDEST PUSH1 0x0 PUSH1 0x20 DUP3 ADD SWAP1 POP DUP2 DUP2 SUB PUSH1 0x0 DUP4 ADD MSTORE PUSH2 0x2E4E DUP2 PUSH2 0x2E12 JUMP JUMPDEST SWAP1 POP SWAP2 SWAP1 POP JUMP JUMPDEST PUSH32 0x616666696C696174652070657263656E74203C20313025000000000000000000 PUSH1 0x0 DUP3 ADD MSTORE POP JUMP JUMPDEST PUSH1 0x0 PUSH2 0x2E8B PUSH1 0x17 DUP4 PUSH2 0x2007 JUMP JUMPDEST SWAP2 POP PUSH2 0x2E96 DUP3 PUSH2 0x2E55 JUMP JUMPDEST PUSH1 0x20 DUP3 ADD SWAP1 POP SWAP2 SWAP1 POP JUMP JUMPDEST PUSH1 0x0 PUSH1 0x20 DUP3 ADD SWAP1 POP DUP2 DUP2 SUB PUSH1 0x0 DUP4 ADD MSTORE PUSH2 0x2EBA DUP2 PUSH2 0x2E7E JUMP JUMPDEST SWAP1 POP SWAP2 SWAP1 POP JUMP JUMPDEST PUSH32 0x6F776E65722070657263656E74203C2031302500000000000000000000000000 PUSH1 0x0 DUP3 ADD MSTORE POP JUMP JUMPDEST PUSH1 0x0 PUSH2 0x2EF7 PUSH1 0x13 DUP4 PUSH2 0x2007 JUMP JUMPDEST SWAP2 POP PUSH2 0x2F02 DUP3 PUSH2 0x2EC1 JUMP JUMPDEST PUSH1 0x20 DUP3 ADD SWAP1 POP SWAP2 SWAP1 POP JUMP JUMPDEST PUSH1 0x0 PUSH1 0x20 DUP3 ADD SWAP1 POP DUP2 DUP2 SUB PUSH1 0x0 DUP4 ADD MSTORE PUSH2 0x2F26 DUP2 PUSH2 0x2EEA JUMP JUMPDEST SWAP1 POP SWAP2 SWAP1 POP JUMP JUMPDEST PUSH32 0x76616C756520616E642070657263656E74206973206E6F742076616C69640000 PUSH1 0x0 DUP3 ADD MSTORE POP JUMP JUMPDEST PUSH1 0x0 PUSH2 0x2F63 PUSH1 0x1E DUP4 PUSH2 0x2007 JUMP JUMPDEST SWAP2 POP PUSH2 0x2F6E DUP3 PUSH2 0x2F2D JUMP JUMPDEST PUSH1 0x20 DUP3 ADD SWAP1 POP SWAP2 SWAP1 POP JUMP JUMPDEST PUSH1 0x0 PUSH1 0x20 DUP3 ADD SWAP1 POP DUP2 DUP2 SUB PUSH1 0x0 DUP4 ADD MSTORE PUSH2 0x2F92 DUP2 PUSH2 0x2F56 JUMP JUMPDEST SWAP1 POP SWAP2 SWAP1 POP JUMP JUMPDEST PUSH1 0x0 DUP2 SWAP1 POP DUP2 PUSH1 0x0 MSTORE PUSH1 0x20 PUSH1 0x0 KECCAK256 SWAP1 POP SWAP2 SWAP1 POP JUMP JUMPDEST PUSH1 0x0 PUSH1 0x20 PUSH1 0x1F DUP4 ADD DIV SWAP1 POP SWAP2 SWAP1 POP JUMP JUMPDEST PUSH1 0x0 DUP3 DUP3 SHL SWAP1 POP SWAP3 SWAP2 POP POP JUMP JUMPDEST PUSH1 0x0 PUSH1 0x8 DUP4 MUL PUSH2 0x2FFB PUSH32 0xFFFFFFFFFFFFFFFFFFFFFFFFFFFFFFFFFFFFFFFFFFFFFFFFFFFFFFFFFFFFFFFF DUP3 PUSH2 0x2FBE JUMP JUMPDEST PUSH2 0x3005 DUP7 DUP4 PUSH2 0x2FBE JUMP JUMPDEST SWAP6 POP DUP1 NOT DUP5 AND SWAP4 POP DUP1 DUP7 AND DUP5 OR SWAP3 POP POP POP SWAP4 SWAP3 POP POP POP JUMP JUMPDEST PUSH1 0x0 PUSH2 0x3038 PUSH2 0x3033 PUSH2 0x302E DUP5 PUSH2 0x1FC8 JUMP JUMPDEST PUSH2 0x26E1 JUMP JUMPDEST PUSH2 0x1FC8 JUMP JUMPDEST SWAP1 POP SWAP2 SWAP1 POP JUMP JUMPDEST PUSH1 0x0 DUP2 SWAP1 POP SWAP2 SWAP1 POP JUMP JUMPDEST PUSH2 0x3052 DUP4 PUSH2 0x301D JUMP JUMPDEST PUSH2 0x3066 PUSH2 0x305E DUP3 PUSH2 0x303F JUMP JUMPDEST DUP5 DUP5 SLOAD PUSH2 0x2FCB JUMP JUMPDEST DUP3 SSTORE POP POP POP POP JUMP JUMPDEST PUSH1 0x0 SWAP1 JUMP JUMPDEST PUSH2 0x307B PUSH2 0x306E JUMP JUMPDEST PUSH2 0x3086 DUP2 DUP5 DUP5 PUSH2 0x3049 JUMP JUMPDEST POP POP POP JUMP JUMPDEST JUMPDEST DUP2 DUP2 LT ISZERO PUSH2 0x30AA JUMPI PUSH2 0x309F PUSH1 0x0 DUP3 PUSH2 0x3073 JUMP JUMPDEST PUSH1 0x1 DUP2 ADD SWAP1 POP PUSH2 0x308C JUMP JUMPDEST POP POP JUMP JUMPDEST PUSH1 0x1F DUP3 GT ISZERO PUSH2 0x30EF JUMPI PUSH2 0x30C0 DUP2 PUSH2 0x2F99 JUMP JUMPDEST PUSH2 0x30C9 DUP5 PUSH2 0x2FAE JUMP JUMPDEST DUP2 ADD PUSH1 0x20 DUP6 LT ISZERO PUSH2 0x30D8 JUMPI DUP2 SWAP1 POP JUMPDEST PUSH2 0x30EC PUSH2 0x30E4 DUP6 PUSH2 0x2FAE JUMP JUMPDEST DUP4 ADD DUP3 PUSH2 0x308B JUMP JUMPDEST POP POP JUMPDEST POP POP POP JUMP JUMPDEST PUSH1 0x0 DUP3 DUP3 SHR SWAP1 POP SWAP3 SWAP2 POP POP JUMP JUMPDEST PUSH1 0x0 PUSH2 0x3112 PUSH1 0x0 NOT DUP5 PUSH1 0x8 MUL PUSH2 0x30F4 JUMP JUMPDEST NOT DUP1 DUP4 AND SWAP2 POP POP SWAP3 SWAP2 POP POP JUMP JUMPDEST PUSH1 0x0 PUSH2 0x312B DUP4 DUP4 PUSH2 0x3101 JUMP JUMPDEST SWAP2 POP DUP3 PUSH1 0x2 MUL DUP3 OR SWAP1 POP SWAP3 SWAP2 POP POP JUMP JUMPDEST PUSH2 0x3144 DUP3 PUSH2 0x1FFC JUMP JUMPDEST PUSH8 0xFFFFFFFFFFFFFFFF DUP2 GT ISZERO PUSH2 0x315D JUMPI PUSH2 0x315C PUSH2 0x23E4 JUMP JUMPDEST JUMPDEST PUSH2 0x3167 DUP3 SLOAD PUSH2 0x278A JUMP JUMPDEST PUSH2 0x3172 DUP3 DUP3 DUP6 PUSH2 0x30AE JUMP JUMPDEST PUSH1 0x0 PUSH1 0x20 SWAP1 POP PUSH1 0x1F DUP4 GT PUSH1 0x1 DUP2 EQ PUSH2 0x31A5 JUMPI PUSH1 0x0 DUP5 ISZERO PUSH2 0x3193 JUMPI DUP3 DUP8 ADD MLOAD SWAP1 POP JUMPDEST PUSH2 0x319D DUP6 DUP3 PUSH2 0x311F JUMP JUMPDEST DUP7 SSTORE POP PUSH2 0x3205 JUMP JUMPDEST PUSH1 0x1F NOT DUP5 AND PUSH2 0x31B3 DUP7 PUSH2 0x2F99 JUMP JUMPDEST PUSH1 0x0 JUMPDEST DUP3 DUP2 LT ISZERO PUSH2 0x31DB JUMPI DUP5 DUP10 ADD MLOAD DUP3 SSTORE PUSH1 0x1 DUP3 ADD SWAP2 POP PUSH1 0x20 DUP6 ADD SWAP5 POP PUSH1 0x20 DUP2 ADD SWAP1 POP PUSH2 0x31B6 JUMP JUMPDEST DUP7 DUP4 LT ISZERO PUSH2 0x31F8 JUMPI DUP5 DUP10 ADD MLOAD PUSH2 0x31F4 PUSH1 0x1F DUP10 AND DUP3 PUSH2 0x3101 JUMP JUMPDEST DUP4 SSTORE POP JUMPDEST PUSH1 0x1 PUSH1 0x2 DUP9 MUL ADD DUP9 SSTORE POP POP POP JUMPDEST POP POP POP POP POP POP JUMP JUMPDEST PUSH32 0x4E487B7100000000000000000000000000000000000000000000000000000000 PUSH1 0x0 MSTORE PUSH1 0x32 PUSH1 0x4 MSTORE PUSH1 0x24 PUSH1 0x0 REVERT JUMPDEST PUSH32 0x746F74616C2070657263656E74207072697A65206973206E6F742076616C6964 PUSH1 0x0 DUP3 ADD MSTORE POP JUMP JUMPDEST PUSH1 0x0 PUSH2 0x3272 PUSH1 0x20 DUP4 PUSH2 0x2007 JUMP JUMPDEST SWAP2 POP PUSH2 0x327D DUP3 PUSH2 0x323C JUMP JUMPDEST PUSH1 0x20 DUP3 ADD SWAP1 POP SWAP2 SWAP1 POP JUMP JUMPDEST PUSH1 0x0 PUSH1 0x20 DUP3 ADD SWAP1 POP DUP2 DUP2 SUB PUSH1 0x0 DUP4 ADD MSTORE PUSH2 0x32A1 DUP2 PUSH2 0x3265 JUMP JUMPDEST SWAP1 POP SWAP2 SWAP1 POP JUMP JUMPDEST PUSH1 0x0 DUP2 MLOAD SWAP1 POP SWAP2 SWAP1 POP JUMP JUMPDEST PUSH1 0x0 DUP3 DUP3 MSTORE PUSH1 0x20 DUP3 ADD SWAP1 POP SWAP3 SWAP2 POP POP JUMP JUMPDEST PUSH1 0x0 DUP2 SWAP1 POP PUSH1 0x20 DUP3 ADD SWAP1 POP SWAP2 SWAP1 POP JUMP JUMPDEST PUSH2 0x32DD DUP2 PUSH2 0x1FC8 JUMP JUMPDEST DUP3 MSTORE POP POP JUMP JUMPDEST PUSH1 0x0 PUSH2 0x32EF DUP4 DUP4 PUSH2 0x32D4 JUMP JUMPDEST PUSH1 0x20 DUP4 ADD SWAP1 POP SWAP3 SWAP2 POP POP JUMP JUMPDEST PUSH1 0x0 PUSH1 0x20 DUP3 ADD SWAP1 POP SWAP2 SWAP1 POP JUMP JUMPDEST PUSH1 0x0 PUSH2 0x3313 DUP3 PUSH2 0x32A8 JUMP JUMPDEST PUSH2 0x331D DUP2 DUP6 PUSH2 0x32B3 JUMP JUMPDEST SWAP4 POP PUSH2 0x3328 DUP4 PUSH2 0x32C4 JUMP JUMPDEST DUP1 PUSH1 0x0 JUMPDEST DUP4 DUP2 LT ISZERO PUSH2 0x3359 JUMPI DUP2 MLOAD PUSH2 0x3340 DUP9 DUP3 PUSH2 0x32E3 JUMP JUMPDEST SWAP8 POP PUSH2 0x334B DUP4 PUSH2 0x32FB JUMP JUMPDEST SWAP3 POP POP PUSH1 0x1 DUP2 ADD SWAP1 POP PUSH2 0x332C JUMP JUMPDEST POP DUP6 SWAP4 POP POP POP POP SWAP3 SWAP2 POP POP JUMP JUMPDEST PUSH32 0x4D6567615F4A61636B706F745F56310000000000000000000000000000000000 PUSH1 0x0 DUP3 ADD MSTORE POP JUMP JUMPDEST PUSH1 0x0 PUSH2 0x339C PUSH1 0xF DUP4 PUSH2 0x2007 JUMP JUMPDEST SWAP2 POP PUSH2 0x33A7 DUP3 PUSH2 0x3366 JUMP JUMPDEST PUSH1 0x20 DUP3 ADD SWAP1 POP SWAP2 SWAP1 POP JUMP JUMPDEST PUSH1 0x0 PUSH2 0x140 DUP3 ADD SWAP1 POP DUP2 DUP2 SUB PUSH1 0x0 DUP4 ADD MSTORE PUSH2 0x33CD DUP2 DUP13 PUSH2 0x2053 JUMP JUMPDEST SWAP1 POP PUSH2 0x33DC PUSH1 0x20 DUP4 ADD DUP12 PUSH2 0x1FD2 JUMP JUMPDEST PUSH2 0x33E9 PUSH1 0x40 DUP4 ADD DUP11 PUSH2 0x1FD2 JUMP JUMPDEST PUSH2 0x33F6 PUSH1 0x60 DUP4 ADD DUP10 PUSH2 0x1FD2 JUMP JUMPDEST PUSH2 0x3403 PUSH1 0x80 DUP4 ADD DUP9 PUSH2 0x1FD2 JUMP JUMPDEST PUSH2 0x3410 PUSH1 0xA0 DUP4 ADD DUP8 PUSH2 0x1FD2 JUMP JUMPDEST DUP2 DUP2 SUB PUSH1 0xC0 DUP4 ADD MSTORE PUSH2 0x3422 DUP2 DUP7 PUSH2 0x3308 JUMP JUMPDEST SWAP1 POP DUP2 DUP2 SUB PUSH1 0xE0 DUP4 ADD MSTORE PUSH2 0x3436 DUP2 DUP6 PUSH2 0x3308 JUMP JUMPDEST SWAP1 POP PUSH2 0x3446 PUSH2 0x100 DUP4 ADD DUP5 PUSH2 0x1FD2 JUMP JUMPDEST DUP2 DUP2 SUB PUSH2 0x120 DUP4 ADD MSTORE PUSH2 0x3458 DUP2 PUSH2 0x338F JUMP JUMPDEST SWAP1 POP SWAP11 SWAP10 POP POP POP POP POP POP POP POP POP POP JUMP JUMPDEST PUSH32 0x6E6F7420736574206F776E657257616C6C657400000000000000000000000000 PUSH1 0x0 DUP3 ADD MSTORE POP JUMP JUMPDEST PUSH1 0x0 PUSH2 0x349E PUSH1 0x13 DUP4 PUSH2 0x2007 JUMP JUMPDEST SWAP2 POP PUSH2 0x34A9 DUP3 PUSH2 0x3468 JUMP JUMPDEST PUSH1 0x20 DUP3 ADD SWAP1 POP SWAP2 SWAP1 POP JUMP JUMPDEST PUSH1 0x0 PUSH1 0x20 DUP3 ADD SWAP1 POP DUP2 DUP2 SUB PUSH1 0x0 DUP4 ADD MSTORE PUSH2 0x34CD DUP2 PUSH2 0x3491 JUMP JUMPDEST SWAP1 POP SWAP2 SWAP1 POP JUMP JUMPDEST PUSH32 0x4F776E61626C653A206E6577206F776E657220697320746865207A65726F2061 PUSH1 0x0 DUP3 ADD MSTORE PUSH32 0x6464726573730000000000000000000000000000000000000000000000000000 PUSH1 0x20 DUP3 ADD MSTORE POP JUMP JUMPDEST PUSH1 0x0 PUSH2 0x3530 PUSH1 0x26 DUP4 PUSH2 0x2007 JUMP JUMPDEST SWAP2 POP PUSH2 0x353B DUP3 PUSH2 0x34D4 JUMP JUMPDEST PUSH1 0x40 DUP3 ADD SWAP1 POP SWAP2 SWAP1 POP JUMP JUMPDEST PUSH1 0x0 PUSH1 0x20 DUP3 ADD SWAP1 POP DUP2 DUP2 SUB PUSH1 0x0 DUP4 ADD MSTORE PUSH2 0x355F DUP2 PUSH2 0x3523 JUMP JUMPDEST SWAP1 POP SWAP2 SWAP1 POP JUMP JUMPDEST PUSH1 0x0 PUSH2 0x3571 DUP3 PUSH2 0x1FC8 JUMP JUMPDEST SWAP2 POP PUSH2 0x357C DUP4 PUSH2 0x1FC8 JUMP JUMPDEST SWAP3 POP DUP3 PUSH2 0x358C JUMPI PUSH2 0x358B PUSH2 0x2B74 JUMP JUMPDEST JUMPDEST DUP3 DUP3 MOD SWAP1 POP SWAP3 SWAP2 POP POP JUMP JUMPDEST PUSH1 0x0 DUP2 SWAP1 POP SWAP2 SWAP1 POP JUMP JUMPDEST PUSH2 0x35B2 PUSH2 0x35AD DUP3 PUSH2 0x1FC8 JUMP JUMPDEST PUSH2 0x3597 JUMP JUMPDEST DUP3 MSTORE POP POP JUMP JUMPDEST PUSH1 0x0 DUP2 PUSH1 0x60 SHL SWAP1 POP SWAP2 SWAP1 POP JUMP JUMPDEST PUSH1 0x0 PUSH2 0x35D0 DUP3 PUSH2 0x35B8 JUMP JUMPDEST SWAP1 POP SWAP2 SWAP1 POP JUMP JUMPDEST PUSH1 0x0 PUSH2 0x35E2 DUP3 PUSH2 0x35C5 JUMP JUMPDEST SWAP1 POP SWAP2 SWAP1 POP JUMP JUMPDEST PUSH2 0x35FA PUSH2 0x35F5 DUP3 PUSH2 0x20E2 JUMP JUMPDEST PUSH2 0x35D7 JUMP JUMPDEST DUP3 MSTORE POP POP JUMP JUMPDEST PUSH1 0x0 PUSH2 0x360C DUP3 DUP9 PUSH2 0x35A1 JUMP JUMPDEST PUSH1 0x20 DUP3 ADD SWAP2 POP PUSH2 0x361C DUP3 DUP8 PUSH2 0x35A1 JUMP JUMPDEST PUSH1 0x20 DUP3 ADD SWAP2 POP PUSH2 0x362C DUP3 DUP7 PUSH2 0x35A1 JUMP JUMPDEST PUSH1 0x20 DUP3 ADD SWAP2 POP PUSH2 0x363C DUP3 DUP6 PUSH2 0x35A1 JUMP JUMPDEST PUSH1 0x20 DUP3 ADD SWAP2 POP PUSH2 0x364C DUP3 DUP5 PUSH2 0x35E9 JUMP JUMPDEST PUSH1 0x14 DUP3 ADD SWAP2 POP DUP2 SWAP1 POP SWAP7 SWAP6 POP POP POP POP POP POP JUMP INVALID LOG2 PUSH5 0x6970667358 0x22 SLT KECCAK256 0xB6 RETURNDATACOPY TIMESTAMP 0x21 0xDA 0xB2 0xF6 DUP11 EXTCODEHASH 0xEF ORIGIN 0xAC 0xC6 PUSH3 0x19D5CD 0xD7 PUSH28 0x669F5FE2A31960B21826FD71A164736F6C6343000812003300000000 "
				},
				"gasEstimates": {
					"creation": {
						"codeDepositCost": "2794600",
						"executionCost": "infinite",
						"totalCost": "infinite"
					},
					"external": {
						"PERCENTS_DIVIDER()": "353",
						"SPIN_PERCENTS_DIVIDER()": "374",
						"createGame(string,uint256,uint256,uint256,uint256,uint256,uint256[],uint256[])": "infinite",
						"gameInfo(uint256)": "infinite",
						"indexGame()": "2495",
						"name()": "infinite",
						"nonce()": "2473",
						"order(uint256,uint256,address,address,address,uint256,uint256,uint256,address)": "infinite",
						"orderDetail(uint256,uint256)": "infinite",
						"orders(uint256)": "infinite",
						"owner()": "2545",
						"prize(uint256,uint256)": "infinite",
						"projectOwnerWallet()": "2537",
						"renounceOwnership()": "30463",
						"setProjectOwnerWallet(address)": "26915",
						"setToken(address)": "26961",
						"token()": "infinite",
						"transferOwnership(address)": "30808"
					},
					"internal": {
						"random(uint256)": "infinite",
						"spin(uint256,uint256,uint256)": "infinite"
					}
				},
				"methodIdentifiers": {
					"PERCENTS_DIVIDER()": "01c234a8",
					"SPIN_PERCENTS_DIVIDER()": "325e8744",
					"createGame(string,uint256,uint256,uint256,uint256,uint256,uint256[],uint256[])": "aab0a510",
					"gameInfo(uint256)": "a6f81668",
					"indexGame()": "e7c1bf9f",
					"name()": "06fdde03",
					"nonce()": "affed0e0",
					"order(uint256,uint256,address,address,address,uint256,uint256,uint256,address)": "2240b81a",
					"orderDetail(uint256,uint256)": "75af2dd9",
					"orders(uint256)": "a85c38ef",
					"owner()": "8da5cb5b",
					"prize(uint256,uint256)": "7036992a",
					"projectOwnerWallet()": "2f8dc9a0",
					"renounceOwnership()": "715018a6",
					"setProjectOwnerWallet(address)": "ab346b0a",
					"setToken(address)": "144fa6d7",
					"token()": "fc0c546a",
					"transferOwnership(address)": "f2fde38b"
				}
			},
			"storageLayout": {
				"storage": [
					{
						"astId": 1544,
						"contract": "MegaJackpot.sol:MegaJackpot",
						"label": "_status",
						"offset": 0,
						"slot": "0",
						"type": "t_uint256"
					},
					{
						"astId": 1437,
						"contract": "MegaJackpot.sol:MegaJackpot",
						"label": "_owner",
						"offset": 0,
						"slot": "1",
						"type": "t_address"
					},
					{
						"astId": 496,
						"contract": "MegaJackpot.sol:MegaJackpot",
						"label": "_name",
						"offset": 0,
						"slot": "2",
						"type": "t_string_storage"
					},
					{
						"astId": 505,
						"contract": "MegaJackpot.sol:MegaJackpot",
						"label": "token",
						"offset": 0,
						"slot": "3",
						"type": "t_contract(IERC20)396"
					},
					{
						"astId": 508,
						"contract": "MegaJackpot.sol:MegaJackpot",
						"label": "indexGame",
						"offset": 0,
						"slot": "4",
						"type": "t_uint256"
					},
					{
						"astId": 511,
						"contract": "MegaJackpot.sol:MegaJackpot",
						"label": "nonce",
						"offset": 0,
						"slot": "5",
						"type": "t_uint256"
					},
					{
						"astId": 513,
						"contract": "MegaJackpot.sol:MegaJackpot",
						"label": "projectOwnerWallet",
						"offset": 0,
						"slot": "6",
						"type": "t_address"
					},
					{
						"astId": 547,
						"contract": "MegaJackpot.sol:MegaJackpot",
						"label": "gameInfo",
						"offset": 0,
						"slot": "7",
						"type": "t_mapping(t_uint256,t_struct(Game)542_storage)"
					},
					{
						"astId": 554,
						"contract": "MegaJackpot.sol:MegaJackpot",
						"label": "prize",
						"offset": 0,
						"slot": "8",
						"type": "t_mapping(t_uint256,t_mapping(t_uint256,t_struct(Prize)518_storage))"
					},
					{
						"astId": 559,
						"contract": "MegaJackpot.sol:MegaJackpot",
						"label": "orders",
						"offset": 0,
						"slot": "9",
						"type": "t_mapping(t_uint256,t_struct(RewardSpin)525_storage)"
					},
					{
						"astId": 565,
						"contract": "MegaJackpot.sol:MegaJackpot",
						"label": "orderDetail",
						"offset": 0,
						"slot": "10",
						"type": "t_mapping(t_uint256,t_mapping(t_uint256,t_uint256))"
					}
				],
				"types": {
					"t_address": {
						"encoding": "inplace",
						"label": "address",
						"numberOfBytes": "20"
					},
					"t_bool": {
						"encoding": "inplace",
						"label": "bool",
						"numberOfBytes": "1"
					},
					"t_contract(IERC20)396": {
						"encoding": "inplace",
						"label": "contract IERC20",
						"numberOfBytes": "20"
					},
					"t_mapping(t_uint256,t_mapping(t_uint256,t_struct(Prize)518_storage))": {
						"encoding": "mapping",
						"key": "t_uint256",
						"label": "mapping(uint256 => mapping(uint256 => struct MegaJackpot.Prize))",
						"numberOfBytes": "32",
						"value": "t_mapping(t_uint256,t_struct(Prize)518_storage)"
					},
					"t_mapping(t_uint256,t_mapping(t_uint256,t_uint256))": {
						"encoding": "mapping",
						"key": "t_uint256",
						"label": "mapping(uint256 => mapping(uint256 => uint256))",
						"numberOfBytes": "32",
						"value": "t_mapping(t_uint256,t_uint256)"
					},
					"t_mapping(t_uint256,t_struct(Game)542_storage)": {
						"encoding": "mapping",
						"key": "t_uint256",
						"label": "mapping(uint256 => struct MegaJackpot.Game)",
						"numberOfBytes": "32",
						"value": "t_struct(Game)542_storage"
					},
					"t_mapping(t_uint256,t_struct(Prize)518_storage)": {
						"encoding": "mapping",
						"key": "t_uint256",
						"label": "mapping(uint256 => struct MegaJackpot.Prize)",
						"numberOfBytes": "32",
						"value": "t_struct(Prize)518_storage"
					},
					"t_mapping(t_uint256,t_struct(RewardSpin)525_storage)": {
						"encoding": "mapping",
						"key": "t_uint256",
						"label": "mapping(uint256 => struct MegaJackpot.RewardSpin)",
						"numberOfBytes": "32",
						"value": "t_struct(RewardSpin)525_storage"
					},
					"t_mapping(t_uint256,t_uint256)": {
						"encoding": "mapping",
						"key": "t_uint256",
						"label": "mapping(uint256 => uint256)",
						"numberOfBytes": "32",
						"value": "t_uint256"
					},
					"t_string_storage": {
						"encoding": "bytes",
						"label": "string",
						"numberOfBytes": "32"
					},
					"t_struct(Game)542_storage": {
						"encoding": "inplace",
						"label": "struct MegaJackpot.Game",
						"members": [
							{
								"astId": 527,
								"contract": "MegaJackpot.sol:MegaJackpot",
								"label": "price",
								"offset": 0,
								"slot": "0",
								"type": "t_uint256"
							},
							{
								"astId": 529,
								"contract": "MegaJackpot.sol:MegaJackpot",
								"label": "startPrize",
								"offset": 0,
								"slot": "1",
								"type": "t_uint256"
							},
							{
								"astId": 531,
								"contract": "MegaJackpot.sol:MegaJackpot",
								"label": "title",
								"offset": 0,
								"slot": "2",
								"type": "t_string_storage"
							},
							{
								"astId": 533,
								"contract": "MegaJackpot.sol:MegaJackpot",
								"label": "ownerPercent",
								"offset": 0,
								"slot": "3",
								"type": "t_uint256"
							},
							{
								"astId": 535,
								"contract": "MegaJackpot.sol:MegaJackpot",
								"label": "affiliatePercent",
								"offset": 0,
								"slot": "4",
								"type": "t_uint256"
							},
							{
								"astId": 537,
								"contract": "MegaJackpot.sol:MegaJackpot",
								"label": "term",
								"offset": 0,
								"slot": "5",
								"type": "t_uint256"
							},
							{
								"astId": 539,
								"contract": "MegaJackpot.sol:MegaJackpot",
								"label": "totalReward",
								"offset": 0,
								"slot": "6",
								"type": "t_uint256"
							},
							{
								"astId": 541,
								"contract": "MegaJackpot.sol:MegaJackpot",
								"label": "totalSpin",
								"offset": 0,
								"slot": "7",
								"type": "t_uint256"
							}
						],
						"numberOfBytes": "256"
					},
					"t_struct(Prize)518_storage": {
						"encoding": "inplace",
						"label": "struct MegaJackpot.Prize",
						"members": [
							{
								"astId": 515,
								"contract": "MegaJackpot.sol:MegaJackpot",
								"label": "value",
								"offset": 0,
								"slot": "0",
								"type": "t_uint256"
							},
							{
								"astId": 517,
								"contract": "MegaJackpot.sol:MegaJackpot",
								"label": "percent",
								"offset": 0,
								"slot": "1",
								"type": "t_uint256"
							}
						],
						"numberOfBytes": "64"
					},
					"t_struct(RewardSpin)525_storage": {
						"encoding": "inplace",
						"label": "struct MegaJackpot.RewardSpin",
						"members": [
							{
								"astId": 520,
								"contract": "MegaJackpot.sol:MegaJackpot",
								"label": "jackpot",
								"offset": 0,
								"slot": "0",
								"type": "t_bool"
							},
							{
								"astId": 522,
								"contract": "MegaJackpot.sol:MegaJackpot",
								"label": "qty",
								"offset": 0,
								"slot": "1",
								"type": "t_uint256"
							},
							{
								"astId": 524,
								"contract": "MegaJackpot.sol:MegaJackpot",
								"label": "tokenId",
								"offset": 0,
								"slot": "2",
								"type": "t_uint256"
							}
						],
						"numberOfBytes": "96"
					},
					"t_uint256": {
						"encoding": "inplace",
						"label": "uint256",
						"numberOfBytes": "32"
					}
				}
			},
			"userdoc": {
				"kind": "user",
				"methods": {},
				"version": 1
			}
		}
	}
}