{
	"MegaFactory.sol": {
		"MegaFactoryV1": {
			"abi": [
				{
					"inputs": [
						{
							"internalType": "address",
							"name": "contractNFT",
							"type": "address"
						},
						{
							"internalType": "address",
							"name": "game",
							"type": "address"
						}
					],
					"stateMutability": "nonpayable",
					"type": "constructor"
				},
				{
					"anonymous": false,
					"inputs": [
						{
							"indexed": false,
							"internalType": "address",
							"name": "contractGameNew",
							"type": "address"
						},
						{
							"indexed": false,
							"internalType": "address",
							"name": "projectOwner",
							"type": "address"
						},
						{
							"indexed": false,
							"internalType": "address",
							"name": "contractGameOrigin",
							"type": "address"
						},
						{
							"indexed": false,
							"internalType": "address",
							"name": "contractToken",
							"type": "address"
						},
						{
							"indexed": false,
							"internalType": "uint256",
							"name": "deployedFee",
							"type": "uint256"
						},
						{
							"indexed": false,
							"internalType": "uint256",
							"name": "affFee",
							"type": "uint256"
						},
						{
							"indexed": false,
							"internalType": "uint256",
							"name": "devFee",
							"type": "uint256"
						},
						{
							"indexed": false,
							"internalType": "uint256",
							"name": "mktFee",
							"type": "uint256"
						}
					],
					"name": "DeployedGame",
					"type": "event"
				},
				{
					"anonymous": false,
					"inputs": [
						{
							"indexed": false,
							"internalType": "address",
							"name": "contractGame",
							"type": "address"
						},
						{
							"indexed": false,
							"internalType": "uint256",
							"name": "idGame",
							"type": "uint256"
						},
						{
							"indexed": false,
							"internalType": "uint256",
							"name": "tokenId",
							"type": "uint256"
						},
						{
							"indexed": false,
							"internalType": "uint256",
							"name": "qty",
							"type": "uint256"
						}
					],
					"name": "Order",
					"type": "event"
				},
				{
					"anonymous": false,
					"inputs": [
						{
							"indexed": true,
							"internalType": "address",
							"name": "previousOwner",
							"type": "address"
						},
						{
							"indexed": true,
							"internalType": "address",
							"name": "newOwner",
							"type": "address"
						}
					],
					"name": "OwnershipTransferred",
					"type": "event"
				},
				{
					"inputs": [],
					"name": "MegaItemsNFT",
					"outputs": [
						{
							"internalType": "contract MegaItemsCore",
							"name": "",
							"type": "address"
						}
					],
					"stateMutability": "view",
					"type": "function"
				},
				{
					"inputs": [],
					"name": "PERCENTS_DIVIDER",
					"outputs": [
						{
							"internalType": "uint256",
							"name": "",
							"type": "uint256"
						}
					],
					"stateMutability": "view",
					"type": "function"
				},
				{
					"inputs": [
						{
							"internalType": "address",
							"name": "coinAddress",
							"type": "address"
						},
						{
							"internalType": "uint256",
							"name": "value",
							"type": "uint256"
						},
						{
							"internalType": "address payable",
							"name": "to",
							"type": "address"
						}
					],
					"name": "SwapExactToken",
					"outputs": [],
					"stateMutability": "nonpayable",
					"type": "function"
				},
				{
					"inputs": [],
					"name": "affPercent",
					"outputs": [
						{
							"internalType": "uint256",
							"name": "",
							"type": "uint256"
						}
					],
					"stateMutability": "view",
					"type": "function"
				},
				{
					"inputs": [],
					"name": "deployedFee",
					"outputs": [
						{
							"internalType": "uint256",
							"name": "",
							"type": "uint256"
						}
					],
					"stateMutability": "view",
					"type": "function"
				},
				{
					"inputs": [
						{
							"internalType": "address",
							"name": "game",
							"type": "address"
						},
						{
							"internalType": "address",
							"name": "token",
							"type": "address"
						}
					],
					"name": "deployedGame",
					"outputs": [],
					"stateMutability": "payable",
					"type": "function"
				},
				{
					"inputs": [],
					"name": "devPercent",
					"outputs": [
						{
							"internalType": "uint256",
							"name": "",
							"type": "uint256"
						}
					],
					"stateMutability": "view",
					"type": "function"
				},
				{
					"inputs": [],
					"name": "devWallet",
					"outputs": [
						{
							"internalType": "address payable",
							"name": "",
							"type": "address"
						}
					],
					"stateMutability": "view",
					"type": "function"
				},
				{
					"inputs": [
						{
							"internalType": "address",
							"name": "",
							"type": "address"
						}
					],
					"name": "listGame",
					"outputs": [
						{
							"internalType": "bool",
							"name": "",
							"type": "bool"
						}
					],
					"stateMutability": "view",
					"type": "function"
				},
				{
					"inputs": [],
					"name": "mktWallet",
					"outputs": [
						{
							"internalType": "address payable",
							"name": "",
							"type": "address"
						}
					],
					"stateMutability": "view",
					"type": "function"
				},
				{
					"inputs": [],
					"name": "name",
					"outputs": [
						{
							"internalType": "string",
							"name": "",
							"type": "string"
						}
					],
					"stateMutability": "view",
					"type": "function"
				},
				{
					"inputs": [
						{
							"internalType": "address",
							"name": "contractGame",
							"type": "address"
						},
						{
							"internalType": "uint256",
							"name": "idGame",
							"type": "uint256"
						},
						{
							"internalType": "uint256",
							"name": "qty",
							"type": "uint256"
						},
						{
							"internalType": "address",
							"name": "sponsorAddress",
							"type": "address"
						}
					],
					"name": "order",
					"outputs": [],
					"stateMutability": "nonpayable",
					"type": "function"
				},
				{
					"inputs": [],
					"name": "owner",
					"outputs": [
						{
							"internalType": "address",
							"name": "",
							"type": "address"
						}
					],
					"stateMutability": "view",
					"type": "function"
				},
				{
					"inputs": [],
					"name": "renounceOwnership",
					"outputs": [],
					"stateMutability": "nonpayable",
					"type": "function"
				},
				{
					"inputs": [
						{
							"internalType": "uint256",
							"name": "fee",
							"type": "uint256"
						}
					],
					"name": "setAffPercent",
					"outputs": [],
					"stateMutability": "nonpayable",
					"type": "function"
				},
				{
					"inputs": [
						{
							"internalType": "uint256",
							"name": "fee",
							"type": "uint256"
						}
					],
					"name": "setDeployFee",
					"outputs": [],
					"stateMutability": "nonpayable",
					"type": "function"
				},
				{
					"inputs": [
						{
							"internalType": "uint256",
							"name": "fee",
							"type": "uint256"
						}
					],
					"name": "setDevPercent",
					"outputs": [],
					"stateMutability": "nonpayable",
					"type": "function"
				},
				{
					"inputs": [
						{
							"internalType": "address",
							"name": "_wallet",
							"type": "address"
						}
					],
					"name": "setDevWallet",
					"outputs": [],
					"stateMutability": "nonpayable",
					"type": "function"
				},
				{
					"inputs": [
						{
							"internalType": "address",
							"name": "game",
							"type": "address"
						},
						{
							"internalType": "bool",
							"name": "active",
							"type": "bool"
						}
					],
					"name": "setListGame",
					"outputs": [],
					"stateMutability": "nonpayable",
					"type": "function"
				},
				{
					"inputs": [
						{
							"internalType": "address",
							"name": "_wallet",
							"type": "address"
						}
					],
					"name": "setMktWallet",
					"outputs": [],
					"stateMutability": "nonpayable",
					"type": "function"
				},
				{
					"inputs": [
						{
							"internalType": "address",
							"name": "nft",
							"type": "address"
						}
					],
					"name": "setNFTContract",
					"outputs": [],
					"stateMutability": "nonpayable",
					"type": "function"
				},
				{
					"inputs": [
						{
							"internalType": "uint256",
							"name": "fee",
							"type": "uint256"
						}
					],
					"name": "setSytemFeePercent",
					"outputs": [],
					"stateMutability": "nonpayable",
					"type": "function"
				},
				{
					"inputs": [
						{
							"internalType": "address",
							"name": "_wallet",
							"type": "address"
						}
					],
					"name": "setTopAddress",
					"outputs": [],
					"stateMutability": "nonpayable",
					"type": "function"
				},
				{
					"inputs": [],
					"name": "sytemFee",
					"outputs": [
						{
							"internalType": "uint256",
							"name": "",
							"type": "uint256"
						}
					],
					"stateMutability": "view",
					"type": "function"
				},
				{
					"inputs": [],
					"name": "topAddress",
					"outputs": [
						{
							"internalType": "address payable",
							"name": "",
							"type": "address"
						}
					],
					"stateMutability": "view",
					"type": "function"
				},
				{
					"inputs": [
						{
							"internalType": "address",
							"name": "newOwner",
							"type": "address"
						}
					],
					"name": "transferOwnership",
					"outputs": [],
					"stateMutability": "nonpayable",
					"type": "function"
				},
				{
					"stateMutability": "payable",
					"type": "receive"
				}
			],
			"devdoc": {
				"kind": "dev",
				"methods": {
					"owner()": {
						"details": "Returns the address of the current owner."
					},
					"renounceOwnership()": {
						"details": "Leaves the contract without owner. It will not be possible to call `onlyOwner` functions anymore. Can only be called by the current owner. NOTE: Renouncing ownership will leave the contract without an owner, thereby removing any functionality that is only available to the owner."
					},
					"transferOwnership(address)": {
						"details": "Transfers ownership of the contract to a new account (`newOwner`). Can only be called by the current owner."
					}
				},
				"version": 1
			},
			"evm": {
				"assembly": "    /* \"MegaFactory.sol\":313:4470  contract MegaFactoryV1 is CloneFactory, ReentrancyGuard, Ownable {... */\n  mstore(0x40, 0x80)\n    /* \"MegaFactory.sol\":795:835  string private _name = \"Mega Factory V1\" */\n  mload(0x40)\n  dup1\n  0x40\n  add\n  0x40\n  mstore\n  dup1\n  0x0f\n  dup2\n  mstore\n  0x20\n  add\n  0x4d65676120466163746f72792056310000000000000000000000000000000000\n  dup2\n  mstore\n  pop\n  0x02\n  swap1\n  dup2\n  tag_1\n  swap2\n  swap1\n  tag_2\n  jump\t// in\ntag_1:\n  pop\n    /* \"MegaFactory.sol\":976:1018  0x8b9588F69e04D69655e0d866cD701844177360A7 */\n  0x8b9588f69e04d69655e0d866cd701844177360a7\n    /* \"MegaFactory.sol\":933:1019  address payable public devWallet = payable(0x8b9588F69e04D69655e0d866cD701844177360A7) */\n  0x04\n  exp(0x0100, 0x00)\n  dup2\n  sload\n  dup2\n  0xffffffffffffffffffffffffffffffffffffffff\n  mul\n  not\n  and\n  swap1\n  dup4\n  0xffffffffffffffffffffffffffffffffffffffff\n  and\n  mul\n  or\n  swap1\n  sstore\n  pop\n    /* \"MegaFactory.sol\":1068:1110  0x8b9588F69e04D69655e0d866cD701844177360A7 */\n  0x8b9588f69e04d69655e0d866cd701844177360a7\n    /* \"MegaFactory.sol\":1025:1111  address payable public mktWallet = payable(0x8b9588F69e04D69655e0d866cD701844177360A7) */\n  0x05\n  exp(0x0100, 0x00)\n  dup2\n  sload\n  dup2\n  0xffffffffffffffffffffffffffffffffffffffff\n  mul\n  not\n  and\n  swap1\n  dup4\n  0xffffffffffffffffffffffffffffffffffffffff\n  and\n  mul\n  or\n  swap1\n  sstore\n  pop\n    /* \"MegaFactory.sol\":1161:1203  0x8b9588F69e04D69655e0d866cD701844177360A7 */\n  0x8b9588f69e04d69655e0d866cd701844177360a7\n    /* \"MegaFactory.sol\":1117:1204  address payable public topAddress = payable(0x8b9588F69e04D69655e0d866cD701844177360A7) */\n  0x06\n  exp(0x0100, 0x00)\n  dup2\n  sload\n  dup2\n  0xffffffffffffffffffffffffffffffffffffffff\n  mul\n  not\n  and\n  swap1\n  dup4\n  0xffffffffffffffffffffffffffffffffffffffff\n  and\n  mul\n  or\n  swap1\n  sstore\n  pop\n    /* \"MegaFactory.sol\":1239:1250  0.002 ether */\n  0x071afd498d0000\n    /* \"MegaFactory.sol\":1210:1250  uint256 public deployedFee = 0.002 ether */\n  0x07\n  sstore\n    /* \"MegaFactory.sol\":1284:1287  100 */\n  0x64\n    /* \"MegaFactory.sol\":1256:1287  uint256 public affPercent = 100 */\n  0x08\n  sstore\n    /* \"MegaFactory.sol\":1321:1324  200 */\n  0xc8\n    /* \"MegaFactory.sol\":1293:1324  uint256 public devPercent = 200 */\n  0x09\n  sstore\n    /* \"MegaFactory.sol\":1356:1358  10 */\n  0x0a\n    /* \"MegaFactory.sol\":1330:1358  uint256 public sytemFee = 10 */\n  dup1\n  sstore\n    /* \"MegaFactory.sol\":1498:1656  constructor(... */\n  callvalue\n  dup1\n  iszero\n  tag_3\n  jumpi\n  0x00\n  dup1\n  revert\ntag_3:\n  pop\n  mload(0x40)\n  sub(codesize, bytecodeSize)\n  dup1\n  bytecodeSize\n  dup4\n  codecopy\n  dup2\n  dup2\n  add\n  0x40\n  mstore\n  dup2\n  add\n  swap1\n  tag_4\n  swap2\n  swap1\n  tag_5\n  jump\t// in\ntag_4:\n    /* \"ReentrancyGuard.sol\":1637:1638  1 */\n  0x01\n    /* \"ReentrancyGuard.sol\":1742:1749  _status */\n  0x00\n    /* \"ReentrancyGuard.sol\":1742:1764  _status = _NOT_ENTERED */\n  dup2\n  swap1\n  sstore\n  pop\n    /* \"Ownable.sol\":860:883  _setOwner(_msgSender()) */\n  tag_11\n    /* \"Ownable.sol\":870:882  _msgSender() */\n  tag_12\n    /* \"Ownable.sol\":870:880  _msgSender */\n  shl(0x20, tag_13)\n    /* \"Ownable.sol\":870:882  _msgSender() */\n  0x20\n  shr\n  jump\t// in\ntag_12:\n    /* \"Ownable.sol\":860:869  _setOwner */\n  shl(0x20, tag_14)\n    /* \"Ownable.sol\":860:883  _setOwner(_msgSender()) */\n  0x20\n  shr\n  jump\t// in\ntag_11:\n    /* \"MegaFactory.sol\":1606:1617  contractNFT */\n  dup2\n    /* \"MegaFactory.sol\":1577:1589  MegaItemsNFT */\n  0x03\n  0x00\n    /* \"MegaFactory.sol\":1577:1618  MegaItemsNFT = MegaItemsCore(contractNFT) */\n  0x0100\n  exp\n  dup2\n  sload\n  dup2\n  0xffffffffffffffffffffffffffffffffffffffff\n  mul\n  not\n  and\n  swap1\n  dup4\n  0xffffffffffffffffffffffffffffffffffffffff\n  and\n  mul\n  or\n  swap1\n  sstore\n  pop\n    /* \"MegaFactory.sol\":1645:1649  true */\n  0x01\n    /* \"MegaFactory.sol\":1628:1636  listGame */\n  0x0b\n    /* \"MegaFactory.sol\":1628:1642  listGame[game] */\n  0x00\n    /* \"MegaFactory.sol\":1637:1641  game */\n  dup4\n    /* \"MegaFactory.sol\":1628:1642  listGame[game] */\n  0xffffffffffffffffffffffffffffffffffffffff\n  and\n  0xffffffffffffffffffffffffffffffffffffffff\n  and\n  dup2\n  mstore\n  0x20\n  add\n  swap1\n  dup2\n  mstore\n  0x20\n  add\n  0x00\n  keccak256\n  0x00\n    /* \"MegaFactory.sol\":1628:1649  listGame[game] = true */\n  0x0100\n  exp\n  dup2\n  sload\n  dup2\n  0xff\n  mul\n  not\n  and\n  swap1\n  dup4\n  iszero\n  iszero\n  mul\n  or\n  swap1\n  sstore\n  pop\n    /* \"MegaFactory.sol\":1498:1656  constructor(... */\n  pop\n  pop\n    /* \"MegaFactory.sol\":313:4470  contract MegaFactoryV1 is CloneFactory, ReentrancyGuard, Ownable {... */\n  jump(tag_16)\n    /* \"Context.sol\":587:683  function _msgSender() internal view virtual returns (address) {... */\ntag_13:\n    /* \"Context.sol\":640:647  address */\n  0x00\n    /* \"Context.sol\":666:676  msg.sender */\n  caller\n    /* \"Context.sol\":659:676  return msg.sender */\n  swap1\n  pop\n    /* \"Context.sol\":587:683  function _msgSender() internal view virtual returns (address) {... */\n  swap1\n  jump\t// out\n    /* \"Ownable.sol\":2034:2203  function _setOwner(address newOwner) private {... */\ntag_14:\n    /* \"Ownable.sol\":2089:2105  address oldOwner */\n  0x00\n    /* \"Ownable.sol\":2108:2114  _owner */\n  0x01\n  0x00\n  swap1\n  sload\n  swap1\n  0x0100\n  exp\n  swap1\n  div\n  0xffffffffffffffffffffffffffffffffffffffff\n  and\n    /* \"Ownable.sol\":2089:2114  address oldOwner = _owner */\n  swap1\n  pop\n    /* \"Ownable.sol\":2133:2141  newOwner */\n  dup2\n    /* \"Ownable.sol\":2124:2130  _owner */\n  0x01\n  0x00\n    /* \"Ownable.sol\":2124:2141  _owner = newOwner */\n  0x0100\n  exp\n  dup2\n  sload\n  dup2\n  0xffffffffffffffffffffffffffffffffffffffff\n  mul\n  not\n  and\n  swap1\n  dup4\n  0xffffffffffffffffffffffffffffffffffffffff\n  and\n  mul\n  or\n  swap1\n  sstore\n  pop\n    /* \"Ownable.sol\":2187:2195  newOwner */\n  dup2\n    /* \"Ownable.sol\":2156:2196  OwnershipTransferred(oldOwner, newOwner) */\n  0xffffffffffffffffffffffffffffffffffffffff\n  and\n    /* \"Ownable.sol\":2177:2185  oldOwner */\n  dup2\n    /* \"Ownable.sol\":2156:2196  OwnershipTransferred(oldOwner, newOwner) */\n  0xffffffffffffffffffffffffffffffffffffffff\n  and\n  0x8be0079c531659141344cd1fd0a4f28419497f9722a3daafe3b4186f6b6457e0\n  mload(0x40)\n  mload(0x40)\n  dup1\n  swap2\n  sub\n  swap1\n  log3\n    /* \"Ownable.sol\":2079:2203  {... */\n  pop\n    /* \"Ownable.sol\":2034:2203  function _setOwner(address newOwner) private {... */\n  pop\n  jump\t// out\n    /* \"#utility.yul\":7:106   */\ntag_19:\n    /* \"#utility.yul\":59:65   */\n  0x00\n    /* \"#utility.yul\":93:98   */\n  dup2\n    /* \"#utility.yul\":87:99   */\n  mload\n    /* \"#utility.yul\":77:99   */\n  swap1\n  pop\n    /* \"#utility.yul\":7:106   */\n  swap2\n  swap1\n  pop\n  jump\t// out\n    /* \"#utility.yul\":112:292   */\ntag_20:\n    /* \"#utility.yul\":160:237   */\n  0x4e487b7100000000000000000000000000000000000000000000000000000000\n    /* \"#utility.yul\":157:158   */\n  0x00\n    /* \"#utility.yul\":150:238   */\n  mstore\n    /* \"#utility.yul\":257:261   */\n  0x41\n    /* \"#utility.yul\":254:255   */\n  0x04\n    /* \"#utility.yul\":247:262   */\n  mstore\n    /* \"#utility.yul\":281:285   */\n  0x24\n    /* \"#utility.yul\":278:279   */\n  0x00\n    /* \"#utility.yul\":271:286   */\n  revert\n    /* \"#utility.yul\":298:478   */\ntag_21:\n    /* \"#utility.yul\":346:423   */\n  0x4e487b7100000000000000000000000000000000000000000000000000000000\n    /* \"#utility.yul\":343:344   */\n  0x00\n    /* \"#utility.yul\":336:424   */\n  mstore\n    /* \"#utility.yul\":443:447   */\n  0x22\n    /* \"#utility.yul\":440:441   */\n  0x04\n    /* \"#utility.yul\":433:448   */\n  mstore\n    /* \"#utility.yul\":467:471   */\n  0x24\n    /* \"#utility.yul\":464:465   */\n  0x00\n    /* \"#utility.yul\":457:472   */\n  revert\n    /* \"#utility.yul\":484:804   */\ntag_22:\n    /* \"#utility.yul\":528:534   */\n  0x00\n    /* \"#utility.yul\":565:566   */\n  0x02\n    /* \"#utility.yul\":559:563   */\n  dup3\n    /* \"#utility.yul\":555:567   */\n  div\n    /* \"#utility.yul\":545:567   */\n  swap1\n  pop\n    /* \"#utility.yul\":612:613   */\n  0x01\n    /* \"#utility.yul\":606:610   */\n  dup3\n    /* \"#utility.yul\":602:614   */\n  and\n    /* \"#utility.yul\":633:651   */\n  dup1\n    /* \"#utility.yul\":623:704   */\n  tag_51\n  jumpi\n    /* \"#utility.yul\":689:693   */\n  0x7f\n    /* \"#utility.yul\":681:687   */\n  dup3\n    /* \"#utility.yul\":677:694   */\n  and\n    /* \"#utility.yul\":667:694   */\n  swap2\n  pop\n    /* \"#utility.yul\":623:704   */\ntag_51:\n    /* \"#utility.yul\":751:753   */\n  0x20\n    /* \"#utility.yul\":743:749   */\n  dup3\n    /* \"#utility.yul\":740:754   */\n  lt\n    /* \"#utility.yul\":720:738   */\n  dup2\n    /* \"#utility.yul\":717:755   */\n  sub\n    /* \"#utility.yul\":714:798   */\n  tag_52\n  jumpi\n    /* \"#utility.yul\":770:788   */\n  tag_53\n  tag_21\n  jump\t// in\ntag_53:\n    /* \"#utility.yul\":714:798   */\ntag_52:\n    /* \"#utility.yul\":535:804   */\n  pop\n    /* \"#utility.yul\":484:804   */\n  swap2\n  swap1\n  pop\n  jump\t// out\n    /* \"#utility.yul\":810:951   */\ntag_23:\n    /* \"#utility.yul\":859:863   */\n  0x00\n    /* \"#utility.yul\":882:885   */\n  dup2\n    /* \"#utility.yul\":874:885   */\n  swap1\n  pop\n    /* \"#utility.yul\":905:908   */\n  dup2\n    /* \"#utility.yul\":902:903   */\n  0x00\n    /* \"#utility.yul\":895:909   */\n  mstore\n    /* \"#utility.yul\":939:943   */\n  0x20\n    /* \"#utility.yul\":936:937   */\n  0x00\n    /* \"#utility.yul\":926:944   */\n  keccak256\n    /* \"#utility.yul\":918:944   */\n  swap1\n  pop\n    /* \"#utility.yul\":810:951   */\n  swap2\n  swap1\n  pop\n  jump\t// out\n    /* \"#utility.yul\":957:1050   */\ntag_24:\n    /* \"#utility.yul\":994:1000   */\n  0x00\n    /* \"#utility.yul\":1041:1043   */\n  0x20\n    /* \"#utility.yul\":1036:1038   */\n  0x1f\n    /* \"#utility.yul\":1029:1034   */\n  dup4\n    /* \"#utility.yul\":1025:1039   */\n  add\n    /* \"#utility.yul\":1021:1044   */\n  div\n    /* \"#utility.yul\":1011:1044   */\n  swap1\n  pop\n    /* \"#utility.yul\":957:1050   */\n  swap2\n  swap1\n  pop\n  jump\t// out\n    /* \"#utility.yul\":1056:1163   */\ntag_25:\n    /* \"#utility.yul\":1100:1108   */\n  0x00\n    /* \"#utility.yul\":1150:1155   */\n  dup3\n    /* \"#utility.yul\":1144:1148   */\n  dup3\n    /* \"#utility.yul\":1140:1156   */\n  shl\n    /* \"#utility.yul\":1119:1156   */\n  swap1\n  pop\n    /* \"#utility.yul\":1056:1163   */\n  swap3\n  swap2\n  pop\n  pop\n  jump\t// out\n    /* \"#utility.yul\":1169:1562   */\ntag_26:\n    /* \"#utility.yul\":1238:1244   */\n  0x00\n    /* \"#utility.yul\":1288:1289   */\n  0x08\n    /* \"#utility.yul\":1276:1286   */\n  dup4\n    /* \"#utility.yul\":1272:1290   */\n  mul\n    /* \"#utility.yul\":1311:1408   */\n  tag_58\n    /* \"#utility.yul\":1341:1407   */\n  0xffffffffffffffffffffffffffffffffffffffffffffffffffffffffffffffff\n    /* \"#utility.yul\":1330:1339   */\n  dup3\n    /* \"#utility.yul\":1311:1408   */\n  tag_25\n  jump\t// in\ntag_58:\n    /* \"#utility.yul\":1429:1468   */\n  tag_59\n    /* \"#utility.yul\":1459:1467   */\n  dup7\n    /* \"#utility.yul\":1448:1457   */\n  dup4\n    /* \"#utility.yul\":1429:1468   */\n  tag_25\n  jump\t// in\ntag_59:\n    /* \"#utility.yul\":1417:1468   */\n  swap6\n  pop\n    /* \"#utility.yul\":1501:1505   */\n  dup1\n    /* \"#utility.yul\":1497:1506   */\n  not\n    /* \"#utility.yul\":1490:1495   */\n  dup5\n    /* \"#utility.yul\":1486:1507   */\n  and\n    /* \"#utility.yul\":1477:1507   */\n  swap4\n  pop\n    /* \"#utility.yul\":1550:1554   */\n  dup1\n    /* \"#utility.yul\":1540:1548   */\n  dup7\n    /* \"#utility.yul\":1536:1555   */\n  and\n    /* \"#utility.yul\":1529:1534   */\n  dup5\n    /* \"#utility.yul\":1526:1556   */\n  or\n    /* \"#utility.yul\":1516:1556   */\n  swap3\n  pop\n    /* \"#utility.yul\":1245:1562   */\n  pop\n  pop\n    /* \"#utility.yul\":1169:1562   */\n  swap4\n  swap3\n  pop\n  pop\n  pop\n  jump\t// out\n    /* \"#utility.yul\":1568:1645   */\ntag_27:\n    /* \"#utility.yul\":1605:1612   */\n  0x00\n    /* \"#utility.yul\":1634:1639   */\n  dup2\n    /* \"#utility.yul\":1623:1639   */\n  swap1\n  pop\n    /* \"#utility.yul\":1568:1645   */\n  swap2\n  swap1\n  pop\n  jump\t// out\n    /* \"#utility.yul\":1651:1711   */\ntag_28:\n    /* \"#utility.yul\":1679:1682   */\n  0x00\n    /* \"#utility.yul\":1700:1705   */\n  dup2\n    /* \"#utility.yul\":1693:1705   */\n  swap1\n  pop\n    /* \"#utility.yul\":1651:1711   */\n  swap2\n  swap1\n  pop\n  jump\t// out\n    /* \"#utility.yul\":1717:1859   */\ntag_29:\n    /* \"#utility.yul\":1767:1776   */\n  0x00\n    /* \"#utility.yul\":1800:1853   */\n  tag_63\n    /* \"#utility.yul\":1818:1852   */\n  tag_64\n    /* \"#utility.yul\":1827:1851   */\n  tag_65\n    /* \"#utility.yul\":1845:1850   */\n  dup5\n    /* \"#utility.yul\":1827:1851   */\n  tag_27\n  jump\t// in\ntag_65:\n    /* \"#utility.yul\":1818:1852   */\n  tag_28\n  jump\t// in\ntag_64:\n    /* \"#utility.yul\":1800:1853   */\n  tag_27\n  jump\t// in\ntag_63:\n    /* \"#utility.yul\":1787:1853   */\n  swap1\n  pop\n    /* \"#utility.yul\":1717:1859   */\n  swap2\n  swap1\n  pop\n  jump\t// out\n    /* \"#utility.yul\":1865:1940   */\ntag_30:\n    /* \"#utility.yul\":1908:1911   */\n  0x00\n    /* \"#utility.yul\":1929:1934   */\n  dup2\n    /* \"#utility.yul\":1922:1934   */\n  swap1\n  pop\n    /* \"#utility.yul\":1865:1940   */\n  swap2\n  swap1\n  pop\n  jump\t// out\n    /* \"#utility.yul\":1946:2215   */\ntag_31:\n    /* \"#utility.yul\":2056:2095   */\n  tag_68\n    /* \"#utility.yul\":2087:2094   */\n  dup4\n    /* \"#utility.yul\":2056:2095   */\n  tag_29\n  jump\t// in\ntag_68:\n    /* \"#utility.yul\":2117:2208   */\n  tag_69\n    /* \"#utility.yul\":2166:2207   */\n  tag_70\n    /* \"#utility.yul\":2190:2206   */\n  dup3\n    /* \"#utility.yul\":2166:2207   */\n  tag_30\n  jump\t// in\ntag_70:\n    /* \"#utility.yul\":2158:2164   */\n  dup5\n    /* \"#utility.yul\":2151:2155   */\n  dup5\n    /* \"#utility.yul\":2145:2156   */\n  sload\n    /* \"#utility.yul\":2117:2208   */\n  tag_26\n  jump\t// in\ntag_69:\n    /* \"#utility.yul\":2111:2115   */\n  dup3\n    /* \"#utility.yul\":2104:2209   */\n  sstore\n    /* \"#utility.yul\":2022:2215   */\n  pop\n    /* \"#utility.yul\":1946:2215   */\n  pop\n  pop\n  pop\n  jump\t// out\n    /* \"#utility.yul\":2221:2294   */\ntag_32:\n    /* \"#utility.yul\":2266:2269   */\n  0x00\n    /* \"#utility.yul\":2221:2294   */\n  swap1\n  jump\t// out\n    /* \"#utility.yul\":2300:2489   */\ntag_33:\n    /* \"#utility.yul\":2377:2409   */\n  tag_73\n  tag_32\n  jump\t// in\ntag_73:\n    /* \"#utility.yul\":2418:2483   */\n  tag_74\n    /* \"#utility.yul\":2476:2482   */\n  dup2\n    /* \"#utility.yul\":2468:2474   */\n  dup5\n    /* \"#utility.yul\":2462:2466   */\n  dup5\n    /* \"#utility.yul\":2418:2483   */\n  tag_31\n  jump\t// in\ntag_74:\n    /* \"#utility.yul\":2353:2489   */\n  pop\n    /* \"#utility.yul\":2300:2489   */\n  pop\n  pop\n  jump\t// out\n    /* \"#utility.yul\":2495:2681   */\ntag_34:\n    /* \"#utility.yul\":2555:2675   */\ntag_76:\n    /* \"#utility.yul\":2572:2575   */\n  dup2\n    /* \"#utility.yul\":2565:2570   */\n  dup2\n    /* \"#utility.yul\":2562:2576   */\n  lt\n    /* \"#utility.yul\":2555:2675   */\n  iszero\n  tag_78\n  jumpi\n    /* \"#utility.yul\":2626:2665   */\n  tag_79\n    /* \"#utility.yul\":2663:2664   */\n  0x00\n    /* \"#utility.yul\":2656:2661   */\n  dup3\n    /* \"#utility.yul\":2626:2665   */\n  tag_33\n  jump\t// in\ntag_79:\n    /* \"#utility.yul\":2599:2600   */\n  0x01\n    /* \"#utility.yul\":2592:2597   */\n  dup2\n    /* \"#utility.yul\":2588:2601   */\n  add\n    /* \"#utility.yul\":2579:2601   */\n  swap1\n  pop\n    /* \"#utility.yul\":2555:2675   */\n  jump(tag_76)\ntag_78:\n    /* \"#utility.yul\":2495:2681   */\n  pop\n  pop\n  jump\t// out\n    /* \"#utility.yul\":2687:3230   */\ntag_35:\n    /* \"#utility.yul\":2788:2790   */\n  0x1f\n    /* \"#utility.yul\":2783:2786   */\n  dup3\n    /* \"#utility.yul\":2780:2791   */\n  gt\n    /* \"#utility.yul\":2777:3223   */\n  iszero\n  tag_81\n  jumpi\n    /* \"#utility.yul\":2822:2860   */\n  tag_82\n    /* \"#utility.yul\":2854:2859   */\n  dup2\n    /* \"#utility.yul\":2822:2860   */\n  tag_23\n  jump\t// in\ntag_82:\n    /* \"#utility.yul\":2906:2935   */\n  tag_83\n    /* \"#utility.yul\":2924:2934   */\n  dup5\n    /* \"#utility.yul\":2906:2935   */\n  tag_24\n  jump\t// in\ntag_83:\n    /* \"#utility.yul\":2896:2904   */\n  dup2\n    /* \"#utility.yul\":2892:2936   */\n  add\n    /* \"#utility.yul\":3089:3091   */\n  0x20\n    /* \"#utility.yul\":3077:3087   */\n  dup6\n    /* \"#utility.yul\":3074:3092   */\n  lt\n    /* \"#utility.yul\":3071:3120   */\n  iszero\n  tag_84\n  jumpi\n    /* \"#utility.yul\":3110:3118   */\n  dup2\n    /* \"#utility.yul\":3095:3118   */\n  swap1\n  pop\n    /* \"#utility.yul\":3071:3120   */\ntag_84:\n    /* \"#utility.yul\":3133:3213   */\n  tag_85\n    /* \"#utility.yul\":3189:3211   */\n  tag_86\n    /* \"#utility.yul\":3207:3210   */\n  dup6\n    /* \"#utility.yul\":3189:3211   */\n  tag_24\n  jump\t// in\ntag_86:\n    /* \"#utility.yul\":3179:3187   */\n  dup4\n    /* \"#utility.yul\":3175:3212   */\n  add\n    /* \"#utility.yul\":3162:3173   */\n  dup3\n    /* \"#utility.yul\":3133:3213   */\n  tag_34\n  jump\t// in\ntag_85:\n    /* \"#utility.yul\":2792:3223   */\n  pop\n  pop\n    /* \"#utility.yul\":2777:3223   */\ntag_81:\n    /* \"#utility.yul\":2687:3230   */\n  pop\n  pop\n  pop\n  jump\t// out\n    /* \"#utility.yul\":3236:3353   */\ntag_36:\n    /* \"#utility.yul\":3290:3298   */\n  0x00\n    /* \"#utility.yul\":3340:3345   */\n  dup3\n    /* \"#utility.yul\":3334:3338   */\n  dup3\n    /* \"#utility.yul\":3330:3346   */\n  shr\n    /* \"#utility.yul\":3309:3346   */\n  swap1\n  pop\n    /* \"#utility.yul\":3236:3353   */\n  swap3\n  swap2\n  pop\n  pop\n  jump\t// out\n    /* \"#utility.yul\":3359:3528   */\ntag_37:\n    /* \"#utility.yul\":3403:3409   */\n  0x00\n    /* \"#utility.yul\":3436:3487   */\n  tag_89\n    /* \"#utility.yul\":3484:3485   */\n  0x00\n    /* \"#utility.yul\":3480:3486   */\n  not\n    /* \"#utility.yul\":3472:3477   */\n  dup5\n    /* \"#utility.yul\":3469:3470   */\n  0x08\n    /* \"#utility.yul\":3465:3478   */\n  mul\n    /* \"#utility.yul\":3436:3487   */\n  tag_36\n  jump\t// in\ntag_89:\n    /* \"#utility.yul\":3432:3488   */\n  not\n    /* \"#utility.yul\":3517:3521   */\n  dup1\n    /* \"#utility.yul\":3511:3515   */\n  dup4\n    /* \"#utility.yul\":3507:3522   */\n  and\n    /* \"#utility.yul\":3497:3522   */\n  swap2\n  pop\n    /* \"#utility.yul\":3410:3528   */\n  pop\n    /* \"#utility.yul\":3359:3528   */\n  swap3\n  swap2\n  pop\n  pop\n  jump\t// out\n    /* \"#utility.yul\":3533:3828   */\ntag_38:\n    /* \"#utility.yul\":3609:3613   */\n  0x00\n    /* \"#utility.yul\":3755:3784   */\n  tag_91\n    /* \"#utility.yul\":3780:3783   */\n  dup4\n    /* \"#utility.yul\":3774:3778   */\n  dup4\n    /* \"#utility.yul\":3755:3784   */\n  tag_37\n  jump\t// in\ntag_91:\n    /* \"#utility.yul\":3747:3784   */\n  swap2\n  pop\n    /* \"#utility.yul\":3817:3820   */\n  dup3\n    /* \"#utility.yul\":3814:3815   */\n  0x02\n    /* \"#utility.yul\":3810:3821   */\n  mul\n    /* \"#utility.yul\":3804:3808   */\n  dup3\n    /* \"#utility.yul\":3801:3822   */\n  or\n    /* \"#utility.yul\":3793:3822   */\n  swap1\n  pop\n    /* \"#utility.yul\":3533:3828   */\n  swap3\n  swap2\n  pop\n  pop\n  jump\t// out\n    /* \"#utility.yul\":3833:5228   */\ntag_2:\n    /* \"#utility.yul\":3950:3987   */\n  tag_93\n    /* \"#utility.yul\":3983:3986   */\n  dup3\n    /* \"#utility.yul\":3950:3987   */\n  tag_19\n  jump\t// in\ntag_93:\n    /* \"#utility.yul\":4052:4070   */\n  0xffffffffffffffff\n    /* \"#utility.yul\":4044:4050   */\n  dup2\n    /* \"#utility.yul\":4041:4071   */\n  gt\n    /* \"#utility.yul\":4038:4094   */\n  iszero\n  tag_94\n  jumpi\n    /* \"#utility.yul\":4074:4092   */\n  tag_95\n  tag_20\n  jump\t// in\ntag_95:\n    /* \"#utility.yul\":4038:4094   */\ntag_94:\n    /* \"#utility.yul\":4118:4156   */\n  tag_96\n    /* \"#utility.yul\":4150:4154   */\n  dup3\n    /* \"#utility.yul\":4144:4155   */\n  sload\n    /* \"#utility.yul\":4118:4156   */\n  tag_22\n  jump\t// in\ntag_96:\n    /* \"#utility.yul\":4203:4270   */\n  tag_97\n    /* \"#utility.yul\":4263:4269   */\n  dup3\n    /* \"#utility.yul\":4255:4261   */\n  dup3\n    /* \"#utility.yul\":4249:4253   */\n  dup6\n    /* \"#utility.yul\":4203:4270   */\n  tag_35\n  jump\t// in\ntag_97:\n    /* \"#utility.yul\":4297:4298   */\n  0x00\n    /* \"#utility.yul\":4321:4325   */\n  0x20\n    /* \"#utility.yul\":4308:4325   */\n  swap1\n  pop\n    /* \"#utility.yul\":4353:4355   */\n  0x1f\n    /* \"#utility.yul\":4345:4351   */\n  dup4\n    /* \"#utility.yul\":4342:4356   */\n  gt\n    /* \"#utility.yul\":4370:4371   */\n  0x01\n    /* \"#utility.yul\":4365:4983   */\n  dup2\n  eq\n  tag_99\n  jumpi\n    /* \"#utility.yul\":5027:5028   */\n  0x00\n    /* \"#utility.yul\":5044:5050   */\n  dup5\n    /* \"#utility.yul\":5041:5118   */\n  iszero\n  tag_100\n  jumpi\n    /* \"#utility.yul\":5093:5102   */\n  dup3\n    /* \"#utility.yul\":5088:5091   */\n  dup8\n    /* \"#utility.yul\":5084:5103   */\n  add\n    /* \"#utility.yul\":5078:5104   */\n  mload\n    /* \"#utility.yul\":5069:5104   */\n  swap1\n  pop\n    /* \"#utility.yul\":5041:5118   */\ntag_100:\n    /* \"#utility.yul\":5144:5211   */\n  tag_101\n    /* \"#utility.yul\":5204:5210   */\n  dup6\n    /* \"#utility.yul\":5197:5202   */\n  dup3\n    /* \"#utility.yul\":5144:5211   */\n  tag_38\n  jump\t// in\ntag_101:\n    /* \"#utility.yul\":5138:5142   */\n  dup7\n    /* \"#utility.yul\":5131:5212   */\n  sstore\n    /* \"#utility.yul\":5000:5222   */\n  pop\n    /* \"#utility.yul\":4335:5222   */\n  jump(tag_98)\n    /* \"#utility.yul\":4365:4983   */\ntag_99:\n    /* \"#utility.yul\":4417:4421   */\n  0x1f\n    /* \"#utility.yul\":4413:4422   */\n  not\n    /* \"#utility.yul\":4405:4411   */\n  dup5\n    /* \"#utility.yul\":4401:4423   */\n  and\n    /* \"#utility.yul\":4451:4488   */\n  tag_102\n    /* \"#utility.yul\":4483:4487   */\n  dup7\n    /* \"#utility.yul\":4451:4488   */\n  tag_23\n  jump\t// in\ntag_102:\n    /* \"#utility.yul\":4510:4511   */\n  0x00\n    /* \"#utility.yul\":4524:4732   */\ntag_103:\n    /* \"#utility.yul\":4538:4545   */\n  dup3\n    /* \"#utility.yul\":4535:4536   */\n  dup2\n    /* \"#utility.yul\":4532:4546   */\n  lt\n    /* \"#utility.yul\":4524:4732   */\n  iszero\n  tag_105\n  jumpi\n    /* \"#utility.yul\":4617:4626   */\n  dup5\n    /* \"#utility.yul\":4612:4615   */\n  dup10\n    /* \"#utility.yul\":4608:4627   */\n  add\n    /* \"#utility.yul\":4602:4628   */\n  mload\n    /* \"#utility.yul\":4594:4600   */\n  dup3\n    /* \"#utility.yul\":4587:4629   */\n  sstore\n    /* \"#utility.yul\":4668:4669   */\n  0x01\n    /* \"#utility.yul\":4660:4666   */\n  dup3\n    /* \"#utility.yul\":4656:4670   */\n  add\n    /* \"#utility.yul\":4646:4670   */\n  swap2\n  pop\n    /* \"#utility.yul\":4715:4717   */\n  0x20\n    /* \"#utility.yul\":4704:4713   */\n  dup6\n    /* \"#utility.yul\":4700:4718   */\n  add\n    /* \"#utility.yul\":4687:4718   */\n  swap5\n  pop\n    /* \"#utility.yul\":4561:4565   */\n  0x20\n    /* \"#utility.yul\":4558:4559   */\n  dup2\n    /* \"#utility.yul\":4554:4566   */\n  add\n    /* \"#utility.yul\":4549:4566   */\n  swap1\n  pop\n    /* \"#utility.yul\":4524:4732   */\n  jump(tag_103)\ntag_105:\n    /* \"#utility.yul\":4760:4766   */\n  dup7\n    /* \"#utility.yul\":4751:4758   */\n  dup4\n    /* \"#utility.yul\":4748:4767   */\n  lt\n    /* \"#utility.yul\":4745:4924   */\n  iszero\n  tag_106\n  jumpi\n    /* \"#utility.yul\":4818:4827   */\n  dup5\n    /* \"#utility.yul\":4813:4816   */\n  dup10\n    /* \"#utility.yul\":4809:4828   */\n  add\n    /* \"#utility.yul\":4803:4829   */\n  mload\n    /* \"#utility.yul\":4861:4909   */\n  tag_107\n    /* \"#utility.yul\":4903:4907   */\n  0x1f\n    /* \"#utility.yul\":4895:4901   */\n  dup10\n    /* \"#utility.yul\":4891:4908   */\n  and\n    /* \"#utility.yul\":4880:4889   */\n  dup3\n    /* \"#utility.yul\":4861:4909   */\n  tag_37\n  jump\t// in\ntag_107:\n    /* \"#utility.yul\":4853:4859   */\n  dup4\n    /* \"#utility.yul\":4846:4910   */\n  sstore\n    /* \"#utility.yul\":4768:4924   */\n  pop\n    /* \"#utility.yul\":4745:4924   */\ntag_106:\n    /* \"#utility.yul\":4970:4971   */\n  0x01\n    /* \"#utility.yul\":4966:4967   */\n  0x02\n    /* \"#utility.yul\":4958:4964   */\n  dup9\n    /* \"#utility.yul\":4954:4968   */\n  mul\n    /* \"#utility.yul\":4950:4972   */\n  add\n    /* \"#utility.yul\":4944:4948   */\n  dup9\n    /* \"#utility.yul\":4937:4973   */\n  sstore\n    /* \"#utility.yul\":4372:4983   */\n  pop\n  pop\n  pop\n    /* \"#utility.yul\":4335:5222   */\ntag_98:\n  pop\n    /* \"#utility.yul\":3925:5228   */\n  pop\n  pop\n  pop\n    /* \"#utility.yul\":3833:5228   */\n  pop\n  pop\n  jump\t// out\n    /* \"#utility.yul\":5315:5432   */\ntag_40:\n    /* \"#utility.yul\":5424:5425   */\n  0x00\n    /* \"#utility.yul\":5421:5422   */\n  dup1\n    /* \"#utility.yul\":5414:5426   */\n  revert\n    /* \"#utility.yul\":5561:5687   */\ntag_42:\n    /* \"#utility.yul\":5598:5605   */\n  0x00\n    /* \"#utility.yul\":5638:5680   */\n  0xffffffffffffffffffffffffffffffffffffffff\n    /* \"#utility.yul\":5631:5636   */\n  dup3\n    /* \"#utility.yul\":5627:5681   */\n  and\n    /* \"#utility.yul\":5616:5681   */\n  swap1\n  pop\n    /* \"#utility.yul\":5561:5687   */\n  swap2\n  swap1\n  pop\n  jump\t// out\n    /* \"#utility.yul\":5693:5789   */\ntag_43:\n    /* \"#utility.yul\":5730:5737   */\n  0x00\n    /* \"#utility.yul\":5759:5783   */\n  tag_113\n    /* \"#utility.yul\":5777:5782   */\n  dup3\n    /* \"#utility.yul\":5759:5783   */\n  tag_42\n  jump\t// in\ntag_113:\n    /* \"#utility.yul\":5748:5783   */\n  swap1\n  pop\n    /* \"#utility.yul\":5693:5789   */\n  swap2\n  swap1\n  pop\n  jump\t// out\n    /* \"#utility.yul\":5795:5917   */\ntag_44:\n    /* \"#utility.yul\":5868:5892   */\n  tag_115\n    /* \"#utility.yul\":5886:5891   */\n  dup2\n    /* \"#utility.yul\":5868:5892   */\n  tag_43\n  jump\t// in\ntag_115:\n    /* \"#utility.yul\":5861:5866   */\n  dup2\n    /* \"#utility.yul\":5858:5893   */\n  eq\n    /* \"#utility.yul\":5848:5911   */\n  tag_116\n  jumpi\n    /* \"#utility.yul\":5907:5908   */\n  0x00\n    /* \"#utility.yul\":5904:5905   */\n  dup1\n    /* \"#utility.yul\":5897:5909   */\n  revert\n    /* \"#utility.yul\":5848:5911   */\ntag_116:\n    /* \"#utility.yul\":5795:5917   */\n  pop\n  jump\t// out\n    /* \"#utility.yul\":5923:6066   */\ntag_45:\n    /* \"#utility.yul\":5980:5985   */\n  0x00\n    /* \"#utility.yul\":6011:6017   */\n  dup2\n    /* \"#utility.yul\":6005:6018   */\n  mload\n    /* \"#utility.yul\":5996:6018   */\n  swap1\n  pop\n    /* \"#utility.yul\":6027:6060   */\n  tag_118\n    /* \"#utility.yul\":6054:6059   */\n  dup2\n    /* \"#utility.yul\":6027:6060   */\n  tag_44\n  jump\t// in\ntag_118:\n    /* \"#utility.yul\":5923:6066   */\n  swap3\n  swap2\n  pop\n  pop\n  jump\t// out\n    /* \"#utility.yul\":6072:6579   */\ntag_5:\n    /* \"#utility.yul\":6151:6157   */\n  0x00\n    /* \"#utility.yul\":6159:6165   */\n  dup1\n    /* \"#utility.yul\":6208:6210   */\n  0x40\n    /* \"#utility.yul\":6196:6205   */\n  dup4\n    /* \"#utility.yul\":6187:6194   */\n  dup6\n    /* \"#utility.yul\":6183:6206   */\n  sub\n    /* \"#utility.yul\":6179:6211   */\n  slt\n    /* \"#utility.yul\":6176:6295   */\n  iszero\n  tag_120\n  jumpi\n    /* \"#utility.yul\":6214:6293   */\n  tag_121\n  tag_40\n  jump\t// in\ntag_121:\n    /* \"#utility.yul\":6176:6295   */\ntag_120:\n    /* \"#utility.yul\":6334:6335   */\n  0x00\n    /* \"#utility.yul\":6359:6423   */\n  tag_122\n    /* \"#utility.yul\":6415:6422   */\n  dup6\n    /* \"#utility.yul\":6406:6412   */\n  dup3\n    /* \"#utility.yul\":6395:6404   */\n  dup7\n    /* \"#utility.yul\":6391:6413   */\n  add\n    /* \"#utility.yul\":6359:6423   */\n  tag_45\n  jump\t// in\ntag_122:\n    /* \"#utility.yul\":6349:6423   */\n  swap3\n  pop\n    /* \"#utility.yul\":6305:6433   */\n  pop\n    /* \"#utility.yul\":6472:6474   */\n  0x20\n    /* \"#utility.yul\":6498:6562   */\n  tag_123\n    /* \"#utility.yul\":6554:6561   */\n  dup6\n    /* \"#utility.yul\":6545:6551   */\n  dup3\n    /* \"#utility.yul\":6534:6543   */\n  dup7\n    /* \"#utility.yul\":6530:6552   */\n  add\n    /* \"#utility.yul\":6498:6562   */\n  tag_45\n  jump\t// in\ntag_123:\n    /* \"#utility.yul\":6488:6562   */\n  swap2\n  pop\n    /* \"#utility.yul\":6443:6572   */\n  pop\n    /* \"#utility.yul\":6072:6579   */\n  swap3\n  pop\n  swap3\n  swap1\n  pop\n  jump\t// out\n    /* \"MegaFactory.sol\":313:4470  contract MegaFactoryV1 is CloneFactory, ReentrancyGuard, Ownable {... */\ntag_16:\n  dataSize(sub_0)\n  dup1\n  dataOffset(sub_0)\n  0x00\n  codecopy\n  0x00\n  return\nstop\n\nsub_0: assembly {\n        /* \"MegaFactory.sol\":313:4470  contract MegaFactoryV1 is CloneFactory, ReentrancyGuard, Ownable {... */\n      mstore(0x40, 0x80)\n      jumpi(tag_1, lt(calldatasize, 0x04))\n      shr(0xe0, calldataload(0x00))\n      dup1\n      0x785f2391\n      gt\n      tag_29\n      jumpi\n      dup1\n      0xa9e52987\n      gt\n      tag_30\n      jumpi\n      dup1\n      0xe803cee0\n      gt\n      tag_31\n      jumpi\n      dup1\n      0xe803cee0\n      eq\n      tag_25\n      jumpi\n      dup1\n      0xe9d8b181\n      eq\n      tag_26\n      jumpi\n      dup1\n      0xf2fde38b\n      eq\n      tag_27\n      jumpi\n      dup1\n      0xfc3c28af\n      eq\n      tag_28\n      jumpi\n      jump(tag_2)\n    tag_31:\n      dup1\n      0xa9e52987\n      eq\n      tag_22\n      jumpi\n      dup1\n      0xc78c45ff\n      eq\n      tag_23\n      jumpi\n      dup1\n      0xd3a0ab1b\n      eq\n      tag_24\n      jumpi\n      jump(tag_2)\n    tag_30:\n      dup1\n      0x785f2391\n      eq\n      tag_16\n      jumpi\n      dup1\n      0x7ba45769\n      eq\n      tag_17\n      jumpi\n      dup1\n      0x8858906d\n      eq\n      tag_18\n      jumpi\n      dup1\n      0x8da5cb5b\n      eq\n      tag_19\n      jumpi\n      dup1\n      0x8ea5220f\n      eq\n      tag_20\n      jumpi\n      dup1\n      0xa7ccabdf\n      eq\n      tag_21\n      jumpi\n      jump(tag_2)\n    tag_29:\n      dup1\n      0x23539224\n      gt\n      tag_32\n      jumpi\n      dup1\n      0x6eaddad2\n      gt\n      tag_33\n      jumpi\n      dup1\n      0x6eaddad2\n      eq\n      tag_12\n      jumpi\n      dup1\n      0x6f0aa4a2\n      eq\n      tag_13\n      jumpi\n      dup1\n      0x715018a6\n      eq\n      tag_14\n      jumpi\n      dup1\n      0x7196541b\n      eq\n      tag_15\n      jumpi\n      jump(tag_2)\n    tag_33:\n      dup1\n      0x23539224\n      eq\n      tag_9\n      jumpi\n      dup1\n      0x52509d8e\n      eq\n      tag_10\n      jumpi\n      dup1\n      0x6b9e619f\n      eq\n      tag_11\n      jumpi\n      jump(tag_2)\n    tag_32:\n      dup1\n      0x01c234a8\n      eq\n      tag_3\n      jumpi\n      dup1\n      0x065e812b\n      eq\n      tag_4\n      jumpi\n      dup1\n      0x06fdde03\n      eq\n      tag_5\n      jumpi\n      dup1\n      0x15344276\n      eq\n      tag_6\n      jumpi\n      dup1\n      0x1f53ac02\n      eq\n      tag_7\n      jumpi\n      dup1\n      0x1ffe0f61\n      eq\n      tag_8\n      jumpi\n      jump(tag_2)\n    tag_1:\n      jumpi(tag_2, calldatasize)\n      stop\n    tag_2:\n      0x00\n      dup1\n      revert\n        /* \"MegaFactory.sol\":880:927  uint256 constant public PERCENTS_DIVIDER = 1000 */\n    tag_3:\n      callvalue\n      dup1\n      iszero\n      tag_36\n      jumpi\n      0x00\n      dup1\n      revert\n    tag_36:\n      pop\n      tag_37\n      tag_38\n      jump\t// in\n    tag_37:\n      mload(0x40)\n      tag_39\n      swap2\n      swap1\n      tag_40\n      jump\t// in\n    tag_39:\n      mload(0x40)\n      dup1\n      swap2\n      sub\n      swap1\n      return\n        /* \"MegaFactory.sol\":3944:4045  function setMktWallet(address _wallet) public onlyOwner {... */\n    tag_4:\n      callvalue\n      dup1\n      iszero\n      tag_41\n      jumpi\n      0x00\n      dup1\n      revert\n    tag_41:\n      pop\n      tag_42\n      0x04\n      dup1\n      calldatasize\n      sub\n      dup2\n      add\n      swap1\n      tag_43\n      swap2\n      swap1\n      tag_44\n      jump\t// in\n    tag_43:\n      tag_45\n      jump\t// in\n    tag_42:\n      stop\n        /* \"MegaFactory.sol\":1411:1492  function name() public view returns (string memory) {... */\n    tag_5:\n      callvalue\n      dup1\n      iszero\n      tag_46\n      jumpi\n      0x00\n      dup1\n      revert\n    tag_46:\n      pop\n      tag_47\n      tag_48\n      jump\t// in\n    tag_47:\n      mload(0x40)\n      tag_49\n      swap2\n      swap1\n      tag_50\n      jump\t// in\n    tag_49:\n      mload(0x40)\n      dup1\n      swap2\n      sub\n      swap1\n      return\n        /* \"MegaFactory.sol\":1256:1287  uint256 public affPercent = 100 */\n    tag_6:\n      callvalue\n      dup1\n      iszero\n      tag_51\n      jumpi\n      0x00\n      dup1\n      revert\n    tag_51:\n      pop\n      tag_52\n      tag_53\n      jump\t// in\n    tag_52:\n      mload(0x40)\n      tag_54\n      swap2\n      swap1\n      tag_40\n      jump\t// in\n    tag_54:\n      mload(0x40)\n      dup1\n      swap2\n      sub\n      swap1\n      return\n        /* \"MegaFactory.sol\":3837:3938  function setDevWallet(address _wallet) public onlyOwner {... */\n    tag_7:\n      callvalue\n      dup1\n      iszero\n      tag_55\n      jumpi\n      0x00\n      dup1\n      revert\n    tag_55:\n      pop\n      tag_56\n      0x04\n      dup1\n      calldatasize\n      sub\n      dup2\n      add\n      swap1\n      tag_57\n      swap2\n      swap1\n      tag_44\n      jump\t// in\n    tag_57:\n      tag_58\n      jump\t// in\n    tag_56:\n      stop\n        /* \"MegaFactory.sol\":3742:3831  function setSytemFeePercent(uint256 fee) public onlyOwner {... */\n    tag_8:\n      callvalue\n      dup1\n      iszero\n      tag_59\n      jumpi\n      0x00\n      dup1\n      revert\n    tag_59:\n      pop\n      tag_60\n      0x04\n      dup1\n      calldatasize\n      sub\n      dup2\n      add\n      swap1\n      tag_61\n      swap2\n      swap1\n      tag_62\n      jump\t// in\n    tag_61:\n      tag_63\n      jump\t// in\n    tag_60:\n      stop\n        /* \"MegaFactory.sol\":1117:1204  address payable public topAddress = payable(0x8b9588F69e04D69655e0d866cD701844177360A7) */\n    tag_9:\n      callvalue\n      dup1\n      iszero\n      tag_64\n      jumpi\n      0x00\n      dup1\n      revert\n    tag_64:\n      pop\n      tag_65\n      tag_66\n      jump\t// in\n    tag_65:\n      mload(0x40)\n      tag_67\n      swap2\n      swap1\n      tag_68\n      jump\t// in\n    tag_67:\n      mload(0x40)\n      dup1\n      swap2\n      sub\n      swap1\n      return\n        /* \"MegaFactory.sol\":2531:3239  function order(address contractGame, uint256 idGame, uint256 qty, address sponsorAddress) public nonReentrant {... */\n    tag_10:\n      callvalue\n      dup1\n      iszero\n      tag_69\n      jumpi\n      0x00\n      dup1\n      revert\n    tag_69:\n      pop\n      tag_70\n      0x04\n      dup1\n      calldatasize\n      sub\n      dup2\n      add\n      swap1\n      tag_71\n      swap2\n      swap1\n      tag_72\n      jump\t// in\n    tag_71:\n      tag_73\n      jump\t// in\n    tag_70:\n      stop\n        /* \"MegaFactory.sol\":841:874  MegaItemsCore public MegaItemsNFT */\n    tag_11:\n      callvalue\n      dup1\n      iszero\n      tag_74\n      jumpi\n      0x00\n      dup1\n      revert\n    tag_74:\n      pop\n      tag_75\n      tag_76\n      jump\t// in\n    tag_75:\n      mload(0x40)\n      tag_77\n      swap2\n      swap1\n      tag_78\n      jump\t// in\n    tag_77:\n      mload(0x40)\n      dup1\n      swap2\n      sub\n      swap1\n      return\n        /* \"MegaFactory.sol\":3650:3736  function setDevPercent(uint256 fee) public onlyOwner {... */\n    tag_12:\n      callvalue\n      dup1\n      iszero\n      tag_79\n      jumpi\n      0x00\n      dup1\n      revert\n    tag_79:\n      pop\n      tag_80\n      0x04\n      dup1\n      calldatasize\n      sub\n      dup2\n      add\n      swap1\n      tag_81\n      swap2\n      swap1\n      tag_62\n      jump\t// in\n    tag_81:\n      tag_82\n      jump\t// in\n    tag_80:\n      stop\n        /* \"MegaFactory.sol\":3245:3350  function setListGame(address game, bool active) public onlyOwner {... */\n    tag_13:\n      callvalue\n      dup1\n      iszero\n      tag_83\n      jumpi\n      0x00\n      dup1\n      revert\n    tag_83:\n      pop\n      tag_84\n      0x04\n      dup1\n      calldatasize\n      sub\n      dup2\n      add\n      swap1\n      tag_85\n      swap2\n      swap1\n      tag_86\n      jump\t// in\n    tag_85:\n      tag_87\n      jump\t// in\n    tag_84:\n      stop\n        /* \"Ownable.sol\":1598:1690  function renounceOwnership() public virtual onlyOwner {... */\n    tag_14:\n      callvalue\n      dup1\n      iszero\n      tag_88\n      jumpi\n      0x00\n      dup1\n      revert\n    tag_88:\n      pop\n      tag_89\n      tag_90\n      jump\t// in\n    tag_89:\n      stop\n        /* \"MegaFactory.sol\":4160:4433  function SwapExactToken(... */\n    tag_15:\n      callvalue\n      dup1\n      iszero\n      tag_91\n      jumpi\n      0x00\n      dup1\n      revert\n    tag_91:\n      pop\n      tag_92\n      0x04\n      dup1\n      calldatasize\n      sub\n      dup2\n      add\n      swap1\n      tag_93\n      swap2\n      swap1\n      tag_94\n      jump\t// in\n    tag_93:\n      tag_95\n      jump\t// in\n    tag_92:\n      stop\n        /* \"MegaFactory.sol\":1364:1404  mapping(address => bool) public listGame */\n    tag_16:\n      callvalue\n      dup1\n      iszero\n      tag_96\n      jumpi\n      0x00\n      dup1\n      revert\n    tag_96:\n      pop\n      tag_97\n      0x04\n      dup1\n      calldatasize\n      sub\n      dup2\n      add\n      swap1\n      tag_98\n      swap2\n      swap1\n      tag_44\n      jump\t// in\n    tag_98:\n      tag_99\n      jump\t// in\n    tag_97:\n      mload(0x40)\n      tag_100\n      swap2\n      swap1\n      tag_101\n      jump\t// in\n    tag_100:\n      mload(0x40)\n      dup1\n      swap2\n      sub\n      swap1\n      return\n        /* \"MegaFactory.sol\":1662:2525  function deployedGame(address game, address token) public payable {... */\n    tag_17:\n      tag_102\n      0x04\n      dup1\n      calldatasize\n      sub\n      dup2\n      add\n      swap1\n      tag_103\n      swap2\n      swap1\n      tag_104\n      jump\t// in\n    tag_103:\n      tag_105\n      jump\t// in\n    tag_102:\n      stop\n        /* \"MegaFactory.sol\":3558:3644  function setAffPercent(uint256 fee) public onlyOwner {... */\n    tag_18:\n      callvalue\n      dup1\n      iszero\n      tag_106\n      jumpi\n      0x00\n      dup1\n      revert\n    tag_106:\n      pop\n      tag_107\n      0x04\n      dup1\n      calldatasize\n      sub\n      dup2\n      add\n      swap1\n      tag_108\n      swap2\n      swap1\n      tag_62\n      jump\t// in\n    tag_108:\n      tag_109\n      jump\t// in\n    tag_107:\n      stop\n        /* \"Ownable.sol\":966:1051  function owner() public view virtual returns (address) {... */\n    tag_19:\n      callvalue\n      dup1\n      iszero\n      tag_110\n      jumpi\n      0x00\n      dup1\n      revert\n    tag_110:\n      pop\n      tag_111\n      tag_112\n      jump\t// in\n    tag_111:\n      mload(0x40)\n      tag_113\n      swap2\n      swap1\n      tag_114\n      jump\t// in\n    tag_113:\n      mload(0x40)\n      dup1\n      swap2\n      sub\n      swap1\n      return\n        /* \"MegaFactory.sol\":933:1019  address payable public devWallet = payable(0x8b9588F69e04D69655e0d866cD701844177360A7) */\n    tag_20:\n      callvalue\n      dup1\n      iszero\n      tag_115\n      jumpi\n      0x00\n      dup1\n      revert\n    tag_115:\n      pop\n      tag_116\n      tag_117\n      jump\t// in\n    tag_116:\n      mload(0x40)\n      tag_118\n      swap2\n      swap1\n      tag_68\n      jump\t// in\n    tag_118:\n      mload(0x40)\n      dup1\n      swap2\n      sub\n      swap1\n      return\n        /* \"MegaFactory.sol\":3356:3460  function setNFTContract(address nft) public onlyOwner {... */\n    tag_21:\n      callvalue\n      dup1\n      iszero\n      tag_119\n      jumpi\n      0x00\n      dup1\n      revert\n    tag_119:\n      pop\n      tag_120\n      0x04\n      dup1\n      calldatasize\n      sub\n      dup2\n      add\n      swap1\n      tag_121\n      swap2\n      swap1\n      tag_44\n      jump\t// in\n    tag_121:\n      tag_122\n      jump\t// in\n    tag_120:\n      stop\n        /* \"MegaFactory.sol\":3466:3552  function setDeployFee(uint256 fee) public onlyOwner {... */\n    tag_22:\n      callvalue\n      dup1\n      iszero\n      tag_123\n      jumpi\n      0x00\n      dup1\n      revert\n    tag_123:\n      pop\n      tag_124\n      0x04\n      dup1\n      calldatasize\n      sub\n      dup2\n      add\n      swap1\n      tag_125\n      swap2\n      swap1\n      tag_62\n      jump\t// in\n    tag_125:\n      tag_126\n      jump\t// in\n    tag_124:\n      stop\n        /* \"MegaFactory.sol\":1210:1250  uint256 public deployedFee = 0.002 ether */\n    tag_23:\n      callvalue\n      dup1\n      iszero\n      tag_127\n      jumpi\n      0x00\n      dup1\n      revert\n    tag_127:\n      pop\n      tag_128\n      tag_129\n      jump\t// in\n    tag_128:\n      mload(0x40)\n      tag_130\n      swap2\n      swap1\n      tag_40\n      jump\t// in\n    tag_130:\n      mload(0x40)\n      dup1\n      swap2\n      sub\n      swap1\n      return\n        /* \"MegaFactory.sol\":1330:1358  uint256 public sytemFee = 10 */\n    tag_24:\n      callvalue\n      dup1\n      iszero\n      tag_131\n      jumpi\n      0x00\n      dup1\n      revert\n    tag_131:\n      pop\n      tag_132\n      tag_133\n      jump\t// in\n    tag_132:\n      mload(0x40)\n      tag_134\n      swap2\n      swap1\n      tag_40\n      jump\t// in\n    tag_134:\n      mload(0x40)\n      dup1\n      swap2\n      sub\n      swap1\n      return\n        /* \"MegaFactory.sol\":1025:1111  address payable public mktWallet = payable(0x8b9588F69e04D69655e0d866cD701844177360A7) */\n    tag_25:\n      callvalue\n      dup1\n      iszero\n      tag_135\n      jumpi\n      0x00\n      dup1\n      revert\n    tag_135:\n      pop\n      tag_136\n      tag_137\n      jump\t// in\n    tag_136:\n      mload(0x40)\n      tag_138\n      swap2\n      swap1\n      tag_68\n      jump\t// in\n    tag_138:\n      mload(0x40)\n      dup1\n      swap2\n      sub\n      swap1\n      return\n        /* \"MegaFactory.sol\":4051:4154  function setTopAddress(address _wallet) public onlyOwner {... */\n    tag_26:\n      callvalue\n      dup1\n      iszero\n      tag_139\n      jumpi\n      0x00\n      dup1\n      revert\n    tag_139:\n      pop\n      tag_140\n      0x04\n      dup1\n      calldatasize\n      sub\n      dup2\n      add\n      swap1\n      tag_141\n      swap2\n      swap1\n      tag_44\n      jump\t// in\n    tag_141:\n      tag_142\n      jump\t// in\n    tag_140:\n      stop\n        /* \"Ownable.sol\":1839:2028  function transferOwnership(address newOwner) public virtual onlyOwner {... */\n    tag_27:\n      callvalue\n      dup1\n      iszero\n      tag_143\n      jumpi\n      0x00\n      dup1\n      revert\n    tag_143:\n      pop\n      tag_144\n      0x04\n      dup1\n      calldatasize\n      sub\n      dup2\n      add\n      swap1\n      tag_145\n      swap2\n      swap1\n      tag_44\n      jump\t// in\n    tag_145:\n      tag_146\n      jump\t// in\n    tag_144:\n      stop\n        /* \"MegaFactory.sol\":1293:1324  uint256 public devPercent = 200 */\n    tag_28:\n      callvalue\n      dup1\n      iszero\n      tag_147\n      jumpi\n      0x00\n      dup1\n      revert\n    tag_147:\n      pop\n      tag_148\n      tag_149\n      jump\t// in\n    tag_148:\n      mload(0x40)\n      tag_150\n      swap2\n      swap1\n      tag_40\n      jump\t// in\n    tag_150:\n      mload(0x40)\n      dup1\n      swap2\n      sub\n      swap1\n      return\n        /* \"MegaFactory.sol\":880:927  uint256 constant public PERCENTS_DIVIDER = 1000 */\n    tag_38:\n        /* \"MegaFactory.sol\":923:927  1000 */\n      0x03e8\n        /* \"MegaFactory.sol\":880:927  uint256 constant public PERCENTS_DIVIDER = 1000 */\n      dup2\n      jump\t// out\n        /* \"MegaFactory.sol\":3944:4045  function setMktWallet(address _wallet) public onlyOwner {... */\n    tag_45:\n        /* \"Ownable.sol\":1189:1201  _msgSender() */\n      tag_152\n        /* \"Ownable.sol\":1189:1199  _msgSender */\n      tag_153\n        /* \"Ownable.sol\":1189:1201  _msgSender() */\n      jump\t// in\n    tag_152:\n        /* \"Ownable.sol\":1178:1201  owner() == _msgSender() */\n      0xffffffffffffffffffffffffffffffffffffffff\n      and\n        /* \"Ownable.sol\":1178:1185  owner() */\n      tag_154\n        /* \"Ownable.sol\":1178:1183  owner */\n      tag_112\n        /* \"Ownable.sol\":1178:1185  owner() */\n      jump\t// in\n    tag_154:\n        /* \"Ownable.sol\":1178:1201  owner() == _msgSender() */\n      0xffffffffffffffffffffffffffffffffffffffff\n      and\n      eq\n        /* \"Ownable.sol\":1170:1238  require(owner() == _msgSender(), \"Ownable: caller is not the owner\") */\n      tag_155\n      jumpi\n      mload(0x40)\n      0x08c379a000000000000000000000000000000000000000000000000000000000\n      dup2\n      mstore\n      0x04\n      add\n      tag_156\n      swap1\n      tag_157\n      jump\t// in\n    tag_156:\n      mload(0x40)\n      dup1\n      swap2\n      sub\n      swap1\n      revert\n    tag_155:\n        /* \"MegaFactory.sol\":4030:4037  _wallet */\n      dup1\n        /* \"MegaFactory.sol\":4010:4019  mktWallet */\n      0x05\n      0x00\n        /* \"MegaFactory.sol\":4010:4038  mktWallet = payable(_wallet) */\n      0x0100\n      exp\n      dup2\n      sload\n      dup2\n      0xffffffffffffffffffffffffffffffffffffffff\n      mul\n      not\n      and\n      swap1\n      dup4\n      0xffffffffffffffffffffffffffffffffffffffff\n      and\n      mul\n      or\n      swap1\n      sstore\n      pop\n        /* \"MegaFactory.sol\":3944:4045  function setMktWallet(address _wallet) public onlyOwner {... */\n      pop\n      jump\t// out\n        /* \"MegaFactory.sol\":1411:1492  function name() public view returns (string memory) {... */\n    tag_48:\n        /* \"MegaFactory.sol\":1448:1461  string memory */\n      0x60\n        /* \"MegaFactory.sol\":1480:1485  _name */\n      0x02\n        /* \"MegaFactory.sol\":1473:1485  return _name */\n      dup1\n      sload\n      tag_160\n      swap1\n      tag_161\n      jump\t// in\n    tag_160:\n      dup1\n      0x1f\n      add\n      0x20\n      dup1\n      swap2\n      div\n      mul\n      0x20\n      add\n      mload(0x40)\n      swap1\n      dup2\n      add\n      0x40\n      mstore\n      dup1\n      swap3\n      swap2\n      swap1\n      dup2\n      dup2\n      mstore\n      0x20\n      add\n      dup3\n      dup1\n      sload\n      tag_162\n      swap1\n      tag_161\n      jump\t// in\n    tag_162:\n      dup1\n      iszero\n      tag_163\n      jumpi\n      dup1\n      0x1f\n      lt\n      tag_164\n      jumpi\n      0x0100\n      dup1\n      dup4\n      sload\n      div\n      mul\n      dup4\n      mstore\n      swap2\n      0x20\n      add\n      swap2\n      jump(tag_163)\n    tag_164:\n      dup3\n      add\n      swap2\n      swap1\n      0x00\n      mstore\n      keccak256(0x00, 0x20)\n      swap1\n    tag_165:\n      dup2\n      sload\n      dup2\n      mstore\n      swap1\n      0x01\n      add\n      swap1\n      0x20\n      add\n      dup1\n      dup4\n      gt\n      tag_165\n      jumpi\n      dup3\n      swap1\n      sub\n      0x1f\n      and\n      dup3\n      add\n      swap2\n    tag_163:\n      pop\n      pop\n      pop\n      pop\n      pop\n      swap1\n      pop\n        /* \"MegaFactory.sol\":1411:1492  function name() public view returns (string memory) {... */\n      swap1\n      jump\t// out\n        /* \"MegaFactory.sol\":1256:1287  uint256 public affPercent = 100 */\n    tag_53:\n      sload(0x08)\n      dup2\n      jump\t// out\n        /* \"MegaFactory.sol\":3837:3938  function setDevWallet(address _wallet) public onlyOwner {... */\n    tag_58:\n        /* \"Ownable.sol\":1189:1201  _msgSender() */\n      tag_167\n        /* \"Ownable.sol\":1189:1199  _msgSender */\n      tag_153\n        /* \"Ownable.sol\":1189:1201  _msgSender() */\n      jump\t// in\n    tag_167:\n        /* \"Ownable.sol\":1178:1201  owner() == _msgSender() */\n      0xffffffffffffffffffffffffffffffffffffffff\n      and\n        /* \"Ownable.sol\":1178:1185  owner() */\n      tag_168\n        /* \"Ownable.sol\":1178:1183  owner */\n      tag_112\n        /* \"Ownable.sol\":1178:1185  owner() */\n      jump\t// in\n    tag_168:\n        /* \"Ownable.sol\":1178:1201  owner() == _msgSender() */\n      0xffffffffffffffffffffffffffffffffffffffff\n      and\n      eq\n        /* \"Ownable.sol\":1170:1238  require(owner() == _msgSender(), \"Ownable: caller is not the owner\") */\n      tag_169\n      jumpi\n      mload(0x40)\n      0x08c379a000000000000000000000000000000000000000000000000000000000\n      dup2\n      mstore\n      0x04\n      add\n      tag_170\n      swap1\n      tag_157\n      jump\t// in\n    tag_170:\n      mload(0x40)\n      dup1\n      swap2\n      sub\n      swap1\n      revert\n    tag_169:\n        /* \"MegaFactory.sol\":3923:3930  _wallet */\n      dup1\n        /* \"MegaFactory.sol\":3903:3912  devWallet */\n      0x04\n      0x00\n        /* \"MegaFactory.sol\":3903:3931  devWallet = payable(_wallet) */\n      0x0100\n      exp\n      dup2\n      sload\n      dup2\n      0xffffffffffffffffffffffffffffffffffffffff\n      mul\n      not\n      and\n      swap1\n      dup4\n      0xffffffffffffffffffffffffffffffffffffffff\n      and\n      mul\n      or\n      swap1\n      sstore\n      pop\n        /* \"MegaFactory.sol\":3837:3938  function setDevWallet(address _wallet) public onlyOwner {... */\n      pop\n      jump\t// out\n        /* \"MegaFactory.sol\":3742:3831  function setSytemFeePercent(uint256 fee) public onlyOwner {... */\n    tag_63:\n        /* \"Ownable.sol\":1189:1201  _msgSender() */\n      tag_173\n        /* \"Ownable.sol\":1189:1199  _msgSender */\n      tag_153\n        /* \"Ownable.sol\":1189:1201  _msgSender() */\n      jump\t// in\n    tag_173:\n        /* \"Ownable.sol\":1178:1201  owner() == _msgSender() */\n      0xffffffffffffffffffffffffffffffffffffffff\n      and\n        /* \"Ownable.sol\":1178:1185  owner() */\n      tag_174\n        /* \"Ownable.sol\":1178:1183  owner */\n      tag_112\n        /* \"Ownable.sol\":1178:1185  owner() */\n      jump\t// in\n    tag_174:\n        /* \"Ownable.sol\":1178:1201  owner() == _msgSender() */\n      0xffffffffffffffffffffffffffffffffffffffff\n      and\n      eq\n        /* \"Ownable.sol\":1170:1238  require(owner() == _msgSender(), \"Ownable: caller is not the owner\") */\n      tag_175\n      jumpi\n      mload(0x40)\n      0x08c379a000000000000000000000000000000000000000000000000000000000\n      dup2\n      mstore\n      0x04\n      add\n      tag_176\n      swap1\n      tag_157\n      jump\t// in\n    tag_176:\n      mload(0x40)\n      dup1\n      swap2\n      sub\n      swap1\n      revert\n    tag_175:\n        /* \"MegaFactory.sol\":3821:3824  fee */\n      dup1\n        /* \"MegaFactory.sol\":3810:3818  sytemFee */\n      0x0a\n        /* \"MegaFactory.sol\":3810:3824  sytemFee = fee */\n      dup2\n      swap1\n      sstore\n      pop\n        /* \"MegaFactory.sol\":3742:3831  function setSytemFeePercent(uint256 fee) public onlyOwner {... */\n      pop\n      jump\t// out\n        /* \"MegaFactory.sol\":1117:1204  address payable public topAddress = payable(0x8b9588F69e04D69655e0d866cD701844177360A7) */\n    tag_66:\n      0x06\n      0x00\n      swap1\n      sload\n      swap1\n      0x0100\n      exp\n      swap1\n      div\n      0xffffffffffffffffffffffffffffffffffffffff\n      and\n      dup2\n      jump\t// out\n        /* \"MegaFactory.sol\":2531:3239  function order(address contractGame, uint256 idGame, uint256 qty, address sponsorAddress) public nonReentrant {... */\n    tag_73:\n        /* \"ReentrancyGuard.sol\":1680:1681  2 */\n      0x02\n        /* \"ReentrancyGuard.sol\":2259:2266  _status */\n      sload(0x00)\n        /* \"ReentrancyGuard.sol\":2259:2278  _status != _ENTERED */\n      sub\n        /* \"ReentrancyGuard.sol\":2251:2314  require(_status != _ENTERED, \"ReentrancyGuard: reentrant call\") */\n      tag_179\n      jumpi\n      mload(0x40)\n      0x08c379a000000000000000000000000000000000000000000000000000000000\n      dup2\n      mstore\n      0x04\n      add\n      tag_180\n      swap1\n      tag_181\n      jump\t// in\n    tag_180:\n      mload(0x40)\n      dup1\n      swap2\n      sub\n      swap1\n      revert\n    tag_179:\n        /* \"ReentrancyGuard.sol\":1680:1681  2 */\n      0x02\n        /* \"ReentrancyGuard.sol\":2389:2396  _status */\n      0x00\n        /* \"ReentrancyGuard.sol\":2389:2407  _status = _ENTERED */\n      dup2\n      swap1\n      sstore\n      pop\n        /* \"MegaFactory.sol\":2685:2689  true */\n      0x01\n        /* \"MegaFactory.sol\":2659:2689  listGame[contractGame] == true */\n      iszero\n      iszero\n        /* \"MegaFactory.sol\":2659:2667  listGame */\n      0x0b\n        /* \"MegaFactory.sol\":2659:2681  listGame[contractGame] */\n      0x00\n        /* \"MegaFactory.sol\":2668:2680  contractGame */\n      dup7\n        /* \"MegaFactory.sol\":2659:2681  listGame[contractGame] */\n      0xffffffffffffffffffffffffffffffffffffffff\n      and\n      0xffffffffffffffffffffffffffffffffffffffff\n      and\n      dup2\n      mstore\n      0x20\n      add\n      swap1\n      dup2\n      mstore\n      0x20\n      add\n      0x00\n      keccak256\n      0x00\n      swap1\n      sload\n      swap1\n      0x0100\n      exp\n      swap1\n      div\n      0xff\n      and\n        /* \"MegaFactory.sol\":2659:2689  listGame[contractGame] == true */\n      iszero\n      iszero\n      eq\n        /* \"MegaFactory.sol\":2651:2708  require(listGame[contractGame] == true, \"Game not found\") */\n      tag_183\n      jumpi\n      mload(0x40)\n      0x08c379a000000000000000000000000000000000000000000000000000000000\n      dup2\n      mstore\n      0x04\n      add\n      tag_184\n      swap1\n      tag_185\n      jump\t// in\n    tag_184:\n      mload(0x40)\n      dup1\n      swap2\n      sub\n      swap1\n      revert\n    tag_183:\n        /* \"MegaFactory.sol\":2748:2749  0 */\n      0x00\n        /* \"MegaFactory.sol\":2722:2750  sponsorAddress == address(0) */\n      0xffffffffffffffffffffffffffffffffffffffff\n      and\n        /* \"MegaFactory.sol\":2722:2736  sponsorAddress */\n      dup2\n        /* \"MegaFactory.sol\":2722:2750  sponsorAddress == address(0) */\n      0xffffffffffffffffffffffffffffffffffffffff\n      and\n      sub\n        /* \"MegaFactory.sol\":2718:2804  if (sponsorAddress == address(0)) {... */\n      tag_186\n      jumpi\n        /* \"MegaFactory.sol\":2783:2793  topAddress */\n      0x06\n      0x00\n      swap1\n      sload\n      swap1\n      0x0100\n      exp\n      swap1\n      div\n      0xffffffffffffffffffffffffffffffffffffffff\n      and\n        /* \"MegaFactory.sol\":2766:2793  sponsorAddress = topAddress */\n      swap1\n      pop\n        /* \"MegaFactory.sol\":2718:2804  if (sponsorAddress == address(0)) {... */\n    tag_186:\n        /* \"MegaFactory.sol\":2813:2828  uint256 tokenId */\n      0x00\n        /* \"MegaFactory.sol\":2831:2843  MegaItemsNFT */\n      0x03\n      0x00\n      swap1\n      sload\n      swap1\n      0x0100\n      exp\n      swap1\n      div\n      0xffffffffffffffffffffffffffffffffffffffff\n      and\n        /* \"MegaFactory.sol\":2831:2856  MegaItemsNFT.getNextNFTId */\n      0xffffffffffffffffffffffffffffffffffffffff\n      and\n      0x6e4b73c1\n        /* \"MegaFactory.sol\":2831:2858  MegaItemsNFT.getNextNFTId() */\n      mload(0x40)\n      dup2\n      0xffffffff\n      and\n      0xe0\n      shl\n      dup2\n      mstore\n      0x04\n      add\n      0x20\n      mload(0x40)\n      dup1\n      dup4\n      sub\n      dup2\n      dup7\n      gas\n      staticcall\n      iszero\n      dup1\n      iszero\n      tag_188\n      jumpi\n      returndatasize\n      0x00\n      dup1\n      returndatacopy\n      revert(0x00, returndatasize)\n    tag_188:\n      pop\n      pop\n      pop\n      pop\n      mload(0x40)\n      returndatasize\n      not(0x1f)\n      0x1f\n      dup3\n      add\n      and\n      dup3\n      add\n      dup1\n      0x40\n      mstore\n      pop\n      dup2\n      add\n      swap1\n      tag_189\n      swap2\n      swap1\n      tag_190\n      jump\t// in\n    tag_189:\n        /* \"MegaFactory.sol\":2813:2858  uint256 tokenId = MegaItemsNFT.getNextNFTId() */\n      swap1\n      pop\n        /* \"MegaFactory.sol\":2868:2880  MegaItemsNFT */\n      0x03\n      0x00\n      swap1\n      sload\n      swap1\n      0x0100\n      exp\n      swap1\n      div\n      0xffffffffffffffffffffffffffffffffffffffff\n      and\n        /* \"MegaFactory.sol\":2868:2892  MegaItemsNFT.safeMintNFT */\n      0xffffffffffffffffffffffffffffffffffffffff\n      and\n      0xf02887f1\n        /* \"MegaFactory.sol\":2893:2905  _msgSender() */\n      tag_191\n        /* \"MegaFactory.sol\":2893:2903  _msgSender */\n      tag_153\n        /* \"MegaFactory.sol\":2893:2905  _msgSender() */\n      jump\t// in\n    tag_191:\n        /* \"MegaFactory.sol\":2907:2914  tokenId */\n      dup4\n        /* \"MegaFactory.sol\":2916:2919  qty */\n      dup7\n        /* \"MegaFactory.sol\":2868:2920  MegaItemsNFT.safeMintNFT(_msgSender(), tokenId, qty) */\n      mload(0x40)\n      dup5\n      0xffffffff\n      and\n      0xe0\n      shl\n      dup2\n      mstore\n      0x04\n      add\n      tag_192\n      swap4\n      swap3\n      swap2\n      swap1\n      tag_193\n      jump\t// in\n    tag_192:\n      0x00\n      mload(0x40)\n      dup1\n      dup4\n      sub\n      dup2\n      0x00\n      dup8\n      dup1\n      extcodesize\n      iszero\n      dup1\n      iszero\n      tag_194\n      jumpi\n      0x00\n      dup1\n      revert\n    tag_194:\n      pop\n      gas\n      call\n      iszero\n      dup1\n      iszero\n      tag_196\n      jumpi\n      returndatasize\n      0x00\n      dup1\n      returndatacopy\n      revert(0x00, returndatasize)\n    tag_196:\n      pop\n      pop\n      pop\n      pop\n        /* \"MegaFactory.sol\":2943:2955  contractGame */\n      dup5\n        /* \"MegaFactory.sol\":2930:2962  IMegaJackpot(contractGame).order */\n      0xffffffffffffffffffffffffffffffffffffffff\n      and\n      0x2240b81a\n        /* \"MegaFactory.sol\":2976:2986  devPercent */\n      sload(0x09)\n        /* \"MegaFactory.sol\":3000:3008  sytemFee */\n      sload(0x0a)\n        /* \"MegaFactory.sol\":3022:3036  sponsorAddress */\n      dup6\n        /* \"MegaFactory.sol\":3050:3059  devWallet */\n      0x04\n      0x00\n      swap1\n      sload\n      swap1\n      0x0100\n      exp\n      swap1\n      div\n      0xffffffffffffffffffffffffffffffffffffffff\n      and\n        /* \"MegaFactory.sol\":3073:3082  mktWallet */\n      0x05\n      0x00\n      swap1\n      sload\n      swap1\n      0x0100\n      exp\n      swap1\n      div\n      0xffffffffffffffffffffffffffffffffffffffff\n      and\n        /* \"MegaFactory.sol\":3096:3102  idGame */\n      dup11\n        /* \"MegaFactory.sol\":3116:3123  tokenId */\n      dup9\n        /* \"MegaFactory.sol\":3137:3140  qty */\n      dup12\n        /* \"MegaFactory.sol\":3154:3166  _msgSender() */\n      tag_197\n        /* \"MegaFactory.sol\":3154:3164  _msgSender */\n      tag_153\n        /* \"MegaFactory.sol\":3154:3166  _msgSender() */\n      jump\t// in\n    tag_197:\n        /* \"MegaFactory.sol\":2930:3176  IMegaJackpot(contractGame).order(... */\n      mload(0x40)\n      dup11\n      0xffffffff\n      and\n      0xe0\n      shl\n      dup2\n      mstore\n      0x04\n      add\n      tag_198\n      swap10\n      swap9\n      swap8\n      swap7\n      swap6\n      swap5\n      swap4\n      swap3\n      swap2\n      swap1\n      tag_199\n      jump\t// in\n    tag_198:\n      0x00\n      mload(0x40)\n      dup1\n      dup4\n      sub\n      dup2\n      0x00\n      dup8\n      dup1\n      extcodesize\n      iszero\n      dup1\n      iszero\n      tag_200\n      jumpi\n      0x00\n      dup1\n      revert\n    tag_200:\n      pop\n      gas\n      call\n      iszero\n      dup1\n      iszero\n      tag_202\n      jumpi\n      returndatasize\n      0x00\n      dup1\n      returndatacopy\n      revert(0x00, returndatasize)\n    tag_202:\n      pop\n      pop\n      pop\n      pop\n        /* \"MegaFactory.sol\":3191:3232  Order(contractGame, idGame, tokenId, qty) */\n      0x7c1ffd06d2a1dfda35ac96481c894c45a1623c365a9060c5a038a45db4614e80\n        /* \"MegaFactory.sol\":3197:3209  contractGame */\n      dup6\n        /* \"MegaFactory.sol\":3211:3217  idGame */\n      dup6\n        /* \"MegaFactory.sol\":3219:3226  tokenId */\n      dup4\n        /* \"MegaFactory.sol\":3228:3231  qty */\n      dup7\n        /* \"MegaFactory.sol\":3191:3232  Order(contractGame, idGame, tokenId, qty) */\n      mload(0x40)\n      tag_203\n      swap5\n      swap4\n      swap3\n      swap2\n      swap1\n      tag_204\n      jump\t// in\n    tag_203:\n      mload(0x40)\n      dup1\n      swap2\n      sub\n      swap1\n      log1\n        /* \"MegaFactory.sol\":2641:3239  {... */\n      pop\n        /* \"ReentrancyGuard.sol\":1637:1638  1 */\n      0x01\n        /* \"ReentrancyGuard.sol\":2562:2569  _status */\n      0x00\n        /* \"ReentrancyGuard.sol\":2562:2584  _status = _NOT_ENTERED */\n      dup2\n      swap1\n      sstore\n      pop\n        /* \"MegaFactory.sol\":2531:3239  function order(address contractGame, uint256 idGame, uint256 qty, address sponsorAddress) public nonReentrant {... */\n      pop\n      pop\n      pop\n      pop\n      jump\t// out\n        /* \"MegaFactory.sol\":841:874  MegaItemsCore public MegaItemsNFT */\n    tag_76:\n      0x03\n      0x00\n      swap1\n      sload\n      swap1\n      0x0100\n      exp\n      swap1\n      div\n      0xffffffffffffffffffffffffffffffffffffffff\n      and\n      dup2\n      jump\t// out\n        /* \"MegaFactory.sol\":3650:3736  function setDevPercent(uint256 fee) public onlyOwner {... */\n    tag_82:\n        /* \"Ownable.sol\":1189:1201  _msgSender() */\n      tag_206\n        /* \"Ownable.sol\":1189:1199  _msgSender */\n      tag_153\n        /* \"Ownable.sol\":1189:1201  _msgSender() */\n      jump\t// in\n    tag_206:\n        /* \"Ownable.sol\":1178:1201  owner() == _msgSender() */\n      0xffffffffffffffffffffffffffffffffffffffff\n      and\n        /* \"Ownable.sol\":1178:1185  owner() */\n      tag_207\n        /* \"Ownable.sol\":1178:1183  owner */\n      tag_112\n        /* \"Ownable.sol\":1178:1185  owner() */\n      jump\t// in\n    tag_207:\n        /* \"Ownable.sol\":1178:1201  owner() == _msgSender() */\n      0xffffffffffffffffffffffffffffffffffffffff\n      and\n      eq\n        /* \"Ownable.sol\":1170:1238  require(owner() == _msgSender(), \"Ownable: caller is not the owner\") */\n      tag_208\n      jumpi\n      mload(0x40)\n      0x08c379a000000000000000000000000000000000000000000000000000000000\n      dup2\n      mstore\n      0x04\n      add\n      tag_209\n      swap1\n      tag_157\n      jump\t// in\n    tag_209:\n      mload(0x40)\n      dup1\n      swap2\n      sub\n      swap1\n      revert\n    tag_208:\n        /* \"MegaFactory.sol\":3726:3729  fee */\n      dup1\n        /* \"MegaFactory.sol\":3713:3723  devPercent */\n      0x09\n        /* \"MegaFactory.sol\":3713:3729  devPercent = fee */\n      dup2\n      swap1\n      sstore\n      pop\n        /* \"MegaFactory.sol\":3650:3736  function setDevPercent(uint256 fee) public onlyOwner {... */\n      pop\n      jump\t// out\n        /* \"MegaFactory.sol\":3245:3350  function setListGame(address game, bool active) public onlyOwner {... */\n    tag_87:\n        /* \"Ownable.sol\":1189:1201  _msgSender() */\n      tag_212\n        /* \"Ownable.sol\":1189:1199  _msgSender */\n      tag_153\n        /* \"Ownable.sol\":1189:1201  _msgSender() */\n      jump\t// in\n    tag_212:\n        /* \"Ownable.sol\":1178:1201  owner() == _msgSender() */\n      0xffffffffffffffffffffffffffffffffffffffff\n      and\n        /* \"Ownable.sol\":1178:1185  owner() */\n      tag_213\n        /* \"Ownable.sol\":1178:1183  owner */\n      tag_112\n        /* \"Ownable.sol\":1178:1185  owner() */\n      jump\t// in\n    tag_213:\n        /* \"Ownable.sol\":1178:1201  owner() == _msgSender() */\n      0xffffffffffffffffffffffffffffffffffffffff\n      and\n      eq\n        /* \"Ownable.sol\":1170:1238  require(owner() == _msgSender(), \"Ownable: caller is not the owner\") */\n      tag_214\n      jumpi\n      mload(0x40)\n      0x08c379a000000000000000000000000000000000000000000000000000000000\n      dup2\n      mstore\n      0x04\n      add\n      tag_215\n      swap1\n      tag_157\n      jump\t// in\n    tag_215:\n      mload(0x40)\n      dup1\n      swap2\n      sub\n      swap1\n      revert\n    tag_214:\n        /* \"MegaFactory.sol\":3337:3343  active */\n      dup1\n        /* \"MegaFactory.sol\":3320:3328  listGame */\n      0x0b\n        /* \"MegaFactory.sol\":3320:3334  listGame[game] */\n      0x00\n        /* \"MegaFactory.sol\":3329:3333  game */\n      dup5\n        /* \"MegaFactory.sol\":3320:3334  listGame[game] */\n      0xffffffffffffffffffffffffffffffffffffffff\n      and\n      0xffffffffffffffffffffffffffffffffffffffff\n      and\n      dup2\n      mstore\n      0x20\n      add\n      swap1\n      dup2\n      mstore\n      0x20\n      add\n      0x00\n      keccak256\n      0x00\n        /* \"MegaFactory.sol\":3320:3343  listGame[game] = active */\n      0x0100\n      exp\n      dup2\n      sload\n      dup2\n      0xff\n      mul\n      not\n      and\n      swap1\n      dup4\n      iszero\n      iszero\n      mul\n      or\n      swap1\n      sstore\n      pop\n        /* \"MegaFactory.sol\":3245:3350  function setListGame(address game, bool active) public onlyOwner {... */\n      pop\n      pop\n      jump\t// out\n        /* \"Ownable.sol\":1598:1690  function renounceOwnership() public virtual onlyOwner {... */\n    tag_90:\n        /* \"Ownable.sol\":1189:1201  _msgSender() */\n      tag_218\n        /* \"Ownable.sol\":1189:1199  _msgSender */\n      tag_153\n        /* \"Ownable.sol\":1189:1201  _msgSender() */\n      jump\t// in\n    tag_218:\n        /* \"Ownable.sol\":1178:1201  owner() == _msgSender() */\n      0xffffffffffffffffffffffffffffffffffffffff\n      and\n        /* \"Ownable.sol\":1178:1185  owner() */\n      tag_219\n        /* \"Ownable.sol\":1178:1183  owner */\n      tag_112\n        /* \"Ownable.sol\":1178:1185  owner() */\n      jump\t// in\n    tag_219:\n        /* \"Ownable.sol\":1178:1201  owner() == _msgSender() */\n      0xffffffffffffffffffffffffffffffffffffffff\n      and\n      eq\n        /* \"Ownable.sol\":1170:1238  require(owner() == _msgSender(), \"Ownable: caller is not the owner\") */\n      tag_220\n      jumpi\n      mload(0x40)\n      0x08c379a000000000000000000000000000000000000000000000000000000000\n      dup2\n      mstore\n      0x04\n      add\n      tag_221\n      swap1\n      tag_157\n      jump\t// in\n    tag_221:\n      mload(0x40)\n      dup1\n      swap2\n      sub\n      swap1\n      revert\n    tag_220:\n        /* \"Ownable.sol\":1662:1683  _setOwner(address(0)) */\n      tag_223\n        /* \"Ownable.sol\":1680:1681  0 */\n      0x00\n        /* \"Ownable.sol\":1662:1671  _setOwner */\n      tag_224\n        /* \"Ownable.sol\":1662:1683  _setOwner(address(0)) */\n      jump\t// in\n    tag_223:\n        /* \"Ownable.sol\":1598:1690  function renounceOwnership() public virtual onlyOwner {... */\n      jump\t// out\n        /* \"MegaFactory.sol\":4160:4433  function SwapExactToken(... */\n    tag_95:\n        /* \"Ownable.sol\":1189:1201  _msgSender() */\n      tag_226\n        /* \"Ownable.sol\":1189:1199  _msgSender */\n      tag_153\n        /* \"Ownable.sol\":1189:1201  _msgSender() */\n      jump\t// in\n    tag_226:\n        /* \"Ownable.sol\":1178:1201  owner() == _msgSender() */\n      0xffffffffffffffffffffffffffffffffffffffff\n      and\n        /* \"Ownable.sol\":1178:1185  owner() */\n      tag_227\n        /* \"Ownable.sol\":1178:1183  owner */\n      tag_112\n        /* \"Ownable.sol\":1178:1185  owner() */\n      jump\t// in\n    tag_227:\n        /* \"Ownable.sol\":1178:1201  owner() == _msgSender() */\n      0xffffffffffffffffffffffffffffffffffffffff\n      and\n      eq\n        /* \"Ownable.sol\":1170:1238  require(owner() == _msgSender(), \"Ownable: caller is not the owner\") */\n      tag_228\n      jumpi\n      mload(0x40)\n      0x08c379a000000000000000000000000000000000000000000000000000000000\n      dup2\n      mstore\n      0x04\n      add\n      tag_229\n      swap1\n      tag_157\n      jump\t// in\n    tag_229:\n      mload(0x40)\n      dup1\n      swap2\n      sub\n      swap1\n      revert\n    tag_228:\n        /* \"MegaFactory.sol\":4324:4325  0 */\n      0x00\n        /* \"MegaFactory.sol\":4301:4326  coinAddress == address(0) */\n      0xffffffffffffffffffffffffffffffffffffffff\n      and\n        /* \"MegaFactory.sol\":4301:4312  coinAddress */\n      dup4\n        /* \"MegaFactory.sol\":4301:4326  coinAddress == address(0) */\n      0xffffffffffffffffffffffffffffffffffffffff\n      and\n      sub\n        /* \"MegaFactory.sol\":4297:4378  if (coinAddress == address(0)) {... */\n      tag_231\n      jumpi\n        /* \"MegaFactory.sol\":4349:4351  to */\n      dup1\n        /* \"MegaFactory.sol\":4349:4360  to.transfer */\n      0xffffffffffffffffffffffffffffffffffffffff\n      and\n        /* \"MegaFactory.sol\":4349:4367  to.transfer(value) */\n      0x08fc\n        /* \"MegaFactory.sol\":4361:4366  value */\n      dup4\n        /* \"MegaFactory.sol\":4349:4367  to.transfer(value) */\n      swap1\n      dup2\n      iszero\n      mul\n      swap1\n      mload(0x40)\n      0x00\n      mload(0x40)\n      dup1\n      dup4\n      sub\n      dup2\n      dup6\n      dup9\n      dup9\n      call\n      swap4\n      pop\n      pop\n      pop\n      pop\n      iszero\n      dup1\n      iszero\n      tag_233\n      jumpi\n      returndatasize\n      0x00\n      dup1\n      returndatacopy\n      revert(0x00, returndatasize)\n    tag_233:\n      pop\n        /* \"MegaFactory.sol\":4342:4367  return to.transfer(value) */\n      jump(tag_230)\n        /* \"MegaFactory.sol\":4297:4378  if (coinAddress == address(0)) {... */\n    tag_231:\n        /* \"MegaFactory.sol\":4394:4405  coinAddress */\n      dup3\n        /* \"MegaFactory.sol\":4387:4415  IERC20(coinAddress).transfer */\n      0xffffffffffffffffffffffffffffffffffffffff\n      and\n      0xa9059cbb\n        /* \"MegaFactory.sol\":4416:4418  to */\n      dup3\n        /* \"MegaFactory.sol\":4420:4425  value */\n      dup5\n        /* \"MegaFactory.sol\":4387:4426  IERC20(coinAddress).transfer(to, value) */\n      mload(0x40)\n      dup4\n      0xffffffff\n      and\n      0xe0\n      shl\n      dup2\n      mstore\n      0x04\n      add\n      tag_234\n      swap3\n      swap2\n      swap1\n      tag_235\n      jump\t// in\n    tag_234:\n      0x20\n      mload(0x40)\n      dup1\n      dup4\n      sub\n      dup2\n      0x00\n      dup8\n      gas\n      call\n      iszero\n      dup1\n      iszero\n      tag_237\n      jumpi\n      returndatasize\n      0x00\n      dup1\n      returndatacopy\n      revert(0x00, returndatasize)\n    tag_237:\n      pop\n      pop\n      pop\n      pop\n      mload(0x40)\n      returndatasize\n      not(0x1f)\n      0x1f\n      dup3\n      add\n      and\n      dup3\n      add\n      dup1\n      0x40\n      mstore\n      pop\n      dup2\n      add\n      swap1\n      tag_238\n      swap2\n      swap1\n      tag_239\n      jump\t// in\n    tag_238:\n      pop\n        /* \"Ownable.sol\":1248:1249  _ */\n    tag_230:\n        /* \"MegaFactory.sol\":4160:4433  function SwapExactToken(... */\n      pop\n      pop\n      pop\n      jump\t// out\n        /* \"MegaFactory.sol\":1364:1404  mapping(address => bool) public listGame */\n    tag_99:\n      mstore(0x20, 0x0b)\n      dup1\n      0x00\n      mstore\n      keccak256(0x00, 0x40)\n      0x00\n      swap2\n      pop\n      sload\n      swap1\n      0x0100\n      exp\n      swap1\n      div\n      0xff\n      and\n      dup2\n      jump\t// out\n        /* \"MegaFactory.sol\":1662:2525  function deployedGame(address game, address token) public payable {... */\n    tag_105:\n        /* \"MegaFactory.sol\":1764:1768  true */\n      0x01\n        /* \"MegaFactory.sol\":1746:1768  listGame[game] == true */\n      iszero\n      iszero\n        /* \"MegaFactory.sol\":1746:1754  listGame */\n      0x0b\n        /* \"MegaFactory.sol\":1746:1760  listGame[game] */\n      0x00\n        /* \"MegaFactory.sol\":1755:1759  game */\n      dup5\n        /* \"MegaFactory.sol\":1746:1760  listGame[game] */\n      0xffffffffffffffffffffffffffffffffffffffff\n      and\n      0xffffffffffffffffffffffffffffffffffffffff\n      and\n      dup2\n      mstore\n      0x20\n      add\n      swap1\n      dup2\n      mstore\n      0x20\n      add\n      0x00\n      keccak256\n      0x00\n      swap1\n      sload\n      swap1\n      0x0100\n      exp\n      swap1\n      div\n      0xff\n      and\n        /* \"MegaFactory.sol\":1746:1768  listGame[game] == true */\n      iszero\n      iszero\n      eq\n        /* \"MegaFactory.sol\":1738:1787  require(listGame[game] == true, \"Game not found\") */\n      tag_241\n      jumpi\n      mload(0x40)\n      0x08c379a000000000000000000000000000000000000000000000000000000000\n      dup2\n      mstore\n      0x04\n      add\n      tag_242\n      swap1\n      tag_185\n      jump\t// in\n    tag_242:\n      mload(0x40)\n      dup1\n      swap2\n      sub\n      swap1\n      revert\n    tag_241:\n        /* \"MegaFactory.sol\":1818:1829  deployedFee */\n      sload(0x07)\n        /* \"MegaFactory.sol\":1805:1814  msg.value */\n      callvalue\n        /* \"MegaFactory.sol\":1805:1829  msg.value >= deployedFee */\n      lt\n      iszero\n        /* \"MegaFactory.sol\":1797:1848  require(msg.value >= deployedFee, \"Invalid amount\") */\n      tag_243\n      jumpi\n      mload(0x40)\n      0x08c379a000000000000000000000000000000000000000000000000000000000\n      dup2\n      mstore\n      0x04\n      add\n      tag_244\n      swap1\n      tag_245\n      jump\t// in\n    tag_244:\n      mload(0x40)\n      dup1\n      swap2\n      sub\n      swap1\n      revert\n    tag_243:\n        /* \"MegaFactory.sol\":1899:1900  0 */\n      0x00\n        /* \"MegaFactory.sol\":1866:1901  address(MegaItemsNFT) != address(0) */\n      0xffffffffffffffffffffffffffffffffffffffff\n      and\n        /* \"MegaFactory.sol\":1874:1886  MegaItemsNFT */\n      0x03\n      0x00\n      swap1\n      sload\n      swap1\n      0x0100\n      exp\n      swap1\n      div\n      0xffffffffffffffffffffffffffffffffffffffff\n      and\n        /* \"MegaFactory.sol\":1866:1901  address(MegaItemsNFT) != address(0) */\n      0xffffffffffffffffffffffffffffffffffffffff\n      and\n      sub\n        /* \"MegaFactory.sol\":1858:1928  require(address(MegaItemsNFT) != address(0), \"Contract NFT not found\") */\n      tag_246\n      jumpi\n      mload(0x40)\n      0x08c379a000000000000000000000000000000000000000000000000000000000\n      dup2\n      mstore\n      0x04\n      add\n      tag_247\n      swap1\n      tag_248\n      jump\t// in\n    tag_247:\n      mload(0x40)\n      dup1\n      swap2\n      sub\n      swap1\n      revert\n    tag_246:\n        /* \"MegaFactory.sol\":1938:1952  uint256 affFee */\n      0x00\n        /* \"MegaFactory.sol\":1955:2004  deployedFee.mul(affPercent).div(PERCENTS_DIVIDER) */\n      tag_249\n        /* \"MegaFactory.sol\":923:927  1000 */\n      0x03e8\n        /* \"MegaFactory.sol\":1955:1982  deployedFee.mul(affPercent) */\n      tag_250\n        /* \"MegaFactory.sol\":1971:1981  affPercent */\n      sload(0x08)\n        /* \"MegaFactory.sol\":1955:1966  deployedFee */\n      sload(0x07)\n        /* \"MegaFactory.sol\":1955:1970  deployedFee.mul */\n      tag_251\n      swap1\n        /* \"MegaFactory.sol\":1955:1982  deployedFee.mul(affPercent) */\n      swap2\n      swap1\n      0xffffffff\n      and\n      jump\t// in\n    tag_250:\n        /* \"MegaFactory.sol\":1955:1986  deployedFee.mul(affPercent).div */\n      tag_252\n      swap1\n        /* \"MegaFactory.sol\":1955:2004  deployedFee.mul(affPercent).div(PERCENTS_DIVIDER) */\n      swap2\n      swap1\n      0xffffffff\n      and\n      jump\t// in\n    tag_249:\n        /* \"MegaFactory.sol\":1938:2004  uint256 affFee = deployedFee.mul(affPercent).div(PERCENTS_DIVIDER) */\n      swap1\n      pop\n        /* \"MegaFactory.sol\":2014:2028  uint256 devFee */\n      0x00\n        /* \"MegaFactory.sol\":2031:2080  deployedFee.mul(devPercent).div(PERCENTS_DIVIDER) */\n      tag_253\n        /* \"MegaFactory.sol\":923:927  1000 */\n      0x03e8\n        /* \"MegaFactory.sol\":2031:2058  deployedFee.mul(devPercent) */\n      tag_254\n        /* \"MegaFactory.sol\":2047:2057  devPercent */\n      sload(0x09)\n        /* \"MegaFactory.sol\":2031:2042  deployedFee */\n      sload(0x07)\n        /* \"MegaFactory.sol\":2031:2046  deployedFee.mul */\n      tag_251\n      swap1\n        /* \"MegaFactory.sol\":2031:2058  deployedFee.mul(devPercent) */\n      swap2\n      swap1\n      0xffffffff\n      and\n      jump\t// in\n    tag_254:\n        /* \"MegaFactory.sol\":2031:2062  deployedFee.mul(devPercent).div */\n      tag_252\n      swap1\n        /* \"MegaFactory.sol\":2031:2080  deployedFee.mul(devPercent).div(PERCENTS_DIVIDER) */\n      swap2\n      swap1\n      0xffffffff\n      and\n      jump\t// in\n    tag_253:\n        /* \"MegaFactory.sol\":2014:2080  uint256 devFee = deployedFee.mul(devPercent).div(PERCENTS_DIVIDER) */\n      swap1\n      pop\n        /* \"MegaFactory.sol\":2090:2104  uint256 mktFee */\n      0x00\n        /* \"MegaFactory.sol\":2107:2142  deployedFee.sub(affFee).sub(devFee) */\n      tag_255\n        /* \"MegaFactory.sol\":2135:2141  devFee */\n      dup3\n        /* \"MegaFactory.sol\":2107:2130  deployedFee.sub(affFee) */\n      tag_256\n        /* \"MegaFactory.sol\":2123:2129  affFee */\n      dup6\n        /* \"MegaFactory.sol\":2107:2118  deployedFee */\n      sload(0x07)\n        /* \"MegaFactory.sol\":2107:2122  deployedFee.sub */\n      tag_257\n      swap1\n        /* \"MegaFactory.sol\":2107:2130  deployedFee.sub(affFee) */\n      swap2\n      swap1\n      0xffffffff\n      and\n      jump\t// in\n    tag_256:\n        /* \"MegaFactory.sol\":2107:2134  deployedFee.sub(affFee).sub */\n      tag_257\n      swap1\n        /* \"MegaFactory.sol\":2107:2142  deployedFee.sub(affFee).sub(devFee) */\n      swap2\n      swap1\n      0xffffffff\n      and\n      jump\t// in\n    tag_255:\n        /* \"MegaFactory.sol\":2090:2142  uint256 mktFee = deployedFee.sub(affFee).sub(devFee) */\n      swap1\n      pop\n        /* \"MegaFactory.sol\":2152:2162  topAddress */\n      0x06\n      0x00\n      swap1\n      sload\n      swap1\n      0x0100\n      exp\n      swap1\n      div\n      0xffffffffffffffffffffffffffffffffffffffff\n      and\n        /* \"MegaFactory.sol\":2152:2171  topAddress.transfer */\n      0xffffffffffffffffffffffffffffffffffffffff\n      and\n        /* \"MegaFactory.sol\":2152:2179  topAddress.transfer(affFee) */\n      0x08fc\n        /* \"MegaFactory.sol\":2172:2178  affFee */\n      dup5\n        /* \"MegaFactory.sol\":2152:2179  topAddress.transfer(affFee) */\n      swap1\n      dup2\n      iszero\n      mul\n      swap1\n      mload(0x40)\n      0x00\n      mload(0x40)\n      dup1\n      dup4\n      sub\n      dup2\n      dup6\n      dup9\n      dup9\n      call\n      swap4\n      pop\n      pop\n      pop\n      pop\n      iszero\n      dup1\n      iszero\n      tag_259\n      jumpi\n      returndatasize\n      0x00\n      dup1\n      returndatacopy\n      revert(0x00, returndatasize)\n    tag_259:\n      pop\n        /* \"MegaFactory.sol\":2189:2198  devWallet */\n      0x04\n      0x00\n      swap1\n      sload\n      swap1\n      0x0100\n      exp\n      swap1\n      div\n      0xffffffffffffffffffffffffffffffffffffffff\n      and\n        /* \"MegaFactory.sol\":2189:2207  devWallet.transfer */\n      0xffffffffffffffffffffffffffffffffffffffff\n      and\n        /* \"MegaFactory.sol\":2189:2215  devWallet.transfer(devFee) */\n      0x08fc\n        /* \"MegaFactory.sol\":2208:2214  devFee */\n      dup4\n        /* \"MegaFactory.sol\":2189:2215  devWallet.transfer(devFee) */\n      swap1\n      dup2\n      iszero\n      mul\n      swap1\n      mload(0x40)\n      0x00\n      mload(0x40)\n      dup1\n      dup4\n      sub\n      dup2\n      dup6\n      dup9\n      dup9\n      call\n      swap4\n      pop\n      pop\n      pop\n      pop\n      iszero\n      dup1\n      iszero\n      tag_261\n      jumpi\n      returndatasize\n      0x00\n      dup1\n      returndatacopy\n      revert(0x00, returndatasize)\n    tag_261:\n      pop\n        /* \"MegaFactory.sol\":2225:2234  mktWallet */\n      0x05\n      0x00\n      swap1\n      sload\n      swap1\n      0x0100\n      exp\n      swap1\n      div\n      0xffffffffffffffffffffffffffffffffffffffff\n      and\n        /* \"MegaFactory.sol\":2225:2243  mktWallet.transfer */\n      0xffffffffffffffffffffffffffffffffffffffff\n      and\n        /* \"MegaFactory.sol\":2225:2251  mktWallet.transfer(mktFee) */\n      0x08fc\n        /* \"MegaFactory.sol\":2244:2250  mktFee */\n      dup3\n        /* \"MegaFactory.sol\":2225:2251  mktWallet.transfer(mktFee) */\n      swap1\n      dup2\n      iszero\n      mul\n      swap1\n      mload(0x40)\n      0x00\n      mload(0x40)\n      dup1\n      dup4\n      sub\n      dup2\n      dup6\n      dup9\n      dup9\n      call\n      swap4\n      pop\n      pop\n      pop\n      pop\n      iszero\n      dup1\n      iszero\n      tag_263\n      jumpi\n      returndatasize\n      0x00\n      dup1\n      returndatacopy\n      revert(0x00, returndatasize)\n    tag_263:\n      pop\n        /* \"MegaFactory.sol\":2261:2278  address gameClone */\n      0x00\n        /* \"MegaFactory.sol\":2281:2298  createClone(game) */\n      tag_264\n        /* \"MegaFactory.sol\":2293:2297  game */\n      dup7\n        /* \"MegaFactory.sol\":2281:2292  createClone */\n      tag_265\n        /* \"MegaFactory.sol\":2281:2298  createClone(game) */\n      jump\t// in\n    tag_264:\n        /* \"MegaFactory.sol\":2261:2298  address gameClone = createClone(game) */\n      swap1\n      pop\n        /* \"MegaFactory.sol\":2321:2330  gameClone */\n      dup1\n        /* \"MegaFactory.sol\":2308:2340  IMegaJackpot(gameClone).setToken */\n      0xffffffffffffffffffffffffffffffffffffffff\n      and\n      0x144fa6d7\n        /* \"MegaFactory.sol\":2341:2346  token */\n      dup7\n        /* \"MegaFactory.sol\":2308:2347  IMegaJackpot(gameClone).setToken(token) */\n      mload(0x40)\n      dup3\n      0xffffffff\n      and\n      0xe0\n      shl\n      dup2\n      mstore\n      0x04\n      add\n      tag_266\n      swap2\n      swap1\n      tag_114\n      jump\t// in\n    tag_266:\n      0x00\n      mload(0x40)\n      dup1\n      dup4\n      sub\n      dup2\n      0x00\n      dup8\n      dup1\n      extcodesize\n      iszero\n      dup1\n      iszero\n      tag_267\n      jumpi\n      0x00\n      dup1\n      revert\n    tag_267:\n      pop\n      gas\n      call\n      iszero\n      dup1\n      iszero\n      tag_269\n      jumpi\n      returndatasize\n      0x00\n      dup1\n      returndatacopy\n      revert(0x00, returndatasize)\n    tag_269:\n      pop\n      pop\n      pop\n      pop\n        /* \"MegaFactory.sol\":2370:2379  gameClone */\n      dup1\n        /* \"MegaFactory.sol\":2357:2402  IMegaJackpot(gameClone).setProjectOwnerWallet */\n      0xffffffffffffffffffffffffffffffffffffffff\n      and\n      0xab346b0a\n        /* \"MegaFactory.sol\":2403:2415  _msgSender() */\n      tag_270\n        /* \"MegaFactory.sol\":2403:2413  _msgSender */\n      tag_153\n        /* \"MegaFactory.sol\":2403:2415  _msgSender() */\n      jump\t// in\n    tag_270:\n        /* \"MegaFactory.sol\":2357:2416  IMegaJackpot(gameClone).setProjectOwnerWallet(_msgSender()) */\n      mload(0x40)\n      dup3\n      0xffffffff\n      and\n      0xe0\n      shl\n      dup2\n      mstore\n      0x04\n      add\n      tag_271\n      swap2\n      swap1\n      tag_114\n      jump\t// in\n    tag_271:\n      0x00\n      mload(0x40)\n      dup1\n      dup4\n      sub\n      dup2\n      0x00\n      dup8\n      dup1\n      extcodesize\n      iszero\n      dup1\n      iszero\n      tag_272\n      jumpi\n      0x00\n      dup1\n      revert\n    tag_272:\n      pop\n      gas\n      call\n      iszero\n      dup1\n      iszero\n      tag_274\n      jumpi\n      returndatasize\n      0x00\n      dup1\n      returndatacopy\n      revert(0x00, returndatasize)\n    tag_274:\n      pop\n      pop\n      pop\n      pop\n        /* \"MegaFactory.sol\":2431:2518  DeployedGame(gameClone, _msgSender(), game, token, deployedFee, affFee, devFee, mktFee) */\n      0xd5a9b24ab47b03ff4180571dd82bdfb1b301682ef89e3641dfa041ad648a5933\n        /* \"MegaFactory.sol\":2444:2453  gameClone */\n      dup2\n        /* \"MegaFactory.sol\":2455:2467  _msgSender() */\n      tag_275\n        /* \"MegaFactory.sol\":2455:2465  _msgSender */\n      tag_153\n        /* \"MegaFactory.sol\":2455:2467  _msgSender() */\n      jump\t// in\n    tag_275:\n        /* \"MegaFactory.sol\":2469:2473  game */\n      dup9\n        /* \"MegaFactory.sol\":2475:2480  token */\n      dup9\n        /* \"MegaFactory.sol\":2482:2493  deployedFee */\n      sload(0x07)\n        /* \"MegaFactory.sol\":2495:2501  affFee */\n      dup10\n        /* \"MegaFactory.sol\":2503:2509  devFee */\n      dup10\n        /* \"MegaFactory.sol\":2511:2517  mktFee */\n      dup10\n        /* \"MegaFactory.sol\":2431:2518  DeployedGame(gameClone, _msgSender(), game, token, deployedFee, affFee, devFee, mktFee) */\n      mload(0x40)\n      tag_276\n      swap9\n      swap8\n      swap7\n      swap6\n      swap5\n      swap4\n      swap3\n      swap2\n      swap1\n      tag_277\n      jump\t// in\n    tag_276:\n      mload(0x40)\n      dup1\n      swap2\n      sub\n      swap1\n      log1\n        /* \"MegaFactory.sol\":1728:2525  {... */\n      pop\n      pop\n      pop\n      pop\n        /* \"MegaFactory.sol\":1662:2525  function deployedGame(address game, address token) public payable {... */\n      pop\n      pop\n      jump\t// out\n        /* \"MegaFactory.sol\":3558:3644  function setAffPercent(uint256 fee) public onlyOwner {... */\n    tag_109:\n        /* \"Ownable.sol\":1189:1201  _msgSender() */\n      tag_279\n        /* \"Ownable.sol\":1189:1199  _msgSender */\n      tag_153\n        /* \"Ownable.sol\":1189:1201  _msgSender() */\n      jump\t// in\n    tag_279:\n        /* \"Ownable.sol\":1178:1201  owner() == _msgSender() */\n      0xffffffffffffffffffffffffffffffffffffffff\n      and\n        /* \"Ownable.sol\":1178:1185  owner() */\n      tag_280\n        /* \"Ownable.sol\":1178:1183  owner */\n      tag_112\n        /* \"Ownable.sol\":1178:1185  owner() */\n      jump\t// in\n    tag_280:\n        /* \"Ownable.sol\":1178:1201  owner() == _msgSender() */\n      0xffffffffffffffffffffffffffffffffffffffff\n      and\n      eq\n        /* \"Ownable.sol\":1170:1238  require(owner() == _msgSender(), \"Ownable: caller is not the owner\") */\n      tag_281\n      jumpi\n      mload(0x40)\n      0x08c379a000000000000000000000000000000000000000000000000000000000\n      dup2\n      mstore\n      0x04\n      add\n      tag_282\n      swap1\n      tag_157\n      jump\t// in\n    tag_282:\n      mload(0x40)\n      dup1\n      swap2\n      sub\n      swap1\n      revert\n    tag_281:\n        /* \"MegaFactory.sol\":3634:3637  fee */\n      dup1\n        /* \"MegaFactory.sol\":3621:3631  affPercent */\n      0x08\n        /* \"MegaFactory.sol\":3621:3637  affPercent = fee */\n      dup2\n      swap1\n      sstore\n      pop\n        /* \"MegaFactory.sol\":3558:3644  function setAffPercent(uint256 fee) public onlyOwner {... */\n      pop\n      jump\t// out\n        /* \"Ownable.sol\":966:1051  function owner() public view virtual returns (address) {... */\n    tag_112:\n        /* \"Ownable.sol\":1012:1019  address */\n      0x00\n        /* \"Ownable.sol\":1038:1044  _owner */\n      0x01\n      0x00\n      swap1\n      sload\n      swap1\n      0x0100\n      exp\n      swap1\n      div\n      0xffffffffffffffffffffffffffffffffffffffff\n      and\n        /* \"Ownable.sol\":1031:1044  return _owner */\n      swap1\n      pop\n        /* \"Ownable.sol\":966:1051  function owner() public view virtual returns (address) {... */\n      swap1\n      jump\t// out\n        /* \"MegaFactory.sol\":933:1019  address payable public devWallet = payable(0x8b9588F69e04D69655e0d866cD701844177360A7) */\n    tag_117:\n      0x04\n      0x00\n      swap1\n      sload\n      swap1\n      0x0100\n      exp\n      swap1\n      div\n      0xffffffffffffffffffffffffffffffffffffffff\n      and\n      dup2\n      jump\t// out\n        /* \"MegaFactory.sol\":3356:3460  function setNFTContract(address nft) public onlyOwner {... */\n    tag_122:\n        /* \"Ownable.sol\":1189:1201  _msgSender() */\n      tag_286\n        /* \"Ownable.sol\":1189:1199  _msgSender */\n      tag_153\n        /* \"Ownable.sol\":1189:1201  _msgSender() */\n      jump\t// in\n    tag_286:\n        /* \"Ownable.sol\":1178:1201  owner() == _msgSender() */\n      0xffffffffffffffffffffffffffffffffffffffff\n      and\n        /* \"Ownable.sol\":1178:1185  owner() */\n      tag_287\n        /* \"Ownable.sol\":1178:1183  owner */\n      tag_112\n        /* \"Ownable.sol\":1178:1185  owner() */\n      jump\t// in\n    tag_287:\n        /* \"Ownable.sol\":1178:1201  owner() == _msgSender() */\n      0xffffffffffffffffffffffffffffffffffffffff\n      and\n      eq\n        /* \"Ownable.sol\":1170:1238  require(owner() == _msgSender(), \"Ownable: caller is not the owner\") */\n      tag_288\n      jumpi\n      mload(0x40)\n      0x08c379a000000000000000000000000000000000000000000000000000000000\n      dup2\n      mstore\n      0x04\n      add\n      tag_289\n      swap1\n      tag_157\n      jump\t// in\n    tag_289:\n      mload(0x40)\n      dup1\n      swap2\n      sub\n      swap1\n      revert\n    tag_288:\n        /* \"MegaFactory.sol\":3449:3452  nft */\n      dup1\n        /* \"MegaFactory.sol\":3420:3432  MegaItemsNFT */\n      0x03\n      0x00\n        /* \"MegaFactory.sol\":3420:3453  MegaItemsNFT = MegaItemsCore(nft) */\n      0x0100\n      exp\n      dup2\n      sload\n      dup2\n      0xffffffffffffffffffffffffffffffffffffffff\n      mul\n      not\n      and\n      swap1\n      dup4\n      0xffffffffffffffffffffffffffffffffffffffff\n      and\n      mul\n      or\n      swap1\n      sstore\n      pop\n        /* \"MegaFactory.sol\":3356:3460  function setNFTContract(address nft) public onlyOwner {... */\n      pop\n      jump\t// out\n        /* \"MegaFactory.sol\":3466:3552  function setDeployFee(uint256 fee) public onlyOwner {... */\n    tag_126:\n        /* \"Ownable.sol\":1189:1201  _msgSender() */\n      tag_292\n        /* \"Ownable.sol\":1189:1199  _msgSender */\n      tag_153\n        /* \"Ownable.sol\":1189:1201  _msgSender() */\n      jump\t// in\n    tag_292:\n        /* \"Ownable.sol\":1178:1201  owner() == _msgSender() */\n      0xffffffffffffffffffffffffffffffffffffffff\n      and\n        /* \"Ownable.sol\":1178:1185  owner() */\n      tag_293\n        /* \"Ownable.sol\":1178:1183  owner */\n      tag_112\n        /* \"Ownable.sol\":1178:1185  owner() */\n      jump\t// in\n    tag_293:\n        /* \"Ownable.sol\":1178:1201  owner() == _msgSender() */\n      0xffffffffffffffffffffffffffffffffffffffff\n      and\n      eq\n        /* \"Ownable.sol\":1170:1238  require(owner() == _msgSender(), \"Ownable: caller is not the owner\") */\n      tag_294\n      jumpi\n      mload(0x40)\n      0x08c379a000000000000000000000000000000000000000000000000000000000\n      dup2\n      mstore\n      0x04\n      add\n      tag_295\n      swap1\n      tag_157\n      jump\t// in\n    tag_295:\n      mload(0x40)\n      dup1\n      swap2\n      sub\n      swap1\n      revert\n    tag_294:\n        /* \"MegaFactory.sol\":3542:3545  fee */\n      dup1\n        /* \"MegaFactory.sol\":3528:3539  deployedFee */\n      0x07\n        /* \"MegaFactory.sol\":3528:3545  deployedFee = fee */\n      dup2\n      swap1\n      sstore\n      pop\n        /* \"MegaFactory.sol\":3466:3552  function setDeployFee(uint256 fee) public onlyOwner {... */\n      pop\n      jump\t// out\n        /* \"MegaFactory.sol\":1210:1250  uint256 public deployedFee = 0.002 ether */\n    tag_129:\n      sload(0x07)\n      dup2\n      jump\t// out\n        /* \"MegaFactory.sol\":1330:1358  uint256 public sytemFee = 10 */\n    tag_133:\n      sload(0x0a)\n      dup2\n      jump\t// out\n        /* \"MegaFactory.sol\":1025:1111  address payable public mktWallet = payable(0x8b9588F69e04D69655e0d866cD701844177360A7) */\n    tag_137:\n      0x05\n      0x00\n      swap1\n      sload\n      swap1\n      0x0100\n      exp\n      swap1\n      div\n      0xffffffffffffffffffffffffffffffffffffffff\n      and\n      dup2\n      jump\t// out\n        /* \"MegaFactory.sol\":4051:4154  function setTopAddress(address _wallet) public onlyOwner {... */\n    tag_142:\n        /* \"Ownable.sol\":1189:1201  _msgSender() */\n      tag_298\n        /* \"Ownable.sol\":1189:1199  _msgSender */\n      tag_153\n        /* \"Ownable.sol\":1189:1201  _msgSender() */\n      jump\t// in\n    tag_298:\n        /* \"Ownable.sol\":1178:1201  owner() == _msgSender() */\n      0xffffffffffffffffffffffffffffffffffffffff\n      and\n        /* \"Ownable.sol\":1178:1185  owner() */\n      tag_299\n        /* \"Ownable.sol\":1178:1183  owner */\n      tag_112\n        /* \"Ownable.sol\":1178:1185  owner() */\n      jump\t// in\n    tag_299:\n        /* \"Ownable.sol\":1178:1201  owner() == _msgSender() */\n      0xffffffffffffffffffffffffffffffffffffffff\n      and\n      eq\n        /* \"Ownable.sol\":1170:1238  require(owner() == _msgSender(), \"Ownable: caller is not the owner\") */\n      tag_300\n      jumpi\n      mload(0x40)\n      0x08c379a000000000000000000000000000000000000000000000000000000000\n      dup2\n      mstore\n      0x04\n      add\n      tag_301\n      swap1\n      tag_157\n      jump\t// in\n    tag_301:\n      mload(0x40)\n      dup1\n      swap2\n      sub\n      swap1\n      revert\n    tag_300:\n        /* \"MegaFactory.sol\":4139:4146  _wallet */\n      dup1\n        /* \"MegaFactory.sol\":4118:4128  topAddress */\n      0x06\n      0x00\n        /* \"MegaFactory.sol\":4118:4147  topAddress = payable(_wallet) */\n      0x0100\n      exp\n      dup2\n      sload\n      dup2\n      0xffffffffffffffffffffffffffffffffffffffff\n      mul\n      not\n      and\n      swap1\n      dup4\n      0xffffffffffffffffffffffffffffffffffffffff\n      and\n      mul\n      or\n      swap1\n      sstore\n      pop\n        /* \"MegaFactory.sol\":4051:4154  function setTopAddress(address _wallet) public onlyOwner {... */\n      pop\n      jump\t// out\n        /* \"Ownable.sol\":1839:2028  function transferOwnership(address newOwner) public virtual onlyOwner {... */\n    tag_146:\n        /* \"Ownable.sol\":1189:1201  _msgSender() */\n      tag_304\n        /* \"Ownable.sol\":1189:1199  _msgSender */\n      tag_153\n        /* \"Ownable.sol\":1189:1201  _msgSender() */\n      jump\t// in\n    tag_304:\n        /* \"Ownable.sol\":1178:1201  owner() == _msgSender() */\n      0xffffffffffffffffffffffffffffffffffffffff\n      and\n        /* \"Ownable.sol\":1178:1185  owner() */\n      tag_305\n        /* \"Ownable.sol\":1178:1183  owner */\n      tag_112\n        /* \"Ownable.sol\":1178:1185  owner() */\n      jump\t// in\n    tag_305:\n        /* \"Ownable.sol\":1178:1201  owner() == _msgSender() */\n      0xffffffffffffffffffffffffffffffffffffffff\n      and\n      eq\n        /* \"Ownable.sol\":1170:1238  require(owner() == _msgSender(), \"Ownable: caller is not the owner\") */\n      tag_306\n      jumpi\n      mload(0x40)\n      0x08c379a000000000000000000000000000000000000000000000000000000000\n      dup2\n      mstore\n      0x04\n      add\n      tag_307\n      swap1\n      tag_157\n      jump\t// in\n    tag_307:\n      mload(0x40)\n      dup1\n      swap2\n      sub\n      swap1\n      revert\n    tag_306:\n        /* \"Ownable.sol\":1947:1948  0 */\n      0x00\n        /* \"Ownable.sol\":1927:1949  newOwner != address(0) */\n      0xffffffffffffffffffffffffffffffffffffffff\n      and\n        /* \"Ownable.sol\":1927:1935  newOwner */\n      dup2\n        /* \"Ownable.sol\":1927:1949  newOwner != address(0) */\n      0xffffffffffffffffffffffffffffffffffffffff\n      and\n      sub\n        /* \"Ownable.sol\":1919:1992  require(newOwner != address(0), \"Ownable: new owner is the zero address\") */\n      tag_309\n      jumpi\n      mload(0x40)\n      0x08c379a000000000000000000000000000000000000000000000000000000000\n      dup2\n      mstore\n      0x04\n      add\n      tag_310\n      swap1\n      tag_311\n      jump\t// in\n    tag_310:\n      mload(0x40)\n      dup1\n      swap2\n      sub\n      swap1\n      revert\n    tag_309:\n        /* \"Ownable.sol\":2002:2021  _setOwner(newOwner) */\n      tag_312\n        /* \"Ownable.sol\":2012:2020  newOwner */\n      dup2\n        /* \"Ownable.sol\":2002:2011  _setOwner */\n      tag_224\n        /* \"Ownable.sol\":2002:2021  _setOwner(newOwner) */\n      jump\t// in\n    tag_312:\n        /* \"Ownable.sol\":1839:2028  function transferOwnership(address newOwner) public virtual onlyOwner {... */\n      pop\n      jump\t// out\n        /* \"MegaFactory.sol\":1293:1324  uint256 public devPercent = 200 */\n    tag_149:\n      sload(0x09)\n      dup2\n      jump\t// out\n        /* \"Context.sol\":587:683  function _msgSender() internal view virtual returns (address) {... */\n    tag_153:\n        /* \"Context.sol\":640:647  address */\n      0x00\n        /* \"Context.sol\":666:676  msg.sender */\n      caller\n        /* \"Context.sol\":659:676  return msg.sender */\n      swap1\n      pop\n        /* \"Context.sol\":587:683  function _msgSender() internal view virtual returns (address) {... */\n      swap1\n      jump\t// out\n        /* \"Ownable.sol\":2034:2203  function _setOwner(address newOwner) private {... */\n    tag_224:\n        /* \"Ownable.sol\":2089:2105  address oldOwner */\n      0x00\n        /* \"Ownable.sol\":2108:2114  _owner */\n      0x01\n      0x00\n      swap1\n      sload\n      swap1\n      0x0100\n      exp\n      swap1\n      div\n      0xffffffffffffffffffffffffffffffffffffffff\n      and\n        /* \"Ownable.sol\":2089:2114  address oldOwner = _owner */\n      swap1\n      pop\n        /* \"Ownable.sol\":2133:2141  newOwner */\n      dup2\n        /* \"Ownable.sol\":2124:2130  _owner */\n      0x01\n      0x00\n        /* \"Ownable.sol\":2124:2141  _owner = newOwner */\n      0x0100\n      exp\n      dup2\n      sload\n      dup2\n      0xffffffffffffffffffffffffffffffffffffffff\n      mul\n      not\n      and\n      swap1\n      dup4\n      0xffffffffffffffffffffffffffffffffffffffff\n      and\n      mul\n      or\n      swap1\n      sstore\n      pop\n        /* \"Ownable.sol\":2187:2195  newOwner */\n      dup2\n        /* \"Ownable.sol\":2156:2196  OwnershipTransferred(oldOwner, newOwner) */\n      0xffffffffffffffffffffffffffffffffffffffff\n      and\n        /* \"Ownable.sol\":2177:2185  oldOwner */\n      dup2\n        /* \"Ownable.sol\":2156:2196  OwnershipTransferred(oldOwner, newOwner) */\n      0xffffffffffffffffffffffffffffffffffffffff\n      and\n      0x8be0079c531659141344cd1fd0a4f28419497f9722a3daafe3b4186f6b6457e0\n      mload(0x40)\n      mload(0x40)\n      dup1\n      swap2\n      sub\n      swap1\n      log3\n        /* \"Ownable.sol\":2079:2203  {... */\n      pop\n        /* \"Ownable.sol\":2034:2203  function _setOwner(address newOwner) private {... */\n      pop\n      jump\t// out\n        /* \"SafeMath.sol\":3382:3478  function mul(uint256 a, uint256 b) internal pure returns (uint256) {... */\n    tag_251:\n        /* \"SafeMath.sol\":3440:3447  uint256 */\n      0x00\n        /* \"SafeMath.sol\":3470:3471  b */\n      dup2\n        /* \"SafeMath.sol\":3466:3467  a */\n      dup4\n        /* \"SafeMath.sol\":3466:3471  a * b */\n      tag_316\n      swap2\n      swap1\n      tag_317\n      jump\t// in\n    tag_316:\n        /* \"SafeMath.sol\":3459:3471  return a * b */\n      swap1\n      pop\n        /* \"SafeMath.sol\":3382:3478  function mul(uint256 a, uint256 b) internal pure returns (uint256) {... */\n      swap3\n      swap2\n      pop\n      pop\n      jump\t// out\n        /* \"SafeMath.sol\":3767:3863  function div(uint256 a, uint256 b) internal pure returns (uint256) {... */\n    tag_252:\n        /* \"SafeMath.sol\":3825:3832  uint256 */\n      0x00\n        /* \"SafeMath.sol\":3855:3856  b */\n      dup2\n        /* \"SafeMath.sol\":3851:3852  a */\n      dup4\n        /* \"SafeMath.sol\":3851:3856  a / b */\n      tag_319\n      swap2\n      swap1\n      tag_320\n      jump\t// in\n    tag_319:\n        /* \"SafeMath.sol\":3844:3856  return a / b */\n      swap1\n      pop\n        /* \"SafeMath.sol\":3767:3863  function div(uint256 a, uint256 b) internal pure returns (uint256) {... */\n      swap3\n      swap2\n      pop\n      pop\n      jump\t// out\n        /* \"SafeMath.sol\":3039:3135  function sub(uint256 a, uint256 b) internal pure returns (uint256) {... */\n    tag_257:\n        /* \"SafeMath.sol\":3097:3104  uint256 */\n      0x00\n        /* \"SafeMath.sol\":3127:3128  b */\n      dup2\n        /* \"SafeMath.sol\":3123:3124  a */\n      dup4\n        /* \"SafeMath.sol\":3123:3128  a - b */\n      tag_322\n      swap2\n      swap1\n      tag_323\n      jump\t// in\n    tag_322:\n        /* \"SafeMath.sol\":3116:3128  return a - b */\n      swap1\n      pop\n        /* \"SafeMath.sol\":3039:3135  function sub(uint256 a, uint256 b) internal pure returns (uint256) {... */\n      swap3\n      swap2\n      pop\n      pop\n      jump\t// out\n        /* \"CloneFactory.sol\":106:591  function createClone(address target) internal returns (address result) {... */\n    tag_265:\n        /* \"CloneFactory.sol\":161:175  address result */\n      0x00\n        /* \"CloneFactory.sol\":187:206  bytes20 targetBytes */\n      dup1\n        /* \"CloneFactory.sol\":217:223  target */\n      dup3\n        /* \"CloneFactory.sol\":209:224  bytes20(target) */\n      0x60\n      shl\n        /* \"CloneFactory.sol\":187:224  bytes20 targetBytes = bytes20(target) */\n      swap1\n      pop\n        /* \"CloneFactory.sol\":276:280  0x40 */\n      0x40\n        /* \"CloneFactory.sol\":270:281  mload(0x40) */\n      mload\n        /* \"CloneFactory.sol\":308:374  0x3d602d80600a3d3981f3363d3d373d3d3d363d73000000000000000000000000 */\n      0x3d602d80600a3d3981f3363d3d373d3d3d363d73000000000000000000000000\n        /* \"CloneFactory.sol\":301:306  clone */\n      dup2\n        /* \"CloneFactory.sol\":294:375  mstore(clone, 0x3d602d80600a3d3981f3363d3d373d3d3d363d73000000000000000000000000) */\n      mstore\n        /* \"CloneFactory.sol\":413:424  targetBytes */\n      dup2\n        /* \"CloneFactory.sol\":406:410  0x14 */\n      0x14\n        /* \"CloneFactory.sol\":399:404  clone */\n      dup3\n        /* \"CloneFactory.sol\":395:411  add(clone, 0x14) */\n      add\n        /* \"CloneFactory.sol\":388:425  mstore(add(clone, 0x14), targetBytes) */\n      mstore\n        /* \"CloneFactory.sol\":463:529  0x5af43d82803e903d91602b57fd5bf30000000000000000000000000000000000 */\n      0x5af43d82803e903d91602b57fd5bf30000000000000000000000000000000000\n        /* \"CloneFactory.sol\":456:460  0x28 */\n      0x28\n        /* \"CloneFactory.sol\":449:454  clone */\n      dup3\n        /* \"CloneFactory.sol\":445:461  add(clone, 0x28) */\n      add\n        /* \"CloneFactory.sol\":438:530  mstore(add(clone, 0x28), 0x5af43d82803e903d91602b57fd5bf30000000000000000000000000000000000) */\n      mstore\n        /* \"CloneFactory.sol\":570:574  0x37 */\n      0x37\n        /* \"CloneFactory.sol\":563:568  clone */\n      dup2\n        /* \"CloneFactory.sol\":560:561  0 */\n      0x00\n        /* \"CloneFactory.sol\":553:575  create(0, clone, 0x37) */\n      create\n        /* \"CloneFactory.sol\":543:575  result := create(0, clone, 0x37) */\n      swap3\n      pop\n        /* \"CloneFactory.sol\":243:585  {... */\n      pop\n      pop\n        /* \"CloneFactory.sol\":106:591  function createClone(address target) internal returns (address result) {... */\n      swap2\n      swap1\n      pop\n      jump\t// out\n        /* \"#utility.yul\":7:84   */\n    tag_325:\n        /* \"#utility.yul\":44:51   */\n      0x00\n        /* \"#utility.yul\":73:78   */\n      dup2\n        /* \"#utility.yul\":62:78   */\n      swap1\n      pop\n        /* \"#utility.yul\":7:84   */\n      swap2\n      swap1\n      pop\n      jump\t// out\n        /* \"#utility.yul\":90:208   */\n    tag_326:\n        /* \"#utility.yul\":177:201   */\n      tag_377\n        /* \"#utility.yul\":195:200   */\n      dup2\n        /* \"#utility.yul\":177:201   */\n      tag_325\n      jump\t// in\n    tag_377:\n        /* \"#utility.yul\":172:175   */\n      dup3\n        /* \"#utility.yul\":165:202   */\n      mstore\n        /* \"#utility.yul\":90:208   */\n      pop\n      pop\n      jump\t// out\n        /* \"#utility.yul\":214:436   */\n    tag_40:\n        /* \"#utility.yul\":307:311   */\n      0x00\n        /* \"#utility.yul\":345:347   */\n      0x20\n        /* \"#utility.yul\":334:343   */\n      dup3\n        /* \"#utility.yul\":330:348   */\n      add\n        /* \"#utility.yul\":322:348   */\n      swap1\n      pop\n        /* \"#utility.yul\":358:429   */\n      tag_379\n        /* \"#utility.yul\":426:427   */\n      0x00\n        /* \"#utility.yul\":415:424   */\n      dup4\n        /* \"#utility.yul\":411:428   */\n      add\n        /* \"#utility.yul\":402:408   */\n      dup5\n        /* \"#utility.yul\":358:429   */\n      tag_326\n      jump\t// in\n    tag_379:\n        /* \"#utility.yul\":214:436   */\n      swap3\n      swap2\n      pop\n      pop\n      jump\t// out\n        /* \"#utility.yul\":523:640   */\n    tag_328:\n        /* \"#utility.yul\":632:633   */\n      0x00\n        /* \"#utility.yul\":629:630   */\n      dup1\n        /* \"#utility.yul\":622:634   */\n      revert\n        /* \"#utility.yul\":769:895   */\n    tag_330:\n        /* \"#utility.yul\":806:813   */\n      0x00\n        /* \"#utility.yul\":846:888   */\n      0xffffffffffffffffffffffffffffffffffffffff\n        /* \"#utility.yul\":839:844   */\n      dup3\n        /* \"#utility.yul\":835:889   */\n      and\n        /* \"#utility.yul\":824:889   */\n      swap1\n      pop\n        /* \"#utility.yul\":769:895   */\n      swap2\n      swap1\n      pop\n      jump\t// out\n        /* \"#utility.yul\":901:997   */\n    tag_331:\n        /* \"#utility.yul\":938:945   */\n      0x00\n        /* \"#utility.yul\":967:991   */\n      tag_385\n        /* \"#utility.yul\":985:990   */\n      dup3\n        /* \"#utility.yul\":967:991   */\n      tag_330\n      jump\t// in\n    tag_385:\n        /* \"#utility.yul\":956:991   */\n      swap1\n      pop\n        /* \"#utility.yul\":901:997   */\n      swap2\n      swap1\n      pop\n      jump\t// out\n        /* \"#utility.yul\":1003:1125   */\n    tag_332:\n        /* \"#utility.yul\":1076:1100   */\n      tag_387\n        /* \"#utility.yul\":1094:1099   */\n      dup2\n        /* \"#utility.yul\":1076:1100   */\n      tag_331\n      jump\t// in\n    tag_387:\n        /* \"#utility.yul\":1069:1074   */\n      dup2\n        /* \"#utility.yul\":1066:1101   */\n      eq\n        /* \"#utility.yul\":1056:1119   */\n      tag_388\n      jumpi\n        /* \"#utility.yul\":1115:1116   */\n      0x00\n        /* \"#utility.yul\":1112:1113   */\n      dup1\n        /* \"#utility.yul\":1105:1117   */\n      revert\n        /* \"#utility.yul\":1056:1119   */\n    tag_388:\n        /* \"#utility.yul\":1003:1125   */\n      pop\n      jump\t// out\n        /* \"#utility.yul\":1131:1270   */\n    tag_333:\n        /* \"#utility.yul\":1177:1182   */\n      0x00\n        /* \"#utility.yul\":1215:1221   */\n      dup2\n        /* \"#utility.yul\":1202:1222   */\n      calldataload\n        /* \"#utility.yul\":1193:1222   */\n      swap1\n      pop\n        /* \"#utility.yul\":1231:1264   */\n      tag_390\n        /* \"#utility.yul\":1258:1263   */\n      dup2\n        /* \"#utility.yul\":1231:1264   */\n      tag_332\n      jump\t// in\n    tag_390:\n        /* \"#utility.yul\":1131:1270   */\n      swap3\n      swap2\n      pop\n      pop\n      jump\t// out\n        /* \"#utility.yul\":1276:1605   */\n    tag_44:\n        /* \"#utility.yul\":1335:1341   */\n      0x00\n        /* \"#utility.yul\":1384:1386   */\n      0x20\n        /* \"#utility.yul\":1372:1381   */\n      dup3\n        /* \"#utility.yul\":1363:1370   */\n      dup5\n        /* \"#utility.yul\":1359:1382   */\n      sub\n        /* \"#utility.yul\":1355:1387   */\n      slt\n        /* \"#utility.yul\":1352:1471   */\n      iszero\n      tag_392\n      jumpi\n        /* \"#utility.yul\":1390:1469   */\n      tag_393\n      tag_328\n      jump\t// in\n    tag_393:\n        /* \"#utility.yul\":1352:1471   */\n    tag_392:\n        /* \"#utility.yul\":1510:1511   */\n      0x00\n        /* \"#utility.yul\":1535:1588   */\n      tag_394\n        /* \"#utility.yul\":1580:1587   */\n      dup5\n        /* \"#utility.yul\":1571:1577   */\n      dup3\n        /* \"#utility.yul\":1560:1569   */\n      dup6\n        /* \"#utility.yul\":1556:1578   */\n      add\n        /* \"#utility.yul\":1535:1588   */\n      tag_333\n      jump\t// in\n    tag_394:\n        /* \"#utility.yul\":1525:1588   */\n      swap2\n      pop\n        /* \"#utility.yul\":1481:1598   */\n      pop\n        /* \"#utility.yul\":1276:1605   */\n      swap3\n      swap2\n      pop\n      pop\n      jump\t// out\n        /* \"#utility.yul\":1611:1710   */\n    tag_334:\n        /* \"#utility.yul\":1663:1669   */\n      0x00\n        /* \"#utility.yul\":1697:1702   */\n      dup2\n        /* \"#utility.yul\":1691:1703   */\n      mload\n        /* \"#utility.yul\":1681:1703   */\n      swap1\n      pop\n        /* \"#utility.yul\":1611:1710   */\n      swap2\n      swap1\n      pop\n      jump\t// out\n        /* \"#utility.yul\":1716:1885   */\n    tag_335:\n        /* \"#utility.yul\":1800:1811   */\n      0x00\n        /* \"#utility.yul\":1834:1840   */\n      dup3\n        /* \"#utility.yul\":1829:1832   */\n      dup3\n        /* \"#utility.yul\":1822:1841   */\n      mstore\n        /* \"#utility.yul\":1874:1878   */\n      0x20\n        /* \"#utility.yul\":1869:1872   */\n      dup3\n        /* \"#utility.yul\":1865:1879   */\n      add\n        /* \"#utility.yul\":1850:1879   */\n      swap1\n      pop\n        /* \"#utility.yul\":1716:1885   */\n      swap3\n      swap2\n      pop\n      pop\n      jump\t// out\n        /* \"#utility.yul\":1891:2137   */\n    tag_336:\n        /* \"#utility.yul\":1972:1973   */\n      0x00\n        /* \"#utility.yul\":1982:2095   */\n    tag_398:\n        /* \"#utility.yul\":1996:2002   */\n      dup4\n        /* \"#utility.yul\":1993:1994   */\n      dup2\n        /* \"#utility.yul\":1990:2003   */\n      lt\n        /* \"#utility.yul\":1982:2095   */\n      iszero\n      tag_400\n      jumpi\n        /* \"#utility.yul\":2081:2082   */\n      dup1\n        /* \"#utility.yul\":2076:2079   */\n      dup3\n        /* \"#utility.yul\":2072:2083   */\n      add\n        /* \"#utility.yul\":2066:2084   */\n      mload\n        /* \"#utility.yul\":2062:2063   */\n      dup2\n        /* \"#utility.yul\":2057:2060   */\n      dup5\n        /* \"#utility.yul\":2053:2064   */\n      add\n        /* \"#utility.yul\":2046:2085   */\n      mstore\n        /* \"#utility.yul\":2018:2020   */\n      0x20\n        /* \"#utility.yul\":2015:2016   */\n      dup2\n        /* \"#utility.yul\":2011:2021   */\n      add\n        /* \"#utility.yul\":2006:2021   */\n      swap1\n      pop\n        /* \"#utility.yul\":1982:2095   */\n      jump(tag_398)\n    tag_400:\n        /* \"#utility.yul\":2129:2130   */\n      0x00\n        /* \"#utility.yul\":2120:2126   */\n      dup5\n        /* \"#utility.yul\":2115:2118   */\n      dup5\n        /* \"#utility.yul\":2111:2127   */\n      add\n        /* \"#utility.yul\":2104:2131   */\n      mstore\n        /* \"#utility.yul\":1953:2137   */\n      pop\n        /* \"#utility.yul\":1891:2137   */\n      pop\n      pop\n      pop\n      jump\t// out\n        /* \"#utility.yul\":2143:2245   */\n    tag_337:\n        /* \"#utility.yul\":2184:2190   */\n      0x00\n        /* \"#utility.yul\":2235:2237   */\n      0x1f\n        /* \"#utility.yul\":2231:2238   */\n      not\n        /* \"#utility.yul\":2226:2228   */\n      0x1f\n        /* \"#utility.yul\":2219:2224   */\n      dup4\n        /* \"#utility.yul\":2215:2229   */\n      add\n        /* \"#utility.yul\":2211:2239   */\n      and\n        /* \"#utility.yul\":2201:2239   */\n      swap1\n      pop\n        /* \"#utility.yul\":2143:2245   */\n      swap2\n      swap1\n      pop\n      jump\t// out\n        /* \"#utility.yul\":2251:2628   */\n    tag_338:\n        /* \"#utility.yul\":2339:2342   */\n      0x00\n        /* \"#utility.yul\":2367:2406   */\n      tag_403\n        /* \"#utility.yul\":2400:2405   */\n      dup3\n        /* \"#utility.yul\":2367:2406   */\n      tag_334\n      jump\t// in\n    tag_403:\n        /* \"#utility.yul\":2422:2493   */\n      tag_404\n        /* \"#utility.yul\":2486:2492   */\n      dup2\n        /* \"#utility.yul\":2481:2484   */\n      dup6\n        /* \"#utility.yul\":2422:2493   */\n      tag_335\n      jump\t// in\n    tag_404:\n        /* \"#utility.yul\":2415:2493   */\n      swap4\n      pop\n        /* \"#utility.yul\":2502:2567   */\n      tag_405\n        /* \"#utility.yul\":2560:2566   */\n      dup2\n        /* \"#utility.yul\":2555:2558   */\n      dup6\n        /* \"#utility.yul\":2548:2552   */\n      0x20\n        /* \"#utility.yul\":2541:2546   */\n      dup7\n        /* \"#utility.yul\":2537:2553   */\n      add\n        /* \"#utility.yul\":2502:2567   */\n      tag_336\n      jump\t// in\n    tag_405:\n        /* \"#utility.yul\":2592:2621   */\n      tag_406\n        /* \"#utility.yul\":2614:2620   */\n      dup2\n        /* \"#utility.yul\":2592:2621   */\n      tag_337\n      jump\t// in\n    tag_406:\n        /* \"#utility.yul\":2587:2590   */\n      dup5\n        /* \"#utility.yul\":2583:2622   */\n      add\n        /* \"#utility.yul\":2576:2622   */\n      swap2\n      pop\n        /* \"#utility.yul\":2343:2628   */\n      pop\n        /* \"#utility.yul\":2251:2628   */\n      swap3\n      swap2\n      pop\n      pop\n      jump\t// out\n        /* \"#utility.yul\":2634:2947   */\n    tag_50:\n        /* \"#utility.yul\":2747:2751   */\n      0x00\n        /* \"#utility.yul\":2785:2787   */\n      0x20\n        /* \"#utility.yul\":2774:2783   */\n      dup3\n        /* \"#utility.yul\":2770:2788   */\n      add\n        /* \"#utility.yul\":2762:2788   */\n      swap1\n      pop\n        /* \"#utility.yul\":2834:2843   */\n      dup2\n        /* \"#utility.yul\":2828:2832   */\n      dup2\n        /* \"#utility.yul\":2824:2844   */\n      sub\n        /* \"#utility.yul\":2820:2821   */\n      0x00\n        /* \"#utility.yul\":2809:2818   */\n      dup4\n        /* \"#utility.yul\":2805:2822   */\n      add\n        /* \"#utility.yul\":2798:2845   */\n      mstore\n        /* \"#utility.yul\":2862:2940   */\n      tag_408\n        /* \"#utility.yul\":2935:2939   */\n      dup2\n        /* \"#utility.yul\":2926:2932   */\n      dup5\n        /* \"#utility.yul\":2862:2940   */\n      tag_338\n      jump\t// in\n    tag_408:\n        /* \"#utility.yul\":2854:2940   */\n      swap1\n      pop\n        /* \"#utility.yul\":2634:2947   */\n      swap3\n      swap2\n      pop\n      pop\n      jump\t// out\n        /* \"#utility.yul\":2953:3075   */\n    tag_339:\n        /* \"#utility.yul\":3026:3050   */\n      tag_410\n        /* \"#utility.yul\":3044:3049   */\n      dup2\n        /* \"#utility.yul\":3026:3050   */\n      tag_325\n      jump\t// in\n    tag_410:\n        /* \"#utility.yul\":3019:3024   */\n      dup2\n        /* \"#utility.yul\":3016:3051   */\n      eq\n        /* \"#utility.yul\":3006:3069   */\n      tag_411\n      jumpi\n        /* \"#utility.yul\":3065:3066   */\n      0x00\n        /* \"#utility.yul\":3062:3063   */\n      dup1\n        /* \"#utility.yul\":3055:3067   */\n      revert\n        /* \"#utility.yul\":3006:3069   */\n    tag_411:\n        /* \"#utility.yul\":2953:3075   */\n      pop\n      jump\t// out\n        /* \"#utility.yul\":3081:3220   */\n    tag_340:\n        /* \"#utility.yul\":3127:3132   */\n      0x00\n        /* \"#utility.yul\":3165:3171   */\n      dup2\n        /* \"#utility.yul\":3152:3172   */\n      calldataload\n        /* \"#utility.yul\":3143:3172   */\n      swap1\n      pop\n        /* \"#utility.yul\":3181:3214   */\n      tag_413\n        /* \"#utility.yul\":3208:3213   */\n      dup2\n        /* \"#utility.yul\":3181:3214   */\n      tag_339\n      jump\t// in\n    tag_413:\n        /* \"#utility.yul\":3081:3220   */\n      swap3\n      swap2\n      pop\n      pop\n      jump\t// out\n        /* \"#utility.yul\":3226:3555   */\n    tag_62:\n        /* \"#utility.yul\":3285:3291   */\n      0x00\n        /* \"#utility.yul\":3334:3336   */\n      0x20\n        /* \"#utility.yul\":3322:3331   */\n      dup3\n        /* \"#utility.yul\":3313:3320   */\n      dup5\n        /* \"#utility.yul\":3309:3332   */\n      sub\n        /* \"#utility.yul\":3305:3337   */\n      slt\n        /* \"#utility.yul\":3302:3421   */\n      iszero\n      tag_415\n      jumpi\n        /* \"#utility.yul\":3340:3419   */\n      tag_416\n      tag_328\n      jump\t// in\n    tag_416:\n        /* \"#utility.yul\":3302:3421   */\n    tag_415:\n        /* \"#utility.yul\":3460:3461   */\n      0x00\n        /* \"#utility.yul\":3485:3538   */\n      tag_417\n        /* \"#utility.yul\":3530:3537   */\n      dup5\n        /* \"#utility.yul\":3521:3527   */\n      dup3\n        /* \"#utility.yul\":3510:3519   */\n      dup6\n        /* \"#utility.yul\":3506:3528   */\n      add\n        /* \"#utility.yul\":3485:3538   */\n      tag_340\n      jump\t// in\n    tag_417:\n        /* \"#utility.yul\":3475:3538   */\n      swap2\n      pop\n        /* \"#utility.yul\":3431:3548   */\n      pop\n        /* \"#utility.yul\":3226:3555   */\n      swap3\n      swap2\n      pop\n      pop\n      jump\t// out\n        /* \"#utility.yul\":3561:3665   */\n    tag_341:\n        /* \"#utility.yul\":3606:3613   */\n      0x00\n        /* \"#utility.yul\":3635:3659   */\n      tag_419\n        /* \"#utility.yul\":3653:3658   */\n      dup3\n        /* \"#utility.yul\":3635:3659   */\n      tag_330\n      jump\t// in\n    tag_419:\n        /* \"#utility.yul\":3624:3659   */\n      swap1\n      pop\n        /* \"#utility.yul\":3561:3665   */\n      swap2\n      swap1\n      pop\n      jump\t// out\n        /* \"#utility.yul\":3671:3813   */\n    tag_342:\n        /* \"#utility.yul\":3774:3806   */\n      tag_421\n        /* \"#utility.yul\":3800:3805   */\n      dup2\n        /* \"#utility.yul\":3774:3806   */\n      tag_341\n      jump\t// in\n    tag_421:\n        /* \"#utility.yul\":3769:3772   */\n      dup3\n        /* \"#utility.yul\":3762:3807   */\n      mstore\n        /* \"#utility.yul\":3671:3813   */\n      pop\n      pop\n      jump\t// out\n        /* \"#utility.yul\":3819:4073   */\n    tag_68:\n        /* \"#utility.yul\":3928:3932   */\n      0x00\n        /* \"#utility.yul\":3966:3968   */\n      0x20\n        /* \"#utility.yul\":3955:3964   */\n      dup3\n        /* \"#utility.yul\":3951:3969   */\n      add\n        /* \"#utility.yul\":3943:3969   */\n      swap1\n      pop\n        /* \"#utility.yul\":3979:4066   */\n      tag_423\n        /* \"#utility.yul\":4063:4064   */\n      0x00\n        /* \"#utility.yul\":4052:4061   */\n      dup4\n        /* \"#utility.yul\":4048:4065   */\n      add\n        /* \"#utility.yul\":4039:4045   */\n      dup5\n        /* \"#utility.yul\":3979:4066   */\n      tag_342\n      jump\t// in\n    tag_423:\n        /* \"#utility.yul\":3819:4073   */\n      swap3\n      swap2\n      pop\n      pop\n      jump\t// out\n        /* \"#utility.yul\":4079:4844   */\n    tag_72:\n        /* \"#utility.yul\":4165:4171   */\n      0x00\n        /* \"#utility.yul\":4173:4179   */\n      dup1\n        /* \"#utility.yul\":4181:4187   */\n      0x00\n        /* \"#utility.yul\":4189:4195   */\n      dup1\n        /* \"#utility.yul\":4238:4241   */\n      0x80\n        /* \"#utility.yul\":4226:4235   */\n      dup6\n        /* \"#utility.yul\":4217:4224   */\n      dup8\n        /* \"#utility.yul\":4213:4236   */\n      sub\n        /* \"#utility.yul\":4209:4242   */\n      slt\n        /* \"#utility.yul\":4206:4326   */\n      iszero\n      tag_425\n      jumpi\n        /* \"#utility.yul\":4245:4324   */\n      tag_426\n      tag_328\n      jump\t// in\n    tag_426:\n        /* \"#utility.yul\":4206:4326   */\n    tag_425:\n        /* \"#utility.yul\":4365:4366   */\n      0x00\n        /* \"#utility.yul\":4390:4443   */\n      tag_427\n        /* \"#utility.yul\":4435:4442   */\n      dup8\n        /* \"#utility.yul\":4426:4432   */\n      dup3\n        /* \"#utility.yul\":4415:4424   */\n      dup9\n        /* \"#utility.yul\":4411:4433   */\n      add\n        /* \"#utility.yul\":4390:4443   */\n      tag_333\n      jump\t// in\n    tag_427:\n        /* \"#utility.yul\":4380:4443   */\n      swap5\n      pop\n        /* \"#utility.yul\":4336:4453   */\n      pop\n        /* \"#utility.yul\":4492:4494   */\n      0x20\n        /* \"#utility.yul\":4518:4571   */\n      tag_428\n        /* \"#utility.yul\":4563:4570   */\n      dup8\n        /* \"#utility.yul\":4554:4560   */\n      dup3\n        /* \"#utility.yul\":4543:4552   */\n      dup9\n        /* \"#utility.yul\":4539:4561   */\n      add\n        /* \"#utility.yul\":4518:4571   */\n      tag_340\n      jump\t// in\n    tag_428:\n        /* \"#utility.yul\":4508:4571   */\n      swap4\n      pop\n        /* \"#utility.yul\":4463:4581   */\n      pop\n        /* \"#utility.yul\":4620:4622   */\n      0x40\n        /* \"#utility.yul\":4646:4699   */\n      tag_429\n        /* \"#utility.yul\":4691:4698   */\n      dup8\n        /* \"#utility.yul\":4682:4688   */\n      dup3\n        /* \"#utility.yul\":4671:4680   */\n      dup9\n        /* \"#utility.yul\":4667:4689   */\n      add\n        /* \"#utility.yul\":4646:4699   */\n      tag_340\n      jump\t// in\n    tag_429:\n        /* \"#utility.yul\":4636:4699   */\n      swap3\n      pop\n        /* \"#utility.yul\":4591:4709   */\n      pop\n        /* \"#utility.yul\":4748:4750   */\n      0x60\n        /* \"#utility.yul\":4774:4827   */\n      tag_430\n        /* \"#utility.yul\":4819:4826   */\n      dup8\n        /* \"#utility.yul\":4810:4816   */\n      dup3\n        /* \"#utility.yul\":4799:4808   */\n      dup9\n        /* \"#utility.yul\":4795:4817   */\n      add\n        /* \"#utility.yul\":4774:4827   */\n      tag_333\n      jump\t// in\n    tag_430:\n        /* \"#utility.yul\":4764:4827   */\n      swap2\n      pop\n        /* \"#utility.yul\":4719:4837   */\n      pop\n        /* \"#utility.yul\":4079:4844   */\n      swap3\n      swap6\n      swap2\n      swap5\n      pop\n      swap3\n      pop\n      jump\t// out\n        /* \"#utility.yul\":4850:4910   */\n    tag_343:\n        /* \"#utility.yul\":4878:4881   */\n      0x00\n        /* \"#utility.yul\":4899:4904   */\n      dup2\n        /* \"#utility.yul\":4892:4904   */\n      swap1\n      pop\n        /* \"#utility.yul\":4850:4910   */\n      swap2\n      swap1\n      pop\n      jump\t// out\n        /* \"#utility.yul\":4916:5058   */\n    tag_344:\n        /* \"#utility.yul\":4966:4975   */\n      0x00\n        /* \"#utility.yul\":4999:5052   */\n      tag_433\n        /* \"#utility.yul\":5017:5051   */\n      tag_434\n        /* \"#utility.yul\":5026:5050   */\n      tag_435\n        /* \"#utility.yul\":5044:5049   */\n      dup5\n        /* \"#utility.yul\":5026:5050   */\n      tag_330\n      jump\t// in\n    tag_435:\n        /* \"#utility.yul\":5017:5051   */\n      tag_343\n      jump\t// in\n    tag_434:\n        /* \"#utility.yul\":4999:5052   */\n      tag_330\n      jump\t// in\n    tag_433:\n        /* \"#utility.yul\":4986:5052   */\n      swap1\n      pop\n        /* \"#utility.yul\":4916:5058   */\n      swap2\n      swap1\n      pop\n      jump\t// out\n        /* \"#utility.yul\":5064:5190   */\n    tag_345:\n        /* \"#utility.yul\":5114:5123   */\n      0x00\n        /* \"#utility.yul\":5147:5184   */\n      tag_437\n        /* \"#utility.yul\":5178:5183   */\n      dup3\n        /* \"#utility.yul\":5147:5184   */\n      tag_344\n      jump\t// in\n    tag_437:\n        /* \"#utility.yul\":5134:5184   */\n      swap1\n      pop\n        /* \"#utility.yul\":5064:5190   */\n      swap2\n      swap1\n      pop\n      jump\t// out\n        /* \"#utility.yul\":5196:5343   */\n    tag_346:\n        /* \"#utility.yul\":5267:5276   */\n      0x00\n        /* \"#utility.yul\":5300:5337   */\n      tag_439\n        /* \"#utility.yul\":5331:5336   */\n      dup3\n        /* \"#utility.yul\":5300:5337   */\n      tag_345\n      jump\t// in\n    tag_439:\n        /* \"#utility.yul\":5287:5337   */\n      swap1\n      pop\n        /* \"#utility.yul\":5196:5343   */\n      swap2\n      swap1\n      pop\n      jump\t// out\n        /* \"#utility.yul\":5349:5522   */\n    tag_347:\n        /* \"#utility.yul\":5457:5515   */\n      tag_441\n        /* \"#utility.yul\":5509:5514   */\n      dup2\n        /* \"#utility.yul\":5457:5515   */\n      tag_346\n      jump\t// in\n    tag_441:\n        /* \"#utility.yul\":5452:5455   */\n      dup3\n        /* \"#utility.yul\":5445:5516   */\n      mstore\n        /* \"#utility.yul\":5349:5522   */\n      pop\n      pop\n      jump\t// out\n        /* \"#utility.yul\":5528:5792   */\n    tag_78:\n        /* \"#utility.yul\":5642:5646   */\n      0x00\n        /* \"#utility.yul\":5680:5682   */\n      0x20\n        /* \"#utility.yul\":5669:5678   */\n      dup3\n        /* \"#utility.yul\":5665:5683   */\n      add\n        /* \"#utility.yul\":5657:5683   */\n      swap1\n      pop\n        /* \"#utility.yul\":5693:5785   */\n      tag_443\n        /* \"#utility.yul\":5782:5783   */\n      0x00\n        /* \"#utility.yul\":5771:5780   */\n      dup4\n        /* \"#utility.yul\":5767:5784   */\n      add\n        /* \"#utility.yul\":5758:5764   */\n      dup5\n        /* \"#utility.yul\":5693:5785   */\n      tag_347\n      jump\t// in\n    tag_443:\n        /* \"#utility.yul\":5528:5792   */\n      swap3\n      swap2\n      pop\n      pop\n      jump\t// out\n        /* \"#utility.yul\":5798:5888   */\n    tag_348:\n        /* \"#utility.yul\":5832:5839   */\n      0x00\n        /* \"#utility.yul\":5875:5880   */\n      dup2\n        /* \"#utility.yul\":5868:5881   */\n      iszero\n        /* \"#utility.yul\":5861:5882   */\n      iszero\n        /* \"#utility.yul\":5850:5882   */\n      swap1\n      pop\n        /* \"#utility.yul\":5798:5888   */\n      swap2\n      swap1\n      pop\n      jump\t// out\n        /* \"#utility.yul\":5894:6010   */\n    tag_349:\n        /* \"#utility.yul\":5964:5985   */\n      tag_446\n        /* \"#utility.yul\":5979:5984   */\n      dup2\n        /* \"#utility.yul\":5964:5985   */\n      tag_348\n      jump\t// in\n    tag_446:\n        /* \"#utility.yul\":5957:5962   */\n      dup2\n        /* \"#utility.yul\":5954:5986   */\n      eq\n        /* \"#utility.yul\":5944:6004   */\n      tag_447\n      jumpi\n        /* \"#utility.yul\":6000:6001   */\n      0x00\n        /* \"#utility.yul\":5997:5998   */\n      dup1\n        /* \"#utility.yul\":5990:6002   */\n      revert\n        /* \"#utility.yul\":5944:6004   */\n    tag_447:\n        /* \"#utility.yul\":5894:6010   */\n      pop\n      jump\t// out\n        /* \"#utility.yul\":6016:6149   */\n    tag_350:\n        /* \"#utility.yul\":6059:6064   */\n      0x00\n        /* \"#utility.yul\":6097:6103   */\n      dup2\n        /* \"#utility.yul\":6084:6104   */\n      calldataload\n        /* \"#utility.yul\":6075:6104   */\n      swap1\n      pop\n        /* \"#utility.yul\":6113:6143   */\n      tag_449\n        /* \"#utility.yul\":6137:6142   */\n      dup2\n        /* \"#utility.yul\":6113:6143   */\n      tag_349\n      jump\t// in\n    tag_449:\n        /* \"#utility.yul\":6016:6149   */\n      swap3\n      swap2\n      pop\n      pop\n      jump\t// out\n        /* \"#utility.yul\":6155:6623   */\n    tag_86:\n        /* \"#utility.yul\":6220:6226   */\n      0x00\n        /* \"#utility.yul\":6228:6234   */\n      dup1\n        /* \"#utility.yul\":6277:6279   */\n      0x40\n        /* \"#utility.yul\":6265:6274   */\n      dup4\n        /* \"#utility.yul\":6256:6263   */\n      dup6\n        /* \"#utility.yul\":6252:6275   */\n      sub\n        /* \"#utility.yul\":6248:6280   */\n      slt\n        /* \"#utility.yul\":6245:6364   */\n      iszero\n      tag_451\n      jumpi\n        /* \"#utility.yul\":6283:6362   */\n      tag_452\n      tag_328\n      jump\t// in\n    tag_452:\n        /* \"#utility.yul\":6245:6364   */\n    tag_451:\n        /* \"#utility.yul\":6403:6404   */\n      0x00\n        /* \"#utility.yul\":6428:6481   */\n      tag_453\n        /* \"#utility.yul\":6473:6480   */\n      dup6\n        /* \"#utility.yul\":6464:6470   */\n      dup3\n        /* \"#utility.yul\":6453:6462   */\n      dup7\n        /* \"#utility.yul\":6449:6471   */\n      add\n        /* \"#utility.yul\":6428:6481   */\n      tag_333\n      jump\t// in\n    tag_453:\n        /* \"#utility.yul\":6418:6481   */\n      swap3\n      pop\n        /* \"#utility.yul\":6374:6491   */\n      pop\n        /* \"#utility.yul\":6530:6532   */\n      0x20\n        /* \"#utility.yul\":6556:6606   */\n      tag_454\n        /* \"#utility.yul\":6598:6605   */\n      dup6\n        /* \"#utility.yul\":6589:6595   */\n      dup3\n        /* \"#utility.yul\":6578:6587   */\n      dup7\n        /* \"#utility.yul\":6574:6596   */\n      add\n        /* \"#utility.yul\":6556:6606   */\n      tag_350\n      jump\t// in\n    tag_454:\n        /* \"#utility.yul\":6546:6606   */\n      swap2\n      pop\n        /* \"#utility.yul\":6501:6616   */\n      pop\n        /* \"#utility.yul\":6155:6623   */\n      swap3\n      pop\n      swap3\n      swap1\n      pop\n      jump\t// out\n        /* \"#utility.yul\":6629:6767   */\n    tag_351:\n        /* \"#utility.yul\":6710:6742   */\n      tag_456\n        /* \"#utility.yul\":6736:6741   */\n      dup2\n        /* \"#utility.yul\":6710:6742   */\n      tag_341\n      jump\t// in\n    tag_456:\n        /* \"#utility.yul\":6703:6708   */\n      dup2\n        /* \"#utility.yul\":6700:6743   */\n      eq\n        /* \"#utility.yul\":6690:6761   */\n      tag_457\n      jumpi\n        /* \"#utility.yul\":6757:6758   */\n      0x00\n        /* \"#utility.yul\":6754:6755   */\n      dup1\n        /* \"#utility.yul\":6747:6759   */\n      revert\n        /* \"#utility.yul\":6690:6761   */\n    tag_457:\n        /* \"#utility.yul\":6629:6767   */\n      pop\n      jump\t// out\n        /* \"#utility.yul\":6773:6928   */\n    tag_352:\n        /* \"#utility.yul\":6827:6832   */\n      0x00\n        /* \"#utility.yul\":6865:6871   */\n      dup2\n        /* \"#utility.yul\":6852:6872   */\n      calldataload\n        /* \"#utility.yul\":6843:6872   */\n      swap1\n      pop\n        /* \"#utility.yul\":6881:6922   */\n      tag_459\n        /* \"#utility.yul\":6916:6921   */\n      dup2\n        /* \"#utility.yul\":6881:6922   */\n      tag_351\n      jump\t// in\n    tag_459:\n        /* \"#utility.yul\":6773:6928   */\n      swap3\n      swap2\n      pop\n      pop\n      jump\t// out\n        /* \"#utility.yul\":6934:7569   */\n    tag_94:\n        /* \"#utility.yul\":7019:7025   */\n      0x00\n        /* \"#utility.yul\":7027:7033   */\n      dup1\n        /* \"#utility.yul\":7035:7041   */\n      0x00\n        /* \"#utility.yul\":7084:7086   */\n      0x60\n        /* \"#utility.yul\":7072:7081   */\n      dup5\n        /* \"#utility.yul\":7063:7070   */\n      dup7\n        /* \"#utility.yul\":7059:7082   */\n      sub\n        /* \"#utility.yul\":7055:7087   */\n      slt\n        /* \"#utility.yul\":7052:7171   */\n      iszero\n      tag_461\n      jumpi\n        /* \"#utility.yul\":7090:7169   */\n      tag_462\n      tag_328\n      jump\t// in\n    tag_462:\n        /* \"#utility.yul\":7052:7171   */\n    tag_461:\n        /* \"#utility.yul\":7210:7211   */\n      0x00\n        /* \"#utility.yul\":7235:7288   */\n      tag_463\n        /* \"#utility.yul\":7280:7287   */\n      dup7\n        /* \"#utility.yul\":7271:7277   */\n      dup3\n        /* \"#utility.yul\":7260:7269   */\n      dup8\n        /* \"#utility.yul\":7256:7278   */\n      add\n        /* \"#utility.yul\":7235:7288   */\n      tag_333\n      jump\t// in\n    tag_463:\n        /* \"#utility.yul\":7225:7288   */\n      swap4\n      pop\n        /* \"#utility.yul\":7181:7298   */\n      pop\n        /* \"#utility.yul\":7337:7339   */\n      0x20\n        /* \"#utility.yul\":7363:7416   */\n      tag_464\n        /* \"#utility.yul\":7408:7415   */\n      dup7\n        /* \"#utility.yul\":7399:7405   */\n      dup3\n        /* \"#utility.yul\":7388:7397   */\n      dup8\n        /* \"#utility.yul\":7384:7406   */\n      add\n        /* \"#utility.yul\":7363:7416   */\n      tag_340\n      jump\t// in\n    tag_464:\n        /* \"#utility.yul\":7353:7416   */\n      swap3\n      pop\n        /* \"#utility.yul\":7308:7426   */\n      pop\n        /* \"#utility.yul\":7465:7467   */\n      0x40\n        /* \"#utility.yul\":7491:7552   */\n      tag_465\n        /* \"#utility.yul\":7544:7551   */\n      dup7\n        /* \"#utility.yul\":7535:7541   */\n      dup3\n        /* \"#utility.yul\":7524:7533   */\n      dup8\n        /* \"#utility.yul\":7520:7542   */\n      add\n        /* \"#utility.yul\":7491:7552   */\n      tag_352\n      jump\t// in\n    tag_465:\n        /* \"#utility.yul\":7481:7552   */\n      swap2\n      pop\n        /* \"#utility.yul\":7436:7562   */\n      pop\n        /* \"#utility.yul\":6934:7569   */\n      swap3\n      pop\n      swap3\n      pop\n      swap3\n      jump\t// out\n        /* \"#utility.yul\":7575:7684   */\n    tag_353:\n        /* \"#utility.yul\":7656:7677   */\n      tag_467\n        /* \"#utility.yul\":7671:7676   */\n      dup2\n        /* \"#utility.yul\":7656:7677   */\n      tag_348\n      jump\t// in\n    tag_467:\n        /* \"#utility.yul\":7651:7654   */\n      dup3\n        /* \"#utility.yul\":7644:7678   */\n      mstore\n        /* \"#utility.yul\":7575:7684   */\n      pop\n      pop\n      jump\t// out\n        /* \"#utility.yul\":7690:7900   */\n    tag_101:\n        /* \"#utility.yul\":7777:7781   */\n      0x00\n        /* \"#utility.yul\":7815:7817   */\n      0x20\n        /* \"#utility.yul\":7804:7813   */\n      dup3\n        /* \"#utility.yul\":7800:7818   */\n      add\n        /* \"#utility.yul\":7792:7818   */\n      swap1\n      pop\n        /* \"#utility.yul\":7828:7893   */\n      tag_469\n        /* \"#utility.yul\":7890:7891   */\n      0x00\n        /* \"#utility.yul\":7879:7888   */\n      dup4\n        /* \"#utility.yul\":7875:7892   */\n      add\n        /* \"#utility.yul\":7866:7872   */\n      dup5\n        /* \"#utility.yul\":7828:7893   */\n      tag_353\n      jump\t// in\n    tag_469:\n        /* \"#utility.yul\":7690:7900   */\n      swap3\n      swap2\n      pop\n      pop\n      jump\t// out\n        /* \"#utility.yul\":7906:8380   */\n    tag_104:\n        /* \"#utility.yul\":7974:7980   */\n      0x00\n        /* \"#utility.yul\":7982:7988   */\n      dup1\n        /* \"#utility.yul\":8031:8033   */\n      0x40\n        /* \"#utility.yul\":8019:8028   */\n      dup4\n        /* \"#utility.yul\":8010:8017   */\n      dup6\n        /* \"#utility.yul\":8006:8029   */\n      sub\n        /* \"#utility.yul\":8002:8034   */\n      slt\n        /* \"#utility.yul\":7999:8118   */\n      iszero\n      tag_471\n      jumpi\n        /* \"#utility.yul\":8037:8116   */\n      tag_472\n      tag_328\n      jump\t// in\n    tag_472:\n        /* \"#utility.yul\":7999:8118   */\n    tag_471:\n        /* \"#utility.yul\":8157:8158   */\n      0x00\n        /* \"#utility.yul\":8182:8235   */\n      tag_473\n        /* \"#utility.yul\":8227:8234   */\n      dup6\n        /* \"#utility.yul\":8218:8224   */\n      dup3\n        /* \"#utility.yul\":8207:8216   */\n      dup7\n        /* \"#utility.yul\":8203:8225   */\n      add\n        /* \"#utility.yul\":8182:8235   */\n      tag_333\n      jump\t// in\n    tag_473:\n        /* \"#utility.yul\":8172:8235   */\n      swap3\n      pop\n        /* \"#utility.yul\":8128:8245   */\n      pop\n        /* \"#utility.yul\":8284:8286   */\n      0x20\n        /* \"#utility.yul\":8310:8363   */\n      tag_474\n        /* \"#utility.yul\":8355:8362   */\n      dup6\n        /* \"#utility.yul\":8346:8352   */\n      dup3\n        /* \"#utility.yul\":8335:8344   */\n      dup7\n        /* \"#utility.yul\":8331:8353   */\n      add\n        /* \"#utility.yul\":8310:8363   */\n      tag_333\n      jump\t// in\n    tag_474:\n        /* \"#utility.yul\":8300:8363   */\n      swap2\n      pop\n        /* \"#utility.yul\":8255:8373   */\n      pop\n        /* \"#utility.yul\":7906:8380   */\n      swap3\n      pop\n      swap3\n      swap1\n      pop\n      jump\t// out\n        /* \"#utility.yul\":8386:8504   */\n    tag_354:\n        /* \"#utility.yul\":8473:8497   */\n      tag_476\n        /* \"#utility.yul\":8491:8496   */\n      dup2\n        /* \"#utility.yul\":8473:8497   */\n      tag_331\n      jump\t// in\n    tag_476:\n        /* \"#utility.yul\":8468:8471   */\n      dup3\n        /* \"#utility.yul\":8461:8498   */\n      mstore\n        /* \"#utility.yul\":8386:8504   */\n      pop\n      pop\n      jump\t// out\n        /* \"#utility.yul\":8510:8732   */\n    tag_114:\n        /* \"#utility.yul\":8603:8607   */\n      0x00\n        /* \"#utility.yul\":8641:8643   */\n      0x20\n        /* \"#utility.yul\":8630:8639   */\n      dup3\n        /* \"#utility.yul\":8626:8644   */\n      add\n        /* \"#utility.yul\":8618:8644   */\n      swap1\n      pop\n        /* \"#utility.yul\":8654:8725   */\n      tag_478\n        /* \"#utility.yul\":8722:8723   */\n      0x00\n        /* \"#utility.yul\":8711:8720   */\n      dup4\n        /* \"#utility.yul\":8707:8724   */\n      add\n        /* \"#utility.yul\":8698:8704   */\n      dup5\n        /* \"#utility.yul\":8654:8725   */\n      tag_354\n      jump\t// in\n    tag_478:\n        /* \"#utility.yul\":8510:8732   */\n      swap3\n      swap2\n      pop\n      pop\n      jump\t// out\n        /* \"#utility.yul\":8738:8920   */\n    tag_355:\n        /* \"#utility.yul\":8878:8912   */\n      0x4f776e61626c653a2063616c6c6572206973206e6f7420746865206f776e6572\n        /* \"#utility.yul\":8874:8875   */\n      0x00\n        /* \"#utility.yul\":8866:8872   */\n      dup3\n        /* \"#utility.yul\":8862:8876   */\n      add\n        /* \"#utility.yul\":8855:8913   */\n      mstore\n        /* \"#utility.yul\":8738:8920   */\n      pop\n      jump\t// out\n        /* \"#utility.yul\":8926:9292   */\n    tag_356:\n        /* \"#utility.yul\":9068:9071   */\n      0x00\n        /* \"#utility.yul\":9089:9156   */\n      tag_481\n        /* \"#utility.yul\":9153:9155   */\n      0x20\n        /* \"#utility.yul\":9148:9151   */\n      dup4\n        /* \"#utility.yul\":9089:9156   */\n      tag_335\n      jump\t// in\n    tag_481:\n        /* \"#utility.yul\":9082:9156   */\n      swap2\n      pop\n        /* \"#utility.yul\":9165:9258   */\n      tag_482\n        /* \"#utility.yul\":9254:9257   */\n      dup3\n        /* \"#utility.yul\":9165:9258   */\n      tag_355\n      jump\t// in\n    tag_482:\n        /* \"#utility.yul\":9283:9285   */\n      0x20\n        /* \"#utility.yul\":9278:9281   */\n      dup3\n        /* \"#utility.yul\":9274:9286   */\n      add\n        /* \"#utility.yul\":9267:9286   */\n      swap1\n      pop\n        /* \"#utility.yul\":8926:9292   */\n      swap2\n      swap1\n      pop\n      jump\t// out\n        /* \"#utility.yul\":9298:9717   */\n    tag_157:\n        /* \"#utility.yul\":9464:9468   */\n      0x00\n        /* \"#utility.yul\":9502:9504   */\n      0x20\n        /* \"#utility.yul\":9491:9500   */\n      dup3\n        /* \"#utility.yul\":9487:9505   */\n      add\n        /* \"#utility.yul\":9479:9505   */\n      swap1\n      pop\n        /* \"#utility.yul\":9551:9560   */\n      dup2\n        /* \"#utility.yul\":9545:9549   */\n      dup2\n        /* \"#utility.yul\":9541:9561   */\n      sub\n        /* \"#utility.yul\":9537:9538   */\n      0x00\n        /* \"#utility.yul\":9526:9535   */\n      dup4\n        /* \"#utility.yul\":9522:9539   */\n      add\n        /* \"#utility.yul\":9515:9562   */\n      mstore\n        /* \"#utility.yul\":9579:9710   */\n      tag_484\n        /* \"#utility.yul\":9705:9709   */\n      dup2\n        /* \"#utility.yul\":9579:9710   */\n      tag_356\n      jump\t// in\n    tag_484:\n        /* \"#utility.yul\":9571:9710   */\n      swap1\n      pop\n        /* \"#utility.yul\":9298:9717   */\n      swap2\n      swap1\n      pop\n      jump\t// out\n        /* \"#utility.yul\":9723:9903   */\n    tag_357:\n        /* \"#utility.yul\":9771:9848   */\n      0x4e487b7100000000000000000000000000000000000000000000000000000000\n        /* \"#utility.yul\":9768:9769   */\n      0x00\n        /* \"#utility.yul\":9761:9849   */\n      mstore\n        /* \"#utility.yul\":9868:9872   */\n      0x22\n        /* \"#utility.yul\":9865:9866   */\n      0x04\n        /* \"#utility.yul\":9858:9873   */\n      mstore\n        /* \"#utility.yul\":9892:9896   */\n      0x24\n        /* \"#utility.yul\":9889:9890   */\n      0x00\n        /* \"#utility.yul\":9882:9897   */\n      revert\n        /* \"#utility.yul\":9909:10229   */\n    tag_161:\n        /* \"#utility.yul\":9953:9959   */\n      0x00\n        /* \"#utility.yul\":9990:9991   */\n      0x02\n        /* \"#utility.yul\":9984:9988   */\n      dup3\n        /* \"#utility.yul\":9980:9992   */\n      div\n        /* \"#utility.yul\":9970:9992   */\n      swap1\n      pop\n        /* \"#utility.yul\":10037:10038   */\n      0x01\n        /* \"#utility.yul\":10031:10035   */\n      dup3\n        /* \"#utility.yul\":10027:10039   */\n      and\n        /* \"#utility.yul\":10058:10076   */\n      dup1\n        /* \"#utility.yul\":10048:10129   */\n      tag_487\n      jumpi\n        /* \"#utility.yul\":10114:10118   */\n      0x7f\n        /* \"#utility.yul\":10106:10112   */\n      dup3\n        /* \"#utility.yul\":10102:10119   */\n      and\n        /* \"#utility.yul\":10092:10119   */\n      swap2\n      pop\n        /* \"#utility.yul\":10048:10129   */\n    tag_487:\n        /* \"#utility.yul\":10176:10178   */\n      0x20\n        /* \"#utility.yul\":10168:10174   */\n      dup3\n        /* \"#utility.yul\":10165:10179   */\n      lt\n        /* \"#utility.yul\":10145:10163   */\n      dup2\n        /* \"#utility.yul\":10142:10180   */\n      sub\n        /* \"#utility.yul\":10139:10223   */\n      tag_488\n      jumpi\n        /* \"#utility.yul\":10195:10213   */\n      tag_489\n      tag_357\n      jump\t// in\n    tag_489:\n        /* \"#utility.yul\":10139:10223   */\n    tag_488:\n        /* \"#utility.yul\":9960:10229   */\n      pop\n        /* \"#utility.yul\":9909:10229   */\n      swap2\n      swap1\n      pop\n      jump\t// out\n        /* \"#utility.yul\":10235:10416   */\n    tag_358:\n        /* \"#utility.yul\":10375:10408   */\n      0x5265656e7472616e637947756172643a207265656e7472616e742063616c6c00\n        /* \"#utility.yul\":10371:10372   */\n      0x00\n        /* \"#utility.yul\":10363:10369   */\n      dup3\n        /* \"#utility.yul\":10359:10373   */\n      add\n        /* \"#utility.yul\":10352:10409   */\n      mstore\n        /* \"#utility.yul\":10235:10416   */\n      pop\n      jump\t// out\n        /* \"#utility.yul\":10422:10788   */\n    tag_359:\n        /* \"#utility.yul\":10564:10567   */\n      0x00\n        /* \"#utility.yul\":10585:10652   */\n      tag_492\n        /* \"#utility.yul\":10649:10651   */\n      0x1f\n        /* \"#utility.yul\":10644:10647   */\n      dup4\n        /* \"#utility.yul\":10585:10652   */\n      tag_335\n      jump\t// in\n    tag_492:\n        /* \"#utility.yul\":10578:10652   */\n      swap2\n      pop\n        /* \"#utility.yul\":10661:10754   */\n      tag_493\n        /* \"#utility.yul\":10750:10753   */\n      dup3\n        /* \"#utility.yul\":10661:10754   */\n      tag_358\n      jump\t// in\n    tag_493:\n        /* \"#utility.yul\":10779:10781   */\n      0x20\n        /* \"#utility.yul\":10774:10777   */\n      dup3\n        /* \"#utility.yul\":10770:10782   */\n      add\n        /* \"#utility.yul\":10763:10782   */\n      swap1\n      pop\n        /* \"#utility.yul\":10422:10788   */\n      swap2\n      swap1\n      pop\n      jump\t// out\n        /* \"#utility.yul\":10794:11213   */\n    tag_181:\n        /* \"#utility.yul\":10960:10964   */\n      0x00\n        /* \"#utility.yul\":10998:11000   */\n      0x20\n        /* \"#utility.yul\":10987:10996   */\n      dup3\n        /* \"#utility.yul\":10983:11001   */\n      add\n        /* \"#utility.yul\":10975:11001   */\n      swap1\n      pop\n        /* \"#utility.yul\":11047:11056   */\n      dup2\n        /* \"#utility.yul\":11041:11045   */\n      dup2\n        /* \"#utility.yul\":11037:11057   */\n      sub\n        /* \"#utility.yul\":11033:11034   */\n      0x00\n        /* \"#utility.yul\":11022:11031   */\n      dup4\n        /* \"#utility.yul\":11018:11035   */\n      add\n        /* \"#utility.yul\":11011:11058   */\n      mstore\n        /* \"#utility.yul\":11075:11206   */\n      tag_495\n        /* \"#utility.yul\":11201:11205   */\n      dup2\n        /* \"#utility.yul\":11075:11206   */\n      tag_359\n      jump\t// in\n    tag_495:\n        /* \"#utility.yul\":11067:11206   */\n      swap1\n      pop\n        /* \"#utility.yul\":10794:11213   */\n      swap2\n      swap1\n      pop\n      jump\t// out\n        /* \"#utility.yul\":11219:11383   */\n    tag_360:\n        /* \"#utility.yul\":11359:11375   */\n      0x47616d65206e6f7420666f756e64000000000000000000000000000000000000\n        /* \"#utility.yul\":11355:11356   */\n      0x00\n        /* \"#utility.yul\":11347:11353   */\n      dup3\n        /* \"#utility.yul\":11343:11357   */\n      add\n        /* \"#utility.yul\":11336:11376   */\n      mstore\n        /* \"#utility.yul\":11219:11383   */\n      pop\n      jump\t// out\n        /* \"#utility.yul\":11389:11755   */\n    tag_361:\n        /* \"#utility.yul\":11531:11534   */\n      0x00\n        /* \"#utility.yul\":11552:11619   */\n      tag_498\n        /* \"#utility.yul\":11616:11618   */\n      0x0e\n        /* \"#utility.yul\":11611:11614   */\n      dup4\n        /* \"#utility.yul\":11552:11619   */\n      tag_335\n      jump\t// in\n    tag_498:\n        /* \"#utility.yul\":11545:11619   */\n      swap2\n      pop\n        /* \"#utility.yul\":11628:11721   */\n      tag_499\n        /* \"#utility.yul\":11717:11720   */\n      dup3\n        /* \"#utility.yul\":11628:11721   */\n      tag_360\n      jump\t// in\n    tag_499:\n        /* \"#utility.yul\":11746:11748   */\n      0x20\n        /* \"#utility.yul\":11741:11744   */\n      dup3\n        /* \"#utility.yul\":11737:11749   */\n      add\n        /* \"#utility.yul\":11730:11749   */\n      swap1\n      pop\n        /* \"#utility.yul\":11389:11755   */\n      swap2\n      swap1\n      pop\n      jump\t// out\n        /* \"#utility.yul\":11761:12180   */\n    tag_185:\n        /* \"#utility.yul\":11927:11931   */\n      0x00\n        /* \"#utility.yul\":11965:11967   */\n      0x20\n        /* \"#utility.yul\":11954:11963   */\n      dup3\n        /* \"#utility.yul\":11950:11968   */\n      add\n        /* \"#utility.yul\":11942:11968   */\n      swap1\n      pop\n        /* \"#utility.yul\":12014:12023   */\n      dup2\n        /* \"#utility.yul\":12008:12012   */\n      dup2\n        /* \"#utility.yul\":12004:12024   */\n      sub\n        /* \"#utility.yul\":12000:12001   */\n      0x00\n        /* \"#utility.yul\":11989:11998   */\n      dup4\n        /* \"#utility.yul\":11985:12002   */\n      add\n        /* \"#utility.yul\":11978:12025   */\n      mstore\n        /* \"#utility.yul\":12042:12173   */\n      tag_501\n        /* \"#utility.yul\":12168:12172   */\n      dup2\n        /* \"#utility.yul\":12042:12173   */\n      tag_361\n      jump\t// in\n    tag_501:\n        /* \"#utility.yul\":12034:12173   */\n      swap1\n      pop\n        /* \"#utility.yul\":11761:12180   */\n      swap2\n      swap1\n      pop\n      jump\t// out\n        /* \"#utility.yul\":12186:12329   */\n    tag_362:\n        /* \"#utility.yul\":12243:12248   */\n      0x00\n        /* \"#utility.yul\":12274:12280   */\n      dup2\n        /* \"#utility.yul\":12268:12281   */\n      mload\n        /* \"#utility.yul\":12259:12281   */\n      swap1\n      pop\n        /* \"#utility.yul\":12290:12323   */\n      tag_503\n        /* \"#utility.yul\":12317:12322   */\n      dup2\n        /* \"#utility.yul\":12290:12323   */\n      tag_339\n      jump\t// in\n    tag_503:\n        /* \"#utility.yul\":12186:12329   */\n      swap3\n      swap2\n      pop\n      pop\n      jump\t// out\n        /* \"#utility.yul\":12335:12686   */\n    tag_190:\n        /* \"#utility.yul\":12405:12411   */\n      0x00\n        /* \"#utility.yul\":12454:12456   */\n      0x20\n        /* \"#utility.yul\":12442:12451   */\n      dup3\n        /* \"#utility.yul\":12433:12440   */\n      dup5\n        /* \"#utility.yul\":12429:12452   */\n      sub\n        /* \"#utility.yul\":12425:12457   */\n      slt\n        /* \"#utility.yul\":12422:12541   */\n      iszero\n      tag_505\n      jumpi\n        /* \"#utility.yul\":12460:12539   */\n      tag_506\n      tag_328\n      jump\t// in\n    tag_506:\n        /* \"#utility.yul\":12422:12541   */\n    tag_505:\n        /* \"#utility.yul\":12580:12581   */\n      0x00\n        /* \"#utility.yul\":12605:12669   */\n      tag_507\n        /* \"#utility.yul\":12661:12668   */\n      dup5\n        /* \"#utility.yul\":12652:12658   */\n      dup3\n        /* \"#utility.yul\":12641:12650   */\n      dup6\n        /* \"#utility.yul\":12637:12659   */\n      add\n        /* \"#utility.yul\":12605:12669   */\n      tag_362\n      jump\t// in\n    tag_507:\n        /* \"#utility.yul\":12595:12669   */\n      swap2\n      pop\n        /* \"#utility.yul\":12551:12679   */\n      pop\n        /* \"#utility.yul\":12335:12686   */\n      swap3\n      swap2\n      pop\n      pop\n      jump\t// out\n        /* \"#utility.yul\":12692:13134   */\n    tag_193:\n        /* \"#utility.yul\":12841:12845   */\n      0x00\n        /* \"#utility.yul\":12879:12881   */\n      0x60\n        /* \"#utility.yul\":12868:12877   */\n      dup3\n        /* \"#utility.yul\":12864:12882   */\n      add\n        /* \"#utility.yul\":12856:12882   */\n      swap1\n      pop\n        /* \"#utility.yul\":12892:12963   */\n      tag_509\n        /* \"#utility.yul\":12960:12961   */\n      0x00\n        /* \"#utility.yul\":12949:12958   */\n      dup4\n        /* \"#utility.yul\":12945:12962   */\n      add\n        /* \"#utility.yul\":12936:12942   */\n      dup7\n        /* \"#utility.yul\":12892:12963   */\n      tag_354\n      jump\t// in\n    tag_509:\n        /* \"#utility.yul\":12973:13045   */\n      tag_510\n        /* \"#utility.yul\":13041:13043   */\n      0x20\n        /* \"#utility.yul\":13030:13039   */\n      dup4\n        /* \"#utility.yul\":13026:13044   */\n      add\n        /* \"#utility.yul\":13017:13023   */\n      dup6\n        /* \"#utility.yul\":12973:13045   */\n      tag_326\n      jump\t// in\n    tag_510:\n        /* \"#utility.yul\":13055:13127   */\n      tag_511\n        /* \"#utility.yul\":13123:13125   */\n      0x40\n        /* \"#utility.yul\":13112:13121   */\n      dup4\n        /* \"#utility.yul\":13108:13126   */\n      add\n        /* \"#utility.yul\":13099:13105   */\n      dup5\n        /* \"#utility.yul\":13055:13127   */\n      tag_326\n      jump\t// in\n    tag_511:\n        /* \"#utility.yul\":12692:13134   */\n      swap5\n      swap4\n      pop\n      pop\n      pop\n      pop\n      jump\t// out\n        /* \"#utility.yul\":13140:13274   */\n    tag_363:\n        /* \"#utility.yul\":13198:13207   */\n      0x00\n        /* \"#utility.yul\":13231:13268   */\n      tag_513\n        /* \"#utility.yul\":13262:13267   */\n      dup3\n        /* \"#utility.yul\":13231:13268   */\n      tag_345\n      jump\t// in\n    tag_513:\n        /* \"#utility.yul\":13218:13268   */\n      swap1\n      pop\n        /* \"#utility.yul\":13140:13274   */\n      swap2\n      swap1\n      pop\n      jump\t// out\n        /* \"#utility.yul\":13280:13427   */\n    tag_364:\n        /* \"#utility.yul\":13375:13420   */\n      tag_515\n        /* \"#utility.yul\":13414:13419   */\n      dup2\n        /* \"#utility.yul\":13375:13420   */\n      tag_363\n      jump\t// in\n    tag_515:\n        /* \"#utility.yul\":13370:13373   */\n      dup3\n        /* \"#utility.yul\":13363:13421   */\n      mstore\n        /* \"#utility.yul\":13280:13427   */\n      pop\n      pop\n      jump\t// out\n        /* \"#utility.yul\":13433:14573   */\n    tag_199:\n        /* \"#utility.yul\":13766:13770   */\n      0x00\n        /* \"#utility.yul\":13804:13807   */\n      0x0120\n        /* \"#utility.yul\":13793:13802   */\n      dup3\n        /* \"#utility.yul\":13789:13808   */\n      add\n        /* \"#utility.yul\":13781:13808   */\n      swap1\n      pop\n        /* \"#utility.yul\":13818:13889   */\n      tag_517\n        /* \"#utility.yul\":13886:13887   */\n      0x00\n        /* \"#utility.yul\":13875:13884   */\n      dup4\n        /* \"#utility.yul\":13871:13888   */\n      add\n        /* \"#utility.yul\":13862:13868   */\n      dup13\n        /* \"#utility.yul\":13818:13889   */\n      tag_326\n      jump\t// in\n    tag_517:\n        /* \"#utility.yul\":13899:13971   */\n      tag_518\n        /* \"#utility.yul\":13967:13969   */\n      0x20\n        /* \"#utility.yul\":13956:13965   */\n      dup4\n        /* \"#utility.yul\":13952:13970   */\n      add\n        /* \"#utility.yul\":13943:13949   */\n      dup12\n        /* \"#utility.yul\":13899:13971   */\n      tag_326\n      jump\t// in\n    tag_518:\n        /* \"#utility.yul\":13981:14053   */\n      tag_519\n        /* \"#utility.yul\":14049:14051   */\n      0x40\n        /* \"#utility.yul\":14038:14047   */\n      dup4\n        /* \"#utility.yul\":14034:14052   */\n      add\n        /* \"#utility.yul\":14025:14031   */\n      dup11\n        /* \"#utility.yul\":13981:14053   */\n      tag_354\n      jump\t// in\n    tag_519:\n        /* \"#utility.yul\":14063:14143   */\n      tag_520\n        /* \"#utility.yul\":14139:14141   */\n      0x60\n        /* \"#utility.yul\":14128:14137   */\n      dup4\n        /* \"#utility.yul\":14124:14142   */\n      add\n        /* \"#utility.yul\":14115:14121   */\n      dup10\n        /* \"#utility.yul\":14063:14143   */\n      tag_364\n      jump\t// in\n    tag_520:\n        /* \"#utility.yul\":14153:14234   */\n      tag_521\n        /* \"#utility.yul\":14229:14232   */\n      0x80\n        /* \"#utility.yul\":14218:14227   */\n      dup4\n        /* \"#utility.yul\":14214:14233   */\n      add\n        /* \"#utility.yul\":14205:14211   */\n      dup9\n        /* \"#utility.yul\":14153:14234   */\n      tag_364\n      jump\t// in\n    tag_521:\n        /* \"#utility.yul\":14244:14317   */\n      tag_522\n        /* \"#utility.yul\":14312:14315   */\n      0xa0\n        /* \"#utility.yul\":14301:14310   */\n      dup4\n        /* \"#utility.yul\":14297:14316   */\n      add\n        /* \"#utility.yul\":14288:14294   */\n      dup8\n        /* \"#utility.yul\":14244:14317   */\n      tag_326\n      jump\t// in\n    tag_522:\n        /* \"#utility.yul\":14327:14400   */\n      tag_523\n        /* \"#utility.yul\":14395:14398   */\n      0xc0\n        /* \"#utility.yul\":14384:14393   */\n      dup4\n        /* \"#utility.yul\":14380:14399   */\n      add\n        /* \"#utility.yul\":14371:14377   */\n      dup7\n        /* \"#utility.yul\":14327:14400   */\n      tag_326\n      jump\t// in\n    tag_523:\n        /* \"#utility.yul\":14410:14483   */\n      tag_524\n        /* \"#utility.yul\":14478:14481   */\n      0xe0\n        /* \"#utility.yul\":14467:14476   */\n      dup4\n        /* \"#utility.yul\":14463:14482   */\n      add\n        /* \"#utility.yul\":14454:14460   */\n      dup6\n        /* \"#utility.yul\":14410:14483   */\n      tag_326\n      jump\t// in\n    tag_524:\n        /* \"#utility.yul\":14493:14566   */\n      tag_525\n        /* \"#utility.yul\":14561:14564   */\n      0x0100\n        /* \"#utility.yul\":14550:14559   */\n      dup4\n        /* \"#utility.yul\":14546:14565   */\n      add\n        /* \"#utility.yul\":14537:14543   */\n      dup5\n        /* \"#utility.yul\":14493:14566   */\n      tag_354\n      jump\t// in\n    tag_525:\n        /* \"#utility.yul\":13433:14573   */\n      swap11\n      swap10\n      pop\n      pop\n      pop\n      pop\n      pop\n      pop\n      pop\n      pop\n      pop\n      pop\n      jump\t// out\n        /* \"#utility.yul\":14579:15132   */\n    tag_204:\n        /* \"#utility.yul\":14756:14760   */\n      0x00\n        /* \"#utility.yul\":14794:14797   */\n      0x80\n        /* \"#utility.yul\":14783:14792   */\n      dup3\n        /* \"#utility.yul\":14779:14798   */\n      add\n        /* \"#utility.yul\":14771:14798   */\n      swap1\n      pop\n        /* \"#utility.yul\":14808:14879   */\n      tag_527\n        /* \"#utility.yul\":14876:14877   */\n      0x00\n        /* \"#utility.yul\":14865:14874   */\n      dup4\n        /* \"#utility.yul\":14861:14878   */\n      add\n        /* \"#utility.yul\":14852:14858   */\n      dup8\n        /* \"#utility.yul\":14808:14879   */\n      tag_354\n      jump\t// in\n    tag_527:\n        /* \"#utility.yul\":14889:14961   */\n      tag_528\n        /* \"#utility.yul\":14957:14959   */\n      0x20\n        /* \"#utility.yul\":14946:14955   */\n      dup4\n        /* \"#utility.yul\":14942:14960   */\n      add\n        /* \"#utility.yul\":14933:14939   */\n      dup7\n        /* \"#utility.yul\":14889:14961   */\n      tag_326\n      jump\t// in\n    tag_528:\n        /* \"#utility.yul\":14971:15043   */\n      tag_529\n        /* \"#utility.yul\":15039:15041   */\n      0x40\n        /* \"#utility.yul\":15028:15037   */\n      dup4\n        /* \"#utility.yul\":15024:15042   */\n      add\n        /* \"#utility.yul\":15015:15021   */\n      dup6\n        /* \"#utility.yul\":14971:15043   */\n      tag_326\n      jump\t// in\n    tag_529:\n        /* \"#utility.yul\":15053:15125   */\n      tag_530\n        /* \"#utility.yul\":15121:15123   */\n      0x60\n        /* \"#utility.yul\":15110:15119   */\n      dup4\n        /* \"#utility.yul\":15106:15124   */\n      add\n        /* \"#utility.yul\":15097:15103   */\n      dup5\n        /* \"#utility.yul\":15053:15125   */\n      tag_326\n      jump\t// in\n    tag_530:\n        /* \"#utility.yul\":14579:15132   */\n      swap6\n      swap5\n      pop\n      pop\n      pop\n      pop\n      pop\n      jump\t// out\n        /* \"#utility.yul\":15138:15486   */\n    tag_235:\n        /* \"#utility.yul\":15267:15271   */\n      0x00\n        /* \"#utility.yul\":15305:15307   */\n      0x40\n        /* \"#utility.yul\":15294:15303   */\n      dup3\n        /* \"#utility.yul\":15290:15308   */\n      add\n        /* \"#utility.yul\":15282:15308   */\n      swap1\n      pop\n        /* \"#utility.yul\":15318:15397   */\n      tag_532\n        /* \"#utility.yul\":15394:15395   */\n      0x00\n        /* \"#utility.yul\":15383:15392   */\n      dup4\n        /* \"#utility.yul\":15379:15396   */\n      add\n        /* \"#utility.yul\":15370:15376   */\n      dup6\n        /* \"#utility.yul\":15318:15397   */\n      tag_364\n      jump\t// in\n    tag_532:\n        /* \"#utility.yul\":15407:15479   */\n      tag_533\n        /* \"#utility.yul\":15475:15477   */\n      0x20\n        /* \"#utility.yul\":15464:15473   */\n      dup4\n        /* \"#utility.yul\":15460:15478   */\n      add\n        /* \"#utility.yul\":15451:15457   */\n      dup5\n        /* \"#utility.yul\":15407:15479   */\n      tag_326\n      jump\t// in\n    tag_533:\n        /* \"#utility.yul\":15138:15486   */\n      swap4\n      swap3\n      pop\n      pop\n      pop\n      jump\t// out\n        /* \"#utility.yul\":15492:15629   */\n    tag_365:\n        /* \"#utility.yul\":15546:15551   */\n      0x00\n        /* \"#utility.yul\":15577:15583   */\n      dup2\n        /* \"#utility.yul\":15571:15584   */\n      mload\n        /* \"#utility.yul\":15562:15584   */\n      swap1\n      pop\n        /* \"#utility.yul\":15593:15623   */\n      tag_535\n        /* \"#utility.yul\":15617:15622   */\n      dup2\n        /* \"#utility.yul\":15593:15623   */\n      tag_349\n      jump\t// in\n    tag_535:\n        /* \"#utility.yul\":15492:15629   */\n      swap3\n      swap2\n      pop\n      pop\n      jump\t// out\n        /* \"#utility.yul\":15635:15980   */\n    tag_239:\n        /* \"#utility.yul\":15702:15708   */\n      0x00\n        /* \"#utility.yul\":15751:15753   */\n      0x20\n        /* \"#utility.yul\":15739:15748   */\n      dup3\n        /* \"#utility.yul\":15730:15737   */\n      dup5\n        /* \"#utility.yul\":15726:15749   */\n      sub\n        /* \"#utility.yul\":15722:15754   */\n      slt\n        /* \"#utility.yul\":15719:15838   */\n      iszero\n      tag_537\n      jumpi\n        /* \"#utility.yul\":15757:15836   */\n      tag_538\n      tag_328\n      jump\t// in\n    tag_538:\n        /* \"#utility.yul\":15719:15838   */\n    tag_537:\n        /* \"#utility.yul\":15877:15878   */\n      0x00\n        /* \"#utility.yul\":15902:15963   */\n      tag_539\n        /* \"#utility.yul\":15955:15962   */\n      dup5\n        /* \"#utility.yul\":15946:15952   */\n      dup3\n        /* \"#utility.yul\":15935:15944   */\n      dup6\n        /* \"#utility.yul\":15931:15953   */\n      add\n        /* \"#utility.yul\":15902:15963   */\n      tag_365\n      jump\t// in\n    tag_539:\n        /* \"#utility.yul\":15892:15963   */\n      swap2\n      pop\n        /* \"#utility.yul\":15848:15973   */\n      pop\n        /* \"#utility.yul\":15635:15980   */\n      swap3\n      swap2\n      pop\n      pop\n      jump\t// out\n        /* \"#utility.yul\":15986:16150   */\n    tag_366:\n        /* \"#utility.yul\":16126:16142   */\n      0x496e76616c696420616d6f756e74000000000000000000000000000000000000\n        /* \"#utility.yul\":16122:16123   */\n      0x00\n        /* \"#utility.yul\":16114:16120   */\n      dup3\n        /* \"#utility.yul\":16110:16124   */\n      add\n        /* \"#utility.yul\":16103:16143   */\n      mstore\n        /* \"#utility.yul\":15986:16150   */\n      pop\n      jump\t// out\n        /* \"#utility.yul\":16156:16522   */\n    tag_367:\n        /* \"#utility.yul\":16298:16301   */\n      0x00\n        /* \"#utility.yul\":16319:16386   */\n      tag_542\n        /* \"#utility.yul\":16383:16385   */\n      0x0e\n        /* \"#utility.yul\":16378:16381   */\n      dup4\n        /* \"#utility.yul\":16319:16386   */\n      tag_335\n      jump\t// in\n    tag_542:\n        /* \"#utility.yul\":16312:16386   */\n      swap2\n      pop\n        /* \"#utility.yul\":16395:16488   */\n      tag_543\n        /* \"#utility.yul\":16484:16487   */\n      dup3\n        /* \"#utility.yul\":16395:16488   */\n      tag_366\n      jump\t// in\n    tag_543:\n        /* \"#utility.yul\":16513:16515   */\n      0x20\n        /* \"#utility.yul\":16508:16511   */\n      dup3\n        /* \"#utility.yul\":16504:16516   */\n      add\n        /* \"#utility.yul\":16497:16516   */\n      swap1\n      pop\n        /* \"#utility.yul\":16156:16522   */\n      swap2\n      swap1\n      pop\n      jump\t// out\n        /* \"#utility.yul\":16528:16947   */\n    tag_245:\n        /* \"#utility.yul\":16694:16698   */\n      0x00\n        /* \"#utility.yul\":16732:16734   */\n      0x20\n        /* \"#utility.yul\":16721:16730   */\n      dup3\n        /* \"#utility.yul\":16717:16735   */\n      add\n        /* \"#utility.yul\":16709:16735   */\n      swap1\n      pop\n        /* \"#utility.yul\":16781:16790   */\n      dup2\n        /* \"#utility.yul\":16775:16779   */\n      dup2\n        /* \"#utility.yul\":16771:16791   */\n      sub\n        /* \"#utility.yul\":16767:16768   */\n      0x00\n        /* \"#utility.yul\":16756:16765   */\n      dup4\n        /* \"#utility.yul\":16752:16769   */\n      add\n        /* \"#utility.yul\":16745:16792   */\n      mstore\n        /* \"#utility.yul\":16809:16940   */\n      tag_545\n        /* \"#utility.yul\":16935:16939   */\n      dup2\n        /* \"#utility.yul\":16809:16940   */\n      tag_367\n      jump\t// in\n    tag_545:\n        /* \"#utility.yul\":16801:16940   */\n      swap1\n      pop\n        /* \"#utility.yul\":16528:16947   */\n      swap2\n      swap1\n      pop\n      jump\t// out\n        /* \"#utility.yul\":16953:17125   */\n    tag_368:\n        /* \"#utility.yul\":17093:17117   */\n      0x436f6e7472616374204e4654206e6f7420666f756e6400000000000000000000\n        /* \"#utility.yul\":17089:17090   */\n      0x00\n        /* \"#utility.yul\":17081:17087   */\n      dup3\n        /* \"#utility.yul\":17077:17091   */\n      add\n        /* \"#utility.yul\":17070:17118   */\n      mstore\n        /* \"#utility.yul\":16953:17125   */\n      pop\n      jump\t// out\n        /* \"#utility.yul\":17131:17497   */\n    tag_369:\n        /* \"#utility.yul\":17273:17276   */\n      0x00\n        /* \"#utility.yul\":17294:17361   */\n      tag_548\n        /* \"#utility.yul\":17358:17360   */\n      0x16\n        /* \"#utility.yul\":17353:17356   */\n      dup4\n        /* \"#utility.yul\":17294:17361   */\n      tag_335\n      jump\t// in\n    tag_548:\n        /* \"#utility.yul\":17287:17361   */\n      swap2\n      pop\n        /* \"#utility.yul\":17370:17463   */\n      tag_549\n        /* \"#utility.yul\":17459:17462   */\n      dup3\n        /* \"#utility.yul\":17370:17463   */\n      tag_368\n      jump\t// in\n    tag_549:\n        /* \"#utility.yul\":17488:17490   */\n      0x20\n        /* \"#utility.yul\":17483:17486   */\n      dup3\n        /* \"#utility.yul\":17479:17491   */\n      add\n        /* \"#utility.yul\":17472:17491   */\n      swap1\n      pop\n        /* \"#utility.yul\":17131:17497   */\n      swap2\n      swap1\n      pop\n      jump\t// out\n        /* \"#utility.yul\":17503:17922   */\n    tag_248:\n        /* \"#utility.yul\":17669:17673   */\n      0x00\n        /* \"#utility.yul\":17707:17709   */\n      0x20\n        /* \"#utility.yul\":17696:17705   */\n      dup3\n        /* \"#utility.yul\":17692:17710   */\n      add\n        /* \"#utility.yul\":17684:17710   */\n      swap1\n      pop\n        /* \"#utility.yul\":17756:17765   */\n      dup2\n        /* \"#utility.yul\":17750:17754   */\n      dup2\n        /* \"#utility.yul\":17746:17766   */\n      sub\n        /* \"#utility.yul\":17742:17743   */\n      0x00\n        /* \"#utility.yul\":17731:17740   */\n      dup4\n        /* \"#utility.yul\":17727:17744   */\n      add\n        /* \"#utility.yul\":17720:17767   */\n      mstore\n        /* \"#utility.yul\":17784:17915   */\n      tag_551\n        /* \"#utility.yul\":17910:17914   */\n      dup2\n        /* \"#utility.yul\":17784:17915   */\n      tag_369\n      jump\t// in\n    tag_551:\n        /* \"#utility.yul\":17776:17915   */\n      swap1\n      pop\n        /* \"#utility.yul\":17503:17922   */\n      swap2\n      swap1\n      pop\n      jump\t// out\n        /* \"#utility.yul\":17928:18925   */\n    tag_277:\n        /* \"#utility.yul\":18217:18221   */\n      0x00\n        /* \"#utility.yul\":18255:18258   */\n      0x0100\n        /* \"#utility.yul\":18244:18253   */\n      dup3\n        /* \"#utility.yul\":18240:18259   */\n      add\n        /* \"#utility.yul\":18232:18259   */\n      swap1\n      pop\n        /* \"#utility.yul\":18269:18340   */\n      tag_553\n        /* \"#utility.yul\":18337:18338   */\n      0x00\n        /* \"#utility.yul\":18326:18335   */\n      dup4\n        /* \"#utility.yul\":18322:18339   */\n      add\n        /* \"#utility.yul\":18313:18319   */\n      dup12\n        /* \"#utility.yul\":18269:18340   */\n      tag_354\n      jump\t// in\n    tag_553:\n        /* \"#utility.yul\":18350:18422   */\n      tag_554\n        /* \"#utility.yul\":18418:18420   */\n      0x20\n        /* \"#utility.yul\":18407:18416   */\n      dup4\n        /* \"#utility.yul\":18403:18421   */\n      add\n        /* \"#utility.yul\":18394:18400   */\n      dup11\n        /* \"#utility.yul\":18350:18422   */\n      tag_354\n      jump\t// in\n    tag_554:\n        /* \"#utility.yul\":18432:18504   */\n      tag_555\n        /* \"#utility.yul\":18500:18502   */\n      0x40\n        /* \"#utility.yul\":18489:18498   */\n      dup4\n        /* \"#utility.yul\":18485:18503   */\n      add\n        /* \"#utility.yul\":18476:18482   */\n      dup10\n        /* \"#utility.yul\":18432:18504   */\n      tag_354\n      jump\t// in\n    tag_555:\n        /* \"#utility.yul\":18514:18586   */\n      tag_556\n        /* \"#utility.yul\":18582:18584   */\n      0x60\n        /* \"#utility.yul\":18571:18580   */\n      dup4\n        /* \"#utility.yul\":18567:18585   */\n      add\n        /* \"#utility.yul\":18558:18564   */\n      dup9\n        /* \"#utility.yul\":18514:18586   */\n      tag_354\n      jump\t// in\n    tag_556:\n        /* \"#utility.yul\":18596:18669   */\n      tag_557\n        /* \"#utility.yul\":18664:18667   */\n      0x80\n        /* \"#utility.yul\":18653:18662   */\n      dup4\n        /* \"#utility.yul\":18649:18668   */\n      add\n        /* \"#utility.yul\":18640:18646   */\n      dup8\n        /* \"#utility.yul\":18596:18669   */\n      tag_326\n      jump\t// in\n    tag_557:\n        /* \"#utility.yul\":18679:18752   */\n      tag_558\n        /* \"#utility.yul\":18747:18750   */\n      0xa0\n        /* \"#utility.yul\":18736:18745   */\n      dup4\n        /* \"#utility.yul\":18732:18751   */\n      add\n        /* \"#utility.yul\":18723:18729   */\n      dup7\n        /* \"#utility.yul\":18679:18752   */\n      tag_326\n      jump\t// in\n    tag_558:\n        /* \"#utility.yul\":18762:18835   */\n      tag_559\n        /* \"#utility.yul\":18830:18833   */\n      0xc0\n        /* \"#utility.yul\":18819:18828   */\n      dup4\n        /* \"#utility.yul\":18815:18834   */\n      add\n        /* \"#utility.yul\":18806:18812   */\n      dup6\n        /* \"#utility.yul\":18762:18835   */\n      tag_326\n      jump\t// in\n    tag_559:\n        /* \"#utility.yul\":18845:18918   */\n      tag_560\n        /* \"#utility.yul\":18913:18916   */\n      0xe0\n        /* \"#utility.yul\":18902:18911   */\n      dup4\n        /* \"#utility.yul\":18898:18917   */\n      add\n        /* \"#utility.yul\":18889:18895   */\n      dup5\n        /* \"#utility.yul\":18845:18918   */\n      tag_326\n      jump\t// in\n    tag_560:\n        /* \"#utility.yul\":17928:18925   */\n      swap10\n      swap9\n      pop\n      pop\n      pop\n      pop\n      pop\n      pop\n      pop\n      pop\n      pop\n      jump\t// out\n        /* \"#utility.yul\":18931:19156   */\n    tag_370:\n        /* \"#utility.yul\":19071:19105   */\n      0x4f776e61626c653a206e6577206f776e657220697320746865207a65726f2061\n        /* \"#utility.yul\":19067:19068   */\n      0x00\n        /* \"#utility.yul\":19059:19065   */\n      dup3\n        /* \"#utility.yul\":19055:19069   */\n      add\n        /* \"#utility.yul\":19048:19106   */\n      mstore\n        /* \"#utility.yul\":19140:19148   */\n      0x6464726573730000000000000000000000000000000000000000000000000000\n        /* \"#utility.yul\":19135:19137   */\n      0x20\n        /* \"#utility.yul\":19127:19133   */\n      dup3\n        /* \"#utility.yul\":19123:19138   */\n      add\n        /* \"#utility.yul\":19116:19149   */\n      mstore\n        /* \"#utility.yul\":18931:19156   */\n      pop\n      jump\t// out\n        /* \"#utility.yul\":19162:19528   */\n    tag_371:\n        /* \"#utility.yul\":19304:19307   */\n      0x00\n        /* \"#utility.yul\":19325:19392   */\n      tag_563\n        /* \"#utility.yul\":19389:19391   */\n      0x26\n        /* \"#utility.yul\":19384:19387   */\n      dup4\n        /* \"#utility.yul\":19325:19392   */\n      tag_335\n      jump\t// in\n    tag_563:\n        /* \"#utility.yul\":19318:19392   */\n      swap2\n      pop\n        /* \"#utility.yul\":19401:19494   */\n      tag_564\n        /* \"#utility.yul\":19490:19493   */\n      dup3\n        /* \"#utility.yul\":19401:19494   */\n      tag_370\n      jump\t// in\n    tag_564:\n        /* \"#utility.yul\":19519:19521   */\n      0x40\n        /* \"#utility.yul\":19514:19517   */\n      dup3\n        /* \"#utility.yul\":19510:19522   */\n      add\n        /* \"#utility.yul\":19503:19522   */\n      swap1\n      pop\n        /* \"#utility.yul\":19162:19528   */\n      swap2\n      swap1\n      pop\n      jump\t// out\n        /* \"#utility.yul\":19534:19953   */\n    tag_311:\n        /* \"#utility.yul\":19700:19704   */\n      0x00\n        /* \"#utility.yul\":19738:19740   */\n      0x20\n        /* \"#utility.yul\":19727:19736   */\n      dup3\n        /* \"#utility.yul\":19723:19741   */\n      add\n        /* \"#utility.yul\":19715:19741   */\n      swap1\n      pop\n        /* \"#utility.yul\":19787:19796   */\n      dup2\n        /* \"#utility.yul\":19781:19785   */\n      dup2\n        /* \"#utility.yul\":19777:19797   */\n      sub\n        /* \"#utility.yul\":19773:19774   */\n      0x00\n        /* \"#utility.yul\":19762:19771   */\n      dup4\n        /* \"#utility.yul\":19758:19775   */\n      add\n        /* \"#utility.yul\":19751:19798   */\n      mstore\n        /* \"#utility.yul\":19815:19946   */\n      tag_566\n        /* \"#utility.yul\":19941:19945   */\n      dup2\n        /* \"#utility.yul\":19815:19946   */\n      tag_371\n      jump\t// in\n    tag_566:\n        /* \"#utility.yul\":19807:19946   */\n      swap1\n      pop\n        /* \"#utility.yul\":19534:19953   */\n      swap2\n      swap1\n      pop\n      jump\t// out\n        /* \"#utility.yul\":19959:20139   */\n    tag_372:\n        /* \"#utility.yul\":20007:20084   */\n      0x4e487b7100000000000000000000000000000000000000000000000000000000\n        /* \"#utility.yul\":20004:20005   */\n      0x00\n        /* \"#utility.yul\":19997:20085   */\n      mstore\n        /* \"#utility.yul\":20104:20108   */\n      0x11\n        /* \"#utility.yul\":20101:20102   */\n      0x04\n        /* \"#utility.yul\":20094:20109   */\n      mstore\n        /* \"#utility.yul\":20128:20132   */\n      0x24\n        /* \"#utility.yul\":20125:20126   */\n      0x00\n        /* \"#utility.yul\":20118:20133   */\n      revert\n        /* \"#utility.yul\":20145:20555   */\n    tag_317:\n        /* \"#utility.yul\":20185:20192   */\n      0x00\n        /* \"#utility.yul\":20208:20228   */\n      tag_569\n        /* \"#utility.yul\":20226:20227   */\n      dup3\n        /* \"#utility.yul\":20208:20228   */\n      tag_325\n      jump\t// in\n    tag_569:\n        /* \"#utility.yul\":20203:20228   */\n      swap2\n      pop\n        /* \"#utility.yul\":20242:20262   */\n      tag_570\n        /* \"#utility.yul\":20260:20261   */\n      dup4\n        /* \"#utility.yul\":20242:20262   */\n      tag_325\n      jump\t// in\n    tag_570:\n        /* \"#utility.yul\":20237:20262   */\n      swap3\n      pop\n        /* \"#utility.yul\":20297:20298   */\n      dup3\n        /* \"#utility.yul\":20294:20295   */\n      dup3\n        /* \"#utility.yul\":20290:20299   */\n      mul\n        /* \"#utility.yul\":20319:20349   */\n      tag_571\n        /* \"#utility.yul\":20337:20348   */\n      dup2\n        /* \"#utility.yul\":20319:20349   */\n      tag_325\n      jump\t// in\n    tag_571:\n        /* \"#utility.yul\":20308:20349   */\n      swap2\n      pop\n        /* \"#utility.yul\":20498:20499   */\n      dup3\n        /* \"#utility.yul\":20489:20496   */\n      dup3\n        /* \"#utility.yul\":20485:20500   */\n      div\n        /* \"#utility.yul\":20482:20483   */\n      dup5\n        /* \"#utility.yul\":20479:20501   */\n      eq\n        /* \"#utility.yul\":20459:20460   */\n      dup4\n        /* \"#utility.yul\":20452:20461   */\n      iszero\n        /* \"#utility.yul\":20432:20515   */\n      or\n        /* \"#utility.yul\":20409:20548   */\n      tag_572\n      jumpi\n        /* \"#utility.yul\":20528:20546   */\n      tag_573\n      tag_372\n      jump\t// in\n    tag_573:\n        /* \"#utility.yul\":20409:20548   */\n    tag_572:\n        /* \"#utility.yul\":20193:20555   */\n      pop\n        /* \"#utility.yul\":20145:20555   */\n      swap3\n      swap2\n      pop\n      pop\n      jump\t// out\n        /* \"#utility.yul\":20561:20741   */\n    tag_373:\n        /* \"#utility.yul\":20609:20686   */\n      0x4e487b7100000000000000000000000000000000000000000000000000000000\n        /* \"#utility.yul\":20606:20607   */\n      0x00\n        /* \"#utility.yul\":20599:20687   */\n      mstore\n        /* \"#utility.yul\":20706:20710   */\n      0x12\n        /* \"#utility.yul\":20703:20704   */\n      0x04\n        /* \"#utility.yul\":20696:20711   */\n      mstore\n        /* \"#utility.yul\":20730:20734   */\n      0x24\n        /* \"#utility.yul\":20727:20728   */\n      0x00\n        /* \"#utility.yul\":20720:20735   */\n      revert\n        /* \"#utility.yul\":20747:20932   */\n    tag_320:\n        /* \"#utility.yul\":20787:20788   */\n      0x00\n        /* \"#utility.yul\":20804:20824   */\n      tag_576\n        /* \"#utility.yul\":20822:20823   */\n      dup3\n        /* \"#utility.yul\":20804:20824   */\n      tag_325\n      jump\t// in\n    tag_576:\n        /* \"#utility.yul\":20799:20824   */\n      swap2\n      pop\n        /* \"#utility.yul\":20838:20858   */\n      tag_577\n        /* \"#utility.yul\":20856:20857   */\n      dup4\n        /* \"#utility.yul\":20838:20858   */\n      tag_325\n      jump\t// in\n    tag_577:\n        /* \"#utility.yul\":20833:20858   */\n      swap3\n      pop\n        /* \"#utility.yul\":20877:20878   */\n      dup3\n        /* \"#utility.yul\":20867:20902   */\n      tag_578\n      jumpi\n        /* \"#utility.yul\":20882:20900   */\n      tag_579\n      tag_373\n      jump\t// in\n    tag_579:\n        /* \"#utility.yul\":20867:20902   */\n    tag_578:\n        /* \"#utility.yul\":20924:20925   */\n      dup3\n        /* \"#utility.yul\":20921:20922   */\n      dup3\n        /* \"#utility.yul\":20917:20926   */\n      div\n        /* \"#utility.yul\":20912:20926   */\n      swap1\n      pop\n        /* \"#utility.yul\":20747:20932   */\n      swap3\n      swap2\n      pop\n      pop\n      jump\t// out\n        /* \"#utility.yul\":20938:21132   */\n    tag_323:\n        /* \"#utility.yul\":20978:20982   */\n      0x00\n        /* \"#utility.yul\":20998:21018   */\n      tag_581\n        /* \"#utility.yul\":21016:21017   */\n      dup3\n        /* \"#utility.yul\":20998:21018   */\n      tag_325\n      jump\t// in\n    tag_581:\n        /* \"#utility.yul\":20993:21018   */\n      swap2\n      pop\n        /* \"#utility.yul\":21032:21052   */\n      tag_582\n        /* \"#utility.yul\":21050:21051   */\n      dup4\n        /* \"#utility.yul\":21032:21052   */\n      tag_325\n      jump\t// in\n    tag_582:\n        /* \"#utility.yul\":21027:21052   */\n      swap3\n      pop\n        /* \"#utility.yul\":21076:21077   */\n      dup3\n        /* \"#utility.yul\":21073:21074   */\n      dup3\n        /* \"#utility.yul\":21069:21078   */\n      sub\n        /* \"#utility.yul\":21061:21078   */\n      swap1\n      pop\n        /* \"#utility.yul\":21100:21101   */\n      dup2\n        /* \"#utility.yul\":21094:21098   */\n      dup2\n        /* \"#utility.yul\":21091:21102   */\n      gt\n        /* \"#utility.yul\":21088:21125   */\n      iszero\n      tag_583\n      jumpi\n        /* \"#utility.yul\":21105:21123   */\n      tag_584\n      tag_372\n      jump\t// in\n    tag_584:\n        /* \"#utility.yul\":21088:21125   */\n    tag_583:\n        /* \"#utility.yul\":20938:21132   */\n      swap3\n      swap2\n      pop\n      pop\n      jump\t// out\n\n    auxdata: 0xa264697066735822122070a4576539d34c0da72d4fef54557ae2ee40f83e685ad2595356c071947ff33264736f6c63430008120033\n}\n",
				"bytecode": {
					"linkReferences": {},
					"object": "60806040526040518060400160405280600f81526020017f4d65676120466163746f72792056310000000000000000000000000000000000815250600290816200004a9190620005a7565b50738b9588f69e04d69655e0d866cd701844177360a7600460006101000a81548173ffffffffffffffffffffffffffffffffffffffff021916908373ffffffffffffffffffffffffffffffffffffffff160217905550738b9588f69e04d69655e0d866cd701844177360a7600560006101000a81548173ffffffffffffffffffffffffffffffffffffffff021916908373ffffffffffffffffffffffffffffffffffffffff160217905550738b9588f69e04d69655e0d866cd701844177360a7600660006101000a81548173ffffffffffffffffffffffffffffffffffffffff021916908373ffffffffffffffffffffffffffffffffffffffff16021790555066071afd498d0000600755606460085560c8600955600a80553480156200017057600080fd5b5060405162002c0f38038062002c0f8339818101604052810190620001969190620006f8565b6001600081905550620001be620001b26200025f60201b60201c565b6200026760201b60201c565b81600360006101000a81548173ffffffffffffffffffffffffffffffffffffffff021916908373ffffffffffffffffffffffffffffffffffffffff1602179055506001600b60008373ffffffffffffffffffffffffffffffffffffffff1673ffffffffffffffffffffffffffffffffffffffff16815260200190815260200160002060006101000a81548160ff02191690831515021790555050506200073f565b600033905090565b6000600160009054906101000a900473ffffffffffffffffffffffffffffffffffffffff16905081600160006101000a81548173ffffffffffffffffffffffffffffffffffffffff021916908373ffffffffffffffffffffffffffffffffffffffff1602179055508173ffffffffffffffffffffffffffffffffffffffff168173ffffffffffffffffffffffffffffffffffffffff167f8be0079c531659141344cd1fd0a4f28419497f9722a3daafe3b4186f6b6457e060405160405180910390a35050565b600081519050919050565b7f4e487b7100000000000000000000000000000000000000000000000000000000600052604160045260246000fd5b7f4e487b7100000000000000000000000000000000000000000000000000000000600052602260045260246000fd5b60006002820490506001821680620003af57607f821691505b602082108103620003c557620003c462000367565b5b50919050565b60008190508160005260206000209050919050565b60006020601f8301049050919050565b600082821b905092915050565b6000600883026200042f7fffffffffffffffffffffffffffffffffffffffffffffffffffffffffffffffff82620003f0565b6200043b8683620003f0565b95508019841693508086168417925050509392505050565b6000819050919050565b6000819050919050565b600062000488620004826200047c8462000453565b6200045d565b62000453565b9050919050565b6000819050919050565b620004a48362000467565b620004bc620004b3826200048f565b848454620003fd565b825550505050565b600090565b620004d3620004c4565b620004e081848462000499565b505050565b5b818110156200050857620004fc600082620004c9565b600181019050620004e6565b5050565b601f82111562000557576200052181620003cb565b6200052c84620003e0565b810160208510156200053c578190505b620005546200054b85620003e0565b830182620004e5565b50505b505050565b600082821c905092915050565b60006200057c600019846008026200055c565b1980831691505092915050565b600062000597838362000569565b9150826002028217905092915050565b620005b2826200032d565b67ffffffffffffffff811115620005ce57620005cd62000338565b5b620005da825462000396565b620005e78282856200050c565b600060209050601f8311600181146200061f57600084156200060a578287015190505b62000616858262000589565b86555062000686565b601f1984166200062f86620003cb565b60005b82811015620006595784890151825560018201915060208501945060208101905062000632565b8683101562000679578489015162000675601f89168262000569565b8355505b6001600288020188555050505b505050505050565b600080fd5b600073ffffffffffffffffffffffffffffffffffffffff82169050919050565b6000620006c08262000693565b9050919050565b620006d281620006b3565b8114620006de57600080fd5b50565b600081519050620006f281620006c7565b92915050565b600080604083850312156200071257620007116200068e565b5b60006200072285828601620006e1565b92505060206200073585828601620006e1565b9150509250929050565b6124c0806200074f6000396000f3fe6080604052600436106101855760003560e01c8063785f2391116100d1578063a9e529871161008a578063e803cee011610064578063e803cee01461051e578063e9d8b18114610549578063f2fde38b14610572578063fc3c28af1461059b5761018c565b8063a9e529871461049f578063c78c45ff146104c8578063d3a0ab1b146104f35761018c565b8063785f23911461039e5780637ba45769146103db5780638858906d146103f75780638da5cb5b146104205780638ea5220f1461044b578063a7ccabdf146104765761018c565b8063235392241161013e5780636eaddad2116101185780636eaddad21461030c5780636f0aa4a214610335578063715018a61461035e5780637196541b146103755761018c565b8063235392241461028d57806352509d8e146102b85780636b9e619f146102e15761018c565b806301c234a814610191578063065e812b146101bc57806306fdde03146101e557806315344276146102105780631f53ac021461023b5780631ffe0f61146102645761018c565b3661018c57005b600080fd5b34801561019d57600080fd5b506101a66105c6565b6040516101b391906119c4565b60405180910390f35b3480156101c857600080fd5b506101e360048036038101906101de9190611a42565b6105cc565b005b3480156101f157600080fd5b506101fa61068c565b6040516102079190611aff565b60405180910390f35b34801561021c57600080fd5b5061022561071e565b60405161023291906119c4565b60405180910390f35b34801561024757600080fd5b50610262600480360381019061025d9190611a42565b610724565b005b34801561027057600080fd5b5061028b60048036038101906102869190611b4d565b6107e4565b005b34801561029957600080fd5b506102a261086a565b6040516102af9190611b9b565b60405180910390f35b3480156102c457600080fd5b506102df60048036038101906102da9190611bb6565b610890565b005b3480156102ed57600080fd5b506102f6610c0d565b6040516103039190611c7c565b60405180910390f35b34801561031857600080fd5b50610333600480360381019061032e9190611b4d565b610c33565b005b34801561034157600080fd5b5061035c60048036038101906103579190611ccf565b610cb9565b005b34801561036a57600080fd5b50610373610d90565b005b34801561038157600080fd5b5061039c60048036038101906103979190611d3b565b610e18565b005b3480156103aa57600080fd5b506103c560048036038101906103c09190611a42565b610f99565b6040516103d29190611d9d565b60405180910390f35b6103f560048036038101906103f09190611db8565b610fb9565b005b34801561040357600080fd5b5061041e60048036038101906104199190611b4d565b611426565b005b34801561042c57600080fd5b506104356114ac565b6040516104429190611e07565b60405180910390f35b34801561045757600080fd5b506104606114d6565b60405161046d9190611b9b565b60405180910390f35b34801561048257600080fd5b5061049d60048036038101906104989190611a42565b6114fc565b005b3480156104ab57600080fd5b506104c660048036038101906104c19190611b4d565b6115bc565b005b3480156104d457600080fd5b506104dd611642565b6040516104ea91906119c4565b60405180910390f35b3480156104ff57600080fd5b50610508611648565b60405161051591906119c4565b60405180910390f35b34801561052a57600080fd5b5061053361164e565b6040516105409190611b9b565b60405180910390f35b34801561055557600080fd5b50610570600480360381019061056b9190611a42565b611674565b005b34801561057e57600080fd5b5061059960048036038101906105949190611a42565b611734565b005b3480156105a757600080fd5b506105b061182b565b6040516105bd91906119c4565b60405180910390f35b6103e881565b6105d4611831565b73ffffffffffffffffffffffffffffffffffffffff166105f26114ac565b73ffffffffffffffffffffffffffffffffffffffff1614610648576040517f08c379a000000000000000000000000000000000000000000000000000000000815260040161063f90611e6e565b60405180910390fd5b80600560006101000a81548173ffffffffffffffffffffffffffffffffffffffff021916908373ffffffffffffffffffffffffffffffffffffffff16021790555050565b60606002805461069b90611ebd565b80601f01602080910402602001604051908101604052809291908181526020018280546106c790611ebd565b80156107145780601f106106e957610100808354040283529160200191610714565b820191906000526020600020905b8154815290600101906020018083116106f757829003601f168201915b5050505050905090565b60085481565b61072c611831565b73ffffffffffffffffffffffffffffffffffffffff1661074a6114ac565b73ffffffffffffffffffffffffffffffffffffffff16146107a0576040517f08c379a000000000000000000000000000000000000000000000000000000000815260040161079790611e6e565b60405180910390fd5b80600460006101000a81548173ffffffffffffffffffffffffffffffffffffffff021916908373ffffffffffffffffffffffffffffffffffffffff16021790555050565b6107ec611831565b73ffffffffffffffffffffffffffffffffffffffff1661080a6114ac565b73ffffffffffffffffffffffffffffffffffffffff1614610860576040517f08c379a000000000000000000000000000000000000000000000000000000000815260040161085790611e6e565b60405180910390fd5b80600a8190555050565b600660009054906101000a900473ffffffffffffffffffffffffffffffffffffffff1681565b6002600054036108d5576040517f08c379a00000000000000000000000000000000000000000000000000000000081526004016108cc90611f3a565b60405180910390fd5b600260008190555060011515600b60008673ffffffffffffffffffffffffffffffffffffffff1673ffffffffffffffffffffffffffffffffffffffff16815260200190815260200160002060009054906101000a900460ff16151514610970576040517f08c379a000000000000000000000000000000000000000000000000000000000815260040161096790611fa6565b60405180910390fd5b600073ffffffffffffffffffffffffffffffffffffffff168173ffffffffffffffffffffffffffffffffffffffff16036109ca57600660009054906101000a900473ffffffffffffffffffffffffffffffffffffffff1690505b6000600360009054906101000a900473ffffffffffffffffffffffffffffffffffffffff1673ffffffffffffffffffffffffffffffffffffffff16636e4b73c16040518163ffffffff1660e01b8152600401602060405180830381865afa158015610a39573d6000803e3d6000fd5b505050506040513d601f19601f82011682018060405250810190610a5d9190611fdb565b9050600360009054906101000a900473ffffffffffffffffffffffffffffffffffffffff1673ffffffffffffffffffffffffffffffffffffffff1663f02887f1610aa5611831565b83866040518463ffffffff1660e01b8152600401610ac593929190612008565b600060405180830381600087803b158015610adf57600080fd5b505af1158015610af3573d6000803e3d6000fd5b505050508473ffffffffffffffffffffffffffffffffffffffff16632240b81a600954600a5485600460009054906101000a900473ffffffffffffffffffffffffffffffffffffffff16600560009054906101000a900473ffffffffffffffffffffffffffffffffffffffff168a888b610b6b611831565b6040518a63ffffffff1660e01b8152600401610b8f99989796959493929190612060565b600060405180830381600087803b158015610ba957600080fd5b505af1158015610bbd573d6000803e3d6000fd5b505050507f7c1ffd06d2a1dfda35ac96481c894c45a1623c365a9060c5a038a45db4614e8085858386604051610bf694939291906120ed565b60405180910390a150600160008190555050505050565b600360009054906101000a900473ffffffffffffffffffffffffffffffffffffffff1681565b610c3b611831565b73ffffffffffffffffffffffffffffffffffffffff16610c596114ac565b73ffffffffffffffffffffffffffffffffffffffff1614610caf576040517f08c379a0000000000000000000000000000000000000000000000000000000008152600401610ca690611e6e565b60405180910390fd5b8060098190555050565b610cc1611831565b73ffffffffffffffffffffffffffffffffffffffff16610cdf6114ac565b73ffffffffffffffffffffffffffffffffffffffff1614610d35576040517f08c379a0000000000000000000000000000000000000000000000000000000008152600401610d2c90611e6e565b60405180910390fd5b80600b60008473ffffffffffffffffffffffffffffffffffffffff1673ffffffffffffffffffffffffffffffffffffffff16815260200190815260200160002060006101000a81548160ff0219169083151502179055505050565b610d98611831565b73ffffffffffffffffffffffffffffffffffffffff16610db66114ac565b73ffffffffffffffffffffffffffffffffffffffff1614610e0c576040517f08c379a0000000000000000000000000000000000000000000000000000000008152600401610e0390611e6e565b60405180910390fd5b610e166000611839565b565b610e20611831565b73ffffffffffffffffffffffffffffffffffffffff16610e3e6114ac565b73ffffffffffffffffffffffffffffffffffffffff1614610e94576040517f08c379a0000000000000000000000000000000000000000000000000000000008152600401610e8b90611e6e565b60405180910390fd5b600073ffffffffffffffffffffffffffffffffffffffff168373ffffffffffffffffffffffffffffffffffffffff1603610f14578073ffffffffffffffffffffffffffffffffffffffff166108fc839081150290604051600060405180830381858888f19350505050158015610f0e573d6000803e3d6000fd5b50610f94565b8273ffffffffffffffffffffffffffffffffffffffff1663a9059cbb82846040518363ffffffff1660e01b8152600401610f4f929190612132565b6020604051808303816000875af1158015610f6e573d6000803e3d6000fd5b505050506040513d601f19601f82011682018060405250810190610f929190612170565b505b505050565b600b6020528060005260406000206000915054906101000a900460ff1681565b60011515600b60008473ffffffffffffffffffffffffffffffffffffffff1673ffffffffffffffffffffffffffffffffffffffff16815260200190815260200160002060009054906101000a900460ff1615151461104c576040517f08c379a000000000000000000000000000000000000000000000000000000000815260040161104390611fa6565b60405180910390fd5b600754341015611091576040517f08c379a0000000000000000000000000000000000000000000000000000000008152600401611088906121e9565b60405180910390fd5b600073ffffffffffffffffffffffffffffffffffffffff16600360009054906101000a900473ffffffffffffffffffffffffffffffffffffffff1673ffffffffffffffffffffffffffffffffffffffff1603611122576040517f08c379a000000000000000000000000000000000000000000000000000000000815260040161111990612255565b60405180910390fd5b600061114f6103e86111416008546007546118ff90919063ffffffff16565b61191590919063ffffffff16565b9050600061117e6103e86111706009546007546118ff90919063ffffffff16565b61191590919063ffffffff16565b905060006111a98261119b8560075461192b90919063ffffffff16565b61192b90919063ffffffff16565b9050600660009054906101000a900473ffffffffffffffffffffffffffffffffffffffff1673ffffffffffffffffffffffffffffffffffffffff166108fc849081150290604051600060405180830381858888f19350505050158015611213573d6000803e3d6000fd5b50600460009054906101000a900473ffffffffffffffffffffffffffffffffffffffff1673ffffffffffffffffffffffffffffffffffffffff166108fc839081150290604051600060405180830381858888f1935050505015801561127c573d6000803e3d6000fd5b50600560009054906101000a900473ffffffffffffffffffffffffffffffffffffffff1673ffffffffffffffffffffffffffffffffffffffff166108fc829081150290604051600060405180830381858888f193505050501580156112e5573d6000803e3d6000fd5b5060006112f186611941565b90508073ffffffffffffffffffffffffffffffffffffffff1663144fa6d7866040518263ffffffff1660e01b815260040161132c9190611e07565b600060405180830381600087803b15801561134657600080fd5b505af115801561135a573d6000803e3d6000fd5b505050508073ffffffffffffffffffffffffffffffffffffffff1663ab346b0a611382611831565b6040518263ffffffff1660e01b815260040161139e9190611e07565b600060405180830381600087803b1580156113b857600080fd5b505af11580156113cc573d6000803e3d6000fd5b505050507fd5a9b24ab47b03ff4180571dd82bdfb1b301682ef89e3641dfa041ad648a5933816113fa611831565b8888600754898989604051611416989796959493929190612275565b60405180910390a1505050505050565b61142e611831565b73ffffffffffffffffffffffffffffffffffffffff1661144c6114ac565b73ffffffffffffffffffffffffffffffffffffffff16146114a2576040517f08c379a000000000000000000000000000000000000000000000000000000000815260040161149990611e6e565b60405180910390fd5b8060088190555050565b6000600160009054906101000a900473ffffffffffffffffffffffffffffffffffffffff16905090565b600460009054906101000a900473ffffffffffffffffffffffffffffffffffffffff1681565b611504611831565b73ffffffffffffffffffffffffffffffffffffffff166115226114ac565b73ffffffffffffffffffffffffffffffffffffffff1614611578576040517f08c379a000000000000000000000000000000000000000000000000000000000815260040161156f90611e6e565b60405180910390fd5b80600360006101000a81548173ffffffffffffffffffffffffffffffffffffffff021916908373ffffffffffffffffffffffffffffffffffffffff16021790555050565b6115c4611831565b73ffffffffffffffffffffffffffffffffffffffff166115e26114ac565b73ffffffffffffffffffffffffffffffffffffffff1614611638576040517f08c379a000000000000000000000000000000000000000000000000000000000815260040161162f90611e6e565b60405180910390fd5b8060078190555050565b60075481565b600a5481565b600560009054906101000a900473ffffffffffffffffffffffffffffffffffffffff1681565b61167c611831565b73ffffffffffffffffffffffffffffffffffffffff1661169a6114ac565b73ffffffffffffffffffffffffffffffffffffffff16146116f0576040517f08c379a00000000000000000000000000000000000000000000000000000000081526004016116e790611e6e565b60405180910390fd5b80600660006101000a81548173ffffffffffffffffffffffffffffffffffffffff021916908373ffffffffffffffffffffffffffffffffffffffff16021790555050565b61173c611831565b73ffffffffffffffffffffffffffffffffffffffff1661175a6114ac565b73ffffffffffffffffffffffffffffffffffffffff16146117b0576040517f08c379a00000000000000000000000000000000000000000000000000000000081526004016117a790611e6e565b60405180910390fd5b600073ffffffffffffffffffffffffffffffffffffffff168173ffffffffffffffffffffffffffffffffffffffff160361181f576040517f08c379a000000000000000000000000000000000000000000000000000000000815260040161181690612365565b60405180910390fd5b61182881611839565b50565b60095481565b600033905090565b6000600160009054906101000a900473ffffffffffffffffffffffffffffffffffffffff16905081600160006101000a81548173ffffffffffffffffffffffffffffffffffffffff021916908373ffffffffffffffffffffffffffffffffffffffff1602179055508173ffffffffffffffffffffffffffffffffffffffff168173ffffffffffffffffffffffffffffffffffffffff167f8be0079c531659141344cd1fd0a4f28419497f9722a3daafe3b4186f6b6457e060405160405180910390a35050565b6000818361190d91906123b4565b905092915050565b600081836119239190612425565b905092915050565b600081836119399190612456565b905092915050565b6000808260601b90506040517f3d602d80600a3d3981f3363d3d373d3d3d363d7300000000000000000000000081528160148201527f5af43d82803e903d91602b57fd5bf3000000000000000000000000000000000060288201526037816000f092505050919050565b6000819050919050565b6119be816119ab565b82525050565b60006020820190506119d960008301846119b5565b92915050565b600080fd5b600073ffffffffffffffffffffffffffffffffffffffff82169050919050565b6000611a0f826119e4565b9050919050565b611a1f81611a04565b8114611a2a57600080fd5b50565b600081359050611a3c81611a16565b92915050565b600060208284031215611a5857611a576119df565b5b6000611a6684828501611a2d565b91505092915050565b600081519050919050565b600082825260208201905092915050565b60005b83811015611aa9578082015181840152602081019050611a8e565b60008484015250505050565b6000601f19601f8301169050919050565b6000611ad182611a6f565b611adb8185611a7a565b9350611aeb818560208601611a8b565b611af481611ab5565b840191505092915050565b60006020820190508181036000830152611b198184611ac6565b905092915050565b611b2a816119ab565b8114611b3557600080fd5b50565b600081359050611b4781611b21565b92915050565b600060208284031215611b6357611b626119df565b5b6000611b7184828501611b38565b91505092915050565b6000611b85826119e4565b9050919050565b611b9581611b7a565b82525050565b6000602082019050611bb06000830184611b8c565b92915050565b60008060008060808587031215611bd057611bcf6119df565b5b6000611bde87828801611a2d565b9450506020611bef87828801611b38565b9350506040611c0087828801611b38565b9250506060611c1187828801611a2d565b91505092959194509250565b6000819050919050565b6000611c42611c3d611c38846119e4565b611c1d565b6119e4565b9050919050565b6000611c5482611c27565b9050919050565b6000611c6682611c49565b9050919050565b611c7681611c5b565b82525050565b6000602082019050611c916000830184611c6d565b92915050565b60008115159050919050565b611cac81611c97565b8114611cb757600080fd5b50565b600081359050611cc981611ca3565b92915050565b60008060408385031215611ce657611ce56119df565b5b6000611cf485828601611a2d565b9250506020611d0585828601611cba565b9150509250929050565b611d1881611b7a565b8114611d2357600080fd5b50565b600081359050611d3581611d0f565b92915050565b600080600060608486031215611d5457611d536119df565b5b6000611d6286828701611a2d565b9350506020611d7386828701611b38565b9250506040611d8486828701611d26565b9150509250925092565b611d9781611c97565b82525050565b6000602082019050611db26000830184611d8e565b92915050565b60008060408385031215611dcf57611dce6119df565b5b6000611ddd85828601611a2d565b9250506020611dee85828601611a2d565b9150509250929050565b611e0181611a04565b82525050565b6000602082019050611e1c6000830184611df8565b92915050565b7f4f776e61626c653a2063616c6c6572206973206e6f7420746865206f776e6572600082015250565b6000611e58602083611a7a565b9150611e6382611e22565b602082019050919050565b60006020820190508181036000830152611e8781611e4b565b9050919050565b7f4e487b7100000000000000000000000000000000000000000000000000000000600052602260045260246000fd5b60006002820490506001821680611ed557607f821691505b602082108103611ee857611ee7611e8e565b5b50919050565b7f5265656e7472616e637947756172643a207265656e7472616e742063616c6c00600082015250565b6000611f24601f83611a7a565b9150611f2f82611eee565b602082019050919050565b60006020820190508181036000830152611f5381611f17565b9050919050565b7f47616d65206e6f7420666f756e64000000000000000000000000000000000000600082015250565b6000611f90600e83611a7a565b9150611f9b82611f5a565b602082019050919050565b60006020820190508181036000830152611fbf81611f83565b9050919050565b600081519050611fd581611b21565b92915050565b600060208284031215611ff157611ff06119df565b5b6000611fff84828501611fc6565b91505092915050565b600060608201905061201d6000830186611df8565b61202a60208301856119b5565b61203760408301846119b5565b949350505050565b600061204a82611c49565b9050919050565b61205a8161203f565b82525050565b600061012082019050612076600083018c6119b5565b612083602083018b6119b5565b612090604083018a611df8565b61209d6060830189612051565b6120aa6080830188612051565b6120b760a08301876119b5565b6120c460c08301866119b5565b6120d160e08301856119b5565b6120df610100830184611df8565b9a9950505050505050505050565b60006080820190506121026000830187611df8565b61210f60208301866119b5565b61211c60408301856119b5565b61212960608301846119b5565b95945050505050565b60006040820190506121476000830185612051565b61215460208301846119b5565b9392505050565b60008151905061216a81611ca3565b92915050565b600060208284031215612186576121856119df565b5b60006121948482850161215b565b91505092915050565b7f496e76616c696420616d6f756e74000000000000000000000000000000000000600082015250565b60006121d3600e83611a7a565b91506121de8261219d565b602082019050919050565b60006020820190508181036000830152612202816121c6565b9050919050565b7f436f6e7472616374204e4654206e6f7420666f756e6400000000000000000000600082015250565b600061223f601683611a7a565b915061224a82612209565b602082019050919050565b6000602082019050818103600083015261226e81612232565b9050919050565b60006101008201905061228b600083018b611df8565b612298602083018a611df8565b6122a56040830189611df8565b6122b26060830188611df8565b6122bf60808301876119b5565b6122cc60a08301866119b5565b6122d960c08301856119b5565b6122e660e08301846119b5565b9998505050505050505050565b7f4f776e61626c653a206e6577206f776e657220697320746865207a65726f206160008201527f6464726573730000000000000000000000000000000000000000000000000000602082015250565b600061234f602683611a7a565b915061235a826122f3565b604082019050919050565b6000602082019050818103600083015261237e81612342565b9050919050565b7f4e487b7100000000000000000000000000000000000000000000000000000000600052601160045260246000fd5b60006123bf826119ab565b91506123ca836119ab565b92508282026123d8816119ab565b915082820484148315176123ef576123ee612385565b5b5092915050565b7f4e487b7100000000000000000000000000000000000000000000000000000000600052601260045260246000fd5b6000612430826119ab565b915061243b836119ab565b92508261244b5761244a6123f6565b5b828204905092915050565b6000612461826119ab565b915061246c836119ab565b925082820390508181111561248457612483612385565b5b9291505056fea264697066735822122070a4576539d34c0da72d4fef54557ae2ee40f83e685ad2595356c071947ff33264736f6c63430008120033",
					"opcodes": "PUSH1 0x80 PUSH1 0x40 MSTORE PUSH1 0x40 MLOAD DUP1 PUSH1 0x40 ADD PUSH1 0x40 MSTORE DUP1 PUSH1 0xF DUP2 MSTORE PUSH1 0x20 ADD PUSH32 0x4D65676120466163746F72792056310000000000000000000000000000000000 DUP2 MSTORE POP PUSH1 0x2 SWAP1 DUP2 PUSH3 0x4A SWAP2 SWAP1 PUSH3 0x5A7 JUMP JUMPDEST POP PUSH20 0x8B9588F69E04D69655E0D866CD701844177360A7 PUSH1 0x4 PUSH1 0x0 PUSH2 0x100 EXP DUP2 SLOAD DUP2 PUSH20 0xFFFFFFFFFFFFFFFFFFFFFFFFFFFFFFFFFFFFFFFF MUL NOT AND SWAP1 DUP4 PUSH20 0xFFFFFFFFFFFFFFFFFFFFFFFFFFFFFFFFFFFFFFFF AND MUL OR SWAP1 SSTORE POP PUSH20 0x8B9588F69E04D69655E0D866CD701844177360A7 PUSH1 0x5 PUSH1 0x0 PUSH2 0x100 EXP DUP2 SLOAD DUP2 PUSH20 0xFFFFFFFFFFFFFFFFFFFFFFFFFFFFFFFFFFFFFFFF MUL NOT AND SWAP1 DUP4 PUSH20 0xFFFFFFFFFFFFFFFFFFFFFFFFFFFFFFFFFFFFFFFF AND MUL OR SWAP1 SSTORE POP PUSH20 0x8B9588F69E04D69655E0D866CD701844177360A7 PUSH1 0x6 PUSH1 0x0 PUSH2 0x100 EXP DUP2 SLOAD DUP2 PUSH20 0xFFFFFFFFFFFFFFFFFFFFFFFFFFFFFFFFFFFFFFFF MUL NOT AND SWAP1 DUP4 PUSH20 0xFFFFFFFFFFFFFFFFFFFFFFFFFFFFFFFFFFFFFFFF AND MUL OR SWAP1 SSTORE POP PUSH7 0x71AFD498D0000 PUSH1 0x7 SSTORE PUSH1 0x64 PUSH1 0x8 SSTORE PUSH1 0xC8 PUSH1 0x9 SSTORE PUSH1 0xA DUP1 SSTORE CALLVALUE DUP1 ISZERO PUSH3 0x170 JUMPI PUSH1 0x0 DUP1 REVERT JUMPDEST POP PUSH1 0x40 MLOAD PUSH3 0x2C0F CODESIZE SUB DUP1 PUSH3 0x2C0F DUP4 CODECOPY DUP2 DUP2 ADD PUSH1 0x40 MSTORE DUP2 ADD SWAP1 PUSH3 0x196 SWAP2 SWAP1 PUSH3 0x6F8 JUMP JUMPDEST PUSH1 0x1 PUSH1 0x0 DUP2 SWAP1 SSTORE POP PUSH3 0x1BE PUSH3 0x1B2 PUSH3 0x25F PUSH1 0x20 SHL PUSH1 0x20 SHR JUMP JUMPDEST PUSH3 0x267 PUSH1 0x20 SHL PUSH1 0x20 SHR JUMP JUMPDEST DUP2 PUSH1 0x3 PUSH1 0x0 PUSH2 0x100 EXP DUP2 SLOAD DUP2 PUSH20 0xFFFFFFFFFFFFFFFFFFFFFFFFFFFFFFFFFFFFFFFF MUL NOT AND SWAP1 DUP4 PUSH20 0xFFFFFFFFFFFFFFFFFFFFFFFFFFFFFFFFFFFFFFFF AND MUL OR SWAP1 SSTORE POP PUSH1 0x1 PUSH1 0xB PUSH1 0x0 DUP4 PUSH20 0xFFFFFFFFFFFFFFFFFFFFFFFFFFFFFFFFFFFFFFFF AND PUSH20 0xFFFFFFFFFFFFFFFFFFFFFFFFFFFFFFFFFFFFFFFF AND DUP2 MSTORE PUSH1 0x20 ADD SWAP1 DUP2 MSTORE PUSH1 0x20 ADD PUSH1 0x0 KECCAK256 PUSH1 0x0 PUSH2 0x100 EXP DUP2 SLOAD DUP2 PUSH1 0xFF MUL NOT AND SWAP1 DUP4 ISZERO ISZERO MUL OR SWAP1 SSTORE POP POP POP PUSH3 0x73F JUMP JUMPDEST PUSH1 0x0 CALLER SWAP1 POP SWAP1 JUMP JUMPDEST PUSH1 0x0 PUSH1 0x1 PUSH1 0x0 SWAP1 SLOAD SWAP1 PUSH2 0x100 EXP SWAP1 DIV PUSH20 0xFFFFFFFFFFFFFFFFFFFFFFFFFFFFFFFFFFFFFFFF AND SWAP1 POP DUP2 PUSH1 0x1 PUSH1 0x0 PUSH2 0x100 EXP DUP2 SLOAD DUP2 PUSH20 0xFFFFFFFFFFFFFFFFFFFFFFFFFFFFFFFFFFFFFFFF MUL NOT AND SWAP1 DUP4 PUSH20 0xFFFFFFFFFFFFFFFFFFFFFFFFFFFFFFFFFFFFFFFF AND MUL OR SWAP1 SSTORE POP DUP2 PUSH20 0xFFFFFFFFFFFFFFFFFFFFFFFFFFFFFFFFFFFFFFFF AND DUP2 PUSH20 0xFFFFFFFFFFFFFFFFFFFFFFFFFFFFFFFFFFFFFFFF AND PUSH32 0x8BE0079C531659141344CD1FD0A4F28419497F9722A3DAAFE3B4186F6B6457E0 PUSH1 0x40 MLOAD PUSH1 0x40 MLOAD DUP1 SWAP2 SUB SWAP1 LOG3 POP POP JUMP JUMPDEST PUSH1 0x0 DUP2 MLOAD SWAP1 POP SWAP2 SWAP1 POP JUMP JUMPDEST PUSH32 0x4E487B7100000000000000000000000000000000000000000000000000000000 PUSH1 0x0 MSTORE PUSH1 0x41 PUSH1 0x4 MSTORE PUSH1 0x24 PUSH1 0x0 REVERT JUMPDEST PUSH32 0x4E487B7100000000000000000000000000000000000000000000000000000000 PUSH1 0x0 MSTORE PUSH1 0x22 PUSH1 0x4 MSTORE PUSH1 0x24 PUSH1 0x0 REVERT JUMPDEST PUSH1 0x0 PUSH1 0x2 DUP3 DIV SWAP1 POP PUSH1 0x1 DUP3 AND DUP1 PUSH3 0x3AF JUMPI PUSH1 0x7F DUP3 AND SWAP2 POP JUMPDEST PUSH1 0x20 DUP3 LT DUP2 SUB PUSH3 0x3C5 JUMPI PUSH3 0x3C4 PUSH3 0x367 JUMP JUMPDEST JUMPDEST POP SWAP2 SWAP1 POP JUMP JUMPDEST PUSH1 0x0 DUP2 SWAP1 POP DUP2 PUSH1 0x0 MSTORE PUSH1 0x20 PUSH1 0x0 KECCAK256 SWAP1 POP SWAP2 SWAP1 POP JUMP JUMPDEST PUSH1 0x0 PUSH1 0x20 PUSH1 0x1F DUP4 ADD DIV SWAP1 POP SWAP2 SWAP1 POP JUMP JUMPDEST PUSH1 0x0 DUP3 DUP3 SHL SWAP1 POP SWAP3 SWAP2 POP POP JUMP JUMPDEST PUSH1 0x0 PUSH1 0x8 DUP4 MUL PUSH3 0x42F PUSH32 0xFFFFFFFFFFFFFFFFFFFFFFFFFFFFFFFFFFFFFFFFFFFFFFFFFFFFFFFFFFFFFFFF DUP3 PUSH3 0x3F0 JUMP JUMPDEST PUSH3 0x43B DUP7 DUP4 PUSH3 0x3F0 JUMP JUMPDEST SWAP6 POP DUP1 NOT DUP5 AND SWAP4 POP DUP1 DUP7 AND DUP5 OR SWAP3 POP POP POP SWAP4 SWAP3 POP POP POP JUMP JUMPDEST PUSH1 0x0 DUP2 SWAP1 POP SWAP2 SWAP1 POP JUMP JUMPDEST PUSH1 0x0 DUP2 SWAP1 POP SWAP2 SWAP1 POP JUMP JUMPDEST PUSH1 0x0 PUSH3 0x488 PUSH3 0x482 PUSH3 0x47C DUP5 PUSH3 0x453 JUMP JUMPDEST PUSH3 0x45D JUMP JUMPDEST PUSH3 0x453 JUMP JUMPDEST SWAP1 POP SWAP2 SWAP1 POP JUMP JUMPDEST PUSH1 0x0 DUP2 SWAP1 POP SWAP2 SWAP1 POP JUMP JUMPDEST PUSH3 0x4A4 DUP4 PUSH3 0x467 JUMP JUMPDEST PUSH3 0x4BC PUSH3 0x4B3 DUP3 PUSH3 0x48F JUMP JUMPDEST DUP5 DUP5 SLOAD PUSH3 0x3FD JUMP JUMPDEST DUP3 SSTORE POP POP POP POP JUMP JUMPDEST PUSH1 0x0 SWAP1 JUMP JUMPDEST PUSH3 0x4D3 PUSH3 0x4C4 JUMP JUMPDEST PUSH3 0x4E0 DUP2 DUP5 DUP5 PUSH3 0x499 JUMP JUMPDEST POP POP POP JUMP JUMPDEST JUMPDEST DUP2 DUP2 LT ISZERO PUSH3 0x508 JUMPI PUSH3 0x4FC PUSH1 0x0 DUP3 PUSH3 0x4C9 JUMP JUMPDEST PUSH1 0x1 DUP2 ADD SWAP1 POP PUSH3 0x4E6 JUMP JUMPDEST POP POP JUMP JUMPDEST PUSH1 0x1F DUP3 GT ISZERO PUSH3 0x557 JUMPI PUSH3 0x521 DUP2 PUSH3 0x3CB JUMP JUMPDEST PUSH3 0x52C DUP5 PUSH3 0x3E0 JUMP JUMPDEST DUP2 ADD PUSH1 0x20 DUP6 LT ISZERO PUSH3 0x53C JUMPI DUP2 SWAP1 POP JUMPDEST PUSH3 0x554 PUSH3 0x54B DUP6 PUSH3 0x3E0 JUMP JUMPDEST DUP4 ADD DUP3 PUSH3 0x4E5 JUMP JUMPDEST POP POP JUMPDEST POP POP POP JUMP JUMPDEST PUSH1 0x0 DUP3 DUP3 SHR SWAP1 POP SWAP3 SWAP2 POP POP JUMP JUMPDEST PUSH1 0x0 PUSH3 0x57C PUSH1 0x0 NOT DUP5 PUSH1 0x8 MUL PUSH3 0x55C JUMP JUMPDEST NOT DUP1 DUP4 AND SWAP2 POP POP SWAP3 SWAP2 POP POP JUMP JUMPDEST PUSH1 0x0 PUSH3 0x597 DUP4 DUP4 PUSH3 0x569 JUMP JUMPDEST SWAP2 POP DUP3 PUSH1 0x2 MUL DUP3 OR SWAP1 POP SWAP3 SWAP2 POP POP JUMP JUMPDEST PUSH3 0x5B2 DUP3 PUSH3 0x32D JUMP JUMPDEST PUSH8 0xFFFFFFFFFFFFFFFF DUP2 GT ISZERO PUSH3 0x5CE JUMPI PUSH3 0x5CD PUSH3 0x338 JUMP JUMPDEST JUMPDEST PUSH3 0x5DA DUP3 SLOAD PUSH3 0x396 JUMP JUMPDEST PUSH3 0x5E7 DUP3 DUP3 DUP6 PUSH3 0x50C JUMP JUMPDEST PUSH1 0x0 PUSH1 0x20 SWAP1 POP PUSH1 0x1F DUP4 GT PUSH1 0x1 DUP2 EQ PUSH3 0x61F JUMPI PUSH1 0x0 DUP5 ISZERO PUSH3 0x60A JUMPI DUP3 DUP8 ADD MLOAD SWAP1 POP JUMPDEST PUSH3 0x616 DUP6 DUP3 PUSH3 0x589 JUMP JUMPDEST DUP7 SSTORE POP PUSH3 0x686 JUMP JUMPDEST PUSH1 0x1F NOT DUP5 AND PUSH3 0x62F DUP7 PUSH3 0x3CB JUMP JUMPDEST PUSH1 0x0 JUMPDEST DUP3 DUP2 LT ISZERO PUSH3 0x659 JUMPI DUP5 DUP10 ADD MLOAD DUP3 SSTORE PUSH1 0x1 DUP3 ADD SWAP2 POP PUSH1 0x20 DUP6 ADD SWAP5 POP PUSH1 0x20 DUP2 ADD SWAP1 POP PUSH3 0x632 JUMP JUMPDEST DUP7 DUP4 LT ISZERO PUSH3 0x679 JUMPI DUP5 DUP10 ADD MLOAD PUSH3 0x675 PUSH1 0x1F DUP10 AND DUP3 PUSH3 0x569 JUMP JUMPDEST DUP4 SSTORE POP JUMPDEST PUSH1 0x1 PUSH1 0x2 DUP9 MUL ADD DUP9 SSTORE POP POP POP JUMPDEST POP POP POP POP POP POP JUMP JUMPDEST PUSH1 0x0 DUP1 REVERT JUMPDEST PUSH1 0x0 PUSH20 0xFFFFFFFFFFFFFFFFFFFFFFFFFFFFFFFFFFFFFFFF DUP3 AND SWAP1 POP SWAP2 SWAP1 POP JUMP JUMPDEST PUSH1 0x0 PUSH3 0x6C0 DUP3 PUSH3 0x693 JUMP JUMPDEST SWAP1 POP SWAP2 SWAP1 POP JUMP JUMPDEST PUSH3 0x6D2 DUP2 PUSH3 0x6B3 JUMP JUMPDEST DUP2 EQ PUSH3 0x6DE JUMPI PUSH1 0x0 DUP1 REVERT JUMPDEST POP JUMP JUMPDEST PUSH1 0x0 DUP2 MLOAD SWAP1 POP PUSH3 0x6F2 DUP2 PUSH3 0x6C7 JUMP JUMPDEST SWAP3 SWAP2 POP POP JUMP JUMPDEST PUSH1 0x0 DUP1 PUSH1 0x40 DUP4 DUP6 SUB SLT ISZERO PUSH3 0x712 JUMPI PUSH3 0x711 PUSH3 0x68E JUMP JUMPDEST JUMPDEST PUSH1 0x0 PUSH3 0x722 DUP6 DUP3 DUP7 ADD PUSH3 0x6E1 JUMP JUMPDEST SWAP3 POP POP PUSH1 0x20 PUSH3 0x735 DUP6 DUP3 DUP7 ADD PUSH3 0x6E1 JUMP JUMPDEST SWAP2 POP POP SWAP3 POP SWAP3 SWAP1 POP JUMP JUMPDEST PUSH2 0x24C0 DUP1 PUSH3 0x74F PUSH1 0x0 CODECOPY PUSH1 0x0 RETURN INVALID PUSH1 0x80 PUSH1 0x40 MSTORE PUSH1 0x4 CALLDATASIZE LT PUSH2 0x185 JUMPI PUSH1 0x0 CALLDATALOAD PUSH1 0xE0 SHR DUP1 PUSH4 0x785F2391 GT PUSH2 0xD1 JUMPI DUP1 PUSH4 0xA9E52987 GT PUSH2 0x8A JUMPI DUP1 PUSH4 0xE803CEE0 GT PUSH2 0x64 JUMPI DUP1 PUSH4 0xE803CEE0 EQ PUSH2 0x51E JUMPI DUP1 PUSH4 0xE9D8B181 EQ PUSH2 0x549 JUMPI DUP1 PUSH4 0xF2FDE38B EQ PUSH2 0x572 JUMPI DUP1 PUSH4 0xFC3C28AF EQ PUSH2 0x59B JUMPI PUSH2 0x18C JUMP JUMPDEST DUP1 PUSH4 0xA9E52987 EQ PUSH2 0x49F JUMPI DUP1 PUSH4 0xC78C45FF EQ PUSH2 0x4C8 JUMPI DUP1 PUSH4 0xD3A0AB1B EQ PUSH2 0x4F3 JUMPI PUSH2 0x18C JUMP JUMPDEST DUP1 PUSH4 0x785F2391 EQ PUSH2 0x39E JUMPI DUP1 PUSH4 0x7BA45769 EQ PUSH2 0x3DB JUMPI DUP1 PUSH4 0x8858906D EQ PUSH2 0x3F7 JUMPI DUP1 PUSH4 0x8DA5CB5B EQ PUSH2 0x420 JUMPI DUP1 PUSH4 0x8EA5220F EQ PUSH2 0x44B JUMPI DUP1 PUSH4 0xA7CCABDF EQ PUSH2 0x476 JUMPI PUSH2 0x18C JUMP JUMPDEST DUP1 PUSH4 0x23539224 GT PUSH2 0x13E JUMPI DUP1 PUSH4 0x6EADDAD2 GT PUSH2 0x118 JUMPI DUP1 PUSH4 0x6EADDAD2 EQ PUSH2 0x30C JUMPI DUP1 PUSH4 0x6F0AA4A2 EQ PUSH2 0x335 JUMPI DUP1 PUSH4 0x715018A6 EQ PUSH2 0x35E JUMPI DUP1 PUSH4 0x7196541B EQ PUSH2 0x375 JUMPI PUSH2 0x18C JUMP JUMPDEST DUP1 PUSH4 0x23539224 EQ PUSH2 0x28D JUMPI DUP1 PUSH4 0x52509D8E EQ PUSH2 0x2B8 JUMPI DUP1 PUSH4 0x6B9E619F EQ PUSH2 0x2E1 JUMPI PUSH2 0x18C JUMP JUMPDEST DUP1 PUSH4 0x1C234A8 EQ PUSH2 0x191 JUMPI DUP1 PUSH4 0x65E812B EQ PUSH2 0x1BC JUMPI DUP1 PUSH4 0x6FDDE03 EQ PUSH2 0x1E5 JUMPI DUP1 PUSH4 0x15344276 EQ PUSH2 0x210 JUMPI DUP1 PUSH4 0x1F53AC02 EQ PUSH2 0x23B JUMPI DUP1 PUSH4 0x1FFE0F61 EQ PUSH2 0x264 JUMPI PUSH2 0x18C JUMP JUMPDEST CALLDATASIZE PUSH2 0x18C JUMPI STOP JUMPDEST PUSH1 0x0 DUP1 REVERT JUMPDEST CALLVALUE DUP1 ISZERO PUSH2 0x19D JUMPI PUSH1 0x0 DUP1 REVERT JUMPDEST POP PUSH2 0x1A6 PUSH2 0x5C6 JUMP JUMPDEST PUSH1 0x40 MLOAD PUSH2 0x1B3 SWAP2 SWAP1 PUSH2 0x19C4 JUMP JUMPDEST PUSH1 0x40 MLOAD DUP1 SWAP2 SUB SWAP1 RETURN JUMPDEST CALLVALUE DUP1 ISZERO PUSH2 0x1C8 JUMPI PUSH1 0x0 DUP1 REVERT JUMPDEST POP PUSH2 0x1E3 PUSH1 0x4 DUP1 CALLDATASIZE SUB DUP2 ADD SWAP1 PUSH2 0x1DE SWAP2 SWAP1 PUSH2 0x1A42 JUMP JUMPDEST PUSH2 0x5CC JUMP JUMPDEST STOP JUMPDEST CALLVALUE DUP1 ISZERO PUSH2 0x1F1 JUMPI PUSH1 0x0 DUP1 REVERT JUMPDEST POP PUSH2 0x1FA PUSH2 0x68C JUMP JUMPDEST PUSH1 0x40 MLOAD PUSH2 0x207 SWAP2 SWAP1 PUSH2 0x1AFF JUMP JUMPDEST PUSH1 0x40 MLOAD DUP1 SWAP2 SUB SWAP1 RETURN JUMPDEST CALLVALUE DUP1 ISZERO PUSH2 0x21C JUMPI PUSH1 0x0 DUP1 REVERT JUMPDEST POP PUSH2 0x225 PUSH2 0x71E JUMP JUMPDEST PUSH1 0x40 MLOAD PUSH2 0x232 SWAP2 SWAP1 PUSH2 0x19C4 JUMP JUMPDEST PUSH1 0x40 MLOAD DUP1 SWAP2 SUB SWAP1 RETURN JUMPDEST CALLVALUE DUP1 ISZERO PUSH2 0x247 JUMPI PUSH1 0x0 DUP1 REVERT JUMPDEST POP PUSH2 0x262 PUSH1 0x4 DUP1 CALLDATASIZE SUB DUP2 ADD SWAP1 PUSH2 0x25D SWAP2 SWAP1 PUSH2 0x1A42 JUMP JUMPDEST PUSH2 0x724 JUMP JUMPDEST STOP JUMPDEST CALLVALUE DUP1 ISZERO PUSH2 0x270 JUMPI PUSH1 0x0 DUP1 REVERT JUMPDEST POP PUSH2 0x28B PUSH1 0x4 DUP1 CALLDATASIZE SUB DUP2 ADD SWAP1 PUSH2 0x286 SWAP2 SWAP1 PUSH2 0x1B4D JUMP JUMPDEST PUSH2 0x7E4 JUMP JUMPDEST STOP JUMPDEST CALLVALUE DUP1 ISZERO PUSH2 0x299 JUMPI PUSH1 0x0 DUP1 REVERT JUMPDEST POP PUSH2 0x2A2 PUSH2 0x86A JUMP JUMPDEST PUSH1 0x40 MLOAD PUSH2 0x2AF SWAP2 SWAP1 PUSH2 0x1B9B JUMP JUMPDEST PUSH1 0x40 MLOAD DUP1 SWAP2 SUB SWAP1 RETURN JUMPDEST CALLVALUE DUP1 ISZERO PUSH2 0x2C4 JUMPI PUSH1 0x0 DUP1 REVERT JUMPDEST POP PUSH2 0x2DF PUSH1 0x4 DUP1 CALLDATASIZE SUB DUP2 ADD SWAP1 PUSH2 0x2DA SWAP2 SWAP1 PUSH2 0x1BB6 JUMP JUMPDEST PUSH2 0x890 JUMP JUMPDEST STOP JUMPDEST CALLVALUE DUP1 ISZERO PUSH2 0x2ED JUMPI PUSH1 0x0 DUP1 REVERT JUMPDEST POP PUSH2 0x2F6 PUSH2 0xC0D JUMP JUMPDEST PUSH1 0x40 MLOAD PUSH2 0x303 SWAP2 SWAP1 PUSH2 0x1C7C JUMP JUMPDEST PUSH1 0x40 MLOAD DUP1 SWAP2 SUB SWAP1 RETURN JUMPDEST CALLVALUE DUP1 ISZERO PUSH2 0x318 JUMPI PUSH1 0x0 DUP1 REVERT JUMPDEST POP PUSH2 0x333 PUSH1 0x4 DUP1 CALLDATASIZE SUB DUP2 ADD SWAP1 PUSH2 0x32E SWAP2 SWAP1 PUSH2 0x1B4D JUMP JUMPDEST PUSH2 0xC33 JUMP JUMPDEST STOP JUMPDEST CALLVALUE DUP1 ISZERO PUSH2 0x341 JUMPI PUSH1 0x0 DUP1 REVERT JUMPDEST POP PUSH2 0x35C PUSH1 0x4 DUP1 CALLDATASIZE SUB DUP2 ADD SWAP1 PUSH2 0x357 SWAP2 SWAP1 PUSH2 0x1CCF JUMP JUMPDEST PUSH2 0xCB9 JUMP JUMPDEST STOP JUMPDEST CALLVALUE DUP1 ISZERO PUSH2 0x36A JUMPI PUSH1 0x0 DUP1 REVERT JUMPDEST POP PUSH2 0x373 PUSH2 0xD90 JUMP JUMPDEST STOP JUMPDEST CALLVALUE DUP1 ISZERO PUSH2 0x381 JUMPI PUSH1 0x0 DUP1 REVERT JUMPDEST POP PUSH2 0x39C PUSH1 0x4 DUP1 CALLDATASIZE SUB DUP2 ADD SWAP1 PUSH2 0x397 SWAP2 SWAP1 PUSH2 0x1D3B JUMP JUMPDEST PUSH2 0xE18 JUMP JUMPDEST STOP JUMPDEST CALLVALUE DUP1 ISZERO PUSH2 0x3AA JUMPI PUSH1 0x0 DUP1 REVERT JUMPDEST POP PUSH2 0x3C5 PUSH1 0x4 DUP1 CALLDATASIZE SUB DUP2 ADD SWAP1 PUSH2 0x3C0 SWAP2 SWAP1 PUSH2 0x1A42 JUMP JUMPDEST PUSH2 0xF99 JUMP JUMPDEST PUSH1 0x40 MLOAD PUSH2 0x3D2 SWAP2 SWAP1 PUSH2 0x1D9D JUMP JUMPDEST PUSH1 0x40 MLOAD DUP1 SWAP2 SUB SWAP1 RETURN JUMPDEST PUSH2 0x3F5 PUSH1 0x4 DUP1 CALLDATASIZE SUB DUP2 ADD SWAP1 PUSH2 0x3F0 SWAP2 SWAP1 PUSH2 0x1DB8 JUMP JUMPDEST PUSH2 0xFB9 JUMP JUMPDEST STOP JUMPDEST CALLVALUE DUP1 ISZERO PUSH2 0x403 JUMPI PUSH1 0x0 DUP1 REVERT JUMPDEST POP PUSH2 0x41E PUSH1 0x4 DUP1 CALLDATASIZE SUB DUP2 ADD SWAP1 PUSH2 0x419 SWAP2 SWAP1 PUSH2 0x1B4D JUMP JUMPDEST PUSH2 0x1426 JUMP JUMPDEST STOP JUMPDEST CALLVALUE DUP1 ISZERO PUSH2 0x42C JUMPI PUSH1 0x0 DUP1 REVERT JUMPDEST POP PUSH2 0x435 PUSH2 0x14AC JUMP JUMPDEST PUSH1 0x40 MLOAD PUSH2 0x442 SWAP2 SWAP1 PUSH2 0x1E07 JUMP JUMPDEST PUSH1 0x40 MLOAD DUP1 SWAP2 SUB SWAP1 RETURN JUMPDEST CALLVALUE DUP1 ISZERO PUSH2 0x457 JUMPI PUSH1 0x0 DUP1 REVERT JUMPDEST POP PUSH2 0x460 PUSH2 0x14D6 JUMP JUMPDEST PUSH1 0x40 MLOAD PUSH2 0x46D SWAP2 SWAP1 PUSH2 0x1B9B JUMP JUMPDEST PUSH1 0x40 MLOAD DUP1 SWAP2 SUB SWAP1 RETURN JUMPDEST CALLVALUE DUP1 ISZERO PUSH2 0x482 JUMPI PUSH1 0x0 DUP1 REVERT JUMPDEST POP PUSH2 0x49D PUSH1 0x4 DUP1 CALLDATASIZE SUB DUP2 ADD SWAP1 PUSH2 0x498 SWAP2 SWAP1 PUSH2 0x1A42 JUMP JUMPDEST PUSH2 0x14FC JUMP JUMPDEST STOP JUMPDEST CALLVALUE DUP1 ISZERO PUSH2 0x4AB JUMPI PUSH1 0x0 DUP1 REVERT JUMPDEST POP PUSH2 0x4C6 PUSH1 0x4 DUP1 CALLDATASIZE SUB DUP2 ADD SWAP1 PUSH2 0x4C1 SWAP2 SWAP1 PUSH2 0x1B4D JUMP JUMPDEST PUSH2 0x15BC JUMP JUMPDEST STOP JUMPDEST CALLVALUE DUP1 ISZERO PUSH2 0x4D4 JUMPI PUSH1 0x0 DUP1 REVERT JUMPDEST POP PUSH2 0x4DD PUSH2 0x1642 JUMP JUMPDEST PUSH1 0x40 MLOAD PUSH2 0x4EA SWAP2 SWAP1 PUSH2 0x19C4 JUMP JUMPDEST PUSH1 0x40 MLOAD DUP1 SWAP2 SUB SWAP1 RETURN JUMPDEST CALLVALUE DUP1 ISZERO PUSH2 0x4FF JUMPI PUSH1 0x0 DUP1 REVERT JUMPDEST POP PUSH2 0x508 PUSH2 0x1648 JUMP JUMPDEST PUSH1 0x40 MLOAD PUSH2 0x515 SWAP2 SWAP1 PUSH2 0x19C4 JUMP JUMPDEST PUSH1 0x40 MLOAD DUP1 SWAP2 SUB SWAP1 RETURN JUMPDEST CALLVALUE DUP1 ISZERO PUSH2 0x52A JUMPI PUSH1 0x0 DUP1 REVERT JUMPDEST POP PUSH2 0x533 PUSH2 0x164E JUMP JUMPDEST PUSH1 0x40 MLOAD PUSH2 0x540 SWAP2 SWAP1 PUSH2 0x1B9B JUMP JUMPDEST PUSH1 0x40 MLOAD DUP1 SWAP2 SUB SWAP1 RETURN JUMPDEST CALLVALUE DUP1 ISZERO PUSH2 0x555 JUMPI PUSH1 0x0 DUP1 REVERT JUMPDEST POP PUSH2 0x570 PUSH1 0x4 DUP1 CALLDATASIZE SUB DUP2 ADD SWAP1 PUSH2 0x56B SWAP2 SWAP1 PUSH2 0x1A42 JUMP JUMPDEST PUSH2 0x1674 JUMP JUMPDEST STOP JUMPDEST CALLVALUE DUP1 ISZERO PUSH2 0x57E JUMPI PUSH1 0x0 DUP1 REVERT JUMPDEST POP PUSH2 0x599 PUSH1 0x4 DUP1 CALLDATASIZE SUB DUP2 ADD SWAP1 PUSH2 0x594 SWAP2 SWAP1 PUSH2 0x1A42 JUMP JUMPDEST PUSH2 0x1734 JUMP JUMPDEST STOP JUMPDEST CALLVALUE DUP1 ISZERO PUSH2 0x5A7 JUMPI PUSH1 0x0 DUP1 REVERT JUMPDEST POP PUSH2 0x5B0 PUSH2 0x182B JUMP JUMPDEST PUSH1 0x40 MLOAD PUSH2 0x5BD SWAP2 SWAP1 PUSH2 0x19C4 JUMP JUMPDEST PUSH1 0x40 MLOAD DUP1 SWAP2 SUB SWAP1 RETURN JUMPDEST PUSH2 0x3E8 DUP2 JUMP JUMPDEST PUSH2 0x5D4 PUSH2 0x1831 JUMP JUMPDEST PUSH20 0xFFFFFFFFFFFFFFFFFFFFFFFFFFFFFFFFFFFFFFFF AND PUSH2 0x5F2 PUSH2 0x14AC JUMP JUMPDEST PUSH20 0xFFFFFFFFFFFFFFFFFFFFFFFFFFFFFFFFFFFFFFFF AND EQ PUSH2 0x648 JUMPI PUSH1 0x40 MLOAD PUSH32 0x8C379A000000000000000000000000000000000000000000000000000000000 DUP2 MSTORE PUSH1 0x4 ADD PUSH2 0x63F SWAP1 PUSH2 0x1E6E JUMP JUMPDEST PUSH1 0x40 MLOAD DUP1 SWAP2 SUB SWAP1 REVERT JUMPDEST DUP1 PUSH1 0x5 PUSH1 0x0 PUSH2 0x100 EXP DUP2 SLOAD DUP2 PUSH20 0xFFFFFFFFFFFFFFFFFFFFFFFFFFFFFFFFFFFFFFFF MUL NOT AND SWAP1 DUP4 PUSH20 0xFFFFFFFFFFFFFFFFFFFFFFFFFFFFFFFFFFFFFFFF AND MUL OR SWAP1 SSTORE POP POP JUMP JUMPDEST PUSH1 0x60 PUSH1 0x2 DUP1 SLOAD PUSH2 0x69B SWAP1 PUSH2 0x1EBD JUMP JUMPDEST DUP1 PUSH1 0x1F ADD PUSH1 0x20 DUP1 SWAP2 DIV MUL PUSH1 0x20 ADD PUSH1 0x40 MLOAD SWAP1 DUP2 ADD PUSH1 0x40 MSTORE DUP1 SWAP3 SWAP2 SWAP1 DUP2 DUP2 MSTORE PUSH1 0x20 ADD DUP3 DUP1 SLOAD PUSH2 0x6C7 SWAP1 PUSH2 0x1EBD JUMP JUMPDEST DUP1 ISZERO PUSH2 0x714 JUMPI DUP1 PUSH1 0x1F LT PUSH2 0x6E9 JUMPI PUSH2 0x100 DUP1 DUP4 SLOAD DIV MUL DUP4 MSTORE SWAP2 PUSH1 0x20 ADD SWAP2 PUSH2 0x714 JUMP JUMPDEST DUP3 ADD SWAP2 SWAP1 PUSH1 0x0 MSTORE PUSH1 0x20 PUSH1 0x0 KECCAK256 SWAP1 JUMPDEST DUP2 SLOAD DUP2 MSTORE SWAP1 PUSH1 0x1 ADD SWAP1 PUSH1 0x20 ADD DUP1 DUP4 GT PUSH2 0x6F7 JUMPI DUP3 SWAP1 SUB PUSH1 0x1F AND DUP3 ADD SWAP2 JUMPDEST POP POP POP POP POP SWAP1 POP SWAP1 JUMP JUMPDEST PUSH1 0x8 SLOAD DUP2 JUMP JUMPDEST PUSH2 0x72C PUSH2 0x1831 JUMP JUMPDEST PUSH20 0xFFFFFFFFFFFFFFFFFFFFFFFFFFFFFFFFFFFFFFFF AND PUSH2 0x74A PUSH2 0x14AC JUMP JUMPDEST PUSH20 0xFFFFFFFFFFFFFFFFFFFFFFFFFFFFFFFFFFFFFFFF AND EQ PUSH2 0x7A0 JUMPI PUSH1 0x40 MLOAD PUSH32 0x8C379A000000000000000000000000000000000000000000000000000000000 DUP2 MSTORE PUSH1 0x4 ADD PUSH2 0x797 SWAP1 PUSH2 0x1E6E JUMP JUMPDEST PUSH1 0x40 MLOAD DUP1 SWAP2 SUB SWAP1 REVERT JUMPDEST DUP1 PUSH1 0x4 PUSH1 0x0 PUSH2 0x100 EXP DUP2 SLOAD DUP2 PUSH20 0xFFFFFFFFFFFFFFFFFFFFFFFFFFFFFFFFFFFFFFFF MUL NOT AND SWAP1 DUP4 PUSH20 0xFFFFFFFFFFFFFFFFFFFFFFFFFFFFFFFFFFFFFFFF AND MUL OR SWAP1 SSTORE POP POP JUMP JUMPDEST PUSH2 0x7EC PUSH2 0x1831 JUMP JUMPDEST PUSH20 0xFFFFFFFFFFFFFFFFFFFFFFFFFFFFFFFFFFFFFFFF AND PUSH2 0x80A PUSH2 0x14AC JUMP JUMPDEST PUSH20 0xFFFFFFFFFFFFFFFFFFFFFFFFFFFFFFFFFFFFFFFF AND EQ PUSH2 0x860 JUMPI PUSH1 0x40 MLOAD PUSH32 0x8C379A000000000000000000000000000000000000000000000000000000000 DUP2 MSTORE PUSH1 0x4 ADD PUSH2 0x857 SWAP1 PUSH2 0x1E6E JUMP JUMPDEST PUSH1 0x40 MLOAD DUP1 SWAP2 SUB SWAP1 REVERT JUMPDEST DUP1 PUSH1 0xA DUP2 SWAP1 SSTORE POP POP JUMP JUMPDEST PUSH1 0x6 PUSH1 0x0 SWAP1 SLOAD SWAP1 PUSH2 0x100 EXP SWAP1 DIV PUSH20 0xFFFFFFFFFFFFFFFFFFFFFFFFFFFFFFFFFFFFFFFF AND DUP2 JUMP JUMPDEST PUSH1 0x2 PUSH1 0x0 SLOAD SUB PUSH2 0x8D5 JUMPI PUSH1 0x40 MLOAD PUSH32 0x8C379A000000000000000000000000000000000000000000000000000000000 DUP2 MSTORE PUSH1 0x4 ADD PUSH2 0x8CC SWAP1 PUSH2 0x1F3A JUMP JUMPDEST PUSH1 0x40 MLOAD DUP1 SWAP2 SUB SWAP1 REVERT JUMPDEST PUSH1 0x2 PUSH1 0x0 DUP2 SWAP1 SSTORE POP PUSH1 0x1 ISZERO ISZERO PUSH1 0xB PUSH1 0x0 DUP7 PUSH20 0xFFFFFFFFFFFFFFFFFFFFFFFFFFFFFFFFFFFFFFFF AND PUSH20 0xFFFFFFFFFFFFFFFFFFFFFFFFFFFFFFFFFFFFFFFF AND DUP2 MSTORE PUSH1 0x20 ADD SWAP1 DUP2 MSTORE PUSH1 0x20 ADD PUSH1 0x0 KECCAK256 PUSH1 0x0 SWAP1 SLOAD SWAP1 PUSH2 0x100 EXP SWAP1 DIV PUSH1 0xFF AND ISZERO ISZERO EQ PUSH2 0x970 JUMPI PUSH1 0x40 MLOAD PUSH32 0x8C379A000000000000000000000000000000000000000000000000000000000 DUP2 MSTORE PUSH1 0x4 ADD PUSH2 0x967 SWAP1 PUSH2 0x1FA6 JUMP JUMPDEST PUSH1 0x40 MLOAD DUP1 SWAP2 SUB SWAP1 REVERT JUMPDEST PUSH1 0x0 PUSH20 0xFFFFFFFFFFFFFFFFFFFFFFFFFFFFFFFFFFFFFFFF AND DUP2 PUSH20 0xFFFFFFFFFFFFFFFFFFFFFFFFFFFFFFFFFFFFFFFF AND SUB PUSH2 0x9CA JUMPI PUSH1 0x6 PUSH1 0x0 SWAP1 SLOAD SWAP1 PUSH2 0x100 EXP SWAP1 DIV PUSH20 0xFFFFFFFFFFFFFFFFFFFFFFFFFFFFFFFFFFFFFFFF AND SWAP1 POP JUMPDEST PUSH1 0x0 PUSH1 0x3 PUSH1 0x0 SWAP1 SLOAD SWAP1 PUSH2 0x100 EXP SWAP1 DIV PUSH20 0xFFFFFFFFFFFFFFFFFFFFFFFFFFFFFFFFFFFFFFFF AND PUSH20 0xFFFFFFFFFFFFFFFFFFFFFFFFFFFFFFFFFFFFFFFF AND PUSH4 0x6E4B73C1 PUSH1 0x40 MLOAD DUP2 PUSH4 0xFFFFFFFF AND PUSH1 0xE0 SHL DUP2 MSTORE PUSH1 0x4 ADD PUSH1 0x20 PUSH1 0x40 MLOAD DUP1 DUP4 SUB DUP2 DUP7 GAS STATICCALL ISZERO DUP1 ISZERO PUSH2 0xA39 JUMPI RETURNDATASIZE PUSH1 0x0 DUP1 RETURNDATACOPY RETURNDATASIZE PUSH1 0x0 REVERT JUMPDEST POP POP POP POP PUSH1 0x40 MLOAD RETURNDATASIZE PUSH1 0x1F NOT PUSH1 0x1F DUP3 ADD AND DUP3 ADD DUP1 PUSH1 0x40 MSTORE POP DUP2 ADD SWAP1 PUSH2 0xA5D SWAP2 SWAP1 PUSH2 0x1FDB JUMP JUMPDEST SWAP1 POP PUSH1 0x3 PUSH1 0x0 SWAP1 SLOAD SWAP1 PUSH2 0x100 EXP SWAP1 DIV PUSH20 0xFFFFFFFFFFFFFFFFFFFFFFFFFFFFFFFFFFFFFFFF AND PUSH20 0xFFFFFFFFFFFFFFFFFFFFFFFFFFFFFFFFFFFFFFFF AND PUSH4 0xF02887F1 PUSH2 0xAA5 PUSH2 0x1831 JUMP JUMPDEST DUP4 DUP7 PUSH1 0x40 MLOAD DUP5 PUSH4 0xFFFFFFFF AND PUSH1 0xE0 SHL DUP2 MSTORE PUSH1 0x4 ADD PUSH2 0xAC5 SWAP4 SWAP3 SWAP2 SWAP1 PUSH2 0x2008 JUMP JUMPDEST PUSH1 0x0 PUSH1 0x40 MLOAD DUP1 DUP4 SUB DUP2 PUSH1 0x0 DUP8 DUP1 EXTCODESIZE ISZERO DUP1 ISZERO PUSH2 0xADF JUMPI PUSH1 0x0 DUP1 REVERT JUMPDEST POP GAS CALL ISZERO DUP1 ISZERO PUSH2 0xAF3 JUMPI RETURNDATASIZE PUSH1 0x0 DUP1 RETURNDATACOPY RETURNDATASIZE PUSH1 0x0 REVERT JUMPDEST POP POP POP POP DUP5 PUSH20 0xFFFFFFFFFFFFFFFFFFFFFFFFFFFFFFFFFFFFFFFF AND PUSH4 0x2240B81A PUSH1 0x9 SLOAD PUSH1 0xA SLOAD DUP6 PUSH1 0x4 PUSH1 0x0 SWAP1 SLOAD SWAP1 PUSH2 0x100 EXP SWAP1 DIV PUSH20 0xFFFFFFFFFFFFFFFFFFFFFFFFFFFFFFFFFFFFFFFF AND PUSH1 0x5 PUSH1 0x0 SWAP1 SLOAD SWAP1 PUSH2 0x100 EXP SWAP1 DIV PUSH20 0xFFFFFFFFFFFFFFFFFFFFFFFFFFFFFFFFFFFFFFFF AND DUP11 DUP9 DUP12 PUSH2 0xB6B PUSH2 0x1831 JUMP JUMPDEST PUSH1 0x40 MLOAD DUP11 PUSH4 0xFFFFFFFF AND PUSH1 0xE0 SHL DUP2 MSTORE PUSH1 0x4 ADD PUSH2 0xB8F SWAP10 SWAP9 SWAP8 SWAP7 SWAP6 SWAP5 SWAP4 SWAP3 SWAP2 SWAP1 PUSH2 0x2060 JUMP JUMPDEST PUSH1 0x0 PUSH1 0x40 MLOAD DUP1 DUP4 SUB DUP2 PUSH1 0x0 DUP8 DUP1 EXTCODESIZE ISZERO DUP1 ISZERO PUSH2 0xBA9 JUMPI PUSH1 0x0 DUP1 REVERT JUMPDEST POP GAS CALL ISZERO DUP1 ISZERO PUSH2 0xBBD JUMPI RETURNDATASIZE PUSH1 0x0 DUP1 RETURNDATACOPY RETURNDATASIZE PUSH1 0x0 REVERT JUMPDEST POP POP POP POP PUSH32 0x7C1FFD06D2A1DFDA35AC96481C894C45A1623C365A9060C5A038A45DB4614E80 DUP6 DUP6 DUP4 DUP7 PUSH1 0x40 MLOAD PUSH2 0xBF6 SWAP5 SWAP4 SWAP3 SWAP2 SWAP1 PUSH2 0x20ED JUMP JUMPDEST PUSH1 0x40 MLOAD DUP1 SWAP2 SUB SWAP1 LOG1 POP PUSH1 0x1 PUSH1 0x0 DUP2 SWAP1 SSTORE POP POP POP POP POP JUMP JUMPDEST PUSH1 0x3 PUSH1 0x0 SWAP1 SLOAD SWAP1 PUSH2 0x100 EXP SWAP1 DIV PUSH20 0xFFFFFFFFFFFFFFFFFFFFFFFFFFFFFFFFFFFFFFFF AND DUP2 JUMP JUMPDEST PUSH2 0xC3B PUSH2 0x1831 JUMP JUMPDEST PUSH20 0xFFFFFFFFFFFFFFFFFFFFFFFFFFFFFFFFFFFFFFFF AND PUSH2 0xC59 PUSH2 0x14AC JUMP JUMPDEST PUSH20 0xFFFFFFFFFFFFFFFFFFFFFFFFFFFFFFFFFFFFFFFF AND EQ PUSH2 0xCAF JUMPI PUSH1 0x40 MLOAD PUSH32 0x8C379A000000000000000000000000000000000000000000000000000000000 DUP2 MSTORE PUSH1 0x4 ADD PUSH2 0xCA6 SWAP1 PUSH2 0x1E6E JUMP JUMPDEST PUSH1 0x40 MLOAD DUP1 SWAP2 SUB SWAP1 REVERT JUMPDEST DUP1 PUSH1 0x9 DUP2 SWAP1 SSTORE POP POP JUMP JUMPDEST PUSH2 0xCC1 PUSH2 0x1831 JUMP JUMPDEST PUSH20 0xFFFFFFFFFFFFFFFFFFFFFFFFFFFFFFFFFFFFFFFF AND PUSH2 0xCDF PUSH2 0x14AC JUMP JUMPDEST PUSH20 0xFFFFFFFFFFFFFFFFFFFFFFFFFFFFFFFFFFFFFFFF AND EQ PUSH2 0xD35 JUMPI PUSH1 0x40 MLOAD PUSH32 0x8C379A000000000000000000000000000000000000000000000000000000000 DUP2 MSTORE PUSH1 0x4 ADD PUSH2 0xD2C SWAP1 PUSH2 0x1E6E JUMP JUMPDEST PUSH1 0x40 MLOAD DUP1 SWAP2 SUB SWAP1 REVERT JUMPDEST DUP1 PUSH1 0xB PUSH1 0x0 DUP5 PUSH20 0xFFFFFFFFFFFFFFFFFFFFFFFFFFFFFFFFFFFFFFFF AND PUSH20 0xFFFFFFFFFFFFFFFFFFFFFFFFFFFFFFFFFFFFFFFF AND DUP2 MSTORE PUSH1 0x20 ADD SWAP1 DUP2 MSTORE PUSH1 0x20 ADD PUSH1 0x0 KECCAK256 PUSH1 0x0 PUSH2 0x100 EXP DUP2 SLOAD DUP2 PUSH1 0xFF MUL NOT AND SWAP1 DUP4 ISZERO ISZERO MUL OR SWAP1 SSTORE POP POP POP JUMP JUMPDEST PUSH2 0xD98 PUSH2 0x1831 JUMP JUMPDEST PUSH20 0xFFFFFFFFFFFFFFFFFFFFFFFFFFFFFFFFFFFFFFFF AND PUSH2 0xDB6 PUSH2 0x14AC JUMP JUMPDEST PUSH20 0xFFFFFFFFFFFFFFFFFFFFFFFFFFFFFFFFFFFFFFFF AND EQ PUSH2 0xE0C JUMPI PUSH1 0x40 MLOAD PUSH32 0x8C379A000000000000000000000000000000000000000000000000000000000 DUP2 MSTORE PUSH1 0x4 ADD PUSH2 0xE03 SWAP1 PUSH2 0x1E6E JUMP JUMPDEST PUSH1 0x40 MLOAD DUP1 SWAP2 SUB SWAP1 REVERT JUMPDEST PUSH2 0xE16 PUSH1 0x0 PUSH2 0x1839 JUMP JUMPDEST JUMP JUMPDEST PUSH2 0xE20 PUSH2 0x1831 JUMP JUMPDEST PUSH20 0xFFFFFFFFFFFFFFFFFFFFFFFFFFFFFFFFFFFFFFFF AND PUSH2 0xE3E PUSH2 0x14AC JUMP JUMPDEST PUSH20 0xFFFFFFFFFFFFFFFFFFFFFFFFFFFFFFFFFFFFFFFF AND EQ PUSH2 0xE94 JUMPI PUSH1 0x40 MLOAD PUSH32 0x8C379A000000000000000000000000000000000000000000000000000000000 DUP2 MSTORE PUSH1 0x4 ADD PUSH2 0xE8B SWAP1 PUSH2 0x1E6E JUMP JUMPDEST PUSH1 0x40 MLOAD DUP1 SWAP2 SUB SWAP1 REVERT JUMPDEST PUSH1 0x0 PUSH20 0xFFFFFFFFFFFFFFFFFFFFFFFFFFFFFFFFFFFFFFFF AND DUP4 PUSH20 0xFFFFFFFFFFFFFFFFFFFFFFFFFFFFFFFFFFFFFFFF AND SUB PUSH2 0xF14 JUMPI DUP1 PUSH20 0xFFFFFFFFFFFFFFFFFFFFFFFFFFFFFFFFFFFFFFFF AND PUSH2 0x8FC DUP4 SWAP1 DUP2 ISZERO MUL SWAP1 PUSH1 0x40 MLOAD PUSH1 0x0 PUSH1 0x40 MLOAD DUP1 DUP4 SUB DUP2 DUP6 DUP9 DUP9 CALL SWAP4 POP POP POP POP ISZERO DUP1 ISZERO PUSH2 0xF0E JUMPI RETURNDATASIZE PUSH1 0x0 DUP1 RETURNDATACOPY RETURNDATASIZE PUSH1 0x0 REVERT JUMPDEST POP PUSH2 0xF94 JUMP JUMPDEST DUP3 PUSH20 0xFFFFFFFFFFFFFFFFFFFFFFFFFFFFFFFFFFFFFFFF AND PUSH4 0xA9059CBB DUP3 DUP5 PUSH1 0x40 MLOAD DUP4 PUSH4 0xFFFFFFFF AND PUSH1 0xE0 SHL DUP2 MSTORE PUSH1 0x4 ADD PUSH2 0xF4F SWAP3 SWAP2 SWAP1 PUSH2 0x2132 JUMP JUMPDEST PUSH1 0x20 PUSH1 0x40 MLOAD DUP1 DUP4 SUB DUP2 PUSH1 0x0 DUP8 GAS CALL ISZERO DUP1 ISZERO PUSH2 0xF6E JUMPI RETURNDATASIZE PUSH1 0x0 DUP1 RETURNDATACOPY RETURNDATASIZE PUSH1 0x0 REVERT JUMPDEST POP POP POP POP PUSH1 0x40 MLOAD RETURNDATASIZE PUSH1 0x1F NOT PUSH1 0x1F DUP3 ADD AND DUP3 ADD DUP1 PUSH1 0x40 MSTORE POP DUP2 ADD SWAP1 PUSH2 0xF92 SWAP2 SWAP1 PUSH2 0x2170 JUMP JUMPDEST POP JUMPDEST POP POP POP JUMP JUMPDEST PUSH1 0xB PUSH1 0x20 MSTORE DUP1 PUSH1 0x0 MSTORE PUSH1 0x40 PUSH1 0x0 KECCAK256 PUSH1 0x0 SWAP2 POP SLOAD SWAP1 PUSH2 0x100 EXP SWAP1 DIV PUSH1 0xFF AND DUP2 JUMP JUMPDEST PUSH1 0x1 ISZERO ISZERO PUSH1 0xB PUSH1 0x0 DUP5 PUSH20 0xFFFFFFFFFFFFFFFFFFFFFFFFFFFFFFFFFFFFFFFF AND PUSH20 0xFFFFFFFFFFFFFFFFFFFFFFFFFFFFFFFFFFFFFFFF AND DUP2 MSTORE PUSH1 0x20 ADD SWAP1 DUP2 MSTORE PUSH1 0x20 ADD PUSH1 0x0 KECCAK256 PUSH1 0x0 SWAP1 SLOAD SWAP1 PUSH2 0x100 EXP SWAP1 DIV PUSH1 0xFF AND ISZERO ISZERO EQ PUSH2 0x104C JUMPI PUSH1 0x40 MLOAD PUSH32 0x8C379A000000000000000000000000000000000000000000000000000000000 DUP2 MSTORE PUSH1 0x4 ADD PUSH2 0x1043 SWAP1 PUSH2 0x1FA6 JUMP JUMPDEST PUSH1 0x40 MLOAD DUP1 SWAP2 SUB SWAP1 REVERT JUMPDEST PUSH1 0x7 SLOAD CALLVALUE LT ISZERO PUSH2 0x1091 JUMPI PUSH1 0x40 MLOAD PUSH32 0x8C379A000000000000000000000000000000000000000000000000000000000 DUP2 MSTORE PUSH1 0x4 ADD PUSH2 0x1088 SWAP1 PUSH2 0x21E9 JUMP JUMPDEST PUSH1 0x40 MLOAD DUP1 SWAP2 SUB SWAP1 REVERT JUMPDEST PUSH1 0x0 PUSH20 0xFFFFFFFFFFFFFFFFFFFFFFFFFFFFFFFFFFFFFFFF AND PUSH1 0x3 PUSH1 0x0 SWAP1 SLOAD SWAP1 PUSH2 0x100 EXP SWAP1 DIV PUSH20 0xFFFFFFFFFFFFFFFFFFFFFFFFFFFFFFFFFFFFFFFF AND PUSH20 0xFFFFFFFFFFFFFFFFFFFFFFFFFFFFFFFFFFFFFFFF AND SUB PUSH2 0x1122 JUMPI PUSH1 0x40 MLOAD PUSH32 0x8C379A000000000000000000000000000000000000000000000000000000000 DUP2 MSTORE PUSH1 0x4 ADD PUSH2 0x1119 SWAP1 PUSH2 0x2255 JUMP JUMPDEST PUSH1 0x40 MLOAD DUP1 SWAP2 SUB SWAP1 REVERT JUMPDEST PUSH1 0x0 PUSH2 0x114F PUSH2 0x3E8 PUSH2 0x1141 PUSH1 0x8 SLOAD PUSH1 0x7 SLOAD PUSH2 0x18FF SWAP1 SWAP2 SWAP1 PUSH4 0xFFFFFFFF AND JUMP JUMPDEST PUSH2 0x1915 SWAP1 SWAP2 SWAP1 PUSH4 0xFFFFFFFF AND JUMP JUMPDEST SWAP1 POP PUSH1 0x0 PUSH2 0x117E PUSH2 0x3E8 PUSH2 0x1170 PUSH1 0x9 SLOAD PUSH1 0x7 SLOAD PUSH2 0x18FF SWAP1 SWAP2 SWAP1 PUSH4 0xFFFFFFFF AND JUMP JUMPDEST PUSH2 0x1915 SWAP1 SWAP2 SWAP1 PUSH4 0xFFFFFFFF AND JUMP JUMPDEST SWAP1 POP PUSH1 0x0 PUSH2 0x11A9 DUP3 PUSH2 0x119B DUP6 PUSH1 0x7 SLOAD PUSH2 0x192B SWAP1 SWAP2 SWAP1 PUSH4 0xFFFFFFFF AND JUMP JUMPDEST PUSH2 0x192B SWAP1 SWAP2 SWAP1 PUSH4 0xFFFFFFFF AND JUMP JUMPDEST SWAP1 POP PUSH1 0x6 PUSH1 0x0 SWAP1 SLOAD SWAP1 PUSH2 0x100 EXP SWAP1 DIV PUSH20 0xFFFFFFFFFFFFFFFFFFFFFFFFFFFFFFFFFFFFFFFF AND PUSH20 0xFFFFFFFFFFFFFFFFFFFFFFFFFFFFFFFFFFFFFFFF AND PUSH2 0x8FC DUP5 SWAP1 DUP2 ISZERO MUL SWAP1 PUSH1 0x40 MLOAD PUSH1 0x0 PUSH1 0x40 MLOAD DUP1 DUP4 SUB DUP2 DUP6 DUP9 DUP9 CALL SWAP4 POP POP POP POP ISZERO DUP1 ISZERO PUSH2 0x1213 JUMPI RETURNDATASIZE PUSH1 0x0 DUP1 RETURNDATACOPY RETURNDATASIZE PUSH1 0x0 REVERT JUMPDEST POP PUSH1 0x4 PUSH1 0x0 SWAP1 SLOAD SWAP1 PUSH2 0x100 EXP SWAP1 DIV PUSH20 0xFFFFFFFFFFFFFFFFFFFFFFFFFFFFFFFFFFFFFFFF AND PUSH20 0xFFFFFFFFFFFFFFFFFFFFFFFFFFFFFFFFFFFFFFFF AND PUSH2 0x8FC DUP4 SWAP1 DUP2 ISZERO MUL SWAP1 PUSH1 0x40 MLOAD PUSH1 0x0 PUSH1 0x40 MLOAD DUP1 DUP4 SUB DUP2 DUP6 DUP9 DUP9 CALL SWAP4 POP POP POP POP ISZERO DUP1 ISZERO PUSH2 0x127C JUMPI RETURNDATASIZE PUSH1 0x0 DUP1 RETURNDATACOPY RETURNDATASIZE PUSH1 0x0 REVERT JUMPDEST POP PUSH1 0x5 PUSH1 0x0 SWAP1 SLOAD SWAP1 PUSH2 0x100 EXP SWAP1 DIV PUSH20 0xFFFFFFFFFFFFFFFFFFFFFFFFFFFFFFFFFFFFFFFF AND PUSH20 0xFFFFFFFFFFFFFFFFFFFFFFFFFFFFFFFFFFFFFFFF AND PUSH2 0x8FC DUP3 SWAP1 DUP2 ISZERO MUL SWAP1 PUSH1 0x40 MLOAD PUSH1 0x0 PUSH1 0x40 MLOAD DUP1 DUP4 SUB DUP2 DUP6 DUP9 DUP9 CALL SWAP4 POP POP POP POP ISZERO DUP1 ISZERO PUSH2 0x12E5 JUMPI RETURNDATASIZE PUSH1 0x0 DUP1 RETURNDATACOPY RETURNDATASIZE PUSH1 0x0 REVERT JUMPDEST POP PUSH1 0x0 PUSH2 0x12F1 DUP7 PUSH2 0x1941 JUMP JUMPDEST SWAP1 POP DUP1 PUSH20 0xFFFFFFFFFFFFFFFFFFFFFFFFFFFFFFFFFFFFFFFF AND PUSH4 0x144FA6D7 DUP7 PUSH1 0x40 MLOAD DUP3 PUSH4 0xFFFFFFFF AND PUSH1 0xE0 SHL DUP2 MSTORE PUSH1 0x4 ADD PUSH2 0x132C SWAP2 SWAP1 PUSH2 0x1E07 JUMP JUMPDEST PUSH1 0x0 PUSH1 0x40 MLOAD DUP1 DUP4 SUB DUP2 PUSH1 0x0 DUP8 DUP1 EXTCODESIZE ISZERO DUP1 ISZERO PUSH2 0x1346 JUMPI PUSH1 0x0 DUP1 REVERT JUMPDEST POP GAS CALL ISZERO DUP1 ISZERO PUSH2 0x135A JUMPI RETURNDATASIZE PUSH1 0x0 DUP1 RETURNDATACOPY RETURNDATASIZE PUSH1 0x0 REVERT JUMPDEST POP POP POP POP DUP1 PUSH20 0xFFFFFFFFFFFFFFFFFFFFFFFFFFFFFFFFFFFFFFFF AND PUSH4 0xAB346B0A PUSH2 0x1382 PUSH2 0x1831 JUMP JUMPDEST PUSH1 0x40 MLOAD DUP3 PUSH4 0xFFFFFFFF AND PUSH1 0xE0 SHL DUP2 MSTORE PUSH1 0x4 ADD PUSH2 0x139E SWAP2 SWAP1 PUSH2 0x1E07 JUMP JUMPDEST PUSH1 0x0 PUSH1 0x40 MLOAD DUP1 DUP4 SUB DUP2 PUSH1 0x0 DUP8 DUP1 EXTCODESIZE ISZERO DUP1 ISZERO PUSH2 0x13B8 JUMPI PUSH1 0x0 DUP1 REVERT JUMPDEST POP GAS CALL ISZERO DUP1 ISZERO PUSH2 0x13CC JUMPI RETURNDATASIZE PUSH1 0x0 DUP1 RETURNDATACOPY RETURNDATASIZE PUSH1 0x0 REVERT JUMPDEST POP POP POP POP PUSH32 0xD5A9B24AB47B03FF4180571DD82BDFB1B301682EF89E3641DFA041AD648A5933 DUP2 PUSH2 0x13FA PUSH2 0x1831 JUMP JUMPDEST DUP9 DUP9 PUSH1 0x7 SLOAD DUP10 DUP10 DUP10 PUSH1 0x40 MLOAD PUSH2 0x1416 SWAP9 SWAP8 SWAP7 SWAP6 SWAP5 SWAP4 SWAP3 SWAP2 SWAP1 PUSH2 0x2275 JUMP JUMPDEST PUSH1 0x40 MLOAD DUP1 SWAP2 SUB SWAP1 LOG1 POP POP POP POP POP POP JUMP JUMPDEST PUSH2 0x142E PUSH2 0x1831 JUMP JUMPDEST PUSH20 0xFFFFFFFFFFFFFFFFFFFFFFFFFFFFFFFFFFFFFFFF AND PUSH2 0x144C PUSH2 0x14AC JUMP JUMPDEST PUSH20 0xFFFFFFFFFFFFFFFFFFFFFFFFFFFFFFFFFFFFFFFF AND EQ PUSH2 0x14A2 JUMPI PUSH1 0x40 MLOAD PUSH32 0x8C379A000000000000000000000000000000000000000000000000000000000 DUP2 MSTORE PUSH1 0x4 ADD PUSH2 0x1499 SWAP1 PUSH2 0x1E6E JUMP JUMPDEST PUSH1 0x40 MLOAD DUP1 SWAP2 SUB SWAP1 REVERT JUMPDEST DUP1 PUSH1 0x8 DUP2 SWAP1 SSTORE POP POP JUMP JUMPDEST PUSH1 0x0 PUSH1 0x1 PUSH1 0x0 SWAP1 SLOAD SWAP1 PUSH2 0x100 EXP SWAP1 DIV PUSH20 0xFFFFFFFFFFFFFFFFFFFFFFFFFFFFFFFFFFFFFFFF AND SWAP1 POP SWAP1 JUMP JUMPDEST PUSH1 0x4 PUSH1 0x0 SWAP1 SLOAD SWAP1 PUSH2 0x100 EXP SWAP1 DIV PUSH20 0xFFFFFFFFFFFFFFFFFFFFFFFFFFFFFFFFFFFFFFFF AND DUP2 JUMP JUMPDEST PUSH2 0x1504 PUSH2 0x1831 JUMP JUMPDEST PUSH20 0xFFFFFFFFFFFFFFFFFFFFFFFFFFFFFFFFFFFFFFFF AND PUSH2 0x1522 PUSH2 0x14AC JUMP JUMPDEST PUSH20 0xFFFFFFFFFFFFFFFFFFFFFFFFFFFFFFFFFFFFFFFF AND EQ PUSH2 0x1578 JUMPI PUSH1 0x40 MLOAD PUSH32 0x8C379A000000000000000000000000000000000000000000000000000000000 DUP2 MSTORE PUSH1 0x4 ADD PUSH2 0x156F SWAP1 PUSH2 0x1E6E JUMP JUMPDEST PUSH1 0x40 MLOAD DUP1 SWAP2 SUB SWAP1 REVERT JUMPDEST DUP1 PUSH1 0x3 PUSH1 0x0 PUSH2 0x100 EXP DUP2 SLOAD DUP2 PUSH20 0xFFFFFFFFFFFFFFFFFFFFFFFFFFFFFFFFFFFFFFFF MUL NOT AND SWAP1 DUP4 PUSH20 0xFFFFFFFFFFFFFFFFFFFFFFFFFFFFFFFFFFFFFFFF AND MUL OR SWAP1 SSTORE POP POP JUMP JUMPDEST PUSH2 0x15C4 PUSH2 0x1831 JUMP JUMPDEST PUSH20 0xFFFFFFFFFFFFFFFFFFFFFFFFFFFFFFFFFFFFFFFF AND PUSH2 0x15E2 PUSH2 0x14AC JUMP JUMPDEST PUSH20 0xFFFFFFFFFFFFFFFFFFFFFFFFFFFFFFFFFFFFFFFF AND EQ PUSH2 0x1638 JUMPI PUSH1 0x40 MLOAD PUSH32 0x8C379A000000000000000000000000000000000000000000000000000000000 DUP2 MSTORE PUSH1 0x4 ADD PUSH2 0x162F SWAP1 PUSH2 0x1E6E JUMP JUMPDEST PUSH1 0x40 MLOAD DUP1 SWAP2 SUB SWAP1 REVERT JUMPDEST DUP1 PUSH1 0x7 DUP2 SWAP1 SSTORE POP POP JUMP JUMPDEST PUSH1 0x7 SLOAD DUP2 JUMP JUMPDEST PUSH1 0xA SLOAD DUP2 JUMP JUMPDEST PUSH1 0x5 PUSH1 0x0 SWAP1 SLOAD SWAP1 PUSH2 0x100 EXP SWAP1 DIV PUSH20 0xFFFFFFFFFFFFFFFFFFFFFFFFFFFFFFFFFFFFFFFF AND DUP2 JUMP JUMPDEST PUSH2 0x167C PUSH2 0x1831 JUMP JUMPDEST PUSH20 0xFFFFFFFFFFFFFFFFFFFFFFFFFFFFFFFFFFFFFFFF AND PUSH2 0x169A PUSH2 0x14AC JUMP JUMPDEST PUSH20 0xFFFFFFFFFFFFFFFFFFFFFFFFFFFFFFFFFFFFFFFF AND EQ PUSH2 0x16F0 JUMPI PUSH1 0x40 MLOAD PUSH32 0x8C379A000000000000000000000000000000000000000000000000000000000 DUP2 MSTORE PUSH1 0x4 ADD PUSH2 0x16E7 SWAP1 PUSH2 0x1E6E JUMP JUMPDEST PUSH1 0x40 MLOAD DUP1 SWAP2 SUB SWAP1 REVERT JUMPDEST DUP1 PUSH1 0x6 PUSH1 0x0 PUSH2 0x100 EXP DUP2 SLOAD DUP2 PUSH20 0xFFFFFFFFFFFFFFFFFFFFFFFFFFFFFFFFFFFFFFFF MUL NOT AND SWAP1 DUP4 PUSH20 0xFFFFFFFFFFFFFFFFFFFFFFFFFFFFFFFFFFFFFFFF AND MUL OR SWAP1 SSTORE POP POP JUMP JUMPDEST PUSH2 0x173C PUSH2 0x1831 JUMP JUMPDEST PUSH20 0xFFFFFFFFFFFFFFFFFFFFFFFFFFFFFFFFFFFFFFFF AND PUSH2 0x175A PUSH2 0x14AC JUMP JUMPDEST PUSH20 0xFFFFFFFFFFFFFFFFFFFFFFFFFFFFFFFFFFFFFFFF AND EQ PUSH2 0x17B0 JUMPI PUSH1 0x40 MLOAD PUSH32 0x8C379A000000000000000000000000000000000000000000000000000000000 DUP2 MSTORE PUSH1 0x4 ADD PUSH2 0x17A7 SWAP1 PUSH2 0x1E6E JUMP JUMPDEST PUSH1 0x40 MLOAD DUP1 SWAP2 SUB SWAP1 REVERT JUMPDEST PUSH1 0x0 PUSH20 0xFFFFFFFFFFFFFFFFFFFFFFFFFFFFFFFFFFFFFFFF AND DUP2 PUSH20 0xFFFFFFFFFFFFFFFFFFFFFFFFFFFFFFFFFFFFFFFF AND SUB PUSH2 0x181F JUMPI PUSH1 0x40 MLOAD PUSH32 0x8C379A000000000000000000000000000000000000000000000000000000000 DUP2 MSTORE PUSH1 0x4 ADD PUSH2 0x1816 SWAP1 PUSH2 0x2365 JUMP JUMPDEST PUSH1 0x40 MLOAD DUP1 SWAP2 SUB SWAP1 REVERT JUMPDEST PUSH2 0x1828 DUP2 PUSH2 0x1839 JUMP JUMPDEST POP JUMP JUMPDEST PUSH1 0x9 SLOAD DUP2 JUMP JUMPDEST PUSH1 0x0 CALLER SWAP1 POP SWAP1 JUMP JUMPDEST PUSH1 0x0 PUSH1 0x1 PUSH1 0x0 SWAP1 SLOAD SWAP1 PUSH2 0x100 EXP SWAP1 DIV PUSH20 0xFFFFFFFFFFFFFFFFFFFFFFFFFFFFFFFFFFFFFFFF AND SWAP1 POP DUP2 PUSH1 0x1 PUSH1 0x0 PUSH2 0x100 EXP DUP2 SLOAD DUP2 PUSH20 0xFFFFFFFFFFFFFFFFFFFFFFFFFFFFFFFFFFFFFFFF MUL NOT AND SWAP1 DUP4 PUSH20 0xFFFFFFFFFFFFFFFFFFFFFFFFFFFFFFFFFFFFFFFF AND MUL OR SWAP1 SSTORE POP DUP2 PUSH20 0xFFFFFFFFFFFFFFFFFFFFFFFFFFFFFFFFFFFFFFFF AND DUP2 PUSH20 0xFFFFFFFFFFFFFFFFFFFFFFFFFFFFFFFFFFFFFFFF AND PUSH32 0x8BE0079C531659141344CD1FD0A4F28419497F9722A3DAAFE3B4186F6B6457E0 PUSH1 0x40 MLOAD PUSH1 0x40 MLOAD DUP1 SWAP2 SUB SWAP1 LOG3 POP POP JUMP JUMPDEST PUSH1 0x0 DUP2 DUP4 PUSH2 0x190D SWAP2 SWAP1 PUSH2 0x23B4 JUMP JUMPDEST SWAP1 POP SWAP3 SWAP2 POP POP JUMP JUMPDEST PUSH1 0x0 DUP2 DUP4 PUSH2 0x1923 SWAP2 SWAP1 PUSH2 0x2425 JUMP JUMPDEST SWAP1 POP SWAP3 SWAP2 POP POP JUMP JUMPDEST PUSH1 0x0 DUP2 DUP4 PUSH2 0x1939 SWAP2 SWAP1 PUSH2 0x2456 JUMP JUMPDEST SWAP1 POP SWAP3 SWAP2 POP POP JUMP JUMPDEST PUSH1 0x0 DUP1 DUP3 PUSH1 0x60 SHL SWAP1 POP PUSH1 0x40 MLOAD PUSH32 0x3D602D80600A3D3981F3363D3D373D3D3D363D73000000000000000000000000 DUP2 MSTORE DUP2 PUSH1 0x14 DUP3 ADD MSTORE PUSH32 0x5AF43D82803E903D91602B57FD5BF30000000000000000000000000000000000 PUSH1 0x28 DUP3 ADD MSTORE PUSH1 0x37 DUP2 PUSH1 0x0 CREATE SWAP3 POP POP POP SWAP2 SWAP1 POP JUMP JUMPDEST PUSH1 0x0 DUP2 SWAP1 POP SWAP2 SWAP1 POP JUMP JUMPDEST PUSH2 0x19BE DUP2 PUSH2 0x19AB JUMP JUMPDEST DUP3 MSTORE POP POP JUMP JUMPDEST PUSH1 0x0 PUSH1 0x20 DUP3 ADD SWAP1 POP PUSH2 0x19D9 PUSH1 0x0 DUP4 ADD DUP5 PUSH2 0x19B5 JUMP JUMPDEST SWAP3 SWAP2 POP POP JUMP JUMPDEST PUSH1 0x0 DUP1 REVERT JUMPDEST PUSH1 0x0 PUSH20 0xFFFFFFFFFFFFFFFFFFFFFFFFFFFFFFFFFFFFFFFF DUP3 AND SWAP1 POP SWAP2 SWAP1 POP JUMP JUMPDEST PUSH1 0x0 PUSH2 0x1A0F DUP3 PUSH2 0x19E4 JUMP JUMPDEST SWAP1 POP SWAP2 SWAP1 POP JUMP JUMPDEST PUSH2 0x1A1F DUP2 PUSH2 0x1A04 JUMP JUMPDEST DUP2 EQ PUSH2 0x1A2A JUMPI PUSH1 0x0 DUP1 REVERT JUMPDEST POP JUMP JUMPDEST PUSH1 0x0 DUP2 CALLDATALOAD SWAP1 POP PUSH2 0x1A3C DUP2 PUSH2 0x1A16 JUMP JUMPDEST SWAP3 SWAP2 POP POP JUMP JUMPDEST PUSH1 0x0 PUSH1 0x20 DUP3 DUP5 SUB SLT ISZERO PUSH2 0x1A58 JUMPI PUSH2 0x1A57 PUSH2 0x19DF JUMP JUMPDEST JUMPDEST PUSH1 0x0 PUSH2 0x1A66 DUP5 DUP3 DUP6 ADD PUSH2 0x1A2D JUMP JUMPDEST SWAP2 POP POP SWAP3 SWAP2 POP POP JUMP JUMPDEST PUSH1 0x0 DUP2 MLOAD SWAP1 POP SWAP2 SWAP1 POP JUMP JUMPDEST PUSH1 0x0 DUP3 DUP3 MSTORE PUSH1 0x20 DUP3 ADD SWAP1 POP SWAP3 SWAP2 POP POP JUMP JUMPDEST PUSH1 0x0 JUMPDEST DUP4 DUP2 LT ISZERO PUSH2 0x1AA9 JUMPI DUP1 DUP3 ADD MLOAD DUP2 DUP5 ADD MSTORE PUSH1 0x20 DUP2 ADD SWAP1 POP PUSH2 0x1A8E JUMP JUMPDEST PUSH1 0x0 DUP5 DUP5 ADD MSTORE POP POP POP POP JUMP JUMPDEST PUSH1 0x0 PUSH1 0x1F NOT PUSH1 0x1F DUP4 ADD AND SWAP1 POP SWAP2 SWAP1 POP JUMP JUMPDEST PUSH1 0x0 PUSH2 0x1AD1 DUP3 PUSH2 0x1A6F JUMP JUMPDEST PUSH2 0x1ADB DUP2 DUP6 PUSH2 0x1A7A JUMP JUMPDEST SWAP4 POP PUSH2 0x1AEB DUP2 DUP6 PUSH1 0x20 DUP7 ADD PUSH2 0x1A8B JUMP JUMPDEST PUSH2 0x1AF4 DUP2 PUSH2 0x1AB5 JUMP JUMPDEST DUP5 ADD SWAP2 POP POP SWAP3 SWAP2 POP POP JUMP JUMPDEST PUSH1 0x0 PUSH1 0x20 DUP3 ADD SWAP1 POP DUP2 DUP2 SUB PUSH1 0x0 DUP4 ADD MSTORE PUSH2 0x1B19 DUP2 DUP5 PUSH2 0x1AC6 JUMP JUMPDEST SWAP1 POP SWAP3 SWAP2 POP POP JUMP JUMPDEST PUSH2 0x1B2A DUP2 PUSH2 0x19AB JUMP JUMPDEST DUP2 EQ PUSH2 0x1B35 JUMPI PUSH1 0x0 DUP1 REVERT JUMPDEST POP JUMP JUMPDEST PUSH1 0x0 DUP2 CALLDATALOAD SWAP1 POP PUSH2 0x1B47 DUP2 PUSH2 0x1B21 JUMP JUMPDEST SWAP3 SWAP2 POP POP JUMP JUMPDEST PUSH1 0x0 PUSH1 0x20 DUP3 DUP5 SUB SLT ISZERO PUSH2 0x1B63 JUMPI PUSH2 0x1B62 PUSH2 0x19DF JUMP JUMPDEST JUMPDEST PUSH1 0x0 PUSH2 0x1B71 DUP5 DUP3 DUP6 ADD PUSH2 0x1B38 JUMP JUMPDEST SWAP2 POP POP SWAP3 SWAP2 POP POP JUMP JUMPDEST PUSH1 0x0 PUSH2 0x1B85 DUP3 PUSH2 0x19E4 JUMP JUMPDEST SWAP1 POP SWAP2 SWAP1 POP JUMP JUMPDEST PUSH2 0x1B95 DUP2 PUSH2 0x1B7A JUMP JUMPDEST DUP3 MSTORE POP POP JUMP JUMPDEST PUSH1 0x0 PUSH1 0x20 DUP3 ADD SWAP1 POP PUSH2 0x1BB0 PUSH1 0x0 DUP4 ADD DUP5 PUSH2 0x1B8C JUMP JUMPDEST SWAP3 SWAP2 POP POP JUMP JUMPDEST PUSH1 0x0 DUP1 PUSH1 0x0 DUP1 PUSH1 0x80 DUP6 DUP8 SUB SLT ISZERO PUSH2 0x1BD0 JUMPI PUSH2 0x1BCF PUSH2 0x19DF JUMP JUMPDEST JUMPDEST PUSH1 0x0 PUSH2 0x1BDE DUP8 DUP3 DUP9 ADD PUSH2 0x1A2D JUMP JUMPDEST SWAP5 POP POP PUSH1 0x20 PUSH2 0x1BEF DUP8 DUP3 DUP9 ADD PUSH2 0x1B38 JUMP JUMPDEST SWAP4 POP POP PUSH1 0x40 PUSH2 0x1C00 DUP8 DUP3 DUP9 ADD PUSH2 0x1B38 JUMP JUMPDEST SWAP3 POP POP PUSH1 0x60 PUSH2 0x1C11 DUP8 DUP3 DUP9 ADD PUSH2 0x1A2D JUMP JUMPDEST SWAP2 POP POP SWAP3 SWAP6 SWAP2 SWAP5 POP SWAP3 POP JUMP JUMPDEST PUSH1 0x0 DUP2 SWAP1 POP SWAP2 SWAP1 POP JUMP JUMPDEST PUSH1 0x0 PUSH2 0x1C42 PUSH2 0x1C3D PUSH2 0x1C38 DUP5 PUSH2 0x19E4 JUMP JUMPDEST PUSH2 0x1C1D JUMP JUMPDEST PUSH2 0x19E4 JUMP JUMPDEST SWAP1 POP SWAP2 SWAP1 POP JUMP JUMPDEST PUSH1 0x0 PUSH2 0x1C54 DUP3 PUSH2 0x1C27 JUMP JUMPDEST SWAP1 POP SWAP2 SWAP1 POP JUMP JUMPDEST PUSH1 0x0 PUSH2 0x1C66 DUP3 PUSH2 0x1C49 JUMP JUMPDEST SWAP1 POP SWAP2 SWAP1 POP JUMP JUMPDEST PUSH2 0x1C76 DUP2 PUSH2 0x1C5B JUMP JUMPDEST DUP3 MSTORE POP POP JUMP JUMPDEST PUSH1 0x0 PUSH1 0x20 DUP3 ADD SWAP1 POP PUSH2 0x1C91 PUSH1 0x0 DUP4 ADD DUP5 PUSH2 0x1C6D JUMP JUMPDEST SWAP3 SWAP2 POP POP JUMP JUMPDEST PUSH1 0x0 DUP2 ISZERO ISZERO SWAP1 POP SWAP2 SWAP1 POP JUMP JUMPDEST PUSH2 0x1CAC DUP2 PUSH2 0x1C97 JUMP JUMPDEST DUP2 EQ PUSH2 0x1CB7 JUMPI PUSH1 0x0 DUP1 REVERT JUMPDEST POP JUMP JUMPDEST PUSH1 0x0 DUP2 CALLDATALOAD SWAP1 POP PUSH2 0x1CC9 DUP2 PUSH2 0x1CA3 JUMP JUMPDEST SWAP3 SWAP2 POP POP JUMP JUMPDEST PUSH1 0x0 DUP1 PUSH1 0x40 DUP4 DUP6 SUB SLT ISZERO PUSH2 0x1CE6 JUMPI PUSH2 0x1CE5 PUSH2 0x19DF JUMP JUMPDEST JUMPDEST PUSH1 0x0 PUSH2 0x1CF4 DUP6 DUP3 DUP7 ADD PUSH2 0x1A2D JUMP JUMPDEST SWAP3 POP POP PUSH1 0x20 PUSH2 0x1D05 DUP6 DUP3 DUP7 ADD PUSH2 0x1CBA JUMP JUMPDEST SWAP2 POP POP SWAP3 POP SWAP3 SWAP1 POP JUMP JUMPDEST PUSH2 0x1D18 DUP2 PUSH2 0x1B7A JUMP JUMPDEST DUP2 EQ PUSH2 0x1D23 JUMPI PUSH1 0x0 DUP1 REVERT JUMPDEST POP JUMP JUMPDEST PUSH1 0x0 DUP2 CALLDATALOAD SWAP1 POP PUSH2 0x1D35 DUP2 PUSH2 0x1D0F JUMP JUMPDEST SWAP3 SWAP2 POP POP JUMP JUMPDEST PUSH1 0x0 DUP1 PUSH1 0x0 PUSH1 0x60 DUP5 DUP7 SUB SLT ISZERO PUSH2 0x1D54 JUMPI PUSH2 0x1D53 PUSH2 0x19DF JUMP JUMPDEST JUMPDEST PUSH1 0x0 PUSH2 0x1D62 DUP7 DUP3 DUP8 ADD PUSH2 0x1A2D JUMP JUMPDEST SWAP4 POP POP PUSH1 0x20 PUSH2 0x1D73 DUP7 DUP3 DUP8 ADD PUSH2 0x1B38 JUMP JUMPDEST SWAP3 POP POP PUSH1 0x40 PUSH2 0x1D84 DUP7 DUP3 DUP8 ADD PUSH2 0x1D26 JUMP JUMPDEST SWAP2 POP POP SWAP3 POP SWAP3 POP SWAP3 JUMP JUMPDEST PUSH2 0x1D97 DUP2 PUSH2 0x1C97 JUMP JUMPDEST DUP3 MSTORE POP POP JUMP JUMPDEST PUSH1 0x0 PUSH1 0x20 DUP3 ADD SWAP1 POP PUSH2 0x1DB2 PUSH1 0x0 DUP4 ADD DUP5 PUSH2 0x1D8E JUMP JUMPDEST SWAP3 SWAP2 POP POP JUMP JUMPDEST PUSH1 0x0 DUP1 PUSH1 0x40 DUP4 DUP6 SUB SLT ISZERO PUSH2 0x1DCF JUMPI PUSH2 0x1DCE PUSH2 0x19DF JUMP JUMPDEST JUMPDEST PUSH1 0x0 PUSH2 0x1DDD DUP6 DUP3 DUP7 ADD PUSH2 0x1A2D JUMP JUMPDEST SWAP3 POP POP PUSH1 0x20 PUSH2 0x1DEE DUP6 DUP3 DUP7 ADD PUSH2 0x1A2D JUMP JUMPDEST SWAP2 POP POP SWAP3 POP SWAP3 SWAP1 POP JUMP JUMPDEST PUSH2 0x1E01 DUP2 PUSH2 0x1A04 JUMP JUMPDEST DUP3 MSTORE POP POP JUMP JUMPDEST PUSH1 0x0 PUSH1 0x20 DUP3 ADD SWAP1 POP PUSH2 0x1E1C PUSH1 0x0 DUP4 ADD DUP5 PUSH2 0x1DF8 JUMP JUMPDEST SWAP3 SWAP2 POP POP JUMP JUMPDEST PUSH32 0x4F776E61626C653A2063616C6C6572206973206E6F7420746865206F776E6572 PUSH1 0x0 DUP3 ADD MSTORE POP JUMP JUMPDEST PUSH1 0x0 PUSH2 0x1E58 PUSH1 0x20 DUP4 PUSH2 0x1A7A JUMP JUMPDEST SWAP2 POP PUSH2 0x1E63 DUP3 PUSH2 0x1E22 JUMP JUMPDEST PUSH1 0x20 DUP3 ADD SWAP1 POP SWAP2 SWAP1 POP JUMP JUMPDEST PUSH1 0x0 PUSH1 0x20 DUP3 ADD SWAP1 POP DUP2 DUP2 SUB PUSH1 0x0 DUP4 ADD MSTORE PUSH2 0x1E87 DUP2 PUSH2 0x1E4B JUMP JUMPDEST SWAP1 POP SWAP2 SWAP1 POP JUMP JUMPDEST PUSH32 0x4E487B7100000000000000000000000000000000000000000000000000000000 PUSH1 0x0 MSTORE PUSH1 0x22 PUSH1 0x4 MSTORE PUSH1 0x24 PUSH1 0x0 REVERT JUMPDEST PUSH1 0x0 PUSH1 0x2 DUP3 DIV SWAP1 POP PUSH1 0x1 DUP3 AND DUP1 PUSH2 0x1ED5 JUMPI PUSH1 0x7F DUP3 AND SWAP2 POP JUMPDEST PUSH1 0x20 DUP3 LT DUP2 SUB PUSH2 0x1EE8 JUMPI PUSH2 0x1EE7 PUSH2 0x1E8E JUMP JUMPDEST JUMPDEST POP SWAP2 SWAP1 POP JUMP JUMPDEST PUSH32 0x5265656E7472616E637947756172643A207265656E7472616E742063616C6C00 PUSH1 0x0 DUP3 ADD MSTORE POP JUMP JUMPDEST PUSH1 0x0 PUSH2 0x1F24 PUSH1 0x1F DUP4 PUSH2 0x1A7A JUMP JUMPDEST SWAP2 POP PUSH2 0x1F2F DUP3 PUSH2 0x1EEE JUMP JUMPDEST PUSH1 0x20 DUP3 ADD SWAP1 POP SWAP2 SWAP1 POP JUMP JUMPDEST PUSH1 0x0 PUSH1 0x20 DUP3 ADD SWAP1 POP DUP2 DUP2 SUB PUSH1 0x0 DUP4 ADD MSTORE PUSH2 0x1F53 DUP2 PUSH2 0x1F17 JUMP JUMPDEST SWAP1 POP SWAP2 SWAP1 POP JUMP JUMPDEST PUSH32 0x47616D65206E6F7420666F756E64000000000000000000000000000000000000 PUSH1 0x0 DUP3 ADD MSTORE POP JUMP JUMPDEST PUSH1 0x0 PUSH2 0x1F90 PUSH1 0xE DUP4 PUSH2 0x1A7A JUMP JUMPDEST SWAP2 POP PUSH2 0x1F9B DUP3 PUSH2 0x1F5A JUMP JUMPDEST PUSH1 0x20 DUP3 ADD SWAP1 POP SWAP2 SWAP1 POP JUMP JUMPDEST PUSH1 0x0 PUSH1 0x20 DUP3 ADD SWAP1 POP DUP2 DUP2 SUB PUSH1 0x0 DUP4 ADD MSTORE PUSH2 0x1FBF DUP2 PUSH2 0x1F83 JUMP JUMPDEST SWAP1 POP SWAP2 SWAP1 POP JUMP JUMPDEST PUSH1 0x0 DUP2 MLOAD SWAP1 POP PUSH2 0x1FD5 DUP2 PUSH2 0x1B21 JUMP JUMPDEST SWAP3 SWAP2 POP POP JUMP JUMPDEST PUSH1 0x0 PUSH1 0x20 DUP3 DUP5 SUB SLT ISZERO PUSH2 0x1FF1 JUMPI PUSH2 0x1FF0 PUSH2 0x19DF JUMP JUMPDEST JUMPDEST PUSH1 0x0 PUSH2 0x1FFF DUP5 DUP3 DUP6 ADD PUSH2 0x1FC6 JUMP JUMPDEST SWAP2 POP POP SWAP3 SWAP2 POP POP JUMP JUMPDEST PUSH1 0x0 PUSH1 0x60 DUP3 ADD SWAP1 POP PUSH2 0x201D PUSH1 0x0 DUP4 ADD DUP7 PUSH2 0x1DF8 JUMP JUMPDEST PUSH2 0x202A PUSH1 0x20 DUP4 ADD DUP6 PUSH2 0x19B5 JUMP JUMPDEST PUSH2 0x2037 PUSH1 0x40 DUP4 ADD DUP5 PUSH2 0x19B5 JUMP JUMPDEST SWAP5 SWAP4 POP POP POP POP JUMP JUMPDEST PUSH1 0x0 PUSH2 0x204A DUP3 PUSH2 0x1C49 JUMP JUMPDEST SWAP1 POP SWAP2 SWAP1 POP JUMP JUMPDEST PUSH2 0x205A DUP2 PUSH2 0x203F JUMP JUMPDEST DUP3 MSTORE POP POP JUMP JUMPDEST PUSH1 0x0 PUSH2 0x120 DUP3 ADD SWAP1 POP PUSH2 0x2076 PUSH1 0x0 DUP4 ADD DUP13 PUSH2 0x19B5 JUMP JUMPDEST PUSH2 0x2083 PUSH1 0x20 DUP4 ADD DUP12 PUSH2 0x19B5 JUMP JUMPDEST PUSH2 0x2090 PUSH1 0x40 DUP4 ADD DUP11 PUSH2 0x1DF8 JUMP JUMPDEST PUSH2 0x209D PUSH1 0x60 DUP4 ADD DUP10 PUSH2 0x2051 JUMP JUMPDEST PUSH2 0x20AA PUSH1 0x80 DUP4 ADD DUP9 PUSH2 0x2051 JUMP JUMPDEST PUSH2 0x20B7 PUSH1 0xA0 DUP4 ADD DUP8 PUSH2 0x19B5 JUMP JUMPDEST PUSH2 0x20C4 PUSH1 0xC0 DUP4 ADD DUP7 PUSH2 0x19B5 JUMP JUMPDEST PUSH2 0x20D1 PUSH1 0xE0 DUP4 ADD DUP6 PUSH2 0x19B5 JUMP JUMPDEST PUSH2 0x20DF PUSH2 0x100 DUP4 ADD DUP5 PUSH2 0x1DF8 JUMP JUMPDEST SWAP11 SWAP10 POP POP POP POP POP POP POP POP POP POP JUMP JUMPDEST PUSH1 0x0 PUSH1 0x80 DUP3 ADD SWAP1 POP PUSH2 0x2102 PUSH1 0x0 DUP4 ADD DUP8 PUSH2 0x1DF8 JUMP JUMPDEST PUSH2 0x210F PUSH1 0x20 DUP4 ADD DUP7 PUSH2 0x19B5 JUMP JUMPDEST PUSH2 0x211C PUSH1 0x40 DUP4 ADD DUP6 PUSH2 0x19B5 JUMP JUMPDEST PUSH2 0x2129 PUSH1 0x60 DUP4 ADD DUP5 PUSH2 0x19B5 JUMP JUMPDEST SWAP6 SWAP5 POP POP POP POP POP JUMP JUMPDEST PUSH1 0x0 PUSH1 0x40 DUP3 ADD SWAP1 POP PUSH2 0x2147 PUSH1 0x0 DUP4 ADD DUP6 PUSH2 0x2051 JUMP JUMPDEST PUSH2 0x2154 PUSH1 0x20 DUP4 ADD DUP5 PUSH2 0x19B5 JUMP JUMPDEST SWAP4 SWAP3 POP POP POP JUMP JUMPDEST PUSH1 0x0 DUP2 MLOAD SWAP1 POP PUSH2 0x216A DUP2 PUSH2 0x1CA3 JUMP JUMPDEST SWAP3 SWAP2 POP POP JUMP JUMPDEST PUSH1 0x0 PUSH1 0x20 DUP3 DUP5 SUB SLT ISZERO PUSH2 0x2186 JUMPI PUSH2 0x2185 PUSH2 0x19DF JUMP JUMPDEST JUMPDEST PUSH1 0x0 PUSH2 0x2194 DUP5 DUP3 DUP6 ADD PUSH2 0x215B JUMP JUMPDEST SWAP2 POP POP SWAP3 SWAP2 POP POP JUMP JUMPDEST PUSH32 0x496E76616C696420616D6F756E74000000000000000000000000000000000000 PUSH1 0x0 DUP3 ADD MSTORE POP JUMP JUMPDEST PUSH1 0x0 PUSH2 0x21D3 PUSH1 0xE DUP4 PUSH2 0x1A7A JUMP JUMPDEST SWAP2 POP PUSH2 0x21DE DUP3 PUSH2 0x219D JUMP JUMPDEST PUSH1 0x20 DUP3 ADD SWAP1 POP SWAP2 SWAP1 POP JUMP JUMPDEST PUSH1 0x0 PUSH1 0x20 DUP3 ADD SWAP1 POP DUP2 DUP2 SUB PUSH1 0x0 DUP4 ADD MSTORE PUSH2 0x2202 DUP2 PUSH2 0x21C6 JUMP JUMPDEST SWAP1 POP SWAP2 SWAP1 POP JUMP JUMPDEST PUSH32 0x436F6E7472616374204E4654206E6F7420666F756E6400000000000000000000 PUSH1 0x0 DUP3 ADD MSTORE POP JUMP JUMPDEST PUSH1 0x0 PUSH2 0x223F PUSH1 0x16 DUP4 PUSH2 0x1A7A JUMP JUMPDEST SWAP2 POP PUSH2 0x224A DUP3 PUSH2 0x2209 JUMP JUMPDEST PUSH1 0x20 DUP3 ADD SWAP1 POP SWAP2 SWAP1 POP JUMP JUMPDEST PUSH1 0x0 PUSH1 0x20 DUP3 ADD SWAP1 POP DUP2 DUP2 SUB PUSH1 0x0 DUP4 ADD MSTORE PUSH2 0x226E DUP2 PUSH2 0x2232 JUMP JUMPDEST SWAP1 POP SWAP2 SWAP1 POP JUMP JUMPDEST PUSH1 0x0 PUSH2 0x100 DUP3 ADD SWAP1 POP PUSH2 0x228B PUSH1 0x0 DUP4 ADD DUP12 PUSH2 0x1DF8 JUMP JUMPDEST PUSH2 0x2298 PUSH1 0x20 DUP4 ADD DUP11 PUSH2 0x1DF8 JUMP JUMPDEST PUSH2 0x22A5 PUSH1 0x40 DUP4 ADD DUP10 PUSH2 0x1DF8 JUMP JUMPDEST PUSH2 0x22B2 PUSH1 0x60 DUP4 ADD DUP9 PUSH2 0x1DF8 JUMP JUMPDEST PUSH2 0x22BF PUSH1 0x80 DUP4 ADD DUP8 PUSH2 0x19B5 JUMP JUMPDEST PUSH2 0x22CC PUSH1 0xA0 DUP4 ADD DUP7 PUSH2 0x19B5 JUMP JUMPDEST PUSH2 0x22D9 PUSH1 0xC0 DUP4 ADD DUP6 PUSH2 0x19B5 JUMP JUMPDEST PUSH2 0x22E6 PUSH1 0xE0 DUP4 ADD DUP5 PUSH2 0x19B5 JUMP JUMPDEST SWAP10 SWAP9 POP POP POP POP POP POP POP POP POP JUMP JUMPDEST PUSH32 0x4F776E61626C653A206E6577206F776E657220697320746865207A65726F2061 PUSH1 0x0 DUP3 ADD MSTORE PUSH32 0x6464726573730000000000000000000000000000000000000000000000000000 PUSH1 0x20 DUP3 ADD MSTORE POP JUMP JUMPDEST PUSH1 0x0 PUSH2 0x234F PUSH1 0x26 DUP4 PUSH2 0x1A7A JUMP JUMPDEST SWAP2 POP PUSH2 0x235A DUP3 PUSH2 0x22F3 JUMP JUMPDEST PUSH1 0x40 DUP3 ADD SWAP1 POP SWAP2 SWAP1 POP JUMP JUMPDEST PUSH1 0x0 PUSH1 0x20 DUP3 ADD SWAP1 POP DUP2 DUP2 SUB PUSH1 0x0 DUP4 ADD MSTORE PUSH2 0x237E DUP2 PUSH2 0x2342 JUMP JUMPDEST SWAP1 POP SWAP2 SWAP1 POP JUMP JUMPDEST PUSH32 0x4E487B7100000000000000000000000000000000000000000000000000000000 PUSH1 0x0 MSTORE PUSH1 0x11 PUSH1 0x4 MSTORE PUSH1 0x24 PUSH1 0x0 REVERT JUMPDEST PUSH1 0x0 PUSH2 0x23BF DUP3 PUSH2 0x19AB JUMP JUMPDEST SWAP2 POP PUSH2 0x23CA DUP4 PUSH2 0x19AB JUMP JUMPDEST SWAP3 POP DUP3 DUP3 MUL PUSH2 0x23D8 DUP2 PUSH2 0x19AB JUMP JUMPDEST SWAP2 POP DUP3 DUP3 DIV DUP5 EQ DUP4 ISZERO OR PUSH2 0x23EF JUMPI PUSH2 0x23EE PUSH2 0x2385 JUMP JUMPDEST JUMPDEST POP SWAP3 SWAP2 POP POP JUMP JUMPDEST PUSH32 0x4E487B7100000000000000000000000000000000000000000000000000000000 PUSH1 0x0 MSTORE PUSH1 0x12 PUSH1 0x4 MSTORE PUSH1 0x24 PUSH1 0x0 REVERT JUMPDEST PUSH1 0x0 PUSH2 0x2430 DUP3 PUSH2 0x19AB JUMP JUMPDEST SWAP2 POP PUSH2 0x243B DUP4 PUSH2 0x19AB JUMP JUMPDEST SWAP3 POP DUP3 PUSH2 0x244B JUMPI PUSH2 0x244A PUSH2 0x23F6 JUMP JUMPDEST JUMPDEST DUP3 DUP3 DIV SWAP1 POP SWAP3 SWAP2 POP POP JUMP JUMPDEST PUSH1 0x0 PUSH2 0x2461 DUP3 PUSH2 0x19AB JUMP JUMPDEST SWAP2 POP PUSH2 0x246C DUP4 PUSH2 0x19AB JUMP JUMPDEST SWAP3 POP DUP3 DUP3 SUB SWAP1 POP DUP2 DUP2 GT ISZERO PUSH2 0x2484 JUMPI PUSH2 0x2483 PUSH2 0x2385 JUMP JUMPDEST JUMPDEST SWAP3 SWAP2 POP POP JUMP INVALID LOG2 PUSH5 0x6970667358 0x22 SLT KECCAK256 PUSH17 0xA4576539D34C0DA72D4FEF54557AE2EE40 0xF8 RETURNDATACOPY PUSH9 0x5AD2595356C071947F RETURN ORIGIN PUSH5 0x736F6C6343 STOP ADDMOD SLT STOP CALLER "
				},
				"gasEstimates": {
					"creation": {
						"codeDepositCost": "1881600",
						"executionCost": "infinite",
						"totalCost": "infinite"
					},
					"external": {
						"MegaItemsNFT()": "infinite",
						"PERCENTS_DIVIDER()": "353",
						"SwapExactToken(address,uint256,address)": "infinite",
						"affPercent()": "2519",
						"deployedFee()": "2496",
						"deployedGame(address,address)": "infinite",
						"devPercent()": "2539",
						"devWallet()": "2625",
						"listGame(address)": "2868",
						"mktWallet()": "2558",
						"name()": "infinite",
						"order(address,uint256,uint256,address)": "infinite",
						"owner()": "2611",
						"renounceOwnership()": "30463",
						"setAffPercent(uint256)": "24827",
						"setDeployFee(uint256)": "24805",
						"setDevPercent(uint256)": "24805",
						"setDevWallet(address)": "27074",
						"setListGame(address,bool)": "27298",
						"setMktWallet(address)": "27008",
						"setNFTContract(address)": "27095",
						"setSytemFeePercent(uint256)": "24894",
						"setTopAddress(address)": "27028",
						"sytemFee()": "2518",
						"topAddress()": "2560",
						"transferOwnership(address)": "30808"
					}
				},
				"methodIdentifiers": {
					"MegaItemsNFT()": "6b9e619f",
					"PERCENTS_DIVIDER()": "01c234a8",
					"SwapExactToken(address,uint256,address)": "7196541b",
					"affPercent()": "15344276",
					"deployedFee()": "c78c45ff",
					"deployedGame(address,address)": "7ba45769",
					"devPercent()": "fc3c28af",
					"devWallet()": "8ea5220f",
					"listGame(address)": "785f2391",
					"mktWallet()": "e803cee0",
					"name()": "06fdde03",
					"order(address,uint256,uint256,address)": "52509d8e",
					"owner()": "8da5cb5b",
					"renounceOwnership()": "715018a6",
					"setAffPercent(uint256)": "8858906d",
					"setDeployFee(uint256)": "a9e52987",
					"setDevPercent(uint256)": "6eaddad2",
					"setDevWallet(address)": "1f53ac02",
					"setListGame(address,bool)": "6f0aa4a2",
					"setMktWallet(address)": "065e812b",
					"setNFTContract(address)": "a7ccabdf",
					"setSytemFeePercent(uint256)": "1ffe0f61",
					"setTopAddress(address)": "e9d8b181",
					"sytemFee()": "d3a0ab1b",
					"topAddress()": "23539224",
					"transferOwnership(address)": "f2fde38b"
				}
			},
			"storageLayout": {
				"storage": [
					{
						"astId": 1326,
						"contract": "MegaFactory.sol:MegaFactoryV1",
						"label": "_status",
						"offset": 0,
						"slot": "0",
						"type": "t_uint256"
					},
					{
						"astId": 1219,
						"contract": "MegaFactory.sol:MegaFactoryV1",
						"label": "_owner",
						"offset": 0,
						"slot": "1",
						"type": "t_address"
					},
					{
						"astId": 790,
						"contract": "MegaFactory.sol:MegaFactoryV1",
						"label": "_name",
						"offset": 0,
						"slot": "2",
						"type": "t_string_storage"
					},
					{
						"astId": 793,
						"contract": "MegaFactory.sol:MegaFactoryV1",
						"label": "MegaItemsNFT",
						"offset": 0,
						"slot": "3",
						"type": "t_contract(MegaItemsCore)570"
					},
					{
						"astId": 802,
						"contract": "MegaFactory.sol:MegaFactoryV1",
						"label": "devWallet",
						"offset": 0,
						"slot": "4",
						"type": "t_address_payable"
					},
					{
						"astId": 808,
						"contract": "MegaFactory.sol:MegaFactoryV1",
						"label": "mktWallet",
						"offset": 0,
						"slot": "5",
						"type": "t_address_payable"
					},
					{
						"astId": 814,
						"contract": "MegaFactory.sol:MegaFactoryV1",
						"label": "topAddress",
						"offset": 0,
						"slot": "6",
						"type": "t_address_payable"
					},
					{
						"astId": 817,
						"contract": "MegaFactory.sol:MegaFactoryV1",
						"label": "deployedFee",
						"offset": 0,
						"slot": "7",
						"type": "t_uint256"
					},
					{
						"astId": 820,
						"contract": "MegaFactory.sol:MegaFactoryV1",
						"label": "affPercent",
						"offset": 0,
						"slot": "8",
						"type": "t_uint256"
					},
					{
						"astId": 823,
						"contract": "MegaFactory.sol:MegaFactoryV1",
						"label": "devPercent",
						"offset": 0,
						"slot": "9",
						"type": "t_uint256"
					},
					{
						"astId": 826,
						"contract": "MegaFactory.sol:MegaFactoryV1",
						"label": "sytemFee",
						"offset": 0,
						"slot": "10",
						"type": "t_uint256"
					},
					{
						"astId": 830,
						"contract": "MegaFactory.sol:MegaFactoryV1",
						"label": "listGame",
						"offset": 0,
						"slot": "11",
						"type": "t_mapping(t_address,t_bool)"
					}
				],
				"types": {
					"t_address": {
						"encoding": "inplace",
						"label": "address",
						"numberOfBytes": "20"
					},
					"t_address_payable": {
						"encoding": "inplace",
						"label": "address payable",
						"numberOfBytes": "20"
					},
					"t_bool": {
						"encoding": "inplace",
						"label": "bool",
						"numberOfBytes": "1"
					},
					"t_contract(MegaItemsCore)570": {
						"encoding": "inplace",
						"label": "contract MegaItemsCore",
						"numberOfBytes": "20"
					},
					"t_mapping(t_address,t_bool)": {
						"encoding": "mapping",
						"key": "t_address",
						"label": "mapping(address => bool)",
						"numberOfBytes": "32",
						"value": "t_bool"
					},
					"t_string_storage": {
						"encoding": "bytes",
						"label": "string",
						"numberOfBytes": "32"
					},
					"t_uint256": {
						"encoding": "inplace",
						"label": "uint256",
						"numberOfBytes": "32"
					}
				}
			},
			"userdoc": {
				"kind": "user",
				"methods": {},
				"version": 1
			}
		}
	}
}