{
	"data": {
		"bytecode": {
			"linkReferences": {},
			"object": "60806040526040518060400160405280600f81526020017f4d656761204a61636b706f742056310000000000000000000000000000000000815250600290816200004a9190620003d9565b50600060045560006005553480156200006257600080fd5b5060016000819055506200008b6200007f6200009160201b60201c565b6200009960201b60201c565b620004c0565b600033905090565b6000600160009054906101000a900473ffffffffffffffffffffffffffffffffffffffff16905081600160006101000a81548173ffffffffffffffffffffffffffffffffffffffff021916908373ffffffffffffffffffffffffffffffffffffffff1602179055508173ffffffffffffffffffffffffffffffffffffffff168173ffffffffffffffffffffffffffffffffffffffff167f8be0079c531659141344cd1fd0a4f28419497f9722a3daafe3b4186f6b6457e060405160405180910390a35050565b600081519050919050565b7f4e487b7100000000000000000000000000000000000000000000000000000000600052604160045260246000fd5b7f4e487b7100000000000000000000000000000000000000000000000000000000600052602260045260246000fd5b60006002820490506001821680620001e157607f821691505b602082108103620001f757620001f662000199565b5b50919050565b60008190508160005260206000209050919050565b60006020601f8301049050919050565b600082821b905092915050565b600060088302620002617fffffffffffffffffffffffffffffffffffffffffffffffffffffffffffffffff8262000222565b6200026d868362000222565b95508019841693508086168417925050509392505050565b6000819050919050565b6000819050919050565b6000620002ba620002b4620002ae8462000285565b6200028f565b62000285565b9050919050565b6000819050919050565b620002d68362000299565b620002ee620002e582620002c1565b8484546200022f565b825550505050565b600090565b62000305620002f6565b62000312818484620002cb565b505050565b5b818110156200033a576200032e600082620002fb565b60018101905062000318565b5050565b601f82111562000389576200035381620001fd565b6200035e8462000212565b810160208510156200036e578190505b620003866200037d8562000212565b83018262000317565b50505b505050565b600082821c905092915050565b6000620003ae600019846008026200038e565b1980831691505092915050565b6000620003c983836200039b565b9150826002028217905092915050565b620003e4826200015f565b67ffffffffffffffff8111156200040057620003ff6200016a565b5b6200040c8254620001c8565b620004198282856200033e565b600060209050601f8311600181146200045157600084156200043c578287015190505b620004488582620003bb565b865550620004b8565b601f1984166200046186620001fd565b60005b828110156200048b5784890151825560018201915060208501945060208101905062000464565b86831015620004ab5784890151620004a7601f8916826200039b565b8355505b6001600288020188555050505b505050505050565b61369580620004d06000396000f3fe608060405234801561001057600080fd5b50600436106101165760003560e01c80638da5cb5b116100a2578063ab346b0a11610071578063ab346b0a146102d9578063affed0e0146102f5578063e7c1bf9f14610313578063f2fde38b14610331578063fc0c546a1461034d57610116565b80638da5cb5b14610236578063a6f8166814610254578063a85c38ef1461028b578063aab0a510146102bd57610116565b80632f8dc9a0116100e95780632f8dc9a01461018f578063325e8744146101ad5780637036992a146101cb578063715018a6146101fc57806375af2dd91461020657610116565b806301c234a81461011b57806306fdde0314610139578063144fa6d7146101575780632240b81a14610173575b600080fd5b61012361036b565b6040516101309190611fe1565b60405180910390f35b610141610371565b60405161014e919061208c565b60405180910390f35b610171600480360381019061016c9190612120565b610403565b005b61018d60048036038101906101889190612179565b6104d8565b005b610197611101565b6040516101a49190612252565b60405180910390f35b6101b5611127565b6040516101c29190611fe1565b60405180910390f35b6101e560048036038101906101e0919061226d565b61112f565b6040516101f39291906122ad565b60405180910390f35b610204611160565b005b610220600480360381019061021b919061226d565b6111e8565b60405161022d9190611fe1565b60405180910390f35b61023e61120d565b60405161024b9190612252565b60405180910390f35b61026e600480360381019061026991906122d6565b611237565b604051610282989796959493929190612303565b60405180910390f35b6102a560048036038101906102a091906122d6565b611307565b6040516102b4939291906123a3565b60405180910390f35b6102d760048036038101906102d291906125d7565b61133e565b005b6102f360048036038101906102ee9190612120565b611ae4565b005b6102fd611bb9565b60405161030a9190611fe1565b60405180910390f35b61031b611bbf565b6040516103289190611fe1565b60405180910390f35b61034b60048036038101906103469190612120565b611bc5565b005b610355611cbc565b6040516103629190612740565b60405180910390f35b6103e881565b6060600280546103809061278a565b80601f01602080910402602001604051908101604052809291908181526020018280546103ac9061278a565b80156103f95780601f106103ce576101008083540402835291602001916103f9565b820191906000526020600020905b8154815290600101906020018083116103dc57829003601f168201915b5050505050905090565b600073ffffffffffffffffffffffffffffffffffffffff16600360009054906101000a900473ffffffffffffffffffffffffffffffffffffffff1673ffffffffffffffffffffffffffffffffffffffff1614610494576040517f08c379a000000000000000000000000000000000000000000000000000000000815260040161048b90612807565b60405180910390fd5b80600360006101000a81548173ffffffffffffffffffffffffffffffffffffffff021916908373ffffffffffffffffffffffffffffffffffffffff16021790555050565b60026000540361051d576040517f08c379a000000000000000000000000000000000000000000000000000000000815260040161051490612873565b60405180910390fd5b6002600081905550600a821115610569576040517f08c379a0000000000000000000000000000000000000000000000000000000008152600401610560906128df565b60405180910390fd5b60006007600086815260200190815260200160002060000154116105c2576040517f08c379a00000000000000000000000000000000000000000000000000000000081526004016105b99061294b565b60405180910390fd5b60008260076000878152602001908152602001600020600001546105e6919061299a565b90506000600360009054906101000a900473ffffffffffffffffffffffffffffffffffffffff1673ffffffffffffffffffffffffffffffffffffffff166370a08231306040518263ffffffff1660e01b81526004016106459190612252565b602060405180830381865afa158015610662573d6000803e3d6000fd5b505050506040513d601f19601f8201168201806040525081019061068691906129f1565b905081600360009054906101000a900473ffffffffffffffffffffffffffffffffffffffff1673ffffffffffffffffffffffffffffffffffffffff166370a08231856040518263ffffffff1660e01b81526004016106e49190612252565b602060405180830381865afa158015610701573d6000803e3d6000fd5b505050506040513d601f19601f8201168201806040525081019061072591906129f1565b1015610766576040517f08c379a000000000000000000000000000000000000000000000000000000000815260040161075d90612a90565b60405180910390fd5b600360009054906101000a900473ffffffffffffffffffffffffffffffffffffffff1673ffffffffffffffffffffffffffffffffffffffff166323b872dd8430856040518463ffffffff1660e01b81526004016107c593929190612ab0565b6020604051808303816000875af11580156107e4573d6000803e3d6000fd5b505050506040513d601f19601f820116820180604052508101906108089190612b13565b506000600360009054906101000a900473ffffffffffffffffffffffffffffffffffffffff1673ffffffffffffffffffffffffffffffffffffffff166370a08231306040518263ffffffff1660e01b81526004016108669190612252565b602060405180830381865afa158015610883573d6000803e3d6000fd5b505050506040513d601f19601f820116820180604052508101906108a791906129f1565b9050600082826108b79190612b40565b905060008d8d6103e88f886108cc919061299a565b6108d69190612ba3565b6108e0919061299a565b6108ea9190612ba3565b9050600360009054906101000a900473ffffffffffffffffffffffffffffffffffffffff1673ffffffffffffffffffffffffffffffffffffffff1663a9059cbb8c836040518363ffffffff1660e01b8152600401610949929190612bd4565b6020604051808303816000875af1158015610968573d6000803e3d6000fd5b505050506040513d601f19601f8201168201806040525081019061098c9190612b13565b506000816103e88f8861099f919061299a565b6109a99190612ba3565b6109b39190612b40565b9050600360009054906101000a900473ffffffffffffffffffffffffffffffffffffffff1673ffffffffffffffffffffffffffffffffffffffff1663a9059cbb8c836040518363ffffffff1660e01b8152600401610a12929190612bd4565b6020604051808303816000875af1158015610a31573d6000803e3d6000fd5b505050506040513d601f19601f82011682018060405250810190610a559190612b13565b5060006103e8600760008d81526020019081526020016000206004015488610a7d919061299a565b610a879190612ba3565b9050600360009054906101000a900473ffffffffffffffffffffffffffffffffffffffff1673ffffffffffffffffffffffffffffffffffffffff1663a9059cbb8f836040518363ffffffff1660e01b8152600401610ae6929190612bd4565b6020604051808303816000875af1158015610b05573d6000803e3d6000fd5b505050506040513d601f19601f82011682018060405250810190610b299190612b13565b5060006103e8600760008e81526020019081526020016000206003015489610b51919061299a565b610b5b9190612ba3565b9050600360009054906101000a900473ffffffffffffffffffffffffffffffffffffffff1673ffffffffffffffffffffffffffffffffffffffff1663a9059cbb600660009054906101000a900473ffffffffffffffffffffffffffffffffffffffff16836040518363ffffffff1660e01b8152600401610bdc929190612bd4565b6020604051808303816000875af1158015610bfb573d6000803e3d6000fd5b505050506040513d601f19601f82011682018060405250810190610c1f9190612b13565b5089600760008e81526020019081526020016000206007016000828254610c469190612bfd565b9250508190555060008060008e905060008e905060005b8e811015610d1e57600080610c73838587611ce2565b915091508187610c839190612bfd565b96508015610d095781955060008390505b6000811115610cd857600a60008681526020019081526020016000206000828152602001908152602001600020600090558080610cd090612c31565b915050610c94565b5085600a60008681526020019081526020016000206000808152602001908152602001600020819055505050610d1e565b50508080610d1690612c5a565b915050610c5d565b50600083116009600083815260200190815260200160002060000160006101000a81548160ff0219169083151502179055508d60096000838152602001908152602001600020600101819055508060096000838152602001908152602001600020600201819055506000831115610f0c5760006064600a85610da0919061299a565b610daa9190612ba3565b9050600060076000858152602001908152602001600020600101549050818111610e375786888a8c8e85610dde9190612bfd565b610de89190612b40565b610df29190612b40565b610dfc9190612b40565b610e069190612b40565b600860008681526020019081526020016000206000600b815260200190815260200160002060000181905550610e9c565b86888a8c8e86610e479190612bfd565b610e519190612b40565b610e5b9190612b40565b610e659190612b40565b610e6f9190612b40565b600860008681526020019081526020016000206000600b8152602001908152602001600020600001819055505b8185610ea89190612b40565b95506001600760008681526020019081526020016000206005016000828254610ed19190612bfd565b9250508190555085600760008681526020019081526020016000206006016000828254610efe9190612bfd565b925050819055505050610fd1565b83600760008481526020019081526020016000206006016000828254610f329190612bfd565b925050819055508486888a878d600860008981526020019081526020016000206000600b815260200190815260200160002060000154610f729190612bfd565b610f7c9190612b40565b610f869190612b40565b610f909190612b40565b610f9a9190612b40565b610fa49190612b40565b600860008481526020019081526020016000206000600b8152602001908152602001600020600001819055505b600084111561107c57600360009054906101000a900473ffffffffffffffffffffffffffffffffffffffff1673ffffffffffffffffffffffffffffffffffffffff1663a9059cbb8e866040518363ffffffff1660e01b8152600401611037929190612bd4565b6020604051808303816000875af1158015611056573d6000803e3d6000fd5b505050506040513d601f19601f8201168201806040525081019061107a9190612b13565b505b7f6a3f36c72d006bc18c991a32d6125245bdac6838f401790ed41516b495455672848f6009600085815260200190815260200160002060000160009054906101000a900460ff168b8b8b8b6040516110da9796959493929190612ca2565b60405180910390a15050505050505050505050506001600081905550505050505050505050565b600660009054906101000a900473ffffffffffffffffffffffffffffffffffffffff1681565b633b9aca0081565b6008602052816000526040600020602052806000526040600020600091509150508060000154908060010154905082565b611168611e1a565b73ffffffffffffffffffffffffffffffffffffffff1661118661120d565b73ffffffffffffffffffffffffffffffffffffffff16146111dc576040517f08c379a00000000000000000000000000000000000000000000000000000000081526004016111d390612d5d565b60405180910390fd5b6111e66000611e22565b565b600a602052816000526040600020602052806000526040600020600091509150505481565b6000600160009054906101000a900473ffffffffffffffffffffffffffffffffffffffff16905090565b60076020528060005260406000206000915090508060000154908060010154908060020180546112669061278a565b80601f01602080910402602001604051908101604052809291908181526020018280546112929061278a565b80156112df5780601f106112b4576101008083540402835291602001916112df565b820191906000526020600020905b8154815290600101906020018083116112c257829003601f168201915b5050505050908060030154908060040154908060050154908060060154908060070154905088565b60096020528060005260406000206000915090508060000160009054906101000a900460ff16908060010154908060020154905083565b600660009054906101000a900473ffffffffffffffffffffffffffffffffffffffff1673ffffffffffffffffffffffffffffffffffffffff1661137f611e1a565b73ffffffffffffffffffffffffffffffffffffffff16146113d5576040517f08c379a00000000000000000000000000000000000000000000000000000000081526004016113cc90612dc9565b60405180910390fd5b60008711611418576040517f08c379a000000000000000000000000000000000000000000000000000000000815260040161140f90612e35565b60405180910390fd5b6000861161145b576040517f08c379a000000000000000000000000000000000000000000000000000000000815260040161145290612e35565b60405180910390fd5b606485111561149f576040517f08c379a000000000000000000000000000000000000000000000000000000000815260040161149690612ea1565b60405180910390fd5b60648411156114e3576040517f08c379a00000000000000000000000000000000000000000000000000000000081526004016114da90612f0d565b60405180910390fd5b600b82511480156114f55750600b8151145b611534576040517f08c379a000000000000000000000000000000000000000000000000000000000815260040161152b90612f79565b60405180910390fd5b6001600460008282546115479190612bfd565b92505081905550866007600060045481526020019081526020016000206000018190555085600760006004548152602001908152602001600020600101819055508760076000600454815260200190815260200160002060020190816115ad919061313b565b50836007600060045481526020019081526020016000206003018190555084600760006004548152602001908152602001600020600401819055506000805b600b8110156116cb578381815181106116085761160761320d565b5b60200260200101516008600060045481526020019081526020016000206000838152602001908152602001600020600001819055508281815181106116505761164f61320d565b5b6020026020010151826116639190612bfd565b6008600060045481526020019081526020016000206000838152602001908152602001600020600101819055508281815181106116a3576116a261320d565b5b6020026020010151826116b69190612bfd565b915080806116c390612c5a565b9150506115ec565b506000600360009054906101000a900473ffffffffffffffffffffffffffffffffffffffff1673ffffffffffffffffffffffffffffffffffffffff166370a08231306040518263ffffffff1660e01b81526004016117299190612252565b602060405180830381865afa158015611746573d6000803e3d6000fd5b505050506040513d601f19601f8201168201806040525081019061176a91906129f1565b905087600360009054906101000a900473ffffffffffffffffffffffffffffffffffffffff1673ffffffffffffffffffffffffffffffffffffffff166370a08231600660009054906101000a900473ffffffffffffffffffffffffffffffffffffffff166040518263ffffffff1660e01b81526004016117ea9190612252565b602060405180830381865afa158015611807573d6000803e3d6000fd5b505050506040513d601f19601f8201168201806040525081019061182b91906129f1565b101561186c576040517f08c379a000000000000000000000000000000000000000000000000000000000815260040161186390612a90565b60405180910390fd5b600360009054906101000a900473ffffffffffffffffffffffffffffffffffffffff1673ffffffffffffffffffffffffffffffffffffffff166323b872dd600660009054906101000a900473ffffffffffffffffffffffffffffffffffffffff16308b6040518463ffffffff1660e01b81526004016118ed93929190612ab0565b6020604051808303816000875af115801561190c573d6000803e3d6000fd5b505050506040513d601f19601f820116820180604052508101906119309190612b13565b506000600360009054906101000a900473ffffffffffffffffffffffffffffffffffffffff1673ffffffffffffffffffffffffffffffffffffffff166370a08231306040518263ffffffff1660e01b815260040161198e9190612252565b602060405180830381865afa1580156119ab573d6000803e3d6000fd5b505050506040513d601f19601f820116820180604052508101906119cf91906129f1565b905085836119dd9190612bfd565b9250633b9aca008314611a25576040517f08c379a0000000000000000000000000000000000000000000000000000000008152600401611a1c90613288565b60405180910390fd5b856008600060045481526020019081526020016000206000600b8152602001908152602001600020600101819055508181611a609190612b40565b6008600060045481526020019081526020016000206000600b8152602001908152602001600020600001819055507fda5f1c502bf1ebb6b912cfab45836dc0db0102b387e4acb76c3204ee59d28a0f8b8b8b8b8b8b8b8b600454604051611acf999897969594939291906133b2565b60405180910390a15050505050505050505050565b600073ffffffffffffffffffffffffffffffffffffffff16600660009054906101000a900473ffffffffffffffffffffffffffffffffffffffff1673ffffffffffffffffffffffffffffffffffffffff1614611b75576040517f08c379a0000000000000000000000000000000000000000000000000000000008152600401611b6c906134b4565b60405180910390fd5b80600660006101000a81548173ffffffffffffffffffffffffffffffffffffffff021916908373ffffffffffffffffffffffffffffffffffffffff16021790555050565b60055481565b60045481565b611bcd611e1a565b73ffffffffffffffffffffffffffffffffffffffff16611beb61120d565b73ffffffffffffffffffffffffffffffffffffffff1614611c41576040517f08c379a0000000000000000000000000000000000000000000000000000000008152600401611c3890612d5d565b60405180910390fd5b600073ffffffffffffffffffffffffffffffffffffffff168173ffffffffffffffffffffffffffffffffffffffff1603611cb0576040517f08c379a0000000000000000000000000000000000000000000000000000000008152600401611ca790613546565b60405180910390fd5b611cb981611e22565b50565b600360009054906101000a900473ffffffffffffffffffffffffffffffffffffffff1681565b6000806000611cfc600c43611cf79190613566565b611ee8565b90506000915060005b600c811015611e1057600060086000878152602001908152602001600020600083815260200190815260200160002060010154118015611d6c5750600860008681526020019081526020016000206000828152602001908152602001600020600101548211155b15611dfd5760086000868152602001908152602001600020600082815260200190815260200160002060000154600a6000888152602001908152602001600020600089815260200190815260200160002081905550600860008681526020019081526020016000206000828152602001908152602001600020600001549350600b8103611df857600192505b611e10565b8080611e0890612c5a565b915050611d05565b5050935093915050565b600033905090565b6000600160009054906101000a900473ffffffffffffffffffffffffffffffffffffffff16905081600160006101000a81548173ffffffffffffffffffffffffffffffffffffffff021916908373ffffffffffffffffffffffffffffffffffffffff1602179055508173ffffffffffffffffffffffffffffffffffffffff168173ffffffffffffffffffffffffffffffffffffffff167f8be0079c531659141344cd1fd0a4f28419497f9722a3daafe3b4186f6b6457e060405160405180910390a35050565b6000600160056000828254611efd9190612bfd565b92505081905550633b9aca00600554611f2c84600554611f1d9190612bfd565b43611fb290919063ffffffff16565b611f4c85600554611f3d9190612bfd565b42611fb290919063ffffffff16565b611f6c86600554611f5d9190612bfd565b44611fb290919063ffffffff16565b611f74611e1a565b604051602001611f88959493929190613600565b6040516020818303038152906040528051906020012060001c611fab9190613566565b9050919050565b60008183611fc09190612bfd565b905092915050565b6000819050919050565b611fdb81611fc8565b82525050565b6000602082019050611ff66000830184611fd2565b92915050565b600081519050919050565b600082825260208201905092915050565b60005b8381101561203657808201518184015260208101905061201b565b60008484015250505050565b6000601f19601f8301169050919050565b600061205e82611ffc565b6120688185612007565b9350612078818560208601612018565b61208181612042565b840191505092915050565b600060208201905081810360008301526120a68184612053565b905092915050565b6000604051905090565b600080fd5b600080fd5b600073ffffffffffffffffffffffffffffffffffffffff82169050919050565b60006120ed826120c2565b9050919050565b6120fd816120e2565b811461210857600080fd5b50565b60008135905061211a816120f4565b92915050565b600060208284031215612136576121356120b8565b5b60006121448482850161210b565b91505092915050565b61215681611fc8565b811461216157600080fd5b50565b6000813590506121738161214d565b92915050565b60008060008060008060008060006101208a8c03121561219c5761219b6120b8565b5b60006121aa8c828d01612164565b99505060206121bb8c828d01612164565b98505060406121cc8c828d0161210b565b97505060606121dd8c828d0161210b565b96505060806121ee8c828d0161210b565b95505060a06121ff8c828d01612164565b94505060c06122108c828d01612164565b93505060e06122218c828d01612164565b9250506101006122338c828d0161210b565b9150509295985092959850929598565b61224c816120e2565b82525050565b60006020820190506122676000830184612243565b92915050565b60008060408385031215612284576122836120b8565b5b600061229285828601612164565b92505060206122a385828601612164565b9150509250929050565b60006040820190506122c26000830185611fd2565b6122cf6020830184611fd2565b9392505050565b6000602082840312156122ec576122eb6120b8565b5b60006122fa84828501612164565b91505092915050565b600061010082019050612319600083018b611fd2565b612326602083018a611fd2565b81810360408301526123388189612053565b90506123476060830188611fd2565b6123546080830187611fd2565b61236160a0830186611fd2565b61236e60c0830185611fd2565b61237b60e0830184611fd2565b9998505050505050505050565b60008115159050919050565b61239d81612388565b82525050565b60006060820190506123b86000830186612394565b6123c56020830185611fd2565b6123d26040830184611fd2565b949350505050565b600080fd5b600080fd5b7f4e487b7100000000000000000000000000000000000000000000000000000000600052604160045260246000fd5b61241c82612042565b810181811067ffffffffffffffff8211171561243b5761243a6123e4565b5b80604052505050565b600061244e6120ae565b905061245a8282612413565b919050565b600067ffffffffffffffff82111561247a576124796123e4565b5b61248382612042565b9050602081019050919050565b82818337600083830152505050565b60006124b26124ad8461245f565b612444565b9050828152602081018484840111156124ce576124cd6123df565b5b6124d9848285612490565b509392505050565b600082601f8301126124f6576124f56123da565b5b813561250684826020860161249f565b91505092915050565b600067ffffffffffffffff82111561252a576125296123e4565b5b602082029050602081019050919050565b600080fd5b600061255361254e8461250f565b612444565b905080838252602082019050602084028301858111156125765761257561253b565b5b835b8181101561259f578061258b8882612164565b845260208401935050602081019050612578565b5050509392505050565b600082601f8301126125be576125bd6123da565b5b81356125ce848260208601612540565b91505092915050565b600080600080600080600080610100898b0312156125f8576125f76120b8565b5b600089013567ffffffffffffffff811115612616576126156120bd565b5b6126228b828c016124e1565b98505060206126338b828c01612164565b97505060406126448b828c01612164565b96505060606126558b828c01612164565b95505060806126668b828c01612164565b94505060a06126778b828c01612164565b93505060c089013567ffffffffffffffff811115612698576126976120bd565b5b6126a48b828c016125a9565b92505060e089013567ffffffffffffffff8111156126c5576126c46120bd565b5b6126d18b828c016125a9565b9150509295985092959890939650565b6000819050919050565b60006127066127016126fc846120c2565b6126e1565b6120c2565b9050919050565b6000612718826126eb565b9050919050565b600061272a8261270d565b9050919050565b61273a8161271f565b82525050565b60006020820190506127556000830184612731565b92915050565b7f4e487b7100000000000000000000000000000000000000000000000000000000600052602260045260246000fd5b600060028204905060018216806127a257607f821691505b6020821081036127b5576127b461275b565b5b50919050565b7f6e6f742073657420746f6b656e00000000000000000000000000000000000000600082015250565b60006127f1600d83612007565b91506127fc826127bb565b602082019050919050565b60006020820190508181036000830152612820816127e4565b9050919050565b7f5265656e7472616e637947756172643a207265656e7472616e742063616c6c00600082015250565b600061285d601f83612007565b915061286882612827565b602082019050919050565b6000602082019050818103600083015261288c81612850565b9050919050565b7f5265717569726520717479203c3d203130000000000000000000000000000000600082015250565b60006128c9601183612007565b91506128d482612893565b602082019050919050565b600060208201905081810360008301526128f8816128bc565b9050919050565b7f47616d65206e6f7420666f756e64000000000000000000000000000000000000600082015250565b6000612935600e83612007565b9150612940826128ff565b602082019050919050565b6000602082019050818103600083015261296481612928565b9050919050565b7f4e487b7100000000000000000000000000000000000000000000000000000000600052601160045260246000fd5b60006129a582611fc8565b91506129b083611fc8565b92508282026129be81611fc8565b915082820484148315176129d5576129d461296b565b5b5092915050565b6000815190506129eb8161214d565b92915050565b600060208284031215612a0757612a066120b8565b5b6000612a15848285016129dc565b91505092915050565b7f496e73756666696369656e742066756e647320696e20746865206163636f756e60008201527f7400000000000000000000000000000000000000000000000000000000000000602082015250565b6000612a7a602183612007565b9150612a8582612a1e565b604082019050919050565b60006020820190508181036000830152612aa981612a6d565b9050919050565b6000606082019050612ac56000830186612243565b612ad26020830185612243565b612adf6040830184611fd2565b949350505050565b612af081612388565b8114612afb57600080fd5b50565b600081519050612b0d81612ae7565b92915050565b600060208284031215612b2957612b286120b8565b5b6000612b3784828501612afe565b91505092915050565b6000612b4b82611fc8565b9150612b5683611fc8565b9250828203905081811115612b6e57612b6d61296b565b5b92915050565b7f4e487b7100000000000000000000000000000000000000000000000000000000600052601260045260246000fd5b6000612bae82611fc8565b9150612bb983611fc8565b925082612bc957612bc8612b74565b5b828204905092915050565b6000604082019050612be96000830185612243565b612bf66020830184611fd2565b9392505050565b6000612c0882611fc8565b9150612c1383611fc8565b9250828201905080821115612c2b57612c2a61296b565b5b92915050565b6000612c3c82611fc8565b915060008203612c4f57612c4e61296b565b5b600182039050919050565b6000612c6582611fc8565b91507fffffffffffffffffffffffffffffffffffffffffffffffffffffffffffffffff8203612c9757612c9661296b565b5b600182019050919050565b600060e082019050612cb7600083018a611fd2565b612cc46020830189611fd2565b612cd16040830188612394565b612cde6060830187611fd2565b612ceb6080830186611fd2565b612cf860a0830185611fd2565b612d0560c0830184611fd2565b98975050505050505050565b7f4f776e61626c653a2063616c6c6572206973206e6f7420746865206f776e6572600082015250565b6000612d47602083612007565b9150612d5282612d11565b602082019050919050565b60006020820190508181036000830152612d7681612d3a565b9050919050565b7f6e6f742070726f6a656374206f776e6572206372656174652067616d65000000600082015250565b6000612db3601d83612007565b9150612dbe82612d7d565b602082019050919050565b60006020820190508181036000830152612de281612da6565b9050919050565b7f7072696365206973207a65726f00000000000000000000000000000000000000600082015250565b6000612e1f600d83612007565b9150612e2a82612de9565b602082019050919050565b60006020820190508181036000830152612e4e81612e12565b9050919050565b7f616666696c696174652070657263656e74203c20313025000000000000000000600082015250565b6000612e8b601783612007565b9150612e9682612e55565b602082019050919050565b60006020820190508181036000830152612eba81612e7e565b9050919050565b7f6f776e65722070657263656e74203c2031302500000000000000000000000000600082015250565b6000612ef7601383612007565b9150612f0282612ec1565b602082019050919050565b60006020820190508181036000830152612f2681612eea565b9050919050565b7f76616c756520616e642070657263656e74206973206e6f742076616c69640000600082015250565b6000612f63601e83612007565b9150612f6e82612f2d565b602082019050919050565b60006020820190508181036000830152612f9281612f56565b9050919050565b60008190508160005260206000209050919050565b60006020601f8301049050919050565b600082821b905092915050565b600060088302612ffb7fffffffffffffffffffffffffffffffffffffffffffffffffffffffffffffffff82612fbe565b6130058683612fbe565b95508019841693508086168417925050509392505050565b600061303861303361302e84611fc8565b6126e1565b611fc8565b9050919050565b6000819050919050565b6130528361301d565b61306661305e8261303f565b848454612fcb565b825550505050565b600090565b61307b61306e565b613086818484613049565b505050565b5b818110156130aa5761309f600082613073565b60018101905061308c565b5050565b601f8211156130ef576130c081612f99565b6130c984612fae565b810160208510156130d8578190505b6130ec6130e485612fae565b83018261308b565b50505b505050565b600082821c905092915050565b6000613112600019846008026130f4565b1980831691505092915050565b600061312b8383613101565b9150826002028217905092915050565b61314482611ffc565b67ffffffffffffffff81111561315d5761315c6123e4565b5b613167825461278a565b6131728282856130ae565b600060209050601f8311600181146131a55760008415613193578287015190505b61319d858261311f565b865550613205565b601f1984166131b386612f99565b60005b828110156131db578489015182556001820191506020850194506020810190506131b6565b868310156131f857848901516131f4601f891682613101565b8355505b6001600288020188555050505b505050505050565b7f4e487b7100000000000000000000000000000000000000000000000000000000600052603260045260246000fd5b7f746f74616c2070657263656e74207072697a65206973206e6f742076616c6964600082015250565b6000613272602083612007565b915061327d8261323c565b602082019050919050565b600060208201905081810360008301526132a181613265565b9050919050565b600081519050919050565b600082825260208201905092915050565b6000819050602082019050919050565b6132dd81611fc8565b82525050565b60006132ef83836132d4565b60208301905092915050565b6000602082019050919050565b6000613313826132a8565b61331d81856132b3565b9350613328836132c4565b8060005b8381101561335957815161334088826132e3565b975061334b836132fb565b92505060018101905061332c565b5085935050505092915050565b7f4d6567615f4a61636b706f745f56310000000000000000000000000000000000600082015250565b600061339c600f83612007565b91506133a782613366565b602082019050919050565b60006101408201905081810360008301526133cd818c612053565b90506133dc602083018b611fd2565b6133e9604083018a611fd2565b6133f66060830189611fd2565b6134036080830188611fd2565b61341060a0830187611fd2565b81810360c08301526134228186613308565b905081810360e08301526134368185613308565b9050613446610100830184611fd2565b8181036101208301526134588161338f565b90509a9950505050505050505050565b7f6e6f7420736574206f776e657257616c6c657400000000000000000000000000600082015250565b600061349e601383612007565b91506134a982613468565b602082019050919050565b600060208201905081810360008301526134cd81613491565b9050919050565b7f4f776e61626c653a206e6577206f776e657220697320746865207a65726f206160008201527f6464726573730000000000000000000000000000000000000000000000000000602082015250565b6000613530602683612007565b915061353b826134d4565b604082019050919050565b6000602082019050818103600083015261355f81613523565b9050919050565b600061357182611fc8565b915061357c83611fc8565b92508261358c5761358b612b74565b5b828206905092915050565b6000819050919050565b6135b26135ad82611fc8565b613597565b82525050565b60008160601b9050919050565b60006135d0826135b8565b9050919050565b60006135e2826135c5565b9050919050565b6135fa6135f5826120e2565b6135d7565b82525050565b600061360c82886135a1565b60208201915061361c82876135a1565b60208201915061362c82866135a1565b60208201915061363c82856135a1565b60208201915061364c82846135e9565b601482019150819050969550505050505056fea2646970667358221220b63e4221dab2f68a3fef32acc66219d5cdd77b669f5fe2a31960b21826fd71a164736f6c63430008120033",
			"opcodes": "PUSH1 0x80 PUSH1 0x40 MSTORE PUSH1 0x40 MLOAD DUP1 PUSH1 0x40 ADD PUSH1 0x40 MSTORE DUP1 PUSH1 0xF DUP2 MSTORE PUSH1 0x20 ADD PUSH32 0x4D656761204A61636B706F742056310000000000000000000000000000000000 DUP2 MSTORE POP PUSH1 0x2 SWAP1 DUP2 PUSH3 0x4A SWAP2 SWAP1 PUSH3 0x3D9 JUMP JUMPDEST POP PUSH1 0x0 PUSH1 0x4 SSTORE PUSH1 0x0 PUSH1 0x5 SSTORE CALLVALUE DUP1 ISZERO PUSH3 0x62 JUMPI PUSH1 0x0 DUP1 REVERT JUMPDEST POP PUSH1 0x1 PUSH1 0x0 DUP2 SWAP1 SSTORE POP PUSH3 0x8B PUSH3 0x7F PUSH3 0x91 PUSH1 0x20 SHL PUSH1 0x20 SHR JUMP JUMPDEST PUSH3 0x99 PUSH1 0x20 SHL PUSH1 0x20 SHR JUMP JUMPDEST PUSH3 0x4C0 JUMP JUMPDEST PUSH1 0x0 CALLER SWAP1 POP SWAP1 JUMP JUMPDEST PUSH1 0x0 PUSH1 0x1 PUSH1 0x0 SWAP1 SLOAD SWAP1 PUSH2 0x100 EXP SWAP1 DIV PUSH20 0xFFFFFFFFFFFFFFFFFFFFFFFFFFFFFFFFFFFFFFFF AND SWAP1 POP DUP2 PUSH1 0x1 PUSH1 0x0 PUSH2 0x100 EXP DUP2 SLOAD DUP2 PUSH20 0xFFFFFFFFFFFFFFFFFFFFFFFFFFFFFFFFFFFFFFFF MUL NOT AND SWAP1 DUP4 PUSH20 0xFFFFFFFFFFFFFFFFFFFFFFFFFFFFFFFFFFFFFFFF AND MUL OR SWAP1 SSTORE POP DUP2 PUSH20 0xFFFFFFFFFFFFFFFFFFFFFFFFFFFFFFFFFFFFFFFF AND DUP2 PUSH20 0xFFFFFFFFFFFFFFFFFFFFFFFFFFFFFFFFFFFFFFFF AND PUSH32 0x8BE0079C531659141344CD1FD0A4F28419497F9722A3DAAFE3B4186F6B6457E0 PUSH1 0x40 MLOAD PUSH1 0x40 MLOAD DUP1 SWAP2 SUB SWAP1 LOG3 POP POP JUMP JUMPDEST PUSH1 0x0 DUP2 MLOAD SWAP1 POP SWAP2 SWAP1 POP JUMP JUMPDEST PUSH32 0x4E487B7100000000000000000000000000000000000000000000000000000000 PUSH1 0x0 MSTORE PUSH1 0x41 PUSH1 0x4 MSTORE PUSH1 0x24 PUSH1 0x0 REVERT JUMPDEST PUSH32 0x4E487B7100000000000000000000000000000000000000000000000000000000 PUSH1 0x0 MSTORE PUSH1 0x22 PUSH1 0x4 MSTORE PUSH1 0x24 PUSH1 0x0 REVERT JUMPDEST PUSH1 0x0 PUSH1 0x2 DUP3 DIV SWAP1 POP PUSH1 0x1 DUP3 AND DUP1 PUSH3 0x1E1 JUMPI PUSH1 0x7F DUP3 AND SWAP2 POP JUMPDEST PUSH1 0x20 DUP3 LT DUP2 SUB PUSH3 0x1F7 JUMPI PUSH3 0x1F6 PUSH3 0x199 JUMP JUMPDEST JUMPDEST POP SWAP2 SWAP1 POP JUMP JUMPDEST PUSH1 0x0 DUP2 SWAP1 POP DUP2 PUSH1 0x0 MSTORE PUSH1 0x20 PUSH1 0x0 KECCAK256 SWAP1 POP SWAP2 SWAP1 POP JUMP JUMPDEST PUSH1 0x0 PUSH1 0x20 PUSH1 0x1F DUP4 ADD DIV SWAP1 POP SWAP2 SWAP1 POP JUMP JUMPDEST PUSH1 0x0 DUP3 DUP3 SHL SWAP1 POP SWAP3 SWAP2 POP POP JUMP JUMPDEST PUSH1 0x0 PUSH1 0x8 DUP4 MUL PUSH3 0x261 PUSH32 0xFFFFFFFFFFFFFFFFFFFFFFFFFFFFFFFFFFFFFFFFFFFFFFFFFFFFFFFFFFFFFFFF DUP3 PUSH3 0x222 JUMP JUMPDEST PUSH3 0x26D DUP7 DUP4 PUSH3 0x222 JUMP JUMPDEST SWAP6 POP DUP1 NOT DUP5 AND SWAP4 POP DUP1 DUP7 AND DUP5 OR SWAP3 POP POP POP SWAP4 SWAP3 POP POP POP JUMP JUMPDEST PUSH1 0x0 DUP2 SWAP1 POP SWAP2 SWAP1 POP JUMP JUMPDEST PUSH1 0x0 DUP2 SWAP1 POP SWAP2 SWAP1 POP JUMP JUMPDEST PUSH1 0x0 PUSH3 0x2BA PUSH3 0x2B4 PUSH3 0x2AE DUP5 PUSH3 0x285 JUMP JUMPDEST PUSH3 0x28F JUMP JUMPDEST PUSH3 0x285 JUMP JUMPDEST SWAP1 POP SWAP2 SWAP1 POP JUMP JUMPDEST PUSH1 0x0 DUP2 SWAP1 POP SWAP2 SWAP1 POP JUMP JUMPDEST PUSH3 0x2D6 DUP4 PUSH3 0x299 JUMP JUMPDEST PUSH3 0x2EE PUSH3 0x2E5 DUP3 PUSH3 0x2C1 JUMP JUMPDEST DUP5 DUP5 SLOAD PUSH3 0x22F JUMP JUMPDEST DUP3 SSTORE POP POP POP POP JUMP JUMPDEST PUSH1 0x0 SWAP1 JUMP JUMPDEST PUSH3 0x305 PUSH3 0x2F6 JUMP JUMPDEST PUSH3 0x312 DUP2 DUP5 DUP5 PUSH3 0x2CB JUMP JUMPDEST POP POP POP JUMP JUMPDEST JUMPDEST DUP2 DUP2 LT ISZERO PUSH3 0x33A JUMPI PUSH3 0x32E PUSH1 0x0 DUP3 PUSH3 0x2FB JUMP JUMPDEST PUSH1 0x1 DUP2 ADD SWAP1 POP PUSH3 0x318 JUMP JUMPDEST POP POP JUMP JUMPDEST PUSH1 0x1F DUP3 GT ISZERO PUSH3 0x389 JUMPI PUSH3 0x353 DUP2 PUSH3 0x1FD JUMP JUMPDEST PUSH3 0x35E DUP5 PUSH3 0x212 JUMP JUMPDEST DUP2 ADD PUSH1 0x20 DUP6 LT ISZERO PUSH3 0x36E JUMPI DUP2 SWAP1 POP JUMPDEST PUSH3 0x386 PUSH3 0x37D DUP6 PUSH3 0x212 JUMP JUMPDEST DUP4 ADD DUP3 PUSH3 0x317 JUMP JUMPDEST POP POP JUMPDEST POP POP POP JUMP JUMPDEST PUSH1 0x0 DUP3 DUP3 SHR SWAP1 POP SWAP3 SWAP2 POP POP JUMP JUMPDEST PUSH1 0x0 PUSH3 0x3AE PUSH1 0x0 NOT DUP5 PUSH1 0x8 MUL PUSH3 0x38E JUMP JUMPDEST NOT DUP1 DUP4 AND SWAP2 POP POP SWAP3 SWAP2 POP POP JUMP JUMPDEST PUSH1 0x0 PUSH3 0x3C9 DUP4 DUP4 PUSH3 0x39B JUMP JUMPDEST SWAP2 POP DUP3 PUSH1 0x2 MUL DUP3 OR SWAP1 POP SWAP3 SWAP2 POP POP JUMP JUMPDEST PUSH3 0x3E4 DUP3 PUSH3 0x15F JUMP JUMPDEST PUSH8 0xFFFFFFFFFFFFFFFF DUP2 GT ISZERO PUSH3 0x400 JUMPI PUSH3 0x3FF PUSH3 0x16A JUMP JUMPDEST JUMPDEST PUSH3 0x40C DUP3 SLOAD PUSH3 0x1C8 JUMP JUMPDEST PUSH3 0x419 DUP3 DUP3 DUP6 PUSH3 0x33E JUMP JUMPDEST PUSH1 0x0 PUSH1 0x20 SWAP1 POP PUSH1 0x1F DUP4 GT PUSH1 0x1 DUP2 EQ PUSH3 0x451 JUMPI PUSH1 0x0 DUP5 ISZERO PUSH3 0x43C JUMPI DUP3 DUP8 ADD MLOAD SWAP1 POP JUMPDEST PUSH3 0x448 DUP6 DUP3 PUSH3 0x3BB JUMP JUMPDEST DUP7 SSTORE POP PUSH3 0x4B8 JUMP JUMPDEST PUSH1 0x1F NOT DUP5 AND PUSH3 0x461 DUP7 PUSH3 0x1FD JUMP JUMPDEST PUSH1 0x0 JUMPDEST DUP3 DUP2 LT ISZERO PUSH3 0x48B JUMPI DUP5 DUP10 ADD MLOAD DUP3 SSTORE PUSH1 0x1 DUP3 ADD SWAP2 POP PUSH1 0x20 DUP6 ADD SWAP5 POP PUSH1 0x20 DUP2 ADD SWAP1 POP PUSH3 0x464 JUMP JUMPDEST DUP7 DUP4 LT ISZERO PUSH3 0x4AB JUMPI DUP5 DUP10 ADD MLOAD PUSH3 0x4A7 PUSH1 0x1F DUP10 AND DUP3 PUSH3 0x39B JUMP JUMPDEST DUP4 SSTORE POP JUMPDEST PUSH1 0x1 PUSH1 0x2 DUP9 MUL ADD DUP9 SSTORE POP POP POP JUMPDEST POP POP POP POP POP POP JUMP JUMPDEST PUSH2 0x3695 DUP1 PUSH3 0x4D0 PUSH1 0x0 CODECOPY PUSH1 0x0 RETURN INVALID PUSH1 0x80 PUSH1 0x40 MSTORE CALLVALUE DUP1 ISZERO PUSH2 0x10 JUMPI PUSH1 0x0 DUP1 REVERT JUMPDEST POP PUSH1 0x4 CALLDATASIZE LT PUSH2 0x116 JUMPI PUSH1 0x0 CALLDATALOAD PUSH1 0xE0 SHR DUP1 PUSH4 0x8DA5CB5B GT PUSH2 0xA2 JUMPI DUP1 PUSH4 0xAB346B0A GT PUSH2 0x71 JUMPI DUP1 PUSH4 0xAB346B0A EQ PUSH2 0x2D9 JUMPI DUP1 PUSH4 0xAFFED0E0 EQ PUSH2 0x2F5 JUMPI DUP1 PUSH4 0xE7C1BF9F EQ PUSH2 0x313 JUMPI DUP1 PUSH4 0xF2FDE38B EQ PUSH2 0x331 JUMPI DUP1 PUSH4 0xFC0C546A EQ PUSH2 0x34D JUMPI PUSH2 0x116 JUMP JUMPDEST DUP1 PUSH4 0x8DA5CB5B EQ PUSH2 0x236 JUMPI DUP1 PUSH4 0xA6F81668 EQ PUSH2 0x254 JUMPI DUP1 PUSH4 0xA85C38EF EQ PUSH2 0x28B JUMPI DUP1 PUSH4 0xAAB0A510 EQ PUSH2 0x2BD JUMPI PUSH2 0x116 JUMP JUMPDEST DUP1 PUSH4 0x2F8DC9A0 GT PUSH2 0xE9 JUMPI DUP1 PUSH4 0x2F8DC9A0 EQ PUSH2 0x18F JUMPI DUP1 PUSH4 0x325E8744 EQ PUSH2 0x1AD JUMPI DUP1 PUSH4 0x7036992A EQ PUSH2 0x1CB JUMPI DUP1 PUSH4 0x715018A6 EQ PUSH2 0x1FC JUMPI DUP1 PUSH4 0x75AF2DD9 EQ PUSH2 0x206 JUMPI PUSH2 0x116 JUMP JUMPDEST DUP1 PUSH4 0x1C234A8 EQ PUSH2 0x11B JUMPI DUP1 PUSH4 0x6FDDE03 EQ PUSH2 0x139 JUMPI DUP1 PUSH4 0x144FA6D7 EQ PUSH2 0x157 JUMPI DUP1 PUSH4 0x2240B81A EQ PUSH2 0x173 JUMPI JUMPDEST PUSH1 0x0 DUP1 REVERT JUMPDEST PUSH2 0x123 PUSH2 0x36B JUMP JUMPDEST PUSH1 0x40 MLOAD PUSH2 0x130 SWAP2 SWAP1 PUSH2 0x1FE1 JUMP JUMPDEST PUSH1 0x40 MLOAD DUP1 SWAP2 SUB SWAP1 RETURN JUMPDEST PUSH2 0x141 PUSH2 0x371 JUMP JUMPDEST PUSH1 0x40 MLOAD PUSH2 0x14E SWAP2 SWAP1 PUSH2 0x208C JUMP JUMPDEST PUSH1 0x40 MLOAD DUP1 SWAP2 SUB SWAP1 RETURN JUMPDEST PUSH2 0x171 PUSH1 0x4 DUP1 CALLDATASIZE SUB DUP2 ADD SWAP1 PUSH2 0x16C SWAP2 SWAP1 PUSH2 0x2120 JUMP JUMPDEST PUSH2 0x403 JUMP JUMPDEST STOP JUMPDEST PUSH2 0x18D PUSH1 0x4 DUP1 CALLDATASIZE SUB DUP2 ADD SWAP1 PUSH2 0x188 SWAP2 SWAP1 PUSH2 0x2179 JUMP JUMPDEST PUSH2 0x4D8 JUMP JUMPDEST STOP JUMPDEST PUSH2 0x197 PUSH2 0x1101 JUMP JUMPDEST PUSH1 0x40 MLOAD PUSH2 0x1A4 SWAP2 SWAP1 PUSH2 0x2252 JUMP JUMPDEST PUSH1 0x40 MLOAD DUP1 SWAP2 SUB SWAP1 RETURN JUMPDEST PUSH2 0x1B5 PUSH2 0x1127 JUMP JUMPDEST PUSH1 0x40 MLOAD PUSH2 0x1C2 SWAP2 SWAP1 PUSH2 0x1FE1 JUMP JUMPDEST PUSH1 0x40 MLOAD DUP1 SWAP2 SUB SWAP1 RETURN JUMPDEST PUSH2 0x1E5 PUSH1 0x4 DUP1 CALLDATASIZE SUB DUP2 ADD SWAP1 PUSH2 0x1E0 SWAP2 SWAP1 PUSH2 0x226D JUMP JUMPDEST PUSH2 0x112F JUMP JUMPDEST PUSH1 0x40 MLOAD PUSH2 0x1F3 SWAP3 SWAP2 SWAP1 PUSH2 0x22AD JUMP JUMPDEST PUSH1 0x40 MLOAD DUP1 SWAP2 SUB SWAP1 RETURN JUMPDEST PUSH2 0x204 PUSH2 0x1160 JUMP JUMPDEST STOP JUMPDEST PUSH2 0x220 PUSH1 0x4 DUP1 CALLDATASIZE SUB DUP2 ADD SWAP1 PUSH2 0x21B SWAP2 SWAP1 PUSH2 0x226D JUMP JUMPDEST PUSH2 0x11E8 JUMP JUMPDEST PUSH1 0x40 MLOAD PUSH2 0x22D SWAP2 SWAP1 PUSH2 0x1FE1 JUMP JUMPDEST PUSH1 0x40 MLOAD DUP1 SWAP2 SUB SWAP1 RETURN JUMPDEST PUSH2 0x23E PUSH2 0x120D JUMP JUMPDEST PUSH1 0x40 MLOAD PUSH2 0x24B SWAP2 SWAP1 PUSH2 0x2252 JUMP JUMPDEST PUSH1 0x40 MLOAD DUP1 SWAP2 SUB SWAP1 RETURN JUMPDEST PUSH2 0x26E PUSH1 0x4 DUP1 CALLDATASIZE SUB DUP2 ADD SWAP1 PUSH2 0x269 SWAP2 SWAP1 PUSH2 0x22D6 JUMP JUMPDEST PUSH2 0x1237 JUMP JUMPDEST PUSH1 0x40 MLOAD PUSH2 0x282 SWAP9 SWAP8 SWAP7 SWAP6 SWAP5 SWAP4 SWAP3 SWAP2 SWAP1 PUSH2 0x2303 JUMP JUMPDEST PUSH1 0x40 MLOAD DUP1 SWAP2 SUB SWAP1 RETURN JUMPDEST PUSH2 0x2A5 PUSH1 0x4 DUP1 CALLDATASIZE SUB DUP2 ADD SWAP1 PUSH2 0x2A0 SWAP2 SWAP1 PUSH2 0x22D6 JUMP JUMPDEST PUSH2 0x1307 JUMP JUMPDEST PUSH1 0x40 MLOAD PUSH2 0x2B4 SWAP4 SWAP3 SWAP2 SWAP1 PUSH2 0x23A3 JUMP JUMPDEST PUSH1 0x40 MLOAD DUP1 SWAP2 SUB SWAP1 RETURN JUMPDEST PUSH2 0x2D7 PUSH1 0x4 DUP1 CALLDATASIZE SUB DUP2 ADD SWAP1 PUSH2 0x2D2 SWAP2 SWAP1 PUSH2 0x25D7 JUMP JUMPDEST PUSH2 0x133E JUMP JUMPDEST STOP JUMPDEST PUSH2 0x2F3 PUSH1 0x4 DUP1 CALLDATASIZE SUB DUP2 ADD SWAP1 PUSH2 0x2EE SWAP2 SWAP1 PUSH2 0x2120 JUMP JUMPDEST PUSH2 0x1AE4 JUMP JUMPDEST STOP JUMPDEST PUSH2 0x2FD PUSH2 0x1BB9 JUMP JUMPDEST PUSH1 0x40 MLOAD PUSH2 0x30A SWAP2 SWAP1 PUSH2 0x1FE1 JUMP JUMPDEST PUSH1 0x40 MLOAD DUP1 SWAP2 SUB SWAP1 RETURN JUMPDEST PUSH2 0x31B PUSH2 0x1BBF JUMP JUMPDEST PUSH1 0x40 MLOAD PUSH2 0x328 SWAP2 SWAP1 PUSH2 0x1FE1 JUMP JUMPDEST PUSH1 0x40 MLOAD DUP1 SWAP2 SUB SWAP1 RETURN JUMPDEST PUSH2 0x34B PUSH1 0x4 DUP1 CALLDATASIZE SUB DUP2 ADD SWAP1 PUSH2 0x346 SWAP2 SWAP1 PUSH2 0x2120 JUMP JUMPDEST PUSH2 0x1BC5 JUMP JUMPDEST STOP JUMPDEST PUSH2 0x355 PUSH2 0x1CBC JUMP JUMPDEST PUSH1 0x40 MLOAD PUSH2 0x362 SWAP2 SWAP1 PUSH2 0x2740 JUMP JUMPDEST PUSH1 0x40 MLOAD DUP1 SWAP2 SUB SWAP1 RETURN JUMPDEST PUSH2 0x3E8 DUP2 JUMP JUMPDEST PUSH1 0x60 PUSH1 0x2 DUP1 SLOAD PUSH2 0x380 SWAP1 PUSH2 0x278A JUMP JUMPDEST DUP1 PUSH1 0x1F ADD PUSH1 0x20 DUP1 SWAP2 DIV MUL PUSH1 0x20 ADD PUSH1 0x40 MLOAD SWAP1 DUP2 ADD PUSH1 0x40 MSTORE DUP1 SWAP3 SWAP2 SWAP1 DUP2 DUP2 MSTORE PUSH1 0x20 ADD DUP3 DUP1 SLOAD PUSH2 0x3AC SWAP1 PUSH2 0x278A JUMP JUMPDEST DUP1 ISZERO PUSH2 0x3F9 JUMPI DUP1 PUSH1 0x1F LT PUSH2 0x3CE JUMPI PUSH2 0x100 DUP1 DUP4 SLOAD DIV MUL DUP4 MSTORE SWAP2 PUSH1 0x20 ADD SWAP2 PUSH2 0x3F9 JUMP JUMPDEST DUP3 ADD SWAP2 SWAP1 PUSH1 0x0 MSTORE PUSH1 0x20 PUSH1 0x0 KECCAK256 SWAP1 JUMPDEST DUP2 SLOAD DUP2 MSTORE SWAP1 PUSH1 0x1 ADD SWAP1 PUSH1 0x20 ADD DUP1 DUP4 GT PUSH2 0x3DC JUMPI DUP3 SWAP1 SUB PUSH1 0x1F AND DUP3 ADD SWAP2 JUMPDEST POP POP POP POP POP SWAP1 POP SWAP1 JUMP JUMPDEST PUSH1 0x0 PUSH20 0xFFFFFFFFFFFFFFFFFFFFFFFFFFFFFFFFFFFFFFFF AND PUSH1 0x3 PUSH1 0x0 SWAP1 SLOAD SWAP1 PUSH2 0x100 EXP SWAP1 DIV PUSH20 0xFFFFFFFFFFFFFFFFFFFFFFFFFFFFFFFFFFFFFFFF AND PUSH20 0xFFFFFFFFFFFFFFFFFFFFFFFFFFFFFFFFFFFFFFFF AND EQ PUSH2 0x494 JUMPI PUSH1 0x40 MLOAD PUSH32 0x8C379A000000000000000000000000000000000000000000000000000000000 DUP2 MSTORE PUSH1 0x4 ADD PUSH2 0x48B SWAP1 PUSH2 0x2807 JUMP JUMPDEST PUSH1 0x40 MLOAD DUP1 SWAP2 SUB SWAP1 REVERT JUMPDEST DUP1 PUSH1 0x3 PUSH1 0x0 PUSH2 0x100 EXP DUP2 SLOAD DUP2 PUSH20 0xFFFFFFFFFFFFFFFFFFFFFFFFFFFFFFFFFFFFFFFF MUL NOT AND SWAP1 DUP4 PUSH20 0xFFFFFFFFFFFFFFFFFFFFFFFFFFFFFFFFFFFFFFFF AND MUL OR SWAP1 SSTORE POP POP JUMP JUMPDEST PUSH1 0x2 PUSH1 0x0 SLOAD SUB PUSH2 0x51D JUMPI PUSH1 0x40 MLOAD PUSH32 0x8C379A000000000000000000000000000000000000000000000000000000000 DUP2 MSTORE PUSH1 0x4 ADD PUSH2 0x514 SWAP1 PUSH2 0x2873 JUMP JUMPDEST PUSH1 0x40 MLOAD DUP1 SWAP2 SUB SWAP1 REVERT JUMPDEST PUSH1 0x2 PUSH1 0x0 DUP2 SWAP1 SSTORE POP PUSH1 0xA DUP3 GT ISZERO PUSH2 0x569 JUMPI PUSH1 0x40 MLOAD PUSH32 0x8C379A000000000000000000000000000000000000000000000000000000000 DUP2 MSTORE PUSH1 0x4 ADD PUSH2 0x560 SWAP1 PUSH2 0x28DF JUMP JUMPDEST PUSH1 0x40 MLOAD DUP1 SWAP2 SUB SWAP1 REVERT JUMPDEST PUSH1 0x0 PUSH1 0x7 PUSH1 0x0 DUP7 DUP2 MSTORE PUSH1 0x20 ADD SWAP1 DUP2 MSTORE PUSH1 0x20 ADD PUSH1 0x0 KECCAK256 PUSH1 0x0 ADD SLOAD GT PUSH2 0x5C2 JUMPI PUSH1 0x40 MLOAD PUSH32 0x8C379A000000000000000000000000000000000000000000000000000000000 DUP2 MSTORE PUSH1 0x4 ADD PUSH2 0x5B9 SWAP1 PUSH2 0x294B JUMP JUMPDEST PUSH1 0x40 MLOAD DUP1 SWAP2 SUB SWAP1 REVERT JUMPDEST PUSH1 0x0 DUP3 PUSH1 0x7 PUSH1 0x0 DUP8 DUP2 MSTORE PUSH1 0x20 ADD SWAP1 DUP2 MSTORE PUSH1 0x20 ADD PUSH1 0x0 KECCAK256 PUSH1 0x0 ADD SLOAD PUSH2 0x5E6 SWAP2 SWAP1 PUSH2 0x299A JUMP JUMPDEST SWAP1 POP PUSH1 0x0 PUSH1 0x3 PUSH1 0x0 SWAP1 SLOAD SWAP1 PUSH2 0x100 EXP SWAP1 DIV PUSH20 0xFFFFFFFFFFFFFFFFFFFFFFFFFFFFFFFFFFFFFFFF AND PUSH20 0xFFFFFFFFFFFFFFFFFFFFFFFFFFFFFFFFFFFFFFFF AND PUSH4 0x70A08231 ADDRESS PUSH1 0x40 MLOAD DUP3 PUSH4 0xFFFFFFFF AND PUSH1 0xE0 SHL DUP2 MSTORE PUSH1 0x4 ADD PUSH2 0x645 SWAP2 SWAP1 PUSH2 0x2252 JUMP JUMPDEST PUSH1 0x20 PUSH1 0x40 MLOAD DUP1 DUP4 SUB DUP2 DUP7 GAS STATICCALL ISZERO DUP1 ISZERO PUSH2 0x662 JUMPI RETURNDATASIZE PUSH1 0x0 DUP1 RETURNDATACOPY RETURNDATASIZE PUSH1 0x0 REVERT JUMPDEST POP POP POP POP PUSH1 0x40 MLOAD RETURNDATASIZE PUSH1 0x1F NOT PUSH1 0x1F DUP3 ADD AND DUP3 ADD DUP1 PUSH1 0x40 MSTORE POP DUP2 ADD SWAP1 PUSH2 0x686 SWAP2 SWAP1 PUSH2 0x29F1 JUMP JUMPDEST SWAP1 POP DUP2 PUSH1 0x3 PUSH1 0x0 SWAP1 SLOAD SWAP1 PUSH2 0x100 EXP SWAP1 DIV PUSH20 0xFFFFFFFFFFFFFFFFFFFFFFFFFFFFFFFFFFFFFFFF AND PUSH20 0xFFFFFFFFFFFFFFFFFFFFFFFFFFFFFFFFFFFFFFFF AND PUSH4 0x70A08231 DUP6 PUSH1 0x40 MLOAD DUP3 PUSH4 0xFFFFFFFF AND PUSH1 0xE0 SHL DUP2 MSTORE PUSH1 0x4 ADD PUSH2 0x6E4 SWAP2 SWAP1 PUSH2 0x2252 JUMP JUMPDEST PUSH1 0x20 PUSH1 0x40 MLOAD DUP1 DUP4 SUB DUP2 DUP7 GAS STATICCALL ISZERO DUP1 ISZERO PUSH2 0x701 JUMPI RETURNDATASIZE PUSH1 0x0 DUP1 RETURNDATACOPY RETURNDATASIZE PUSH1 0x0 REVERT JUMPDEST POP POP POP POP PUSH1 0x40 MLOAD RETURNDATASIZE PUSH1 0x1F NOT PUSH1 0x1F DUP3 ADD AND DUP3 ADD DUP1 PUSH1 0x40 MSTORE POP DUP2 ADD SWAP1 PUSH2 0x725 SWAP2 SWAP1 PUSH2 0x29F1 JUMP JUMPDEST LT ISZERO PUSH2 0x766 JUMPI PUSH1 0x40 MLOAD PUSH32 0x8C379A000000000000000000000000000000000000000000000000000000000 DUP2 MSTORE PUSH1 0x4 ADD PUSH2 0x75D SWAP1 PUSH2 0x2A90 JUMP JUMPDEST PUSH1 0x40 MLOAD DUP1 SWAP2 SUB SWAP1 REVERT JUMPDEST PUSH1 0x3 PUSH1 0x0 SWAP1 SLOAD SWAP1 PUSH2 0x100 EXP SWAP1 DIV PUSH20 0xFFFFFFFFFFFFFFFFFFFFFFFFFFFFFFFFFFFFFFFF AND PUSH20 0xFFFFFFFFFFFFFFFFFFFFFFFFFFFFFFFFFFFFFFFF AND PUSH4 0x23B872DD DUP5 ADDRESS DUP6 PUSH1 0x40 MLOAD DUP5 PUSH4 0xFFFFFFFF AND PUSH1 0xE0 SHL DUP2 MSTORE PUSH1 0x4 ADD PUSH2 0x7C5 SWAP4 SWAP3 SWAP2 SWAP1 PUSH2 0x2AB0 JUMP JUMPDEST PUSH1 0x20 PUSH1 0x40 MLOAD DUP1 DUP4 SUB DUP2 PUSH1 0x0 DUP8 GAS CALL ISZERO DUP1 ISZERO PUSH2 0x7E4 JUMPI RETURNDATASIZE PUSH1 0x0 DUP1 RETURNDATACOPY RETURNDATASIZE PUSH1 0x0 REVERT JUMPDEST POP POP POP POP PUSH1 0x40 MLOAD RETURNDATASIZE PUSH1 0x1F NOT PUSH1 0x1F DUP3 ADD AND DUP3 ADD DUP1 PUSH1 0x40 MSTORE POP DUP2 ADD SWAP1 PUSH2 0x808 SWAP2 SWAP1 PUSH2 0x2B13 JUMP JUMPDEST POP PUSH1 0x0 PUSH1 0x3 PUSH1 0x0 SWAP1 SLOAD SWAP1 PUSH2 0x100 EXP SWAP1 DIV PUSH20 0xFFFFFFFFFFFFFFFFFFFFFFFFFFFFFFFFFFFFFFFF AND PUSH20 0xFFFFFFFFFFFFFFFFFFFFFFFFFFFFFFFFFFFFFFFF AND PUSH4 0x70A08231 ADDRESS PUSH1 0x40 MLOAD DUP3 PUSH4 0xFFFFFFFF AND PUSH1 0xE0 SHL DUP2 MSTORE PUSH1 0x4 ADD PUSH2 0x866 SWAP2 SWAP1 PUSH2 0x2252 JUMP JUMPDEST PUSH1 0x20 PUSH1 0x40 MLOAD DUP1 DUP4 SUB DUP2 DUP7 GAS STATICCALL ISZERO DUP1 ISZERO PUSH2 0x883 JUMPI RETURNDATASIZE PUSH1 0x0 DUP1 RETURNDATACOPY RETURNDATASIZE PUSH1 0x0 REVERT JUMPDEST POP POP POP POP PUSH1 0x40 MLOAD RETURNDATASIZE PUSH1 0x1F NOT PUSH1 0x1F DUP3 ADD AND DUP3 ADD DUP1 PUSH1 0x40 MSTORE POP DUP2 ADD SWAP1 PUSH2 0x8A7 SWAP2 SWAP1 PUSH2 0x29F1 JUMP JUMPDEST SWAP1 POP PUSH1 0x0 DUP3 DUP3 PUSH2 0x8B7 SWAP2 SWAP1 PUSH2 0x2B40 JUMP JUMPDEST SWAP1 POP PUSH1 0x0 DUP14 DUP14 PUSH2 0x3E8 DUP16 DUP9 PUSH2 0x8CC SWAP2 SWAP1 PUSH2 0x299A JUMP JUMPDEST PUSH2 0x8D6 SWAP2 SWAP1 PUSH2 0x2BA3 JUMP JUMPDEST PUSH2 0x8E0 SWAP2 SWAP1 PUSH2 0x299A JUMP JUMPDEST PUSH2 0x8EA SWAP2 SWAP1 PUSH2 0x2BA3 JUMP JUMPDEST SWAP1 POP PUSH1 0x3 PUSH1 0x0 SWAP1 SLOAD SWAP1 PUSH2 0x100 EXP SWAP1 DIV PUSH20 0xFFFFFFFFFFFFFFFFFFFFFFFFFFFFFFFFFFFFFFFF AND PUSH20 0xFFFFFFFFFFFFFFFFFFFFFFFFFFFFFFFFFFFFFFFF AND PUSH4 0xA9059CBB DUP13 DUP4 PUSH1 0x40 MLOAD DUP4 PUSH4 0xFFFFFFFF AND PUSH1 0xE0 SHL DUP2 MSTORE PUSH1 0x4 ADD PUSH2 0x949 SWAP3 SWAP2 SWAP1 PUSH2 0x2BD4 JUMP JUMPDEST PUSH1 0x20 PUSH1 0x40 MLOAD DUP1 DUP4 SUB DUP2 PUSH1 0x0 DUP8 GAS CALL ISZERO DUP1 ISZERO PUSH2 0x968 JUMPI RETURNDATASIZE PUSH1 0x0 DUP1 RETURNDATACOPY RETURNDATASIZE PUSH1 0x0 REVERT JUMPDEST POP POP POP POP PUSH1 0x40 MLOAD RETURNDATASIZE PUSH1 0x1F NOT PUSH1 0x1F DUP3 ADD AND DUP3 ADD DUP1 PUSH1 0x40 MSTORE POP DUP2 ADD SWAP1 PUSH2 0x98C SWAP2 SWAP1 PUSH2 0x2B13 JUMP JUMPDEST POP PUSH1 0x0 DUP2 PUSH2 0x3E8 DUP16 DUP9 PUSH2 0x99F SWAP2 SWAP1 PUSH2 0x299A JUMP JUMPDEST PUSH2 0x9A9 SWAP2 SWAP1 PUSH2 0x2BA3 JUMP JUMPDEST PUSH2 0x9B3 SWAP2 SWAP1 PUSH2 0x2B40 JUMP JUMPDEST SWAP1 POP PUSH1 0x3 PUSH1 0x0 SWAP1 SLOAD SWAP1 PUSH2 0x100 EXP SWAP1 DIV PUSH20 0xFFFFFFFFFFFFFFFFFFFFFFFFFFFFFFFFFFFFFFFF AND PUSH20 0xFFFFFFFFFFFFFFFFFFFFFFFFFFFFFFFFFFFFFFFF AND PUSH4 0xA9059CBB DUP13 DUP4 PUSH1 0x40 MLOAD DUP4 PUSH4 0xFFFFFFFF AND PUSH1 0xE0 SHL DUP2 MSTORE PUSH1 0x4 ADD PUSH2 0xA12 SWAP3 SWAP2 SWAP1 PUSH2 0x2BD4 JUMP JUMPDEST PUSH1 0x20 PUSH1 0x40 MLOAD DUP1 DUP4 SUB DUP2 PUSH1 0x0 DUP8 GAS CALL ISZERO DUP1 ISZERO PUSH2 0xA31 JUMPI RETURNDATASIZE PUSH1 0x0 DUP1 RETURNDATACOPY RETURNDATASIZE PUSH1 0x0 REVERT JUMPDEST POP POP POP POP PUSH1 0x40 MLOAD RETURNDATASIZE PUSH1 0x1F NOT PUSH1 0x1F DUP3 ADD AND DUP3 ADD DUP1 PUSH1 0x40 MSTORE POP DUP2 ADD SWAP1 PUSH2 0xA55 SWAP2 SWAP1 PUSH2 0x2B13 JUMP JUMPDEST POP PUSH1 0x0 PUSH2 0x3E8 PUSH1 0x7 PUSH1 0x0 DUP14 DUP2 MSTORE PUSH1 0x20 ADD SWAP1 DUP2 MSTORE PUSH1 0x20 ADD PUSH1 0x0 KECCAK256 PUSH1 0x4 ADD SLOAD DUP9 PUSH2 0xA7D SWAP2 SWAP1 PUSH2 0x299A JUMP JUMPDEST PUSH2 0xA87 SWAP2 SWAP1 PUSH2 0x2BA3 JUMP JUMPDEST SWAP1 POP PUSH1 0x3 PUSH1 0x0 SWAP1 SLOAD SWAP1 PUSH2 0x100 EXP SWAP1 DIV PUSH20 0xFFFFFFFFFFFFFFFFFFFFFFFFFFFFFFFFFFFFFFFF AND PUSH20 0xFFFFFFFFFFFFFFFFFFFFFFFFFFFFFFFFFFFFFFFF AND PUSH4 0xA9059CBB DUP16 DUP4 PUSH1 0x40 MLOAD DUP4 PUSH4 0xFFFFFFFF AND PUSH1 0xE0 SHL DUP2 MSTORE PUSH1 0x4 ADD PUSH2 0xAE6 SWAP3 SWAP2 SWAP1 PUSH2 0x2BD4 JUMP JUMPDEST PUSH1 0x20 PUSH1 0x40 MLOAD DUP1 DUP4 SUB DUP2 PUSH1 0x0 DUP8 GAS CALL ISZERO DUP1 ISZERO PUSH2 0xB05 JUMPI RETURNDATASIZE PUSH1 0x0 DUP1 RETURNDATACOPY RETURNDATASIZE PUSH1 0x0 REVERT JUMPDEST POP POP POP POP PUSH1 0x40 MLOAD RETURNDATASIZE PUSH1 0x1F NOT PUSH1 0x1F DUP3 ADD AND DUP3 ADD DUP1 PUSH1 0x40 MSTORE POP DUP2 ADD SWAP1 PUSH2 0xB29 SWAP2 SWAP1 PUSH2 0x2B13 JUMP JUMPDEST POP PUSH1 0x0 PUSH2 0x3E8 PUSH1 0x7 PUSH1 0x0 DUP15 DUP2 MSTORE PUSH1 0x20 ADD SWAP1 DUP2 MSTORE PUSH1 0x20 ADD PUSH1 0x0 KECCAK256 PUSH1 0x3 ADD SLOAD DUP10 PUSH2 0xB51 SWAP2 SWAP1 PUSH2 0x299A JUMP JUMPDEST PUSH2 0xB5B SWAP2 SWAP1 PUSH2 0x2BA3 JUMP JUMPDEST SWAP1 POP PUSH1 0x3 PUSH1 0x0 SWAP1 SLOAD SWAP1 PUSH2 0x100 EXP SWAP1 DIV PUSH20 0xFFFFFFFFFFFFFFFFFFFFFFFFFFFFFFFFFFFFFFFF AND PUSH20 0xFFFFFFFFFFFFFFFFFFFFFFFFFFFFFFFFFFFFFFFF AND PUSH4 0xA9059CBB PUSH1 0x6 PUSH1 0x0 SWAP1 SLOAD SWAP1 PUSH2 0x100 EXP SWAP1 DIV PUSH20 0xFFFFFFFFFFFFFFFFFFFFFFFFFFFFFFFFFFFFFFFF AND DUP4 PUSH1 0x40 MLOAD DUP4 PUSH4 0xFFFFFFFF AND PUSH1 0xE0 SHL DUP2 MSTORE PUSH1 0x4 ADD PUSH2 0xBDC SWAP3 SWAP2 SWAP1 PUSH2 0x2BD4 JUMP JUMPDEST PUSH1 0x20 PUSH1 0x40 MLOAD DUP1 DUP4 SUB DUP2 PUSH1 0x0 DUP8 GAS CALL ISZERO DUP1 ISZERO PUSH2 0xBFB JUMPI RETURNDATASIZE PUSH1 0x0 DUP1 RETURNDATACOPY RETURNDATASIZE PUSH1 0x0 REVERT JUMPDEST POP POP POP POP PUSH1 0x40 MLOAD RETURNDATASIZE PUSH1 0x1F NOT PUSH1 0x1F DUP3 ADD AND DUP3 ADD DUP1 PUSH1 0x40 MSTORE POP DUP2 ADD SWAP1 PUSH2 0xC1F SWAP2 SWAP1 PUSH2 0x2B13 JUMP JUMPDEST POP DUP10 PUSH1 0x7 PUSH1 0x0 DUP15 DUP2 MSTORE PUSH1 0x20 ADD SWAP1 DUP2 MSTORE PUSH1 0x20 ADD PUSH1 0x0 KECCAK256 PUSH1 0x7 ADD PUSH1 0x0 DUP3 DUP3 SLOAD PUSH2 0xC46 SWAP2 SWAP1 PUSH2 0x2BFD JUMP JUMPDEST SWAP3 POP POP DUP2 SWAP1 SSTORE POP PUSH1 0x0 DUP1 PUSH1 0x0 DUP15 SWAP1 POP PUSH1 0x0 DUP15 SWAP1 POP PUSH1 0x0 JUMPDEST DUP15 DUP2 LT ISZERO PUSH2 0xD1E JUMPI PUSH1 0x0 DUP1 PUSH2 0xC73 DUP4 DUP6 DUP8 PUSH2 0x1CE2 JUMP JUMPDEST SWAP2 POP SWAP2 POP DUP2 DUP8 PUSH2 0xC83 SWAP2 SWAP1 PUSH2 0x2BFD JUMP JUMPDEST SWAP7 POP DUP1 ISZERO PUSH2 0xD09 JUMPI DUP2 SWAP6 POP PUSH1 0x0 DUP4 SWAP1 POP JUMPDEST PUSH1 0x0 DUP2 GT ISZERO PUSH2 0xCD8 JUMPI PUSH1 0xA PUSH1 0x0 DUP7 DUP2 MSTORE PUSH1 0x20 ADD SWAP1 DUP2 MSTORE PUSH1 0x20 ADD PUSH1 0x0 KECCAK256 PUSH1 0x0 DUP3 DUP2 MSTORE PUSH1 0x20 ADD SWAP1 DUP2 MSTORE PUSH1 0x20 ADD PUSH1 0x0 KECCAK256 PUSH1 0x0 SWAP1 SSTORE DUP1 DUP1 PUSH2 0xCD0 SWAP1 PUSH2 0x2C31 JUMP JUMPDEST SWAP2 POP POP PUSH2 0xC94 JUMP JUMPDEST POP DUP6 PUSH1 0xA PUSH1 0x0 DUP7 DUP2 MSTORE PUSH1 0x20 ADD SWAP1 DUP2 MSTORE PUSH1 0x20 ADD PUSH1 0x0 KECCAK256 PUSH1 0x0 DUP1 DUP2 MSTORE PUSH1 0x20 ADD SWAP1 DUP2 MSTORE PUSH1 0x20 ADD PUSH1 0x0 KECCAK256 DUP2 SWAP1 SSTORE POP POP POP PUSH2 0xD1E JUMP JUMPDEST POP POP DUP1 DUP1 PUSH2 0xD16 SWAP1 PUSH2 0x2C5A JUMP JUMPDEST SWAP2 POP POP PUSH2 0xC5D JUMP JUMPDEST POP PUSH1 0x0 DUP4 GT PUSH1 0x9 PUSH1 0x0 DUP4 DUP2 MSTORE PUSH1 0x20 ADD SWAP1 DUP2 MSTORE PUSH1 0x20 ADD PUSH1 0x0 KECCAK256 PUSH1 0x0 ADD PUSH1 0x0 PUSH2 0x100 EXP DUP2 SLOAD DUP2 PUSH1 0xFF MUL NOT AND SWAP1 DUP4 ISZERO ISZERO MUL OR SWAP1 SSTORE POP DUP14 PUSH1 0x9 PUSH1 0x0 DUP4 DUP2 MSTORE PUSH1 0x20 ADD SWAP1 DUP2 MSTORE PUSH1 0x20 ADD PUSH1 0x0 KECCAK256 PUSH1 0x1 ADD DUP2 SWAP1 SSTORE POP DUP1 PUSH1 0x9 PUSH1 0x0 DUP4 DUP2 MSTORE PUSH1 0x20 ADD SWAP1 DUP2 MSTORE PUSH1 0x20 ADD PUSH1 0x0 KECCAK256 PUSH1 0x2 ADD DUP2 SWAP1 SSTORE POP PUSH1 0x0 DUP4 GT ISZERO PUSH2 0xF0C JUMPI PUSH1 0x0 PUSH1 0x64 PUSH1 0xA DUP6 PUSH2 0xDA0 SWAP2 SWAP1 PUSH2 0x299A JUMP JUMPDEST PUSH2 0xDAA SWAP2 SWAP1 PUSH2 0x2BA3 JUMP JUMPDEST SWAP1 POP PUSH1 0x0 PUSH1 0x7 PUSH1 0x0 DUP6 DUP2 MSTORE PUSH1 0x20 ADD SWAP1 DUP2 MSTORE PUSH1 0x20 ADD PUSH1 0x0 KECCAK256 PUSH1 0x1 ADD SLOAD SWAP1 POP DUP2 DUP2 GT PUSH2 0xE37 JUMPI DUP7 DUP9 DUP11 DUP13 DUP15 DUP6 PUSH2 0xDDE SWAP2 SWAP1 PUSH2 0x2BFD JUMP JUMPDEST PUSH2 0xDE8 SWAP2 SWAP1 PUSH2 0x2B40 JUMP JUMPDEST PUSH2 0xDF2 SWAP2 SWAP1 PUSH2 0x2B40 JUMP JUMPDEST PUSH2 0xDFC SWAP2 SWAP1 PUSH2 0x2B40 JUMP JUMPDEST PUSH2 0xE06 SWAP2 SWAP1 PUSH2 0x2B40 JUMP JUMPDEST PUSH1 0x8 PUSH1 0x0 DUP7 DUP2 MSTORE PUSH1 0x20 ADD SWAP1 DUP2 MSTORE PUSH1 0x20 ADD PUSH1 0x0 KECCAK256 PUSH1 0x0 PUSH1 0xB DUP2 MSTORE PUSH1 0x20 ADD SWAP1 DUP2 MSTORE PUSH1 0x20 ADD PUSH1 0x0 KECCAK256 PUSH1 0x0 ADD DUP2 SWAP1 SSTORE POP PUSH2 0xE9C JUMP JUMPDEST DUP7 DUP9 DUP11 DUP13 DUP15 DUP7 PUSH2 0xE47 SWAP2 SWAP1 PUSH2 0x2BFD JUMP JUMPDEST PUSH2 0xE51 SWAP2 SWAP1 PUSH2 0x2B40 JUMP JUMPDEST PUSH2 0xE5B SWAP2 SWAP1 PUSH2 0x2B40 JUMP JUMPDEST PUSH2 0xE65 SWAP2 SWAP1 PUSH2 0x2B40 JUMP JUMPDEST PUSH2 0xE6F SWAP2 SWAP1 PUSH2 0x2B40 JUMP JUMPDEST PUSH1 0x8 PUSH1 0x0 DUP7 DUP2 MSTORE PUSH1 0x20 ADD SWAP1 DUP2 MSTORE PUSH1 0x20 ADD PUSH1 0x0 KECCAK256 PUSH1 0x0 PUSH1 0xB DUP2 MSTORE PUSH1 0x20 ADD SWAP1 DUP2 MSTORE PUSH1 0x20 ADD PUSH1 0x0 KECCAK256 PUSH1 0x0 ADD DUP2 SWAP1 SSTORE POP JUMPDEST DUP2 DUP6 PUSH2 0xEA8 SWAP2 SWAP1 PUSH2 0x2B40 JUMP JUMPDEST SWAP6 POP PUSH1 0x1 PUSH1 0x7 PUSH1 0x0 DUP7 DUP2 MSTORE PUSH1 0x20 ADD SWAP1 DUP2 MSTORE PUSH1 0x20 ADD PUSH1 0x0 KECCAK256 PUSH1 0x5 ADD PUSH1 0x0 DUP3 DUP3 SLOAD PUSH2 0xED1 SWAP2 SWAP1 PUSH2 0x2BFD JUMP JUMPDEST SWAP3 POP POP DUP2 SWAP1 SSTORE POP DUP6 PUSH1 0x7 PUSH1 0x0 DUP7 DUP2 MSTORE PUSH1 0x20 ADD SWAP1 DUP2 MSTORE PUSH1 0x20 ADD PUSH1 0x0 KECCAK256 PUSH1 0x6 ADD PUSH1 0x0 DUP3 DUP3 SLOAD PUSH2 0xEFE SWAP2 SWAP1 PUSH2 0x2BFD JUMP JUMPDEST SWAP3 POP POP DUP2 SWAP1 SSTORE POP POP POP PUSH2 0xFD1 JUMP JUMPDEST DUP4 PUSH1 0x7 PUSH1 0x0 DUP5 DUP2 MSTORE PUSH1 0x20 ADD SWAP1 DUP2 MSTORE PUSH1 0x20 ADD PUSH1 0x0 KECCAK256 PUSH1 0x6 ADD PUSH1 0x0 DUP3 DUP3 SLOAD PUSH2 0xF32 SWAP2 SWAP1 PUSH2 0x2BFD JUMP JUMPDEST SWAP3 POP POP DUP2 SWAP1 SSTORE POP DUP5 DUP7 DUP9 DUP11 DUP8 DUP14 PUSH1 0x8 PUSH1 0x0 DUP10 DUP2 MSTORE PUSH1 0x20 ADD SWAP1 DUP2 MSTORE PUSH1 0x20 ADD PUSH1 0x0 KECCAK256 PUSH1 0x0 PUSH1 0xB DUP2 MSTORE PUSH1 0x20 ADD SWAP1 DUP2 MSTORE PUSH1 0x20 ADD PUSH1 0x0 KECCAK256 PUSH1 0x0 ADD SLOAD PUSH2 0xF72 SWAP2 SWAP1 PUSH2 0x2BFD JUMP JUMPDEST PUSH2 0xF7C SWAP2 SWAP1 PUSH2 0x2B40 JUMP JUMPDEST PUSH2 0xF86 SWAP2 SWAP1 PUSH2 0x2B40 JUMP JUMPDEST PUSH2 0xF90 SWAP2 SWAP1 PUSH2 0x2B40 JUMP JUMPDEST PUSH2 0xF9A SWAP2 SWAP1 PUSH2 0x2B40 JUMP JUMPDEST PUSH2 0xFA4 SWAP2 SWAP1 PUSH2 0x2B40 JUMP JUMPDEST PUSH1 0x8 PUSH1 0x0 DUP5 DUP2 MSTORE PUSH1 0x20 ADD SWAP1 DUP2 MSTORE PUSH1 0x20 ADD PUSH1 0x0 KECCAK256 PUSH1 0x0 PUSH1 0xB DUP2 MSTORE PUSH1 0x20 ADD SWAP1 DUP2 MSTORE PUSH1 0x20 ADD PUSH1 0x0 KECCAK256 PUSH1 0x0 ADD DUP2 SWAP1 SSTORE POP JUMPDEST PUSH1 0x0 DUP5 GT ISZERO PUSH2 0x107C JUMPI PUSH1 0x3 PUSH1 0x0 SWAP1 SLOAD SWAP1 PUSH2 0x100 EXP SWAP1 DIV PUSH20 0xFFFFFFFFFFFFFFFFFFFFFFFFFFFFFFFFFFFFFFFF AND PUSH20 0xFFFFFFFFFFFFFFFFFFFFFFFFFFFFFFFFFFFFFFFF AND PUSH4 0xA9059CBB DUP15 DUP7 PUSH1 0x40 MLOAD DUP4 PUSH4 0xFFFFFFFF AND PUSH1 0xE0 SHL DUP2 MSTORE PUSH1 0x4 ADD PUSH2 0x1037 SWAP3 SWAP2 SWAP1 PUSH2 0x2BD4 JUMP JUMPDEST PUSH1 0x20 PUSH1 0x40 MLOAD DUP1 DUP4 SUB DUP2 PUSH1 0x0 DUP8 GAS CALL ISZERO DUP1 ISZERO PUSH2 0x1056 JUMPI RETURNDATASIZE PUSH1 0x0 DUP1 RETURNDATACOPY RETURNDATASIZE PUSH1 0x0 REVERT JUMPDEST POP POP POP POP PUSH1 0x40 MLOAD RETURNDATASIZE PUSH1 0x1F NOT PUSH1 0x1F DUP3 ADD AND DUP3 ADD DUP1 PUSH1 0x40 MSTORE POP DUP2 ADD SWAP1 PUSH2 0x107A SWAP2 SWAP1 PUSH2 0x2B13 JUMP JUMPDEST POP JUMPDEST PUSH32 0x6A3F36C72D006BC18C991A32D6125245BDAC6838F401790ED41516B495455672 DUP5 DUP16 PUSH1 0x9 PUSH1 0x0 DUP6 DUP2 MSTORE PUSH1 0x20 ADD SWAP1 DUP2 MSTORE PUSH1 0x20 ADD PUSH1 0x0 KECCAK256 PUSH1 0x0 ADD PUSH1 0x0 SWAP1 SLOAD SWAP1 PUSH2 0x100 EXP SWAP1 DIV PUSH1 0xFF AND DUP12 DUP12 DUP12 DUP12 PUSH1 0x40 MLOAD PUSH2 0x10DA SWAP8 SWAP7 SWAP6 SWAP5 SWAP4 SWAP3 SWAP2 SWAP1 PUSH2 0x2CA2 JUMP JUMPDEST PUSH1 0x40 MLOAD DUP1 SWAP2 SUB SWAP1 LOG1 POP POP POP POP POP POP POP POP POP POP POP POP PUSH1 0x1 PUSH1 0x0 DUP2 SWAP1 SSTORE POP POP POP POP POP POP POP POP POP POP JUMP JUMPDEST PUSH1 0x6 PUSH1 0x0 SWAP1 SLOAD SWAP1 PUSH2 0x100 EXP SWAP1 DIV PUSH20 0xFFFFFFFFFFFFFFFFFFFFFFFFFFFFFFFFFFFFFFFF AND DUP2 JUMP JUMPDEST PUSH4 0x3B9ACA00 DUP2 JUMP JUMPDEST PUSH1 0x8 PUSH1 0x20 MSTORE DUP2 PUSH1 0x0 MSTORE PUSH1 0x40 PUSH1 0x0 KECCAK256 PUSH1 0x20 MSTORE DUP1 PUSH1 0x0 MSTORE PUSH1 0x40 PUSH1 0x0 KECCAK256 PUSH1 0x0 SWAP2 POP SWAP2 POP POP DUP1 PUSH1 0x0 ADD SLOAD SWAP1 DUP1 PUSH1 0x1 ADD SLOAD SWAP1 POP DUP3 JUMP JUMPDEST PUSH2 0x1168 PUSH2 0x1E1A JUMP JUMPDEST PUSH20 0xFFFFFFFFFFFFFFFFFFFFFFFFFFFFFFFFFFFFFFFF AND PUSH2 0x1186 PUSH2 0x120D JUMP JUMPDEST PUSH20 0xFFFFFFFFFFFFFFFFFFFFFFFFFFFFFFFFFFFFFFFF AND EQ PUSH2 0x11DC JUMPI PUSH1 0x40 MLOAD PUSH32 0x8C379A000000000000000000000000000000000000000000000000000000000 DUP2 MSTORE PUSH1 0x4 ADD PUSH2 0x11D3 SWAP1 PUSH2 0x2D5D JUMP JUMPDEST PUSH1 0x40 MLOAD DUP1 SWAP2 SUB SWAP1 REVERT JUMPDEST PUSH2 0x11E6 PUSH1 0x0 PUSH2 0x1E22 JUMP JUMPDEST JUMP JUMPDEST PUSH1 0xA PUSH1 0x20 MSTORE DUP2 PUSH1 0x0 MSTORE PUSH1 0x40 PUSH1 0x0 KECCAK256 PUSH1 0x20 MSTORE DUP1 PUSH1 0x0 MSTORE PUSH1 0x40 PUSH1 0x0 KECCAK256 PUSH1 0x0 SWAP2 POP SWAP2 POP POP SLOAD DUP2 JUMP JUMPDEST PUSH1 0x0 PUSH1 0x1 PUSH1 0x0 SWAP1 SLOAD SWAP1 PUSH2 0x100 EXP SWAP1 DIV PUSH20 0xFFFFFFFFFFFFFFFFFFFFFFFFFFFFFFFFFFFFFFFF AND SWAP1 POP SWAP1 JUMP JUMPDEST PUSH1 0x7 PUSH1 0x20 MSTORE DUP1 PUSH1 0x0 MSTORE PUSH1 0x40 PUSH1 0x0 KECCAK256 PUSH1 0x0 SWAP2 POP SWAP1 POP DUP1 PUSH1 0x0 ADD SLOAD SWAP1 DUP1 PUSH1 0x1 ADD SLOAD SWAP1 DUP1 PUSH1 0x2 ADD DUP1 SLOAD PUSH2 0x1266 SWAP1 PUSH2 0x278A JUMP JUMPDEST DUP1 PUSH1 0x1F ADD PUSH1 0x20 DUP1 SWAP2 DIV MUL PUSH1 0x20 ADD PUSH1 0x40 MLOAD SWAP1 DUP2 ADD PUSH1 0x40 MSTORE DUP1 SWAP3 SWAP2 SWAP1 DUP2 DUP2 MSTORE PUSH1 0x20 ADD DUP3 DUP1 SLOAD PUSH2 0x1292 SWAP1 PUSH2 0x278A JUMP JUMPDEST DUP1 ISZERO PUSH2 0x12DF JUMPI DUP1 PUSH1 0x1F LT PUSH2 0x12B4 JUMPI PUSH2 0x100 DUP1 DUP4 SLOAD DIV MUL DUP4 MSTORE SWAP2 PUSH1 0x20 ADD SWAP2 PUSH2 0x12DF JUMP JUMPDEST DUP3 ADD SWAP2 SWAP1 PUSH1 0x0 MSTORE PUSH1 0x20 PUSH1 0x0 KECCAK256 SWAP1 JUMPDEST DUP2 SLOAD DUP2 MSTORE SWAP1 PUSH1 0x1 ADD SWAP1 PUSH1 0x20 ADD DUP1 DUP4 GT PUSH2 0x12C2 JUMPI DUP3 SWAP1 SUB PUSH1 0x1F AND DUP3 ADD SWAP2 JUMPDEST POP POP POP POP POP SWAP1 DUP1 PUSH1 0x3 ADD SLOAD SWAP1 DUP1 PUSH1 0x4 ADD SLOAD SWAP1 DUP1 PUSH1 0x5 ADD SLOAD SWAP1 DUP1 PUSH1 0x6 ADD SLOAD SWAP1 DUP1 PUSH1 0x7 ADD SLOAD SWAP1 POP DUP9 JUMP JUMPDEST PUSH1 0x9 PUSH1 0x20 MSTORE DUP1 PUSH1 0x0 MSTORE PUSH1 0x40 PUSH1 0x0 KECCAK256 PUSH1 0x0 SWAP2 POP SWAP1 POP DUP1 PUSH1 0x0 ADD PUSH1 0x0 SWAP1 SLOAD SWAP1 PUSH2 0x100 EXP SWAP1 DIV PUSH1 0xFF AND SWAP1 DUP1 PUSH1 0x1 ADD SLOAD SWAP1 DUP1 PUSH1 0x2 ADD SLOAD SWAP1 POP DUP4 JUMP JUMPDEST PUSH1 0x6 PUSH1 0x0 SWAP1 SLOAD SWAP1 PUSH2 0x100 EXP SWAP1 DIV PUSH20 0xFFFFFFFFFFFFFFFFFFFFFFFFFFFFFFFFFFFFFFFF AND PUSH20 0xFFFFFFFFFFFFFFFFFFFFFFFFFFFFFFFFFFFFFFFF AND PUSH2 0x137F PUSH2 0x1E1A JUMP JUMPDEST PUSH20 0xFFFFFFFFFFFFFFFFFFFFFFFFFFFFFFFFFFFFFFFF AND EQ PUSH2 0x13D5 JUMPI PUSH1 0x40 MLOAD PUSH32 0x8C379A000000000000000000000000000000000000000000000000000000000 DUP2 MSTORE PUSH1 0x4 ADD PUSH2 0x13CC SWAP1 PUSH2 0x2DC9 JUMP JUMPDEST PUSH1 0x40 MLOAD DUP1 SWAP2 SUB SWAP1 REVERT JUMPDEST PUSH1 0x0 DUP8 GT PUSH2 0x1418 JUMPI PUSH1 0x40 MLOAD PUSH32 0x8C379A000000000000000000000000000000000000000000000000000000000 DUP2 MSTORE PUSH1 0x4 ADD PUSH2 0x140F SWAP1 PUSH2 0x2E35 JUMP JUMPDEST PUSH1 0x40 MLOAD DUP1 SWAP2 SUB SWAP1 REVERT JUMPDEST PUSH1 0x0 DUP7 GT PUSH2 0x145B JUMPI PUSH1 0x40 MLOAD PUSH32 0x8C379A000000000000000000000000000000000000000000000000000000000 DUP2 MSTORE PUSH1 0x4 ADD PUSH2 0x1452 SWAP1 PUSH2 0x2E35 JUMP JUMPDEST PUSH1 0x40 MLOAD DUP1 SWAP2 SUB SWAP1 REVERT JUMPDEST PUSH1 0x64 DUP6 GT ISZERO PUSH2 0x149F JUMPI PUSH1 0x40 MLOAD PUSH32 0x8C379A000000000000000000000000000000000000000000000000000000000 DUP2 MSTORE PUSH1 0x4 ADD PUSH2 0x1496 SWAP1 PUSH2 0x2EA1 JUMP JUMPDEST PUSH1 0x40 MLOAD DUP1 SWAP2 SUB SWAP1 REVERT JUMPDEST PUSH1 0x64 DUP5 GT ISZERO PUSH2 0x14E3 JUMPI PUSH1 0x40 MLOAD PUSH32 0x8C379A000000000000000000000000000000000000000000000000000000000 DUP2 MSTORE PUSH1 0x4 ADD PUSH2 0x14DA SWAP1 PUSH2 0x2F0D JUMP JUMPDEST PUSH1 0x40 MLOAD DUP1 SWAP2 SUB SWAP1 REVERT JUMPDEST PUSH1 0xB DUP3 MLOAD EQ DUP1 ISZERO PUSH2 0x14F5 JUMPI POP PUSH1 0xB DUP2 MLOAD EQ JUMPDEST PUSH2 0x1534 JUMPI PUSH1 0x40 MLOAD PUSH32 0x8C379A000000000000000000000000000000000000000000000000000000000 DUP2 MSTORE PUSH1 0x4 ADD PUSH2 0x152B SWAP1 PUSH2 0x2F79 JUMP JUMPDEST PUSH1 0x40 MLOAD DUP1 SWAP2 SUB SWAP1 REVERT JUMPDEST PUSH1 0x1 PUSH1 0x4 PUSH1 0x0 DUP3 DUP3 SLOAD PUSH2 0x1547 SWAP2 SWAP1 PUSH2 0x2BFD JUMP JUMPDEST SWAP3 POP POP DUP2 SWAP1 SSTORE POP DUP7 PUSH1 0x7 PUSH1 0x0 PUSH1 0x4 SLOAD DUP2 MSTORE PUSH1 0x20 ADD SWAP1 DUP2 MSTORE PUSH1 0x20 ADD PUSH1 0x0 KECCAK256 PUSH1 0x0 ADD DUP2 SWAP1 SSTORE POP DUP6 PUSH1 0x7 PUSH1 0x0 PUSH1 0x4 SLOAD DUP2 MSTORE PUSH1 0x20 ADD SWAP1 DUP2 MSTORE PUSH1 0x20 ADD PUSH1 0x0 KECCAK256 PUSH1 0x1 ADD DUP2 SWAP1 SSTORE POP DUP8 PUSH1 0x7 PUSH1 0x0 PUSH1 0x4 SLOAD DUP2 MSTORE PUSH1 0x20 ADD SWAP1 DUP2 MSTORE PUSH1 0x20 ADD PUSH1 0x0 KECCAK256 PUSH1 0x2 ADD SWAP1 DUP2 PUSH2 0x15AD SWAP2 SWAP1 PUSH2 0x313B JUMP JUMPDEST POP DUP4 PUSH1 0x7 PUSH1 0x0 PUSH1 0x4 SLOAD DUP2 MSTORE PUSH1 0x20 ADD SWAP1 DUP2 MSTORE PUSH1 0x20 ADD PUSH1 0x0 KECCAK256 PUSH1 0x3 ADD DUP2 SWAP1 SSTORE POP DUP5 PUSH1 0x7 PUSH1 0x0 PUSH1 0x4 SLOAD DUP2 MSTORE PUSH1 0x20 ADD SWAP1 DUP2 MSTORE PUSH1 0x20 ADD PUSH1 0x0 KECCAK256 PUSH1 0x4 ADD DUP2 SWAP1 SSTORE POP PUSH1 0x0 DUP1 JUMPDEST PUSH1 0xB DUP2 LT ISZERO PUSH2 0x16CB JUMPI DUP4 DUP2 DUP2 MLOAD DUP2 LT PUSH2 0x1608 JUMPI PUSH2 0x1607 PUSH2 0x320D JUMP JUMPDEST JUMPDEST PUSH1 0x20 MUL PUSH1 0x20 ADD ADD MLOAD PUSH1 0x8 PUSH1 0x0 PUSH1 0x4 SLOAD DUP2 MSTORE PUSH1 0x20 ADD SWAP1 DUP2 MSTORE PUSH1 0x20 ADD PUSH1 0x0 KECCAK256 PUSH1 0x0 DUP4 DUP2 MSTORE PUSH1 0x20 ADD SWAP1 DUP2 MSTORE PUSH1 0x20 ADD PUSH1 0x0 KECCAK256 PUSH1 0x0 ADD DUP2 SWAP1 SSTORE POP DUP3 DUP2 DUP2 MLOAD DUP2 LT PUSH2 0x1650 JUMPI PUSH2 0x164F PUSH2 0x320D JUMP JUMPDEST JUMPDEST PUSH1 0x20 MUL PUSH1 0x20 ADD ADD MLOAD DUP3 PUSH2 0x1663 SWAP2 SWAP1 PUSH2 0x2BFD JUMP JUMPDEST PUSH1 0x8 PUSH1 0x0 PUSH1 0x4 SLOAD DUP2 MSTORE PUSH1 0x20 ADD SWAP1 DUP2 MSTORE PUSH1 0x20 ADD PUSH1 0x0 KECCAK256 PUSH1 0x0 DUP4 DUP2 MSTORE PUSH1 0x20 ADD SWAP1 DUP2 MSTORE PUSH1 0x20 ADD PUSH1 0x0 KECCAK256 PUSH1 0x1 ADD DUP2 SWAP1 SSTORE POP DUP3 DUP2 DUP2 MLOAD DUP2 LT PUSH2 0x16A3 JUMPI PUSH2 0x16A2 PUSH2 0x320D JUMP JUMPDEST JUMPDEST PUSH1 0x20 MUL PUSH1 0x20 ADD ADD MLOAD DUP3 PUSH2 0x16B6 SWAP2 SWAP1 PUSH2 0x2BFD JUMP JUMPDEST SWAP2 POP DUP1 DUP1 PUSH2 0x16C3 SWAP1 PUSH2 0x2C5A JUMP JUMPDEST SWAP2 POP POP PUSH2 0x15EC JUMP JUMPDEST POP PUSH1 0x0 PUSH1 0x3 PUSH1 0x0 SWAP1 SLOAD SWAP1 PUSH2 0x100 EXP SWAP1 DIV PUSH20 0xFFFFFFFFFFFFFFFFFFFFFFFFFFFFFFFFFFFFFFFF AND PUSH20 0xFFFFFFFFFFFFFFFFFFFFFFFFFFFFFFFFFFFFFFFF AND PUSH4 0x70A08231 ADDRESS PUSH1 0x40 MLOAD DUP3 PUSH4 0xFFFFFFFF AND PUSH1 0xE0 SHL DUP2 MSTORE PUSH1 0x4 ADD PUSH2 0x1729 SWAP2 SWAP1 PUSH2 0x2252 JUMP JUMPDEST PUSH1 0x20 PUSH1 0x40 MLOAD DUP1 DUP4 SUB DUP2 DUP7 GAS STATICCALL ISZERO DUP1 ISZERO PUSH2 0x1746 JUMPI RETURNDATASIZE PUSH1 0x0 DUP1 RETURNDATACOPY RETURNDATASIZE PUSH1 0x0 REVERT JUMPDEST POP POP POP POP PUSH1 0x40 MLOAD RETURNDATASIZE PUSH1 0x1F NOT PUSH1 0x1F DUP3 ADD AND DUP3 ADD DUP1 PUSH1 0x40 MSTORE POP DUP2 ADD SWAP1 PUSH2 0x176A SWAP2 SWAP1 PUSH2 0x29F1 JUMP JUMPDEST SWAP1 POP DUP8 PUSH1 0x3 PUSH1 0x0 SWAP1 SLOAD SWAP1 PUSH2 0x100 EXP SWAP1 DIV PUSH20 0xFFFFFFFFFFFFFFFFFFFFFFFFFFFFFFFFFFFFFFFF AND PUSH20 0xFFFFFFFFFFFFFFFFFFFFFFFFFFFFFFFFFFFFFFFF AND PUSH4 0x70A08231 PUSH1 0x6 PUSH1 0x0 SWAP1 SLOAD SWAP1 PUSH2 0x100 EXP SWAP1 DIV PUSH20 0xFFFFFFFFFFFFFFFFFFFFFFFFFFFFFFFFFFFFFFFF AND PUSH1 0x40 MLOAD DUP3 PUSH4 0xFFFFFFFF AND PUSH1 0xE0 SHL DUP2 MSTORE PUSH1 0x4 ADD PUSH2 0x17EA SWAP2 SWAP1 PUSH2 0x2252 JUMP JUMPDEST PUSH1 0x20 PUSH1 0x40 MLOAD DUP1 DUP4 SUB DUP2 DUP7 GAS STATICCALL ISZERO DUP1 ISZERO PUSH2 0x1807 JUMPI RETURNDATASIZE PUSH1 0x0 DUP1 RETURNDATACOPY RETURNDATASIZE PUSH1 0x0 REVERT JUMPDEST POP POP POP POP PUSH1 0x40 MLOAD RETURNDATASIZE PUSH1 0x1F NOT PUSH1 0x1F DUP3 ADD AND DUP3 ADD DUP1 PUSH1 0x40 MSTORE POP DUP2 ADD SWAP1 PUSH2 0x182B SWAP2 SWAP1 PUSH2 0x29F1 JUMP JUMPDEST LT ISZERO PUSH2 0x186C JUMPI PUSH1 0x40 MLOAD PUSH32 0x8C379A000000000000000000000000000000000000000000000000000000000 DUP2 MSTORE PUSH1 0x4 ADD PUSH2 0x1863 SWAP1 PUSH2 0x2A90 JUMP JUMPDEST PUSH1 0x40 MLOAD DUP1 SWAP2 SUB SWAP1 REVERT JUMPDEST PUSH1 0x3 PUSH1 0x0 SWAP1 SLOAD SWAP1 PUSH2 0x100 EXP SWAP1 DIV PUSH20 0xFFFFFFFFFFFFFFFFFFFFFFFFFFFFFFFFFFFFFFFF AND PUSH20 0xFFFFFFFFFFFFFFFFFFFFFFFFFFFFFFFFFFFFFFFF AND PUSH4 0x23B872DD PUSH1 0x6 PUSH1 0x0 SWAP1 SLOAD SWAP1 PUSH2 0x100 EXP SWAP1 DIV PUSH20 0xFFFFFFFFFFFFFFFFFFFFFFFFFFFFFFFFFFFFFFFF AND ADDRESS DUP12 PUSH1 0x40 MLOAD DUP5 PUSH4 0xFFFFFFFF AND PUSH1 0xE0 SHL DUP2 MSTORE PUSH1 0x4 ADD PUSH2 0x18ED SWAP4 SWAP3 SWAP2 SWAP1 PUSH2 0x2AB0 JUMP JUMPDEST PUSH1 0x20 PUSH1 0x40 MLOAD DUP1 DUP4 SUB DUP2 PUSH1 0x0 DUP8 GAS CALL ISZERO DUP1 ISZERO PUSH2 0x190C JUMPI RETURNDATASIZE PUSH1 0x0 DUP1 RETURNDATACOPY RETURNDATASIZE PUSH1 0x0 REVERT JUMPDEST POP POP POP POP PUSH1 0x40 MLOAD RETURNDATASIZE PUSH1 0x1F NOT PUSH1 0x1F DUP3 ADD AND DUP3 ADD DUP1 PUSH1 0x40 MSTORE POP DUP2 ADD SWAP1 PUSH2 0x1930 SWAP2 SWAP1 PUSH2 0x2B13 JUMP JUMPDEST POP PUSH1 0x0 PUSH1 0x3 PUSH1 0x0 SWAP1 SLOAD SWAP1 PUSH2 0x100 EXP SWAP1 DIV PUSH20 0xFFFFFFFFFFFFFFFFFFFFFFFFFFFFFFFFFFFFFFFF AND PUSH20 0xFFFFFFFFFFFFFFFFFFFFFFFFFFFFFFFFFFFFFFFF AND PUSH4 0x70A08231 ADDRESS PUSH1 0x40 MLOAD DUP3 PUSH4 0xFFFFFFFF AND PUSH1 0xE0 SHL DUP2 MSTORE PUSH1 0x4 ADD PUSH2 0x198E SWAP2 SWAP1 PUSH2 0x2252 JUMP JUMPDEST PUSH1 0x20 PUSH1 0x40 MLOAD DUP1 DUP4 SUB DUP2 DUP7 GAS STATICCALL ISZERO DUP1 ISZERO PUSH2 0x19AB JUMPI RETURNDATASIZE PUSH1 0x0 DUP1 RETURNDATACOPY RETURNDATASIZE PUSH1 0x0 REVERT JUMPDEST POP POP POP POP PUSH1 0x40 MLOAD RETURNDATASIZE PUSH1 0x1F NOT PUSH1 0x1F DUP3 ADD AND DUP3 ADD DUP1 PUSH1 0x40 MSTORE POP DUP2 ADD SWAP1 PUSH2 0x19CF SWAP2 SWAP1 PUSH2 0x29F1 JUMP JUMPDEST SWAP1 POP DUP6 DUP4 PUSH2 0x19DD SWAP2 SWAP1 PUSH2 0x2BFD JUMP JUMPDEST SWAP3 POP PUSH4 0x3B9ACA00 DUP4 EQ PUSH2 0x1A25 JUMPI PUSH1 0x40 MLOAD PUSH32 0x8C379A000000000000000000000000000000000000000000000000000000000 DUP2 MSTORE PUSH1 0x4 ADD PUSH2 0x1A1C SWAP1 PUSH2 0x3288 JUMP JUMPDEST PUSH1 0x40 MLOAD DUP1 SWAP2 SUB SWAP1 REVERT JUMPDEST DUP6 PUSH1 0x8 PUSH1 0x0 PUSH1 0x4 SLOAD DUP2 MSTORE PUSH1 0x20 ADD SWAP1 DUP2 MSTORE PUSH1 0x20 ADD PUSH1 0x0 KECCAK256 PUSH1 0x0 PUSH1 0xB DUP2 MSTORE PUSH1 0x20 ADD SWAP1 DUP2 MSTORE PUSH1 0x20 ADD PUSH1 0x0 KECCAK256 PUSH1 0x1 ADD DUP2 SWAP1 SSTORE POP DUP2 DUP2 PUSH2 0x1A60 SWAP2 SWAP1 PUSH2 0x2B40 JUMP JUMPDEST PUSH1 0x8 PUSH1 0x0 PUSH1 0x4 SLOAD DUP2 MSTORE PUSH1 0x20 ADD SWAP1 DUP2 MSTORE PUSH1 0x20 ADD PUSH1 0x0 KECCAK256 PUSH1 0x0 PUSH1 0xB DUP2 MSTORE PUSH1 0x20 ADD SWAP1 DUP2 MSTORE PUSH1 0x20 ADD PUSH1 0x0 KECCAK256 PUSH1 0x0 ADD DUP2 SWAP1 SSTORE POP PUSH32 0xDA5F1C502BF1EBB6B912CFAB45836DC0DB0102B387E4ACB76C3204EE59D28A0F DUP12 DUP12 DUP12 DUP12 DUP12 DUP12 DUP12 DUP12 PUSH1 0x4 SLOAD PUSH1 0x40 MLOAD PUSH2 0x1ACF SWAP10 SWAP9 SWAP8 SWAP7 SWAP6 SWAP5 SWAP4 SWAP3 SWAP2 SWAP1 PUSH2 0x33B2 JUMP JUMPDEST PUSH1 0x40 MLOAD DUP1 SWAP2 SUB SWAP1 LOG1 POP POP POP POP POP POP POP POP POP POP POP JUMP JUMPDEST PUSH1 0x0 PUSH20 0xFFFFFFFFFFFFFFFFFFFFFFFFFFFFFFFFFFFFFFFF AND PUSH1 0x6 PUSH1 0x0 SWAP1 SLOAD SWAP1 PUSH2 0x100 EXP SWAP1 DIV PUSH20 0xFFFFFFFFFFFFFFFFFFFFFFFFFFFFFFFFFFFFFFFF AND PUSH20 0xFFFFFFFFFFFFFFFFFFFFFFFFFFFFFFFFFFFFFFFF AND EQ PUSH2 0x1B75 JUMPI PUSH1 0x40 MLOAD PUSH32 0x8C379A000000000000000000000000000000000000000000000000000000000 DUP2 MSTORE PUSH1 0x4 ADD PUSH2 0x1B6C SWAP1 PUSH2 0x34B4 JUMP JUMPDEST PUSH1 0x40 MLOAD DUP1 SWAP2 SUB SWAP1 REVERT JUMPDEST DUP1 PUSH1 0x6 PUSH1 0x0 PUSH2 0x100 EXP DUP2 SLOAD DUP2 PUSH20 0xFFFFFFFFFFFFFFFFFFFFFFFFFFFFFFFFFFFFFFFF MUL NOT AND SWAP1 DUP4 PUSH20 0xFFFFFFFFFFFFFFFFFFFFFFFFFFFFFFFFFFFFFFFF AND MUL OR SWAP1 SSTORE POP POP JUMP JUMPDEST PUSH1 0x5 SLOAD DUP2 JUMP JUMPDEST PUSH1 0x4 SLOAD DUP2 JUMP JUMPDEST PUSH2 0x1BCD PUSH2 0x1E1A JUMP JUMPDEST PUSH20 0xFFFFFFFFFFFFFFFFFFFFFFFFFFFFFFFFFFFFFFFF AND PUSH2 0x1BEB PUSH2 0x120D JUMP JUMPDEST PUSH20 0xFFFFFFFFFFFFFFFFFFFFFFFFFFFFFFFFFFFFFFFF AND EQ PUSH2 0x1C41 JUMPI PUSH1 0x40 MLOAD PUSH32 0x8C379A000000000000000000000000000000000000000000000000000000000 DUP2 MSTORE PUSH1 0x4 ADD PUSH2 0x1C38 SWAP1 PUSH2 0x2D5D JUMP JUMPDEST PUSH1 0x40 MLOAD DUP1 SWAP2 SUB SWAP1 REVERT JUMPDEST PUSH1 0x0 PUSH20 0xFFFFFFFFFFFFFFFFFFFFFFFFFFFFFFFFFFFFFFFF AND DUP2 PUSH20 0xFFFFFFFFFFFFFFFFFFFFFFFFFFFFFFFFFFFFFFFF AND SUB PUSH2 0x1CB0 JUMPI PUSH1 0x40 MLOAD PUSH32 0x8C379A000000000000000000000000000000000000000000000000000000000 DUP2 MSTORE PUSH1 0x4 ADD PUSH2 0x1CA7 SWAP1 PUSH2 0x3546 JUMP JUMPDEST PUSH1 0x40 MLOAD DUP1 SWAP2 SUB SWAP1 REVERT JUMPDEST PUSH2 0x1CB9 DUP2 PUSH2 0x1E22 JUMP JUMPDEST POP JUMP JUMPDEST PUSH1 0x3 PUSH1 0x0 SWAP1 SLOAD SWAP1 PUSH2 0x100 EXP SWAP1 DIV PUSH20 0xFFFFFFFFFFFFFFFFFFFFFFFFFFFFFFFFFFFFFFFF AND DUP2 JUMP JUMPDEST PUSH1 0x0 DUP1 PUSH1 0x0 PUSH2 0x1CFC PUSH1 0xC NUMBER PUSH2 0x1CF7 SWAP2 SWAP1 PUSH2 0x3566 JUMP JUMPDEST PUSH2 0x1EE8 JUMP JUMPDEST SWAP1 POP PUSH1 0x0 SWAP2 POP PUSH1 0x0 JUMPDEST PUSH1 0xC DUP2 LT ISZERO PUSH2 0x1E10 JUMPI PUSH1 0x0 PUSH1 0x8 PUSH1 0x0 DUP8 DUP2 MSTORE PUSH1 0x20 ADD SWAP1 DUP2 MSTORE PUSH1 0x20 ADD PUSH1 0x0 KECCAK256 PUSH1 0x0 DUP4 DUP2 MSTORE PUSH1 0x20 ADD SWAP1 DUP2 MSTORE PUSH1 0x20 ADD PUSH1 0x0 KECCAK256 PUSH1 0x1 ADD SLOAD GT DUP1 ISZERO PUSH2 0x1D6C JUMPI POP PUSH1 0x8 PUSH1 0x0 DUP7 DUP2 MSTORE PUSH1 0x20 ADD SWAP1 DUP2 MSTORE PUSH1 0x20 ADD PUSH1 0x0 KECCAK256 PUSH1 0x0 DUP3 DUP2 MSTORE PUSH1 0x20 ADD SWAP1 DUP2 MSTORE PUSH1 0x20 ADD PUSH1 0x0 KECCAK256 PUSH1 0x1 ADD SLOAD DUP3 GT ISZERO JUMPDEST ISZERO PUSH2 0x1DFD JUMPI PUSH1 0x8 PUSH1 0x0 DUP7 DUP2 MSTORE PUSH1 0x20 ADD SWAP1 DUP2 MSTORE PUSH1 0x20 ADD PUSH1 0x0 KECCAK256 PUSH1 0x0 DUP3 DUP2 MSTORE PUSH1 0x20 ADD SWAP1 DUP2 MSTORE PUSH1 0x20 ADD PUSH1 0x0 KECCAK256 PUSH1 0x0 ADD SLOAD PUSH1 0xA PUSH1 0x0 DUP9 DUP2 MSTORE PUSH1 0x20 ADD SWAP1 DUP2 MSTORE PUSH1 0x20 ADD PUSH1 0x0 KECCAK256 PUSH1 0x0 DUP10 DUP2 MSTORE PUSH1 0x20 ADD SWAP1 DUP2 MSTORE PUSH1 0x20 ADD PUSH1 0x0 KECCAK256 DUP2 SWAP1 SSTORE POP PUSH1 0x8 PUSH1 0x0 DUP7 DUP2 MSTORE PUSH1 0x20 ADD SWAP1 DUP2 MSTORE PUSH1 0x20 ADD PUSH1 0x0 KECCAK256 PUSH1 0x0 DUP3 DUP2 MSTORE PUSH1 0x20 ADD SWAP1 DUP2 MSTORE PUSH1 0x20 ADD PUSH1 0x0 KECCAK256 PUSH1 0x0 ADD SLOAD SWAP4 POP PUSH1 0xB DUP2 SUB PUSH2 0x1DF8 JUMPI PUSH1 0x1 SWAP3 POP JUMPDEST PUSH2 0x1E10 JUMP JUMPDEST DUP1 DUP1 PUSH2 0x1E08 SWAP1 PUSH2 0x2C5A JUMP JUMPDEST SWAP2 POP POP PUSH2 0x1D05 JUMP JUMPDEST POP POP SWAP4 POP SWAP4 SWAP2 POP POP JUMP JUMPDEST PUSH1 0x0 CALLER SWAP1 POP SWAP1 JUMP JUMPDEST PUSH1 0x0 PUSH1 0x1 PUSH1 0x0 SWAP1 SLOAD SWAP1 PUSH2 0x100 EXP SWAP1 DIV PUSH20 0xFFFFFFFFFFFFFFFFFFFFFFFFFFFFFFFFFFFFFFFF AND SWAP1 POP DUP2 PUSH1 0x1 PUSH1 0x0 PUSH2 0x100 EXP DUP2 SLOAD DUP2 PUSH20 0xFFFFFFFFFFFFFFFFFFFFFFFFFFFFFFFFFFFFFFFF MUL NOT AND SWAP1 DUP4 PUSH20 0xFFFFFFFFFFFFFFFFFFFFFFFFFFFFFFFFFFFFFFFF AND MUL OR SWAP1 SSTORE POP DUP2 PUSH20 0xFFFFFFFFFFFFFFFFFFFFFFFFFFFFFFFFFFFFFFFF AND DUP2 PUSH20 0xFFFFFFFFFFFFFFFFFFFFFFFFFFFFFFFFFFFFFFFF AND PUSH32 0x8BE0079C531659141344CD1FD0A4F28419497F9722A3DAAFE3B4186F6B6457E0 PUSH1 0x40 MLOAD PUSH1 0x40 MLOAD DUP1 SWAP2 SUB SWAP1 LOG3 POP POP JUMP JUMPDEST PUSH1 0x0 PUSH1 0x1 PUSH1 0x5 PUSH1 0x0 DUP3 DUP3 SLOAD PUSH2 0x1EFD SWAP2 SWAP1 PUSH2 0x2BFD JUMP JUMPDEST SWAP3 POP POP DUP2 SWAP1 SSTORE POP PUSH4 0x3B9ACA00 PUSH1 0x5 SLOAD PUSH2 0x1F2C DUP5 PUSH1 0x5 SLOAD PUSH2 0x1F1D SWAP2 SWAP1 PUSH2 0x2BFD JUMP JUMPDEST NUMBER PUSH2 0x1FB2 SWAP1 SWAP2 SWAP1 PUSH4 0xFFFFFFFF AND JUMP JUMPDEST PUSH2 0x1F4C DUP6 PUSH1 0x5 SLOAD PUSH2 0x1F3D SWAP2 SWAP1 PUSH2 0x2BFD JUMP JUMPDEST TIMESTAMP PUSH2 0x1FB2 SWAP1 SWAP2 SWAP1 PUSH4 0xFFFFFFFF AND JUMP JUMPDEST PUSH2 0x1F6C DUP7 PUSH1 0x5 SLOAD PUSH2 0x1F5D SWAP2 SWAP1 PUSH2 0x2BFD JUMP JUMPDEST PREVRANDAO PUSH2 0x1FB2 SWAP1 SWAP2 SWAP1 PUSH4 0xFFFFFFFF AND JUMP JUMPDEST PUSH2 0x1F74 PUSH2 0x1E1A JUMP JUMPDEST PUSH1 0x40 MLOAD PUSH1 0x20 ADD PUSH2 0x1F88 SWAP6 SWAP5 SWAP4 SWAP3 SWAP2 SWAP1 PUSH2 0x3600 JUMP JUMPDEST PUSH1 0x40 MLOAD PUSH1 0x20 DUP2 DUP4 SUB SUB DUP2 MSTORE SWAP1 PUSH1 0x40 MSTORE DUP1 MLOAD SWAP1 PUSH1 0x20 ADD KECCAK256 PUSH1 0x0 SHR PUSH2 0x1FAB SWAP2 SWAP1 PUSH2 0x3566 JUMP JUMPDEST SWAP1 POP SWAP2 SWAP1 POP JUMP JUMPDEST PUSH1 0x0 DUP2 DUP4 PUSH2 0x1FC0 SWAP2 SWAP1 PUSH2 0x2BFD JUMP JUMPDEST SWAP1 POP SWAP3 SWAP2 POP POP JUMP JUMPDEST PUSH1 0x0 DUP2 SWAP1 POP SWAP2 SWAP1 POP JUMP JUMPDEST PUSH2 0x1FDB DUP2 PUSH2 0x1FC8 JUMP JUMPDEST DUP3 MSTORE POP POP JUMP JUMPDEST PUSH1 0x0 PUSH1 0x20 DUP3 ADD SWAP1 POP PUSH2 0x1FF6 PUSH1 0x0 DUP4 ADD DUP5 PUSH2 0x1FD2 JUMP JUMPDEST SWAP3 SWAP2 POP POP JUMP JUMPDEST PUSH1 0x0 DUP2 MLOAD SWAP1 POP SWAP2 SWAP1 POP JUMP JUMPDEST PUSH1 0x0 DUP3 DUP3 MSTORE PUSH1 0x20 DUP3 ADD SWAP1 POP SWAP3 SWAP2 POP POP JUMP JUMPDEST PUSH1 0x0 JUMPDEST DUP4 DUP2 LT ISZERO PUSH2 0x2036 JUMPI DUP1 DUP3 ADD MLOAD DUP2 DUP5 ADD MSTORE PUSH1 0x20 DUP2 ADD SWAP1 POP PUSH2 0x201B JUMP JUMPDEST PUSH1 0x0 DUP5 DUP5 ADD MSTORE POP POP POP POP JUMP JUMPDEST PUSH1 0x0 PUSH1 0x1F NOT PUSH1 0x1F DUP4 ADD AND SWAP1 POP SWAP2 SWAP1 POP JUMP JUMPDEST PUSH1 0x0 PUSH2 0x205E DUP3 PUSH2 0x1FFC JUMP JUMPDEST PUSH2 0x2068 DUP2 DUP6 PUSH2 0x2007 JUMP JUMPDEST SWAP4 POP PUSH2 0x2078 DUP2 DUP6 PUSH1 0x20 DUP7 ADD PUSH2 0x2018 JUMP JUMPDEST PUSH2 0x2081 DUP2 PUSH2 0x2042 JUMP JUMPDEST DUP5 ADD SWAP2 POP POP SWAP3 SWAP2 POP POP JUMP JUMPDEST PUSH1 0x0 PUSH1 0x20 DUP3 ADD SWAP1 POP DUP2 DUP2 SUB PUSH1 0x0 DUP4 ADD MSTORE PUSH2 0x20A6 DUP2 DUP5 PUSH2 0x2053 JUMP JUMPDEST SWAP1 POP SWAP3 SWAP2 POP POP JUMP JUMPDEST PUSH1 0x0 PUSH1 0x40 MLOAD SWAP1 POP SWAP1 JUMP JUMPDEST PUSH1 0x0 DUP1 REVERT JUMPDEST PUSH1 0x0 DUP1 REVERT JUMPDEST PUSH1 0x0 PUSH20 0xFFFFFFFFFFFFFFFFFFFFFFFFFFFFFFFFFFFFFFFF DUP3 AND SWAP1 POP SWAP2 SWAP1 POP JUMP JUMPDEST PUSH1 0x0 PUSH2 0x20ED DUP3 PUSH2 0x20C2 JUMP JUMPDEST SWAP1 POP SWAP2 SWAP1 POP JUMP JUMPDEST PUSH2 0x20FD DUP2 PUSH2 0x20E2 JUMP JUMPDEST DUP2 EQ PUSH2 0x2108 JUMPI PUSH1 0x0 DUP1 REVERT JUMPDEST POP JUMP JUMPDEST PUSH1 0x0 DUP2 CALLDATALOAD SWAP1 POP PUSH2 0x211A DUP2 PUSH2 0x20F4 JUMP JUMPDEST SWAP3 SWAP2 POP POP JUMP JUMPDEST PUSH1 0x0 PUSH1 0x20 DUP3 DUP5 SUB SLT ISZERO PUSH2 0x2136 JUMPI PUSH2 0x2135 PUSH2 0x20B8 JUMP JUMPDEST JUMPDEST PUSH1 0x0 PUSH2 0x2144 DUP5 DUP3 DUP6 ADD PUSH2 0x210B JUMP JUMPDEST SWAP2 POP POP SWAP3 SWAP2 POP POP JUMP JUMPDEST PUSH2 0x2156 DUP2 PUSH2 0x1FC8 JUMP JUMPDEST DUP2 EQ PUSH2 0x2161 JUMPI PUSH1 0x0 DUP1 REVERT JUMPDEST POP JUMP JUMPDEST PUSH1 0x0 DUP2 CALLDATALOAD SWAP1 POP PUSH2 0x2173 DUP2 PUSH2 0x214D JUMP JUMPDEST SWAP3 SWAP2 POP POP JUMP JUMPDEST PUSH1 0x0 DUP1 PUSH1 0x0 DUP1 PUSH1 0x0 DUP1 PUSH1 0x0 DUP1 PUSH1 0x0 PUSH2 0x120 DUP11 DUP13 SUB SLT ISZERO PUSH2 0x219C JUMPI PUSH2 0x219B PUSH2 0x20B8 JUMP JUMPDEST JUMPDEST PUSH1 0x0 PUSH2 0x21AA DUP13 DUP3 DUP14 ADD PUSH2 0x2164 JUMP JUMPDEST SWAP10 POP POP PUSH1 0x20 PUSH2 0x21BB DUP13 DUP3 DUP14 ADD PUSH2 0x2164 JUMP JUMPDEST SWAP9 POP POP PUSH1 0x40 PUSH2 0x21CC DUP13 DUP3 DUP14 ADD PUSH2 0x210B JUMP JUMPDEST SWAP8 POP POP PUSH1 0x60 PUSH2 0x21DD DUP13 DUP3 DUP14 ADD PUSH2 0x210B JUMP JUMPDEST SWAP7 POP POP PUSH1 0x80 PUSH2 0x21EE DUP13 DUP3 DUP14 ADD PUSH2 0x210B JUMP JUMPDEST SWAP6 POP POP PUSH1 0xA0 PUSH2 0x21FF DUP13 DUP3 DUP14 ADD PUSH2 0x2164 JUMP JUMPDEST SWAP5 POP POP PUSH1 0xC0 PUSH2 0x2210 DUP13 DUP3 DUP14 ADD PUSH2 0x2164 JUMP JUMPDEST SWAP4 POP POP PUSH1 0xE0 PUSH2 0x2221 DUP13 DUP3 DUP14 ADD PUSH2 0x2164 JUMP JUMPDEST SWAP3 POP POP PUSH2 0x100 PUSH2 0x2233 DUP13 DUP3 DUP14 ADD PUSH2 0x210B JUMP JUMPDEST SWAP2 POP POP SWAP3 SWAP6 SWAP9 POP SWAP3 SWAP6 SWAP9 POP SWAP3 SWAP6 SWAP9 JUMP JUMPDEST PUSH2 0x224C DUP2 PUSH2 0x20E2 JUMP JUMPDEST DUP3 MSTORE POP POP JUMP JUMPDEST PUSH1 0x0 PUSH1 0x20 DUP3 ADD SWAP1 POP PUSH2 0x2267 PUSH1 0x0 DUP4 ADD DUP5 PUSH2 0x2243 JUMP JUMPDEST SWAP3 SWAP2 POP POP JUMP JUMPDEST PUSH1 0x0 DUP1 PUSH1 0x40 DUP4 DUP6 SUB SLT ISZERO PUSH2 0x2284 JUMPI PUSH2 0x2283 PUSH2 0x20B8 JUMP JUMPDEST JUMPDEST PUSH1 0x0 PUSH2 0x2292 DUP6 DUP3 DUP7 ADD PUSH2 0x2164 JUMP JUMPDEST SWAP3 POP POP PUSH1 0x20 PUSH2 0x22A3 DUP6 DUP3 DUP7 ADD PUSH2 0x2164 JUMP JUMPDEST SWAP2 POP POP SWAP3 POP SWAP3 SWAP1 POP JUMP JUMPDEST PUSH1 0x0 PUSH1 0x40 DUP3 ADD SWAP1 POP PUSH2 0x22C2 PUSH1 0x0 DUP4 ADD DUP6 PUSH2 0x1FD2 JUMP JUMPDEST PUSH2 0x22CF PUSH1 0x20 DUP4 ADD DUP5 PUSH2 0x1FD2 JUMP JUMPDEST SWAP4 SWAP3 POP POP POP JUMP JUMPDEST PUSH1 0x0 PUSH1 0x20 DUP3 DUP5 SUB SLT ISZERO PUSH2 0x22EC JUMPI PUSH2 0x22EB PUSH2 0x20B8 JUMP JUMPDEST JUMPDEST PUSH1 0x0 PUSH2 0x22FA DUP5 DUP3 DUP6 ADD PUSH2 0x2164 JUMP JUMPDEST SWAP2 POP POP SWAP3 SWAP2 POP POP JUMP JUMPDEST PUSH1 0x0 PUSH2 0x100 DUP3 ADD SWAP1 POP PUSH2 0x2319 PUSH1 0x0 DUP4 ADD DUP12 PUSH2 0x1FD2 JUMP JUMPDEST PUSH2 0x2326 PUSH1 0x20 DUP4 ADD DUP11 PUSH2 0x1FD2 JUMP JUMPDEST DUP2 DUP2 SUB PUSH1 0x40 DUP4 ADD MSTORE PUSH2 0x2338 DUP2 DUP10 PUSH2 0x2053 JUMP JUMPDEST SWAP1 POP PUSH2 0x2347 PUSH1 0x60 DUP4 ADD DUP9 PUSH2 0x1FD2 JUMP JUMPDEST PUSH2 0x2354 PUSH1 0x80 DUP4 ADD DUP8 PUSH2 0x1FD2 JUMP JUMPDEST PUSH2 0x2361 PUSH1 0xA0 DUP4 ADD DUP7 PUSH2 0x1FD2 JUMP JUMPDEST PUSH2 0x236E PUSH1 0xC0 DUP4 ADD DUP6 PUSH2 0x1FD2 JUMP JUMPDEST PUSH2 0x237B PUSH1 0xE0 DUP4 ADD DUP5 PUSH2 0x1FD2 JUMP JUMPDEST SWAP10 SWAP9 POP POP POP POP POP POP POP POP POP JUMP JUMPDEST PUSH1 0x0 DUP2 ISZERO ISZERO SWAP1 POP SWAP2 SWAP1 POP JUMP JUMPDEST PUSH2 0x239D DUP2 PUSH2 0x2388 JUMP JUMPDEST DUP3 MSTORE POP POP JUMP JUMPDEST PUSH1 0x0 PUSH1 0x60 DUP3 ADD SWAP1 POP PUSH2 0x23B8 PUSH1 0x0 DUP4 ADD DUP7 PUSH2 0x2394 JUMP JUMPDEST PUSH2 0x23C5 PUSH1 0x20 DUP4 ADD DUP6 PUSH2 0x1FD2 JUMP JUMPDEST PUSH2 0x23D2 PUSH1 0x40 DUP4 ADD DUP5 PUSH2 0x1FD2 JUMP JUMPDEST SWAP5 SWAP4 POP POP POP POP JUMP JUMPDEST PUSH1 0x0 DUP1 REVERT JUMPDEST PUSH1 0x0 DUP1 REVERT JUMPDEST PUSH32 0x4E487B7100000000000000000000000000000000000000000000000000000000 PUSH1 0x0 MSTORE PUSH1 0x41 PUSH1 0x4 MSTORE PUSH1 0x24 PUSH1 0x0 REVERT JUMPDEST PUSH2 0x241C DUP3 PUSH2 0x2042 JUMP JUMPDEST DUP2 ADD DUP2 DUP2 LT PUSH8 0xFFFFFFFFFFFFFFFF DUP3 GT OR ISZERO PUSH2 0x243B JUMPI PUSH2 0x243A PUSH2 0x23E4 JUMP JUMPDEST JUMPDEST DUP1 PUSH1 0x40 MSTORE POP POP POP JUMP JUMPDEST PUSH1 0x0 PUSH2 0x244E PUSH2 0x20AE JUMP JUMPDEST SWAP1 POP PUSH2 0x245A DUP3 DUP3 PUSH2 0x2413 JUMP JUMPDEST SWAP2 SWAP1 POP JUMP JUMPDEST PUSH1 0x0 PUSH8 0xFFFFFFFFFFFFFFFF DUP3 GT ISZERO PUSH2 0x247A JUMPI PUSH2 0x2479 PUSH2 0x23E4 JUMP JUMPDEST JUMPDEST PUSH2 0x2483 DUP3 PUSH2 0x2042 JUMP JUMPDEST SWAP1 POP PUSH1 0x20 DUP2 ADD SWAP1 POP SWAP2 SWAP1 POP JUMP JUMPDEST DUP3 DUP2 DUP4 CALLDATACOPY PUSH1 0x0 DUP4 DUP4 ADD MSTORE POP POP POP JUMP JUMPDEST PUSH1 0x0 PUSH2 0x24B2 PUSH2 0x24AD DUP5 PUSH2 0x245F JUMP JUMPDEST PUSH2 0x2444 JUMP JUMPDEST SWAP1 POP DUP3 DUP2 MSTORE PUSH1 0x20 DUP2 ADD DUP5 DUP5 DUP5 ADD GT ISZERO PUSH2 0x24CE JUMPI PUSH2 0x24CD PUSH2 0x23DF JUMP JUMPDEST JUMPDEST PUSH2 0x24D9 DUP5 DUP3 DUP6 PUSH2 0x2490 JUMP JUMPDEST POP SWAP4 SWAP3 POP POP POP JUMP JUMPDEST PUSH1 0x0 DUP3 PUSH1 0x1F DUP4 ADD SLT PUSH2 0x24F6 JUMPI PUSH2 0x24F5 PUSH2 0x23DA JUMP JUMPDEST JUMPDEST DUP2 CALLDATALOAD PUSH2 0x2506 DUP5 DUP3 PUSH1 0x20 DUP7 ADD PUSH2 0x249F JUMP JUMPDEST SWAP2 POP POP SWAP3 SWAP2 POP POP JUMP JUMPDEST PUSH1 0x0 PUSH8 0xFFFFFFFFFFFFFFFF DUP3 GT ISZERO PUSH2 0x252A JUMPI PUSH2 0x2529 PUSH2 0x23E4 JUMP JUMPDEST JUMPDEST PUSH1 0x20 DUP3 MUL SWAP1 POP PUSH1 0x20 DUP2 ADD SWAP1 POP SWAP2 SWAP1 POP JUMP JUMPDEST PUSH1 0x0 DUP1 REVERT JUMPDEST PUSH1 0x0 PUSH2 0x2553 PUSH2 0x254E DUP5 PUSH2 0x250F JUMP JUMPDEST PUSH2 0x2444 JUMP JUMPDEST SWAP1 POP DUP1 DUP4 DUP3 MSTORE PUSH1 0x20 DUP3 ADD SWAP1 POP PUSH1 0x20 DUP5 MUL DUP4 ADD DUP6 DUP2 GT ISZERO PUSH2 0x2576 JUMPI PUSH2 0x2575 PUSH2 0x253B JUMP JUMPDEST JUMPDEST DUP4 JUMPDEST DUP2 DUP2 LT ISZERO PUSH2 0x259F JUMPI DUP1 PUSH2 0x258B DUP9 DUP3 PUSH2 0x2164 JUMP JUMPDEST DUP5 MSTORE PUSH1 0x20 DUP5 ADD SWAP4 POP POP PUSH1 0x20 DUP2 ADD SWAP1 POP PUSH2 0x2578 JUMP JUMPDEST POP POP POP SWAP4 SWAP3 POP POP POP JUMP JUMPDEST PUSH1 0x0 DUP3 PUSH1 0x1F DUP4 ADD SLT PUSH2 0x25BE JUMPI PUSH2 0x25BD PUSH2 0x23DA JUMP JUMPDEST JUMPDEST DUP2 CALLDATALOAD PUSH2 0x25CE DUP5 DUP3 PUSH1 0x20 DUP7 ADD PUSH2 0x2540 JUMP JUMPDEST SWAP2 POP POP SWAP3 SWAP2 POP POP JUMP JUMPDEST PUSH1 0x0 DUP1 PUSH1 0x0 DUP1 PUSH1 0x0 DUP1 PUSH1 0x0 DUP1 PUSH2 0x100 DUP10 DUP12 SUB SLT ISZERO PUSH2 0x25F8 JUMPI PUSH2 0x25F7 PUSH2 0x20B8 JUMP JUMPDEST JUMPDEST PUSH1 0x0 DUP10 ADD CALLDATALOAD PUSH8 0xFFFFFFFFFFFFFFFF DUP2 GT ISZERO PUSH2 0x2616 JUMPI PUSH2 0x2615 PUSH2 0x20BD JUMP JUMPDEST JUMPDEST PUSH2 0x2622 DUP12 DUP3 DUP13 ADD PUSH2 0x24E1 JUMP JUMPDEST SWAP9 POP POP PUSH1 0x20 PUSH2 0x2633 DUP12 DUP3 DUP13 ADD PUSH2 0x2164 JUMP JUMPDEST SWAP8 POP POP PUSH1 0x40 PUSH2 0x2644 DUP12 DUP3 DUP13 ADD PUSH2 0x2164 JUMP JUMPDEST SWAP7 POP POP PUSH1 0x60 PUSH2 0x2655 DUP12 DUP3 DUP13 ADD PUSH2 0x2164 JUMP JUMPDEST SWAP6 POP POP PUSH1 0x80 PUSH2 0x2666 DUP12 DUP3 DUP13 ADD PUSH2 0x2164 JUMP JUMPDEST SWAP5 POP POP PUSH1 0xA0 PUSH2 0x2677 DUP12 DUP3 DUP13 ADD PUSH2 0x2164 JUMP JUMPDEST SWAP4 POP POP PUSH1 0xC0 DUP10 ADD CALLDATALOAD PUSH8 0xFFFFFFFFFFFFFFFF DUP2 GT ISZERO PUSH2 0x2698 JUMPI PUSH2 0x2697 PUSH2 0x20BD JUMP JUMPDEST JUMPDEST PUSH2 0x26A4 DUP12 DUP3 DUP13 ADD PUSH2 0x25A9 JUMP JUMPDEST SWAP3 POP POP PUSH1 0xE0 DUP10 ADD CALLDATALOAD PUSH8 0xFFFFFFFFFFFFFFFF DUP2 GT ISZERO PUSH2 0x26C5 JUMPI PUSH2 0x26C4 PUSH2 0x20BD JUMP JUMPDEST JUMPDEST PUSH2 0x26D1 DUP12 DUP3 DUP13 ADD PUSH2 0x25A9 JUMP JUMPDEST SWAP2 POP POP SWAP3 SWAP6 SWAP9 POP SWAP3 SWAP6 SWAP9 SWAP1 SWAP4 SWAP7 POP JUMP JUMPDEST PUSH1 0x0 DUP2 SWAP1 POP SWAP2 SWAP1 POP JUMP JUMPDEST PUSH1 0x0 PUSH2 0x2706 PUSH2 0x2701 PUSH2 0x26FC DUP5 PUSH2 0x20C2 JUMP JUMPDEST PUSH2 0x26E1 JUMP JUMPDEST PUSH2 0x20C2 JUMP JUMPDEST SWAP1 POP SWAP2 SWAP1 POP JUMP JUMPDEST PUSH1 0x0 PUSH2 0x2718 DUP3 PUSH2 0x26EB JUMP JUMPDEST SWAP1 POP SWAP2 SWAP1 POP JUMP JUMPDEST PUSH1 0x0 PUSH2 0x272A DUP3 PUSH2 0x270D JUMP JUMPDEST SWAP1 POP SWAP2 SWAP1 POP JUMP JUMPDEST PUSH2 0x273A DUP2 PUSH2 0x271F JUMP JUMPDEST DUP3 MSTORE POP POP JUMP JUMPDEST PUSH1 0x0 PUSH1 0x20 DUP3 ADD SWAP1 POP PUSH2 0x2755 PUSH1 0x0 DUP4 ADD DUP5 PUSH2 0x2731 JUMP JUMPDEST SWAP3 SWAP2 POP POP JUMP JUMPDEST PUSH32 0x4E487B7100000000000000000000000000000000000000000000000000000000 PUSH1 0x0 MSTORE PUSH1 0x22 PUSH1 0x4 MSTORE PUSH1 0x24 PUSH1 0x0 REVERT JUMPDEST PUSH1 0x0 PUSH1 0x2 DUP3 DIV SWAP1 POP PUSH1 0x1 DUP3 AND DUP1 PUSH2 0x27A2 JUMPI PUSH1 0x7F DUP3 AND SWAP2 POP JUMPDEST PUSH1 0x20 DUP3 LT DUP2 SUB PUSH2 0x27B5 JUMPI PUSH2 0x27B4 PUSH2 0x275B JUMP JUMPDEST JUMPDEST POP SWAP2 SWAP1 POP JUMP JUMPDEST PUSH32 0x6E6F742073657420746F6B656E00000000000000000000000000000000000000 PUSH1 0x0 DUP3 ADD MSTORE POP JUMP JUMPDEST PUSH1 0x0 PUSH2 0x27F1 PUSH1 0xD DUP4 PUSH2 0x2007 JUMP JUMPDEST SWAP2 POP PUSH2 0x27FC DUP3 PUSH2 0x27BB JUMP JUMPDEST PUSH1 0x20 DUP3 ADD SWAP1 POP SWAP2 SWAP1 POP JUMP JUMPDEST PUSH1 0x0 PUSH1 0x20 DUP3 ADD SWAP1 POP DUP2 DUP2 SUB PUSH1 0x0 DUP4 ADD MSTORE PUSH2 0x2820 DUP2 PUSH2 0x27E4 JUMP JUMPDEST SWAP1 POP SWAP2 SWAP1 POP JUMP JUMPDEST PUSH32 0x5265656E7472616E637947756172643A207265656E7472616E742063616C6C00 PUSH1 0x0 DUP3 ADD MSTORE POP JUMP JUMPDEST PUSH1 0x0 PUSH2 0x285D PUSH1 0x1F DUP4 PUSH2 0x2007 JUMP JUMPDEST SWAP2 POP PUSH2 0x2868 DUP3 PUSH2 0x2827 JUMP JUMPDEST PUSH1 0x20 DUP3 ADD SWAP1 POP SWAP2 SWAP1 POP JUMP JUMPDEST PUSH1 0x0 PUSH1 0x20 DUP3 ADD SWAP1 POP DUP2 DUP2 SUB PUSH1 0x0 DUP4 ADD MSTORE PUSH2 0x288C DUP2 PUSH2 0x2850 JUMP JUMPDEST SWAP1 POP SWAP2 SWAP1 POP JUMP JUMPDEST PUSH32 0x5265717569726520717479203C3D203130000000000000000000000000000000 PUSH1 0x0 DUP3 ADD MSTORE POP JUMP JUMPDEST PUSH1 0x0 PUSH2 0x28C9 PUSH1 0x11 DUP4 PUSH2 0x2007 JUMP JUMPDEST SWAP2 POP PUSH2 0x28D4 DUP3 PUSH2 0x2893 JUMP JUMPDEST PUSH1 0x20 DUP3 ADD SWAP1 POP SWAP2 SWAP1 POP JUMP JUMPDEST PUSH1 0x0 PUSH1 0x20 DUP3 ADD SWAP1 POP DUP2 DUP2 SUB PUSH1 0x0 DUP4 ADD MSTORE PUSH2 0x28F8 DUP2 PUSH2 0x28BC JUMP JUMPDEST SWAP1 POP SWAP2 SWAP1 POP JUMP JUMPDEST PUSH32 0x47616D65206E6F7420666F756E64000000000000000000000000000000000000 PUSH1 0x0 DUP3 ADD MSTORE POP JUMP JUMPDEST PUSH1 0x0 PUSH2 0x2935 PUSH1 0xE DUP4 PUSH2 0x2007 JUMP JUMPDEST SWAP2 POP PUSH2 0x2940 DUP3 PUSH2 0x28FF JUMP JUMPDEST PUSH1 0x20 DUP3 ADD SWAP1 POP SWAP2 SWAP1 POP JUMP JUMPDEST PUSH1 0x0 PUSH1 0x20 DUP3 ADD SWAP1 POP DUP2 DUP2 SUB PUSH1 0x0 DUP4 ADD MSTORE PUSH2 0x2964 DUP2 PUSH2 0x2928 JUMP JUMPDEST SWAP1 POP SWAP2 SWAP1 POP JUMP JUMPDEST PUSH32 0x4E487B7100000000000000000000000000000000000000000000000000000000 PUSH1 0x0 MSTORE PUSH1 0x11 PUSH1 0x4 MSTORE PUSH1 0x24 PUSH1 0x0 REVERT JUMPDEST PUSH1 0x0 PUSH2 0x29A5 DUP3 PUSH2 0x1FC8 JUMP JUMPDEST SWAP2 POP PUSH2 0x29B0 DUP4 PUSH2 0x1FC8 JUMP JUMPDEST SWAP3 POP DUP3 DUP3 MUL PUSH2 0x29BE DUP2 PUSH2 0x1FC8 JUMP JUMPDEST SWAP2 POP DUP3 DUP3 DIV DUP5 EQ DUP4 ISZERO OR PUSH2 0x29D5 JUMPI PUSH2 0x29D4 PUSH2 0x296B JUMP JUMPDEST JUMPDEST POP SWAP3 SWAP2 POP POP JUMP JUMPDEST PUSH1 0x0 DUP2 MLOAD SWAP1 POP PUSH2 0x29EB DUP2 PUSH2 0x214D JUMP JUMPDEST SWAP3 SWAP2 POP POP JUMP JUMPDEST PUSH1 0x0 PUSH1 0x20 DUP3 DUP5 SUB SLT ISZERO PUSH2 0x2A07 JUMPI PUSH2 0x2A06 PUSH2 0x20B8 JUMP JUMPDEST JUMPDEST PUSH1 0x0 PUSH2 0x2A15 DUP5 DUP3 DUP6 ADD PUSH2 0x29DC JUMP JUMPDEST SWAP2 POP POP SWAP3 SWAP2 POP POP JUMP JUMPDEST PUSH32 0x496E73756666696369656E742066756E647320696E20746865206163636F756E PUSH1 0x0 DUP3 ADD MSTORE PUSH32 0x7400000000000000000000000000000000000000000000000000000000000000 PUSH1 0x20 DUP3 ADD MSTORE POP JUMP JUMPDEST PUSH1 0x0 PUSH2 0x2A7A PUSH1 0x21 DUP4 PUSH2 0x2007 JUMP JUMPDEST SWAP2 POP PUSH2 0x2A85 DUP3 PUSH2 0x2A1E JUMP JUMPDEST PUSH1 0x40 DUP3 ADD SWAP1 POP SWAP2 SWAP1 POP JUMP JUMPDEST PUSH1 0x0 PUSH1 0x20 DUP3 ADD SWAP1 POP DUP2 DUP2 SUB PUSH1 0x0 DUP4 ADD MSTORE PUSH2 0x2AA9 DUP2 PUSH2 0x2A6D JUMP JUMPDEST SWAP1 POP SWAP2 SWAP1 POP JUMP JUMPDEST PUSH1 0x0 PUSH1 0x60 DUP3 ADD SWAP1 POP PUSH2 0x2AC5 PUSH1 0x0 DUP4 ADD DUP7 PUSH2 0x2243 JUMP JUMPDEST PUSH2 0x2AD2 PUSH1 0x20 DUP4 ADD DUP6 PUSH2 0x2243 JUMP JUMPDEST PUSH2 0x2ADF PUSH1 0x40 DUP4 ADD DUP5 PUSH2 0x1FD2 JUMP JUMPDEST SWAP5 SWAP4 POP POP POP POP JUMP JUMPDEST PUSH2 0x2AF0 DUP2 PUSH2 0x2388 JUMP JUMPDEST DUP2 EQ PUSH2 0x2AFB JUMPI PUSH1 0x0 DUP1 REVERT JUMPDEST POP JUMP JUMPDEST PUSH1 0x0 DUP2 MLOAD SWAP1 POP PUSH2 0x2B0D DUP2 PUSH2 0x2AE7 JUMP JUMPDEST SWAP3 SWAP2 POP POP JUMP JUMPDEST PUSH1 0x0 PUSH1 0x20 DUP3 DUP5 SUB SLT ISZERO PUSH2 0x2B29 JUMPI PUSH2 0x2B28 PUSH2 0x20B8 JUMP JUMPDEST JUMPDEST PUSH1 0x0 PUSH2 0x2B37 DUP5 DUP3 DUP6 ADD PUSH2 0x2AFE JUMP JUMPDEST SWAP2 POP POP SWAP3 SWAP2 POP POP JUMP JUMPDEST PUSH1 0x0 PUSH2 0x2B4B DUP3 PUSH2 0x1FC8 JUMP JUMPDEST SWAP2 POP PUSH2 0x2B56 DUP4 PUSH2 0x1FC8 JUMP JUMPDEST SWAP3 POP DUP3 DUP3 SUB SWAP1 POP DUP2 DUP2 GT ISZERO PUSH2 0x2B6E JUMPI PUSH2 0x2B6D PUSH2 0x296B JUMP JUMPDEST JUMPDEST SWAP3 SWAP2 POP POP JUMP JUMPDEST PUSH32 0x4E487B7100000000000000000000000000000000000000000000000000000000 PUSH1 0x0 MSTORE PUSH1 0x12 PUSH1 0x4 MSTORE PUSH1 0x24 PUSH1 0x0 REVERT JUMPDEST PUSH1 0x0 PUSH2 0x2BAE DUP3 PUSH2 0x1FC8 JUMP JUMPDEST SWAP2 POP PUSH2 0x2BB9 DUP4 PUSH2 0x1FC8 JUMP JUMPDEST SWAP3 POP DUP3 PUSH2 0x2BC9 JUMPI PUSH2 0x2BC8 PUSH2 0x2B74 JUMP JUMPDEST JUMPDEST DUP3 DUP3 DIV SWAP1 POP SWAP3 SWAP2 POP POP JUMP JUMPDEST PUSH1 0x0 PUSH1 0x40 DUP3 ADD SWAP1 POP PUSH2 0x2BE9 PUSH1 0x0 DUP4 ADD DUP6 PUSH2 0x2243 JUMP JUMPDEST PUSH2 0x2BF6 PUSH1 0x20 DUP4 ADD DUP5 PUSH2 0x1FD2 JUMP JUMPDEST SWAP4 SWAP3 POP POP POP JUMP JUMPDEST PUSH1 0x0 PUSH2 0x2C08 DUP3 PUSH2 0x1FC8 JUMP JUMPDEST SWAP2 POP PUSH2 0x2C13 DUP4 PUSH2 0x1FC8 JUMP JUMPDEST SWAP3 POP DUP3 DUP3 ADD SWAP1 POP DUP1 DUP3 GT ISZERO PUSH2 0x2C2B JUMPI PUSH2 0x2C2A PUSH2 0x296B JUMP JUMPDEST JUMPDEST SWAP3 SWAP2 POP POP JUMP JUMPDEST PUSH1 0x0 PUSH2 0x2C3C DUP3 PUSH2 0x1FC8 JUMP JUMPDEST SWAP2 POP PUSH1 0x0 DUP3 SUB PUSH2 0x2C4F JUMPI PUSH2 0x2C4E PUSH2 0x296B JUMP JUMPDEST JUMPDEST PUSH1 0x1 DUP3 SUB SWAP1 POP SWAP2 SWAP1 POP JUMP JUMPDEST PUSH1 0x0 PUSH2 0x2C65 DUP3 PUSH2 0x1FC8 JUMP JUMPDEST SWAP2 POP PUSH32 0xFFFFFFFFFFFFFFFFFFFFFFFFFFFFFFFFFFFFFFFFFFFFFFFFFFFFFFFFFFFFFFFF DUP3 SUB PUSH2 0x2C97 JUMPI PUSH2 0x2C96 PUSH2 0x296B JUMP JUMPDEST JUMPDEST PUSH1 0x1 DUP3 ADD SWAP1 POP SWAP2 SWAP1 POP JUMP JUMPDEST PUSH1 0x0 PUSH1 0xE0 DUP3 ADD SWAP1 POP PUSH2 0x2CB7 PUSH1 0x0 DUP4 ADD DUP11 PUSH2 0x1FD2 JUMP JUMPDEST PUSH2 0x2CC4 PUSH1 0x20 DUP4 ADD DUP10 PUSH2 0x1FD2 JUMP JUMPDEST PUSH2 0x2CD1 PUSH1 0x40 DUP4 ADD DUP9 PUSH2 0x2394 JUMP JUMPDEST PUSH2 0x2CDE PUSH1 0x60 DUP4 ADD DUP8 PUSH2 0x1FD2 JUMP JUMPDEST PUSH2 0x2CEB PUSH1 0x80 DUP4 ADD DUP7 PUSH2 0x1FD2 JUMP JUMPDEST PUSH2 0x2CF8 PUSH1 0xA0 DUP4 ADD DUP6 PUSH2 0x1FD2 JUMP JUMPDEST PUSH2 0x2D05 PUSH1 0xC0 DUP4 ADD DUP5 PUSH2 0x1FD2 JUMP JUMPDEST SWAP9 SWAP8 POP POP POP POP POP POP POP POP JUMP JUMPDEST PUSH32 0x4F776E61626C653A2063616C6C6572206973206E6F7420746865206F776E6572 PUSH1 0x0 DUP3 ADD MSTORE POP JUMP JUMPDEST PUSH1 0x0 PUSH2 0x2D47 PUSH1 0x20 DUP4 PUSH2 0x2007 JUMP JUMPDEST SWAP2 POP PUSH2 0x2D52 DUP3 PUSH2 0x2D11 JUMP JUMPDEST PUSH1 0x20 DUP3 ADD SWAP1 POP SWAP2 SWAP1 POP JUMP JUMPDEST PUSH1 0x0 PUSH1 0x20 DUP3 ADD SWAP1 POP DUP2 DUP2 SUB PUSH1 0x0 DUP4 ADD MSTORE PUSH2 0x2D76 DUP2 PUSH2 0x2D3A JUMP JUMPDEST SWAP1 POP SWAP2 SWAP1 POP JUMP JUMPDEST PUSH32 0x6E6F742070726F6A656374206F776E6572206372656174652067616D65000000 PUSH1 0x0 DUP3 ADD MSTORE POP JUMP JUMPDEST PUSH1 0x0 PUSH2 0x2DB3 PUSH1 0x1D DUP4 PUSH2 0x2007 JUMP JUMPDEST SWAP2 POP PUSH2 0x2DBE DUP3 PUSH2 0x2D7D JUMP JUMPDEST PUSH1 0x20 DUP3 ADD SWAP1 POP SWAP2 SWAP1 POP JUMP JUMPDEST PUSH1 0x0 PUSH1 0x20 DUP3 ADD SWAP1 POP DUP2 DUP2 SUB PUSH1 0x0 DUP4 ADD MSTORE PUSH2 0x2DE2 DUP2 PUSH2 0x2DA6 JUMP JUMPDEST SWAP1 POP SWAP2 SWAP1 POP JUMP JUMPDEST PUSH32 0x7072696365206973207A65726F00000000000000000000000000000000000000 PUSH1 0x0 DUP3 ADD MSTORE POP JUMP JUMPDEST PUSH1 0x0 PUSH2 0x2E1F PUSH1 0xD DUP4 PUSH2 0x2007 JUMP JUMPDEST SWAP2 POP PUSH2 0x2E2A DUP3 PUSH2 0x2DE9 JUMP JUMPDEST PUSH1 0x20 DUP3 ADD SWAP1 POP SWAP2 SWAP1 POP JUMP JUMPDEST PUSH1 0x0 PUSH1 0x20 DUP3 ADD SWAP1 POP DUP2 DUP2 SUB PUSH1 0x0 DUP4 ADD MSTORE PUSH2 0x2E4E DUP2 PUSH2 0x2E12 JUMP JUMPDEST SWAP1 POP SWAP2 SWAP1 POP JUMP JUMPDEST PUSH32 0x616666696C696174652070657263656E74203C20313025000000000000000000 PUSH1 0x0 DUP3 ADD MSTORE POP JUMP JUMPDEST PUSH1 0x0 PUSH2 0x2E8B PUSH1 0x17 DUP4 PUSH2 0x2007 JUMP JUMPDEST SWAP2 POP PUSH2 0x2E96 DUP3 PUSH2 0x2E55 JUMP JUMPDEST PUSH1 0x20 DUP3 ADD SWAP1 POP SWAP2 SWAP1 POP JUMP JUMPDEST PUSH1 0x0 PUSH1 0x20 DUP3 ADD SWAP1 POP DUP2 DUP2 SUB PUSH1 0x0 DUP4 ADD MSTORE PUSH2 0x2EBA DUP2 PUSH2 0x2E7E JUMP JUMPDEST SWAP1 POP SWAP2 SWAP1 POP JUMP JUMPDEST PUSH32 0x6F776E65722070657263656E74203C2031302500000000000000000000000000 PUSH1 0x0 DUP3 ADD MSTORE POP JUMP JUMPDEST PUSH1 0x0 PUSH2 0x2EF7 PUSH1 0x13 DUP4 PUSH2 0x2007 JUMP JUMPDEST SWAP2 POP PUSH2 0x2F02 DUP3 PUSH2 0x2EC1 JUMP JUMPDEST PUSH1 0x20 DUP3 ADD SWAP1 POP SWAP2 SWAP1 POP JUMP JUMPDEST PUSH1 0x0 PUSH1 0x20 DUP3 ADD SWAP1 POP DUP2 DUP2 SUB PUSH1 0x0 DUP4 ADD MSTORE PUSH2 0x2F26 DUP2 PUSH2 0x2EEA JUMP JUMPDEST SWAP1 POP SWAP2 SWAP1 POP JUMP JUMPDEST PUSH32 0x76616C756520616E642070657263656E74206973206E6F742076616C69640000 PUSH1 0x0 DUP3 ADD MSTORE POP JUMP JUMPDEST PUSH1 0x0 PUSH2 0x2F63 PUSH1 0x1E DUP4 PUSH2 0x2007 JUMP JUMPDEST SWAP2 POP PUSH2 0x2F6E DUP3 PUSH2 0x2F2D JUMP JUMPDEST PUSH1 0x20 DUP3 ADD SWAP1 POP SWAP2 SWAP1 POP JUMP JUMPDEST PUSH1 0x0 PUSH1 0x20 DUP3 ADD SWAP1 POP DUP2 DUP2 SUB PUSH1 0x0 DUP4 ADD MSTORE PUSH2 0x2F92 DUP2 PUSH2 0x2F56 JUMP JUMPDEST SWAP1 POP SWAP2 SWAP1 POP JUMP JUMPDEST PUSH1 0x0 DUP2 SWAP1 POP DUP2 PUSH1 0x0 MSTORE PUSH1 0x20 PUSH1 0x0 KECCAK256 SWAP1 POP SWAP2 SWAP1 POP JUMP JUMPDEST PUSH1 0x0 PUSH1 0x20 PUSH1 0x1F DUP4 ADD DIV SWAP1 POP SWAP2 SWAP1 POP JUMP JUMPDEST PUSH1 0x0 DUP3 DUP3 SHL SWAP1 POP SWAP3 SWAP2 POP POP JUMP JUMPDEST PUSH1 0x0 PUSH1 0x8 DUP4 MUL PUSH2 0x2FFB PUSH32 0xFFFFFFFFFFFFFFFFFFFFFFFFFFFFFFFFFFFFFFFFFFFFFFFFFFFFFFFFFFFFFFFF DUP3 PUSH2 0x2FBE JUMP JUMPDEST PUSH2 0x3005 DUP7 DUP4 PUSH2 0x2FBE JUMP JUMPDEST SWAP6 POP DUP1 NOT DUP5 AND SWAP4 POP DUP1 DUP7 AND DUP5 OR SWAP3 POP POP POP SWAP4 SWAP3 POP POP POP JUMP JUMPDEST PUSH1 0x0 PUSH2 0x3038 PUSH2 0x3033 PUSH2 0x302E DUP5 PUSH2 0x1FC8 JUMP JUMPDEST PUSH2 0x26E1 JUMP JUMPDEST PUSH2 0x1FC8 JUMP JUMPDEST SWAP1 POP SWAP2 SWAP1 POP JUMP JUMPDEST PUSH1 0x0 DUP2 SWAP1 POP SWAP2 SWAP1 POP JUMP JUMPDEST PUSH2 0x3052 DUP4 PUSH2 0x301D JUMP JUMPDEST PUSH2 0x3066 PUSH2 0x305E DUP3 PUSH2 0x303F JUMP JUMPDEST DUP5 DUP5 SLOAD PUSH2 0x2FCB JUMP JUMPDEST DUP3 SSTORE POP POP POP POP JUMP JUMPDEST PUSH1 0x0 SWAP1 JUMP JUMPDEST PUSH2 0x307B PUSH2 0x306E JUMP JUMPDEST PUSH2 0x3086 DUP2 DUP5 DUP5 PUSH2 0x3049 JUMP JUMPDEST POP POP POP JUMP JUMPDEST JUMPDEST DUP2 DUP2 LT ISZERO PUSH2 0x30AA JUMPI PUSH2 0x309F PUSH1 0x0 DUP3 PUSH2 0x3073 JUMP JUMPDEST PUSH1 0x1 DUP2 ADD SWAP1 POP PUSH2 0x308C JUMP JUMPDEST POP POP JUMP JUMPDEST PUSH1 0x1F DUP3 GT ISZERO PUSH2 0x30EF JUMPI PUSH2 0x30C0 DUP2 PUSH2 0x2F99 JUMP JUMPDEST PUSH2 0x30C9 DUP5 PUSH2 0x2FAE JUMP JUMPDEST DUP2 ADD PUSH1 0x20 DUP6 LT ISZERO PUSH2 0x30D8 JUMPI DUP2 SWAP1 POP JUMPDEST PUSH2 0x30EC PUSH2 0x30E4 DUP6 PUSH2 0x2FAE JUMP JUMPDEST DUP4 ADD DUP3 PUSH2 0x308B JUMP JUMPDEST POP POP JUMPDEST POP POP POP JUMP JUMPDEST PUSH1 0x0 DUP3 DUP3 SHR SWAP1 POP SWAP3 SWAP2 POP POP JUMP JUMPDEST PUSH1 0x0 PUSH2 0x3112 PUSH1 0x0 NOT DUP5 PUSH1 0x8 MUL PUSH2 0x30F4 JUMP JUMPDEST NOT DUP1 DUP4 AND SWAP2 POP POP SWAP3 SWAP2 POP POP JUMP JUMPDEST PUSH1 0x0 PUSH2 0x312B DUP4 DUP4 PUSH2 0x3101 JUMP JUMPDEST SWAP2 POP DUP3 PUSH1 0x2 MUL DUP3 OR SWAP1 POP SWAP3 SWAP2 POP POP JUMP JUMPDEST PUSH2 0x3144 DUP3 PUSH2 0x1FFC JUMP JUMPDEST PUSH8 0xFFFFFFFFFFFFFFFF DUP2 GT ISZERO PUSH2 0x315D JUMPI PUSH2 0x315C PUSH2 0x23E4 JUMP JUMPDEST JUMPDEST PUSH2 0x3167 DUP3 SLOAD PUSH2 0x278A JUMP JUMPDEST PUSH2 0x3172 DUP3 DUP3 DUP6 PUSH2 0x30AE JUMP JUMPDEST PUSH1 0x0 PUSH1 0x20 SWAP1 POP PUSH1 0x1F DUP4 GT PUSH1 0x1 DUP2 EQ PUSH2 0x31A5 JUMPI PUSH1 0x0 DUP5 ISZERO PUSH2 0x3193 JUMPI DUP3 DUP8 ADD MLOAD SWAP1 POP JUMPDEST PUSH2 0x319D DUP6 DUP3 PUSH2 0x311F JUMP JUMPDEST DUP7 SSTORE POP PUSH2 0x3205 JUMP JUMPDEST PUSH1 0x1F NOT DUP5 AND PUSH2 0x31B3 DUP7 PUSH2 0x2F99 JUMP JUMPDEST PUSH1 0x0 JUMPDEST DUP3 DUP2 LT ISZERO PUSH2 0x31DB JUMPI DUP5 DUP10 ADD MLOAD DUP3 SSTORE PUSH1 0x1 DUP3 ADD SWAP2 POP PUSH1 0x20 DUP6 ADD SWAP5 POP PUSH1 0x20 DUP2 ADD SWAP1 POP PUSH2 0x31B6 JUMP JUMPDEST DUP7 DUP4 LT ISZERO PUSH2 0x31F8 JUMPI DUP5 DUP10 ADD MLOAD PUSH2 0x31F4 PUSH1 0x1F DUP10 AND DUP3 PUSH2 0x3101 JUMP JUMPDEST DUP4 SSTORE POP JUMPDEST PUSH1 0x1 PUSH1 0x2 DUP9 MUL ADD DUP9 SSTORE POP POP POP JUMPDEST POP POP POP POP POP POP JUMP JUMPDEST PUSH32 0x4E487B7100000000000000000000000000000000000000000000000000000000 PUSH1 0x0 MSTORE PUSH1 0x32 PUSH1 0x4 MSTORE PUSH1 0x24 PUSH1 0x0 REVERT JUMPDEST PUSH32 0x746F74616C2070657263656E74207072697A65206973206E6F742076616C6964 PUSH1 0x0 DUP3 ADD MSTORE POP JUMP JUMPDEST PUSH1 0x0 PUSH2 0x3272 PUSH1 0x20 DUP4 PUSH2 0x2007 JUMP JUMPDEST SWAP2 POP PUSH2 0x327D DUP3 PUSH2 0x323C JUMP JUMPDEST PUSH1 0x20 DUP3 ADD SWAP1 POP SWAP2 SWAP1 POP JUMP JUMPDEST PUSH1 0x0 PUSH1 0x20 DUP3 ADD SWAP1 POP DUP2 DUP2 SUB PUSH1 0x0 DUP4 ADD MSTORE PUSH2 0x32A1 DUP2 PUSH2 0x3265 JUMP JUMPDEST SWAP1 POP SWAP2 SWAP1 POP JUMP JUMPDEST PUSH1 0x0 DUP2 MLOAD SWAP1 POP SWAP2 SWAP1 POP JUMP JUMPDEST PUSH1 0x0 DUP3 DUP3 MSTORE PUSH1 0x20 DUP3 ADD SWAP1 POP SWAP3 SWAP2 POP POP JUMP JUMPDEST PUSH1 0x0 DUP2 SWAP1 POP PUSH1 0x20 DUP3 ADD SWAP1 POP SWAP2 SWAP1 POP JUMP JUMPDEST PUSH2 0x32DD DUP2 PUSH2 0x1FC8 JUMP JUMPDEST DUP3 MSTORE POP POP JUMP JUMPDEST PUSH1 0x0 PUSH2 0x32EF DUP4 DUP4 PUSH2 0x32D4 JUMP JUMPDEST PUSH1 0x20 DUP4 ADD SWAP1 POP SWAP3 SWAP2 POP POP JUMP JUMPDEST PUSH1 0x0 PUSH1 0x20 DUP3 ADD SWAP1 POP SWAP2 SWAP1 POP JUMP JUMPDEST PUSH1 0x0 PUSH2 0x3313 DUP3 PUSH2 0x32A8 JUMP JUMPDEST PUSH2 0x331D DUP2 DUP6 PUSH2 0x32B3 JUMP JUMPDEST SWAP4 POP PUSH2 0x3328 DUP4 PUSH2 0x32C4 JUMP JUMPDEST DUP1 PUSH1 0x0 JUMPDEST DUP4 DUP2 LT ISZERO PUSH2 0x3359 JUMPI DUP2 MLOAD PUSH2 0x3340 DUP9 DUP3 PUSH2 0x32E3 JUMP JUMPDEST SWAP8 POP PUSH2 0x334B DUP4 PUSH2 0x32FB JUMP JUMPDEST SWAP3 POP POP PUSH1 0x1 DUP2 ADD SWAP1 POP PUSH2 0x332C JUMP JUMPDEST POP DUP6 SWAP4 POP POP POP POP SWAP3 SWAP2 POP POP JUMP JUMPDEST PUSH32 0x4D6567615F4A61636B706F745F56310000000000000000000000000000000000 PUSH1 0x0 DUP3 ADD MSTORE POP JUMP JUMPDEST PUSH1 0x0 PUSH2 0x339C PUSH1 0xF DUP4 PUSH2 0x2007 JUMP JUMPDEST SWAP2 POP PUSH2 0x33A7 DUP3 PUSH2 0x3366 JUMP JUMPDEST PUSH1 0x20 DUP3 ADD SWAP1 POP SWAP2 SWAP1 POP JUMP JUMPDEST PUSH1 0x0 PUSH2 0x140 DUP3 ADD SWAP1 POP DUP2 DUP2 SUB PUSH1 0x0 DUP4 ADD MSTORE PUSH2 0x33CD DUP2 DUP13 PUSH2 0x2053 JUMP JUMPDEST SWAP1 POP PUSH2 0x33DC PUSH1 0x20 DUP4 ADD DUP12 PUSH2 0x1FD2 JUMP JUMPDEST PUSH2 0x33E9 PUSH1 0x40 DUP4 ADD DUP11 PUSH2 0x1FD2 JUMP JUMPDEST PUSH2 0x33F6 PUSH1 0x60 DUP4 ADD DUP10 PUSH2 0x1FD2 JUMP JUMPDEST PUSH2 0x3403 PUSH1 0x80 DUP4 ADD DUP9 PUSH2 0x1FD2 JUMP JUMPDEST PUSH2 0x3410 PUSH1 0xA0 DUP4 ADD DUP8 PUSH2 0x1FD2 JUMP JUMPDEST DUP2 DUP2 SUB PUSH1 0xC0 DUP4 ADD MSTORE PUSH2 0x3422 DUP2 DUP7 PUSH2 0x3308 JUMP JUMPDEST SWAP1 POP DUP2 DUP2 SUB PUSH1 0xE0 DUP4 ADD MSTORE PUSH2 0x3436 DUP2 DUP6 PUSH2 0x3308 JUMP JUMPDEST SWAP1 POP PUSH2 0x3446 PUSH2 0x100 DUP4 ADD DUP5 PUSH2 0x1FD2 JUMP JUMPDEST DUP2 DUP2 SUB PUSH2 0x120 DUP4 ADD MSTORE PUSH2 0x3458 DUP2 PUSH2 0x338F JUMP JUMPDEST SWAP1 POP SWAP11 SWAP10 POP POP POP POP POP POP POP POP POP POP JUMP JUMPDEST PUSH32 0x6E6F7420736574206F776E657257616C6C657400000000000000000000000000 PUSH1 0x0 DUP3 ADD MSTORE POP JUMP JUMPDEST PUSH1 0x0 PUSH2 0x349E PUSH1 0x13 DUP4 PUSH2 0x2007 JUMP JUMPDEST SWAP2 POP PUSH2 0x34A9 DUP3 PUSH2 0x3468 JUMP JUMPDEST PUSH1 0x20 DUP3 ADD SWAP1 POP SWAP2 SWAP1 POP JUMP JUMPDEST PUSH1 0x0 PUSH1 0x20 DUP3 ADD SWAP1 POP DUP2 DUP2 SUB PUSH1 0x0 DUP4 ADD MSTORE PUSH2 0x34CD DUP2 PUSH2 0x3491 JUMP JUMPDEST SWAP1 POP SWAP2 SWAP1 POP JUMP JUMPDEST PUSH32 0x4F776E61626C653A206E6577206F776E657220697320746865207A65726F2061 PUSH1 0x0 DUP3 ADD MSTORE PUSH32 0x6464726573730000000000000000000000000000000000000000000000000000 PUSH1 0x20 DUP3 ADD MSTORE POP JUMP JUMPDEST PUSH1 0x0 PUSH2 0x3530 PUSH1 0x26 DUP4 PUSH2 0x2007 JUMP JUMPDEST SWAP2 POP PUSH2 0x353B DUP3 PUSH2 0x34D4 JUMP JUMPDEST PUSH1 0x40 DUP3 ADD SWAP1 POP SWAP2 SWAP1 POP JUMP JUMPDEST PUSH1 0x0 PUSH1 0x20 DUP3 ADD SWAP1 POP DUP2 DUP2 SUB PUSH1 0x0 DUP4 ADD MSTORE PUSH2 0x355F DUP2 PUSH2 0x3523 JUMP JUMPDEST SWAP1 POP SWAP2 SWAP1 POP JUMP JUMPDEST PUSH1 0x0 PUSH2 0x3571 DUP3 PUSH2 0x1FC8 JUMP JUMPDEST SWAP2 POP PUSH2 0x357C DUP4 PUSH2 0x1FC8 JUMP JUMPDEST SWAP3 POP DUP3 PUSH2 0x358C JUMPI PUSH2 0x358B PUSH2 0x2B74 JUMP JUMPDEST JUMPDEST DUP3 DUP3 MOD SWAP1 POP SWAP3 SWAP2 POP POP JUMP JUMPDEST PUSH1 0x0 DUP2 SWAP1 POP SWAP2 SWAP1 POP JUMP JUMPDEST PUSH2 0x35B2 PUSH2 0x35AD DUP3 PUSH2 0x1FC8 JUMP JUMPDEST PUSH2 0x3597 JUMP JUMPDEST DUP3 MSTORE POP POP JUMP JUMPDEST PUSH1 0x0 DUP2 PUSH1 0x60 SHL SWAP1 POP SWAP2 SWAP1 POP JUMP JUMPDEST PUSH1 0x0 PUSH2 0x35D0 DUP3 PUSH2 0x35B8 JUMP JUMPDEST SWAP1 POP SWAP2 SWAP1 POP JUMP JUMPDEST PUSH1 0x0 PUSH2 0x35E2 DUP3 PUSH2 0x35C5 JUMP JUMPDEST SWAP1 POP SWAP2 SWAP1 POP JUMP JUMPDEST PUSH2 0x35FA PUSH2 0x35F5 DUP3 PUSH2 0x20E2 JUMP JUMPDEST PUSH2 0x35D7 JUMP JUMPDEST DUP3 MSTORE POP POP JUMP JUMPDEST PUSH1 0x0 PUSH2 0x360C DUP3 DUP9 PUSH2 0x35A1 JUMP JUMPDEST PUSH1 0x20 DUP3 ADD SWAP2 POP PUSH2 0x361C DUP3 DUP8 PUSH2 0x35A1 JUMP JUMPDEST PUSH1 0x20 DUP3 ADD SWAP2 POP PUSH2 0x362C DUP3 DUP7 PUSH2 0x35A1 JUMP JUMPDEST PUSH1 0x20 DUP3 ADD SWAP2 POP PUSH2 0x363C DUP3 DUP6 PUSH2 0x35A1 JUMP JUMPDEST PUSH1 0x20 DUP3 ADD SWAP2 POP PUSH2 0x364C DUP3 DUP5 PUSH2 0x35E9 JUMP JUMPDEST PUSH1 0x14 DUP3 ADD SWAP2 POP DUP2 SWAP1 POP SWAP7 SWAP6 POP POP POP POP POP POP JUMP INVALID LOG2 PUSH5 0x6970667358 0x22 SLT KECCAK256 0xB6 RETURNDATACOPY TIMESTAMP 0x21 0xDA 0xB2 0xF6 DUP11 EXTCODEHASH 0xEF ORIGIN 0xAC 0xC6 PUSH3 0x19D5CD 0xD7 PUSH28 0x669F5FE2A31960B21826FD71A164736F6C6343000812003300000000 "
		},
		"gasEstimates": {
			"creation": {
				"codeDepositCost": "2794600",
				"executionCost": "infinite",
				"totalCost": "infinite"
			},
			"external": {
				"PERCENTS_DIVIDER()": "353",
				"SPIN_PERCENTS_DIVIDER()": "374",
				"createGame(string,uint256,uint256,uint256,uint256,uint256,uint256[],uint256[])": "infinite",
				"gameInfo(uint256)": "infinite",
				"indexGame()": "2495",
				"name()": "infinite",
				"nonce()": "2473",
				"order(uint256,uint256,address,address,address,uint256,uint256,uint256,address)": "infinite",
				"orderDetail(uint256,uint256)": "infinite",
				"orders(uint256)": "infinite",
				"owner()": "2545",
				"prize(uint256,uint256)": "infinite",
				"projectOwnerWallet()": "2537",
				"renounceOwnership()": "30463",
				"setProjectOwnerWallet(address)": "26915",
				"setToken(address)": "26961",
				"token()": "infinite",
				"transferOwnership(address)": "30808"
			},
			"internal": {
				"random(uint256)": "infinite",
				"spin(uint256,uint256,uint256)": "infinite"
			}
		},
		"methodIdentifiers": {
			"PERCENTS_DIVIDER()": "01c234a8",
			"SPIN_PERCENTS_DIVIDER()": "325e8744",
			"createGame(string,uint256,uint256,uint256,uint256,uint256,uint256[],uint256[])": "aab0a510",
			"gameInfo(uint256)": "a6f81668",
			"indexGame()": "e7c1bf9f",
			"name()": "06fdde03",
			"nonce()": "affed0e0",
			"order(uint256,uint256,address,address,address,uint256,uint256,uint256,address)": "2240b81a",
			"orderDetail(uint256,uint256)": "75af2dd9",
			"orders(uint256)": "a85c38ef",
			"owner()": "8da5cb5b",
			"prize(uint256,uint256)": "7036992a",
			"projectOwnerWallet()": "2f8dc9a0",
			"renounceOwnership()": "715018a6",
			"setProjectOwnerWallet(address)": "ab346b0a",
			"setToken(address)": "144fa6d7",
			"token()": "fc0c546a",
			"transferOwnership(address)": "f2fde38b"
		}
	},
	"abi": [
		{
			"anonymous": false,
			"inputs": [
				{
					"indexed": false,
					"internalType": "string",
					"name": "_title",
					"type": "string"
				},
				{
					"indexed": false,
					"internalType": "uint256",
					"name": "_price",
					"type": "uint256"
				},
				{
					"indexed": false,
					"internalType": "uint256",
					"name": "_startPrice",
					"type": "uint256"
				},
				{
					"indexed": false,
					"internalType": "uint256",
					"name": "_affiliatePercent",
					"type": "uint256"
				},
				{
					"indexed": false,
					"internalType": "uint256",
					"name": "_ownerPercent",
					"type": "uint256"
				},
				{
					"indexed": false,
					"internalType": "uint256",
					"name": "jackpotPercent",
					"type": "uint256"
				},
				{
					"indexed": false,
					"internalType": "uint256[]",
					"name": "values",
					"type": "uint256[]"
				},
				{
					"indexed": false,
					"internalType": "uint256[]",
					"name": "percents",
					"type": "uint256[]"
				},
				{
					"indexed": false,
					"internalType": "uint256",
					"name": "idGame",
					"type": "uint256"
				},
				{
					"indexed": false,
					"internalType": "string",
					"name": "nameContract",
					"type": "string"
				}
			],
			"name": "CreateGame",
			"type": "event"
		},
		{
			"anonymous": false,
			"inputs": [
				{
					"indexed": false,
					"internalType": "uint256",
					"name": "totalReward",
					"type": "uint256"
				},
				{
					"indexed": false,
					"internalType": "uint256",
					"name": "qty",
					"type": "uint256"
				},
				{
					"indexed": false,
					"internalType": "bool",
					"name": "jackpot",
					"type": "bool"
				},
				{
					"indexed": false,
					"internalType": "uint256",
					"name": "devFee",
					"type": "uint256"
				},
				{
					"indexed": false,
					"internalType": "uint256",
					"name": "mktFee",
					"type": "uint256"
				},
				{
					"indexed": false,
					"internalType": "uint256",
					"name": "affFee",
					"type": "uint256"
				},
				{
					"indexed": false,
					"internalType": "uint256",
					"name": "ownerFee",
					"type": "uint256"
				}
			],
			"name": "Order",
			"type": "event"
		},
		{
			"anonymous": false,
			"inputs": [
				{
					"indexed": true,
					"internalType": "address",
					"name": "previousOwner",
					"type": "address"
				},
				{
					"indexed": true,
					"internalType": "address",
					"name": "newOwner",
					"type": "address"
				}
			],
			"name": "OwnershipTransferred",
			"type": "event"
		},
		{
			"inputs": [],
			"name": "PERCENTS_DIVIDER",
			"outputs": [
				{
					"internalType": "uint256",
					"name": "",
					"type": "uint256"
				}
			],
			"stateMutability": "view",
			"type": "function"
		},
		{
			"inputs": [],
			"name": "SPIN_PERCENTS_DIVIDER",
			"outputs": [
				{
					"internalType": "uint256",
					"name": "",
					"type": "uint256"
				}
			],
			"stateMutability": "view",
			"type": "function"
		},
		{
			"inputs": [
				{
					"internalType": "string",
					"name": "_title",
					"type": "string"
				},
				{
					"internalType": "uint256",
					"name": "_price",
					"type": "uint256"
				},
				{
					"internalType": "uint256",
					"name": "_startPrice",
					"type": "uint256"
				},
				{
					"internalType": "uint256",
					"name": "_affiliatePercent",
					"type": "uint256"
				},
				{
					"internalType": "uint256",
					"name": "_ownerPercent",
					"type": "uint256"
				},
				{
					"internalType": "uint256",
					"name": "jackpotPercent",
					"type": "uint256"
				},
				{
					"internalType": "uint256[]",
					"name": "values",
					"type": "uint256[]"
				},
				{
					"internalType": "uint256[]",
					"name": "percents",
					"type": "uint256[]"
				}
			],
			"name": "createGame",
			"outputs": [],
			"stateMutability": "nonpayable",
			"type": "function"
		},
		{
			"inputs": [
				{
					"internalType": "uint256",
					"name": "",
					"type": "uint256"
				}
			],
			"name": "gameInfo",
			"outputs": [
				{
					"internalType": "uint256",
					"name": "price",
					"type": "uint256"
				},
				{
					"internalType": "uint256",
					"name": "startPrize",
					"type": "uint256"
				},
				{
					"internalType": "string",
					"name": "title",
					"type": "string"
				},
				{
					"internalType": "uint256",
					"name": "ownerPercent",
					"type": "uint256"
				},
				{
					"internalType": "uint256",
					"name": "affiliatePercent",
					"type": "uint256"
				},
				{
					"internalType": "uint256",
					"name": "term",
					"type": "uint256"
				},
				{
					"internalType": "uint256",
					"name": "totalReward",
					"type": "uint256"
				},
				{
					"internalType": "uint256",
					"name": "totalSpin",
					"type": "uint256"
				}
			],
			"stateMutability": "view",
			"type": "function"
		},
		{
			"inputs": [],
			"name": "indexGame",
			"outputs": [
				{
					"internalType": "uint256",
					"name": "",
					"type": "uint256"
				}
			],
			"stateMutability": "view",
			"type": "function"
		},
		{
			"inputs": [],
			"name": "name",
			"outputs": [
				{
					"internalType": "string",
					"name": "",
					"type": "string"
				}
			],
			"stateMutability": "view",
			"type": "function"
		},
		{
			"inputs": [],
			"name": "nonce",
			"outputs": [
				{
					"internalType": "uint256",
					"name": "",
					"type": "uint256"
				}
			],
			"stateMutability": "view",
			"type": "function"
		},
		{
			"inputs": [
				{
					"internalType": "uint256",
					"name": "devPercent",
					"type": "uint256"
				},
				{
					"internalType": "uint256",
					"name": "sytemFee",
					"type": "uint256"
				},
				{
					"internalType": "address",
					"name": "sponsorAddress",
					"type": "address"
				},
				{
					"internalType": "address",
					"name": "devWallet",
					"type": "address"
				},
				{
					"internalType": "address",
					"name": "mktWallet",
					"type": "address"
				},
				{
					"internalType": "uint256",
					"name": "idGame",
					"type": "uint256"
				},
				{
					"internalType": "uint256",
					"name": "tokenId",
					"type": "uint256"
				},
				{
					"internalType": "uint256",
					"name": "qty",
					"type": "uint256"
				},
				{
					"internalType": "address",
					"name": "userSpin",
					"type": "address"
				}
			],
			"name": "order",
			"outputs": [],
			"stateMutability": "nonpayable",
			"type": "function"
		},
		{
			"inputs": [
				{
					"internalType": "uint256",
					"name": "",
					"type": "uint256"
				},
				{
					"internalType": "uint256",
					"name": "",
					"type": "uint256"
				}
			],
			"name": "orderDetail",
			"outputs": [
				{
					"internalType": "uint256",
					"name": "",
					"type": "uint256"
				}
			],
			"stateMutability": "view",
			"type": "function"
		},
		{
			"inputs": [
				{
					"internalType": "uint256",
					"name": "",
					"type": "uint256"
				}
			],
			"name": "orders",
			"outputs": [
				{
					"internalType": "bool",
					"name": "jackpot",
					"type": "bool"
				},
				{
					"internalType": "uint256",
					"name": "qty",
					"type": "uint256"
				},
				{
					"internalType": "uint256",
					"name": "tokenId",
					"type": "uint256"
				}
			],
			"stateMutability": "view",
			"type": "function"
		},
		{
			"inputs": [],
			"name": "owner",
			"outputs": [
				{
					"internalType": "address",
					"name": "",
					"type": "address"
				}
			],
			"stateMutability": "view",
			"type": "function"
		},
		{
			"inputs": [
				{
					"internalType": "uint256",
					"name": "",
					"type": "uint256"
				},
				{
					"internalType": "uint256",
					"name": "",
					"type": "uint256"
				}
			],
			"name": "prize",
			"outputs": [
				{
					"internalType": "uint256",
					"name": "value",
					"type": "uint256"
				},
				{
					"internalType": "uint256",
					"name": "percent",
					"type": "uint256"
				}
			],
			"stateMutability": "view",
			"type": "function"
		},
		{
			"inputs": [],
			"name": "projectOwnerWallet",
			"outputs": [
				{
					"internalType": "address",
					"name": "",
					"type": "address"
				}
			],
			"stateMutability": "view",
			"type": "function"
		},
		{
			"inputs": [],
			"name": "renounceOwnership",
			"outputs": [],
			"stateMutability": "nonpayable",
			"type": "function"
		},
		{
			"inputs": [
				{
					"internalType": "address",
					"name": "_owner",
					"type": "address"
				}
			],
			"name": "setProjectOwnerWallet",
			"outputs": [],
			"stateMutability": "nonpayable",
			"type": "function"
		},
		{
			"inputs": [
				{
					"internalType": "address",
					"name": "_token",
					"type": "address"
				}
			],
			"name": "setToken",
			"outputs": [],
			"stateMutability": "nonpayable",
			"type": "function"
		},
		{
			"inputs": [],
			"name": "token",
			"outputs": [
				{
					"internalType": "contract IERC20",
					"name": "",
					"type": "address"
				}
			],
			"stateMutability": "view",
			"type": "function"
		},
		{
			"inputs": [
				{
					"internalType": "address",
					"name": "newOwner",
					"type": "address"
				}
			],
			"name": "transferOwnership",
			"outputs": [],
			"stateMutability": "nonpayable",
			"type": "function"
		}
	]
}